{
	"contracts/MANAToken.sol": {
		"BurnableToken": {
			"abi": [
				{
					"constant": false,
					"inputs": [
						{
							"name": "_spender",
							"type": "address"
						},
						{
							"name": "_value",
							"type": "uint256"
						}
					],
					"name": "approve",
					"outputs": [
						{
							"name": "",
							"type": "bool"
						}
					],
					"payable": false,
					"stateMutability": "nonpayable",
					"type": "function"
				},
				{
					"constant": true,
					"inputs": [],
					"name": "totalSupply",
					"outputs": [
						{
							"name": "",
							"type": "uint256"
						}
					],
					"payable": false,
					"stateMutability": "view",
					"type": "function"
				},
				{
					"constant": false,
					"inputs": [
						{
							"name": "_from",
							"type": "address"
						},
						{
							"name": "_to",
							"type": "address"
						},
						{
							"name": "_value",
							"type": "uint256"
						}
					],
					"name": "transferFrom",
					"outputs": [
						{
							"name": "",
							"type": "bool"
						}
					],
					"payable": false,
					"stateMutability": "nonpayable",
					"type": "function"
				},
				{
					"constant": false,
					"inputs": [
						{
							"name": "_value",
							"type": "uint256"
						}
					],
					"name": "burn",
					"outputs": [],
					"payable": false,
					"stateMutability": "nonpayable",
					"type": "function"
				},
				{
					"constant": true,
					"inputs": [
						{
							"name": "_owner",
							"type": "address"
						}
					],
					"name": "balanceOf",
					"outputs": [
						{
							"name": "balance",
							"type": "uint256"
						}
					],
					"payable": false,
					"stateMutability": "view",
					"type": "function"
				},
				{
					"constant": false,
					"inputs": [
						{
							"name": "_to",
							"type": "address"
						},
						{
							"name": "_value",
							"type": "uint256"
						}
					],
					"name": "transfer",
					"outputs": [
						{
							"name": "",
							"type": "bool"
						}
					],
					"payable": false,
					"stateMutability": "nonpayable",
					"type": "function"
				},
				{
					"constant": true,
					"inputs": [
						{
							"name": "_owner",
							"type": "address"
						},
						{
							"name": "_spender",
							"type": "address"
						}
					],
					"name": "allowance",
					"outputs": [
						{
							"name": "remaining",
							"type": "uint256"
						}
					],
					"payable": false,
					"stateMutability": "view",
					"type": "function"
				},
				{
					"anonymous": false,
					"inputs": [
						{
							"indexed": true,
							"name": "burner",
							"type": "address"
						},
						{
							"indexed": false,
							"name": "value",
							"type": "uint256"
						}
					],
					"name": "Burn",
					"type": "event"
				},
				{
					"anonymous": false,
					"inputs": [
						{
							"indexed": true,
							"name": "owner",
							"type": "address"
						},
						{
							"indexed": true,
							"name": "spender",
							"type": "address"
						},
						{
							"indexed": false,
							"name": "value",
							"type": "uint256"
						}
					],
					"name": "Approval",
					"type": "event"
				},
				{
					"anonymous": false,
					"inputs": [
						{
							"indexed": true,
							"name": "from",
							"type": "address"
						},
						{
							"indexed": true,
							"name": "to",
							"type": "address"
						},
						{
							"indexed": false,
							"name": "value",
							"type": "uint256"
						}
					],
					"name": "Transfer",
					"type": "event"
				}
			],
			"devdoc": {
				"methods": {
					"allowance(address,address)": {
						"details": "Function to check the amount of tokens that an owner allowed to a spender.",
						"params": {
							"_owner": "address The address which owns the funds.",
							"_spender": "address The address which will spend the funds."
						},
						"return": "A uint256 specifing the amount of tokens still avaible for the spender."
					},
					"approve(address,uint256)": {
						"details": "Aprove the passed address to spend the specified amount of tokens on behalf of msg.sender.",
						"params": {
							"_spender": "The address which will spend the funds.",
							"_value": "The amount of tokens to be spent."
						}
					},
					"balanceOf(address)": {
						"details": "Gets the balance of the specified address.",
						"params": {
							"_owner": "The address to query the the balance of. "
						},
						"return": "An uint256 representing the amount owned by the passed address."
					},
					"burn(uint256)": {
						"details": "Burns a specified amount of tokens.",
						"params": {
							"_value": "The amount of tokens to burn. "
						}
					},
					"transfer(address,uint256)": {
						"details": "transfer token for a specified address",
						"params": {
							"_to": "The address to transfer to.",
							"_value": "The amount to be transferred."
						}
					},
					"transferFrom(address,address,uint256)": {
						"details": "Transfer tokens from one address to another",
						"params": {
							"_from": "address The address which you want to send tokens from",
							"_to": "address The address which you want to transfer to",
							"_value": "uint256 the amout of tokens to be transfered"
						}
					}
				}
			},
			"evm": {
				"assembly": "    /* \"contracts/MANAToken.sol\":7264:7735  contract BurnableToken is StandardToken {... */\n  mstore(0x40, 0x80)\n  callvalue\n    /* \"--CODEGEN--\":8:17   */\n  dup1\n    /* \"--CODEGEN--\":5:7   */\n  iszero\n  tag_1\n  jumpi\n    /* \"--CODEGEN--\":30:31   */\n  0x0\n    /* \"--CODEGEN--\":27:28   */\n  dup1\n    /* \"--CODEGEN--\":20:32   */\n  revert\n    /* \"--CODEGEN--\":5:7   */\ntag_1:\n    /* \"contracts/MANAToken.sol\":7264:7735  contract BurnableToken is StandardToken {... */\n  pop\n  dataSize(sub_0)\n  dup1\n  dataOffset(sub_0)\n  0x0\n  codecopy\n  0x0\n  return\nstop\n\nsub_0: assembly {\n        /* \"contracts/MANAToken.sol\":7264:7735  contract BurnableToken is StandardToken {... */\n      mstore(0x40, 0x80)\n      jumpi(tag_1, lt(calldatasize, 0x4))\n      calldataload(0x0)\n      0x100000000000000000000000000000000000000000000000000000000\n      swap1\n      div\n      0xffffffff\n      and\n      dup1\n      0x95ea7b3\n      eq\n      tag_2\n      jumpi\n      dup1\n      0x18160ddd\n      eq\n      tag_3\n      jumpi\n      dup1\n      0x23b872dd\n      eq\n      tag_4\n      jumpi\n      dup1\n      0x42966c68\n      eq\n      tag_5\n      jumpi\n      dup1\n      0x70a08231\n      eq\n      tag_6\n      jumpi\n      dup1\n      0xa9059cbb\n      eq\n      tag_7\n      jumpi\n      dup1\n      0xdd62ed3e\n      eq\n      tag_8\n      jumpi\n    tag_1:\n      0x0\n      dup1\n      revert\n        /* \"contracts/MANAToken.sol\":4784:5318  function approve(address _spender, uint256 _value) returns (bool) {... */\n    tag_2:\n      callvalue\n        /* \"--CODEGEN--\":8:17   */\n      dup1\n        /* \"--CODEGEN--\":5:7   */\n      iszero\n      tag_9\n      jumpi\n        /* \"--CODEGEN--\":30:31   */\n      0x0\n        /* \"--CODEGEN--\":27:28   */\n      dup1\n        /* \"--CODEGEN--\":20:32   */\n      revert\n        /* \"--CODEGEN--\":5:7   */\n    tag_9:\n        /* \"contracts/MANAToken.sol\":4784:5318  function approve(address _spender, uint256 _value) returns (bool) {... */\n      pop\n      tag_10\n      0x4\n      dup1\n      calldatasize\n      sub\n      dup2\n      add\n      swap1\n      dup1\n      dup1\n      calldataload\n      0xffffffffffffffffffffffffffffffffffffffff\n      and\n      swap1\n      0x20\n      add\n      swap1\n      swap3\n      swap2\n      swap1\n      dup1\n      calldataload\n      swap1\n      0x20\n      add\n      swap1\n      swap3\n      swap2\n      swap1\n      pop\n      pop\n      pop\n      jump(tag_11)\n    tag_10:\n      mload(0x40)\n      dup1\n      dup3\n      iszero\n      iszero\n      iszero\n      iszero\n      dup2\n      mstore\n      0x20\n      add\n      swap2\n      pop\n      pop\n      mload(0x40)\n      dup1\n      swap2\n      sub\n      swap1\n      return\n        /* \"contracts/MANAToken.sol\":184:210  uint256 public totalSupply */\n    tag_3:\n      callvalue\n        /* \"--CODEGEN--\":8:17   */\n      dup1\n        /* \"--CODEGEN--\":5:7   */\n      iszero\n      tag_12\n      jumpi\n        /* \"--CODEGEN--\":30:31   */\n      0x0\n        /* \"--CODEGEN--\":27:28   */\n      dup1\n        /* \"--CODEGEN--\":20:32   */\n      revert\n        /* \"--CODEGEN--\":5:7   */\n    tag_12:\n        /* \"contracts/MANAToken.sol\":184:210  uint256 public totalSupply */\n      pop\n      tag_13\n      jump(tag_14)\n    tag_13:\n      mload(0x40)\n      dup1\n      dup3\n      dup2\n      mstore\n      0x20\n      add\n      swap2\n      pop\n      pop\n      mload(0x40)\n      dup1\n      swap2\n      sub\n      swap1\n      return\n        /* \"contracts/MANAToken.sol\":4064:4553  function transferFrom(address _from, address _to, uint256 _value) returns (bool) {... */\n    tag_4:\n      callvalue\n        /* \"--CODEGEN--\":8:17   */\n      dup1\n        /* \"--CODEGEN--\":5:7   */\n      iszero\n      tag_15\n      jumpi\n        /* \"--CODEGEN--\":30:31   */\n      0x0\n        /* \"--CODEGEN--\":27:28   */\n      dup1\n        /* \"--CODEGEN--\":20:32   */\n      revert\n        /* \"--CODEGEN--\":5:7   */\n    tag_15:\n        /* \"contracts/MANAToken.sol\":4064:4553  function transferFrom(address _from, address _to, uint256 _value) returns (bool) {... */\n      pop\n      tag_16\n      0x4\n      dup1\n      calldatasize\n      sub\n      dup2\n      add\n      swap1\n      dup1\n      dup1\n      calldataload\n      0xffffffffffffffffffffffffffffffffffffffff\n      and\n      swap1\n      0x20\n      add\n      swap1\n      swap3\n      swap2\n      swap1\n      dup1\n      calldataload\n      0xffffffffffffffffffffffffffffffffffffffff\n      and\n      swap1\n      0x20\n      add\n      swap1\n      swap3\n      swap2\n      swap1\n      dup1\n      calldataload\n      swap1\n      0x20\n      add\n      swap1\n      swap3\n      swap2\n      swap1\n      pop\n      pop\n      pop\n      jump(tag_17)\n    tag_16:\n      mload(0x40)\n      dup1\n      dup3\n      iszero\n      iszero\n      iszero\n      iszero\n      dup2\n      mstore\n      0x20\n      add\n      swap2\n      pop\n      pop\n      mload(0x40)\n      dup1\n      swap2\n      sub\n      swap1\n      return\n        /* \"contracts/MANAToken.sol\":7483:7732  function burn(uint256 _value) public {... */\n    tag_5:\n      callvalue\n        /* \"--CODEGEN--\":8:17   */\n      dup1\n        /* \"--CODEGEN--\":5:7   */\n      iszero\n      tag_18\n      jumpi\n        /* \"--CODEGEN--\":30:31   */\n      0x0\n        /* \"--CODEGEN--\":27:28   */\n      dup1\n        /* \"--CODEGEN--\":20:32   */\n      revert\n        /* \"--CODEGEN--\":5:7   */\n    tag_18:\n        /* \"contracts/MANAToken.sol\":7483:7732  function burn(uint256 _value) public {... */\n      pop\n      tag_19\n      0x4\n      dup1\n      calldatasize\n      sub\n      dup2\n      add\n      swap1\n      dup1\n      dup1\n      calldataload\n      swap1\n      0x20\n      add\n      swap1\n      swap3\n      swap2\n      swap1\n      pop\n      pop\n      pop\n      jump(tag_20)\n    tag_19:\n      stop\n        /* \"contracts/MANAToken.sol\":3574:3678  function balanceOf(address _owner) constant returns (uint256 balance) {... */\n    tag_6:\n      callvalue\n        /* \"--CODEGEN--\":8:17   */\n      dup1\n        /* \"--CODEGEN--\":5:7   */\n      iszero\n      tag_21\n      jumpi\n        /* \"--CODEGEN--\":30:31   */\n      0x0\n        /* \"--CODEGEN--\":27:28   */\n      dup1\n        /* \"--CODEGEN--\":20:32   */\n      revert\n        /* \"--CODEGEN--\":5:7   */\n    tag_21:\n        /* \"contracts/MANAToken.sol\":3574:3678  function balanceOf(address _owner) constant returns (uint256 balance) {... */\n      pop\n      tag_22\n      0x4\n      dup1\n      calldatasize\n      sub\n      dup2\n      add\n      swap1\n      dup1\n      dup1\n      calldataload\n      0xffffffffffffffffffffffffffffffffffffffff\n      and\n      swap1\n      0x20\n      add\n      swap1\n      swap3\n      swap2\n      swap1\n      pop\n      pop\n      pop\n      jump(tag_23)\n    tag_22:\n      mload(0x40)\n      dup1\n      dup3\n      dup2\n      mstore\n      0x20\n      add\n      swap2\n      pop\n      pop\n      mload(0x40)\n      dup1\n      swap2\n      sub\n      swap1\n      return\n        /* \"contracts/MANAToken.sol\":3140:3371  function transfer(address _to, uint256 _value) returns (bool) {... */\n    tag_7:\n      callvalue\n        /* \"--CODEGEN--\":8:17   */\n      dup1\n        /* \"--CODEGEN--\":5:7   */\n      iszero\n      tag_24\n      jumpi\n        /* \"--CODEGEN--\":30:31   */\n      0x0\n        /* \"--CODEGEN--\":27:28   */\n      dup1\n        /* \"--CODEGEN--\":20:32   */\n      revert\n        /* \"--CODEGEN--\":5:7   */\n    tag_24:\n        /* \"contracts/MANAToken.sol\":3140:3371  function transfer(address _to, uint256 _value) returns (bool) {... */\n      pop\n      tag_25\n      0x4\n      dup1\n      calldatasize\n      sub\n      dup2\n      add\n      swap1\n      dup1\n      dup1\n      calldataload\n      0xffffffffffffffffffffffffffffffffffffffff\n      and\n      swap1\n      0x20\n      add\n      swap1\n      swap3\n      swap2\n      swap1\n      dup1\n      calldataload\n      swap1\n      0x20\n      add\n      swap1\n      swap3\n      swap2\n      swap1\n      pop\n      pop\n      pop\n      jump(tag_26)\n    tag_25:\n      mload(0x40)\n      dup1\n      dup3\n      iszero\n      iszero\n      iszero\n      iszero\n      dup2\n      mstore\n      0x20\n      add\n      swap2\n      pop\n      pop\n      mload(0x40)\n      dup1\n      swap2\n      sub\n      swap1\n      return\n        /* \"contracts/MANAToken.sol\":5634:5767  function allowance(address _owner, address _spender) constant returns (uint256 remaining) {... */\n    tag_8:\n      callvalue\n        /* \"--CODEGEN--\":8:17   */\n      dup1\n        /* \"--CODEGEN--\":5:7   */\n      iszero\n      tag_27\n      jumpi\n        /* \"--CODEGEN--\":30:31   */\n      0x0\n        /* \"--CODEGEN--\":27:28   */\n      dup1\n        /* \"--CODEGEN--\":20:32   */\n      revert\n        /* \"--CODEGEN--\":5:7   */\n    tag_27:\n        /* \"contracts/MANAToken.sol\":5634:5767  function allowance(address _owner, address _spender) constant returns (uint256 remaining) {... */\n      pop\n      tag_28\n      0x4\n      dup1\n      calldatasize\n      sub\n      dup2\n      add\n      swap1\n      dup1\n      dup1\n      calldataload\n      0xffffffffffffffffffffffffffffffffffffffff\n      and\n      swap1\n      0x20\n      add\n      swap1\n      swap3\n      swap2\n      swap1\n      dup1\n      calldataload\n      0xffffffffffffffffffffffffffffffffffffffff\n      and\n      swap1\n      0x20\n      add\n      swap1\n      swap3\n      swap2\n      swap1\n      pop\n      pop\n      pop\n      jump(tag_29)\n    tag_28:\n      mload(0x40)\n      dup1\n      dup3\n      dup2\n      mstore\n      0x20\n      add\n      swap2\n      pop\n      pop\n      mload(0x40)\n      dup1\n      swap2\n      sub\n      swap1\n      return\n        /* \"contracts/MANAToken.sol\":4784:5318  function approve(address _spender, uint256 _value) returns (bool) {... */\n    tag_11:\n        /* \"contracts/MANAToken.sol\":4844:4848  bool */\n      0x0\n        /* \"contracts/MANAToken.sol\":5164:5165  0 */\n      dup1\n        /* \"contracts/MANAToken.sol\":5154:5160  _value */\n      dup3\n        /* \"contracts/MANAToken.sol\":5154:5165  _value == 0 */\n      eq\n        /* \"contracts/MANAToken.sol\":5153:5206  (_value == 0) || (allowed[msg.sender][_spender] == 0) */\n      dup1\n      tag_31\n      jumpi\n      pop\n        /* \"contracts/MANAToken.sol\":5204:5205  0 */\n      0x0\n        /* \"contracts/MANAToken.sol\":5171:5178  allowed */\n      0x2\n        /* \"contracts/MANAToken.sol\":5171:5190  allowed[msg.sender] */\n      0x0\n        /* \"contracts/MANAToken.sol\":5179:5189  msg.sender */\n      caller\n        /* \"contracts/MANAToken.sol\":5171:5190  allowed[msg.sender] */\n      0xffffffffffffffffffffffffffffffffffffffff\n      and\n      0xffffffffffffffffffffffffffffffffffffffff\n      and\n      dup2\n      mstore\n      0x20\n      add\n      swap1\n      dup2\n      mstore\n      0x20\n      add\n      0x0\n      keccak256\n        /* \"contracts/MANAToken.sol\":5171:5200  allowed[msg.sender][_spender] */\n      0x0\n        /* \"contracts/MANAToken.sol\":5191:5199  _spender */\n      dup6\n        /* \"contracts/MANAToken.sol\":5171:5200  allowed[msg.sender][_spender] */\n      0xffffffffffffffffffffffffffffffffffffffff\n      and\n      0xffffffffffffffffffffffffffffffffffffffff\n      and\n      dup2\n      mstore\n      0x20\n      add\n      swap1\n      dup2\n      mstore\n      0x20\n      add\n      0x0\n      keccak256\n      sload\n        /* \"contracts/MANAToken.sol\":5171:5205  allowed[msg.sender][_spender] == 0 */\n      eq\n        /* \"contracts/MANAToken.sol\":5153:5206  (_value == 0) || (allowed[msg.sender][_spender] == 0) */\n    tag_31:\n        /* \"contracts/MANAToken.sol\":5145:5207  require((_value == 0) || (allowed[msg.sender][_spender] == 0)) */\n      iszero\n      iszero\n      tag_32\n      jumpi\n      0x0\n      dup1\n      revert\n    tag_32:\n        /* \"contracts/MANAToken.sol\":5246:5252  _value */\n      dup2\n        /* \"contracts/MANAToken.sol\":5214:5221  allowed */\n      0x2\n        /* \"contracts/MANAToken.sol\":5214:5233  allowed[msg.sender] */\n      0x0\n        /* \"contracts/MANAToken.sol\":5222:5232  msg.sender */\n      caller\n        /* \"contracts/MANAToken.sol\":5214:5233  allowed[msg.sender] */\n      0xffffffffffffffffffffffffffffffffffffffff\n      and\n      0xffffffffffffffffffffffffffffffffffffffff\n      and\n      dup2\n      mstore\n      0x20\n      add\n      swap1\n      dup2\n      mstore\n      0x20\n      add\n      0x0\n      keccak256\n        /* \"contracts/MANAToken.sol\":5214:5243  allowed[msg.sender][_spender] */\n      0x0\n        /* \"contracts/MANAToken.sol\":5234:5242  _spender */\n      dup6\n        /* \"contracts/MANAToken.sol\":5214:5243  allowed[msg.sender][_spender] */\n      0xffffffffffffffffffffffffffffffffffffffff\n      and\n      0xffffffffffffffffffffffffffffffffffffffff\n      and\n      dup2\n      mstore\n      0x20\n      add\n      swap1\n      dup2\n      mstore\n      0x20\n      add\n      0x0\n      keccak256\n        /* \"contracts/MANAToken.sol\":5214:5252  allowed[msg.sender][_spender] = _value */\n      dup2\n      swap1\n      sstore\n      pop\n        /* \"contracts/MANAToken.sol\":5279:5287  _spender */\n      dup3\n        /* \"contracts/MANAToken.sol\":5258:5296  Approval(msg.sender, _spender, _value) */\n      0xffffffffffffffffffffffffffffffffffffffff\n      and\n        /* \"contracts/MANAToken.sol\":5267:5277  msg.sender */\n      caller\n        /* \"contracts/MANAToken.sol\":5258:5296  Approval(msg.sender, _spender, _value) */\n      0xffffffffffffffffffffffffffffffffffffffff\n      and\n      0x8c5be1e5ebec7d5bd14f71427d1e84f3dd0314c0f7b2291e5b200ac8c7c3b925\n        /* \"contracts/MANAToken.sol\":5289:5295  _value */\n      dup5\n        /* \"contracts/MANAToken.sol\":5258:5296  Approval(msg.sender, _spender, _value) */\n      mload(0x40)\n      dup1\n      dup3\n      dup2\n      mstore\n      0x20\n      add\n      swap2\n      pop\n      pop\n      mload(0x40)\n      dup1\n      swap2\n      sub\n      swap1\n      log3\n        /* \"contracts/MANAToken.sol\":5309:5313  true */\n      0x1\n        /* \"contracts/MANAToken.sol\":5302:5313  return true */\n      swap1\n      pop\n        /* \"contracts/MANAToken.sol\":4784:5318  function approve(address _spender, uint256 _value) returns (bool) {... */\n      swap3\n      swap2\n      pop\n      pop\n      jump\t// out\n        /* \"contracts/MANAToken.sol\":184:210  uint256 public totalSupply */\n    tag_14:\n      sload(0x0)\n      dup2\n      jump\t// out\n        /* \"contracts/MANAToken.sol\":4064:4553  function transferFrom(address _from, address _to, uint256 _value) returns (bool) {... */\n    tag_17:\n        /* \"contracts/MANAToken.sol\":4139:4143  bool */\n      0x0\n        /* \"contracts/MANAToken.sol\":4151:4165  var _allowance */\n      dup1\n        /* \"contracts/MANAToken.sol\":4168:4175  allowed */\n      0x2\n        /* \"contracts/MANAToken.sol\":4168:4182  allowed[_from] */\n      0x0\n        /* \"contracts/MANAToken.sol\":4176:4181  _from */\n      dup7\n        /* \"contracts/MANAToken.sol\":4168:4182  allowed[_from] */\n      0xffffffffffffffffffffffffffffffffffffffff\n      and\n      0xffffffffffffffffffffffffffffffffffffffff\n      and\n      dup2\n      mstore\n      0x20\n      add\n      swap1\n      dup2\n      mstore\n      0x20\n      add\n      0x0\n      keccak256\n        /* \"contracts/MANAToken.sol\":4168:4194  allowed[_from][msg.sender] */\n      0x0\n        /* \"contracts/MANAToken.sol\":4183:4193  msg.sender */\n      caller\n        /* \"contracts/MANAToken.sol\":4168:4194  allowed[_from][msg.sender] */\n      0xffffffffffffffffffffffffffffffffffffffff\n      and\n      0xffffffffffffffffffffffffffffffffffffffff\n      and\n      dup2\n      mstore\n      0x20\n      add\n      swap1\n      dup2\n      mstore\n      0x20\n      add\n      0x0\n      keccak256\n      sload\n        /* \"contracts/MANAToken.sol\":4151:4194  var _allowance = allowed[_from][msg.sender] */\n      swap1\n      pop\n        /* \"contracts/MANAToken.sol\":4364:4389  balances[_to].add(_value) */\n      tag_34\n        /* \"contracts/MANAToken.sol\":4382:4388  _value */\n      dup4\n        /* \"contracts/MANAToken.sol\":4364:4372  balances */\n      0x1\n        /* \"contracts/MANAToken.sol\":4364:4377  balances[_to] */\n      0x0\n        /* \"contracts/MANAToken.sol\":4373:4376  _to */\n      dup8\n        /* \"contracts/MANAToken.sol\":4364:4377  balances[_to] */\n      0xffffffffffffffffffffffffffffffffffffffff\n      and\n      0xffffffffffffffffffffffffffffffffffffffff\n      and\n      dup2\n      mstore\n      0x20\n      add\n      swap1\n      dup2\n      mstore\n      0x20\n      add\n      0x0\n      keccak256\n      sload\n        /* \"contracts/MANAToken.sol\":4364:4381  balances[_to].add */\n      tag_35\n      swap1\n        /* \"contracts/MANAToken.sol\":4364:4389  balances[_to].add(_value) */\n      swap2\n      swap1\n      0xffffffff\n      and\n      jump\t// in\n    tag_34:\n        /* \"contracts/MANAToken.sol\":4348:4356  balances */\n      0x1\n        /* \"contracts/MANAToken.sol\":4348:4361  balances[_to] */\n      0x0\n        /* \"contracts/MANAToken.sol\":4357:4360  _to */\n      dup7\n        /* \"contracts/MANAToken.sol\":4348:4361  balances[_to] */\n      0xffffffffffffffffffffffffffffffffffffffff\n      and\n      0xffffffffffffffffffffffffffffffffffffffff\n      and\n      dup2\n      mstore\n      0x20\n      add\n      swap1\n      dup2\n      mstore\n      0x20\n      add\n      0x0\n      keccak256\n        /* \"contracts/MANAToken.sol\":4348:4389  balances[_to] = balances[_to].add(_value) */\n      dup2\n      swap1\n      sstore\n      pop\n        /* \"contracts/MANAToken.sol\":4413:4440  balances[_from].sub(_value) */\n      tag_36\n        /* \"contracts/MANAToken.sol\":4433:4439  _value */\n      dup4\n        /* \"contracts/MANAToken.sol\":4413:4421  balances */\n      0x1\n        /* \"contracts/MANAToken.sol\":4413:4428  balances[_from] */\n      0x0\n        /* \"contracts/MANAToken.sol\":4422:4427  _from */\n      dup9\n        /* \"contracts/MANAToken.sol\":4413:4428  balances[_from] */\n      0xffffffffffffffffffffffffffffffffffffffff\n      and\n      0xffffffffffffffffffffffffffffffffffffffff\n      and\n      dup2\n      mstore\n      0x20\n      add\n      swap1\n      dup2\n      mstore\n      0x20\n      add\n      0x0\n      keccak256\n      sload\n        /* \"contracts/MANAToken.sol\":4413:4432  balances[_from].sub */\n      tag_37\n      swap1\n        /* \"contracts/MANAToken.sol\":4413:4440  balances[_from].sub(_value) */\n      swap2\n      swap1\n      0xffffffff\n      and\n      jump\t// in\n    tag_36:\n        /* \"contracts/MANAToken.sol\":4395:4403  balances */\n      0x1\n        /* \"contracts/MANAToken.sol\":4395:4410  balances[_from] */\n      0x0\n        /* \"contracts/MANAToken.sol\":4404:4409  _from */\n      dup8\n        /* \"contracts/MANAToken.sol\":4395:4410  balances[_from] */\n      0xffffffffffffffffffffffffffffffffffffffff\n      and\n      0xffffffffffffffffffffffffffffffffffffffff\n      and\n      dup2\n      mstore\n      0x20\n      add\n      swap1\n      dup2\n      mstore\n      0x20\n      add\n      0x0\n      keccak256\n        /* \"contracts/MANAToken.sol\":4395:4440  balances[_from] = balances[_from].sub(_value) */\n      dup2\n      swap1\n      sstore\n      pop\n        /* \"contracts/MANAToken.sol\":4475:4497  _allowance.sub(_value) */\n      tag_38\n        /* \"contracts/MANAToken.sol\":4490:4496  _value */\n      dup4\n        /* \"contracts/MANAToken.sol\":4475:4485  _allowance */\n      dup3\n        /* \"contracts/MANAToken.sol\":4475:4489  _allowance.sub */\n      tag_37\n      swap1\n        /* \"contracts/MANAToken.sol\":4475:4497  _allowance.sub(_value) */\n      swap2\n      swap1\n      0xffffffff\n      and\n      jump\t// in\n    tag_38:\n        /* \"contracts/MANAToken.sol\":4446:4453  allowed */\n      0x2\n        /* \"contracts/MANAToken.sol\":4446:4460  allowed[_from] */\n      0x0\n        /* \"contracts/MANAToken.sol\":4454:4459  _from */\n      dup8\n        /* \"contracts/MANAToken.sol\":4446:4460  allowed[_from] */\n      0xffffffffffffffffffffffffffffffffffffffff\n      and\n      0xffffffffffffffffffffffffffffffffffffffff\n      and\n      dup2\n      mstore\n      0x20\n      add\n      swap1\n      dup2\n      mstore\n      0x20\n      add\n      0x0\n      keccak256\n        /* \"contracts/MANAToken.sol\":4446:4472  allowed[_from][msg.sender] */\n      0x0\n        /* \"contracts/MANAToken.sol\":4461:4471  msg.sender */\n      caller\n        /* \"contracts/MANAToken.sol\":4446:4472  allowed[_from][msg.sender] */\n      0xffffffffffffffffffffffffffffffffffffffff\n      and\n      0xffffffffffffffffffffffffffffffffffffffff\n      and\n      dup2\n      mstore\n      0x20\n      add\n      swap1\n      dup2\n      mstore\n      0x20\n      add\n      0x0\n      keccak256\n        /* \"contracts/MANAToken.sol\":4446:4497  allowed[_from][msg.sender] = _allowance.sub(_value) */\n      dup2\n      swap1\n      sstore\n      pop\n        /* \"contracts/MANAToken.sol\":4519:4522  _to */\n      dup4\n        /* \"contracts/MANAToken.sol\":4503:4531  Transfer(_from, _to, _value) */\n      0xffffffffffffffffffffffffffffffffffffffff\n      and\n        /* \"contracts/MANAToken.sol\":4512:4517  _from */\n      dup6\n        /* \"contracts/MANAToken.sol\":4503:4531  Transfer(_from, _to, _value) */\n      0xffffffffffffffffffffffffffffffffffffffff\n      and\n      0xddf252ad1be2c89b69c2b068fc378daa952ba7f163c4a11628f55a4df523b3ef\n        /* \"contracts/MANAToken.sol\":4524:4530  _value */\n      dup6\n        /* \"contracts/MANAToken.sol\":4503:4531  Transfer(_from, _to, _value) */\n      mload(0x40)\n      dup1\n      dup3\n      dup2\n      mstore\n      0x20\n      add\n      swap2\n      pop\n      pop\n      mload(0x40)\n      dup1\n      swap2\n      sub\n      swap1\n      log3\n        /* \"contracts/MANAToken.sol\":4544:4548  true */\n      0x1\n        /* \"contracts/MANAToken.sol\":4537:4548  return true */\n      swap2\n      pop\n        /* \"contracts/MANAToken.sol\":4064:4553  function transferFrom(address _from, address _to, uint256 _value) returns (bool) {... */\n      pop\n      swap4\n      swap3\n      pop\n      pop\n      pop\n      jump\t// out\n        /* \"contracts/MANAToken.sol\":7483:7732  function burn(uint256 _value) public {... */\n    tag_20:\n        /* \"contracts/MANAToken.sol\":7560:7574  address burner */\n      0x0\n        /* \"contracts/MANAToken.sol\":7547:7548  0 */\n      dup1\n        /* \"contracts/MANAToken.sol\":7538:7544  _value */\n      dup3\n        /* \"contracts/MANAToken.sol\":7538:7548  _value > 0 */\n      gt\n        /* \"contracts/MANAToken.sol\":7530:7549  require(_value > 0) */\n      iszero\n      iszero\n      tag_40\n      jumpi\n      0x0\n      dup1\n      revert\n    tag_40:\n        /* \"contracts/MANAToken.sol\":7577:7587  msg.sender */\n      caller\n        /* \"contracts/MANAToken.sol\":7560:7587  address burner = msg.sender */\n      swap1\n      pop\n        /* \"contracts/MANAToken.sol\":7616:7644  balances[burner].sub(_value) */\n      tag_41\n        /* \"contracts/MANAToken.sol\":7637:7643  _value */\n      dup3\n        /* \"contracts/MANAToken.sol\":7616:7624  balances */\n      0x1\n        /* \"contracts/MANAToken.sol\":7616:7632  balances[burner] */\n      0x0\n        /* \"contracts/MANAToken.sol\":7625:7631  burner */\n      dup5\n        /* \"contracts/MANAToken.sol\":7616:7632  balances[burner] */\n      0xffffffffffffffffffffffffffffffffffffffff\n      and\n      0xffffffffffffffffffffffffffffffffffffffff\n      and\n      dup2\n      mstore\n      0x20\n      add\n      swap1\n      dup2\n      mstore\n      0x20\n      add\n      0x0\n      keccak256\n      sload\n        /* \"contracts/MANAToken.sol\":7616:7636  balances[burner].sub */\n      tag_37\n      swap1\n        /* \"contracts/MANAToken.sol\":7616:7644  balances[burner].sub(_value) */\n      swap2\n      swap1\n      0xffffffff\n      and\n      jump\t// in\n    tag_41:\n        /* \"contracts/MANAToken.sol\":7597:7605  balances */\n      0x1\n        /* \"contracts/MANAToken.sol\":7597:7613  balances[burner] */\n      0x0\n        /* \"contracts/MANAToken.sol\":7606:7612  burner */\n      dup4\n        /* \"contracts/MANAToken.sol\":7597:7613  balances[burner] */\n      0xffffffffffffffffffffffffffffffffffffffff\n      and\n      0xffffffffffffffffffffffffffffffffffffffff\n      and\n      dup2\n      mstore\n      0x20\n      add\n      swap1\n      dup2\n      mstore\n      0x20\n      add\n      0x0\n      keccak256\n        /* \"contracts/MANAToken.sol\":7597:7644  balances[burner] = balances[burner].sub(_value) */\n      dup2\n      swap1\n      sstore\n      pop\n        /* \"contracts/MANAToken.sol\":7668:7691  totalSupply.sub(_value) */\n      tag_42\n        /* \"contracts/MANAToken.sol\":7684:7690  _value */\n      dup3\n        /* \"contracts/MANAToken.sol\":7668:7679  totalSupply */\n      sload(0x0)\n        /* \"contracts/MANAToken.sol\":7668:7683  totalSupply.sub */\n      tag_37\n      swap1\n        /* \"contracts/MANAToken.sol\":7668:7691  totalSupply.sub(_value) */\n      swap2\n      swap1\n      0xffffffff\n      and\n      jump\t// in\n    tag_42:\n        /* \"contracts/MANAToken.sol\":7654:7665  totalSupply */\n      0x0\n        /* \"contracts/MANAToken.sol\":7654:7691  totalSupply = totalSupply.sub(_value) */\n      dup2\n      swap1\n      sstore\n      pop\n        /* \"contracts/MANAToken.sol\":7706:7716  msg.sender */\n      caller\n        /* \"contracts/MANAToken.sol\":7701:7725  Burn(msg.sender, _value) */\n      0xffffffffffffffffffffffffffffffffffffffff\n      and\n      0xcc16f5dbb4873280815c1ee09dbd06736cffcc184412cf7a71a0fdb75d397ca5\n        /* \"contracts/MANAToken.sol\":7718:7724  _value */\n      dup4\n        /* \"contracts/MANAToken.sol\":7701:7725  Burn(msg.sender, _value) */\n      mload(0x40)\n      dup1\n      dup3\n      dup2\n      mstore\n      0x20\n      add\n      swap2\n      pop\n      pop\n      mload(0x40)\n      dup1\n      swap2\n      sub\n      swap1\n      log2\n        /* \"contracts/MANAToken.sol\":7483:7732  function burn(uint256 _value) public {... */\n      pop\n      pop\n      jump\t// out\n        /* \"contracts/MANAToken.sol\":3574:3678  function balanceOf(address _owner) constant returns (uint256 balance) {... */\n    tag_23:\n        /* \"contracts/MANAToken.sol\":3627:3642  uint256 balance */\n      0x0\n        /* \"contracts/MANAToken.sol\":3657:3665  balances */\n      0x1\n        /* \"contracts/MANAToken.sol\":3657:3673  balances[_owner] */\n      0x0\n        /* \"contracts/MANAToken.sol\":3666:3672  _owner */\n      dup4\n        /* \"contracts/MANAToken.sol\":3657:3673  balances[_owner] */\n      0xffffffffffffffffffffffffffffffffffffffff\n      and\n      0xffffffffffffffffffffffffffffffffffffffff\n      and\n      dup2\n      mstore\n      0x20\n      add\n      swap1\n      dup2\n      mstore\n      0x20\n      add\n      0x0\n      keccak256\n      sload\n        /* \"contracts/MANAToken.sol\":3650:3673  return balances[_owner] */\n      swap1\n      pop\n        /* \"contracts/MANAToken.sol\":3574:3678  function balanceOf(address _owner) constant returns (uint256 balance) {... */\n      swap2\n      swap1\n      pop\n      jump\t// out\n        /* \"contracts/MANAToken.sol\":3140:3371  function transfer(address _to, uint256 _value) returns (bool) {... */\n    tag_26:\n        /* \"contracts/MANAToken.sol\":3196:3200  bool */\n      0x0\n        /* \"contracts/MANAToken.sol\":3231:3263  balances[msg.sender].sub(_value) */\n      tag_45\n        /* \"contracts/MANAToken.sol\":3256:3262  _value */\n      dup3\n        /* \"contracts/MANAToken.sol\":3231:3239  balances */\n      0x1\n        /* \"contracts/MANAToken.sol\":3231:3251  balances[msg.sender] */\n      0x0\n        /* \"contracts/MANAToken.sol\":3240:3250  msg.sender */\n      caller\n        /* \"contracts/MANAToken.sol\":3231:3251  balances[msg.sender] */\n      0xffffffffffffffffffffffffffffffffffffffff\n      and\n      0xffffffffffffffffffffffffffffffffffffffff\n      and\n      dup2\n      mstore\n      0x20\n      add\n      swap1\n      dup2\n      mstore\n      0x20\n      add\n      0x0\n      keccak256\n      sload\n        /* \"contracts/MANAToken.sol\":3231:3255  balances[msg.sender].sub */\n      tag_37\n      swap1\n        /* \"contracts/MANAToken.sol\":3231:3263  balances[msg.sender].sub(_value) */\n      swap2\n      swap1\n      0xffffffff\n      and\n      jump\t// in\n    tag_45:\n        /* \"contracts/MANAToken.sol\":3208:3216  balances */\n      0x1\n        /* \"contracts/MANAToken.sol\":3208:3228  balances[msg.sender] */\n      0x0\n        /* \"contracts/MANAToken.sol\":3217:3227  msg.sender */\n      caller\n        /* \"contracts/MANAToken.sol\":3208:3228  balances[msg.sender] */\n      0xffffffffffffffffffffffffffffffffffffffff\n      and\n      0xffffffffffffffffffffffffffffffffffffffff\n      and\n      dup2\n      mstore\n      0x20\n      add\n      swap1\n      dup2\n      mstore\n      0x20\n      add\n      0x0\n      keccak256\n        /* \"contracts/MANAToken.sol\":3208:3263  balances[msg.sender] = balances[msg.sender].sub(_value) */\n      dup2\n      swap1\n      sstore\n      pop\n        /* \"contracts/MANAToken.sol\":3285:3310  balances[_to].add(_value) */\n      tag_46\n        /* \"contracts/MANAToken.sol\":3303:3309  _value */\n      dup3\n        /* \"contracts/MANAToken.sol\":3285:3293  balances */\n      0x1\n        /* \"contracts/MANAToken.sol\":3285:3298  balances[_to] */\n      0x0\n        /* \"contracts/MANAToken.sol\":3294:3297  _to */\n      dup7\n        /* \"contracts/MANAToken.sol\":3285:3298  balances[_to] */\n      0xffffffffffffffffffffffffffffffffffffffff\n      and\n      0xffffffffffffffffffffffffffffffffffffffff\n      and\n      dup2\n      mstore\n      0x20\n      add\n      swap1\n      dup2\n      mstore\n      0x20\n      add\n      0x0\n      keccak256\n      sload\n        /* \"contracts/MANAToken.sol\":3285:3302  balances[_to].add */\n      tag_35\n      swap1\n        /* \"contracts/MANAToken.sol\":3285:3310  balances[_to].add(_value) */\n      swap2\n      swap1\n      0xffffffff\n      and\n      jump\t// in\n    tag_46:\n        /* \"contracts/MANAToken.sol\":3269:3277  balances */\n      0x1\n        /* \"contracts/MANAToken.sol\":3269:3282  balances[_to] */\n      0x0\n        /* \"contracts/MANAToken.sol\":3278:3281  _to */\n      dup6\n        /* \"contracts/MANAToken.sol\":3269:3282  balances[_to] */\n      0xffffffffffffffffffffffffffffffffffffffff\n      and\n      0xffffffffffffffffffffffffffffffffffffffff\n      and\n      dup2\n      mstore\n      0x20\n      add\n      swap1\n      dup2\n      mstore\n      0x20\n      add\n      0x0\n      keccak256\n        /* \"contracts/MANAToken.sol\":3269:3310  balances[_to] = balances[_to].add(_value) */\n      dup2\n      swap1\n      sstore\n      pop\n        /* \"contracts/MANAToken.sol\":3337:3340  _to */\n      dup3\n        /* \"contracts/MANAToken.sol\":3316:3349  Transfer(msg.sender, _to, _value) */\n      0xffffffffffffffffffffffffffffffffffffffff\n      and\n        /* \"contracts/MANAToken.sol\":3325:3335  msg.sender */\n      caller\n        /* \"contracts/MANAToken.sol\":3316:3349  Transfer(msg.sender, _to, _value) */\n      0xffffffffffffffffffffffffffffffffffffffff\n      and\n      0xddf252ad1be2c89b69c2b068fc378daa952ba7f163c4a11628f55a4df523b3ef\n        /* \"contracts/MANAToken.sol\":3342:3348  _value */\n      dup5\n        /* \"contracts/MANAToken.sol\":3316:3349  Transfer(msg.sender, _to, _value) */\n      mload(0x40)\n      dup1\n      dup3\n      dup2\n      mstore\n      0x20\n      add\n      swap2\n      pop\n      pop\n      mload(0x40)\n      dup1\n      swap2\n      sub\n      swap1\n      log3\n        /* \"contracts/MANAToken.sol\":3362:3366  true */\n      0x1\n        /* \"contracts/MANAToken.sol\":3355:3366  return true */\n      swap1\n      pop\n        /* \"contracts/MANAToken.sol\":3140:3371  function transfer(address _to, uint256 _value) returns (bool) {... */\n      swap3\n      swap2\n      pop\n      pop\n      jump\t// out\n        /* \"contracts/MANAToken.sol\":5634:5767  function allowance(address _owner, address _spender) constant returns (uint256 remaining) {... */\n    tag_29:\n        /* \"contracts/MANAToken.sol\":5705:5722  uint256 remaining */\n      0x0\n        /* \"contracts/MANAToken.sol\":5737:5744  allowed */\n      0x2\n        /* \"contracts/MANAToken.sol\":5737:5752  allowed[_owner] */\n      0x0\n        /* \"contracts/MANAToken.sol\":5745:5751  _owner */\n      dup5\n        /* \"contracts/MANAToken.sol\":5737:5752  allowed[_owner] */\n      0xffffffffffffffffffffffffffffffffffffffff\n      and\n      0xffffffffffffffffffffffffffffffffffffffff\n      and\n      dup2\n      mstore\n      0x20\n      add\n      swap1\n      dup2\n      mstore\n      0x20\n      add\n      0x0\n      keccak256\n        /* \"contracts/MANAToken.sol\":5737:5762  allowed[_owner][_spender] */\n      0x0\n        /* \"contracts/MANAToken.sol\":5753:5761  _spender */\n      dup4\n        /* \"contracts/MANAToken.sol\":5737:5762  allowed[_owner][_spender] */\n      0xffffffffffffffffffffffffffffffffffffffff\n      and\n      0xffffffffffffffffffffffffffffffffffffffff\n      and\n      dup2\n      mstore\n      0x20\n      add\n      swap1\n      dup2\n      mstore\n      0x20\n      add\n      0x0\n      keccak256\n      sload\n        /* \"contracts/MANAToken.sol\":5730:5762  return allowed[_owner][_spender] */\n      swap1\n      pop\n        /* \"contracts/MANAToken.sol\":5634:5767  function allowance(address _owner, address _spender) constant returns (uint256 remaining) {... */\n      swap3\n      swap2\n      pop\n      pop\n      jump\t// out\n        /* \"contracts/MANAToken.sol\":2743:2876  function add(uint256 a, uint256 b) internal constant returns (uint256) {... */\n    tag_35:\n        /* \"contracts/MANAToken.sol\":2805:2812  uint256 */\n      0x0\n        /* \"contracts/MANAToken.sol\":2820:2829  uint256 c */\n      dup1\n        /* \"contracts/MANAToken.sol\":2836:2837  b */\n      dup3\n        /* \"contracts/MANAToken.sol\":2832:2833  a */\n      dup5\n        /* \"contracts/MANAToken.sol\":2832:2837  a + b */\n      add\n        /* \"contracts/MANAToken.sol\":2820:2837  uint256 c = a + b */\n      swap1\n      pop\n        /* \"contracts/MANAToken.sol\":2855:2856  a */\n      dup4\n        /* \"contracts/MANAToken.sol\":2850:2851  c */\n      dup2\n        /* \"contracts/MANAToken.sol\":2850:2856  c >= a */\n      lt\n      iszero\n        /* \"contracts/MANAToken.sol\":2843:2857  assert(c >= a) */\n      iszero\n      iszero\n      tag_49\n      jumpi\n      invalid\n    tag_49:\n        /* \"contracts/MANAToken.sol\":2870:2871  c */\n      dup1\n        /* \"contracts/MANAToken.sol\":2863:2871  return c */\n      swap2\n      pop\n        /* \"contracts/MANAToken.sol\":2743:2876  function add(uint256 a, uint256 b) internal constant returns (uint256) {... */\n      pop\n      swap3\n      swap2\n      pop\n      pop\n      jump\t// out\n        /* \"contracts/MANAToken.sol\":2625:2739  function sub(uint256 a, uint256 b) internal constant returns (uint256) {... */\n    tag_37:\n        /* \"contracts/MANAToken.sol\":2687:2694  uint256 */\n      0x0\n        /* \"contracts/MANAToken.sol\":2714:2715  a */\n      dup3\n        /* \"contracts/MANAToken.sol\":2709:2710  b */\n      dup3\n        /* \"contracts/MANAToken.sol\":2709:2715  b <= a */\n      gt\n      iszero\n        /* \"contracts/MANAToken.sol\":2702:2716  assert(b <= a) */\n      iszero\n      iszero\n      tag_51\n      jumpi\n      invalid\n    tag_51:\n        /* \"contracts/MANAToken.sol\":2733:2734  b */\n      dup2\n        /* \"contracts/MANAToken.sol\":2729:2730  a */\n      dup4\n        /* \"contracts/MANAToken.sol\":2729:2734  a - b */\n      sub\n        /* \"contracts/MANAToken.sol\":2722:2734  return a - b */\n      swap1\n      pop\n        /* \"contracts/MANAToken.sol\":2625:2739  function sub(uint256 a, uint256 b) internal constant returns (uint256) {... */\n      swap3\n      swap2\n      pop\n      pop\n      jump\t// out\n\n    auxdata: 0xa165627a7a723058201905171ba9a9f26ef0c25144b3a30c30504a90e8111a656e43862655ec33d4440029\n}\n",
				"bytecode": {
					"linkReferences": {},
					"object": "608060405234801561001057600080fd5b50610b1d806100206000396000f300608060405260043610610083576000357c0100000000000000000000000000000000000000000000000000000000900463ffffffff168063095ea7b31461008857806318160ddd146100ed57806323b872dd1461011857806342966c681461019d57806370a08231146101ca578063a9059cbb14610221578063dd62ed3e14610286575b600080fd5b34801561009457600080fd5b506100d3600480360381019080803573ffffffffffffffffffffffffffffffffffffffff169060200190929190803590602001909291905050506102fd565b604051808215151515815260200191505060405180910390f35b3480156100f957600080fd5b50610102610484565b6040518082815260200191505060405180910390f35b34801561012457600080fd5b50610183600480360381019080803573ffffffffffffffffffffffffffffffffffffffff169060200190929190803573ffffffffffffffffffffffffffffffffffffffff1690602001909291908035906020019092919050505061048a565b604051808215151515815260200191505060405180910390f35b3480156101a957600080fd5b506101c86004803603810190808035906020019092919050505061073a565b005b3480156101d657600080fd5b5061020b600480360381019080803573ffffffffffffffffffffffffffffffffffffffff16906020019092919050505061084f565b6040518082815260200191505060405180910390f35b34801561022d57600080fd5b5061026c600480360381019080803573ffffffffffffffffffffffffffffffffffffffff16906020019092919080359060200190929190505050610898565b604051808215151515815260200191505060405180910390f35b34801561029257600080fd5b506102e7600480360381019080803573ffffffffffffffffffffffffffffffffffffffff169060200190929190803573ffffffffffffffffffffffffffffffffffffffff169060200190929190505050610a33565b6040518082815260200191505060405180910390f35b60008082148061038957506000600260003373ffffffffffffffffffffffffffffffffffffffff1673ffffffffffffffffffffffffffffffffffffffff16815260200190815260200160002060008573ffffffffffffffffffffffffffffffffffffffff1673ffffffffffffffffffffffffffffffffffffffff16815260200190815260200160002054145b151561039457600080fd5b81600260003373ffffffffffffffffffffffffffffffffffffffff1673ffffffffffffffffffffffffffffffffffffffff16815260200190815260200160002060008573ffffffffffffffffffffffffffffffffffffffff1673ffffffffffffffffffffffffffffffffffffffff168152602001908152602001600020819055508273ffffffffffffffffffffffffffffffffffffffff163373ffffffffffffffffffffffffffffffffffffffff167f8c5be1e5ebec7d5bd14f71427d1e84f3dd0314c0f7b2291e5b200ac8c7c3b925846040518082815260200191505060405180910390a36001905092915050565b60005481565b600080600260008673ffffffffffffffffffffffffffffffffffffffff1673ffffffffffffffffffffffffffffffffffffffff16815260200190815260200160002060003373ffffffffffffffffffffffffffffffffffffffff1673ffffffffffffffffffffffffffffffffffffffff16815260200190815260200160002054905061055e83600160008773ffffffffffffffffffffffffffffffffffffffff1673ffffffffffffffffffffffffffffffffffffffff16815260200190815260200160002054610aba90919063ffffffff16565b600160008673ffffffffffffffffffffffffffffffffffffffff1673ffffffffffffffffffffffffffffffffffffffff168152602001908152602001600020819055506105f383600160008873ffffffffffffffffffffffffffffffffffffffff1673ffffffffffffffffffffffffffffffffffffffff16815260200190815260200160002054610ad890919063ffffffff16565b600160008773ffffffffffffffffffffffffffffffffffffffff1673ffffffffffffffffffffffffffffffffffffffff168152602001908152602001600020819055506106498382610ad890919063ffffffff16565b600260008773ffffffffffffffffffffffffffffffffffffffff1673ffffffffffffffffffffffffffffffffffffffff16815260200190815260200160002060003373ffffffffffffffffffffffffffffffffffffffff1673ffffffffffffffffffffffffffffffffffffffff168152602001908152602001600020819055508373ffffffffffffffffffffffffffffffffffffffff168573ffffffffffffffffffffffffffffffffffffffff167fddf252ad1be2c89b69c2b068fc378daa952ba7f163c4a11628f55a4df523b3ef856040518082815260200191505060405180910390a360019150509392505050565b6000808211151561074a57600080fd5b33905061079f82600160008473ffffffffffffffffffffffffffffffffffffffff1673ffffffffffffffffffffffffffffffffffffffff16815260200190815260200160002054610ad890919063ffffffff16565b600160008373ffffffffffffffffffffffffffffffffffffffff1673ffffffffffffffffffffffffffffffffffffffff168152602001908152602001600020819055506107f782600054610ad890919063ffffffff16565b6000819055503373ffffffffffffffffffffffffffffffffffffffff167fcc16f5dbb4873280815c1ee09dbd06736cffcc184412cf7a71a0fdb75d397ca5836040518082815260200191505060405180910390a25050565b6000600160008373ffffffffffffffffffffffffffffffffffffffff1673ffffffffffffffffffffffffffffffffffffffff168152602001908152602001600020549050919050565b60006108ec82600160003373ffffffffffffffffffffffffffffffffffffffff1673ffffffffffffffffffffffffffffffffffffffff16815260200190815260200160002054610ad890919063ffffffff16565b600160003373ffffffffffffffffffffffffffffffffffffffff1673ffffffffffffffffffffffffffffffffffffffff1681526020019081526020016000208190555061098182600160008673ffffffffffffffffffffffffffffffffffffffff1673ffffffffffffffffffffffffffffffffffffffff16815260200190815260200160002054610aba90919063ffffffff16565b600160008573ffffffffffffffffffffffffffffffffffffffff1673ffffffffffffffffffffffffffffffffffffffff168152602001908152602001600020819055508273ffffffffffffffffffffffffffffffffffffffff163373ffffffffffffffffffffffffffffffffffffffff167fddf252ad1be2c89b69c2b068fc378daa952ba7f163c4a11628f55a4df523b3ef846040518082815260200191505060405180910390a36001905092915050565b6000600260008473ffffffffffffffffffffffffffffffffffffffff1673ffffffffffffffffffffffffffffffffffffffff16815260200190815260200160002060008373ffffffffffffffffffffffffffffffffffffffff1673ffffffffffffffffffffffffffffffffffffffff16815260200190815260200160002054905092915050565b6000808284019050838110151515610ace57fe5b8091505092915050565b6000828211151515610ae657fe5b8183039050929150505600a165627a7a723058201905171ba9a9f26ef0c25144b3a30c30504a90e8111a656e43862655ec33d4440029",
					"opcodes": "PUSH1 0x80 PUSH1 0x40 MSTORE CALLVALUE DUP1 ISZERO PUSH2 0x10 JUMPI PUSH1 0x0 DUP1 REVERT JUMPDEST POP PUSH2 0xB1D DUP1 PUSH2 0x20 PUSH1 0x0 CODECOPY PUSH1 0x0 RETURN STOP PUSH1 0x80 PUSH1 0x40 MSTORE PUSH1 0x4 CALLDATASIZE LT PUSH2 0x83 JUMPI PUSH1 0x0 CALLDATALOAD PUSH29 0x100000000000000000000000000000000000000000000000000000000 SWAP1 DIV PUSH4 0xFFFFFFFF AND DUP1 PUSH4 0x95EA7B3 EQ PUSH2 0x88 JUMPI DUP1 PUSH4 0x18160DDD EQ PUSH2 0xED JUMPI DUP1 PUSH4 0x23B872DD EQ PUSH2 0x118 JUMPI DUP1 PUSH4 0x42966C68 EQ PUSH2 0x19D JUMPI DUP1 PUSH4 0x70A08231 EQ PUSH2 0x1CA JUMPI DUP1 PUSH4 0xA9059CBB EQ PUSH2 0x221 JUMPI DUP1 PUSH4 0xDD62ED3E EQ PUSH2 0x286 JUMPI JUMPDEST PUSH1 0x0 DUP1 REVERT JUMPDEST CALLVALUE DUP1 ISZERO PUSH2 0x94 JUMPI PUSH1 0x0 DUP1 REVERT JUMPDEST POP PUSH2 0xD3 PUSH1 0x4 DUP1 CALLDATASIZE SUB DUP2 ADD SWAP1 DUP1 DUP1 CALLDATALOAD PUSH20 0xFFFFFFFFFFFFFFFFFFFFFFFFFFFFFFFFFFFFFFFF AND SWAP1 PUSH1 0x20 ADD SWAP1 SWAP3 SWAP2 SWAP1 DUP1 CALLDATALOAD SWAP1 PUSH1 0x20 ADD SWAP1 SWAP3 SWAP2 SWAP1 POP POP POP PUSH2 0x2FD JUMP JUMPDEST PUSH1 0x40 MLOAD DUP1 DUP3 ISZERO ISZERO ISZERO ISZERO DUP2 MSTORE PUSH1 0x20 ADD SWAP2 POP POP PUSH1 0x40 MLOAD DUP1 SWAP2 SUB SWAP1 RETURN JUMPDEST CALLVALUE DUP1 ISZERO PUSH2 0xF9 JUMPI PUSH1 0x0 DUP1 REVERT JUMPDEST POP PUSH2 0x102 PUSH2 0x484 JUMP JUMPDEST PUSH1 0x40 MLOAD DUP1 DUP3 DUP2 MSTORE PUSH1 0x20 ADD SWAP2 POP POP PUSH1 0x40 MLOAD DUP1 SWAP2 SUB SWAP1 RETURN JUMPDEST CALLVALUE DUP1 ISZERO PUSH2 0x124 JUMPI PUSH1 0x0 DUP1 REVERT JUMPDEST POP PUSH2 0x183 PUSH1 0x4 DUP1 CALLDATASIZE SUB DUP2 ADD SWAP1 DUP1 DUP1 CALLDATALOAD PUSH20 0xFFFFFFFFFFFFFFFFFFFFFFFFFFFFFFFFFFFFFFFF AND SWAP1 PUSH1 0x20 ADD SWAP1 SWAP3 SWAP2 SWAP1 DUP1 CALLDATALOAD PUSH20 0xFFFFFFFFFFFFFFFFFFFFFFFFFFFFFFFFFFFFFFFF AND SWAP1 PUSH1 0x20 ADD SWAP1 SWAP3 SWAP2 SWAP1 DUP1 CALLDATALOAD SWAP1 PUSH1 0x20 ADD SWAP1 SWAP3 SWAP2 SWAP1 POP POP POP PUSH2 0x48A JUMP JUMPDEST PUSH1 0x40 MLOAD DUP1 DUP3 ISZERO ISZERO ISZERO ISZERO DUP2 MSTORE PUSH1 0x20 ADD SWAP2 POP POP PUSH1 0x40 MLOAD DUP1 SWAP2 SUB SWAP1 RETURN JUMPDEST CALLVALUE DUP1 ISZERO PUSH2 0x1A9 JUMPI PUSH1 0x0 DUP1 REVERT JUMPDEST POP PUSH2 0x1C8 PUSH1 0x4 DUP1 CALLDATASIZE SUB DUP2 ADD SWAP1 DUP1 DUP1 CALLDATALOAD SWAP1 PUSH1 0x20 ADD SWAP1 SWAP3 SWAP2 SWAP1 POP POP POP PUSH2 0x73A JUMP JUMPDEST STOP JUMPDEST CALLVALUE DUP1 ISZERO PUSH2 0x1D6 JUMPI PUSH1 0x0 DUP1 REVERT JUMPDEST POP PUSH2 0x20B PUSH1 0x4 DUP1 CALLDATASIZE SUB DUP2 ADD SWAP1 DUP1 DUP1 CALLDATALOAD PUSH20 0xFFFFFFFFFFFFFFFFFFFFFFFFFFFFFFFFFFFFFFFF AND SWAP1 PUSH1 0x20 ADD SWAP1 SWAP3 SWAP2 SWAP1 POP POP POP PUSH2 0x84F JUMP JUMPDEST PUSH1 0x40 MLOAD DUP1 DUP3 DUP2 MSTORE PUSH1 0x20 ADD SWAP2 POP POP PUSH1 0x40 MLOAD DUP1 SWAP2 SUB SWAP1 RETURN JUMPDEST CALLVALUE DUP1 ISZERO PUSH2 0x22D JUMPI PUSH1 0x0 DUP1 REVERT JUMPDEST POP PUSH2 0x26C PUSH1 0x4 DUP1 CALLDATASIZE SUB DUP2 ADD SWAP1 DUP1 DUP1 CALLDATALOAD PUSH20 0xFFFFFFFFFFFFFFFFFFFFFFFFFFFFFFFFFFFFFFFF AND SWAP1 PUSH1 0x20 ADD SWAP1 SWAP3 SWAP2 SWAP1 DUP1 CALLDATALOAD SWAP1 PUSH1 0x20 ADD SWAP1 SWAP3 SWAP2 SWAP1 POP POP POP PUSH2 0x898 JUMP JUMPDEST PUSH1 0x40 MLOAD DUP1 DUP3 ISZERO ISZERO ISZERO ISZERO DUP2 MSTORE PUSH1 0x20 ADD SWAP2 POP POP PUSH1 0x40 MLOAD DUP1 SWAP2 SUB SWAP1 RETURN JUMPDEST CALLVALUE DUP1 ISZERO PUSH2 0x292 JUMPI PUSH1 0x0 DUP1 REVERT JUMPDEST POP PUSH2 0x2E7 PUSH1 0x4 DUP1 CALLDATASIZE SUB DUP2 ADD SWAP1 DUP1 DUP1 CALLDATALOAD PUSH20 0xFFFFFFFFFFFFFFFFFFFFFFFFFFFFFFFFFFFFFFFF AND SWAP1 PUSH1 0x20 ADD SWAP1 SWAP3 SWAP2 SWAP1 DUP1 CALLDATALOAD PUSH20 0xFFFFFFFFFFFFFFFFFFFFFFFFFFFFFFFFFFFFFFFF AND SWAP1 PUSH1 0x20 ADD SWAP1 SWAP3 SWAP2 SWAP1 POP POP POP PUSH2 0xA33 JUMP JUMPDEST PUSH1 0x40 MLOAD DUP1 DUP3 DUP2 MSTORE PUSH1 0x20 ADD SWAP2 POP POP PUSH1 0x40 MLOAD DUP1 SWAP2 SUB SWAP1 RETURN JUMPDEST PUSH1 0x0 DUP1 DUP3 EQ DUP1 PUSH2 0x389 JUMPI POP PUSH1 0x0 PUSH1 0x2 PUSH1 0x0 CALLER PUSH20 0xFFFFFFFFFFFFFFFFFFFFFFFFFFFFFFFFFFFFFFFF AND PUSH20 0xFFFFFFFFFFFFFFFFFFFFFFFFFFFFFFFFFFFFFFFF AND DUP2 MSTORE PUSH1 0x20 ADD SWAP1 DUP2 MSTORE PUSH1 0x20 ADD PUSH1 0x0 KECCAK256 PUSH1 0x0 DUP6 PUSH20 0xFFFFFFFFFFFFFFFFFFFFFFFFFFFFFFFFFFFFFFFF AND PUSH20 0xFFFFFFFFFFFFFFFFFFFFFFFFFFFFFFFFFFFFFFFF AND DUP2 MSTORE PUSH1 0x20 ADD SWAP1 DUP2 MSTORE PUSH1 0x20 ADD PUSH1 0x0 KECCAK256 SLOAD EQ JUMPDEST ISZERO ISZERO PUSH2 0x394 JUMPI PUSH1 0x0 DUP1 REVERT JUMPDEST DUP2 PUSH1 0x2 PUSH1 0x0 CALLER PUSH20 0xFFFFFFFFFFFFFFFFFFFFFFFFFFFFFFFFFFFFFFFF AND PUSH20 0xFFFFFFFFFFFFFFFFFFFFFFFFFFFFFFFFFFFFFFFF AND DUP2 MSTORE PUSH1 0x20 ADD SWAP1 DUP2 MSTORE PUSH1 0x20 ADD PUSH1 0x0 KECCAK256 PUSH1 0x0 DUP6 PUSH20 0xFFFFFFFFFFFFFFFFFFFFFFFFFFFFFFFFFFFFFFFF AND PUSH20 0xFFFFFFFFFFFFFFFFFFFFFFFFFFFFFFFFFFFFFFFF AND DUP2 MSTORE PUSH1 0x20 ADD SWAP1 DUP2 MSTORE PUSH1 0x20 ADD PUSH1 0x0 KECCAK256 DUP2 SWAP1 SSTORE POP DUP3 PUSH20 0xFFFFFFFFFFFFFFFFFFFFFFFFFFFFFFFFFFFFFFFF AND CALLER PUSH20 0xFFFFFFFFFFFFFFFFFFFFFFFFFFFFFFFFFFFFFFFF AND PUSH32 0x8C5BE1E5EBEC7D5BD14F71427D1E84F3DD0314C0F7B2291E5B200AC8C7C3B925 DUP5 PUSH1 0x40 MLOAD DUP1 DUP3 DUP2 MSTORE PUSH1 0x20 ADD SWAP2 POP POP PUSH1 0x40 MLOAD DUP1 SWAP2 SUB SWAP1 LOG3 PUSH1 0x1 SWAP1 POP SWAP3 SWAP2 POP POP JUMP JUMPDEST PUSH1 0x0 SLOAD DUP2 JUMP JUMPDEST PUSH1 0x0 DUP1 PUSH1 0x2 PUSH1 0x0 DUP7 PUSH20 0xFFFFFFFFFFFFFFFFFFFFFFFFFFFFFFFFFFFFFFFF AND PUSH20 0xFFFFFFFFFFFFFFFFFFFFFFFFFFFFFFFFFFFFFFFF AND DUP2 MSTORE PUSH1 0x20 ADD SWAP1 DUP2 MSTORE PUSH1 0x20 ADD PUSH1 0x0 KECCAK256 PUSH1 0x0 CALLER PUSH20 0xFFFFFFFFFFFFFFFFFFFFFFFFFFFFFFFFFFFFFFFF AND PUSH20 0xFFFFFFFFFFFFFFFFFFFFFFFFFFFFFFFFFFFFFFFF AND DUP2 MSTORE PUSH1 0x20 ADD SWAP1 DUP2 MSTORE PUSH1 0x20 ADD PUSH1 0x0 KECCAK256 SLOAD SWAP1 POP PUSH2 0x55E DUP4 PUSH1 0x1 PUSH1 0x0 DUP8 PUSH20 0xFFFFFFFFFFFFFFFFFFFFFFFFFFFFFFFFFFFFFFFF AND PUSH20 0xFFFFFFFFFFFFFFFFFFFFFFFFFFFFFFFFFFFFFFFF AND DUP2 MSTORE PUSH1 0x20 ADD SWAP1 DUP2 MSTORE PUSH1 0x20 ADD PUSH1 0x0 KECCAK256 SLOAD PUSH2 0xABA SWAP1 SWAP2 SWAP1 PUSH4 0xFFFFFFFF AND JUMP JUMPDEST PUSH1 0x1 PUSH1 0x0 DUP7 PUSH20 0xFFFFFFFFFFFFFFFFFFFFFFFFFFFFFFFFFFFFFFFF AND PUSH20 0xFFFFFFFFFFFFFFFFFFFFFFFFFFFFFFFFFFFFFFFF AND DUP2 MSTORE PUSH1 0x20 ADD SWAP1 DUP2 MSTORE PUSH1 0x20 ADD PUSH1 0x0 KECCAK256 DUP2 SWAP1 SSTORE POP PUSH2 0x5F3 DUP4 PUSH1 0x1 PUSH1 0x0 DUP9 PUSH20 0xFFFFFFFFFFFFFFFFFFFFFFFFFFFFFFFFFFFFFFFF AND PUSH20 0xFFFFFFFFFFFFFFFFFFFFFFFFFFFFFFFFFFFFFFFF AND DUP2 MSTORE PUSH1 0x20 ADD SWAP1 DUP2 MSTORE PUSH1 0x20 ADD PUSH1 0x0 KECCAK256 SLOAD PUSH2 0xAD8 SWAP1 SWAP2 SWAP1 PUSH4 0xFFFFFFFF AND JUMP JUMPDEST PUSH1 0x1 PUSH1 0x0 DUP8 PUSH20 0xFFFFFFFFFFFFFFFFFFFFFFFFFFFFFFFFFFFFFFFF AND PUSH20 0xFFFFFFFFFFFFFFFFFFFFFFFFFFFFFFFFFFFFFFFF AND DUP2 MSTORE PUSH1 0x20 ADD SWAP1 DUP2 MSTORE PUSH1 0x20 ADD PUSH1 0x0 KECCAK256 DUP2 SWAP1 SSTORE POP PUSH2 0x649 DUP4 DUP3 PUSH2 0xAD8 SWAP1 SWAP2 SWAP1 PUSH4 0xFFFFFFFF AND JUMP JUMPDEST PUSH1 0x2 PUSH1 0x0 DUP8 PUSH20 0xFFFFFFFFFFFFFFFFFFFFFFFFFFFFFFFFFFFFFFFF AND PUSH20 0xFFFFFFFFFFFFFFFFFFFFFFFFFFFFFFFFFFFFFFFF AND DUP2 MSTORE PUSH1 0x20 ADD SWAP1 DUP2 MSTORE PUSH1 0x20 ADD PUSH1 0x0 KECCAK256 PUSH1 0x0 CALLER PUSH20 0xFFFFFFFFFFFFFFFFFFFFFFFFFFFFFFFFFFFFFFFF AND PUSH20 0xFFFFFFFFFFFFFFFFFFFFFFFFFFFFFFFFFFFFFFFF AND DUP2 MSTORE PUSH1 0x20 ADD SWAP1 DUP2 MSTORE PUSH1 0x20 ADD PUSH1 0x0 KECCAK256 DUP2 SWAP1 SSTORE POP DUP4 PUSH20 0xFFFFFFFFFFFFFFFFFFFFFFFFFFFFFFFFFFFFFFFF AND DUP6 PUSH20 0xFFFFFFFFFFFFFFFFFFFFFFFFFFFFFFFFFFFFFFFF AND PUSH32 0xDDF252AD1BE2C89B69C2B068FC378DAA952BA7F163C4A11628F55A4DF523B3EF DUP6 PUSH1 0x40 MLOAD DUP1 DUP3 DUP2 MSTORE PUSH1 0x20 ADD SWAP2 POP POP PUSH1 0x40 MLOAD DUP1 SWAP2 SUB SWAP1 LOG3 PUSH1 0x1 SWAP2 POP POP SWAP4 SWAP3 POP POP POP JUMP JUMPDEST PUSH1 0x0 DUP1 DUP3 GT ISZERO ISZERO PUSH2 0x74A JUMPI PUSH1 0x0 DUP1 REVERT JUMPDEST CALLER SWAP1 POP PUSH2 0x79F DUP3 PUSH1 0x1 PUSH1 0x0 DUP5 PUSH20 0xFFFFFFFFFFFFFFFFFFFFFFFFFFFFFFFFFFFFFFFF AND PUSH20 0xFFFFFFFFFFFFFFFFFFFFFFFFFFFFFFFFFFFFFFFF AND DUP2 MSTORE PUSH1 0x20 ADD SWAP1 DUP2 MSTORE PUSH1 0x20 ADD PUSH1 0x0 KECCAK256 SLOAD PUSH2 0xAD8 SWAP1 SWAP2 SWAP1 PUSH4 0xFFFFFFFF AND JUMP JUMPDEST PUSH1 0x1 PUSH1 0x0 DUP4 PUSH20 0xFFFFFFFFFFFFFFFFFFFFFFFFFFFFFFFFFFFFFFFF AND PUSH20 0xFFFFFFFFFFFFFFFFFFFFFFFFFFFFFFFFFFFFFFFF AND DUP2 MSTORE PUSH1 0x20 ADD SWAP1 DUP2 MSTORE PUSH1 0x20 ADD PUSH1 0x0 KECCAK256 DUP2 SWAP1 SSTORE POP PUSH2 0x7F7 DUP3 PUSH1 0x0 SLOAD PUSH2 0xAD8 SWAP1 SWAP2 SWAP1 PUSH4 0xFFFFFFFF AND JUMP JUMPDEST PUSH1 0x0 DUP2 SWAP1 SSTORE POP CALLER PUSH20 0xFFFFFFFFFFFFFFFFFFFFFFFFFFFFFFFFFFFFFFFF AND PUSH32 0xCC16F5DBB4873280815C1EE09DBD06736CFFCC184412CF7A71A0FDB75D397CA5 DUP4 PUSH1 0x40 MLOAD DUP1 DUP3 DUP2 MSTORE PUSH1 0x20 ADD SWAP2 POP POP PUSH1 0x40 MLOAD DUP1 SWAP2 SUB SWAP1 LOG2 POP POP JUMP JUMPDEST PUSH1 0x0 PUSH1 0x1 PUSH1 0x0 DUP4 PUSH20 0xFFFFFFFFFFFFFFFFFFFFFFFFFFFFFFFFFFFFFFFF AND PUSH20 0xFFFFFFFFFFFFFFFFFFFFFFFFFFFFFFFFFFFFFFFF AND DUP2 MSTORE PUSH1 0x20 ADD SWAP1 DUP2 MSTORE PUSH1 0x20 ADD PUSH1 0x0 KECCAK256 SLOAD SWAP1 POP SWAP2 SWAP1 POP JUMP JUMPDEST PUSH1 0x0 PUSH2 0x8EC DUP3 PUSH1 0x1 PUSH1 0x0 CALLER PUSH20 0xFFFFFFFFFFFFFFFFFFFFFFFFFFFFFFFFFFFFFFFF AND PUSH20 0xFFFFFFFFFFFFFFFFFFFFFFFFFFFFFFFFFFFFFFFF AND DUP2 MSTORE PUSH1 0x20 ADD SWAP1 DUP2 MSTORE PUSH1 0x20 ADD PUSH1 0x0 KECCAK256 SLOAD PUSH2 0xAD8 SWAP1 SWAP2 SWAP1 PUSH4 0xFFFFFFFF AND JUMP JUMPDEST PUSH1 0x1 PUSH1 0x0 CALLER PUSH20 0xFFFFFFFFFFFFFFFFFFFFFFFFFFFFFFFFFFFFFFFF AND PUSH20 0xFFFFFFFFFFFFFFFFFFFFFFFFFFFFFFFFFFFFFFFF AND DUP2 MSTORE PUSH1 0x20 ADD SWAP1 DUP2 MSTORE PUSH1 0x20 ADD PUSH1 0x0 KECCAK256 DUP2 SWAP1 SSTORE POP PUSH2 0x981 DUP3 PUSH1 0x1 PUSH1 0x0 DUP7 PUSH20 0xFFFFFFFFFFFFFFFFFFFFFFFFFFFFFFFFFFFFFFFF AND PUSH20 0xFFFFFFFFFFFFFFFFFFFFFFFFFFFFFFFFFFFFFFFF AND DUP2 MSTORE PUSH1 0x20 ADD SWAP1 DUP2 MSTORE PUSH1 0x20 ADD PUSH1 0x0 KECCAK256 SLOAD PUSH2 0xABA SWAP1 SWAP2 SWAP1 PUSH4 0xFFFFFFFF AND JUMP JUMPDEST PUSH1 0x1 PUSH1 0x0 DUP6 PUSH20 0xFFFFFFFFFFFFFFFFFFFFFFFFFFFFFFFFFFFFFFFF AND PUSH20 0xFFFFFFFFFFFFFFFFFFFFFFFFFFFFFFFFFFFFFFFF AND DUP2 MSTORE PUSH1 0x20 ADD SWAP1 DUP2 MSTORE PUSH1 0x20 ADD PUSH1 0x0 KECCAK256 DUP2 SWAP1 SSTORE POP DUP3 PUSH20 0xFFFFFFFFFFFFFFFFFFFFFFFFFFFFFFFFFFFFFFFF AND CALLER PUSH20 0xFFFFFFFFFFFFFFFFFFFFFFFFFFFFFFFFFFFFFFFF AND PUSH32 0xDDF252AD1BE2C89B69C2B068FC378DAA952BA7F163C4A11628F55A4DF523B3EF DUP5 PUSH1 0x40 MLOAD DUP1 DUP3 DUP2 MSTORE PUSH1 0x20 ADD SWAP2 POP POP PUSH1 0x40 MLOAD DUP1 SWAP2 SUB SWAP1 LOG3 PUSH1 0x1 SWAP1 POP SWAP3 SWAP2 POP POP JUMP JUMPDEST PUSH1 0x0 PUSH1 0x2 PUSH1 0x0 DUP5 PUSH20 0xFFFFFFFFFFFFFFFFFFFFFFFFFFFFFFFFFFFFFFFF AND PUSH20 0xFFFFFFFFFFFFFFFFFFFFFFFFFFFFFFFFFFFFFFFF AND DUP2 MSTORE PUSH1 0x20 ADD SWAP1 DUP2 MSTORE PUSH1 0x20 ADD PUSH1 0x0 KECCAK256 PUSH1 0x0 DUP4 PUSH20 0xFFFFFFFFFFFFFFFFFFFFFFFFFFFFFFFFFFFFFFFF AND PUSH20 0xFFFFFFFFFFFFFFFFFFFFFFFFFFFFFFFFFFFFFFFF AND DUP2 MSTORE PUSH1 0x20 ADD SWAP1 DUP2 MSTORE PUSH1 0x20 ADD PUSH1 0x0 KECCAK256 SLOAD SWAP1 POP SWAP3 SWAP2 POP POP JUMP JUMPDEST PUSH1 0x0 DUP1 DUP3 DUP5 ADD SWAP1 POP DUP4 DUP2 LT ISZERO ISZERO ISZERO PUSH2 0xACE JUMPI INVALID JUMPDEST DUP1 SWAP2 POP POP SWAP3 SWAP2 POP POP JUMP JUMPDEST PUSH1 0x0 DUP3 DUP3 GT ISZERO ISZERO ISZERO PUSH2 0xAE6 JUMPI INVALID JUMPDEST DUP2 DUP4 SUB SWAP1 POP SWAP3 SWAP2 POP POP JUMP STOP LOG1 PUSH6 0x627A7A723058 KECCAK256 NOT SDIV OR SHL 0xa9 0xa9 CALLCODE PUSH15 0xF0C25144B3A30C30504A90E8111A65 PUSH15 0x43862655EC33D44400290000000000 "
				},
				"gasEstimates": {
					"creation": {
						"codeDepositCost": "569000",
						"executionCost": "600",
						"totalCost": "569600"
					},
					"external": {
						"allowance(address,address)": "816",
						"approve(address,uint256)": "22767",
						"balanceOf(address)": "647",
						"burn(uint256)": "infinite",
						"totalSupply()": "416",
						"transfer(address,uint256)": "infinite",
						"transferFrom(address,address,uint256)": "infinite"
					}
				},
				"methodIdentifiers": {
					"allowance(address,address)": "dd62ed3e",
					"approve(address,uint256)": "095ea7b3",
					"balanceOf(address)": "70a08231",
					"burn(uint256)": "42966c68",
					"totalSupply()": "18160ddd",
					"transfer(address,uint256)": "a9059cbb",
					"transferFrom(address,address,uint256)": "23b872dd"
				}
			},
			"userdoc": {
				"methods": {}
			}
		}
	}
}