{
	"contracts/Bea.sol": {
		"BeaconProxyFactory": {
			"abi": [
				{
					"inputs": [
						{
							"internalType": "address",
							"name": "_implementation",
							"type": "address"
						}
					],
					"stateMutability": "nonpayable",
					"type": "constructor"
				},
				{
					"anonymous": false,
					"inputs": [
						{
							"indexed": true,
							"internalType": "address",
							"name": "_implementation",
							"type": "address"
						},
						{
							"indexed": false,
							"internalType": "bytes32",
							"name": "_codeHash",
							"type": "bytes32"
						},
						{
							"indexed": false,
							"internalType": "bytes",
							"name": "_code",
							"type": "bytes"
						}
					],
					"name": "ImplementationSet",
					"type": "event"
				},
				{
					"anonymous": false,
					"inputs": [
						{
							"indexed": true,
							"internalType": "address",
							"name": "_address",
							"type": "address"
						},
						{
							"indexed": false,
							"internalType": "bytes32",
							"name": "_salt",
							"type": "bytes32"
						}
					],
					"name": "ProxyCreated",
					"type": "event"
				},
				{
					"inputs": [],
					"name": "code",
					"outputs": [
						{
							"internalType": "bytes",
							"name": "",
							"type": "bytes"
						}
					],
					"stateMutability": "view",
					"type": "function"
				},
				{
					"inputs": [],
					"name": "codeHash",
					"outputs": [
						{
							"internalType": "bytes32",
							"name": "",
							"type": "bytes32"
						}
					],
					"stateMutability": "view",
					"type": "function"
				},
				{
					"inputs": [
						{
							"internalType": "bytes32",
							"name": "_salt",
							"type": "bytes32"
						},
						{
							"internalType": "address",
							"name": "_address",
							"type": "address"
						},
						{
							"internalType": "bytes",
							"name": "_data",
							"type": "bytes"
						}
					],
					"name": "getAddress",
					"outputs": [
						{
							"internalType": "address",
							"name": "",
							"type": "address"
						}
					],
					"stateMutability": "view",
					"type": "function"
				},
				{
					"inputs": [],
					"name": "implementation",
					"outputs": [
						{
							"internalType": "address",
							"name": "",
							"type": "address"
						}
					],
					"stateMutability": "view",
					"type": "function"
				}
			],
			"devdoc": {
				"kind": "dev",
				"methods": {
					"constructor": {
						"params": {
							"_implementation": "- UpgradeableBeacon implementation"
						}
					},
					"getAddress(bytes32,address,bytes)": {
						"params": {
							"_address": "- supposed sender of the transaction",
							"_salt": "- arbitrary 32 bytes hexa"
						},
						"returns": {
							"_0": "address of the deterministic contract"
						}
					}
				},
				"version": 1
			},
			"evm": {
				"assembly": "    /* \"contracts/Bea.sol\":13626:16392  contract BeaconProxyFactory {... */\n  mstore(0x40, 0x80)\n    /* \"contracts/Bea.sol\":14053:14142  constructor(address _implementation) {... */\n  callvalue\n  dup1\n  iszero\n  tag_1\n  jumpi\n  0x00\n  dup1\n  revert\ntag_1:\n  pop\n  mload(0x40)\n  sub(codesize, bytecodeSize)\n  dup1\n  bytecodeSize\n  dup4\n  codecopy\n  dup2\n  dup2\n  add\n  0x40\n  mstore\n  0x20\n  dup2\n  lt\n  iszero\n  tag_2\n  jumpi\n  0x00\n  dup1\n  revert\ntag_2:\n  dup2\n  add\n  swap1\n  dup1\n  dup1\n  mload\n  swap1\n  0x20\n  add\n  swap1\n  swap3\n  swap2\n  swap1\n  pop\n  pop\n  pop\n    /* \"contracts/Bea.sol\":14100:14135  _setImplementation(_implementation) */\n  tag_5\n    /* \"contracts/Bea.sol\":14119:14134  _implementation */\n  dup2\n    /* \"contracts/Bea.sol\":14100:14118  _setImplementation */\n  shl(0x20, tag_6)\n    /* \"contracts/Bea.sol\":14100:14135  _setImplementation(_implementation) */\n  0x20\n  shr\n  jump\t// in\ntag_5:\n    /* \"contracts/Bea.sol\":14053:14142  constructor(address _implementation) {... */\n  pop\n    /* \"contracts/Bea.sol\":13626:16392  contract BeaconProxyFactory {... */\n  jump(tag_7)\n    /* \"contracts/Bea.sol\":15898:16390  function _setImplementation(address _implementation) internal {... */\ntag_6:\n    /* \"contracts/Bea.sol\":16018:16019  0 */\n  0x00\n    /* \"contracts/Bea.sol\":15991:16020  _implementation != address(0) */\n  0xffffffffffffffffffffffffffffffffffffffff\n  and\n    /* \"contracts/Bea.sol\":15991:16006  _implementation */\n  dup2\n    /* \"contracts/Bea.sol\":15991:16020  _implementation != address(0) */\n  0xffffffffffffffffffffffffffffffffffffffff\n  and\n  eq\n  iszero\n    /* \"contracts/Bea.sol\":15991:16052  _implementation != address(0) && _implementation.isContract() */\n  dup1\n  iszero\n  tag_9\n  jumpi\n  pop\n    /* \"contracts/Bea.sol\":16024:16052  _implementation.isContract() */\n  tag_10\n    /* \"contracts/Bea.sol\":16024:16039  _implementation */\n  dup2\n    /* \"contracts/Bea.sol\":16024:16050  _implementation.isContract */\n  0xffffffffffffffffffffffffffffffffffffffff\n  and\n  or(tag_0_23, shl(0x20, tag_11))\n    /* \"contracts/Bea.sol\":16024:16052  _implementation.isContract() */\n  0x20\n  shr\n  jump\t// in\ntag_10:\n    /* \"contracts/Bea.sol\":15991:16052  _implementation != address(0) && _implementation.isContract() */\ntag_9:\n    /* \"contracts/Bea.sol\":15970:16141  require(... */\n  tag_12\n  jumpi\n  mload(0x40)\n  0x08c379a000000000000000000000000000000000000000000000000000000000\n  dup2\n  mstore\n  0x04\n  add\n  dup1\n  dup1\n  0x20\n  add\n  dup3\n  dup2\n  sub\n  dup3\n  mstore\n  0x3f\n  dup2\n  mstore\n  0x20\n  add\n  dup1\n  data_ee276789abdd788cf2ae3ee1202399fc5bda9988af7128943717a504efc1f53e\n  0x3f\n  swap2\n  codecopy\n  0x40\n  add\n  swap2\n  pop\n  pop\n  mload(0x40)\n  dup1\n  swap2\n  sub\n  swap1\n  revert\ntag_12:\n    /* \"contracts/Bea.sol\":16176:16206  type(BeaconProxy).creationCode */\n  mload(0x40)\n  dup1\n  0x20\n  add\n  tag_13\n  swap1\n  tag_14\n  jump\t// in\ntag_13:\n  0x20\n  dup3\n  add\n  dup2\n  sub\n  dup3\n  mstore\n  not(0x1f)\n  0x1f\n  dup3\n  add\n  and\n  0x40\n  mstore\n  pop\n    /* \"contracts/Bea.sol\":16219:16234  _implementation */\n  dup2\n    /* \"contracts/Bea.sol\":16208:16239  abi.encode(_implementation, \"\") */\n  add(0x20, mload(0x40))\n  dup1\n  dup3\n  0xffffffffffffffffffffffffffffffffffffffff\n  and\n  dup2\n  mstore\n  0x20\n  add\n  dup1\n  0x20\n  add\n  dup3\n  dup2\n  sub\n  dup3\n  mstore\n  0x00\n  dup2\n  mstore\n  0x20\n  add\n  swap3\n  pop\n  pop\n  pop\n  mload(0x40)\n  0x20\n  dup2\n  dup4\n  sub\n  sub\n  dup2\n  mstore\n  swap1\n  0x40\n  mstore\n    /* \"contracts/Bea.sol\":16159:16240  abi.encodePacked(type(BeaconProxy).creationCode, abi.encode(_implementation, \"\")) */\n  add(0x20, mload(0x40))\n  dup1\n  dup4\n  dup1\n  mload\n  swap1\n  0x20\n  add\n  swap1\n  dup1\n  dup4\n  dup4\ntag_15:\n  0x20\n  dup4\n  lt\n  tag_17\n  jumpi\n  dup1\n  mload\n  dup3\n  mstore\n  0x20\n  dup3\n  add\n  swap2\n  pop\n  0x20\n  dup2\n  add\n  swap1\n  pop\n  0x20\n  dup4\n  sub\n  swap3\n  pop\n  jump(tag_15)\ntag_17:\n  0x01\n  dup4\n  0x20\n  sub\n  0x0100\n  exp\n  sub\n  dup1\n  not\n  dup3\n  mload\n  and\n  dup2\n  dup5\n  mload\n  and\n  dup1\n  dup3\n  or\n  dup6\n  mstore\n  pop\n  pop\n  pop\n  pop\n  pop\n  pop\n  swap1\n  pop\n  add\n  dup3\n  dup1\n  mload\n  swap1\n  0x20\n  add\n  swap1\n  dup1\n  dup4\n  dup4\ntag_18:\n  0x20\n  dup4\n  lt\n  tag_20\n  jumpi\n  dup1\n  mload\n  dup3\n  mstore\n  0x20\n  dup3\n  add\n  swap2\n  pop\n  0x20\n  dup2\n  add\n  swap1\n  pop\n  0x20\n  dup4\n  sub\n  swap3\n  pop\n  jump(tag_18)\ntag_20:\n  0x01\n  dup4\n  0x20\n  sub\n  0x0100\n  exp\n  sub\n  dup1\n  not\n  dup3\n  mload\n  and\n  dup2\n  dup5\n  mload\n  and\n  dup1\n  dup3\n  or\n  dup6\n  mstore\n  pop\n  pop\n  pop\n  pop\n  pop\n  pop\n  swap1\n  pop\n  add\n  swap3\n  pop\n  pop\n  pop\n  mload(0x40)\n  0x20\n  dup2\n  dup4\n  sub\n  sub\n  dup2\n  mstore\n  swap1\n  0x40\n  mstore\n    /* \"contracts/Bea.sol\":16152:16156  code */\n  0x01\n    /* \"contracts/Bea.sol\":16152:16240  code = abi.encodePacked(type(BeaconProxy).creationCode, abi.encode(_implementation, \"\")) */\n  swap1\n  dup1\n  mload\n  swap1\n  0x20\n  add\n  swap1\n  tag_21\n  swap3\n  swap2\n  swap1\n  tag_22\n  jump\t// in\ntag_21:\n  pop\n    /* \"contracts/Bea.sol\":16271:16275  code */\n  0x01\n    /* \"contracts/Bea.sol\":16261:16276  keccak256(code) */\n  mload(0x40)\n  dup1\n  dup3\n  dup1\n  sload\n  0x01\n  dup2\n  0x01\n  and\n  iszero\n  0x0100\n  mul\n  sub\n  and\n  0x02\n  swap1\n  div\n  dup1\n  iszero\n  tag_23\n  jumpi\n  dup1\n  0x1f\n  lt\n  tag_24\n  jumpi\n  0x0100\n  dup1\n  dup4\n  sload\n  div\n  mul\n  dup4\n  mstore\n  swap2\n  dup3\n  add\n  swap2\n  jump(tag_23)\ntag_24:\n  dup3\n  add\n  swap2\n  swap1\n  0x00\n  mstore\n  keccak256(0x00, 0x20)\n  swap1\ntag_25:\n  dup2\n  sload\n  dup2\n  mstore\n  swap1\n  0x01\n  add\n  swap1\n  0x20\n  add\n  dup1\n  dup4\n  gt\n  tag_25\n  jumpi\ntag_23:\n  pop\n  pop\n  swap2\n  pop\n  pop\n  mload(0x40)\n  dup1\n  swap2\n  sub\n  swap1\n  keccak256\n    /* \"contracts/Bea.sol\":16250:16258  codeHash */\n  0x02\n    /* \"contracts/Bea.sol\":16250:16276  codeHash = keccak256(code) */\n  dup2\n  swap1\n  sstore\n  pop\n    /* \"contracts/Bea.sol\":16303:16318  _implementation */\n  dup1\n    /* \"contracts/Bea.sol\":16286:16300  implementation */\n  0x00\n  dup1\n    /* \"contracts/Bea.sol\":16286:16318  implementation = _implementation */\n  0x0100\n  exp\n  dup2\n  sload\n  dup2\n  0xffffffffffffffffffffffffffffffffffffffff\n  mul\n  not\n  and\n  swap1\n  dup4\n  0xffffffffffffffffffffffffffffffffffffffff\n  and\n  mul\n  or\n  swap1\n  sstore\n  pop\n    /* \"contracts/Bea.sol\":16352:16366  implementation */\n  0x00\n  dup1\n  sload\n  swap1\n  0x0100\n  exp\n  swap1\n  div\n  0xffffffffffffffffffffffffffffffffffffffff\n  and\n    /* \"contracts/Bea.sol\":16334:16383  ImplementationSet(implementation, codeHash, code) */\n  0xffffffffffffffffffffffffffffffffffffffff\n  and\n  0x7acba6e3c47815c1b41b230650f7ed720d66bdc6ca45468c4a6cdb9425132024\n    /* \"contracts/Bea.sol\":16368:16376  codeHash */\n  sload(0x02)\n    /* \"contracts/Bea.sol\":16378:16382  code */\n  0x01\n    /* \"contracts/Bea.sol\":16334:16383  ImplementationSet(implementation, codeHash, code) */\n  mload(0x40)\n  dup1\n  dup4\n  dup2\n  mstore\n  0x20\n  add\n  dup1\n  0x20\n  add\n  dup3\n  dup2\n  sub\n  dup3\n  mstore\n  dup4\n  dup2\n  dup2\n  sload\n  0x01\n  dup2\n  0x01\n  and\n  iszero\n  0x0100\n  mul\n  sub\n  and\n  0x02\n  swap1\n  div\n  dup2\n  mstore\n  0x20\n  add\n  swap2\n  pop\n  dup1\n  sload\n  0x01\n  dup2\n  0x01\n  and\n  iszero\n  0x0100\n  mul\n  sub\n  and\n  0x02\n  swap1\n  div\n  dup1\n  iszero\n  tag_26\n  jumpi\n  dup1\n  0x1f\n  lt\n  tag_27\n  jumpi\n  0x0100\n  dup1\n  dup4\n  sload\n  div\n  mul\n  dup4\n  mstore\n  swap2\n  0x20\n  add\n  swap2\n  jump(tag_26)\ntag_27:\n  dup3\n  add\n  swap2\n  swap1\n  0x00\n  mstore\n  keccak256(0x00, 0x20)\n  swap1\ntag_28:\n  dup2\n  sload\n  dup2\n  mstore\n  swap1\n  0x01\n  add\n  swap1\n  0x20\n  add\n  dup1\n  dup4\n  gt\n  tag_28\n  jumpi\n  dup3\n  swap1\n  sub\n  0x1f\n  and\n  dup3\n  add\n  swap2\ntag_26:\n  pop\n  pop\n  swap4\n  pop\n  pop\n  pop\n  pop\n  mload(0x40)\n  dup1\n  swap2\n  sub\n  swap1\n  log2\n    /* \"contracts/Bea.sol\":15898:16390  function _setImplementation(address _implementation) internal {... */\n  pop\n  jump\t// out\n    /* \"contracts/Bea.sol\":3990:4403  function isContract(address account) internal view returns (bool) {... */\ntag_11:\n    /* \"contracts/Bea.sol\":4050:4054  bool */\n  0x00\n    /* \"contracts/Bea.sol\":4253:4265  uint256 size */\n  dup1\n    /* \"contracts/Bea.sol\":4362:4369  account */\n  dup3\n    /* \"contracts/Bea.sol\":4350:4370  extcodesize(account) */\n  extcodesize\n    /* \"contracts/Bea.sol\":4342:4370  size := extcodesize(account) */\n  swap1\n  pop\n    /* \"contracts/Bea.sol\":4395:4396  0 */\n  0x00\n    /* \"contracts/Bea.sol\":4388:4392  size */\n  dup2\n    /* \"contracts/Bea.sol\":4388:4396  size > 0 */\n  gt\n    /* \"contracts/Bea.sol\":4381:4396  return size > 0 */\n  swap2\n  pop\n  pop\n    /* \"contracts/Bea.sol\":3990:4403  function isContract(address account) internal view returns (bool) {... */\n  swap2\n  swap1\n  pop\n  jump\t// out\n    /* \"contracts/Bea.sol\":13626:16392  contract BeaconProxyFactory {... */\ntag_14:\n  dataSize(sub_1)\n  dup1\n  dataOffset(sub_1)\n  dup4\n  codecopy\n  add\n  swap1\n  jump\t// out\ntag_22:\n  dup3\n  dup1\n  sload\n  0x01\n  dup2\n  0x01\n  and\n  iszero\n  0x0100\n  mul\n  sub\n  and\n  0x02\n  swap1\n  div\n  swap1\n  0x00\n  mstore\n  keccak256(0x00, 0x20)\n  swap1\n  0x1f\n  add\n  0x20\n  swap1\n  div\n  dup2\n  add\n  swap3\n  dup3\n  tag_31\n  jumpi\n  0x00\n  dup6\n  sstore\n  jump(tag_30)\ntag_31:\n  dup3\n  0x1f\n  lt\n  tag_32\n  jumpi\n  dup1\n  mload\n  not(0xff)\n  and\n  dup4\n  dup1\n  add\n  or\n  dup6\n  sstore\n  jump(tag_30)\ntag_32:\n  dup3\n  dup1\n  add\n  0x01\n  add\n  dup6\n  sstore\n  dup3\n  iszero\n  tag_30\n  jumpi\n  swap2\n  dup3\n  add\ntag_33:\n  dup3\n  dup2\n  gt\n  iszero\n  tag_34\n  jumpi\n  dup3\n  mload\n  dup3\n  sstore\n  swap2\n  0x20\n  add\n  swap2\n  swap1\n  0x01\n  add\n  swap1\n  jump(tag_33)\ntag_34:\ntag_30:\n  pop\n  swap1\n  pop\n  tag_35\n  swap2\n  swap1\n  tag_36\n  jump\t// in\ntag_35:\n  pop\n  swap1\n  jump\t// out\ntag_36:\ntag_37:\n  dup1\n  dup3\n  gt\n  iszero\n  tag_38\n  jumpi\n  0x00\n  dup2\n  0x00\n  swap1\n  sstore\n  pop\n  0x01\n  add\n  jump(tag_37)\ntag_38:\n  pop\n  swap1\n  jump\t// out\ntag_7:\n  dataSize(sub_0)\n  dup1\n  dataOffset(sub_0)\n  0x00\n  codecopy\n  0x00\n  return\nstop\ndata_ee276789abdd788cf2ae3ee1202399fc5bda9988af7128943717a504efc1f53e 426561636f6e50726f7879466163746f72795632235f736574496d706c656d656e746174696f6e3a20494e56414c49445f494d504c454d454e544154494f4e\n\nsub_0: assembly {\n        /* \"contracts/Bea.sol\":13626:16392  contract BeaconProxyFactory {... */\n      mstore(0x40, 0x80)\n      callvalue\n      dup1\n      iszero\n      tag_1\n      jumpi\n      0x00\n      dup1\n      revert\n    tag_1:\n      pop\n      jumpi(tag_2, lt(calldatasize, 0x04))\n      shr(0xe0, calldataload(0x00))\n      dup1\n      0x18edaaf2\n      eq\n      tag_3\n      jumpi\n      dup1\n      0x24c12bf6\n      eq\n      tag_4\n      jumpi\n      dup1\n      0x5c60da1b\n      eq\n      tag_5\n      jumpi\n      dup1\n      0xaf222399\n      eq\n      tag_6\n      jumpi\n    tag_2:\n      0x00\n      dup1\n      revert\n        /* \"contracts/Bea.sol\":13750:13773  bytes32 public codeHash */\n    tag_3:\n      tag_7\n      tag_8\n      jump\t// in\n    tag_7:\n      mload(0x40)\n      dup1\n      dup3\n      dup2\n      mstore\n      0x20\n      add\n      swap2\n      pop\n      pop\n      mload(0x40)\n      dup1\n      swap2\n      sub\n      swap1\n      return\n        /* \"contracts/Bea.sol\":13727:13744  bytes public code */\n    tag_4:\n      tag_9\n      tag_10\n      jump\t// in\n    tag_9:\n      mload(0x40)\n      dup1\n      dup1\n      0x20\n      add\n      dup3\n      dup2\n      sub\n      dup3\n      mstore\n      dup4\n      dup2\n      dup2\n      mload\n      dup2\n      mstore\n      0x20\n      add\n      swap2\n      pop\n      dup1\n      mload\n      swap1\n      0x20\n      add\n      swap1\n      dup1\n      dup4\n      dup4\n      0x00\n    tag_11:\n      dup4\n      dup2\n      lt\n      iszero\n      tag_13\n      jumpi\n      dup1\n      dup3\n      add\n      mload\n      dup2\n      dup5\n      add\n      mstore\n      0x20\n      dup2\n      add\n      swap1\n      pop\n      jump(tag_11)\n    tag_13:\n      pop\n      pop\n      pop\n      pop\n      swap1\n      pop\n      swap1\n      dup2\n      add\n      swap1\n      0x1f\n      and\n      dup1\n      iszero\n      tag_14\n      jumpi\n      dup1\n      dup3\n      sub\n      dup1\n      mload\n      0x01\n      dup4\n      0x20\n      sub\n      0x0100\n      exp\n      sub\n      not\n      and\n      dup2\n      mstore\n      0x20\n      add\n      swap2\n      pop\n    tag_14:\n      pop\n      swap3\n      pop\n      pop\n      pop\n      mload(0x40)\n      dup1\n      swap2\n      sub\n      swap1\n      return\n        /* \"contracts/Bea.sol\":13692:13721  address public implementation */\n    tag_5:\n      tag_15\n      tag_16\n      jump\t// in\n    tag_15:\n      mload(0x40)\n      dup1\n      dup3\n      0xffffffffffffffffffffffffffffffffffffffff\n      and\n      dup2\n      mstore\n      0x20\n      add\n      swap2\n      pop\n      pop\n      mload(0x40)\n      dup1\n      swap2\n      sub\n      swap1\n      return\n        /* \"contracts/Bea.sol\":15293:15767  function getAddress(bytes32 _salt, address _address, bytes calldata _data) external view returns (address) {... */\n    tag_6:\n      tag_17\n      0x04\n      dup1\n      calldatasize\n      sub\n      0x60\n      dup2\n      lt\n      iszero\n      tag_18\n      jumpi\n      0x00\n      dup1\n      revert\n    tag_18:\n      dup2\n      add\n      swap1\n      dup1\n      dup1\n      calldataload\n      swap1\n      0x20\n      add\n      swap1\n      swap3\n      swap2\n      swap1\n      dup1\n      calldataload\n      0xffffffffffffffffffffffffffffffffffffffff\n      and\n      swap1\n      0x20\n      add\n      swap1\n      swap3\n      swap2\n      swap1\n      dup1\n      calldataload\n      swap1\n      0x20\n      add\n      swap1\n      0x0100000000\n      dup2\n      gt\n      iszero\n      tag_19\n      jumpi\n      0x00\n      dup1\n      revert\n    tag_19:\n      dup3\n      add\n      dup4\n      0x20\n      dup3\n      add\n      gt\n      iszero\n      tag_20\n      jumpi\n      0x00\n      dup1\n      revert\n    tag_20:\n      dup1\n      calldataload\n      swap1\n      0x20\n      add\n      swap2\n      dup5\n      0x01\n      dup4\n      mul\n      dup5\n      add\n      gt\n      0x0100000000\n      dup4\n      gt\n      or\n      iszero\n      tag_21\n      jumpi\n      0x00\n      dup1\n      revert\n    tag_21:\n      swap1\n      swap2\n      swap3\n      swap4\n      swap2\n      swap3\n      swap4\n      swap1\n      pop\n      pop\n      pop\n      tag_22\n      jump\t// in\n    tag_17:\n      mload(0x40)\n      dup1\n      dup3\n      0xffffffffffffffffffffffffffffffffffffffff\n      and\n      dup2\n      mstore\n      0x20\n      add\n      swap2\n      pop\n      pop\n      mload(0x40)\n      dup1\n      swap2\n      sub\n      swap1\n      return\n        /* \"contracts/Bea.sol\":13750:13773  bytes32 public codeHash */\n    tag_8:\n      sload(0x02)\n      dup2\n      jump\t// out\n        /* \"contracts/Bea.sol\":13727:13744  bytes public code */\n    tag_10:\n      0x01\n      dup1\n      sload\n      0x01\n      dup2\n      0x01\n      and\n      iszero\n      0x0100\n      mul\n      sub\n      and\n      0x02\n      swap1\n      div\n      dup1\n      0x1f\n      add\n      0x20\n      dup1\n      swap2\n      div\n      mul\n      0x20\n      add\n      mload(0x40)\n      swap1\n      dup2\n      add\n      0x40\n      mstore\n      dup1\n      swap3\n      swap2\n      swap1\n      dup2\n      dup2\n      mstore\n      0x20\n      add\n      dup3\n      dup1\n      sload\n      0x01\n      dup2\n      0x01\n      and\n      iszero\n      0x0100\n      mul\n      sub\n      and\n      0x02\n      swap1\n      div\n      dup1\n      iszero\n      tag_24\n      jumpi\n      dup1\n      0x1f\n      lt\n      tag_25\n      jumpi\n      0x0100\n      dup1\n      dup4\n      sload\n      div\n      mul\n      dup4\n      mstore\n      swap2\n      0x20\n      add\n      swap2\n      jump(tag_24)\n    tag_25:\n      dup3\n      add\n      swap2\n      swap1\n      0x00\n      mstore\n      keccak256(0x00, 0x20)\n      swap1\n    tag_26:\n      dup2\n      sload\n      dup2\n      mstore\n      swap1\n      0x01\n      add\n      swap1\n      0x20\n      add\n      dup1\n      dup4\n      gt\n      tag_26\n      jumpi\n      dup3\n      swap1\n      sub\n      0x1f\n      and\n      dup3\n      add\n      swap2\n    tag_24:\n      pop\n      pop\n      pop\n      pop\n      pop\n      dup2\n      jump\t// out\n        /* \"contracts/Bea.sol\":13692:13721  address public implementation */\n    tag_16:\n      0x00\n      dup1\n      sload\n      swap1\n      0x0100\n      exp\n      swap1\n      div\n      0xffffffffffffffffffffffffffffffffffffffff\n      and\n      dup2\n      jump\t// out\n        /* \"contracts/Bea.sol\":15293:15767  function getAddress(bytes32 _salt, address _address, bytes calldata _data) external view returns (address) {... */\n    tag_22:\n        /* \"contracts/Bea.sol\":15391:15398  address */\n      0x00\n        /* \"contracts/Bea.sol\":15541:15545  0xff */\n      0xff\n        /* \"contracts/Bea.sol\":15536:15546  byte(0xff) */\n      0xf8\n      shl\n        /* \"contracts/Bea.sol\":15580:15584  this */\n      address\n        /* \"contracts/Bea.sol\":15638:15643  _salt */\n      dup7\n        /* \"contracts/Bea.sol\":15645:15653  _address */\n      dup7\n        /* \"contracts/Bea.sol\":15655:15660  _data */\n      dup7\n      dup7\n        /* \"contracts/Bea.sol\":15621:15661  abi.encodePacked(_salt, _address, _data) */\n      add(0x20, mload(0x40))\n      dup1\n      dup6\n      dup2\n      mstore\n      0x20\n      add\n      dup5\n      0xffffffffffffffffffffffffffffffffffffffff\n      and\n      0x60\n      shl\n      dup2\n      mstore\n      0x14\n      add\n      dup4\n      dup4\n      dup1\n      dup3\n      dup5\n      calldatacopy\n      dup1\n      dup4\n      add\n      swap3\n      pop\n      pop\n      pop\n      swap5\n      pop\n      pop\n      pop\n      pop\n      pop\n      mload(0x40)\n      0x20\n      dup2\n      dup4\n      sub\n      sub\n      dup2\n      mstore\n      swap1\n      0x40\n      mstore\n        /* \"contracts/Bea.sol\":15611:15662  keccak256(abi.encodePacked(_salt, _address, _data)) */\n      dup1\n      mload\n      swap1\n      0x20\n      add\n      keccak256\n        /* \"contracts/Bea.sol\":15688:15696  codeHash */\n      sload(0x02)\n        /* \"contracts/Bea.sol\":15494:15718  abi.encodePacked(... */\n      add(0x20, mload(0x40))\n      dup1\n      dup6\n      not(0xffffffffffffffffffffffffffffffffffffffffffffffffffffffffffffff)\n      and\n      dup2\n      mstore\n      0x01\n      add\n      dup5\n      0xffffffffffffffffffffffffffffffffffffffff\n      and\n      0x60\n      shl\n      dup2\n      mstore\n      0x14\n      add\n      dup4\n      dup2\n      mstore\n      0x20\n      add\n      dup3\n      dup2\n      mstore\n      0x20\n      add\n      swap5\n      pop\n      pop\n      pop\n      pop\n      pop\n      mload(0x40)\n      0x20\n      dup2\n      dup4\n      sub\n      sub\n      dup2\n      mstore\n      swap1\n      0x40\n      mstore\n        /* \"contracts/Bea.sol\":15463:15736  keccak256(... */\n      dup1\n      mload\n      swap1\n      0x20\n      add\n      keccak256\n        /* \"contracts/Bea.sol\":15438:15750  uint256(... */\n      0x00\n      shr\n        /* \"contracts/Bea.sol\":15410:15760  return address(... */\n      swap1\n      pop\n        /* \"contracts/Bea.sol\":15293:15767  function getAddress(bytes32 _salt, address _address, bytes calldata _data) external view returns (address) {... */\n      swap5\n      swap4\n      pop\n      pop\n      pop\n      pop\n      jump\t// out\n        /* \"contracts/Bea.sol\":3990:4403  function isContract(address account) internal view returns (bool) {... */\n    tag_23:\n        /* \"contracts/Bea.sol\":4050:4054  bool */\n      0x00\n        /* \"contracts/Bea.sol\":4253:4265  uint256 size */\n      dup1\n        /* \"contracts/Bea.sol\":4362:4369  account */\n      dup3\n        /* \"contracts/Bea.sol\":4350:4370  extcodesize(account) */\n      extcodesize\n        /* \"contracts/Bea.sol\":4342:4370  size := extcodesize(account) */\n      swap1\n      pop\n        /* \"contracts/Bea.sol\":4395:4396  0 */\n      0x00\n        /* \"contracts/Bea.sol\":4388:4392  size */\n      dup2\n        /* \"contracts/Bea.sol\":4388:4396  size > 0 */\n      gt\n        /* \"contracts/Bea.sol\":4381:4396  return size > 0 */\n      swap2\n      pop\n      pop\n        /* \"contracts/Bea.sol\":3990:4403  function isContract(address account) internal view returns (bool) {... */\n      swap2\n      swap1\n      pop\n      jump\t// out\n\n    auxdata: 0xa26469706673582212208ed3455f2f32d62e4a7ff3141f5cc09cd5ab023ec1e5eaa8007363fba54bf82d64736f6c63430007060033\n}\n\nsub_1: assembly {\n        /* \"contracts/Bea.sol\":11086:13623  contract BeaconProxy is Proxy {... */\n      mstore(0x40, 0x80)\n        /* \"contracts/Bea.sol\":11902:12087  constructor(address beacon, bytes memory data) payable {... */\n      mload(0x40)\n      sub(codesize, bytecodeSize)\n      dup1\n      bytecodeSize\n      dup4\n      codecopy\n      dup2\n      dup2\n      add\n      0x40\n      mstore\n      0x40\n      dup2\n      lt\n      iszero\n      tag_1\n      jumpi\n      0x00\n      dup1\n      revert\n    tag_1:\n      dup2\n      add\n      swap1\n      dup1\n      dup1\n      mload\n      swap1\n      0x20\n      add\n      swap1\n      swap3\n      swap2\n      swap1\n      dup1\n      mload\n      mload(0x40)\n      swap4\n      swap3\n      swap2\n      swap1\n      dup5\n      0x0100000000\n      dup3\n      gt\n      iszero\n      tag_2\n      jumpi\n      0x00\n      dup1\n      revert\n    tag_2:\n      dup4\n      dup3\n      add\n      swap2\n      pop\n      0x20\n      dup3\n      add\n      dup6\n      dup2\n      gt\n      iszero\n      tag_3\n      jumpi\n      0x00\n      dup1\n      revert\n    tag_3:\n      dup3\n      mload\n      dup7\n      0x01\n      dup3\n      mul\n      dup4\n      add\n      gt\n      0x0100000000\n      dup3\n      gt\n      or\n      iszero\n      tag_4\n      jumpi\n      0x00\n      dup1\n      revert\n    tag_4:\n      dup1\n      dup4\n      mstore\n      0x20\n      dup4\n      add\n      swap3\n      pop\n      pop\n      pop\n      swap1\n      dup1\n      mload\n      swap1\n      0x20\n      add\n      swap1\n      dup1\n      dup4\n      dup4\n      0x00\n    tag_5:\n      dup4\n      dup2\n      lt\n      iszero\n      tag_7\n      jumpi\n      dup1\n      dup3\n      add\n      mload\n      dup2\n      dup5\n      add\n      mstore\n      0x20\n      dup2\n      add\n      swap1\n      pop\n      jump(tag_5)\n    tag_7:\n      pop\n      pop\n      pop\n      pop\n      swap1\n      pop\n      swap1\n      dup2\n      add\n      swap1\n      0x1f\n      and\n      dup1\n      iszero\n      tag_8\n      jumpi\n      dup1\n      dup3\n      sub\n      dup1\n      mload\n      0x01\n      dup4\n      0x20\n      sub\n      0x0100\n      exp\n      sub\n      not\n      and\n      dup2\n      mstore\n      0x20\n      add\n      swap2\n      pop\n    tag_8:\n      pop\n      0x40\n      mstore\n      pop\n      pop\n      pop\n        /* \"contracts/Bea.sol\":12043:12044  1 */\n      0x01\n        /* \"contracts/Bea.sol\":12006:12039  keccak256(\"eip1967.proxy.beacon\") */\n      0xa3f0ad74e5423aebfd80d3ef4346578335a9a72aeaee59ff6cb3582b35133d51\n        /* \"contracts/Bea.sol\":11998:12040  uint256(keccak256(\"eip1967.proxy.beacon\")) */\n      0x00\n      shr\n        /* \"contracts/Bea.sol\":11998:12044  uint256(keccak256(\"eip1967.proxy.beacon\")) - 1 */\n      sub\n        /* \"contracts/Bea.sol\":11990:12045  bytes32(uint256(keccak256(\"eip1967.proxy.beacon\")) - 1) */\n      0x00\n      shl\n        /* \"contracts/Bea.sol\":11399:11465  0xa3f0ad74e5423aebfd80d3ef4346578335a9a72aeaee59ff6cb3582b35133d50 */\n      0xa3f0ad74e5423aebfd80d3ef4346578335a9a72aeaee59ff6cb3582b35133d50\n        /* \"contracts/Bea.sol\":11974:11986  _BEACON_SLOT */\n      0x00\n      shl\n        /* \"contracts/Bea.sol\":11974:12045  _BEACON_SLOT == bytes32(uint256(keccak256(\"eip1967.proxy.beacon\")) - 1) */\n      eq\n        /* \"contracts/Bea.sol\":11967:12046  assert(_BEACON_SLOT == bytes32(uint256(keccak256(\"eip1967.proxy.beacon\")) - 1)) */\n      tag_11\n      jumpi\n      invalid\n    tag_11:\n        /* \"contracts/Bea.sol\":12056:12080  _setBeacon(beacon, data) */\n      tag_12\n        /* \"contracts/Bea.sol\":12067:12073  beacon */\n      dup3\n        /* \"contracts/Bea.sol\":12075:12079  data */\n      dup3\n        /* \"contracts/Bea.sol\":12056:12066  _setBeacon */\n      shl(0x20, tag_13)\n        /* \"contracts/Bea.sol\":12056:12080  _setBeacon(beacon, data) */\n      0x20\n      shr\n      jump\t// in\n    tag_12:\n        /* \"contracts/Bea.sol\":11902:12087  constructor(address beacon, bytes memory data) payable {... */\n      pop\n      pop\n        /* \"contracts/Bea.sol\":11086:13623  contract BeaconProxy is Proxy {... */\n      jump(tag_14)\n        /* \"contracts/Bea.sol\":12959:13621  function _setBeacon(address beacon, bytes memory data) internal virtual {... */\n    tag_13:\n        /* \"contracts/Bea.sol\":13062:13088  Address.isContract(beacon) */\n      tag_16\n        /* \"contracts/Bea.sol\":13081:13087  beacon */\n      dup3\n        /* \"contracts/Bea.sol\":13062:13080  Address.isContract */\n      or(tag_0_10, shl(0x20, tag_17))\n        /* \"contracts/Bea.sol\":13062:13088  Address.isContract(beacon) */\n      0x20\n      shr\n      jump\t// in\n    tag_16:\n        /* \"contracts/Bea.sol\":13041:13151  require(... */\n      tag_18\n      jumpi\n      mload(0x40)\n      0x08c379a000000000000000000000000000000000000000000000000000000000\n      dup2\n      mstore\n      0x04\n      add\n      dup1\n      dup1\n      0x20\n      add\n      dup3\n      dup2\n      sub\n      dup3\n      mstore\n      0x25\n      dup2\n      mstore\n      0x20\n      add\n      dup1\n      data_53daaee6c8f15e50eac8695a66c34c0f6ccc33039991062daa2b1d74b5bd10c9\n      0x25\n      swap2\n      codecopy\n      0x40\n      add\n      swap2\n      pop\n      pop\n      mload(0x40)\n      dup1\n      swap2\n      sub\n      swap1\n      revert\n    tag_18:\n        /* \"contracts/Bea.sol\":13182:13234  Address.isContract(IBeacon(beacon).implementation()) */\n      tag_19\n        /* \"contracts/Bea.sol\":13209:13215  beacon */\n      dup3\n        /* \"contracts/Bea.sol\":13201:13231  IBeacon(beacon).implementation */\n      0xffffffffffffffffffffffffffffffffffffffff\n      and\n      0x5c60da1b\n        /* \"contracts/Bea.sol\":13201:13233  IBeacon(beacon).implementation() */\n      mload(0x40)\n      dup2\n      0xffffffff\n      and\n      0xe0\n      shl\n      dup2\n      mstore\n      0x04\n      add\n      0x20\n      mload(0x40)\n      dup1\n      dup4\n      sub\n      dup2\n      dup7\n      dup1\n      extcodesize\n      iszero\n      dup1\n      iszero\n      tag_20\n      jumpi\n      0x00\n      dup1\n      revert\n    tag_20:\n      pop\n      gas\n      staticcall\n      iszero\n      dup1\n      iszero\n      tag_22\n      jumpi\n      returndatasize\n      0x00\n      dup1\n      returndatacopy\n      revert(0x00, returndatasize)\n    tag_22:\n      pop\n      pop\n      pop\n      pop\n      mload(0x40)\n      returndatasize\n      0x20\n      dup2\n      lt\n      iszero\n      tag_23\n      jumpi\n      0x00\n      dup1\n      revert\n    tag_23:\n      dup2\n      add\n      swap1\n      dup1\n      dup1\n      mload\n      swap1\n      0x20\n      add\n      swap1\n      swap3\n      swap2\n      swap1\n      pop\n      pop\n      pop\n        /* \"contracts/Bea.sol\":13182:13200  Address.isContract */\n      or(tag_0_10, shl(0x20, tag_17))\n        /* \"contracts/Bea.sol\":13182:13234  Address.isContract(IBeacon(beacon).implementation()) */\n      0x20\n      shr\n      jump\t// in\n    tag_19:\n        /* \"contracts/Bea.sol\":13161:13312  require(... */\n      tag_24\n      jumpi\n      mload(0x40)\n      0x08c379a000000000000000000000000000000000000000000000000000000000\n      dup2\n      mstore\n      0x04\n      add\n      dup1\n      dup1\n      0x20\n      add\n      dup3\n      dup2\n      sub\n      dup3\n      mstore\n      0x34\n      dup2\n      mstore\n      0x20\n      add\n      dup1\n      data_ff1f719f4da241d3b1e9f94c58b47fc2f722d5e8ebf2cdf3bf4ddc03bf3fd226\n      0x34\n      swap2\n      codecopy\n      0x40\n      add\n      swap2\n      pop\n      pop\n      mload(0x40)\n      dup1\n      swap2\n      sub\n      swap1\n      revert\n    tag_24:\n        /* \"contracts/Bea.sol\":13322:13334  bytes32 slot */\n      0x00\n        /* \"contracts/Bea.sol\":11399:11465  0xa3f0ad74e5423aebfd80d3ef4346578335a9a72aeaee59ff6cb3582b35133d50 */\n      0xa3f0ad74e5423aebfd80d3ef4346578335a9a72aeaee59ff6cb3582b35133d50\n        /* \"contracts/Bea.sol\":13337:13349  _BEACON_SLOT */\n      0x00\n      shl\n        /* \"contracts/Bea.sol\":13322:13349  bytes32 slot = _BEACON_SLOT */\n      swap1\n      pop\n        /* \"contracts/Bea.sol\":13452:13458  beacon */\n      dup3\n        /* \"contracts/Bea.sol\":13446:13450  slot */\n      dup2\n        /* \"contracts/Bea.sol\":13439:13459  sstore(slot, beacon) */\n      sstore\n        /* \"contracts/Bea.sol\":13497:13498  0 */\n      0x00\n        /* \"contracts/Bea.sol\":13483:13487  data */\n      dup3\n        /* \"contracts/Bea.sol\":13483:13494  data.length */\n      mload\n        /* \"contracts/Bea.sol\":13483:13498  data.length > 0 */\n      gt\n        /* \"contracts/Bea.sol\":13479:13615  if (data.length > 0) {... */\n      iszero\n      tag_25\n      jumpi\n        /* \"contracts/Bea.sol\":13514:13604  Address.functionDelegateCall(_implementation(), data, \"BeaconProxy: function call failed\") */\n      tag_26\n        /* \"contracts/Bea.sol\":13543:13560  _implementation() */\n      tag_27\n        /* \"contracts/Bea.sol\":13543:13558  _implementation */\n      shl(0x20, tag_28)\n        /* \"contracts/Bea.sol\":13543:13560  _implementation() */\n      0x20\n      shr\n      jump\t// in\n    tag_27:\n        /* \"contracts/Bea.sol\":13562:13566  data */\n      dup4\n        /* \"contracts/Bea.sol\":13514:13604  Address.functionDelegateCall(_implementation(), data, \"BeaconProxy: function call failed\") */\n      mload(0x40)\n      dup1\n      0x60\n      add\n      0x40\n      mstore\n      dup1\n      0x21\n      dup2\n      mstore\n      0x20\n      add\n      data_4b9118f6e611fdd8fc95671ccbd662d4523f4260d53b96e250349693c7d23726\n      0x21\n      swap2\n      codecopy\n        /* \"contracts/Bea.sol\":13514:13542  Address.functionDelegateCall */\n      or(tag_0_11, shl(0x20, tag_29))\n        /* \"contracts/Bea.sol\":13514:13604  Address.functionDelegateCall(_implementation(), data, \"BeaconProxy: function call failed\") */\n      0x20\n      shr\n      jump\t// in\n    tag_26:\n      pop\n        /* \"contracts/Bea.sol\":13479:13615  if (data.length > 0) {... */\n    tag_25:\n        /* \"contracts/Bea.sol\":12959:13621  function _setBeacon(address beacon, bytes memory data) internal virtual {... */\n      pop\n      pop\n      pop\n      jump\t// out\n        /* \"contracts/Bea.sol\":3990:4403  function isContract(address account) internal view returns (bool) {... */\n    tag_17:\n        /* \"contracts/Bea.sol\":4050:4054  bool */\n      0x00\n        /* \"contracts/Bea.sol\":4253:4265  uint256 size */\n      dup1\n        /* \"contracts/Bea.sol\":4362:4369  account */\n      dup3\n        /* \"contracts/Bea.sol\":4350:4370  extcodesize(account) */\n      extcodesize\n        /* \"contracts/Bea.sol\":4342:4370  size := extcodesize(account) */\n      swap1\n      pop\n        /* \"contracts/Bea.sol\":4395:4396  0 */\n      0x00\n        /* \"contracts/Bea.sol\":4388:4392  size */\n      dup2\n        /* \"contracts/Bea.sol\":4388:4396  size > 0 */\n      gt\n        /* \"contracts/Bea.sol\":4381:4396  return size > 0 */\n      swap2\n      pop\n      pop\n        /* \"contracts/Bea.sol\":3990:4403  function isContract(address account) internal view returns (bool) {... */\n      swap2\n      swap1\n      pop\n      jump\t// out\n        /* \"contracts/Bea.sol\":12489:12624  function _implementation() internal view virtual override returns (address) {... */\n    tag_28:\n        /* \"contracts/Bea.sol\":12556:12563  address */\n      0x00\n        /* \"contracts/Bea.sol\":12590:12599  _beacon() */\n      tag_32\n        /* \"contracts/Bea.sol\":12590:12597  _beacon */\n      shl(0x20, tag_33)\n        /* \"contracts/Bea.sol\":12590:12599  _beacon() */\n      0x20\n      shr\n      jump\t// in\n    tag_32:\n        /* \"contracts/Bea.sol\":12582:12615  IBeacon(_beacon()).implementation */\n      0xffffffffffffffffffffffffffffffffffffffff\n      and\n      0x5c60da1b\n        /* \"contracts/Bea.sol\":12582:12617  IBeacon(_beacon()).implementation() */\n      mload(0x40)\n      dup2\n      0xffffffff\n      and\n      0xe0\n      shl\n      dup2\n      mstore\n      0x04\n      add\n      0x20\n      mload(0x40)\n      dup1\n      dup4\n      sub\n      dup2\n      dup7\n      dup1\n      extcodesize\n      iszero\n      dup1\n      iszero\n      tag_34\n      jumpi\n      0x00\n      dup1\n      revert\n    tag_34:\n      pop\n      gas\n      staticcall\n      iszero\n      dup1\n      iszero\n      tag_36\n      jumpi\n      returndatasize\n      0x00\n      dup1\n      returndatacopy\n      revert(0x00, returndatasize)\n    tag_36:\n      pop\n      pop\n      pop\n      pop\n      mload(0x40)\n      returndatasize\n      0x20\n      dup2\n      lt\n      iszero\n      tag_37\n      jumpi\n      0x00\n      dup1\n      revert\n    tag_37:\n      dup2\n      add\n      swap1\n      dup1\n      dup1\n      mload\n      swap1\n      0x20\n      add\n      swap1\n      swap3\n      swap2\n      swap1\n      pop\n      pop\n      pop\n        /* \"contracts/Bea.sol\":12575:12617  return IBeacon(_beacon()).implementation() */\n      swap1\n      pop\n        /* \"contracts/Bea.sol\":12489:12624  function _implementation() internal view virtual override returns (address) {... */\n      swap1\n      jump\t// out\n        /* \"contracts/Bea.sol\":9932:10349  function functionDelegateCall(address target, bytes memory data, string memory errorMessage) internal returns (bytes memory) {... */\n    tag_29:\n        /* \"contracts/Bea.sol\":10043:10055  bytes memory */\n      0x60\n        /* \"contracts/Bea.sol\":10075:10093  isContract(target) */\n      tag_39\n        /* \"contracts/Bea.sol\":10086:10092  target */\n      dup5\n        /* \"contracts/Bea.sol\":10075:10085  isContract */\n      shl(0x20, tag_17)\n        /* \"contracts/Bea.sol\":10075:10093  isContract(target) */\n      0x20\n      shr\n      jump\t// in\n    tag_39:\n        /* \"contracts/Bea.sol\":10067:10136  require(isContract(target), \"Address: delegate call to non-contract\") */\n      tag_40\n      jumpi\n      mload(0x40)\n      0x08c379a000000000000000000000000000000000000000000000000000000000\n      dup2\n      mstore\n      0x04\n      add\n      dup1\n      dup1\n      0x20\n      add\n      dup3\n      dup2\n      sub\n      dup3\n      mstore\n      0x26\n      dup2\n      mstore\n      0x20\n      add\n      dup1\n      data_b94ded0918034cf8f896e19fa3cfdef1188cd569c577264a3622e49152f88520\n      0x26\n      swap2\n      codecopy\n      0x40\n      add\n      swap2\n      pop\n      pop\n      mload(0x40)\n      dup1\n      swap2\n      sub\n      swap1\n      revert\n    tag_40:\n        /* \"contracts/Bea.sol\":10207:10219  bool success */\n      0x00\n        /* \"contracts/Bea.sol\":10221:10244  bytes memory returndata */\n      dup1\n        /* \"contracts/Bea.sol\":10248:10254  target */\n      dup6\n        /* \"contracts/Bea.sol\":10248:10267  target.delegatecall */\n      0xffffffffffffffffffffffffffffffffffffffff\n      and\n        /* \"contracts/Bea.sol\":10268:10272  data */\n      dup6\n        /* \"contracts/Bea.sol\":10248:10273  target.delegatecall(data) */\n      mload(0x40)\n      dup1\n      dup3\n      dup1\n      mload\n      swap1\n      0x20\n      add\n      swap1\n      dup1\n      dup4\n      dup4\n    tag_41:\n      0x20\n      dup4\n      lt\n      tag_43\n      jumpi\n      dup1\n      mload\n      dup3\n      mstore\n      0x20\n      dup3\n      add\n      swap2\n      pop\n      0x20\n      dup2\n      add\n      swap1\n      pop\n      0x20\n      dup4\n      sub\n      swap3\n      pop\n      jump(tag_41)\n    tag_43:\n      0x01\n      dup4\n      0x20\n      sub\n      0x0100\n      exp\n      sub\n      dup1\n      not\n      dup3\n      mload\n      and\n      dup2\n      dup5\n      mload\n      and\n      dup1\n      dup3\n      or\n      dup6\n      mstore\n      pop\n      pop\n      pop\n      pop\n      pop\n      pop\n      swap1\n      pop\n      add\n      swap2\n      pop\n      pop\n      0x00\n      mload(0x40)\n      dup1\n      dup4\n      sub\n      dup2\n      dup6\n      gas\n      delegatecall\n      swap2\n      pop\n      pop\n      returndatasize\n      dup1\n      0x00\n      dup2\n      eq\n      tag_46\n      jumpi\n      mload(0x40)\n      swap2\n      pop\n      and(add(returndatasize, 0x3f), not(0x1f))\n      dup3\n      add\n      0x40\n      mstore\n      returndatasize\n      dup3\n      mstore\n      returndatasize\n      0x00\n      0x20\n      dup5\n      add\n      returndatacopy\n      jump(tag_45)\n    tag_46:\n      0x60\n      swap2\n      pop\n    tag_45:\n      pop\n        /* \"contracts/Bea.sol\":10206:10273  (bool success, bytes memory returndata) = target.delegatecall(data) */\n      swap2\n      pop\n      swap2\n      pop\n        /* \"contracts/Bea.sol\":10290:10342  _verifyCallResult(success, returndata, errorMessage) */\n      tag_47\n        /* \"contracts/Bea.sol\":10308:10315  success */\n      dup3\n        /* \"contracts/Bea.sol\":10317:10327  returndata */\n      dup3\n        /* \"contracts/Bea.sol\":10329:10341  errorMessage */\n      dup7\n        /* \"contracts/Bea.sol\":10290:10307  _verifyCallResult */\n      shl(0x20, tag_48)\n        /* \"contracts/Bea.sol\":10290:10342  _verifyCallResult(success, returndata, errorMessage) */\n      0x20\n      shr\n      jump\t// in\n    tag_47:\n        /* \"contracts/Bea.sol\":10283:10342  return _verifyCallResult(success, returndata, errorMessage) */\n      swap3\n      pop\n      pop\n      pop\n        /* \"contracts/Bea.sol\":9932:10349  function functionDelegateCall(address target, bytes memory data, string memory errorMessage) internal returns (bytes memory) {... */\n      swap4\n      swap3\n      pop\n      pop\n      pop\n      jump\t// out\n        /* \"contracts/Bea.sol\":12157:12386  function _beacon() internal view virtual returns (address beacon) {... */\n    tag_33:\n        /* \"contracts/Bea.sol\":12207:12221  address beacon */\n      0x00\n        /* \"contracts/Bea.sol\":12233:12245  bytes32 slot */\n      dup1\n        /* \"contracts/Bea.sol\":11399:11465  0xa3f0ad74e5423aebfd80d3ef4346578335a9a72aeaee59ff6cb3582b35133d50 */\n      0xa3f0ad74e5423aebfd80d3ef4346578335a9a72aeaee59ff6cb3582b35133d50\n        /* \"contracts/Bea.sol\":12248:12260  _BEACON_SLOT */\n      0x00\n      shl\n        /* \"contracts/Bea.sol\":12233:12260  bytes32 slot = _BEACON_SLOT */\n      swap1\n      pop\n        /* \"contracts/Bea.sol\":12365:12369  slot */\n      dup1\n        /* \"contracts/Bea.sol\":12359:12370  sload(slot) */\n      sload\n        /* \"contracts/Bea.sol\":12349:12370  beacon := sload(slot) */\n      swap2\n      pop\n        /* \"contracts/Bea.sol\":12335:12380  {... */\n      pop\n      swap1\n      jump\t// out\n        /* \"contracts/Bea.sol\":10355:11080  function _verifyCallResult(bool success, bytes memory returndata, string memory errorMessage) private pure returns(bytes memory) {... */\n    tag_48:\n        /* \"contracts/Bea.sol\":10470:10482  bytes memory */\n      0x60\n        /* \"contracts/Bea.sol\":10498:10505  success */\n      dup4\n        /* \"contracts/Bea.sol\":10494:11074  if (success) {... */\n      iszero\n      tag_51\n      jumpi\n        /* \"contracts/Bea.sol\":10528:10538  returndata */\n      dup3\n        /* \"contracts/Bea.sol\":10521:10538  return returndata */\n      swap1\n      pop\n      jump(tag_50)\n        /* \"contracts/Bea.sol\":10494:11074  if (success) {... */\n    tag_51:\n        /* \"contracts/Bea.sol\":10659:10660  0 */\n      0x00\n        /* \"contracts/Bea.sol\":10639:10649  returndata */\n      dup4\n        /* \"contracts/Bea.sol\":10639:10656  returndata.length */\n      mload\n        /* \"contracts/Bea.sol\":10639:10660  returndata.length > 0 */\n      gt\n        /* \"contracts/Bea.sol\":10635:11064  if (returndata.length > 0) {... */\n      iszero\n      tag_53\n      jumpi\n        /* \"contracts/Bea.sol\":10897:10907  returndata */\n      dup3\n        /* \"contracts/Bea.sol\":10891:10908  mload(returndata) */\n      mload\n        /* \"contracts/Bea.sol\":10957:10972  returndata_size */\n      dup1\n        /* \"contracts/Bea.sol\":10944:10954  returndata */\n      dup5\n        /* \"contracts/Bea.sol\":10940:10942  32 */\n      0x20\n        /* \"contracts/Bea.sol\":10936:10955  add(32, returndata) */\n      add\n        /* \"contracts/Bea.sol\":10929:10973  revert(add(32, returndata), returndata_size) */\n      revert\n        /* \"contracts/Bea.sol\":10846:10991  {... */\n    tag_53:\n        /* \"contracts/Bea.sol\":11036:11048  errorMessage */\n      dup2\n        /* \"contracts/Bea.sol\":11029:11049  revert(errorMessage) */\n      mload(0x40)\n      0x08c379a000000000000000000000000000000000000000000000000000000000\n      dup2\n      mstore\n      0x04\n      add\n      dup1\n      dup1\n      0x20\n      add\n      dup3\n      dup2\n      sub\n      dup3\n      mstore\n      dup4\n      dup2\n      dup2\n      mload\n      dup2\n      mstore\n      0x20\n      add\n      swap2\n      pop\n      dup1\n      mload\n      swap1\n      0x20\n      add\n      swap1\n      dup1\n      dup4\n      dup4\n      0x00\n    tag_55:\n      dup4\n      dup2\n      lt\n      iszero\n      tag_57\n      jumpi\n      dup1\n      dup3\n      add\n      mload\n      dup2\n      dup5\n      add\n      mstore\n      0x20\n      dup2\n      add\n      swap1\n      pop\n      jump(tag_55)\n    tag_57:\n      pop\n      pop\n      pop\n      pop\n      swap1\n      pop\n      swap1\n      dup2\n      add\n      swap1\n      0x1f\n      and\n      dup1\n      iszero\n      tag_58\n      jumpi\n      dup1\n      dup3\n      sub\n      dup1\n      mload\n      0x01\n      dup4\n      0x20\n      sub\n      0x0100\n      exp\n      sub\n      not\n      and\n      dup2\n      mstore\n      0x20\n      add\n      swap2\n      pop\n    tag_58:\n      pop\n      swap3\n      pop\n      pop\n      pop\n      mload(0x40)\n      dup1\n      swap2\n      sub\n      swap1\n      revert\n        /* \"contracts/Bea.sol\":10355:11080  function _verifyCallResult(bool success, bytes memory returndata, string memory errorMessage) private pure returns(bytes memory) {... */\n    tag_50:\n      swap4\n      swap3\n      pop\n      pop\n      pop\n      jump\t// out\n        /* \"contracts/Bea.sol\":11086:13623  contract BeaconProxy is Proxy {... */\n    tag_14:\n      dataSize(sub_0)\n      dup1\n      dataOffset(sub_0)\n      0x00\n      codecopy\n      0x00\n      return\n    stop\n    data_4b9118f6e611fdd8fc95671ccbd662d4523f4260d53b96e250349693c7d23726 426561636f6e50726f78793a2066756e6374696f6e2063616c6c206661696c6564\n    data_53daaee6c8f15e50eac8695a66c34c0f6ccc33039991062daa2b1d74b5bd10c9 426561636f6e50726f78793a20626561636f6e206973206e6f74206120636f6e7472616374\n    data_b94ded0918034cf8f896e19fa3cfdef1188cd569c577264a3622e49152f88520 416464726573733a2064656c65676174652063616c6c20746f206e6f6e2d636f6e7472616374\n    data_ff1f719f4da241d3b1e9f94c58b47fc2f722d5e8ebf2cdf3bf4ddc03bf3fd226 426561636f6e50726f78793a20626561636f6e20696d706c656d656e746174696f6e206973206e6f74206120636f6e7472616374\n\n    sub_0: assembly {\n            /* \"contracts/Bea.sol\":11086:13623  contract BeaconProxy is Proxy {... */\n          mstore(0x40, 0x80)\n          jumpi(tag_2, calldatasize)\n            /* \"contracts/Bea.sol\":2943:2954  _fallback() */\n          tag_5\n            /* \"contracts/Bea.sol\":2943:2952  _fallback */\n          tag_6\n            /* \"contracts/Bea.sol\":2943:2954  _fallback() */\n          jump\t// in\n        tag_5:\n            /* \"contracts/Bea.sol\":11086:13623  contract BeaconProxy is Proxy {... */\n          stop\n        tag_2:\n            /* \"contracts/Bea.sol\":2719:2730  _fallback() */\n          tag_9\n            /* \"contracts/Bea.sol\":2719:2728  _fallback */\n          tag_6\n            /* \"contracts/Bea.sol\":2719:2730  _fallback() */\n          jump\t// in\n        tag_9:\n            /* \"contracts/Bea.sol\":11086:13623  contract BeaconProxy is Proxy {... */\n          stop\n            /* \"contracts/Bea.sol\":2365:2475  function _fallback() internal virtual {... */\n        tag_6:\n            /* \"contracts/Bea.sol\":2413:2430  _beforeFallback() */\n          tag_13\n            /* \"contracts/Bea.sol\":2413:2428  _beforeFallback */\n          tag_14\n            /* \"contracts/Bea.sol\":2413:2430  _beforeFallback() */\n          jump\t// in\n        tag_13:\n            /* \"contracts/Bea.sol\":2440:2468  _delegate(_implementation()) */\n          tag_15\n            /* \"contracts/Bea.sol\":2450:2467  _implementation() */\n          tag_16\n            /* \"contracts/Bea.sol\":2450:2465  _implementation */\n          tag_17\n            /* \"contracts/Bea.sol\":2450:2467  _implementation() */\n          jump\t// in\n        tag_16:\n            /* \"contracts/Bea.sol\":2440:2449  _delegate */\n          tag_18\n            /* \"contracts/Bea.sol\":2440:2468  _delegate(_implementation()) */\n          jump\t// in\n        tag_15:\n            /* \"contracts/Bea.sol\":2365:2475  function _fallback() internal virtual {... */\n          jump\t// out\n            /* \"contracts/Bea.sol\":3990:4403  function isContract(address account) internal view returns (bool) {... */\n        tag_10:\n            /* \"contracts/Bea.sol\":4050:4054  bool */\n          0x00\n            /* \"contracts/Bea.sol\":4253:4265  uint256 size */\n          dup1\n            /* \"contracts/Bea.sol\":4362:4369  account */\n          dup3\n            /* \"contracts/Bea.sol\":4350:4370  extcodesize(account) */\n          extcodesize\n            /* \"contracts/Bea.sol\":4342:4370  size := extcodesize(account) */\n          swap1\n          pop\n            /* \"contracts/Bea.sol\":4395:4396  0 */\n          0x00\n            /* \"contracts/Bea.sol\":4388:4392  size */\n          dup2\n            /* \"contracts/Bea.sol\":4388:4396  size > 0 */\n          gt\n            /* \"contracts/Bea.sol\":4381:4396  return size > 0 */\n          swap2\n          pop\n          pop\n            /* \"contracts/Bea.sol\":3990:4403  function isContract(address account) internal view returns (bool) {... */\n          swap2\n          swap1\n          pop\n          jump\t// out\n            /* \"contracts/Bea.sol\":9932:10349  function functionDelegateCall(address target, bytes memory data, string memory errorMessage) internal returns (bytes memory) {... */\n        tag_11:\n            /* \"contracts/Bea.sol\":10043:10055  bytes memory */\n          0x60\n            /* \"contracts/Bea.sol\":10075:10093  isContract(target) */\n          tag_21\n            /* \"contracts/Bea.sol\":10086:10092  target */\n          dup5\n            /* \"contracts/Bea.sol\":10075:10085  isContract */\n          tag_10\n            /* \"contracts/Bea.sol\":10075:10093  isContract(target) */\n          jump\t// in\n        tag_21:\n            /* \"contracts/Bea.sol\":10067:10136  require(isContract(target), \"Address: delegate call to non-contract\") */\n          tag_22\n          jumpi\n          mload(0x40)\n          0x08c379a000000000000000000000000000000000000000000000000000000000\n          dup2\n          mstore\n          0x04\n          add\n          dup1\n          dup1\n          0x20\n          add\n          dup3\n          dup2\n          sub\n          dup3\n          mstore\n          0x26\n          dup2\n          mstore\n          0x20\n          add\n          dup1\n          data_b94ded0918034cf8f896e19fa3cfdef1188cd569c577264a3622e49152f88520\n          0x26\n          swap2\n          codecopy\n          0x40\n          add\n          swap2\n          pop\n          pop\n          mload(0x40)\n          dup1\n          swap2\n          sub\n          swap1\n          revert\n        tag_22:\n            /* \"contracts/Bea.sol\":10207:10219  bool success */\n          0x00\n            /* \"contracts/Bea.sol\":10221:10244  bytes memory returndata */\n          dup1\n            /* \"contracts/Bea.sol\":10248:10254  target */\n          dup6\n            /* \"contracts/Bea.sol\":10248:10267  target.delegatecall */\n          0xffffffffffffffffffffffffffffffffffffffff\n          and\n            /* \"contracts/Bea.sol\":10268:10272  data */\n          dup6\n            /* \"contracts/Bea.sol\":10248:10273  target.delegatecall(data) */\n          mload(0x40)\n          dup1\n          dup3\n          dup1\n          mload\n          swap1\n          0x20\n          add\n          swap1\n          dup1\n          dup4\n          dup4\n        tag_23:\n          0x20\n          dup4\n          lt\n          tag_25\n          jumpi\n          dup1\n          mload\n          dup3\n          mstore\n          0x20\n          dup3\n          add\n          swap2\n          pop\n          0x20\n          dup2\n          add\n          swap1\n          pop\n          0x20\n          dup4\n          sub\n          swap3\n          pop\n          jump(tag_23)\n        tag_25:\n          0x01\n          dup4\n          0x20\n          sub\n          0x0100\n          exp\n          sub\n          dup1\n          not\n          dup3\n          mload\n          and\n          dup2\n          dup5\n          mload\n          and\n          dup1\n          dup3\n          or\n          dup6\n          mstore\n          pop\n          pop\n          pop\n          pop\n          pop\n          pop\n          swap1\n          pop\n          add\n          swap2\n          pop\n          pop\n          0x00\n          mload(0x40)\n          dup1\n          dup4\n          sub\n          dup2\n          dup6\n          gas\n          delegatecall\n          swap2\n          pop\n          pop\n          returndatasize\n          dup1\n          0x00\n          dup2\n          eq\n          tag_28\n          jumpi\n          mload(0x40)\n          swap2\n          pop\n          and(add(returndatasize, 0x3f), not(0x1f))\n          dup3\n          add\n          0x40\n          mstore\n          returndatasize\n          dup3\n          mstore\n          returndatasize\n          0x00\n          0x20\n          dup5\n          add\n          returndatacopy\n          jump(tag_27)\n        tag_28:\n          0x60\n          swap2\n          pop\n        tag_27:\n          pop\n            /* \"contracts/Bea.sol\":10206:10273  (bool success, bytes memory returndata) = target.delegatecall(data) */\n          swap2\n          pop\n          swap2\n          pop\n            /* \"contracts/Bea.sol\":10290:10342  _verifyCallResult(success, returndata, errorMessage) */\n          tag_29\n            /* \"contracts/Bea.sol\":10308:10315  success */\n          dup3\n            /* \"contracts/Bea.sol\":10317:10327  returndata */\n          dup3\n            /* \"contracts/Bea.sol\":10329:10341  errorMessage */\n          dup7\n            /* \"contracts/Bea.sol\":10290:10307  _verifyCallResult */\n          tag_30\n            /* \"contracts/Bea.sol\":10290:10342  _verifyCallResult(success, returndata, errorMessage) */\n          jump\t// in\n        tag_29:\n            /* \"contracts/Bea.sol\":10283:10342  return _verifyCallResult(success, returndata, errorMessage) */\n          swap3\n          pop\n          pop\n          pop\n            /* \"contracts/Bea.sol\":9932:10349  function functionDelegateCall(address target, bytes memory data, string memory errorMessage) internal returns (bytes memory) {... */\n          swap4\n          swap3\n          pop\n          pop\n          pop\n          jump\t// out\n            /* \"contracts/Bea.sol\":3242:3293  function _beforeFallback() internal virtual {... */\n        tag_14:\n          jump\t// out\n            /* \"contracts/Bea.sol\":12489:12624  function _implementation() internal view virtual override returns (address) {... */\n        tag_17:\n            /* \"contracts/Bea.sol\":12556:12563  address */\n          0x00\n            /* \"contracts/Bea.sol\":12590:12599  _beacon() */\n          tag_33\n            /* \"contracts/Bea.sol\":12590:12597  _beacon */\n          tag_34\n            /* \"contracts/Bea.sol\":12590:12599  _beacon() */\n          jump\t// in\n        tag_33:\n            /* \"contracts/Bea.sol\":12582:12615  IBeacon(_beacon()).implementation */\n          0xffffffffffffffffffffffffffffffffffffffff\n          and\n          0x5c60da1b\n            /* \"contracts/Bea.sol\":12582:12617  IBeacon(_beacon()).implementation() */\n          mload(0x40)\n          dup2\n          0xffffffff\n          and\n          0xe0\n          shl\n          dup2\n          mstore\n          0x04\n          add\n          0x20\n          mload(0x40)\n          dup1\n          dup4\n          sub\n          dup2\n          dup7\n          dup1\n          extcodesize\n          iszero\n          dup1\n          iszero\n          tag_35\n          jumpi\n          0x00\n          dup1\n          revert\n        tag_35:\n          pop\n          gas\n          staticcall\n          iszero\n          dup1\n          iszero\n          tag_37\n          jumpi\n          returndatasize\n          0x00\n          dup1\n          returndatacopy\n          revert(0x00, returndatasize)\n        tag_37:\n          pop\n          pop\n          pop\n          pop\n          mload(0x40)\n          returndatasize\n          0x20\n          dup2\n          lt\n          iszero\n          tag_38\n          jumpi\n          0x00\n          dup1\n          revert\n        tag_38:\n          dup2\n          add\n          swap1\n          dup1\n          dup1\n          mload\n          swap1\n          0x20\n          add\n          swap1\n          swap3\n          swap2\n          swap1\n          pop\n          pop\n          pop\n            /* \"contracts/Bea.sol\":12575:12617  return IBeacon(_beacon()).implementation() */\n          swap1\n          pop\n            /* \"contracts/Bea.sol\":12489:12624  function _implementation() internal view virtual override returns (address) {... */\n          swap1\n          jump\t// out\n            /* \"contracts/Bea.sol\":991:1886  function _delegate(address implementation) internal virtual {... */\n        tag_18:\n            /* \"contracts/Bea.sol\":1385:1399  calldatasize() */\n          calldatasize\n            /* \"contracts/Bea.sol\":1382:1383  0 */\n          0x00\n            /* \"contracts/Bea.sol\":1379:1380  0 */\n          dup1\n            /* \"contracts/Bea.sol\":1366:1400  calldatacopy(0, 0, calldatasize()) */\n          calldatacopy\n            /* \"contracts/Bea.sol\":1599:1600  0 */\n          0x00\n            /* \"contracts/Bea.sol\":1596:1597  0 */\n          dup1\n            /* \"contracts/Bea.sol\":1580:1594  calldatasize() */\n          calldatasize\n            /* \"contracts/Bea.sol\":1577:1578  0 */\n          0x00\n            /* \"contracts/Bea.sol\":1561:1575  implementation */\n          dup5\n            /* \"contracts/Bea.sol\":1554:1559  gas() */\n          gas\n            /* \"contracts/Bea.sol\":1541:1601  delegatecall(gas(), implementation, 0, calldatasize(), 0, 0) */\n          delegatecall\n            /* \"contracts/Bea.sol\":1675:1691  returndatasize() */\n          returndatasize\n            /* \"contracts/Bea.sol\":1672:1673  0 */\n          0x00\n            /* \"contracts/Bea.sol\":1669:1670  0 */\n          dup1\n            /* \"contracts/Bea.sol\":1654:1692  returndatacopy(0, 0, returndatasize()) */\n          returndatacopy\n            /* \"contracts/Bea.sol\":1713:1719  result */\n          dup1\n            /* \"contracts/Bea.sol\":1785:1786  0 */\n          0x00\n            /* \"contracts/Bea.sol\":1780:1818  case 0 { revert(0, returndatasize()) } */\n          dup2\n          eq\n          tag_41\n          jumpi\n            /* \"contracts/Bea.sol\":1851:1867  returndatasize() */\n          returndatasize\n            /* \"contracts/Bea.sol\":1848:1849  0 */\n          0x00\n            /* \"contracts/Bea.sol\":1841:1868  return(0, returndatasize()) */\n          return\n            /* \"contracts/Bea.sol\":1780:1818  case 0 { revert(0, returndatasize()) } */\n        tag_41:\n            /* \"contracts/Bea.sol\":1799:1815  returndatasize() */\n          returndatasize\n            /* \"contracts/Bea.sol\":1796:1797  0 */\n          0x00\n            /* \"contracts/Bea.sol\":1789:1816  revert(0, returndatasize()) */\n          revert\n            /* \"contracts/Bea.sol\":10355:11080  function _verifyCallResult(bool success, bytes memory returndata, string memory errorMessage) private pure returns(bytes memory) {... */\n        tag_30:\n            /* \"contracts/Bea.sol\":10470:10482  bytes memory */\n          0x60\n            /* \"contracts/Bea.sol\":10498:10505  success */\n          dup4\n            /* \"contracts/Bea.sol\":10494:11074  if (success) {... */\n          iszero\n          tag_43\n          jumpi\n            /* \"contracts/Bea.sol\":10528:10538  returndata */\n          dup3\n            /* \"contracts/Bea.sol\":10521:10538  return returndata */\n          swap1\n          pop\n          jump(tag_42)\n            /* \"contracts/Bea.sol\":10494:11074  if (success) {... */\n        tag_43:\n            /* \"contracts/Bea.sol\":10659:10660  0 */\n          0x00\n            /* \"contracts/Bea.sol\":10639:10649  returndata */\n          dup4\n            /* \"contracts/Bea.sol\":10639:10656  returndata.length */\n          mload\n            /* \"contracts/Bea.sol\":10639:10660  returndata.length > 0 */\n          gt\n            /* \"contracts/Bea.sol\":10635:11064  if (returndata.length > 0) {... */\n          iszero\n          tag_45\n          jumpi\n            /* \"contracts/Bea.sol\":10897:10907  returndata */\n          dup3\n            /* \"contracts/Bea.sol\":10891:10908  mload(returndata) */\n          mload\n            /* \"contracts/Bea.sol\":10957:10972  returndata_size */\n          dup1\n            /* \"contracts/Bea.sol\":10944:10954  returndata */\n          dup5\n            /* \"contracts/Bea.sol\":10940:10942  32 */\n          0x20\n            /* \"contracts/Bea.sol\":10936:10955  add(32, returndata) */\n          add\n            /* \"contracts/Bea.sol\":10929:10973  revert(add(32, returndata), returndata_size) */\n          revert\n            /* \"contracts/Bea.sol\":10846:10991  {... */\n        tag_45:\n            /* \"contracts/Bea.sol\":11036:11048  errorMessage */\n          dup2\n            /* \"contracts/Bea.sol\":11029:11049  revert(errorMessage) */\n          mload(0x40)\n          0x08c379a000000000000000000000000000000000000000000000000000000000\n          dup2\n          mstore\n          0x04\n          add\n          dup1\n          dup1\n          0x20\n          add\n          dup3\n          dup2\n          sub\n          dup3\n          mstore\n          dup4\n          dup2\n          dup2\n          mload\n          dup2\n          mstore\n          0x20\n          add\n          swap2\n          pop\n          dup1\n          mload\n          swap1\n          0x20\n          add\n          swap1\n          dup1\n          dup4\n          dup4\n          0x00\n        tag_47:\n          dup4\n          dup2\n          lt\n          iszero\n          tag_49\n          jumpi\n          dup1\n          dup3\n          add\n          mload\n          dup2\n          dup5\n          add\n          mstore\n          0x20\n          dup2\n          add\n          swap1\n          pop\n          jump(tag_47)\n        tag_49:\n          pop\n          pop\n          pop\n          pop\n          swap1\n          pop\n          swap1\n          dup2\n          add\n          swap1\n          0x1f\n          and\n          dup1\n          iszero\n          tag_50\n          jumpi\n          dup1\n          dup3\n          sub\n          dup1\n          mload\n          0x01\n          dup4\n          0x20\n          sub\n          0x0100\n          exp\n          sub\n          not\n          and\n          dup2\n          mstore\n          0x20\n          add\n          swap2\n          pop\n        tag_50:\n          pop\n          swap3\n          pop\n          pop\n          pop\n          mload(0x40)\n          dup1\n          swap2\n          sub\n          swap1\n          revert\n            /* \"contracts/Bea.sol\":10355:11080  function _verifyCallResult(bool success, bytes memory returndata, string memory errorMessage) private pure returns(bytes memory) {... */\n        tag_42:\n          swap4\n          swap3\n          pop\n          pop\n          pop\n          jump\t// out\n            /* \"contracts/Bea.sol\":12157:12386  function _beacon() internal view virtual returns (address beacon) {... */\n        tag_34:\n            /* \"contracts/Bea.sol\":12207:12221  address beacon */\n          0x00\n            /* \"contracts/Bea.sol\":12233:12245  bytes32 slot */\n          dup1\n            /* \"contracts/Bea.sol\":11399:11465  0xa3f0ad74e5423aebfd80d3ef4346578335a9a72aeaee59ff6cb3582b35133d50 */\n          0xa3f0ad74e5423aebfd80d3ef4346578335a9a72aeaee59ff6cb3582b35133d50\n            /* \"contracts/Bea.sol\":12248:12260  _BEACON_SLOT */\n          0x00\n          shl\n            /* \"contracts/Bea.sol\":12233:12260  bytes32 slot = _BEACON_SLOT */\n          swap1\n          pop\n            /* \"contracts/Bea.sol\":12365:12369  slot */\n          dup1\n            /* \"contracts/Bea.sol\":12359:12370  sload(slot) */\n          sload\n            /* \"contracts/Bea.sol\":12349:12370  beacon := sload(slot) */\n          swap2\n          pop\n            /* \"contracts/Bea.sol\":12335:12380  {... */\n          pop\n          swap1\n          jump\t// out\n        stop\n        data_b94ded0918034cf8f896e19fa3cfdef1188cd569c577264a3622e49152f88520 416464726573733a2064656c65676174652063616c6c20746f206e6f6e2d636f6e7472616374\n\n        auxdata: 0xa26469706673582212206be978e30c6f1e25504970176acd6edd9fc4ec24da29ac2cd22352db8f21dde164736f6c63430007060033\n    }\n}\n",
				"bytecode": {
					"linkReferences": {},
					"object": "608060405234801561001057600080fd5b5060405162001337380380620013378339818101604052602081101561003557600080fd5b81019080805190602001909291905050506100558161005b60201b60201c565b506104ca565b600073ffffffffffffffffffffffffffffffffffffffff168173ffffffffffffffffffffffffffffffffffffffff16141580156100bd57506100bc8173ffffffffffffffffffffffffffffffffffffffff166103fe60201b6103a21760201c565b5b610113576040517f08c379a000000000000000000000000000000000000000000000000000000000815260040180806020018281038252603f815260200180620012f8603f913960400191505060405180910390fd5b6040518060200161012390610411565b6020820181038252601f19601f8201166040525081604051602001808273ffffffffffffffffffffffffffffffffffffffff16815260200180602001828103825260008152602001925050506040516020818303038152906040526040516020018083805190602001908083835b602083106101b45780518252602082019150602081019050602083039250610191565b6001836020036101000a03801982511681845116808217855250505050505090500182805190602001908083835b6020831061020557805182526020820191506020810190506020830392506101e2565b6001836020036101000a038019825116818451168082178552505050505050905001925050506040516020818303038152906040526001908051906020019061024f92919061041f565b50600160405180828054600181600116156101000203166002900480156102ad5780601f1061028b5761010080835404028352918201916102ad565b820191906000526020600020905b815481529060010190602001808311610299575b50509150506040518091039020600281905550806000806101000a81548173ffffffffffffffffffffffffffffffffffffffff021916908373ffffffffffffffffffffffffffffffffffffffff16021790555060008054906101000a900473ffffffffffffffffffffffffffffffffffffffff1673ffffffffffffffffffffffffffffffffffffffff167f7acba6e3c47815c1b41b230650f7ed720d66bdc6ca45468c4a6cdb9425132024600254600160405180838152602001806020018281038252838181546001816001161561010002031660029004815260200191508054600181600116156101000203166002900480156103ec5780601f106103c1576101008083540402835291602001916103ec565b820191906000526020600020905b8154815290600101906020018083116103cf57829003601f168201915b5050935050505060405180910390a250565b600080823b905060008111915050919050565b610a3380620008c583390190565b828054600181600116156101000203166002900490600052602060002090601f016020900481019282610455576000855561049c565b82601f1061046e57805160ff191683800117855561049c565b8280016001018555821561049c579182015b8281111561049b578251825591602001919060010190610480565b5b5090506104a991906104ad565b5090565b5b808211156104c65760008160009055506001016104ae565b5090565b6103eb80620004da6000396000f3fe608060405234801561001057600080fd5b506004361061004c5760003560e01c806318edaaf21461005157806324c12bf61461006f5780635c60da1b146100f2578063af22239914610126575b600080fd5b6100596101f3565b6040518082815260200191505060405180910390f35b6100776101f9565b6040518080602001828103825283818151815260200191508051906020019080838360005b838110156100b757808201518184015260208101905061009c565b50505050905090810190601f1680156100e45780820380516001836020036101000a031916815260200191505b509250505060405180910390f35b6100fa610297565b604051808273ffffffffffffffffffffffffffffffffffffffff16815260200191505060405180910390f35b6101c76004803603606081101561013c57600080fd5b8101908080359060200190929190803573ffffffffffffffffffffffffffffffffffffffff1690602001909291908035906020019064010000000081111561018357600080fd5b82018360208201111561019557600080fd5b803590602001918460018302840111640100000000831117156101b757600080fd5b90919293919293905050506102bb565b604051808273ffffffffffffffffffffffffffffffffffffffff16815260200191505060405180910390f35b60025481565b60018054600181600116156101000203166002900480601f01602080910402602001604051908101604052809291908181526020018280546001816001161561010002031660029004801561028f5780601f106102645761010080835404028352916020019161028f565b820191906000526020600020905b81548152906001019060200180831161027257829003601f168201915b505050505081565b60008054906101000a900473ffffffffffffffffffffffffffffffffffffffff1681565b600060ff60f81b3086868686604051602001808581526020018473ffffffffffffffffffffffffffffffffffffffff1660601b8152601401838380828437808301925050509450505050506040516020818303038152906040528051906020012060025460405160200180857effffffffffffffffffffffffffffffffffffffffffffffffffffffffffffff191681526001018473ffffffffffffffffffffffffffffffffffffffff1660601b81526014018381526020018281526020019450505050506040516020818303038152906040528051906020012060001c9050949350505050565b600080823b90506000811191505091905056fea26469706673582212208ed3455f2f32d62e4a7ff3141f5cc09cd5ab023ec1e5eaa8007363fba54bf82d64736f6c634300070600336080604052604051610a33380380610a338339818101604052604081101561002657600080fd5b81019080805190602001909291908051604051939291908464010000000082111561005057600080fd5b8382019150602082018581111561006657600080fd5b825186600182028301116401000000008211171561008357600080fd5b8083526020830192505050908051906020019080838360005b838110156100b757808201518184015260208101905061009c565b50505050905090810190601f1680156100e45780820380516001836020036101000a031916815260200191505b5060405250505060017fa3f0ad74e5423aebfd80d3ef4346578335a9a72aeaee59ff6cb3582b35133d5160001c0360001b7fa3f0ad74e5423aebfd80d3ef4346578335a9a72aeaee59ff6cb3582b35133d5060001b1461014057fe5b610150828261015760201b60201c565b50506105fc565b61016a8261031d60201b6100371760201c565b6101bf576040517f08c379a00000000000000000000000000000000000000000000000000000000081526004018080602001828103825260258152602001806109b46025913960400191505060405180910390fd5b6102528273ffffffffffffffffffffffffffffffffffffffff16635c60da1b6040518163ffffffff1660e01b815260040160206040518083038186803b15801561020857600080fd5b505afa15801561021c573d6000803e3d6000fd5b505050506040513d602081101561023257600080fd5b810190808051906020019092919050505061031d60201b6100371760201c565b6102a7576040517f08c379a00000000000000000000000000000000000000000000000000000000081526004018080602001828103825260348152602001806109ff6034913960400191505060405180910390fd5b60007fa3f0ad74e5423aebfd80d3ef4346578335a9a72aeaee59ff6cb3582b35133d5060001b9050828155600082511115610318576103166102ed61033060201b60201c565b83604051806060016040528060218152602001610993602191396103c560201b61004a1760201c565b505b505050565b600080823b905060008111915050919050565b60006103406104ff60201b60201c565b73ffffffffffffffffffffffffffffffffffffffff16635c60da1b6040518163ffffffff1660e01b815260040160206040518083038186803b15801561038557600080fd5b505afa158015610399573d6000803e3d6000fd5b505050506040513d60208110156103af57600080fd5b8101908080519060200190929190505050905090565b60606103d68461031d60201b60201c565b61042b576040517f08c379a00000000000000000000000000000000000000000000000000000000081526004018080602001828103825260268152602001806109d96026913960400191505060405180910390fd5b6000808573ffffffffffffffffffffffffffffffffffffffff16856040518082805190602001908083835b602083106104795780518252602082019150602081019050602083039250610456565b6001836020036101000a038019825116818451168082178552505050505050905001915050600060405180830381855af49150503d80600081146104d9576040519150601f19603f3d011682016040523d82523d6000602084013e6104de565b606091505b50915091506104f482828661053060201b60201c565b925050509392505050565b6000807fa3f0ad74e5423aebfd80d3ef4346578335a9a72aeaee59ff6cb3582b35133d5060001b9050805491505090565b60608315610540578290506105f5565b6000835111156105535782518084602001fd5b816040517f08c379a00000000000000000000000000000000000000000000000000000000081526004018080602001828103825283818151815260200191508051906020019080838360005b838110156105ba57808201518184015260208101905061059f565b50505050905090810190601f1680156105e75780820380516001836020036101000a031916815260200191505b509250505060405180910390fd5b9392505050565b6103888061060b6000396000f3fe6080604052366100135761001161001d565b005b61001b61001d565b005b610025610178565b61003561003061017a565b610209565b565b600080823b905060008111915050919050565b606061005584610037565b6100aa576040517f08c379a000000000000000000000000000000000000000000000000000000000815260040180806020018281038252602681526020018061032d6026913960400191505060405180910390fd5b6000808573ffffffffffffffffffffffffffffffffffffffff16856040518082805190602001908083835b602083106100f857805182526020820191506020810190506020830392506100d5565b6001836020036101000a038019825116818451168082178552505050505050905001915050600060405180830381855af49150503d8060008114610158576040519150601f19603f3d011682016040523d82523d6000602084013e61015d565b606091505b509150915061016d82828661022f565b925050509392505050565b565b60006101846102fb565b73ffffffffffffffffffffffffffffffffffffffff16635c60da1b6040518163ffffffff1660e01b815260040160206040518083038186803b1580156101c957600080fd5b505afa1580156101dd573d6000803e3d6000fd5b505050506040513d60208110156101f357600080fd5b8101908080519060200190929190505050905090565b3660008037600080366000845af43d6000803e806000811461022a573d6000f35b3d6000fd5b6060831561023f578290506102f4565b6000835111156102525782518084602001fd5b816040517f08c379a00000000000000000000000000000000000000000000000000000000081526004018080602001828103825283818151815260200191508051906020019080838360005b838110156102b957808201518184015260208101905061029e565b50505050905090810190601f1680156102e65780820380516001836020036101000a031916815260200191505b509250505060405180910390fd5b9392505050565b6000807fa3f0ad74e5423aebfd80d3ef4346578335a9a72aeaee59ff6cb3582b35133d5060001b905080549150509056fe416464726573733a2064656c65676174652063616c6c20746f206e6f6e2d636f6e7472616374a26469706673582212206be978e30c6f1e25504970176acd6edd9fc4ec24da29ac2cd22352db8f21dde164736f6c63430007060033426561636f6e50726f78793a2066756e6374696f6e2063616c6c206661696c6564426561636f6e50726f78793a20626561636f6e206973206e6f74206120636f6e7472616374416464726573733a2064656c65676174652063616c6c20746f206e6f6e2d636f6e7472616374426561636f6e50726f78793a20626561636f6e20696d706c656d656e746174696f6e206973206e6f74206120636f6e7472616374426561636f6e50726f7879466163746f72795632235f736574496d706c656d656e746174696f6e3a20494e56414c49445f494d504c454d454e544154494f4e",
					"opcodes": "PUSH1 0x80 PUSH1 0x40 MSTORE CALLVALUE DUP1 ISZERO PUSH2 0x10 JUMPI PUSH1 0x0 DUP1 REVERT JUMPDEST POP PUSH1 0x40 MLOAD PUSH3 0x1337 CODESIZE SUB DUP1 PUSH3 0x1337 DUP4 CODECOPY DUP2 DUP2 ADD PUSH1 0x40 MSTORE PUSH1 0x20 DUP2 LT ISZERO PUSH2 0x35 JUMPI PUSH1 0x0 DUP1 REVERT JUMPDEST DUP2 ADD SWAP1 DUP1 DUP1 MLOAD SWAP1 PUSH1 0x20 ADD SWAP1 SWAP3 SWAP2 SWAP1 POP POP POP PUSH2 0x55 DUP2 PUSH2 0x5B PUSH1 0x20 SHL PUSH1 0x20 SHR JUMP JUMPDEST POP PUSH2 0x4CA JUMP JUMPDEST PUSH1 0x0 PUSH20 0xFFFFFFFFFFFFFFFFFFFFFFFFFFFFFFFFFFFFFFFF AND DUP2 PUSH20 0xFFFFFFFFFFFFFFFFFFFFFFFFFFFFFFFFFFFFFFFF AND EQ ISZERO DUP1 ISZERO PUSH2 0xBD JUMPI POP PUSH2 0xBC DUP2 PUSH20 0xFFFFFFFFFFFFFFFFFFFFFFFFFFFFFFFFFFFFFFFF AND PUSH2 0x3FE PUSH1 0x20 SHL PUSH2 0x3A2 OR PUSH1 0x20 SHR JUMP JUMPDEST JUMPDEST PUSH2 0x113 JUMPI PUSH1 0x40 MLOAD PUSH32 0x8C379A000000000000000000000000000000000000000000000000000000000 DUP2 MSTORE PUSH1 0x4 ADD DUP1 DUP1 PUSH1 0x20 ADD DUP3 DUP2 SUB DUP3 MSTORE PUSH1 0x3F DUP2 MSTORE PUSH1 0x20 ADD DUP1 PUSH3 0x12F8 PUSH1 0x3F SWAP2 CODECOPY PUSH1 0x40 ADD SWAP2 POP POP PUSH1 0x40 MLOAD DUP1 SWAP2 SUB SWAP1 REVERT JUMPDEST PUSH1 0x40 MLOAD DUP1 PUSH1 0x20 ADD PUSH2 0x123 SWAP1 PUSH2 0x411 JUMP JUMPDEST PUSH1 0x20 DUP3 ADD DUP2 SUB DUP3 MSTORE PUSH1 0x1F NOT PUSH1 0x1F DUP3 ADD AND PUSH1 0x40 MSTORE POP DUP2 PUSH1 0x40 MLOAD PUSH1 0x20 ADD DUP1 DUP3 PUSH20 0xFFFFFFFFFFFFFFFFFFFFFFFFFFFFFFFFFFFFFFFF AND DUP2 MSTORE PUSH1 0x20 ADD DUP1 PUSH1 0x20 ADD DUP3 DUP2 SUB DUP3 MSTORE PUSH1 0x0 DUP2 MSTORE PUSH1 0x20 ADD SWAP3 POP POP POP PUSH1 0x40 MLOAD PUSH1 0x20 DUP2 DUP4 SUB SUB DUP2 MSTORE SWAP1 PUSH1 0x40 MSTORE PUSH1 0x40 MLOAD PUSH1 0x20 ADD DUP1 DUP4 DUP1 MLOAD SWAP1 PUSH1 0x20 ADD SWAP1 DUP1 DUP4 DUP4 JUMPDEST PUSH1 0x20 DUP4 LT PUSH2 0x1B4 JUMPI DUP1 MLOAD DUP3 MSTORE PUSH1 0x20 DUP3 ADD SWAP2 POP PUSH1 0x20 DUP2 ADD SWAP1 POP PUSH1 0x20 DUP4 SUB SWAP3 POP PUSH2 0x191 JUMP JUMPDEST PUSH1 0x1 DUP4 PUSH1 0x20 SUB PUSH2 0x100 EXP SUB DUP1 NOT DUP3 MLOAD AND DUP2 DUP5 MLOAD AND DUP1 DUP3 OR DUP6 MSTORE POP POP POP POP POP POP SWAP1 POP ADD DUP3 DUP1 MLOAD SWAP1 PUSH1 0x20 ADD SWAP1 DUP1 DUP4 DUP4 JUMPDEST PUSH1 0x20 DUP4 LT PUSH2 0x205 JUMPI DUP1 MLOAD DUP3 MSTORE PUSH1 0x20 DUP3 ADD SWAP2 POP PUSH1 0x20 DUP2 ADD SWAP1 POP PUSH1 0x20 DUP4 SUB SWAP3 POP PUSH2 0x1E2 JUMP JUMPDEST PUSH1 0x1 DUP4 PUSH1 0x20 SUB PUSH2 0x100 EXP SUB DUP1 NOT DUP3 MLOAD AND DUP2 DUP5 MLOAD AND DUP1 DUP3 OR DUP6 MSTORE POP POP POP POP POP POP SWAP1 POP ADD SWAP3 POP POP POP PUSH1 0x40 MLOAD PUSH1 0x20 DUP2 DUP4 SUB SUB DUP2 MSTORE SWAP1 PUSH1 0x40 MSTORE PUSH1 0x1 SWAP1 DUP1 MLOAD SWAP1 PUSH1 0x20 ADD SWAP1 PUSH2 0x24F SWAP3 SWAP2 SWAP1 PUSH2 0x41F JUMP JUMPDEST POP PUSH1 0x1 PUSH1 0x40 MLOAD DUP1 DUP3 DUP1 SLOAD PUSH1 0x1 DUP2 PUSH1 0x1 AND ISZERO PUSH2 0x100 MUL SUB AND PUSH1 0x2 SWAP1 DIV DUP1 ISZERO PUSH2 0x2AD JUMPI DUP1 PUSH1 0x1F LT PUSH2 0x28B JUMPI PUSH2 0x100 DUP1 DUP4 SLOAD DIV MUL DUP4 MSTORE SWAP2 DUP3 ADD SWAP2 PUSH2 0x2AD JUMP JUMPDEST DUP3 ADD SWAP2 SWAP1 PUSH1 0x0 MSTORE PUSH1 0x20 PUSH1 0x0 KECCAK256 SWAP1 JUMPDEST DUP2 SLOAD DUP2 MSTORE SWAP1 PUSH1 0x1 ADD SWAP1 PUSH1 0x20 ADD DUP1 DUP4 GT PUSH2 0x299 JUMPI JUMPDEST POP POP SWAP2 POP POP PUSH1 0x40 MLOAD DUP1 SWAP2 SUB SWAP1 KECCAK256 PUSH1 0x2 DUP2 SWAP1 SSTORE POP DUP1 PUSH1 0x0 DUP1 PUSH2 0x100 EXP DUP2 SLOAD DUP2 PUSH20 0xFFFFFFFFFFFFFFFFFFFFFFFFFFFFFFFFFFFFFFFF MUL NOT AND SWAP1 DUP4 PUSH20 0xFFFFFFFFFFFFFFFFFFFFFFFFFFFFFFFFFFFFFFFF AND MUL OR SWAP1 SSTORE POP PUSH1 0x0 DUP1 SLOAD SWAP1 PUSH2 0x100 EXP SWAP1 DIV PUSH20 0xFFFFFFFFFFFFFFFFFFFFFFFFFFFFFFFFFFFFFFFF AND PUSH20 0xFFFFFFFFFFFFFFFFFFFFFFFFFFFFFFFFFFFFFFFF AND PUSH32 0x7ACBA6E3C47815C1B41B230650F7ED720D66BDC6CA45468C4A6CDB9425132024 PUSH1 0x2 SLOAD PUSH1 0x1 PUSH1 0x40 MLOAD DUP1 DUP4 DUP2 MSTORE PUSH1 0x20 ADD DUP1 PUSH1 0x20 ADD DUP3 DUP2 SUB DUP3 MSTORE DUP4 DUP2 DUP2 SLOAD PUSH1 0x1 DUP2 PUSH1 0x1 AND ISZERO PUSH2 0x100 MUL SUB AND PUSH1 0x2 SWAP1 DIV DUP2 MSTORE PUSH1 0x20 ADD SWAP2 POP DUP1 SLOAD PUSH1 0x1 DUP2 PUSH1 0x1 AND ISZERO PUSH2 0x100 MUL SUB AND PUSH1 0x2 SWAP1 DIV DUP1 ISZERO PUSH2 0x3EC JUMPI DUP1 PUSH1 0x1F LT PUSH2 0x3C1 JUMPI PUSH2 0x100 DUP1 DUP4 SLOAD DIV MUL DUP4 MSTORE SWAP2 PUSH1 0x20 ADD SWAP2 PUSH2 0x3EC JUMP JUMPDEST DUP3 ADD SWAP2 SWAP1 PUSH1 0x0 MSTORE PUSH1 0x20 PUSH1 0x0 KECCAK256 SWAP1 JUMPDEST DUP2 SLOAD DUP2 MSTORE SWAP1 PUSH1 0x1 ADD SWAP1 PUSH1 0x20 ADD DUP1 DUP4 GT PUSH2 0x3CF JUMPI DUP3 SWAP1 SUB PUSH1 0x1F AND DUP3 ADD SWAP2 JUMPDEST POP POP SWAP4 POP POP POP POP PUSH1 0x40 MLOAD DUP1 SWAP2 SUB SWAP1 LOG2 POP JUMP JUMPDEST PUSH1 0x0 DUP1 DUP3 EXTCODESIZE SWAP1 POP PUSH1 0x0 DUP2 GT SWAP2 POP POP SWAP2 SWAP1 POP JUMP JUMPDEST PUSH2 0xA33 DUP1 PUSH3 0x8C5 DUP4 CODECOPY ADD SWAP1 JUMP JUMPDEST DUP3 DUP1 SLOAD PUSH1 0x1 DUP2 PUSH1 0x1 AND ISZERO PUSH2 0x100 MUL SUB AND PUSH1 0x2 SWAP1 DIV SWAP1 PUSH1 0x0 MSTORE PUSH1 0x20 PUSH1 0x0 KECCAK256 SWAP1 PUSH1 0x1F ADD PUSH1 0x20 SWAP1 DIV DUP2 ADD SWAP3 DUP3 PUSH2 0x455 JUMPI PUSH1 0x0 DUP6 SSTORE PUSH2 0x49C JUMP JUMPDEST DUP3 PUSH1 0x1F LT PUSH2 0x46E JUMPI DUP1 MLOAD PUSH1 0xFF NOT AND DUP4 DUP1 ADD OR DUP6 SSTORE PUSH2 0x49C JUMP JUMPDEST DUP3 DUP1 ADD PUSH1 0x1 ADD DUP6 SSTORE DUP3 ISZERO PUSH2 0x49C JUMPI SWAP2 DUP3 ADD JUMPDEST DUP3 DUP2 GT ISZERO PUSH2 0x49B JUMPI DUP3 MLOAD DUP3 SSTORE SWAP2 PUSH1 0x20 ADD SWAP2 SWAP1 PUSH1 0x1 ADD SWAP1 PUSH2 0x480 JUMP JUMPDEST JUMPDEST POP SWAP1 POP PUSH2 0x4A9 SWAP2 SWAP1 PUSH2 0x4AD JUMP JUMPDEST POP SWAP1 JUMP JUMPDEST JUMPDEST DUP1 DUP3 GT ISZERO PUSH2 0x4C6 JUMPI PUSH1 0x0 DUP2 PUSH1 0x0 SWAP1 SSTORE POP PUSH1 0x1 ADD PUSH2 0x4AE JUMP JUMPDEST POP SWAP1 JUMP JUMPDEST PUSH2 0x3EB DUP1 PUSH3 0x4DA PUSH1 0x0 CODECOPY PUSH1 0x0 RETURN INVALID PUSH1 0x80 PUSH1 0x40 MSTORE CALLVALUE DUP1 ISZERO PUSH2 0x10 JUMPI PUSH1 0x0 DUP1 REVERT JUMPDEST POP PUSH1 0x4 CALLDATASIZE LT PUSH2 0x4C JUMPI PUSH1 0x0 CALLDATALOAD PUSH1 0xE0 SHR DUP1 PUSH4 0x18EDAAF2 EQ PUSH2 0x51 JUMPI DUP1 PUSH4 0x24C12BF6 EQ PUSH2 0x6F JUMPI DUP1 PUSH4 0x5C60DA1B EQ PUSH2 0xF2 JUMPI DUP1 PUSH4 0xAF222399 EQ PUSH2 0x126 JUMPI JUMPDEST PUSH1 0x0 DUP1 REVERT JUMPDEST PUSH2 0x59 PUSH2 0x1F3 JUMP JUMPDEST PUSH1 0x40 MLOAD DUP1 DUP3 DUP2 MSTORE PUSH1 0x20 ADD SWAP2 POP POP PUSH1 0x40 MLOAD DUP1 SWAP2 SUB SWAP1 RETURN JUMPDEST PUSH2 0x77 PUSH2 0x1F9 JUMP JUMPDEST PUSH1 0x40 MLOAD DUP1 DUP1 PUSH1 0x20 ADD DUP3 DUP2 SUB DUP3 MSTORE DUP4 DUP2 DUP2 MLOAD DUP2 MSTORE PUSH1 0x20 ADD SWAP2 POP DUP1 MLOAD SWAP1 PUSH1 0x20 ADD SWAP1 DUP1 DUP4 DUP4 PUSH1 0x0 JUMPDEST DUP4 DUP2 LT ISZERO PUSH2 0xB7 JUMPI DUP1 DUP3 ADD MLOAD DUP2 DUP5 ADD MSTORE PUSH1 0x20 DUP2 ADD SWAP1 POP PUSH2 0x9C JUMP JUMPDEST POP POP POP POP SWAP1 POP SWAP1 DUP2 ADD SWAP1 PUSH1 0x1F AND DUP1 ISZERO PUSH2 0xE4 JUMPI DUP1 DUP3 SUB DUP1 MLOAD PUSH1 0x1 DUP4 PUSH1 0x20 SUB PUSH2 0x100 EXP SUB NOT AND DUP2 MSTORE PUSH1 0x20 ADD SWAP2 POP JUMPDEST POP SWAP3 POP POP POP PUSH1 0x40 MLOAD DUP1 SWAP2 SUB SWAP1 RETURN JUMPDEST PUSH2 0xFA PUSH2 0x297 JUMP JUMPDEST PUSH1 0x40 MLOAD DUP1 DUP3 PUSH20 0xFFFFFFFFFFFFFFFFFFFFFFFFFFFFFFFFFFFFFFFF AND DUP2 MSTORE PUSH1 0x20 ADD SWAP2 POP POP PUSH1 0x40 MLOAD DUP1 SWAP2 SUB SWAP1 RETURN JUMPDEST PUSH2 0x1C7 PUSH1 0x4 DUP1 CALLDATASIZE SUB PUSH1 0x60 DUP2 LT ISZERO PUSH2 0x13C JUMPI PUSH1 0x0 DUP1 REVERT JUMPDEST DUP2 ADD SWAP1 DUP1 DUP1 CALLDATALOAD SWAP1 PUSH1 0x20 ADD SWAP1 SWAP3 SWAP2 SWAP1 DUP1 CALLDATALOAD PUSH20 0xFFFFFFFFFFFFFFFFFFFFFFFFFFFFFFFFFFFFFFFF AND SWAP1 PUSH1 0x20 ADD SWAP1 SWAP3 SWAP2 SWAP1 DUP1 CALLDATALOAD SWAP1 PUSH1 0x20 ADD SWAP1 PUSH5 0x100000000 DUP2 GT ISZERO PUSH2 0x183 JUMPI PUSH1 0x0 DUP1 REVERT JUMPDEST DUP3 ADD DUP4 PUSH1 0x20 DUP3 ADD GT ISZERO PUSH2 0x195 JUMPI PUSH1 0x0 DUP1 REVERT JUMPDEST DUP1 CALLDATALOAD SWAP1 PUSH1 0x20 ADD SWAP2 DUP5 PUSH1 0x1 DUP4 MUL DUP5 ADD GT PUSH5 0x100000000 DUP4 GT OR ISZERO PUSH2 0x1B7 JUMPI PUSH1 0x0 DUP1 REVERT JUMPDEST SWAP1 SWAP2 SWAP3 SWAP4 SWAP2 SWAP3 SWAP4 SWAP1 POP POP POP PUSH2 0x2BB JUMP JUMPDEST PUSH1 0x40 MLOAD DUP1 DUP3 PUSH20 0xFFFFFFFFFFFFFFFFFFFFFFFFFFFFFFFFFFFFFFFF AND DUP2 MSTORE PUSH1 0x20 ADD SWAP2 POP POP PUSH1 0x40 MLOAD DUP1 SWAP2 SUB SWAP1 RETURN JUMPDEST PUSH1 0x2 SLOAD DUP2 JUMP JUMPDEST PUSH1 0x1 DUP1 SLOAD PUSH1 0x1 DUP2 PUSH1 0x1 AND ISZERO PUSH2 0x100 MUL SUB AND PUSH1 0x2 SWAP1 DIV DUP1 PUSH1 0x1F ADD PUSH1 0x20 DUP1 SWAP2 DIV MUL PUSH1 0x20 ADD PUSH1 0x40 MLOAD SWAP1 DUP2 ADD PUSH1 0x40 MSTORE DUP1 SWAP3 SWAP2 SWAP1 DUP2 DUP2 MSTORE PUSH1 0x20 ADD DUP3 DUP1 SLOAD PUSH1 0x1 DUP2 PUSH1 0x1 AND ISZERO PUSH2 0x100 MUL SUB AND PUSH1 0x2 SWAP1 DIV DUP1 ISZERO PUSH2 0x28F JUMPI DUP1 PUSH1 0x1F LT PUSH2 0x264 JUMPI PUSH2 0x100 DUP1 DUP4 SLOAD DIV MUL DUP4 MSTORE SWAP2 PUSH1 0x20 ADD SWAP2 PUSH2 0x28F JUMP JUMPDEST DUP3 ADD SWAP2 SWAP1 PUSH1 0x0 MSTORE PUSH1 0x20 PUSH1 0x0 KECCAK256 SWAP1 JUMPDEST DUP2 SLOAD DUP2 MSTORE SWAP1 PUSH1 0x1 ADD SWAP1 PUSH1 0x20 ADD DUP1 DUP4 GT PUSH2 0x272 JUMPI DUP3 SWAP1 SUB PUSH1 0x1F AND DUP3 ADD SWAP2 JUMPDEST POP POP POP POP POP DUP2 JUMP JUMPDEST PUSH1 0x0 DUP1 SLOAD SWAP1 PUSH2 0x100 EXP SWAP1 DIV PUSH20 0xFFFFFFFFFFFFFFFFFFFFFFFFFFFFFFFFFFFFFFFF AND DUP2 JUMP JUMPDEST PUSH1 0x0 PUSH1 0xFF PUSH1 0xF8 SHL ADDRESS DUP7 DUP7 DUP7 DUP7 PUSH1 0x40 MLOAD PUSH1 0x20 ADD DUP1 DUP6 DUP2 MSTORE PUSH1 0x20 ADD DUP5 PUSH20 0xFFFFFFFFFFFFFFFFFFFFFFFFFFFFFFFFFFFFFFFF AND PUSH1 0x60 SHL DUP2 MSTORE PUSH1 0x14 ADD DUP4 DUP4 DUP1 DUP3 DUP5 CALLDATACOPY DUP1 DUP4 ADD SWAP3 POP POP POP SWAP5 POP POP POP POP POP PUSH1 0x40 MLOAD PUSH1 0x20 DUP2 DUP4 SUB SUB DUP2 MSTORE SWAP1 PUSH1 0x40 MSTORE DUP1 MLOAD SWAP1 PUSH1 0x20 ADD KECCAK256 PUSH1 0x2 SLOAD PUSH1 0x40 MLOAD PUSH1 0x20 ADD DUP1 DUP6 PUSH31 0xFFFFFFFFFFFFFFFFFFFFFFFFFFFFFFFFFFFFFFFFFFFFFFFFFFFFFFFFFFFFFF NOT AND DUP2 MSTORE PUSH1 0x1 ADD DUP5 PUSH20 0xFFFFFFFFFFFFFFFFFFFFFFFFFFFFFFFFFFFFFFFF AND PUSH1 0x60 SHL DUP2 MSTORE PUSH1 0x14 ADD DUP4 DUP2 MSTORE PUSH1 0x20 ADD DUP3 DUP2 MSTORE PUSH1 0x20 ADD SWAP5 POP POP POP POP POP PUSH1 0x40 MLOAD PUSH1 0x20 DUP2 DUP4 SUB SUB DUP2 MSTORE SWAP1 PUSH1 0x40 MSTORE DUP1 MLOAD SWAP1 PUSH1 0x20 ADD KECCAK256 PUSH1 0x0 SHR SWAP1 POP SWAP5 SWAP4 POP POP POP POP JUMP JUMPDEST PUSH1 0x0 DUP1 DUP3 EXTCODESIZE SWAP1 POP PUSH1 0x0 DUP2 GT SWAP2 POP POP SWAP2 SWAP1 POP JUMP INVALID LOG2 PUSH5 0x6970667358 0x22 SLT KECCAK256 DUP15 0xD3 GASLIMIT 0x5F 0x2F ORIGIN 0xD6 0x2E 0x4A PUSH32 0xF3141F5CC09CD5AB023EC1E5EAA8007363FBA54BF82D64736F6C634300070600 CALLER PUSH1 0x80 PUSH1 0x40 MSTORE PUSH1 0x40 MLOAD PUSH2 0xA33 CODESIZE SUB DUP1 PUSH2 0xA33 DUP4 CODECOPY DUP2 DUP2 ADD PUSH1 0x40 MSTORE PUSH1 0x40 DUP2 LT ISZERO PUSH2 0x26 JUMPI PUSH1 0x0 DUP1 REVERT JUMPDEST DUP2 ADD SWAP1 DUP1 DUP1 MLOAD SWAP1 PUSH1 0x20 ADD SWAP1 SWAP3 SWAP2 SWAP1 DUP1 MLOAD PUSH1 0x40 MLOAD SWAP4 SWAP3 SWAP2 SWAP1 DUP5 PUSH5 0x100000000 DUP3 GT ISZERO PUSH2 0x50 JUMPI PUSH1 0x0 DUP1 REVERT JUMPDEST DUP4 DUP3 ADD SWAP2 POP PUSH1 0x20 DUP3 ADD DUP6 DUP2 GT ISZERO PUSH2 0x66 JUMPI PUSH1 0x0 DUP1 REVERT JUMPDEST DUP3 MLOAD DUP7 PUSH1 0x1 DUP3 MUL DUP4 ADD GT PUSH5 0x100000000 DUP3 GT OR ISZERO PUSH2 0x83 JUMPI PUSH1 0x0 DUP1 REVERT JUMPDEST DUP1 DUP4 MSTORE PUSH1 0x20 DUP4 ADD SWAP3 POP POP POP SWAP1 DUP1 MLOAD SWAP1 PUSH1 0x20 ADD SWAP1 DUP1 DUP4 DUP4 PUSH1 0x0 JUMPDEST DUP4 DUP2 LT ISZERO PUSH2 0xB7 JUMPI DUP1 DUP3 ADD MLOAD DUP2 DUP5 ADD MSTORE PUSH1 0x20 DUP2 ADD SWAP1 POP PUSH2 0x9C JUMP JUMPDEST POP POP POP POP SWAP1 POP SWAP1 DUP2 ADD SWAP1 PUSH1 0x1F AND DUP1 ISZERO PUSH2 0xE4 JUMPI DUP1 DUP3 SUB DUP1 MLOAD PUSH1 0x1 DUP4 PUSH1 0x20 SUB PUSH2 0x100 EXP SUB NOT AND DUP2 MSTORE PUSH1 0x20 ADD SWAP2 POP JUMPDEST POP PUSH1 0x40 MSTORE POP POP POP PUSH1 0x1 PUSH32 0xA3F0AD74E5423AEBFD80D3EF4346578335A9A72AEAEE59FF6CB3582B35133D51 PUSH1 0x0 SHR SUB PUSH1 0x0 SHL PUSH32 0xA3F0AD74E5423AEBFD80D3EF4346578335A9A72AEAEE59FF6CB3582B35133D50 PUSH1 0x0 SHL EQ PUSH2 0x140 JUMPI INVALID JUMPDEST PUSH2 0x150 DUP3 DUP3 PUSH2 0x157 PUSH1 0x20 SHL PUSH1 0x20 SHR JUMP JUMPDEST POP POP PUSH2 0x5FC JUMP JUMPDEST PUSH2 0x16A DUP3 PUSH2 0x31D PUSH1 0x20 SHL PUSH2 0x37 OR PUSH1 0x20 SHR JUMP JUMPDEST PUSH2 0x1BF JUMPI PUSH1 0x40 MLOAD PUSH32 0x8C379A000000000000000000000000000000000000000000000000000000000 DUP2 MSTORE PUSH1 0x4 ADD DUP1 DUP1 PUSH1 0x20 ADD DUP3 DUP2 SUB DUP3 MSTORE PUSH1 0x25 DUP2 MSTORE PUSH1 0x20 ADD DUP1 PUSH2 0x9B4 PUSH1 0x25 SWAP2 CODECOPY PUSH1 0x40 ADD SWAP2 POP POP PUSH1 0x40 MLOAD DUP1 SWAP2 SUB SWAP1 REVERT JUMPDEST PUSH2 0x252 DUP3 PUSH20 0xFFFFFFFFFFFFFFFFFFFFFFFFFFFFFFFFFFFFFFFF AND PUSH4 0x5C60DA1B PUSH1 0x40 MLOAD DUP2 PUSH4 0xFFFFFFFF AND PUSH1 0xE0 SHL DUP2 MSTORE PUSH1 0x4 ADD PUSH1 0x20 PUSH1 0x40 MLOAD DUP1 DUP4 SUB DUP2 DUP7 DUP1 EXTCODESIZE ISZERO DUP1 ISZERO PUSH2 0x208 JUMPI PUSH1 0x0 DUP1 REVERT JUMPDEST POP GAS STATICCALL ISZERO DUP1 ISZERO PUSH2 0x21C JUMPI RETURNDATASIZE PUSH1 0x0 DUP1 RETURNDATACOPY RETURNDATASIZE PUSH1 0x0 REVERT JUMPDEST POP POP POP POP PUSH1 0x40 MLOAD RETURNDATASIZE PUSH1 0x20 DUP2 LT ISZERO PUSH2 0x232 JUMPI PUSH1 0x0 DUP1 REVERT JUMPDEST DUP2 ADD SWAP1 DUP1 DUP1 MLOAD SWAP1 PUSH1 0x20 ADD SWAP1 SWAP3 SWAP2 SWAP1 POP POP POP PUSH2 0x31D PUSH1 0x20 SHL PUSH2 0x37 OR PUSH1 0x20 SHR JUMP JUMPDEST PUSH2 0x2A7 JUMPI PUSH1 0x40 MLOAD PUSH32 0x8C379A000000000000000000000000000000000000000000000000000000000 DUP2 MSTORE PUSH1 0x4 ADD DUP1 DUP1 PUSH1 0x20 ADD DUP3 DUP2 SUB DUP3 MSTORE PUSH1 0x34 DUP2 MSTORE PUSH1 0x20 ADD DUP1 PUSH2 0x9FF PUSH1 0x34 SWAP2 CODECOPY PUSH1 0x40 ADD SWAP2 POP POP PUSH1 0x40 MLOAD DUP1 SWAP2 SUB SWAP1 REVERT JUMPDEST PUSH1 0x0 PUSH32 0xA3F0AD74E5423AEBFD80D3EF4346578335A9A72AEAEE59FF6CB3582B35133D50 PUSH1 0x0 SHL SWAP1 POP DUP3 DUP2 SSTORE PUSH1 0x0 DUP3 MLOAD GT ISZERO PUSH2 0x318 JUMPI PUSH2 0x316 PUSH2 0x2ED PUSH2 0x330 PUSH1 0x20 SHL PUSH1 0x20 SHR JUMP JUMPDEST DUP4 PUSH1 0x40 MLOAD DUP1 PUSH1 0x60 ADD PUSH1 0x40 MSTORE DUP1 PUSH1 0x21 DUP2 MSTORE PUSH1 0x20 ADD PUSH2 0x993 PUSH1 0x21 SWAP2 CODECOPY PUSH2 0x3C5 PUSH1 0x20 SHL PUSH2 0x4A OR PUSH1 0x20 SHR JUMP JUMPDEST POP JUMPDEST POP POP POP JUMP JUMPDEST PUSH1 0x0 DUP1 DUP3 EXTCODESIZE SWAP1 POP PUSH1 0x0 DUP2 GT SWAP2 POP POP SWAP2 SWAP1 POP JUMP JUMPDEST PUSH1 0x0 PUSH2 0x340 PUSH2 0x4FF PUSH1 0x20 SHL PUSH1 0x20 SHR JUMP JUMPDEST PUSH20 0xFFFFFFFFFFFFFFFFFFFFFFFFFFFFFFFFFFFFFFFF AND PUSH4 0x5C60DA1B PUSH1 0x40 MLOAD DUP2 PUSH4 0xFFFFFFFF AND PUSH1 0xE0 SHL DUP2 MSTORE PUSH1 0x4 ADD PUSH1 0x20 PUSH1 0x40 MLOAD DUP1 DUP4 SUB DUP2 DUP7 DUP1 EXTCODESIZE ISZERO DUP1 ISZERO PUSH2 0x385 JUMPI PUSH1 0x0 DUP1 REVERT JUMPDEST POP GAS STATICCALL ISZERO DUP1 ISZERO PUSH2 0x399 JUMPI RETURNDATASIZE PUSH1 0x0 DUP1 RETURNDATACOPY RETURNDATASIZE PUSH1 0x0 REVERT JUMPDEST POP POP POP POP PUSH1 0x40 MLOAD RETURNDATASIZE PUSH1 0x20 DUP2 LT ISZERO PUSH2 0x3AF JUMPI PUSH1 0x0 DUP1 REVERT JUMPDEST DUP2 ADD SWAP1 DUP1 DUP1 MLOAD SWAP1 PUSH1 0x20 ADD SWAP1 SWAP3 SWAP2 SWAP1 POP POP POP SWAP1 POP SWAP1 JUMP JUMPDEST PUSH1 0x60 PUSH2 0x3D6 DUP5 PUSH2 0x31D PUSH1 0x20 SHL PUSH1 0x20 SHR JUMP JUMPDEST PUSH2 0x42B JUMPI PUSH1 0x40 MLOAD PUSH32 0x8C379A000000000000000000000000000000000000000000000000000000000 DUP2 MSTORE PUSH1 0x4 ADD DUP1 DUP1 PUSH1 0x20 ADD DUP3 DUP2 SUB DUP3 MSTORE PUSH1 0x26 DUP2 MSTORE PUSH1 0x20 ADD DUP1 PUSH2 0x9D9 PUSH1 0x26 SWAP2 CODECOPY PUSH1 0x40 ADD SWAP2 POP POP PUSH1 0x40 MLOAD DUP1 SWAP2 SUB SWAP1 REVERT JUMPDEST PUSH1 0x0 DUP1 DUP6 PUSH20 0xFFFFFFFFFFFFFFFFFFFFFFFFFFFFFFFFFFFFFFFF AND DUP6 PUSH1 0x40 MLOAD DUP1 DUP3 DUP1 MLOAD SWAP1 PUSH1 0x20 ADD SWAP1 DUP1 DUP4 DUP4 JUMPDEST PUSH1 0x20 DUP4 LT PUSH2 0x479 JUMPI DUP1 MLOAD DUP3 MSTORE PUSH1 0x20 DUP3 ADD SWAP2 POP PUSH1 0x20 DUP2 ADD SWAP1 POP PUSH1 0x20 DUP4 SUB SWAP3 POP PUSH2 0x456 JUMP JUMPDEST PUSH1 0x1 DUP4 PUSH1 0x20 SUB PUSH2 0x100 EXP SUB DUP1 NOT DUP3 MLOAD AND DUP2 DUP5 MLOAD AND DUP1 DUP3 OR DUP6 MSTORE POP POP POP POP POP POP SWAP1 POP ADD SWAP2 POP POP PUSH1 0x0 PUSH1 0x40 MLOAD DUP1 DUP4 SUB DUP2 DUP6 GAS DELEGATECALL SWAP2 POP POP RETURNDATASIZE DUP1 PUSH1 0x0 DUP2 EQ PUSH2 0x4D9 JUMPI PUSH1 0x40 MLOAD SWAP2 POP PUSH1 0x1F NOT PUSH1 0x3F RETURNDATASIZE ADD AND DUP3 ADD PUSH1 0x40 MSTORE RETURNDATASIZE DUP3 MSTORE RETURNDATASIZE PUSH1 0x0 PUSH1 0x20 DUP5 ADD RETURNDATACOPY PUSH2 0x4DE JUMP JUMPDEST PUSH1 0x60 SWAP2 POP JUMPDEST POP SWAP2 POP SWAP2 POP PUSH2 0x4F4 DUP3 DUP3 DUP7 PUSH2 0x530 PUSH1 0x20 SHL PUSH1 0x20 SHR JUMP JUMPDEST SWAP3 POP POP POP SWAP4 SWAP3 POP POP POP JUMP JUMPDEST PUSH1 0x0 DUP1 PUSH32 0xA3F0AD74E5423AEBFD80D3EF4346578335A9A72AEAEE59FF6CB3582B35133D50 PUSH1 0x0 SHL SWAP1 POP DUP1 SLOAD SWAP2 POP POP SWAP1 JUMP JUMPDEST PUSH1 0x60 DUP4 ISZERO PUSH2 0x540 JUMPI DUP3 SWAP1 POP PUSH2 0x5F5 JUMP JUMPDEST PUSH1 0x0 DUP4 MLOAD GT ISZERO PUSH2 0x553 JUMPI DUP3 MLOAD DUP1 DUP5 PUSH1 0x20 ADD REVERT JUMPDEST DUP2 PUSH1 0x40 MLOAD PUSH32 0x8C379A000000000000000000000000000000000000000000000000000000000 DUP2 MSTORE PUSH1 0x4 ADD DUP1 DUP1 PUSH1 0x20 ADD DUP3 DUP2 SUB DUP3 MSTORE DUP4 DUP2 DUP2 MLOAD DUP2 MSTORE PUSH1 0x20 ADD SWAP2 POP DUP1 MLOAD SWAP1 PUSH1 0x20 ADD SWAP1 DUP1 DUP4 DUP4 PUSH1 0x0 JUMPDEST DUP4 DUP2 LT ISZERO PUSH2 0x5BA JUMPI DUP1 DUP3 ADD MLOAD DUP2 DUP5 ADD MSTORE PUSH1 0x20 DUP2 ADD SWAP1 POP PUSH2 0x59F JUMP JUMPDEST POP POP POP POP SWAP1 POP SWAP1 DUP2 ADD SWAP1 PUSH1 0x1F AND DUP1 ISZERO PUSH2 0x5E7 JUMPI DUP1 DUP3 SUB DUP1 MLOAD PUSH1 0x1 DUP4 PUSH1 0x20 SUB PUSH2 0x100 EXP SUB NOT AND DUP2 MSTORE PUSH1 0x20 ADD SWAP2 POP JUMPDEST POP SWAP3 POP POP POP PUSH1 0x40 MLOAD DUP1 SWAP2 SUB SWAP1 REVERT JUMPDEST SWAP4 SWAP3 POP POP POP JUMP JUMPDEST PUSH2 0x388 DUP1 PUSH2 0x60B PUSH1 0x0 CODECOPY PUSH1 0x0 RETURN INVALID PUSH1 0x80 PUSH1 0x40 MSTORE CALLDATASIZE PUSH2 0x13 JUMPI PUSH2 0x11 PUSH2 0x1D JUMP JUMPDEST STOP JUMPDEST PUSH2 0x1B PUSH2 0x1D JUMP JUMPDEST STOP JUMPDEST PUSH2 0x25 PUSH2 0x178 JUMP JUMPDEST PUSH2 0x35 PUSH2 0x30 PUSH2 0x17A JUMP JUMPDEST PUSH2 0x209 JUMP JUMPDEST JUMP JUMPDEST PUSH1 0x0 DUP1 DUP3 EXTCODESIZE SWAP1 POP PUSH1 0x0 DUP2 GT SWAP2 POP POP SWAP2 SWAP1 POP JUMP JUMPDEST PUSH1 0x60 PUSH2 0x55 DUP5 PUSH2 0x37 JUMP JUMPDEST PUSH2 0xAA JUMPI PUSH1 0x40 MLOAD PUSH32 0x8C379A000000000000000000000000000000000000000000000000000000000 DUP2 MSTORE PUSH1 0x4 ADD DUP1 DUP1 PUSH1 0x20 ADD DUP3 DUP2 SUB DUP3 MSTORE PUSH1 0x26 DUP2 MSTORE PUSH1 0x20 ADD DUP1 PUSH2 0x32D PUSH1 0x26 SWAP2 CODECOPY PUSH1 0x40 ADD SWAP2 POP POP PUSH1 0x40 MLOAD DUP1 SWAP2 SUB SWAP1 REVERT JUMPDEST PUSH1 0x0 DUP1 DUP6 PUSH20 0xFFFFFFFFFFFFFFFFFFFFFFFFFFFFFFFFFFFFFFFF AND DUP6 PUSH1 0x40 MLOAD DUP1 DUP3 DUP1 MLOAD SWAP1 PUSH1 0x20 ADD SWAP1 DUP1 DUP4 DUP4 JUMPDEST PUSH1 0x20 DUP4 LT PUSH2 0xF8 JUMPI DUP1 MLOAD DUP3 MSTORE PUSH1 0x20 DUP3 ADD SWAP2 POP PUSH1 0x20 DUP2 ADD SWAP1 POP PUSH1 0x20 DUP4 SUB SWAP3 POP PUSH2 0xD5 JUMP JUMPDEST PUSH1 0x1 DUP4 PUSH1 0x20 SUB PUSH2 0x100 EXP SUB DUP1 NOT DUP3 MLOAD AND DUP2 DUP5 MLOAD AND DUP1 DUP3 OR DUP6 MSTORE POP POP POP POP POP POP SWAP1 POP ADD SWAP2 POP POP PUSH1 0x0 PUSH1 0x40 MLOAD DUP1 DUP4 SUB DUP2 DUP6 GAS DELEGATECALL SWAP2 POP POP RETURNDATASIZE DUP1 PUSH1 0x0 DUP2 EQ PUSH2 0x158 JUMPI PUSH1 0x40 MLOAD SWAP2 POP PUSH1 0x1F NOT PUSH1 0x3F RETURNDATASIZE ADD AND DUP3 ADD PUSH1 0x40 MSTORE RETURNDATASIZE DUP3 MSTORE RETURNDATASIZE PUSH1 0x0 PUSH1 0x20 DUP5 ADD RETURNDATACOPY PUSH2 0x15D JUMP JUMPDEST PUSH1 0x60 SWAP2 POP JUMPDEST POP SWAP2 POP SWAP2 POP PUSH2 0x16D DUP3 DUP3 DUP7 PUSH2 0x22F JUMP JUMPDEST SWAP3 POP POP POP SWAP4 SWAP3 POP POP POP JUMP JUMPDEST JUMP JUMPDEST PUSH1 0x0 PUSH2 0x184 PUSH2 0x2FB JUMP JUMPDEST PUSH20 0xFFFFFFFFFFFFFFFFFFFFFFFFFFFFFFFFFFFFFFFF AND PUSH4 0x5C60DA1B PUSH1 0x40 MLOAD DUP2 PUSH4 0xFFFFFFFF AND PUSH1 0xE0 SHL DUP2 MSTORE PUSH1 0x4 ADD PUSH1 0x20 PUSH1 0x40 MLOAD DUP1 DUP4 SUB DUP2 DUP7 DUP1 EXTCODESIZE ISZERO DUP1 ISZERO PUSH2 0x1C9 JUMPI PUSH1 0x0 DUP1 REVERT JUMPDEST POP GAS STATICCALL ISZERO DUP1 ISZERO PUSH2 0x1DD JUMPI RETURNDATASIZE PUSH1 0x0 DUP1 RETURNDATACOPY RETURNDATASIZE PUSH1 0x0 REVERT JUMPDEST POP POP POP POP PUSH1 0x40 MLOAD RETURNDATASIZE PUSH1 0x20 DUP2 LT ISZERO PUSH2 0x1F3 JUMPI PUSH1 0x0 DUP1 REVERT JUMPDEST DUP2 ADD SWAP1 DUP1 DUP1 MLOAD SWAP1 PUSH1 0x20 ADD SWAP1 SWAP3 SWAP2 SWAP1 POP POP POP SWAP1 POP SWAP1 JUMP JUMPDEST CALLDATASIZE PUSH1 0x0 DUP1 CALLDATACOPY PUSH1 0x0 DUP1 CALLDATASIZE PUSH1 0x0 DUP5 GAS DELEGATECALL RETURNDATASIZE PUSH1 0x0 DUP1 RETURNDATACOPY DUP1 PUSH1 0x0 DUP2 EQ PUSH2 0x22A JUMPI RETURNDATASIZE PUSH1 0x0 RETURN JUMPDEST RETURNDATASIZE PUSH1 0x0 REVERT JUMPDEST PUSH1 0x60 DUP4 ISZERO PUSH2 0x23F JUMPI DUP3 SWAP1 POP PUSH2 0x2F4 JUMP JUMPDEST PUSH1 0x0 DUP4 MLOAD GT ISZERO PUSH2 0x252 JUMPI DUP3 MLOAD DUP1 DUP5 PUSH1 0x20 ADD REVERT JUMPDEST DUP2 PUSH1 0x40 MLOAD PUSH32 0x8C379A000000000000000000000000000000000000000000000000000000000 DUP2 MSTORE PUSH1 0x4 ADD DUP1 DUP1 PUSH1 0x20 ADD DUP3 DUP2 SUB DUP3 MSTORE DUP4 DUP2 DUP2 MLOAD DUP2 MSTORE PUSH1 0x20 ADD SWAP2 POP DUP1 MLOAD SWAP1 PUSH1 0x20 ADD SWAP1 DUP1 DUP4 DUP4 PUSH1 0x0 JUMPDEST DUP4 DUP2 LT ISZERO PUSH2 0x2B9 JUMPI DUP1 DUP3 ADD MLOAD DUP2 DUP5 ADD MSTORE PUSH1 0x20 DUP2 ADD SWAP1 POP PUSH2 0x29E JUMP JUMPDEST POP POP POP POP SWAP1 POP SWAP1 DUP2 ADD SWAP1 PUSH1 0x1F AND DUP1 ISZERO PUSH2 0x2E6 JUMPI DUP1 DUP3 SUB DUP1 MLOAD PUSH1 0x1 DUP4 PUSH1 0x20 SUB PUSH2 0x100 EXP SUB NOT AND DUP2 MSTORE PUSH1 0x20 ADD SWAP2 POP JUMPDEST POP SWAP3 POP POP POP PUSH1 0x40 MLOAD DUP1 SWAP2 SUB SWAP1 REVERT JUMPDEST SWAP4 SWAP3 POP POP POP JUMP JUMPDEST PUSH1 0x0 DUP1 PUSH32 0xA3F0AD74E5423AEBFD80D3EF4346578335A9A72AEAEE59FF6CB3582B35133D50 PUSH1 0x0 SHL SWAP1 POP DUP1 SLOAD SWAP2 POP POP SWAP1 JUMP INVALID COINBASE PUSH5 0x6472657373 GASPRICE KECCAK256 PUSH5 0x656C656761 PUSH21 0x652063616C6C20746F206E6F6E2D636F6E74726163 PUSH21 0xA26469706673582212206BE978E30C6F1E25504970 OR PUSH11 0xCD6EDD9FC4EC24DA29AC2C 0xD2 0x23 MSTORE 0xDB DUP16 0x21 0xDD 0xE1 PUSH5 0x736F6C6343 STOP SMOD MOD STOP CALLER TIMESTAMP PUSH6 0x61636F6E5072 PUSH16 0x78793A2066756E6374696F6E2063616C PUSH13 0x206661696C6564426561636F6E POP PUSH19 0x6F78793A20626561636F6E206973206E6F7420 PUSH2 0x2063 PUSH16 0x6E7472616374416464726573733A2064 PUSH6 0x6C6567617465 KECCAK256 PUSH4 0x616C6C20 PUSH21 0x6F206E6F6E2D636F6E7472616374426561636F6E50 PUSH19 0x6F78793A20626561636F6E20696D706C656D65 PUSH15 0x746174696F6E206973206E6F742061 KECCAK256 PUSH4 0x6F6E7472 PUSH2 0x6374 TIMESTAMP PUSH6 0x61636F6E5072 PUSH16 0x7879466163746F72795632235F736574 0x49 PUSH14 0x706C656D656E746174696F6E3A20 0x49 0x4E JUMP COINBASE 0x4C 0x49 DIFFICULTY 0x5F 0x49 0x4D POP 0x4C GASLIMIT 0x4D GASLIMIT 0x4E SLOAD COINBASE SLOAD 0x49 0x4F 0x4E "
				},
				"gasEstimates": {
					"creation": {
						"codeDepositCost": "200600",
						"executionCost": "infinite",
						"totalCost": "infinite"
					},
					"external": {
						"code()": "infinite",
						"codeHash()": "983",
						"getAddress(bytes32,address,bytes)": "infinite",
						"implementation()": "1066"
					},
					"internal": {
						"_createProxy(bytes32,bytes memory)": "infinite",
						"_setImplementation(address)": "infinite"
					}
				},
				"methodIdentifiers": {
					"code()": "24c12bf6",
					"codeHash()": "18edaaf2",
					"getAddress(bytes32,address,bytes)": "af222399",
					"implementation()": "5c60da1b"
				}
			},
			"storageLayout": {
				"storage": [
					{
						"astId": 471,
						"contract": "contracts/Bea.sol:BeaconProxyFactory",
						"label": "implementation",
						"offset": 0,
						"slot": "0",
						"type": "t_address"
					},
					{
						"astId": 473,
						"contract": "contracts/Bea.sol:BeaconProxyFactory",
						"label": "code",
						"offset": 0,
						"slot": "1",
						"type": "t_bytes_storage"
					},
					{
						"astId": 475,
						"contract": "contracts/Bea.sol:BeaconProxyFactory",
						"label": "codeHash",
						"offset": 0,
						"slot": "2",
						"type": "t_bytes32"
					}
				],
				"types": {
					"t_address": {
						"encoding": "inplace",
						"label": "address",
						"numberOfBytes": "20"
					},
					"t_bytes32": {
						"encoding": "inplace",
						"label": "bytes32",
						"numberOfBytes": "32"
					},
					"t_bytes_storage": {
						"encoding": "bytes",
						"label": "bytes",
						"numberOfBytes": "32"
					}
				}
			},
			"userdoc": {
				"kind": "user",
				"methods": {
					"constructor": {
						"notice": "Create the contract"
					},
					"getAddress(bytes32,address,bytes)": {
						"notice": "Get a deterministics contract address"
					}
				},
				"version": 1
			}
		}
	}
}