{
	"contracts/Committee.sol": {
		"Committee": {
			"abi": [
				{
					"inputs": [
						{
							"internalType": "address",
							"name": "_owner",
							"type": "address"
						},
						{
							"internalType": "address[]",
							"name": "_members",
							"type": "address[]"
						}
					],
					"stateMutability": "nonpayable",
					"type": "constructor"
				},
				{
					"anonymous": false,
					"inputs": [
						{
							"indexed": true,
							"internalType": "address",
							"name": "_member",
							"type": "address"
						},
						{
							"indexed": false,
							"internalType": "bool",
							"name": "_value",
							"type": "bool"
						}
					],
					"name": "MemberSet",
					"type": "event"
				},
				{
					"anonymous": false,
					"inputs": [
						{
							"indexed": true,
							"internalType": "address",
							"name": "previousOwner",
							"type": "address"
						},
						{
							"indexed": true,
							"internalType": "address",
							"name": "newOwner",
							"type": "address"
						}
					],
					"name": "OwnershipTransferred",
					"type": "event"
				},
				{
					"inputs": [
						{
							"internalType": "contract ICollectionManager",
							"name": "_collectionManager",
							"type": "address"
						},
						{
							"internalType": "address",
							"name": "_forwarder",
							"type": "address"
						},
						{
							"internalType": "address",
							"name": "_collection",
							"type": "address"
						},
						{
							"internalType": "bytes[]",
							"name": "_data",
							"type": "bytes[]"
						}
					],
					"name": "manageCollection",
					"outputs": [],
					"stateMutability": "nonpayable",
					"type": "function"
				},
				{
					"inputs": [
						{
							"internalType": "address",
							"name": "",
							"type": "address"
						}
					],
					"name": "members",
					"outputs": [
						{
							"internalType": "bool",
							"name": "",
							"type": "bool"
						}
					],
					"stateMutability": "view",
					"type": "function"
				},
				{
					"inputs": [],
					"name": "owner",
					"outputs": [
						{
							"internalType": "address",
							"name": "",
							"type": "address"
						}
					],
					"stateMutability": "view",
					"type": "function"
				},
				{
					"inputs": [],
					"name": "renounceOwnership",
					"outputs": [],
					"stateMutability": "nonpayable",
					"type": "function"
				},
				{
					"inputs": [
						{
							"internalType": "address[]",
							"name": "_members",
							"type": "address[]"
						},
						{
							"internalType": "bool[]",
							"name": "_values",
							"type": "bool[]"
						}
					],
					"name": "setMembers",
					"outputs": [],
					"stateMutability": "nonpayable",
					"type": "function"
				},
				{
					"inputs": [
						{
							"internalType": "address",
							"name": "newOwner",
							"type": "address"
						}
					],
					"name": "transferOwnership",
					"outputs": [],
					"stateMutability": "nonpayable",
					"type": "function"
				}
			],
			"devdoc": {
				"kind": "dev",
				"methods": {
					"constructor": {
						"params": {
							"_members": "- members to be added at contract creation",
							"_owner": "- owner of the contract"
						}
					},
					"manageCollection(address,address,address,bytes[])": {
						"params": {
							"_collection": "- collection to be managed",
							"_collectionManager": "- collection manager",
							"_data": "- array of calls",
							"_forwarder": "- forwarder contract owner of the collection"
						}
					},
					"owner()": {
						"details": "Returns the address of the current owner."
					},
					"renounceOwnership()": {
						"details": "Leaves the contract without owner. It will not be possible to call `onlyOwner` functions anymore. Can only be called by the current owner. NOTE: Renouncing ownership will leave the contract without an owner, thereby removing any functionality that is only available to the owner."
					},
					"setMembers(address[],bool[])": {
						"params": {
							"_members": "- members to be added",
							"_values": "- whether the members should be added or removed"
						}
					},
					"transferOwnership(address)": {
						"details": "Transfers ownership of the contract to a new account (`newOwner`). Can only be called by the current owner."
					}
				},
				"version": 1
			},
			"evm": {
				"assembly": "    /* \"contracts/Committee.sol\":15281:17267  contract Committee is OwnableInitializable {... */\n  mstore(0x40, 0x80)\n    /* \"contracts/Committee.sol\":15595:15850  constructor(address _owner, address[] memory _members) {... */\n  callvalue\n  dup1\n  iszero\n  tag_1\n  jumpi\n  0x00\n  dup1\n  revert\ntag_1:\n  pop\n  mload(0x40)\n  sub(codesize, bytecodeSize)\n  dup1\n  bytecodeSize\n  dup4\n  codecopy\n  dup2\n  dup2\n  add\n  0x40\n  mstore\n  dup2\n  add\n  swap1\n  tag_2\n  swap2\n  swap1\n  tag_3\n  jump\t// in\ntag_2:\n    /* \"contracts/Committee.sol\":15684:15698  _initOwnable() */\n  tag_6\n    /* \"contracts/Committee.sol\":15684:15696  _initOwnable */\n  shl(0x20, tag_7)\n    /* \"contracts/Committee.sol\":15684:15698  _initOwnable() */\n  0x20\n  shr\n  jump\t// in\ntag_6:\n    /* \"contracts/Committee.sol\":15708:15733  transferOwnership(_owner) */\n  tag_8\n    /* \"contracts/Committee.sol\":15726:15732  _owner */\n  dup3\n    /* \"contracts/Committee.sol\":15708:15725  transferOwnership */\n  shl(0x20, tag_9)\n    /* \"contracts/Committee.sol\":15708:15733  transferOwnership(_owner) */\n  0x20\n  shr\n  jump\t// in\ntag_8:\n    /* \"contracts/Committee.sol\":15749:15758  uint256 i */\n  0x00\n    /* \"contracts/Committee.sol\":15744:15844  for (uint256 i = 0; i < _members.length; i++) {... */\ntag_10:\n    /* \"contracts/Committee.sol\":15768:15776  _members */\n  dup2\n    /* \"contracts/Committee.sol\":15768:15783  _members.length */\n  mload\n    /* \"contracts/Committee.sol\":15764:15765  i */\n  dup2\n    /* \"contracts/Committee.sol\":15764:15783  i < _members.length */\n  lt\n    /* \"contracts/Committee.sol\":15744:15844  for (uint256 i = 0; i < _members.length; i++) {... */\n  iszero\n  tag_11\n  jumpi\n    /* \"contracts/Committee.sol\":15804:15833  _setMember(_members[i], true) */\n  tag_13\n    /* \"contracts/Committee.sol\":15815:15823  _members */\n  dup3\n    /* \"contracts/Committee.sol\":15824:15825  i */\n  dup3\n    /* \"contracts/Committee.sol\":15815:15826  _members[i] */\n  dup2\n  mload\n  dup2\n  lt\n  tag_14\n  jumpi\n  invalid\ntag_14:\n  0x20\n  mul\n  0x20\n  add\n  add\n  mload\n    /* \"contracts/Committee.sol\":15828:15832  true */\n  0x01\n    /* \"contracts/Committee.sol\":15804:15814  _setMember */\n  shl(0x20, tag_15)\n    /* \"contracts/Committee.sol\":15804:15833  _setMember(_members[i], true) */\n  0x20\n  shr\n  jump\t// in\ntag_13:\n    /* \"contracts/Committee.sol\":15785:15788  i++ */\n  dup1\n  dup1\n  0x01\n  add\n  swap2\n  pop\n  pop\n    /* \"contracts/Committee.sol\":15744:15844  for (uint256 i = 0; i < _members.length; i++) {... */\n  jump(tag_10)\ntag_11:\n  pop\n    /* \"contracts/Committee.sol\":15595:15850  constructor(address _owner, address[] memory _members) {... */\n  pop\n  pop\n    /* \"contracts/Committee.sol\":15281:17267  contract Committee is OwnableInitializable {... */\n  jump(tag_16)\n    /* \"contracts/Committee.sol\":1948:2117  function _initOwnable () internal {... */\ntag_7:\n    /* \"contracts/Committee.sol\":1992:2009  address msgSender */\n  0x00\n    /* \"contracts/Committee.sol\":2012:2024  _msgSender() */\n  tag_18\n    /* \"contracts/Committee.sol\":2012:2022  _msgSender */\n  shl(0x20, tag_19)\n    /* \"contracts/Committee.sol\":2012:2024  _msgSender() */\n  0x20\n  shr\n  jump\t// in\ntag_18:\n    /* \"contracts/Committee.sol\":1992:2024  address msgSender = _msgSender() */\n  swap1\n  pop\n    /* \"contracts/Committee.sol\":2043:2052  msgSender */\n  dup1\n    /* \"contracts/Committee.sol\":2034:2040  _owner */\n  0x00\n  dup1\n    /* \"contracts/Committee.sol\":2034:2052  _owner = msgSender */\n  0x0100\n  exp\n  dup2\n  sload\n  dup2\n  0xffffffffffffffffffffffffffffffffffffffff\n  mul\n  not\n  and\n  swap1\n  dup4\n  0xffffffffffffffffffffffffffffffffffffffff\n  and\n  mul\n  or\n  swap1\n  sstore\n  pop\n    /* \"contracts/Committee.sol\":2100:2109  msgSender */\n  dup1\n    /* \"contracts/Committee.sol\":2067:2110  OwnershipTransferred(address(0), msgSender) */\n  0xffffffffffffffffffffffffffffffffffffffff\n  and\n    /* \"contracts/Committee.sol\":2096:2097  0 */\n  0x00\n    /* \"contracts/Committee.sol\":2067:2110  OwnershipTransferred(address(0), msgSender) */\n  0xffffffffffffffffffffffffffffffffffffffff\n  and\n  0x8be0079c531659141344cd1fd0a4f28419497f9722a3daafe3b4186f6b6457e0\n  mload(0x40)\n  mload(0x40)\n  dup1\n  swap2\n  sub\n  swap1\n  log3\n    /* \"contracts/Committee.sol\":1948:2117  function _initOwnable () internal {... */\n  pop\n  jump\t// out\n    /* \"contracts/Committee.sol\":3110:3350  function transferOwnership(address newOwner) public virtual onlyOwner {... */\ntag_9:\n    /* \"contracts/Committee.sol\":2407:2419  _msgSender() */\n  tag_21\n    /* \"contracts/Committee.sol\":2407:2417  _msgSender */\n  shl(0x20, tag_19)\n    /* \"contracts/Committee.sol\":2407:2419  _msgSender() */\n  0x20\n  shr\n  jump\t// in\ntag_21:\n    /* \"contracts/Committee.sol\":2397:2419  _owner == _msgSender() */\n  0xffffffffffffffffffffffffffffffffffffffff\n  and\n    /* \"contracts/Committee.sol\":2397:2403  _owner */\n  0x00\n  dup1\n  sload\n  swap1\n  0x0100\n  exp\n  swap1\n  div\n  0xffffffffffffffffffffffffffffffffffffffff\n  and\n    /* \"contracts/Committee.sol\":2397:2419  _owner == _msgSender() */\n  0xffffffffffffffffffffffffffffffffffffffff\n  and\n  eq\n    /* \"contracts/Committee.sol\":2389:2456  require(_owner == _msgSender(), \"Ownable: caller is not the owner\") */\n  tag_22\n  jumpi\n  mload(0x40)\n  0x08c379a000000000000000000000000000000000000000000000000000000000\n  dup2\n  mstore\n  0x04\n  add\n  tag_23\n  swap1\n  tag_24\n  jump\t// in\ntag_23:\n  mload(0x40)\n  dup1\n  swap2\n  sub\n  swap1\n  revert\ntag_22:\n    /* \"contracts/Committee.sol\":3218:3219  0 */\n  0x00\n    /* \"contracts/Committee.sol\":3198:3220  newOwner != address(0) */\n  0xffffffffffffffffffffffffffffffffffffffff\n  and\n    /* \"contracts/Committee.sol\":3198:3206  newOwner */\n  dup2\n    /* \"contracts/Committee.sol\":3198:3220  newOwner != address(0) */\n  0xffffffffffffffffffffffffffffffffffffffff\n  and\n  eq\n  iszero\n    /* \"contracts/Committee.sol\":3190:3263  require(newOwner != address(0), \"Ownable: new owner is the zero address\") */\n  tag_26\n  jumpi\n  mload(0x40)\n  0x08c379a000000000000000000000000000000000000000000000000000000000\n  dup2\n  mstore\n  0x04\n  add\n  tag_27\n  swap1\n  tag_28\n  jump\t// in\ntag_27:\n  mload(0x40)\n  dup1\n  swap2\n  sub\n  swap1\n  revert\ntag_26:\n    /* \"contracts/Committee.sol\":3307:3315  newOwner */\n  dup1\n    /* \"contracts/Committee.sol\":3278:3316  OwnershipTransferred(_owner, newOwner) */\n  0xffffffffffffffffffffffffffffffffffffffff\n  and\n    /* \"contracts/Committee.sol\":3299:3305  _owner */\n  0x00\n  dup1\n  sload\n  swap1\n  0x0100\n  exp\n  swap1\n  div\n  0xffffffffffffffffffffffffffffffffffffffff\n  and\n    /* \"contracts/Committee.sol\":3278:3316  OwnershipTransferred(_owner, newOwner) */\n  0xffffffffffffffffffffffffffffffffffffffff\n  and\n  0x8be0079c531659141344cd1fd0a4f28419497f9722a3daafe3b4186f6b6457e0\n  mload(0x40)\n  mload(0x40)\n  dup1\n  swap2\n  sub\n  swap1\n  log3\n    /* \"contracts/Committee.sol\":3335:3343  newOwner */\n  dup1\n    /* \"contracts/Committee.sol\":3326:3332  _owner */\n  0x00\n  dup1\n    /* \"contracts/Committee.sol\":3326:3343  _owner = newOwner */\n  0x0100\n  exp\n  dup2\n  sload\n  dup2\n  0xffffffffffffffffffffffffffffffffffffffff\n  mul\n  not\n  and\n  swap1\n  dup4\n  0xffffffffffffffffffffffffffffffffffffffff\n  and\n  mul\n  or\n  swap1\n  sstore\n  pop\n    /* \"contracts/Committee.sol\":3110:3350  function transferOwnership(address newOwner) public virtual onlyOwner {... */\n  pop\n  jump\t// out\n    /* \"contracts/Committee.sol\":16477:16620  function _setMember(address _member, bool _value) internal {... */\ntag_15:\n    /* \"contracts/Committee.sol\":16565:16571  _value */\n  dup1\n    /* \"contracts/Committee.sol\":16546:16553  members */\n  0x01\n    /* \"contracts/Committee.sol\":16546:16562  members[_member] */\n  0x00\n    /* \"contracts/Committee.sol\":16554:16561  _member */\n  dup5\n    /* \"contracts/Committee.sol\":16546:16562  members[_member] */\n  0xffffffffffffffffffffffffffffffffffffffff\n  and\n  0xffffffffffffffffffffffffffffffffffffffff\n  and\n  dup2\n  mstore\n  0x20\n  add\n  swap1\n  dup2\n  mstore\n  0x20\n  add\n  0x00\n  keccak256\n  0x00\n    /* \"contracts/Committee.sol\":16546:16571  members[_member] = _value */\n  0x0100\n  exp\n  dup2\n  sload\n  dup2\n  0xff\n  mul\n  not\n  and\n  swap1\n  dup4\n  iszero\n  iszero\n  mul\n  or\n  swap1\n  sstore\n  pop\n    /* \"contracts/Committee.sol\":16597:16604  _member */\n  dup2\n    /* \"contracts/Committee.sol\":16587:16613  MemberSet(_member, _value) */\n  0xffffffffffffffffffffffffffffffffffffffff\n  and\n  0x4efc5168d98ad88d2d4784344a20876aea2fa3e8aa503b5fb3164a09019ca3d6\n    /* \"contracts/Committee.sol\":16606:16612  _value */\n  dup3\n    /* \"contracts/Committee.sol\":16587:16613  MemberSet(_member, _value) */\n  mload(0x40)\n  tag_30\n  swap2\n  swap1\n  tag_31\n  jump\t// in\ntag_30:\n  mload(0x40)\n  dup1\n  swap2\n  sub\n  swap1\n  log2\n    /* \"contracts/Committee.sol\":16477:16620  function _setMember(address _member, bool _value) internal {... */\n  pop\n  pop\n  jump\t// out\n    /* \"contracts/Committee.sol\":453:1092  function _msgSender()... */\ntag_19:\n    /* \"contracts/Committee.sol\":538:560  address payable sender */\n  0x00\n    /* \"contracts/Committee.sol\":602:606  this */\n  address\n    /* \"contracts/Committee.sol\":580:607  msg.sender == address(this) */\n  0xffffffffffffffffffffffffffffffffffffffff\n  and\n    /* \"contracts/Committee.sol\":580:590  msg.sender */\n  caller\n    /* \"contracts/Committee.sol\":580:607  msg.sender == address(this) */\n  0xffffffffffffffffffffffffffffffffffffffff\n  and\n  eq\n    /* \"contracts/Committee.sol\":576:1063  if (msg.sender == address(this)) {... */\n  iszero\n  tag_33\n  jumpi\n    /* \"contracts/Committee.sol\":623:641  bytes memory array */\n  0x00\n    /* \"contracts/Committee.sol\":644:652  msg.data */\n  dup1\n  calldatasize\n    /* \"contracts/Committee.sol\":623:652  bytes memory array = msg.data */\n  dup1\n  dup1\n  0x1f\n  add\n  0x20\n  dup1\n  swap2\n  div\n  mul\n  0x20\n  add\n  mload(0x40)\n  swap1\n  dup2\n  add\n  0x40\n  mstore\n  dup1\n  swap4\n  swap3\n  swap2\n  swap1\n  dup2\n  dup2\n  mstore\n  0x20\n  add\n  dup4\n  dup4\n  dup1\n  dup3\n  dup5\n  calldatacopy\n  0x00\n  dup2\n  dup5\n  add\n  mstore\n  not(0x1f)\n  0x1f\n  dup3\n  add\n  and\n  swap1\n  pop\n  dup1\n  dup4\n  add\n  swap3\n  pop\n  pop\n  pop\n  pop\n  pop\n  pop\n  pop\n  swap1\n  pop\n    /* \"contracts/Committee.sol\":666:679  uint256 index */\n  0x00\n    /* \"contracts/Committee.sol\":682:690  msg.data */\n  dup1\n  calldatasize\n    /* \"contracts/Committee.sol\":682:697  msg.data.length */\n  swap1\n  pop\n    /* \"contracts/Committee.sol\":666:697  uint256 index = msg.data.length */\n  swap1\n  pop\n    /* \"contracts/Committee.sol\":929:971  0xffffffffffffffffffffffffffffffffffffffff */\n  0xffffffffffffffffffffffffffffffffffffffff\n    /* \"contracts/Committee.sol\":900:905  index */\n  dup2\n    /* \"contracts/Committee.sol\":893:898  array */\n  dup4\n    /* \"contracts/Committee.sol\":889:906  add(array, index) */\n  add\n    /* \"contracts/Committee.sol\":883:907  mload(add(array, index)) */\n  mload\n    /* \"contracts/Committee.sol\":858:989  and(... */\n  and\n    /* \"contracts/Committee.sol\":848:989  sender := and(... */\n  swap3\n  pop\n    /* \"contracts/Committee.sol\":720:1003  {... */\n  pop\n  pop\n  jump(tag_34)\ntag_33:\n    /* \"contracts/Committee.sol\":1042:1052  msg.sender */\n  caller\n    /* \"contracts/Committee.sol\":1033:1052  sender = msg.sender */\n  swap1\n  pop\n    /* \"contracts/Committee.sol\":576:1063  if (msg.sender == address(this)) {... */\ntag_34:\n    /* \"contracts/Committee.sol\":453:1092  function _msgSender()... */\n  swap1\n  jump\t// out\n    /* \"#utility.yul\":24:668   */\ntag_36:\n  0x00\n    /* \"#utility.yul\":156:236   */\n  tag_38\n    /* \"#utility.yul\":171:235   */\n  tag_39\n    /* \"#utility.yul\":228:234   */\n  dup5\n    /* \"#utility.yul\":171:235   */\n  tag_40\n  jump\t// in\ntag_39:\n    /* \"#utility.yul\":156:236   */\n  tag_41\n  jump\t// in\ntag_38:\n    /* \"#utility.yul\":147:236   */\n  swap1\n  pop\n    /* \"#utility.yul\":256:261   */\n  dup1\n    /* \"#utility.yul\":284:290   */\n  dup4\n    /* \"#utility.yul\":277:282   */\n  dup3\n    /* \"#utility.yul\":270:291   */\n  mstore\n    /* \"#utility.yul\":310:314   */\n  0x20\n    /* \"#utility.yul\":303:308   */\n  dup3\n    /* \"#utility.yul\":299:315   */\n  add\n    /* \"#utility.yul\":292:315   */\n  swap1\n  pop\n    /* \"#utility.yul\":335:341   */\n  dup3\n    /* \"#utility.yul\":385:388   */\n  dup6\n    /* \"#utility.yul\":377:381   */\n  0x20\n    /* \"#utility.yul\":369:375   */\n  dup7\n    /* \"#utility.yul\":365:382   */\n  mul\n    /* \"#utility.yul\":360:363   */\n  dup3\n    /* \"#utility.yul\":356:383   */\n  add\n    /* \"#utility.yul\":353:389   */\n  gt\n    /* \"#utility.yul\":350:352   */\n  iszero\n  tag_42\n  jumpi\n    /* \"#utility.yul\":402:403   */\n  0x00\n    /* \"#utility.yul\":399:400   */\n  dup1\n    /* \"#utility.yul\":392:404   */\n  revert\n    /* \"#utility.yul\":350:352   */\ntag_42:\n    /* \"#utility.yul\":430:431   */\n  0x00\n    /* \"#utility.yul\":415:662   */\ntag_43:\n    /* \"#utility.yul\":440:446   */\n  dup6\n    /* \"#utility.yul\":437:438   */\n  dup2\n    /* \"#utility.yul\":434:447   */\n  lt\n    /* \"#utility.yul\":415:662   */\n  iszero\n  tag_45\n  jumpi\n    /* \"#utility.yul\":507:510   */\n  dup2\n    /* \"#utility.yul\":535:583   */\n  tag_46\n    /* \"#utility.yul\":579:582   */\n  dup9\n    /* \"#utility.yul\":567:577   */\n  dup3\n    /* \"#utility.yul\":535:583   */\n  tag_47\n  jump\t// in\ntag_46:\n    /* \"#utility.yul\":530:533   */\n  dup5\n    /* \"#utility.yul\":523:584   */\n  mstore\n    /* \"#utility.yul\":613:617   */\n  0x20\n    /* \"#utility.yul\":608:611   */\n  dup5\n    /* \"#utility.yul\":604:618   */\n  add\n    /* \"#utility.yul\":597:618   */\n  swap4\n  pop\n    /* \"#utility.yul\":647:651   */\n  0x20\n    /* \"#utility.yul\":642:645   */\n  dup4\n    /* \"#utility.yul\":638:652   */\n  add\n    /* \"#utility.yul\":631:652   */\n  swap3\n  pop\n    /* \"#utility.yul\":475:662   */\n  pop\n    /* \"#utility.yul\":462:463   */\n  0x01\n    /* \"#utility.yul\":459:460   */\n  dup2\n    /* \"#utility.yul\":455:464   */\n  add\n    /* \"#utility.yul\":450:464   */\n  swap1\n  pop\n    /* \"#utility.yul\":415:662   */\n  jump(tag_43)\ntag_45:\n    /* \"#utility.yul\":419:433   */\n  pop\n    /* \"#utility.yul\":137:668   */\n  pop\n  pop\n  swap4\n  swap3\n  pop\n  pop\n  pop\n  jump\t// out\n    /* \"#utility.yul\":674:817   */\ntag_47:\n  0x00\n    /* \"#utility.yul\":762:768   */\n  dup2\n    /* \"#utility.yul\":756:769   */\n  mload\n    /* \"#utility.yul\":747:769   */\n  swap1\n  pop\n    /* \"#utility.yul\":778:811   */\n  tag_49\n    /* \"#utility.yul\":805:810   */\n  dup2\n    /* \"#utility.yul\":778:811   */\n  tag_50\n  jump\t// in\ntag_49:\n    /* \"#utility.yul\":737:817   */\n  swap3\n  swap2\n  pop\n  pop\n  jump\t// out\n    /* \"#utility.yul\":840:1158   */\ntag_51:\n  0x00\n    /* \"#utility.yul\":971:974   */\n  dup3\n    /* \"#utility.yul\":964:968   */\n  0x1f\n    /* \"#utility.yul\":956:962   */\n  dup4\n    /* \"#utility.yul\":952:969   */\n  add\n    /* \"#utility.yul\":948:975   */\n  slt\n    /* \"#utility.yul\":938:940   */\n  tag_53\n  jumpi\n    /* \"#utility.yul\":989:990   */\n  0x00\n    /* \"#utility.yul\":986:987   */\n  dup1\n    /* \"#utility.yul\":979:991   */\n  revert\n    /* \"#utility.yul\":938:940   */\ntag_53:\n    /* \"#utility.yul\":1022:1028   */\n  dup2\n    /* \"#utility.yul\":1016:1029   */\n  mload\n    /* \"#utility.yul\":1047:1152   */\n  tag_54\n    /* \"#utility.yul\":1148:1151   */\n  dup5\n    /* \"#utility.yul\":1140:1146   */\n  dup3\n    /* \"#utility.yul\":1133:1137   */\n  0x20\n    /* \"#utility.yul\":1125:1131   */\n  dup7\n    /* \"#utility.yul\":1121:1138   */\n  add\n    /* \"#utility.yul\":1047:1152   */\n  tag_36\n  jump\t// in\ntag_54:\n    /* \"#utility.yul\":1038:1152   */\n  swap2\n  pop\n    /* \"#utility.yul\":928:1158   */\n  pop\n  swap3\n  swap2\n  pop\n  pop\n  jump\t// out\n    /* \"#utility.yul\":1164:1740   */\ntag_3:\n  0x00\n  dup1\n    /* \"#utility.yul\":1325:1327   */\n  0x40\n    /* \"#utility.yul\":1313:1322   */\n  dup4\n    /* \"#utility.yul\":1304:1311   */\n  dup6\n    /* \"#utility.yul\":1300:1323   */\n  sub\n    /* \"#utility.yul\":1296:1328   */\n  slt\n    /* \"#utility.yul\":1293:1295   */\n  iszero\n  tag_56\n  jumpi\n    /* \"#utility.yul\":1341:1342   */\n  0x00\n    /* \"#utility.yul\":1338:1339   */\n  dup1\n    /* \"#utility.yul\":1331:1343   */\n  revert\n    /* \"#utility.yul\":1293:1295   */\ntag_56:\n    /* \"#utility.yul\":1384:1385   */\n  0x00\n    /* \"#utility.yul\":1409:1473   */\n  tag_57\n    /* \"#utility.yul\":1465:1472   */\n  dup6\n    /* \"#utility.yul\":1456:1462   */\n  dup3\n    /* \"#utility.yul\":1445:1454   */\n  dup7\n    /* \"#utility.yul\":1441:1463   */\n  add\n    /* \"#utility.yul\":1409:1473   */\n  tag_47\n  jump\t// in\ntag_57:\n    /* \"#utility.yul\":1399:1473   */\n  swap3\n  pop\n    /* \"#utility.yul\":1355:1483   */\n  pop\n    /* \"#utility.yul\":1543:1545   */\n  0x20\n    /* \"#utility.yul\":1532:1541   */\n  dup4\n    /* \"#utility.yul\":1528:1546   */\n  add\n    /* \"#utility.yul\":1522:1547   */\n  mload\n    /* \"#utility.yul\":1574:1592   */\n  0xffffffffffffffff\n    /* \"#utility.yul\":1566:1572   */\n  dup2\n    /* \"#utility.yul\":1563:1593   */\n  gt\n    /* \"#utility.yul\":1560:1562   */\n  iszero\n  tag_58\n  jumpi\n    /* \"#utility.yul\":1606:1607   */\n  0x00\n    /* \"#utility.yul\":1603:1604   */\n  dup1\n    /* \"#utility.yul\":1596:1608   */\n  revert\n    /* \"#utility.yul\":1560:1562   */\ntag_58:\n    /* \"#utility.yul\":1634:1723   */\n  tag_59\n    /* \"#utility.yul\":1715:1722   */\n  dup6\n    /* \"#utility.yul\":1706:1712   */\n  dup3\n    /* \"#utility.yul\":1695:1704   */\n  dup7\n    /* \"#utility.yul\":1691:1713   */\n  add\n    /* \"#utility.yul\":1634:1723   */\n  tag_51\n  jump\t// in\ntag_59:\n    /* \"#utility.yul\":1624:1723   */\n  swap2\n  pop\n    /* \"#utility.yul\":1493:1733   */\n  pop\n    /* \"#utility.yul\":1283:1740   */\n  swap3\n  pop\n  swap3\n  swap1\n  pop\n  jump\t// out\n    /* \"#utility.yul\":1746:1855   */\ntag_60:\n    /* \"#utility.yul\":1827:1848   */\n  tag_62\n    /* \"#utility.yul\":1842:1847   */\n  dup2\n    /* \"#utility.yul\":1827:1848   */\n  tag_63\n  jump\t// in\ntag_62:\n    /* \"#utility.yul\":1822:1825   */\n  dup3\n    /* \"#utility.yul\":1815:1849   */\n  mstore\n    /* \"#utility.yul\":1805:1855   */\n  pop\n  pop\n  jump\t// out\n    /* \"#utility.yul\":1861:2231   */\ntag_64:\n  0x00\n    /* \"#utility.yul\":2024:2091   */\n  tag_66\n    /* \"#utility.yul\":2088:2090   */\n  0x26\n    /* \"#utility.yul\":2083:2086   */\n  dup4\n    /* \"#utility.yul\":2024:2091   */\n  tag_67\n  jump\t// in\ntag_66:\n    /* \"#utility.yul\":2017:2091   */\n  swap2\n  pop\n    /* \"#utility.yul\":2121:2155   */\n  0x4f776e61626c653a206e6577206f776e657220697320746865207a65726f2061\n    /* \"#utility.yul\":2117:2118   */\n  0x00\n    /* \"#utility.yul\":2112:2115   */\n  dup4\n    /* \"#utility.yul\":2108:2119   */\n  add\n    /* \"#utility.yul\":2101:2156   */\n  mstore\n    /* \"#utility.yul\":2187:2195   */\n  0x6464726573730000000000000000000000000000000000000000000000000000\n    /* \"#utility.yul\":2182:2184   */\n  0x20\n    /* \"#utility.yul\":2177:2180   */\n  dup4\n    /* \"#utility.yul\":2173:2185   */\n  add\n    /* \"#utility.yul\":2166:2196   */\n  mstore\n    /* \"#utility.yul\":2222:2224   */\n  0x40\n    /* \"#utility.yul\":2217:2220   */\n  dup3\n    /* \"#utility.yul\":2213:2225   */\n  add\n    /* \"#utility.yul\":2206:2225   */\n  swap1\n  pop\n    /* \"#utility.yul\":2007:2231   */\n  swap2\n  swap1\n  pop\n  jump\t// out\n    /* \"#utility.yul\":2237:2567   */\ntag_68:\n  0x00\n    /* \"#utility.yul\":2400:2467   */\n  tag_70\n    /* \"#utility.yul\":2464:2466   */\n  0x20\n    /* \"#utility.yul\":2459:2462   */\n  dup4\n    /* \"#utility.yul\":2400:2467   */\n  tag_67\n  jump\t// in\ntag_70:\n    /* \"#utility.yul\":2393:2467   */\n  swap2\n  pop\n    /* \"#utility.yul\":2497:2531   */\n  0x4f776e61626c653a2063616c6c6572206973206e6f7420746865206f776e6572\n    /* \"#utility.yul\":2493:2494   */\n  0x00\n    /* \"#utility.yul\":2488:2491   */\n  dup4\n    /* \"#utility.yul\":2484:2495   */\n  add\n    /* \"#utility.yul\":2477:2532   */\n  mstore\n    /* \"#utility.yul\":2558:2560   */\n  0x20\n    /* \"#utility.yul\":2553:2556   */\n  dup3\n    /* \"#utility.yul\":2549:2561   */\n  add\n    /* \"#utility.yul\":2542:2561   */\n  swap1\n  pop\n    /* \"#utility.yul\":2383:2567   */\n  swap2\n  swap1\n  pop\n  jump\t// out\n    /* \"#utility.yul\":2573:2783   */\ntag_31:\n  0x00\n    /* \"#utility.yul\":2698:2700   */\n  0x20\n    /* \"#utility.yul\":2687:2696   */\n  dup3\n    /* \"#utility.yul\":2683:2701   */\n  add\n    /* \"#utility.yul\":2675:2701   */\n  swap1\n  pop\n    /* \"#utility.yul\":2711:2776   */\n  tag_72\n    /* \"#utility.yul\":2773:2774   */\n  0x00\n    /* \"#utility.yul\":2762:2771   */\n  dup4\n    /* \"#utility.yul\":2758:2775   */\n  add\n    /* \"#utility.yul\":2749:2755   */\n  dup5\n    /* \"#utility.yul\":2711:2776   */\n  tag_60\n  jump\t// in\ntag_72:\n    /* \"#utility.yul\":2665:2783   */\n  swap3\n  swap2\n  pop\n  pop\n  jump\t// out\n    /* \"#utility.yul\":2789:3208   */\ntag_28:\n  0x00\n    /* \"#utility.yul\":2993:2995   */\n  0x20\n    /* \"#utility.yul\":2982:2991   */\n  dup3\n    /* \"#utility.yul\":2978:2996   */\n  add\n    /* \"#utility.yul\":2970:2996   */\n  swap1\n  pop\n    /* \"#utility.yul\":3042:3051   */\n  dup2\n    /* \"#utility.yul\":3036:3040   */\n  dup2\n    /* \"#utility.yul\":3032:3052   */\n  sub\n    /* \"#utility.yul\":3028:3029   */\n  0x00\n    /* \"#utility.yul\":3017:3026   */\n  dup4\n    /* \"#utility.yul\":3013:3030   */\n  add\n    /* \"#utility.yul\":3006:3053   */\n  mstore\n    /* \"#utility.yul\":3070:3201   */\n  tag_74\n    /* \"#utility.yul\":3196:3200   */\n  dup2\n    /* \"#utility.yul\":3070:3201   */\n  tag_64\n  jump\t// in\ntag_74:\n    /* \"#utility.yul\":3062:3201   */\n  swap1\n  pop\n    /* \"#utility.yul\":2960:3208   */\n  swap2\n  swap1\n  pop\n  jump\t// out\n    /* \"#utility.yul\":3214:3633   */\ntag_24:\n  0x00\n    /* \"#utility.yul\":3418:3420   */\n  0x20\n    /* \"#utility.yul\":3407:3416   */\n  dup3\n    /* \"#utility.yul\":3403:3421   */\n  add\n    /* \"#utility.yul\":3395:3421   */\n  swap1\n  pop\n    /* \"#utility.yul\":3467:3476   */\n  dup2\n    /* \"#utility.yul\":3461:3465   */\n  dup2\n    /* \"#utility.yul\":3457:3477   */\n  sub\n    /* \"#utility.yul\":3453:3454   */\n  0x00\n    /* \"#utility.yul\":3442:3451   */\n  dup4\n    /* \"#utility.yul\":3438:3455   */\n  add\n    /* \"#utility.yul\":3431:3478   */\n  mstore\n    /* \"#utility.yul\":3495:3626   */\n  tag_76\n    /* \"#utility.yul\":3621:3625   */\n  dup2\n    /* \"#utility.yul\":3495:3626   */\n  tag_68\n  jump\t// in\ntag_76:\n    /* \"#utility.yul\":3487:3626   */\n  swap1\n  pop\n    /* \"#utility.yul\":3385:3633   */\n  swap2\n  swap1\n  pop\n  jump\t// out\n    /* \"#utility.yul\":3639:3917   */\ntag_41:\n  0x00\n    /* \"#utility.yul\":3705:3707   */\n  0x40\n    /* \"#utility.yul\":3699:3708   */\n  mload\n    /* \"#utility.yul\":3689:3708   */\n  swap1\n  pop\n    /* \"#utility.yul\":3747:3751   */\n  dup2\n    /* \"#utility.yul\":3739:3745   */\n  dup2\n    /* \"#utility.yul\":3735:3752   */\n  add\n    /* \"#utility.yul\":3854:3860   */\n  dup2\n    /* \"#utility.yul\":3842:3852   */\n  dup2\n    /* \"#utility.yul\":3839:3861   */\n  lt\n    /* \"#utility.yul\":3818:3836   */\n  0xffffffffffffffff\n    /* \"#utility.yul\":3806:3816   */\n  dup3\n    /* \"#utility.yul\":3803:3837   */\n  gt\n    /* \"#utility.yul\":3800:3862   */\n  or\n    /* \"#utility.yul\":3797:3799   */\n  iszero\n  tag_78\n  jumpi\n    /* \"#utility.yul\":3865:3878   */\n  tag_79\n  tag_80\n  jump\t// in\ntag_79:\n    /* \"#utility.yul\":3797:3799   */\ntag_78:\n    /* \"#utility.yul\":3900:3910   */\n  dup1\n    /* \"#utility.yul\":3896:3898   */\n  0x40\n    /* \"#utility.yul\":3889:3911   */\n  mstore\n    /* \"#utility.yul\":3679:3917   */\n  pop\n  swap2\n  swap1\n  pop\n  jump\t// out\n    /* \"#utility.yul\":3923:4229   */\ntag_40:\n  0x00\n    /* \"#utility.yul\":4090:4108   */\n  0xffffffffffffffff\n    /* \"#utility.yul\":4082:4088   */\n  dup3\n    /* \"#utility.yul\":4079:4109   */\n  gt\n    /* \"#utility.yul\":4076:4078   */\n  iszero\n  tag_82\n  jumpi\n    /* \"#utility.yul\":4112:4125   */\n  tag_83\n  tag_80\n  jump\t// in\ntag_83:\n    /* \"#utility.yul\":4076:4078   */\ntag_82:\n    /* \"#utility.yul\":4157:4161   */\n  0x20\n    /* \"#utility.yul\":4149:4155   */\n  dup3\n    /* \"#utility.yul\":4145:4162   */\n  mul\n    /* \"#utility.yul\":4137:4162   */\n  swap1\n  pop\n    /* \"#utility.yul\":4217:4221   */\n  0x20\n    /* \"#utility.yul\":4211:4215   */\n  dup2\n    /* \"#utility.yul\":4207:4222   */\n  add\n    /* \"#utility.yul\":4199:4222   */\n  swap1\n  pop\n    /* \"#utility.yul\":4005:4229   */\n  swap2\n  swap1\n  pop\n  jump\t// out\n    /* \"#utility.yul\":4235:4404   */\ntag_67:\n  0x00\n    /* \"#utility.yul\":4353:4359   */\n  dup3\n    /* \"#utility.yul\":4348:4351   */\n  dup3\n    /* \"#utility.yul\":4341:4360   */\n  mstore\n    /* \"#utility.yul\":4393:4397   */\n  0x20\n    /* \"#utility.yul\":4388:4391   */\n  dup3\n    /* \"#utility.yul\":4384:4398   */\n  add\n    /* \"#utility.yul\":4369:4398   */\n  swap1\n  pop\n    /* \"#utility.yul\":4331:4404   */\n  swap3\n  swap2\n  pop\n  pop\n  jump\t// out\n    /* \"#utility.yul\":4410:4506   */\ntag_85:\n  0x00\n    /* \"#utility.yul\":4476:4500   */\n  tag_87\n    /* \"#utility.yul\":4494:4499   */\n  dup3\n    /* \"#utility.yul\":4476:4500   */\n  tag_88\n  jump\t// in\ntag_87:\n    /* \"#utility.yul\":4465:4500   */\n  swap1\n  pop\n    /* \"#utility.yul\":4455:4506   */\n  swap2\n  swap1\n  pop\n  jump\t// out\n    /* \"#utility.yul\":4512:4602   */\ntag_63:\n  0x00\n    /* \"#utility.yul\":4589:4594   */\n  dup2\n    /* \"#utility.yul\":4582:4595   */\n  iszero\n    /* \"#utility.yul\":4575:4596   */\n  iszero\n    /* \"#utility.yul\":4564:4596   */\n  swap1\n  pop\n    /* \"#utility.yul\":4554:4602   */\n  swap2\n  swap1\n  pop\n  jump\t// out\n    /* \"#utility.yul\":4608:4734   */\ntag_88:\n  0x00\n    /* \"#utility.yul\":4685:4727   */\n  0xffffffffffffffffffffffffffffffffffffffff\n    /* \"#utility.yul\":4678:4683   */\n  dup3\n    /* \"#utility.yul\":4674:4728   */\n  and\n    /* \"#utility.yul\":4663:4728   */\n  swap1\n  pop\n    /* \"#utility.yul\":4653:4734   */\n  swap2\n  swap1\n  pop\n  jump\t// out\n    /* \"#utility.yul\":4740:4788   */\ntag_80:\n    /* \"#utility.yul\":4773:4782   */\n  invalid\n    /* \"#utility.yul\":4794:4916   */\ntag_50:\n    /* \"#utility.yul\":4867:4891   */\n  tag_93\n    /* \"#utility.yul\":4885:4890   */\n  dup2\n    /* \"#utility.yul\":4867:4891   */\n  tag_85\n  jump\t// in\ntag_93:\n    /* \"#utility.yul\":4860:4865   */\n  dup2\n    /* \"#utility.yul\":4857:4892   */\n  eq\n    /* \"#utility.yul\":4847:4849   */\n  tag_94\n  jumpi\n    /* \"#utility.yul\":4906:4907   */\n  0x00\n    /* \"#utility.yul\":4903:4904   */\n  dup1\n    /* \"#utility.yul\":4896:4908   */\n  revert\n    /* \"#utility.yul\":4847:4849   */\ntag_94:\n    /* \"#utility.yul\":4837:4916   */\n  pop\n  jump\t// out\n    /* \"contracts/Committee.sol\":15281:17267  contract Committee is OwnableInitializable {... */\ntag_16:\n  dataSize(sub_0)\n  dup1\n  dataOffset(sub_0)\n  0x00\n  codecopy\n  0x00\n  return\nstop\n\nsub_0: assembly {\n        /* \"contracts/Committee.sol\":15281:17267  contract Committee is OwnableInitializable {... */\n      mstore(0x40, 0x80)\n      callvalue\n      dup1\n      iszero\n      tag_1\n      jumpi\n      0x00\n      dup1\n      revert\n    tag_1:\n      pop\n      jumpi(tag_2, lt(calldatasize, 0x04))\n      shr(0xe0, calldataload(0x00))\n      dup1\n      0x08ae4b0c\n      eq\n      tag_3\n      jumpi\n      dup1\n      0x29352b27\n      eq\n      tag_4\n      jumpi\n      dup1\n      0x715018a6\n      eq\n      tag_5\n      jumpi\n      dup1\n      0x81c9308e\n      eq\n      tag_6\n      jumpi\n      dup1\n      0x8da5cb5b\n      eq\n      tag_7\n      jumpi\n      dup1\n      0xf2fde38b\n      eq\n      tag_8\n      jumpi\n    tag_2:\n      0x00\n      dup1\n      revert\n        /* \"contracts/Committee.sol\":15331:15370  mapping(address => bool) public members */\n    tag_3:\n      tag_9\n      0x04\n      dup1\n      calldatasize\n      sub\n      dup2\n      add\n      swap1\n      tag_10\n      swap2\n      swap1\n      tag_11\n      jump\t// in\n    tag_10:\n      tag_12\n      jump\t// in\n    tag_9:\n      mload(0x40)\n      tag_13\n      swap2\n      swap1\n      tag_14\n      jump\t// in\n    tag_13:\n      mload(0x40)\n      dup1\n      swap2\n      sub\n      swap1\n      return\n        /* \"contracts/Committee.sol\":16011:16320  function setMembers(address[] calldata _members, bool[] calldata _values) external onlyOwner {... */\n    tag_4:\n      tag_15\n      0x04\n      dup1\n      calldatasize\n      sub\n      dup2\n      add\n      swap1\n      tag_16\n      swap2\n      swap1\n      tag_17\n      jump\t// in\n    tag_16:\n      tag_18\n      jump\t// in\n    tag_15:\n      stop\n        /* \"contracts/Committee.sol\":2816:2961  function renounceOwnership() public virtual onlyOwner {... */\n    tag_5:\n      tag_19\n      tag_20\n      jump\t// in\n    tag_19:\n      stop\n        /* \"contracts/Committee.sol\":16883:17265  function manageCollection(ICollectionManager _collectionManager, address _forwarder, address _collection, bytes[] memory _data) external {... */\n    tag_6:\n      tag_21\n      0x04\n      dup1\n      calldatasize\n      sub\n      dup2\n      add\n      swap1\n      tag_22\n      swap2\n      swap1\n      tag_23\n      jump\t// in\n    tag_22:\n      tag_24\n      jump\t// in\n    tag_21:\n      stop\n        /* \"contracts/Committee.sol\":2193:2270  function owner() public view returns (address) {... */\n    tag_7:\n      tag_25\n      tag_26\n      jump\t// in\n    tag_25:\n      mload(0x40)\n      tag_27\n      swap2\n      swap1\n      tag_28\n      jump\t// in\n    tag_27:\n      mload(0x40)\n      dup1\n      swap2\n      sub\n      swap1\n      return\n        /* \"contracts/Committee.sol\":3110:3350  function transferOwnership(address newOwner) public virtual onlyOwner {... */\n    tag_8:\n      tag_29\n      0x04\n      dup1\n      calldatasize\n      sub\n      dup2\n      add\n      swap1\n      tag_30\n      swap2\n      swap1\n      tag_11\n      jump\t// in\n    tag_30:\n      tag_31\n      jump\t// in\n    tag_29:\n      stop\n        /* \"contracts/Committee.sol\":15331:15370  mapping(address => bool) public members */\n    tag_12:\n      mstore(0x20, 0x01)\n      dup1\n      0x00\n      mstore\n      keccak256(0x00, 0x40)\n      0x00\n      swap2\n      pop\n      sload\n      swap1\n      0x0100\n      exp\n      swap1\n      div\n      0xff\n      and\n      dup2\n      jump\t// out\n        /* \"contracts/Committee.sol\":16011:16320  function setMembers(address[] calldata _members, bool[] calldata _values) external onlyOwner {... */\n    tag_18:\n        /* \"contracts/Committee.sol\":2407:2419  _msgSender() */\n      tag_33\n        /* \"contracts/Committee.sol\":2407:2417  _msgSender */\n      tag_34\n        /* \"contracts/Committee.sol\":2407:2419  _msgSender() */\n      jump\t// in\n    tag_33:\n        /* \"contracts/Committee.sol\":2397:2419  _owner == _msgSender() */\n      0xffffffffffffffffffffffffffffffffffffffff\n      and\n        /* \"contracts/Committee.sol\":2397:2403  _owner */\n      0x00\n      dup1\n      sload\n      swap1\n      0x0100\n      exp\n      swap1\n      div\n      0xffffffffffffffffffffffffffffffffffffffff\n      and\n        /* \"contracts/Committee.sol\":2397:2419  _owner == _msgSender() */\n      0xffffffffffffffffffffffffffffffffffffffff\n      and\n      eq\n        /* \"contracts/Committee.sol\":2389:2456  require(_owner == _msgSender(), \"Ownable: caller is not the owner\") */\n      tag_35\n      jumpi\n      mload(0x40)\n      0x08c379a000000000000000000000000000000000000000000000000000000000\n      dup2\n      mstore\n      0x04\n      add\n      tag_36\n      swap1\n      tag_37\n      jump\t// in\n    tag_36:\n      mload(0x40)\n      dup1\n      swap2\n      sub\n      swap1\n      revert\n    tag_35:\n        /* \"contracts/Committee.sol\":16141:16148  _values */\n      dup2\n      dup2\n        /* \"contracts/Committee.sol\":16141:16155  _values.length */\n      swap1\n      pop\n        /* \"contracts/Committee.sol\":16122:16130  _members */\n      dup5\n      dup5\n        /* \"contracts/Committee.sol\":16122:16137  _members.length */\n      swap1\n      pop\n        /* \"contracts/Committee.sol\":16122:16155  _members.length == _values.length */\n      eq\n        /* \"contracts/Committee.sol\":16114:16197  require(_members.length == _values.length, \"Committee#setMembers: LENGTH_MISMATCH\") */\n      tag_39\n      jumpi\n      mload(0x40)\n      0x08c379a000000000000000000000000000000000000000000000000000000000\n      dup2\n      mstore\n      0x04\n      add\n      tag_40\n      swap1\n      tag_41\n      jump\t// in\n    tag_40:\n      mload(0x40)\n      dup1\n      swap2\n      sub\n      swap1\n      revert\n    tag_39:\n        /* \"contracts/Committee.sol\":16213:16222  uint256 i */\n      0x00\n        /* \"contracts/Committee.sol\":16208:16314  for (uint256 i = 0; i < _members.length; i++) {... */\n    tag_42:\n        /* \"contracts/Committee.sol\":16232:16240  _members */\n      dup5\n      dup5\n        /* \"contracts/Committee.sol\":16232:16247  _members.length */\n      swap1\n      pop\n        /* \"contracts/Committee.sol\":16228:16229  i */\n      dup2\n        /* \"contracts/Committee.sol\":16228:16247  i < _members.length */\n      lt\n        /* \"contracts/Committee.sol\":16208:16314  for (uint256 i = 0; i < _members.length; i++) {... */\n      iszero\n      tag_43\n      jumpi\n        /* \"contracts/Committee.sol\":16268:16303  _setMember(_members[i], _values[i]) */\n      tag_45\n        /* \"contracts/Committee.sol\":16279:16287  _members */\n      dup6\n      dup6\n        /* \"contracts/Committee.sol\":16288:16289  i */\n      dup4\n        /* \"contracts/Committee.sol\":16279:16290  _members[i] */\n      dup2\n      dup2\n      lt\n      tag_46\n      jumpi\n      invalid\n    tag_46:\n      swap1\n      pop\n      0x20\n      mul\n      add\n      0x20\n      dup2\n      add\n      swap1\n      tag_47\n      swap2\n      swap1\n      tag_11\n      jump\t// in\n    tag_47:\n        /* \"contracts/Committee.sol\":16292:16299  _values */\n      dup5\n      dup5\n        /* \"contracts/Committee.sol\":16300:16301  i */\n      dup5\n        /* \"contracts/Committee.sol\":16292:16302  _values[i] */\n      dup2\n      dup2\n      lt\n      tag_48\n      jumpi\n      invalid\n    tag_48:\n      swap1\n      pop\n      0x20\n      mul\n      add\n      0x20\n      dup2\n      add\n      swap1\n      tag_49\n      swap2\n      swap1\n      tag_50\n      jump\t// in\n    tag_49:\n        /* \"contracts/Committee.sol\":16268:16278  _setMember */\n      tag_51\n        /* \"contracts/Committee.sol\":16268:16303  _setMember(_members[i], _values[i]) */\n      jump\t// in\n    tag_45:\n        /* \"contracts/Committee.sol\":16249:16252  i++ */\n      dup1\n      dup1\n      0x01\n      add\n      swap2\n      pop\n      pop\n        /* \"contracts/Committee.sol\":16208:16314  for (uint256 i = 0; i < _members.length; i++) {... */\n      jump(tag_42)\n    tag_43:\n      pop\n        /* \"contracts/Committee.sol\":16011:16320  function setMembers(address[] calldata _members, bool[] calldata _values) external onlyOwner {... */\n      pop\n      pop\n      pop\n      pop\n      jump\t// out\n        /* \"contracts/Committee.sol\":2816:2961  function renounceOwnership() public virtual onlyOwner {... */\n    tag_20:\n        /* \"contracts/Committee.sol\":2407:2419  _msgSender() */\n      tag_53\n        /* \"contracts/Committee.sol\":2407:2417  _msgSender */\n      tag_34\n        /* \"contracts/Committee.sol\":2407:2419  _msgSender() */\n      jump\t// in\n    tag_53:\n        /* \"contracts/Committee.sol\":2397:2419  _owner == _msgSender() */\n      0xffffffffffffffffffffffffffffffffffffffff\n      and\n        /* \"contracts/Committee.sol\":2397:2403  _owner */\n      0x00\n      dup1\n      sload\n      swap1\n      0x0100\n      exp\n      swap1\n      div\n      0xffffffffffffffffffffffffffffffffffffffff\n      and\n        /* \"contracts/Committee.sol\":2397:2419  _owner == _msgSender() */\n      0xffffffffffffffffffffffffffffffffffffffff\n      and\n      eq\n        /* \"contracts/Committee.sol\":2389:2456  require(_owner == _msgSender(), \"Ownable: caller is not the owner\") */\n      tag_54\n      jumpi\n      mload(0x40)\n      0x08c379a000000000000000000000000000000000000000000000000000000000\n      dup2\n      mstore\n      0x04\n      add\n      tag_55\n      swap1\n      tag_37\n      jump\t// in\n    tag_55:\n      mload(0x40)\n      dup1\n      swap2\n      sub\n      swap1\n      revert\n    tag_54:\n        /* \"contracts/Committee.sol\":2922:2923  0 */\n      0x00\n        /* \"contracts/Committee.sol\":2885:2925  OwnershipTransferred(_owner, address(0)) */\n      0xffffffffffffffffffffffffffffffffffffffff\n      and\n        /* \"contracts/Committee.sol\":2906:2912  _owner */\n      0x00\n      dup1\n      sload\n      swap1\n      0x0100\n      exp\n      swap1\n      div\n      0xffffffffffffffffffffffffffffffffffffffff\n      and\n        /* \"contracts/Committee.sol\":2885:2925  OwnershipTransferred(_owner, address(0)) */\n      0xffffffffffffffffffffffffffffffffffffffff\n      and\n      0x8be0079c531659141344cd1fd0a4f28419497f9722a3daafe3b4186f6b6457e0\n      mload(0x40)\n      mload(0x40)\n      dup1\n      swap2\n      sub\n      swap1\n      log3\n        /* \"contracts/Committee.sol\":2952:2953  0 */\n      0x00\n        /* \"contracts/Committee.sol\":2935:2941  _owner */\n      dup1\n      0x00\n        /* \"contracts/Committee.sol\":2935:2954  _owner = address(0) */\n      0x0100\n      exp\n      dup2\n      sload\n      dup2\n      0xffffffffffffffffffffffffffffffffffffffff\n      mul\n      not\n      and\n      swap1\n      dup4\n      0xffffffffffffffffffffffffffffffffffffffff\n      and\n      mul\n      or\n      swap1\n      sstore\n      pop\n        /* \"contracts/Committee.sol\":2816:2961  function renounceOwnership() public virtual onlyOwner {... */\n      jump\t// out\n        /* \"contracts/Committee.sol\":16883:17265  function manageCollection(ICollectionManager _collectionManager, address _forwarder, address _collection, bytes[] memory _data) external {... */\n    tag_24:\n        /* \"contracts/Committee.sol\":17037:17044  members */\n      0x01\n        /* \"contracts/Committee.sol\":17037:17058  members[_msgSender()] */\n      0x00\n        /* \"contracts/Committee.sol\":17045:17057  _msgSender() */\n      tag_58\n        /* \"contracts/Committee.sol\":17045:17055  _msgSender */\n      tag_34\n        /* \"contracts/Committee.sol\":17045:17057  _msgSender() */\n      jump\t// in\n    tag_58:\n        /* \"contracts/Committee.sol\":17037:17058  members[_msgSender()] */\n      0xffffffffffffffffffffffffffffffffffffffff\n      and\n      0xffffffffffffffffffffffffffffffffffffffff\n      and\n      dup2\n      mstore\n      0x20\n      add\n      swap1\n      dup2\n      mstore\n      0x20\n      add\n      0x00\n      keccak256\n      0x00\n      swap1\n      sload\n      swap1\n      0x0100\n      exp\n      swap1\n      div\n      0xff\n      and\n        /* \"contracts/Committee.sol\":17029:17110  require(members[_msgSender()], \"Committee#manageCollection: UNAUTHORIZED_SENDER\") */\n      tag_59\n      jumpi\n      mload(0x40)\n      0x08c379a000000000000000000000000000000000000000000000000000000000\n      dup2\n      mstore\n      0x04\n      add\n      tag_60\n      swap1\n      tag_61\n      jump\t// in\n    tag_60:\n      mload(0x40)\n      dup1\n      swap2\n      sub\n      swap1\n      revert\n    tag_59:\n        /* \"contracts/Committee.sol\":17126:17135  uint256 i */\n      0x00\n        /* \"contracts/Committee.sol\":17121:17259  for (uint256 i = 0; i < _data.length; i++) {... */\n    tag_62:\n        /* \"contracts/Committee.sol\":17145:17150  _data */\n      dup2\n        /* \"contracts/Committee.sol\":17145:17157  _data.length */\n      mload\n        /* \"contracts/Committee.sol\":17141:17142  i */\n      dup2\n        /* \"contracts/Committee.sol\":17141:17157  i < _data.length */\n      lt\n        /* \"contracts/Committee.sol\":17121:17259  for (uint256 i = 0; i < _data.length; i++) {... */\n      iszero\n      tag_63\n      jumpi\n        /* \"contracts/Committee.sol\":17178:17196  _collectionManager */\n      dup5\n        /* \"contracts/Committee.sol\":17178:17213  _collectionManager.manageCollection */\n      0xffffffffffffffffffffffffffffffffffffffff\n      and\n      0x1e5a92c1\n        /* \"contracts/Committee.sol\":17214:17224  _forwarder */\n      dup6\n        /* \"contracts/Committee.sol\":17226:17237  _collection */\n      dup6\n        /* \"contracts/Committee.sol\":17239:17244  _data */\n      dup6\n        /* \"contracts/Committee.sol\":17245:17246  i */\n      dup6\n        /* \"contracts/Committee.sol\":17239:17247  _data[i] */\n      dup2\n      mload\n      dup2\n      lt\n      tag_65\n      jumpi\n      invalid\n    tag_65:\n      0x20\n      mul\n      0x20\n      add\n      add\n      mload\n        /* \"contracts/Committee.sol\":17178:17248  _collectionManager.manageCollection(_forwarder, _collection, _data[i]) */\n      mload(0x40)\n      dup5\n      0xffffffff\n      and\n      0xe0\n      shl\n      dup2\n      mstore\n      0x04\n      add\n      tag_66\n      swap4\n      swap3\n      swap2\n      swap1\n      tag_67\n      jump\t// in\n    tag_66:\n      0x00\n      mload(0x40)\n      dup1\n      dup4\n      sub\n      dup2\n      0x00\n      dup8\n      dup1\n      extcodesize\n      iszero\n      dup1\n      iszero\n      tag_68\n      jumpi\n      0x00\n      dup1\n      revert\n    tag_68:\n      pop\n      gas\n      call\n      iszero\n      dup1\n      iszero\n      tag_70\n      jumpi\n      returndatasize\n      0x00\n      dup1\n      returndatacopy\n      revert(0x00, returndatasize)\n    tag_70:\n      pop\n      pop\n      pop\n      pop\n        /* \"contracts/Committee.sol\":17159:17162  i++ */\n      dup1\n      dup1\n      0x01\n      add\n      swap2\n      pop\n      pop\n        /* \"contracts/Committee.sol\":17121:17259  for (uint256 i = 0; i < _data.length; i++) {... */\n      jump(tag_62)\n    tag_63:\n      pop\n        /* \"contracts/Committee.sol\":16883:17265  function manageCollection(ICollectionManager _collectionManager, address _forwarder, address _collection, bytes[] memory _data) external {... */\n      pop\n      pop\n      pop\n      pop\n      jump\t// out\n        /* \"contracts/Committee.sol\":2193:2270  function owner() public view returns (address) {... */\n    tag_26:\n        /* \"contracts/Committee.sol\":2231:2238  address */\n      0x00\n        /* \"contracts/Committee.sol\":2257:2263  _owner */\n      dup1\n      0x00\n      swap1\n      sload\n      swap1\n      0x0100\n      exp\n      swap1\n      div\n      0xffffffffffffffffffffffffffffffffffffffff\n      and\n        /* \"contracts/Committee.sol\":2250:2263  return _owner */\n      swap1\n      pop\n        /* \"contracts/Committee.sol\":2193:2270  function owner() public view returns (address) {... */\n      swap1\n      jump\t// out\n        /* \"contracts/Committee.sol\":3110:3350  function transferOwnership(address newOwner) public virtual onlyOwner {... */\n    tag_31:\n        /* \"contracts/Committee.sol\":2407:2419  _msgSender() */\n      tag_73\n        /* \"contracts/Committee.sol\":2407:2417  _msgSender */\n      tag_34\n        /* \"contracts/Committee.sol\":2407:2419  _msgSender() */\n      jump\t// in\n    tag_73:\n        /* \"contracts/Committee.sol\":2397:2419  _owner == _msgSender() */\n      0xffffffffffffffffffffffffffffffffffffffff\n      and\n        /* \"contracts/Committee.sol\":2397:2403  _owner */\n      0x00\n      dup1\n      sload\n      swap1\n      0x0100\n      exp\n      swap1\n      div\n      0xffffffffffffffffffffffffffffffffffffffff\n      and\n        /* \"contracts/Committee.sol\":2397:2419  _owner == _msgSender() */\n      0xffffffffffffffffffffffffffffffffffffffff\n      and\n      eq\n        /* \"contracts/Committee.sol\":2389:2456  require(_owner == _msgSender(), \"Ownable: caller is not the owner\") */\n      tag_74\n      jumpi\n      mload(0x40)\n      0x08c379a000000000000000000000000000000000000000000000000000000000\n      dup2\n      mstore\n      0x04\n      add\n      tag_75\n      swap1\n      tag_37\n      jump\t// in\n    tag_75:\n      mload(0x40)\n      dup1\n      swap2\n      sub\n      swap1\n      revert\n    tag_74:\n        /* \"contracts/Committee.sol\":3218:3219  0 */\n      0x00\n        /* \"contracts/Committee.sol\":3198:3220  newOwner != address(0) */\n      0xffffffffffffffffffffffffffffffffffffffff\n      and\n        /* \"contracts/Committee.sol\":3198:3206  newOwner */\n      dup2\n        /* \"contracts/Committee.sol\":3198:3220  newOwner != address(0) */\n      0xffffffffffffffffffffffffffffffffffffffff\n      and\n      eq\n      iszero\n        /* \"contracts/Committee.sol\":3190:3263  require(newOwner != address(0), \"Ownable: new owner is the zero address\") */\n      tag_77\n      jumpi\n      mload(0x40)\n      0x08c379a000000000000000000000000000000000000000000000000000000000\n      dup2\n      mstore\n      0x04\n      add\n      tag_78\n      swap1\n      tag_79\n      jump\t// in\n    tag_78:\n      mload(0x40)\n      dup1\n      swap2\n      sub\n      swap1\n      revert\n    tag_77:\n        /* \"contracts/Committee.sol\":3307:3315  newOwner */\n      dup1\n        /* \"contracts/Committee.sol\":3278:3316  OwnershipTransferred(_owner, newOwner) */\n      0xffffffffffffffffffffffffffffffffffffffff\n      and\n        /* \"contracts/Committee.sol\":3299:3305  _owner */\n      0x00\n      dup1\n      sload\n      swap1\n      0x0100\n      exp\n      swap1\n      div\n      0xffffffffffffffffffffffffffffffffffffffff\n      and\n        /* \"contracts/Committee.sol\":3278:3316  OwnershipTransferred(_owner, newOwner) */\n      0xffffffffffffffffffffffffffffffffffffffff\n      and\n      0x8be0079c531659141344cd1fd0a4f28419497f9722a3daafe3b4186f6b6457e0\n      mload(0x40)\n      mload(0x40)\n      dup1\n      swap2\n      sub\n      swap1\n      log3\n        /* \"contracts/Committee.sol\":3335:3343  newOwner */\n      dup1\n        /* \"contracts/Committee.sol\":3326:3332  _owner */\n      0x00\n      dup1\n        /* \"contracts/Committee.sol\":3326:3343  _owner = newOwner */\n      0x0100\n      exp\n      dup2\n      sload\n      dup2\n      0xffffffffffffffffffffffffffffffffffffffff\n      mul\n      not\n      and\n      swap1\n      dup4\n      0xffffffffffffffffffffffffffffffffffffffff\n      and\n      mul\n      or\n      swap1\n      sstore\n      pop\n        /* \"contracts/Committee.sol\":3110:3350  function transferOwnership(address newOwner) public virtual onlyOwner {... */\n      pop\n      jump\t// out\n        /* \"contracts/Committee.sol\":453:1092  function _msgSender()... */\n    tag_34:\n        /* \"contracts/Committee.sol\":538:560  address payable sender */\n      0x00\n        /* \"contracts/Committee.sol\":602:606  this */\n      address\n        /* \"contracts/Committee.sol\":580:607  msg.sender == address(this) */\n      0xffffffffffffffffffffffffffffffffffffffff\n      and\n        /* \"contracts/Committee.sol\":580:590  msg.sender */\n      caller\n        /* \"contracts/Committee.sol\":580:607  msg.sender == address(this) */\n      0xffffffffffffffffffffffffffffffffffffffff\n      and\n      eq\n        /* \"contracts/Committee.sol\":576:1063  if (msg.sender == address(this)) {... */\n      iszero\n      tag_81\n      jumpi\n        /* \"contracts/Committee.sol\":623:641  bytes memory array */\n      0x00\n        /* \"contracts/Committee.sol\":644:652  msg.data */\n      dup1\n      calldatasize\n        /* \"contracts/Committee.sol\":623:652  bytes memory array = msg.data */\n      dup1\n      dup1\n      0x1f\n      add\n      0x20\n      dup1\n      swap2\n      div\n      mul\n      0x20\n      add\n      mload(0x40)\n      swap1\n      dup2\n      add\n      0x40\n      mstore\n      dup1\n      swap4\n      swap3\n      swap2\n      swap1\n      dup2\n      dup2\n      mstore\n      0x20\n      add\n      dup4\n      dup4\n      dup1\n      dup3\n      dup5\n      calldatacopy\n      0x00\n      dup2\n      dup5\n      add\n      mstore\n      not(0x1f)\n      0x1f\n      dup3\n      add\n      and\n      swap1\n      pop\n      dup1\n      dup4\n      add\n      swap3\n      pop\n      pop\n      pop\n      pop\n      pop\n      pop\n      pop\n      swap1\n      pop\n        /* \"contracts/Committee.sol\":666:679  uint256 index */\n      0x00\n        /* \"contracts/Committee.sol\":682:690  msg.data */\n      dup1\n      calldatasize\n        /* \"contracts/Committee.sol\":682:697  msg.data.length */\n      swap1\n      pop\n        /* \"contracts/Committee.sol\":666:697  uint256 index = msg.data.length */\n      swap1\n      pop\n        /* \"contracts/Committee.sol\":929:971  0xffffffffffffffffffffffffffffffffffffffff */\n      0xffffffffffffffffffffffffffffffffffffffff\n        /* \"contracts/Committee.sol\":900:905  index */\n      dup2\n        /* \"contracts/Committee.sol\":893:898  array */\n      dup4\n        /* \"contracts/Committee.sol\":889:906  add(array, index) */\n      add\n        /* \"contracts/Committee.sol\":883:907  mload(add(array, index)) */\n      mload\n        /* \"contracts/Committee.sol\":858:989  and(... */\n      and\n        /* \"contracts/Committee.sol\":848:989  sender := and(... */\n      swap3\n      pop\n        /* \"contracts/Committee.sol\":720:1003  {... */\n      pop\n      pop\n      jump(tag_82)\n    tag_81:\n        /* \"contracts/Committee.sol\":1042:1052  msg.sender */\n      caller\n        /* \"contracts/Committee.sol\":1033:1052  sender = msg.sender */\n      swap1\n      pop\n        /* \"contracts/Committee.sol\":576:1063  if (msg.sender == address(this)) {... */\n    tag_82:\n        /* \"contracts/Committee.sol\":453:1092  function _msgSender()... */\n      swap1\n      jump\t// out\n        /* \"contracts/Committee.sol\":16477:16620  function _setMember(address _member, bool _value) internal {... */\n    tag_51:\n        /* \"contracts/Committee.sol\":16565:16571  _value */\n      dup1\n        /* \"contracts/Committee.sol\":16546:16553  members */\n      0x01\n        /* \"contracts/Committee.sol\":16546:16562  members[_member] */\n      0x00\n        /* \"contracts/Committee.sol\":16554:16561  _member */\n      dup5\n        /* \"contracts/Committee.sol\":16546:16562  members[_member] */\n      0xffffffffffffffffffffffffffffffffffffffff\n      and\n      0xffffffffffffffffffffffffffffffffffffffff\n      and\n      dup2\n      mstore\n      0x20\n      add\n      swap1\n      dup2\n      mstore\n      0x20\n      add\n      0x00\n      keccak256\n      0x00\n        /* \"contracts/Committee.sol\":16546:16571  members[_member] = _value */\n      0x0100\n      exp\n      dup2\n      sload\n      dup2\n      0xff\n      mul\n      not\n      and\n      swap1\n      dup4\n      iszero\n      iszero\n      mul\n      or\n      swap1\n      sstore\n      pop\n        /* \"contracts/Committee.sol\":16597:16604  _member */\n      dup2\n        /* \"contracts/Committee.sol\":16587:16613  MemberSet(_member, _value) */\n      0xffffffffffffffffffffffffffffffffffffffff\n      and\n      0x4efc5168d98ad88d2d4784344a20876aea2fa3e8aa503b5fb3164a09019ca3d6\n        /* \"contracts/Committee.sol\":16606:16612  _value */\n      dup3\n        /* \"contracts/Committee.sol\":16587:16613  MemberSet(_member, _value) */\n      mload(0x40)\n      tag_84\n      swap2\n      swap1\n      tag_14\n      jump\t// in\n    tag_84:\n      mload(0x40)\n      dup1\n      swap2\n      sub\n      swap1\n      log2\n        /* \"contracts/Committee.sol\":16477:16620  function _setMember(address _member, bool _value) internal {... */\n      pop\n      pop\n      jump\t// out\n        /* \"#utility.yul\":22:634   */\n    tag_86:\n      0x00\n        /* \"#utility.yul\":152:241   */\n      tag_88\n        /* \"#utility.yul\":167:240   */\n      tag_89\n        /* \"#utility.yul\":233:239   */\n      dup5\n        /* \"#utility.yul\":167:240   */\n      tag_90\n      jump\t// in\n    tag_89:\n        /* \"#utility.yul\":152:241   */\n      tag_91\n      jump\t// in\n    tag_88:\n        /* \"#utility.yul\":143:241   */\n      swap1\n      pop\n        /* \"#utility.yul\":261:266   */\n      dup1\n        /* \"#utility.yul\":289:295   */\n      dup4\n        /* \"#utility.yul\":282:287   */\n      dup3\n        /* \"#utility.yul\":275:296   */\n      mstore\n        /* \"#utility.yul\":315:319   */\n      0x20\n        /* \"#utility.yul\":308:313   */\n      dup3\n        /* \"#utility.yul\":304:320   */\n      add\n        /* \"#utility.yul\":297:320   */\n      swap1\n      pop\n        /* \"#utility.yul\":340:346   */\n      dup3\n        /* \"#utility.yul\":371:372   */\n      0x00\n        /* \"#utility.yul\":356:628   */\n    tag_92:\n        /* \"#utility.yul\":381:387   */\n      dup6\n        /* \"#utility.yul\":378:379   */\n      dup2\n        /* \"#utility.yul\":375:388   */\n      lt\n        /* \"#utility.yul\":356:628   */\n      iszero\n      tag_94\n      jumpi\n        /* \"#utility.yul\":473:476   */\n      dup2\n        /* \"#utility.yul\":460:477   */\n      calldataload\n        /* \"#utility.yul\":452:458   */\n      dup6\n        /* \"#utility.yul\":448:478   */\n      add\n        /* \"#utility.yul\":503:549   */\n      tag_95\n        /* \"#utility.yul\":545:548   */\n      dup9\n        /* \"#utility.yul\":533:543   */\n      dup3\n        /* \"#utility.yul\":503:549   */\n      tag_96\n      jump\t// in\n    tag_95:\n        /* \"#utility.yul\":498:501   */\n      dup5\n        /* \"#utility.yul\":491:550   */\n      mstore\n        /* \"#utility.yul\":579:583   */\n      0x20\n        /* \"#utility.yul\":574:577   */\n      dup5\n        /* \"#utility.yul\":570:584   */\n      add\n        /* \"#utility.yul\":563:584   */\n      swap4\n      pop\n        /* \"#utility.yul\":613:617   */\n      0x20\n        /* \"#utility.yul\":608:611   */\n      dup4\n        /* \"#utility.yul\":604:618   */\n      add\n        /* \"#utility.yul\":597:618   */\n      swap3\n      pop\n        /* \"#utility.yul\":416:628   */\n      pop\n        /* \"#utility.yul\":403:404   */\n      0x01\n        /* \"#utility.yul\":400:401   */\n      dup2\n        /* \"#utility.yul\":396:405   */\n      add\n        /* \"#utility.yul\":391:405   */\n      swap1\n      pop\n        /* \"#utility.yul\":356:628   */\n      jump(tag_92)\n    tag_94:\n        /* \"#utility.yul\":360:374   */\n      pop\n        /* \"#utility.yul\":133:634   */\n      pop\n      pop\n      swap4\n      swap3\n      pop\n      pop\n      pop\n      jump\t// out\n        /* \"#utility.yul\":640:982   */\n    tag_97:\n      0x00\n        /* \"#utility.yul\":742:806   */\n      tag_99\n        /* \"#utility.yul\":757:805   */\n      tag_100\n        /* \"#utility.yul\":798:804   */\n      dup5\n        /* \"#utility.yul\":757:805   */\n      tag_101\n      jump\t// in\n    tag_100:\n        /* \"#utility.yul\":742:806   */\n      tag_91\n      jump\t// in\n    tag_99:\n        /* \"#utility.yul\":733:806   */\n      swap1\n      pop\n        /* \"#utility.yul\":829:835   */\n      dup3\n        /* \"#utility.yul\":822:827   */\n      dup2\n        /* \"#utility.yul\":815:836   */\n      mstore\n        /* \"#utility.yul\":867:871   */\n      0x20\n        /* \"#utility.yul\":860:865   */\n      dup2\n        /* \"#utility.yul\":856:872   */\n      add\n        /* \"#utility.yul\":905:908   */\n      dup5\n        /* \"#utility.yul\":896:902   */\n      dup5\n        /* \"#utility.yul\":891:894   */\n      dup5\n        /* \"#utility.yul\":887:903   */\n      add\n        /* \"#utility.yul\":884:909   */\n      gt\n        /* \"#utility.yul\":881:883   */\n      iszero\n      tag_102\n      jumpi\n        /* \"#utility.yul\":922:923   */\n      0x00\n        /* \"#utility.yul\":919:920   */\n      dup1\n        /* \"#utility.yul\":912:924   */\n      revert\n        /* \"#utility.yul\":881:883   */\n    tag_102:\n        /* \"#utility.yul\":935:976   */\n      tag_103\n        /* \"#utility.yul\":969:975   */\n      dup5\n        /* \"#utility.yul\":964:967   */\n      dup3\n        /* \"#utility.yul\":959:962   */\n      dup6\n        /* \"#utility.yul\":935:976   */\n      tag_104\n      jump\t// in\n    tag_103:\n        /* \"#utility.yul\":723:982   */\n      pop\n      swap4\n      swap3\n      pop\n      pop\n      pop\n      jump\t// out\n        /* \"#utility.yul\":988:1127   */\n    tag_105:\n      0x00\n        /* \"#utility.yul\":1072:1078   */\n      dup2\n        /* \"#utility.yul\":1059:1079   */\n      calldataload\n        /* \"#utility.yul\":1050:1079   */\n      swap1\n      pop\n        /* \"#utility.yul\":1088:1121   */\n      tag_107\n        /* \"#utility.yul\":1115:1120   */\n      dup2\n        /* \"#utility.yul\":1088:1121   */\n      tag_108\n      jump\t// in\n    tag_107:\n        /* \"#utility.yul\":1040:1127   */\n      swap3\n      swap2\n      pop\n      pop\n      jump\t// out\n        /* \"#utility.yul\":1150:1517   */\n    tag_109:\n      0x00\n      dup1\n        /* \"#utility.yul\":1283:1286   */\n      dup4\n        /* \"#utility.yul\":1276:1280   */\n      0x1f\n        /* \"#utility.yul\":1268:1274   */\n      dup5\n        /* \"#utility.yul\":1264:1281   */\n      add\n        /* \"#utility.yul\":1260:1287   */\n      slt\n        /* \"#utility.yul\":1250:1252   */\n      tag_111\n      jumpi\n        /* \"#utility.yul\":1301:1302   */\n      0x00\n        /* \"#utility.yul\":1298:1299   */\n      dup1\n        /* \"#utility.yul\":1291:1303   */\n      revert\n        /* \"#utility.yul\":1250:1252   */\n    tag_111:\n        /* \"#utility.yul\":1337:1343   */\n      dup3\n        /* \"#utility.yul\":1324:1344   */\n      calldataload\n        /* \"#utility.yul\":1314:1344   */\n      swap1\n      pop\n        /* \"#utility.yul\":1367:1385   */\n      0xffffffffffffffff\n        /* \"#utility.yul\":1359:1365   */\n      dup2\n        /* \"#utility.yul\":1356:1386   */\n      gt\n        /* \"#utility.yul\":1353:1355   */\n      iszero\n      tag_112\n      jumpi\n        /* \"#utility.yul\":1399:1400   */\n      0x00\n        /* \"#utility.yul\":1396:1397   */\n      dup1\n        /* \"#utility.yul\":1389:1401   */\n      revert\n        /* \"#utility.yul\":1353:1355   */\n    tag_112:\n        /* \"#utility.yul\":1436:1440   */\n      0x20\n        /* \"#utility.yul\":1428:1434   */\n      dup4\n        /* \"#utility.yul\":1424:1441   */\n      add\n        /* \"#utility.yul\":1412:1441   */\n      swap2\n      pop\n        /* \"#utility.yul\":1490:1493   */\n      dup4\n        /* \"#utility.yul\":1482:1486   */\n      0x20\n        /* \"#utility.yul\":1474:1480   */\n      dup3\n        /* \"#utility.yul\":1470:1487   */\n      mul\n        /* \"#utility.yul\":1460:1468   */\n      dup4\n        /* \"#utility.yul\":1456:1488   */\n      add\n        /* \"#utility.yul\":1453:1494   */\n      gt\n        /* \"#utility.yul\":1450:1452   */\n      iszero\n      tag_113\n      jumpi\n        /* \"#utility.yul\":1507:1508   */\n      0x00\n        /* \"#utility.yul\":1504:1505   */\n      dup1\n        /* \"#utility.yul\":1497:1509   */\n      revert\n        /* \"#utility.yul\":1450:1452   */\n    tag_113:\n        /* \"#utility.yul\":1240:1517   */\n      swap3\n      pop\n      swap3\n      swap1\n      pop\n      jump\t// out\n        /* \"#utility.yul\":1537:1901   */\n    tag_114:\n      0x00\n      dup1\n        /* \"#utility.yul\":1667:1670   */\n      dup4\n        /* \"#utility.yul\":1660:1664   */\n      0x1f\n        /* \"#utility.yul\":1652:1658   */\n      dup5\n        /* \"#utility.yul\":1648:1665   */\n      add\n        /* \"#utility.yul\":1644:1671   */\n      slt\n        /* \"#utility.yul\":1634:1636   */\n      tag_116\n      jumpi\n        /* \"#utility.yul\":1685:1686   */\n      0x00\n        /* \"#utility.yul\":1682:1683   */\n      dup1\n        /* \"#utility.yul\":1675:1687   */\n      revert\n        /* \"#utility.yul\":1634:1636   */\n    tag_116:\n        /* \"#utility.yul\":1721:1727   */\n      dup3\n        /* \"#utility.yul\":1708:1728   */\n      calldataload\n        /* \"#utility.yul\":1698:1728   */\n      swap1\n      pop\n        /* \"#utility.yul\":1751:1769   */\n      0xffffffffffffffff\n        /* \"#utility.yul\":1743:1749   */\n      dup2\n        /* \"#utility.yul\":1740:1770   */\n      gt\n        /* \"#utility.yul\":1737:1739   */\n      iszero\n      tag_117\n      jumpi\n        /* \"#utility.yul\":1783:1784   */\n      0x00\n        /* \"#utility.yul\":1780:1781   */\n      dup1\n        /* \"#utility.yul\":1773:1785   */\n      revert\n        /* \"#utility.yul\":1737:1739   */\n    tag_117:\n        /* \"#utility.yul\":1820:1824   */\n      0x20\n        /* \"#utility.yul\":1812:1818   */\n      dup4\n        /* \"#utility.yul\":1808:1825   */\n      add\n        /* \"#utility.yul\":1796:1825   */\n      swap2\n      pop\n        /* \"#utility.yul\":1874:1877   */\n      dup4\n        /* \"#utility.yul\":1866:1870   */\n      0x20\n        /* \"#utility.yul\":1858:1864   */\n      dup3\n        /* \"#utility.yul\":1854:1871   */\n      mul\n        /* \"#utility.yul\":1844:1852   */\n      dup4\n        /* \"#utility.yul\":1840:1872   */\n      add\n        /* \"#utility.yul\":1837:1878   */\n      gt\n        /* \"#utility.yul\":1834:1836   */\n      iszero\n      tag_118\n      jumpi\n        /* \"#utility.yul\":1891:1892   */\n      0x00\n        /* \"#utility.yul\":1888:1889   */\n      dup1\n        /* \"#utility.yul\":1881:1893   */\n      revert\n        /* \"#utility.yul\":1834:1836   */\n    tag_118:\n        /* \"#utility.yul\":1624:1901   */\n      swap3\n      pop\n      swap3\n      swap1\n      pop\n      jump\t// out\n        /* \"#utility.yul\":1922:2243   */\n    tag_119:\n      0x00\n        /* \"#utility.yul\":2051:2054   */\n      dup3\n        /* \"#utility.yul\":2044:2048   */\n      0x1f\n        /* \"#utility.yul\":2036:2042   */\n      dup4\n        /* \"#utility.yul\":2032:2049   */\n      add\n        /* \"#utility.yul\":2028:2055   */\n      slt\n        /* \"#utility.yul\":2018:2020   */\n      tag_121\n      jumpi\n        /* \"#utility.yul\":2069:2070   */\n      0x00\n        /* \"#utility.yul\":2066:2067   */\n      dup1\n        /* \"#utility.yul\":2059:2071   */\n      revert\n        /* \"#utility.yul\":2018:2020   */\n    tag_121:\n        /* \"#utility.yul\":2109:2115   */\n      dup2\n        /* \"#utility.yul\":2096:2116   */\n      calldataload\n        /* \"#utility.yul\":2134:2237   */\n      tag_122\n        /* \"#utility.yul\":2233:2236   */\n      dup5\n        /* \"#utility.yul\":2225:2231   */\n      dup3\n        /* \"#utility.yul\":2218:2222   */\n      0x20\n        /* \"#utility.yul\":2210:2216   */\n      dup7\n        /* \"#utility.yul\":2206:2223   */\n      add\n        /* \"#utility.yul\":2134:2237   */\n      tag_86\n      jump\t// in\n    tag_122:\n        /* \"#utility.yul\":2125:2237   */\n      swap2\n      pop\n        /* \"#utility.yul\":2008:2243   */\n      pop\n      swap3\n      swap2\n      pop\n      pop\n      jump\t// out\n        /* \"#utility.yul\":2249:2382   */\n    tag_123:\n      0x00\n        /* \"#utility.yul\":2330:2336   */\n      dup2\n        /* \"#utility.yul\":2317:2337   */\n      calldataload\n        /* \"#utility.yul\":2308:2337   */\n      swap1\n      pop\n        /* \"#utility.yul\":2346:2376   */\n      tag_125\n        /* \"#utility.yul\":2370:2375   */\n      dup2\n        /* \"#utility.yul\":2346:2376   */\n      tag_126\n      jump\t// in\n    tag_125:\n        /* \"#utility.yul\":2298:2382   */\n      swap3\n      swap2\n      pop\n      pop\n      jump\t// out\n        /* \"#utility.yul\":2401:2672   */\n    tag_96:\n      0x00\n        /* \"#utility.yul\":2505:2508   */\n      dup3\n        /* \"#utility.yul\":2498:2502   */\n      0x1f\n        /* \"#utility.yul\":2490:2496   */\n      dup4\n        /* \"#utility.yul\":2486:2503   */\n      add\n        /* \"#utility.yul\":2482:2509   */\n      slt\n        /* \"#utility.yul\":2472:2474   */\n      tag_128\n      jumpi\n        /* \"#utility.yul\":2523:2524   */\n      0x00\n        /* \"#utility.yul\":2520:2521   */\n      dup1\n        /* \"#utility.yul\":2513:2525   */\n      revert\n        /* \"#utility.yul\":2472:2474   */\n    tag_128:\n        /* \"#utility.yul\":2563:2569   */\n      dup2\n        /* \"#utility.yul\":2550:2570   */\n      calldataload\n        /* \"#utility.yul\":2588:2666   */\n      tag_129\n        /* \"#utility.yul\":2662:2665   */\n      dup5\n        /* \"#utility.yul\":2654:2660   */\n      dup3\n        /* \"#utility.yul\":2647:2651   */\n      0x20\n        /* \"#utility.yul\":2639:2645   */\n      dup7\n        /* \"#utility.yul\":2635:2652   */\n      add\n        /* \"#utility.yul\":2588:2666   */\n      tag_97\n      jump\t// in\n    tag_129:\n        /* \"#utility.yul\":2579:2666   */\n      swap2\n      pop\n        /* \"#utility.yul\":2462:2672   */\n      pop\n      swap3\n      swap2\n      pop\n      pop\n      jump\t// out\n        /* \"#utility.yul\":2678:2867   */\n    tag_130:\n      0x00\n        /* \"#utility.yul\":2787:2793   */\n      dup2\n        /* \"#utility.yul\":2774:2794   */\n      calldataload\n        /* \"#utility.yul\":2765:2794   */\n      swap1\n      pop\n        /* \"#utility.yul\":2803:2861   */\n      tag_132\n        /* \"#utility.yul\":2855:2860   */\n      dup2\n        /* \"#utility.yul\":2803:2861   */\n      tag_133\n      jump\t// in\n    tag_132:\n        /* \"#utility.yul\":2755:2867   */\n      swap3\n      swap2\n      pop\n      pop\n      jump\t// out\n        /* \"#utility.yul\":2873:3135   */\n    tag_11:\n      0x00\n        /* \"#utility.yul\":2981:2983   */\n      0x20\n        /* \"#utility.yul\":2969:2978   */\n      dup3\n        /* \"#utility.yul\":2960:2967   */\n      dup5\n        /* \"#utility.yul\":2956:2979   */\n      sub\n        /* \"#utility.yul\":2952:2984   */\n      slt\n        /* \"#utility.yul\":2949:2951   */\n      iszero\n      tag_135\n      jumpi\n        /* \"#utility.yul\":2997:2998   */\n      0x00\n        /* \"#utility.yul\":2994:2995   */\n      dup1\n        /* \"#utility.yul\":2987:2999   */\n      revert\n        /* \"#utility.yul\":2949:2951   */\n    tag_135:\n        /* \"#utility.yul\":3040:3041   */\n      0x00\n        /* \"#utility.yul\":3065:3118   */\n      tag_136\n        /* \"#utility.yul\":3110:3117   */\n      dup5\n        /* \"#utility.yul\":3101:3107   */\n      dup3\n        /* \"#utility.yul\":3090:3099   */\n      dup6\n        /* \"#utility.yul\":3086:3108   */\n      add\n        /* \"#utility.yul\":3065:3118   */\n      tag_105\n      jump\t// in\n    tag_136:\n        /* \"#utility.yul\":3055:3118   */\n      swap2\n      pop\n        /* \"#utility.yul\":3011:3128   */\n      pop\n        /* \"#utility.yul\":2939:3135   */\n      swap3\n      swap2\n      pop\n      pop\n      jump\t// out\n        /* \"#utility.yul\":3141:3868   */\n    tag_17:\n      0x00\n      dup1\n      0x00\n      dup1\n        /* \"#utility.yul\":3333:3335   */\n      0x40\n        /* \"#utility.yul\":3321:3330   */\n      dup6\n        /* \"#utility.yul\":3312:3319   */\n      dup8\n        /* \"#utility.yul\":3308:3331   */\n      sub\n        /* \"#utility.yul\":3304:3336   */\n      slt\n        /* \"#utility.yul\":3301:3303   */\n      iszero\n      tag_138\n      jumpi\n        /* \"#utility.yul\":3349:3350   */\n      0x00\n        /* \"#utility.yul\":3346:3347   */\n      dup1\n        /* \"#utility.yul\":3339:3351   */\n      revert\n        /* \"#utility.yul\":3301:3303   */\n    tag_138:\n        /* \"#utility.yul\":3420:3421   */\n      0x00\n        /* \"#utility.yul\":3409:3418   */\n      dup6\n        /* \"#utility.yul\":3405:3422   */\n      add\n        /* \"#utility.yul\":3392:3423   */\n      calldataload\n        /* \"#utility.yul\":3450:3468   */\n      0xffffffffffffffff\n        /* \"#utility.yul\":3442:3448   */\n      dup2\n        /* \"#utility.yul\":3439:3469   */\n      gt\n        /* \"#utility.yul\":3436:3438   */\n      iszero\n      tag_139\n      jumpi\n        /* \"#utility.yul\":3482:3483   */\n      0x00\n        /* \"#utility.yul\":3479:3480   */\n      dup1\n        /* \"#utility.yul\":3472:3484   */\n      revert\n        /* \"#utility.yul\":3436:3438   */\n    tag_139:\n        /* \"#utility.yul\":3518:3598   */\n      tag_140\n        /* \"#utility.yul\":3590:3597   */\n      dup8\n        /* \"#utility.yul\":3581:3587   */\n      dup3\n        /* \"#utility.yul\":3570:3579   */\n      dup9\n        /* \"#utility.yul\":3566:3588   */\n      add\n        /* \"#utility.yul\":3518:3598   */\n      tag_109\n      jump\t// in\n    tag_140:\n        /* \"#utility.yul\":3500:3598   */\n      swap5\n      pop\n      swap5\n      pop\n        /* \"#utility.yul\":3363:3608   */\n      pop\n        /* \"#utility.yul\":3675:3677   */\n      0x20\n        /* \"#utility.yul\":3664:3673   */\n      dup6\n        /* \"#utility.yul\":3660:3678   */\n      add\n        /* \"#utility.yul\":3647:3679   */\n      calldataload\n        /* \"#utility.yul\":3706:3724   */\n      0xffffffffffffffff\n        /* \"#utility.yul\":3698:3704   */\n      dup2\n        /* \"#utility.yul\":3695:3725   */\n      gt\n        /* \"#utility.yul\":3692:3694   */\n      iszero\n      tag_141\n      jumpi\n        /* \"#utility.yul\":3738:3739   */\n      0x00\n        /* \"#utility.yul\":3735:3736   */\n      dup1\n        /* \"#utility.yul\":3728:3740   */\n      revert\n        /* \"#utility.yul\":3692:3694   */\n    tag_141:\n        /* \"#utility.yul\":3774:3851   */\n      tag_142\n        /* \"#utility.yul\":3843:3850   */\n      dup8\n        /* \"#utility.yul\":3834:3840   */\n      dup3\n        /* \"#utility.yul\":3823:3832   */\n      dup9\n        /* \"#utility.yul\":3819:3841   */\n      add\n        /* \"#utility.yul\":3774:3851   */\n      tag_114\n      jump\t// in\n    tag_142:\n        /* \"#utility.yul\":3756:3851   */\n      swap3\n      pop\n      swap3\n      pop\n        /* \"#utility.yul\":3618:3861   */\n      pop\n        /* \"#utility.yul\":3291:3868   */\n      swap3\n      swap6\n      swap2\n      swap5\n      pop\n      swap3\n      pop\n      jump\t// out\n        /* \"#utility.yul\":3874:4130   */\n    tag_50:\n      0x00\n        /* \"#utility.yul\":3979:3981   */\n      0x20\n        /* \"#utility.yul\":3967:3976   */\n      dup3\n        /* \"#utility.yul\":3958:3965   */\n      dup5\n        /* \"#utility.yul\":3954:3977   */\n      sub\n        /* \"#utility.yul\":3950:3982   */\n      slt\n        /* \"#utility.yul\":3947:3949   */\n      iszero\n      tag_144\n      jumpi\n        /* \"#utility.yul\":3995:3996   */\n      0x00\n        /* \"#utility.yul\":3992:3993   */\n      dup1\n        /* \"#utility.yul\":3985:3997   */\n      revert\n        /* \"#utility.yul\":3947:3949   */\n    tag_144:\n        /* \"#utility.yul\":4038:4039   */\n      0x00\n        /* \"#utility.yul\":4063:4113   */\n      tag_145\n        /* \"#utility.yul\":4105:4112   */\n      dup5\n        /* \"#utility.yul\":4096:4102   */\n      dup3\n        /* \"#utility.yul\":4085:4094   */\n      dup6\n        /* \"#utility.yul\":4081:4103   */\n      add\n        /* \"#utility.yul\":4063:4113   */\n      tag_123\n      jump\t// in\n    tag_145:\n        /* \"#utility.yul\":4053:4113   */\n      swap2\n      pop\n        /* \"#utility.yul\":4009:4123   */\n      pop\n        /* \"#utility.yul\":3937:4130   */\n      swap3\n      swap2\n      pop\n      pop\n      jump\t// out\n        /* \"#utility.yul\":4136:5045   */\n    tag_23:\n      0x00\n      dup1\n      0x00\n      dup1\n        /* \"#utility.yul\":4354:4357   */\n      0x80\n        /* \"#utility.yul\":4342:4351   */\n      dup6\n        /* \"#utility.yul\":4333:4340   */\n      dup8\n        /* \"#utility.yul\":4329:4352   */\n      sub\n        /* \"#utility.yul\":4325:4358   */\n      slt\n        /* \"#utility.yul\":4322:4324   */\n      iszero\n      tag_147\n      jumpi\n        /* \"#utility.yul\":4371:4372   */\n      0x00\n        /* \"#utility.yul\":4368:4369   */\n      dup1\n        /* \"#utility.yul\":4361:4373   */\n      revert\n        /* \"#utility.yul\":4322:4324   */\n    tag_147:\n        /* \"#utility.yul\":4414:4415   */\n      0x00\n        /* \"#utility.yul\":4439:4517   */\n      tag_148\n        /* \"#utility.yul\":4509:4516   */\n      dup8\n        /* \"#utility.yul\":4500:4506   */\n      dup3\n        /* \"#utility.yul\":4489:4498   */\n      dup9\n        /* \"#utility.yul\":4485:4507   */\n      add\n        /* \"#utility.yul\":4439:4517   */\n      tag_130\n      jump\t// in\n    tag_148:\n        /* \"#utility.yul\":4429:4517   */\n      swap5\n      pop\n        /* \"#utility.yul\":4385:4527   */\n      pop\n        /* \"#utility.yul\":4566:4568   */\n      0x20\n        /* \"#utility.yul\":4592:4645   */\n      tag_149\n        /* \"#utility.yul\":4637:4644   */\n      dup8\n        /* \"#utility.yul\":4628:4634   */\n      dup3\n        /* \"#utility.yul\":4617:4626   */\n      dup9\n        /* \"#utility.yul\":4613:4635   */\n      add\n        /* \"#utility.yul\":4592:4645   */\n      tag_105\n      jump\t// in\n    tag_149:\n        /* \"#utility.yul\":4582:4645   */\n      swap4\n      pop\n        /* \"#utility.yul\":4537:4655   */\n      pop\n        /* \"#utility.yul\":4694:4696   */\n      0x40\n        /* \"#utility.yul\":4720:4773   */\n      tag_150\n        /* \"#utility.yul\":4765:4772   */\n      dup8\n        /* \"#utility.yul\":4756:4762   */\n      dup3\n        /* \"#utility.yul\":4745:4754   */\n      dup9\n        /* \"#utility.yul\":4741:4763   */\n      add\n        /* \"#utility.yul\":4720:4773   */\n      tag_105\n      jump\t// in\n    tag_150:\n        /* \"#utility.yul\":4710:4773   */\n      swap3\n      pop\n        /* \"#utility.yul\":4665:4783   */\n      pop\n        /* \"#utility.yul\":4850:4852   */\n      0x60\n        /* \"#utility.yul\":4839:4848   */\n      dup6\n        /* \"#utility.yul\":4835:4853   */\n      add\n        /* \"#utility.yul\":4822:4854   */\n      calldataload\n        /* \"#utility.yul\":4881:4899   */\n      0xffffffffffffffff\n        /* \"#utility.yul\":4873:4879   */\n      dup2\n        /* \"#utility.yul\":4870:4900   */\n      gt\n        /* \"#utility.yul\":4867:4869   */\n      iszero\n      tag_151\n      jumpi\n        /* \"#utility.yul\":4913:4914   */\n      0x00\n        /* \"#utility.yul\":4910:4911   */\n      dup1\n        /* \"#utility.yul\":4903:4915   */\n      revert\n        /* \"#utility.yul\":4867:4869   */\n    tag_151:\n        /* \"#utility.yul\":4941:5028   */\n      tag_152\n        /* \"#utility.yul\":5020:5027   */\n      dup8\n        /* \"#utility.yul\":5011:5017   */\n      dup3\n        /* \"#utility.yul\":5000:5009   */\n      dup9\n        /* \"#utility.yul\":4996:5018   */\n      add\n        /* \"#utility.yul\":4941:5028   */\n      tag_119\n      jump\t// in\n    tag_152:\n        /* \"#utility.yul\":4931:5028   */\n      swap2\n      pop\n        /* \"#utility.yul\":4793:5038   */\n      pop\n        /* \"#utility.yul\":4312:5045   */\n      swap3\n      swap6\n      swap2\n      swap5\n      pop\n      swap3\n      pop\n      jump\t// out\n        /* \"#utility.yul\":5051:5169   */\n    tag_153:\n        /* \"#utility.yul\":5138:5162   */\n      tag_155\n        /* \"#utility.yul\":5156:5161   */\n      dup2\n        /* \"#utility.yul\":5138:5162   */\n      tag_156\n      jump\t// in\n    tag_155:\n        /* \"#utility.yul\":5133:5136   */\n      dup3\n        /* \"#utility.yul\":5126:5163   */\n      mstore\n        /* \"#utility.yul\":5116:5169   */\n      pop\n      pop\n      jump\t// out\n        /* \"#utility.yul\":5175:5284   */\n    tag_157:\n        /* \"#utility.yul\":5256:5277   */\n      tag_159\n        /* \"#utility.yul\":5271:5276   */\n      dup2\n        /* \"#utility.yul\":5256:5277   */\n      tag_160\n      jump\t// in\n    tag_159:\n        /* \"#utility.yul\":5251:5254   */\n      dup3\n        /* \"#utility.yul\":5244:5278   */\n      mstore\n        /* \"#utility.yul\":5234:5284   */\n      pop\n      pop\n      jump\t// out\n        /* \"#utility.yul\":5290:5650   */\n    tag_161:\n      0x00\n        /* \"#utility.yul\":5404:5442   */\n      tag_163\n        /* \"#utility.yul\":5436:5441   */\n      dup3\n        /* \"#utility.yul\":5404:5442   */\n      tag_164\n      jump\t// in\n    tag_163:\n        /* \"#utility.yul\":5458:5528   */\n      tag_165\n        /* \"#utility.yul\":5521:5527   */\n      dup2\n        /* \"#utility.yul\":5516:5519   */\n      dup6\n        /* \"#utility.yul\":5458:5528   */\n      tag_166\n      jump\t// in\n    tag_165:\n        /* \"#utility.yul\":5451:5528   */\n      swap4\n      pop\n        /* \"#utility.yul\":5537:5589   */\n      tag_167\n        /* \"#utility.yul\":5582:5588   */\n      dup2\n        /* \"#utility.yul\":5577:5580   */\n      dup6\n        /* \"#utility.yul\":5570:5574   */\n      0x20\n        /* \"#utility.yul\":5563:5568   */\n      dup7\n        /* \"#utility.yul\":5559:5575   */\n      add\n        /* \"#utility.yul\":5537:5589   */\n      tag_168\n      jump\t// in\n    tag_167:\n        /* \"#utility.yul\":5614:5643   */\n      tag_169\n        /* \"#utility.yul\":5636:5642   */\n      dup2\n        /* \"#utility.yul\":5614:5643   */\n      tag_170\n      jump\t// in\n    tag_169:\n        /* \"#utility.yul\":5609:5612   */\n      dup5\n        /* \"#utility.yul\":5605:5644   */\n      add\n        /* \"#utility.yul\":5598:5644   */\n      swap2\n      pop\n        /* \"#utility.yul\":5380:5650   */\n      pop\n      swap3\n      swap2\n      pop\n      pop\n      jump\t// out\n        /* \"#utility.yul\":5656:6026   */\n    tag_171:\n      0x00\n        /* \"#utility.yul\":5819:5886   */\n      tag_173\n        /* \"#utility.yul\":5883:5885   */\n      0x26\n        /* \"#utility.yul\":5878:5881   */\n      dup4\n        /* \"#utility.yul\":5819:5886   */\n      tag_174\n      jump\t// in\n    tag_173:\n        /* \"#utility.yul\":5812:5886   */\n      swap2\n      pop\n        /* \"#utility.yul\":5916:5950   */\n      0x4f776e61626c653a206e6577206f776e657220697320746865207a65726f2061\n        /* \"#utility.yul\":5912:5913   */\n      0x00\n        /* \"#utility.yul\":5907:5910   */\n      dup4\n        /* \"#utility.yul\":5903:5914   */\n      add\n        /* \"#utility.yul\":5896:5951   */\n      mstore\n        /* \"#utility.yul\":5982:5990   */\n      0x6464726573730000000000000000000000000000000000000000000000000000\n        /* \"#utility.yul\":5977:5979   */\n      0x20\n        /* \"#utility.yul\":5972:5975   */\n      dup4\n        /* \"#utility.yul\":5968:5980   */\n      add\n        /* \"#utility.yul\":5961:5991   */\n      mstore\n        /* \"#utility.yul\":6017:6019   */\n      0x40\n        /* \"#utility.yul\":6012:6015   */\n      dup3\n        /* \"#utility.yul\":6008:6020   */\n      add\n        /* \"#utility.yul\":6001:6020   */\n      swap1\n      pop\n        /* \"#utility.yul\":5802:6026   */\n      swap2\n      swap1\n      pop\n      jump\t// out\n        /* \"#utility.yul\":6032:6411   */\n    tag_175:\n      0x00\n        /* \"#utility.yul\":6195:6262   */\n      tag_177\n        /* \"#utility.yul\":6259:6261   */\n      0x2f\n        /* \"#utility.yul\":6254:6257   */\n      dup4\n        /* \"#utility.yul\":6195:6262   */\n      tag_174\n      jump\t// in\n    tag_177:\n        /* \"#utility.yul\":6188:6262   */\n      swap2\n      pop\n        /* \"#utility.yul\":6292:6326   */\n      0x436f6d6d6974746565236d616e616765436f6c6c656374696f6e3a20554e4155\n        /* \"#utility.yul\":6288:6289   */\n      0x00\n        /* \"#utility.yul\":6283:6286   */\n      dup4\n        /* \"#utility.yul\":6279:6290   */\n      add\n        /* \"#utility.yul\":6272:6327   */\n      mstore\n        /* \"#utility.yul\":6358:6375   */\n      0x54484f52495a45445f53454e4445520000000000000000000000000000000000\n        /* \"#utility.yul\":6353:6355   */\n      0x20\n        /* \"#utility.yul\":6348:6351   */\n      dup4\n        /* \"#utility.yul\":6344:6356   */\n      add\n        /* \"#utility.yul\":6337:6376   */\n      mstore\n        /* \"#utility.yul\":6402:6404   */\n      0x40\n        /* \"#utility.yul\":6397:6400   */\n      dup3\n        /* \"#utility.yul\":6393:6405   */\n      add\n        /* \"#utility.yul\":6386:6405   */\n      swap1\n      pop\n        /* \"#utility.yul\":6178:6411   */\n      swap2\n      swap1\n      pop\n      jump\t// out\n        /* \"#utility.yul\":6417:6747   */\n    tag_178:\n      0x00\n        /* \"#utility.yul\":6580:6647   */\n      tag_180\n        /* \"#utility.yul\":6644:6646   */\n      0x20\n        /* \"#utility.yul\":6639:6642   */\n      dup4\n        /* \"#utility.yul\":6580:6647   */\n      tag_174\n      jump\t// in\n    tag_180:\n        /* \"#utility.yul\":6573:6647   */\n      swap2\n      pop\n        /* \"#utility.yul\":6677:6711   */\n      0x4f776e61626c653a2063616c6c6572206973206e6f7420746865206f776e6572\n        /* \"#utility.yul\":6673:6674   */\n      0x00\n        /* \"#utility.yul\":6668:6671   */\n      dup4\n        /* \"#utility.yul\":6664:6675   */\n      add\n        /* \"#utility.yul\":6657:6712   */\n      mstore\n        /* \"#utility.yul\":6738:6740   */\n      0x20\n        /* \"#utility.yul\":6733:6736   */\n      dup3\n        /* \"#utility.yul\":6729:6741   */\n      add\n        /* \"#utility.yul\":6722:6741   */\n      swap1\n      pop\n        /* \"#utility.yul\":6563:6747   */\n      swap2\n      swap1\n      pop\n      jump\t// out\n        /* \"#utility.yul\":6753:7122   */\n    tag_181:\n      0x00\n        /* \"#utility.yul\":6916:6983   */\n      tag_183\n        /* \"#utility.yul\":6980:6982   */\n      0x25\n        /* \"#utility.yul\":6975:6978   */\n      dup4\n        /* \"#utility.yul\":6916:6983   */\n      tag_174\n      jump\t// in\n    tag_183:\n        /* \"#utility.yul\":6909:6983   */\n      swap2\n      pop\n        /* \"#utility.yul\":7013:7047   */\n      0x436f6d6d6974746565237365744d656d626572733a204c454e4754485f4d4953\n        /* \"#utility.yul\":7009:7010   */\n      0x00\n        /* \"#utility.yul\":7004:7007   */\n      dup4\n        /* \"#utility.yul\":7000:7011   */\n      add\n        /* \"#utility.yul\":6993:7048   */\n      mstore\n        /* \"#utility.yul\":7079:7086   */\n      0x4d41544348000000000000000000000000000000000000000000000000000000\n        /* \"#utility.yul\":7074:7076   */\n      0x20\n        /* \"#utility.yul\":7069:7072   */\n      dup4\n        /* \"#utility.yul\":7065:7077   */\n      add\n        /* \"#utility.yul\":7058:7087   */\n      mstore\n        /* \"#utility.yul\":7113:7115   */\n      0x40\n        /* \"#utility.yul\":7108:7111   */\n      dup3\n        /* \"#utility.yul\":7104:7116   */\n      add\n        /* \"#utility.yul\":7097:7116   */\n      swap1\n      pop\n        /* \"#utility.yul\":6899:7122   */\n      swap2\n      swap1\n      pop\n      jump\t// out\n        /* \"#utility.yul\":7128:7350   */\n    tag_28:\n      0x00\n        /* \"#utility.yul\":7259:7261   */\n      0x20\n        /* \"#utility.yul\":7248:7257   */\n      dup3\n        /* \"#utility.yul\":7244:7262   */\n      add\n        /* \"#utility.yul\":7236:7262   */\n      swap1\n      pop\n        /* \"#utility.yul\":7272:7343   */\n      tag_185\n        /* \"#utility.yul\":7340:7341   */\n      0x00\n        /* \"#utility.yul\":7329:7338   */\n      dup4\n        /* \"#utility.yul\":7325:7342   */\n      add\n        /* \"#utility.yul\":7316:7322   */\n      dup5\n        /* \"#utility.yul\":7272:7343   */\n      tag_153\n      jump\t// in\n    tag_185:\n        /* \"#utility.yul\":7226:7350   */\n      swap3\n      swap2\n      pop\n      pop\n      jump\t// out\n        /* \"#utility.yul\":7356:7885   */\n    tag_67:\n      0x00\n        /* \"#utility.yul\":7561:7563   */\n      0x60\n        /* \"#utility.yul\":7550:7559   */\n      dup3\n        /* \"#utility.yul\":7546:7564   */\n      add\n        /* \"#utility.yul\":7538:7564   */\n      swap1\n      pop\n        /* \"#utility.yul\":7574:7645   */\n      tag_187\n        /* \"#utility.yul\":7642:7643   */\n      0x00\n        /* \"#utility.yul\":7631:7640   */\n      dup4\n        /* \"#utility.yul\":7627:7644   */\n      add\n        /* \"#utility.yul\":7618:7624   */\n      dup7\n        /* \"#utility.yul\":7574:7645   */\n      tag_153\n      jump\t// in\n    tag_187:\n        /* \"#utility.yul\":7655:7727   */\n      tag_188\n        /* \"#utility.yul\":7723:7725   */\n      0x20\n        /* \"#utility.yul\":7712:7721   */\n      dup4\n        /* \"#utility.yul\":7708:7726   */\n      add\n        /* \"#utility.yul\":7699:7705   */\n      dup6\n        /* \"#utility.yul\":7655:7727   */\n      tag_153\n      jump\t// in\n    tag_188:\n        /* \"#utility.yul\":7774:7783   */\n      dup2\n        /* \"#utility.yul\":7768:7772   */\n      dup2\n        /* \"#utility.yul\":7764:7784   */\n      sub\n        /* \"#utility.yul\":7759:7761   */\n      0x40\n        /* \"#utility.yul\":7748:7757   */\n      dup4\n        /* \"#utility.yul\":7744:7762   */\n      add\n        /* \"#utility.yul\":7737:7785   */\n      mstore\n        /* \"#utility.yul\":7802:7878   */\n      tag_189\n        /* \"#utility.yul\":7873:7877   */\n      dup2\n        /* \"#utility.yul\":7864:7870   */\n      dup5\n        /* \"#utility.yul\":7802:7878   */\n      tag_161\n      jump\t// in\n    tag_189:\n        /* \"#utility.yul\":7794:7878   */\n      swap1\n      pop\n        /* \"#utility.yul\":7528:7885   */\n      swap5\n      swap4\n      pop\n      pop\n      pop\n      pop\n      jump\t// out\n        /* \"#utility.yul\":7891:8101   */\n    tag_14:\n      0x00\n        /* \"#utility.yul\":8016:8018   */\n      0x20\n        /* \"#utility.yul\":8005:8014   */\n      dup3\n        /* \"#utility.yul\":8001:8019   */\n      add\n        /* \"#utility.yul\":7993:8019   */\n      swap1\n      pop\n        /* \"#utility.yul\":8029:8094   */\n      tag_191\n        /* \"#utility.yul\":8091:8092   */\n      0x00\n        /* \"#utility.yul\":8080:8089   */\n      dup4\n        /* \"#utility.yul\":8076:8093   */\n      add\n        /* \"#utility.yul\":8067:8073   */\n      dup5\n        /* \"#utility.yul\":8029:8094   */\n      tag_157\n      jump\t// in\n    tag_191:\n        /* \"#utility.yul\":7983:8101   */\n      swap3\n      swap2\n      pop\n      pop\n      jump\t// out\n        /* \"#utility.yul\":8107:8526   */\n    tag_79:\n      0x00\n        /* \"#utility.yul\":8311:8313   */\n      0x20\n        /* \"#utility.yul\":8300:8309   */\n      dup3\n        /* \"#utility.yul\":8296:8314   */\n      add\n        /* \"#utility.yul\":8288:8314   */\n      swap1\n      pop\n        /* \"#utility.yul\":8360:8369   */\n      dup2\n        /* \"#utility.yul\":8354:8358   */\n      dup2\n        /* \"#utility.yul\":8350:8370   */\n      sub\n        /* \"#utility.yul\":8346:8347   */\n      0x00\n        /* \"#utility.yul\":8335:8344   */\n      dup4\n        /* \"#utility.yul\":8331:8348   */\n      add\n        /* \"#utility.yul\":8324:8371   */\n      mstore\n        /* \"#utility.yul\":8388:8519   */\n      tag_193\n        /* \"#utility.yul\":8514:8518   */\n      dup2\n        /* \"#utility.yul\":8388:8519   */\n      tag_171\n      jump\t// in\n    tag_193:\n        /* \"#utility.yul\":8380:8519   */\n      swap1\n      pop\n        /* \"#utility.yul\":8278:8526   */\n      swap2\n      swap1\n      pop\n      jump\t// out\n        /* \"#utility.yul\":8532:8951   */\n    tag_61:\n      0x00\n        /* \"#utility.yul\":8736:8738   */\n      0x20\n        /* \"#utility.yul\":8725:8734   */\n      dup3\n        /* \"#utility.yul\":8721:8739   */\n      add\n        /* \"#utility.yul\":8713:8739   */\n      swap1\n      pop\n        /* \"#utility.yul\":8785:8794   */\n      dup2\n        /* \"#utility.yul\":8779:8783   */\n      dup2\n        /* \"#utility.yul\":8775:8795   */\n      sub\n        /* \"#utility.yul\":8771:8772   */\n      0x00\n        /* \"#utility.yul\":8760:8769   */\n      dup4\n        /* \"#utility.yul\":8756:8773   */\n      add\n        /* \"#utility.yul\":8749:8796   */\n      mstore\n        /* \"#utility.yul\":8813:8944   */\n      tag_195\n        /* \"#utility.yul\":8939:8943   */\n      dup2\n        /* \"#utility.yul\":8813:8944   */\n      tag_175\n      jump\t// in\n    tag_195:\n        /* \"#utility.yul\":8805:8944   */\n      swap1\n      pop\n        /* \"#utility.yul\":8703:8951   */\n      swap2\n      swap1\n      pop\n      jump\t// out\n        /* \"#utility.yul\":8957:9376   */\n    tag_37:\n      0x00\n        /* \"#utility.yul\":9161:9163   */\n      0x20\n        /* \"#utility.yul\":9150:9159   */\n      dup3\n        /* \"#utility.yul\":9146:9164   */\n      add\n        /* \"#utility.yul\":9138:9164   */\n      swap1\n      pop\n        /* \"#utility.yul\":9210:9219   */\n      dup2\n        /* \"#utility.yul\":9204:9208   */\n      dup2\n        /* \"#utility.yul\":9200:9220   */\n      sub\n        /* \"#utility.yul\":9196:9197   */\n      0x00\n        /* \"#utility.yul\":9185:9194   */\n      dup4\n        /* \"#utility.yul\":9181:9198   */\n      add\n        /* \"#utility.yul\":9174:9221   */\n      mstore\n        /* \"#utility.yul\":9238:9369   */\n      tag_197\n        /* \"#utility.yul\":9364:9368   */\n      dup2\n        /* \"#utility.yul\":9238:9369   */\n      tag_178\n      jump\t// in\n    tag_197:\n        /* \"#utility.yul\":9230:9369   */\n      swap1\n      pop\n        /* \"#utility.yul\":9128:9376   */\n      swap2\n      swap1\n      pop\n      jump\t// out\n        /* \"#utility.yul\":9382:9801   */\n    tag_41:\n      0x00\n        /* \"#utility.yul\":9586:9588   */\n      0x20\n        /* \"#utility.yul\":9575:9584   */\n      dup3\n        /* \"#utility.yul\":9571:9589   */\n      add\n        /* \"#utility.yul\":9563:9589   */\n      swap1\n      pop\n        /* \"#utility.yul\":9635:9644   */\n      dup2\n        /* \"#utility.yul\":9629:9633   */\n      dup2\n        /* \"#utility.yul\":9625:9645   */\n      sub\n        /* \"#utility.yul\":9621:9622   */\n      0x00\n        /* \"#utility.yul\":9610:9619   */\n      dup4\n        /* \"#utility.yul\":9606:9623   */\n      add\n        /* \"#utility.yul\":9599:9646   */\n      mstore\n        /* \"#utility.yul\":9663:9794   */\n      tag_199\n        /* \"#utility.yul\":9789:9793   */\n      dup2\n        /* \"#utility.yul\":9663:9794   */\n      tag_181\n      jump\t// in\n    tag_199:\n        /* \"#utility.yul\":9655:9794   */\n      swap1\n      pop\n        /* \"#utility.yul\":9553:9801   */\n      swap2\n      swap1\n      pop\n      jump\t// out\n        /* \"#utility.yul\":9807:10085   */\n    tag_91:\n      0x00\n        /* \"#utility.yul\":9873:9875   */\n      0x40\n        /* \"#utility.yul\":9867:9876   */\n      mload\n        /* \"#utility.yul\":9857:9876   */\n      swap1\n      pop\n        /* \"#utility.yul\":9915:9919   */\n      dup2\n        /* \"#utility.yul\":9907:9913   */\n      dup2\n        /* \"#utility.yul\":9903:9920   */\n      add\n        /* \"#utility.yul\":10022:10028   */\n      dup2\n        /* \"#utility.yul\":10010:10020   */\n      dup2\n        /* \"#utility.yul\":10007:10029   */\n      lt\n        /* \"#utility.yul\":9986:10004   */\n      0xffffffffffffffff\n        /* \"#utility.yul\":9974:9984   */\n      dup3\n        /* \"#utility.yul\":9971:10005   */\n      gt\n        /* \"#utility.yul\":9968:10030   */\n      or\n        /* \"#utility.yul\":9965:9967   */\n      iszero\n      tag_201\n      jumpi\n        /* \"#utility.yul\":10033:10046   */\n      tag_202\n      tag_203\n      jump\t// in\n    tag_202:\n        /* \"#utility.yul\":9965:9967   */\n    tag_201:\n        /* \"#utility.yul\":10068:10078   */\n      dup1\n        /* \"#utility.yul\":10064:10066   */\n      0x40\n        /* \"#utility.yul\":10057:10079   */\n      mstore\n        /* \"#utility.yul\":9847:10085   */\n      pop\n      swap2\n      swap1\n      pop\n      jump\t// out\n        /* \"#utility.yul\":10091:10406   */\n    tag_90:\n      0x00\n        /* \"#utility.yul\":10267:10285   */\n      0xffffffffffffffff\n        /* \"#utility.yul\":10259:10265   */\n      dup3\n        /* \"#utility.yul\":10256:10286   */\n      gt\n        /* \"#utility.yul\":10253:10255   */\n      iszero\n      tag_205\n      jumpi\n        /* \"#utility.yul\":10289:10302   */\n      tag_206\n      tag_203\n      jump\t// in\n    tag_206:\n        /* \"#utility.yul\":10253:10255   */\n    tag_205:\n        /* \"#utility.yul\":10334:10338   */\n      0x20\n        /* \"#utility.yul\":10326:10332   */\n      dup3\n        /* \"#utility.yul\":10322:10339   */\n      mul\n        /* \"#utility.yul\":10314:10339   */\n      swap1\n      pop\n        /* \"#utility.yul\":10394:10398   */\n      0x20\n        /* \"#utility.yul\":10388:10392   */\n      dup2\n        /* \"#utility.yul\":10384:10399   */\n      add\n        /* \"#utility.yul\":10376:10399   */\n      swap1\n      pop\n        /* \"#utility.yul\":10182:10406   */\n      swap2\n      swap1\n      pop\n      jump\t// out\n        /* \"#utility.yul\":10412:10738   */\n    tag_101:\n      0x00\n        /* \"#utility.yul\":10563:10581   */\n      0xffffffffffffffff\n        /* \"#utility.yul\":10555:10561   */\n      dup3\n        /* \"#utility.yul\":10552:10582   */\n      gt\n        /* \"#utility.yul\":10549:10551   */\n      iszero\n      tag_208\n      jumpi\n        /* \"#utility.yul\":10585:10598   */\n      tag_209\n      tag_203\n      jump\t// in\n    tag_209:\n        /* \"#utility.yul\":10549:10551   */\n    tag_208:\n        /* \"#utility.yul\":10665:10669   */\n      0x1f\n        /* \"#utility.yul\":10661:10670   */\n      not\n        /* \"#utility.yul\":10654:10658   */\n      0x1f\n        /* \"#utility.yul\":10646:10652   */\n      dup4\n        /* \"#utility.yul\":10642:10659   */\n      add\n        /* \"#utility.yul\":10638:10671   */\n      and\n        /* \"#utility.yul\":10630:10671   */\n      swap1\n      pop\n        /* \"#utility.yul\":10726:10730   */\n      0x20\n        /* \"#utility.yul\":10720:10724   */\n      dup2\n        /* \"#utility.yul\":10716:10731   */\n      add\n        /* \"#utility.yul\":10708:10731   */\n      swap1\n      pop\n        /* \"#utility.yul\":10478:10738   */\n      swap2\n      swap1\n      pop\n      jump\t// out\n        /* \"#utility.yul\":10744:10842   */\n    tag_164:\n      0x00\n        /* \"#utility.yul\":10829:10834   */\n      dup2\n        /* \"#utility.yul\":10823:10835   */\n      mload\n        /* \"#utility.yul\":10813:10835   */\n      swap1\n      pop\n        /* \"#utility.yul\":10802:10842   */\n      swap2\n      swap1\n      pop\n      jump\t// out\n        /* \"#utility.yul\":10848:11016   */\n    tag_166:\n      0x00\n        /* \"#utility.yul\":10965:10971   */\n      dup3\n        /* \"#utility.yul\":10960:10963   */\n      dup3\n        /* \"#utility.yul\":10953:10972   */\n      mstore\n        /* \"#utility.yul\":11005:11009   */\n      0x20\n        /* \"#utility.yul\":11000:11003   */\n      dup3\n        /* \"#utility.yul\":10996:11010   */\n      add\n        /* \"#utility.yul\":10981:11010   */\n      swap1\n      pop\n        /* \"#utility.yul\":10943:11016   */\n      swap3\n      swap2\n      pop\n      pop\n      jump\t// out\n        /* \"#utility.yul\":11022:11191   */\n    tag_174:\n      0x00\n        /* \"#utility.yul\":11140:11146   */\n      dup3\n        /* \"#utility.yul\":11135:11138   */\n      dup3\n        /* \"#utility.yul\":11128:11147   */\n      mstore\n        /* \"#utility.yul\":11180:11184   */\n      0x20\n        /* \"#utility.yul\":11175:11178   */\n      dup3\n        /* \"#utility.yul\":11171:11185   */\n      add\n        /* \"#utility.yul\":11156:11185   */\n      swap1\n      pop\n        /* \"#utility.yul\":11118:11191   */\n      swap3\n      swap2\n      pop\n      pop\n      jump\t// out\n        /* \"#utility.yul\":11197:11293   */\n    tag_156:\n      0x00\n        /* \"#utility.yul\":11263:11287   */\n      tag_214\n        /* \"#utility.yul\":11281:11286   */\n      dup3\n        /* \"#utility.yul\":11263:11287   */\n      tag_215\n      jump\t// in\n    tag_214:\n        /* \"#utility.yul\":11252:11287   */\n      swap1\n      pop\n        /* \"#utility.yul\":11242:11293   */\n      swap2\n      swap1\n      pop\n      jump\t// out\n        /* \"#utility.yul\":11299:11389   */\n    tag_160:\n      0x00\n        /* \"#utility.yul\":11376:11381   */\n      dup2\n        /* \"#utility.yul\":11369:11382   */\n      iszero\n        /* \"#utility.yul\":11362:11383   */\n      iszero\n        /* \"#utility.yul\":11351:11383   */\n      swap1\n      pop\n        /* \"#utility.yul\":11341:11389   */\n      swap2\n      swap1\n      pop\n      jump\t// out\n        /* \"#utility.yul\":11395:11516   */\n    tag_217:\n      0x00\n        /* \"#utility.yul\":11486:11510   */\n      tag_219\n        /* \"#utility.yul\":11504:11509   */\n      dup3\n        /* \"#utility.yul\":11486:11510   */\n      tag_156\n      jump\t// in\n    tag_219:\n        /* \"#utility.yul\":11475:11510   */\n      swap1\n      pop\n        /* \"#utility.yul\":11465:11516   */\n      swap2\n      swap1\n      pop\n      jump\t// out\n        /* \"#utility.yul\":11522:11648   */\n    tag_215:\n      0x00\n        /* \"#utility.yul\":11599:11641   */\n      0xffffffffffffffffffffffffffffffffffffffff\n        /* \"#utility.yul\":11592:11597   */\n      dup3\n        /* \"#utility.yul\":11588:11642   */\n      and\n        /* \"#utility.yul\":11577:11642   */\n      swap1\n      pop\n        /* \"#utility.yul\":11567:11648   */\n      swap2\n      swap1\n      pop\n      jump\t// out\n        /* \"#utility.yul\":11654:11808   */\n    tag_104:\n        /* \"#utility.yul\":11738:11744   */\n      dup3\n        /* \"#utility.yul\":11733:11736   */\n      dup2\n        /* \"#utility.yul\":11728:11731   */\n      dup4\n        /* \"#utility.yul\":11715:11745   */\n      calldatacopy\n        /* \"#utility.yul\":11800:11801   */\n      0x00\n        /* \"#utility.yul\":11791:11797   */\n      dup4\n        /* \"#utility.yul\":11786:11789   */\n      dup4\n        /* \"#utility.yul\":11782:11798   */\n      add\n        /* \"#utility.yul\":11775:11802   */\n      mstore\n        /* \"#utility.yul\":11705:11808   */\n      pop\n      pop\n      pop\n      jump\t// out\n        /* \"#utility.yul\":11814:12121   */\n    tag_168:\n        /* \"#utility.yul\":11882:11883   */\n      0x00\n        /* \"#utility.yul\":11892:12005   */\n    tag_223:\n        /* \"#utility.yul\":11906:11912   */\n      dup4\n        /* \"#utility.yul\":11903:11904   */\n      dup2\n        /* \"#utility.yul\":11900:11913   */\n      lt\n        /* \"#utility.yul\":11892:12005   */\n      iszero\n      tag_225\n      jumpi\n        /* \"#utility.yul\":11991:11992   */\n      dup1\n        /* \"#utility.yul\":11986:11989   */\n      dup3\n        /* \"#utility.yul\":11982:11993   */\n      add\n        /* \"#utility.yul\":11976:11994   */\n      mload\n        /* \"#utility.yul\":11972:11973   */\n      dup2\n        /* \"#utility.yul\":11967:11970   */\n      dup5\n        /* \"#utility.yul\":11963:11974   */\n      add\n        /* \"#utility.yul\":11956:11995   */\n      mstore\n        /* \"#utility.yul\":11928:11930   */\n      0x20\n        /* \"#utility.yul\":11925:11926   */\n      dup2\n        /* \"#utility.yul\":11921:11931   */\n      add\n        /* \"#utility.yul\":11916:11931   */\n      swap1\n      pop\n        /* \"#utility.yul\":11892:12005   */\n      jump(tag_223)\n    tag_225:\n        /* \"#utility.yul\":12023:12029   */\n      dup4\n        /* \"#utility.yul\":12020:12021   */\n      dup2\n        /* \"#utility.yul\":12017:12030   */\n      gt\n        /* \"#utility.yul\":12014:12016   */\n      iszero\n      tag_226\n      jumpi\n        /* \"#utility.yul\":12103:12104   */\n      0x00\n        /* \"#utility.yul\":12094:12100   */\n      dup5\n        /* \"#utility.yul\":12089:12092   */\n      dup5\n        /* \"#utility.yul\":12085:12101   */\n      add\n        /* \"#utility.yul\":12078:12105   */\n      mstore\n        /* \"#utility.yul\":12014:12016   */\n    tag_226:\n        /* \"#utility.yul\":11863:12121   */\n      pop\n      pop\n      pop\n      pop\n      jump\t// out\n        /* \"#utility.yul\":12127:12175   */\n    tag_203:\n        /* \"#utility.yul\":12160:12169   */\n      invalid\n        /* \"#utility.yul\":12181:12283   */\n    tag_170:\n      0x00\n        /* \"#utility.yul\":12273:12275   */\n      0x1f\n        /* \"#utility.yul\":12269:12276   */\n      not\n        /* \"#utility.yul\":12264:12266   */\n      0x1f\n        /* \"#utility.yul\":12257:12262   */\n      dup4\n        /* \"#utility.yul\":12253:12267   */\n      add\n        /* \"#utility.yul\":12249:12277   */\n      and\n        /* \"#utility.yul\":12239:12277   */\n      swap1\n      pop\n        /* \"#utility.yul\":12229:12283   */\n      swap2\n      swap1\n      pop\n      jump\t// out\n        /* \"#utility.yul\":12289:12411   */\n    tag_108:\n        /* \"#utility.yul\":12362:12386   */\n      tag_230\n        /* \"#utility.yul\":12380:12385   */\n      dup2\n        /* \"#utility.yul\":12362:12386   */\n      tag_156\n      jump\t// in\n    tag_230:\n        /* \"#utility.yul\":12355:12360   */\n      dup2\n        /* \"#utility.yul\":12352:12387   */\n      eq\n        /* \"#utility.yul\":12342:12344   */\n      tag_231\n      jumpi\n        /* \"#utility.yul\":12401:12402   */\n      0x00\n        /* \"#utility.yul\":12398:12399   */\n      dup1\n        /* \"#utility.yul\":12391:12403   */\n      revert\n        /* \"#utility.yul\":12342:12344   */\n    tag_231:\n        /* \"#utility.yul\":12332:12411   */\n      pop\n      jump\t// out\n        /* \"#utility.yul\":12417:12533   */\n    tag_126:\n        /* \"#utility.yul\":12487:12508   */\n      tag_233\n        /* \"#utility.yul\":12502:12507   */\n      dup2\n        /* \"#utility.yul\":12487:12508   */\n      tag_160\n      jump\t// in\n    tag_233:\n        /* \"#utility.yul\":12480:12485   */\n      dup2\n        /* \"#utility.yul\":12477:12509   */\n      eq\n        /* \"#utility.yul\":12467:12469   */\n      tag_234\n      jumpi\n        /* \"#utility.yul\":12523:12524   */\n      0x00\n        /* \"#utility.yul\":12520:12521   */\n      dup1\n        /* \"#utility.yul\":12513:12525   */\n      revert\n        /* \"#utility.yul\":12467:12469   */\n    tag_234:\n        /* \"#utility.yul\":12457:12533   */\n      pop\n      jump\t// out\n        /* \"#utility.yul\":12539:12711   */\n    tag_133:\n        /* \"#utility.yul\":12637:12686   */\n      tag_236\n        /* \"#utility.yul\":12680:12685   */\n      dup2\n        /* \"#utility.yul\":12637:12686   */\n      tag_217\n      jump\t// in\n    tag_236:\n        /* \"#utility.yul\":12630:12635   */\n      dup2\n        /* \"#utility.yul\":12627:12687   */\n      eq\n        /* \"#utility.yul\":12617:12619   */\n      tag_237\n      jumpi\n        /* \"#utility.yul\":12701:12702   */\n      0x00\n        /* \"#utility.yul\":12698:12699   */\n      dup1\n        /* \"#utility.yul\":12691:12703   */\n      revert\n        /* \"#utility.yul\":12617:12619   */\n    tag_237:\n        /* \"#utility.yul\":12607:12711   */\n      pop\n      jump\t// out\n\n    auxdata: 0xa26469706673582212205fad5866a1ebc807a8f7e33ecc6014319859dd5e2dcda40e2725eefca627cf9e64736f6c63430007060033\n}\n",
				"bytecode": {
					"linkReferences": {},
					"object": "60806040523480156200001157600080fd5b50604051620017763803806200177683398181016040528101906200003791906200053c565b62000047620000a360201b60201c565b62000058826200015560201b60201c565b60005b81518110156200009a576200008c8282815181106200007657fe5b602002602001015160016200032560201b60201c565b80806001019150506200005b565b50505062000782565b6000620000b5620003d060201b60201c565b9050806000806101000a81548173ffffffffffffffffffffffffffffffffffffffff021916908373ffffffffffffffffffffffffffffffffffffffff1602179055508073ffffffffffffffffffffffffffffffffffffffff16600073ffffffffffffffffffffffffffffffffffffffff167f8be0079c531659141344cd1fd0a4f28419497f9722a3daafe3b4186f6b6457e060405160405180910390a350565b62000165620003d060201b60201c565b73ffffffffffffffffffffffffffffffffffffffff1660008054906101000a900473ffffffffffffffffffffffffffffffffffffffff1673ffffffffffffffffffffffffffffffffffffffff1614620001f5576040517f08c379a0000000000000000000000000000000000000000000000000000000008152600401620001ec9062000690565b60405180910390fd5b600073ffffffffffffffffffffffffffffffffffffffff168173ffffffffffffffffffffffffffffffffffffffff16141562000268576040517f08c379a00000000000000000000000000000000000000000000000000000000081526004016200025f906200066e565b60405180910390fd5b8073ffffffffffffffffffffffffffffffffffffffff1660008054906101000a900473ffffffffffffffffffffffffffffffffffffffff1673ffffffffffffffffffffffffffffffffffffffff167f8be0079c531659141344cd1fd0a4f28419497f9722a3daafe3b4186f6b6457e060405160405180910390a3806000806101000a81548173ffffffffffffffffffffffffffffffffffffffff021916908373ffffffffffffffffffffffffffffffffffffffff16021790555050565b80600160008473ffffffffffffffffffffffffffffffffffffffff1673ffffffffffffffffffffffffffffffffffffffff16815260200190815260200160002060006101000a81548160ff0219169083151502179055508173ffffffffffffffffffffffffffffffffffffffff167f4efc5168d98ad88d2d4784344a20876aea2fa3e8aa503b5fb3164a09019ca3d682604051620003c4919062000651565b60405180910390a25050565b60003073ffffffffffffffffffffffffffffffffffffffff163373ffffffffffffffffffffffffffffffffffffffff1614156200047c57600080368080601f016020809104026020016040519081016040528093929190818152602001838380828437600081840152601f19601f820116905080830192505050505050509050600080369050905073ffffffffffffffffffffffffffffffffffffffff81830151169250505062000480565b3390505b90565b60006200049a6200049484620006e6565b620006b2565b90508083825260208201905082856020860282011115620004ba57600080fd5b60005b85811015620004ee5781620004d38882620004f8565b845260208401935060208301925050600181019050620004bd565b5050509392505050565b600081519050620005098162000768565b92915050565b600082601f8301126200052157600080fd5b81516200053384826020860162000483565b91505092915050565b600080604083850312156200055057600080fd5b60006200056085828601620004f8565b925050602083015167ffffffffffffffff8111156200057e57600080fd5b6200058c858286016200050f565b9150509250929050565b620005a1816200073a565b82525050565b6000620005b660268362000715565b91507f4f776e61626c653a206e6577206f776e657220697320746865207a65726f206160008301527f64647265737300000000000000000000000000000000000000000000000000006020830152604082019050919050565b60006200061e60208362000715565b91507f4f776e61626c653a2063616c6c6572206973206e6f7420746865206f776e65726000830152602082019050919050565b600060208201905062000668600083018462000596565b92915050565b600060208201905081810360008301526200068981620005a7565b9050919050565b60006020820190508181036000830152620006ab816200060f565b9050919050565b6000604051905081810181811067ffffffffffffffff82111715620006dc57620006db62000766565b5b8060405250919050565b600067ffffffffffffffff82111562000704576200070362000766565b5b602082029050602081019050919050565b600082825260208201905092915050565b6000620007338262000746565b9050919050565b60008115159050919050565b600073ffffffffffffffffffffffffffffffffffffffff82169050919050565bfe5b620007738162000726565b81146200077f57600080fd5b50565b610fe480620007926000396000f3fe608060405234801561001057600080fd5b50600436106100625760003560e01c806308ae4b0c1461006757806329352b2714610097578063715018a6146100b357806381c9308e146100bd5780638da5cb5b146100d9578063f2fde38b146100f7575b600080fd5b610081600480360381019061007c9190610a0b565b610113565b60405161008e9190610d6f565b60405180910390f35b6100b160048036038101906100ac9190610a34565b610133565b005b6100bb61027c565b005b6100d760048036038101906100d29190610ad2565b6103cf565b005b6100e1610504565b6040516100ee9190610d16565b60405180910390f35b610111600480360381019061010c9190610a0b565b61052d565b005b60016020528060005260406000206000915054906101000a900460ff1681565b61013b6106ef565b73ffffffffffffffffffffffffffffffffffffffff1660008054906101000a900473ffffffffffffffffffffffffffffffffffffffff1673ffffffffffffffffffffffffffffffffffffffff16146101c8576040517f08c379a00000000000000000000000000000000000000000000000000000000081526004016101bf90610dca565b60405180910390fd5b818190508484905014610210576040517f08c379a000000000000000000000000000000000000000000000000000000000815260040161020790610dea565b60405180910390fd5b60005b848490508110156102755761026885858381811061022d57fe5b90506020020160208101906102429190610a0b565b84848481811061024e57fe5b90506020020160208101906102639190610aa9565b6107a0565b8080600101915050610213565b5050505050565b6102846106ef565b73ffffffffffffffffffffffffffffffffffffffff1660008054906101000a900473ffffffffffffffffffffffffffffffffffffffff1673ffffffffffffffffffffffffffffffffffffffff1614610311576040517f08c379a000000000000000000000000000000000000000000000000000000000815260040161030890610dca565b60405180910390fd5b600073ffffffffffffffffffffffffffffffffffffffff1660008054906101000a900473ffffffffffffffffffffffffffffffffffffffff1673ffffffffffffffffffffffffffffffffffffffff167f8be0079c531659141344cd1fd0a4f28419497f9722a3daafe3b4186f6b6457e060405160405180910390a360008060006101000a81548173ffffffffffffffffffffffffffffffffffffffff021916908373ffffffffffffffffffffffffffffffffffffffff160217905550565b600160006103db6106ef565b73ffffffffffffffffffffffffffffffffffffffff1673ffffffffffffffffffffffffffffffffffffffff16815260200190815260200160002060009054906101000a900460ff16610462576040517f08c379a000000000000000000000000000000000000000000000000000000000815260040161045990610daa565b60405180910390fd5b60005b81518110156104fd578473ffffffffffffffffffffffffffffffffffffffff16631e5a92c1858585858151811061049857fe5b60200260200101516040518463ffffffff1660e01b81526004016104be93929190610d31565b600060405180830381600087803b1580156104d857600080fd5b505af11580156104ec573d6000803e3d6000fd5b505050508080600101915050610465565b5050505050565b60008060009054906101000a900473ffffffffffffffffffffffffffffffffffffffff16905090565b6105356106ef565b73ffffffffffffffffffffffffffffffffffffffff1660008054906101000a900473ffffffffffffffffffffffffffffffffffffffff1673ffffffffffffffffffffffffffffffffffffffff16146105c2576040517f08c379a00000000000000000000000000000000000000000000000000000000081526004016105b990610dca565b60405180910390fd5b600073ffffffffffffffffffffffffffffffffffffffff168173ffffffffffffffffffffffffffffffffffffffff161415610632576040517f08c379a000000000000000000000000000000000000000000000000000000000815260040161062990610d8a565b60405180910390fd5b8073ffffffffffffffffffffffffffffffffffffffff1660008054906101000a900473ffffffffffffffffffffffffffffffffffffffff1673ffffffffffffffffffffffffffffffffffffffff167f8be0079c531659141344cd1fd0a4f28419497f9722a3daafe3b4186f6b6457e060405160405180910390a3806000806101000a81548173ffffffffffffffffffffffffffffffffffffffff021916908373ffffffffffffffffffffffffffffffffffffffff16021790555050565b60003073ffffffffffffffffffffffffffffffffffffffff163373ffffffffffffffffffffffffffffffffffffffff16141561079957600080368080601f016020809104026020016040519081016040528093929190818152602001838380828437600081840152601f19601f820116905080830192505050505050509050600080369050905073ffffffffffffffffffffffffffffffffffffffff81830151169250505061079d565b3390505b90565b80600160008473ffffffffffffffffffffffffffffffffffffffff1673ffffffffffffffffffffffffffffffffffffffff16815260200190815260200160002060006101000a81548160ff0219169083151502179055508173ffffffffffffffffffffffffffffffffffffffff167f4efc5168d98ad88d2d4784344a20876aea2fa3e8aa503b5fb3164a09019ca3d68260405161083d9190610d6f565b60405180910390a25050565b600061085c61085784610e3b565b610e0a565b9050808382526020820190508260005b8581101561089c578135850161088288826109cc565b84526020840193506020830192505060018101905061086c565b5050509392505050565b60006108b96108b484610e67565b610e0a565b9050828152602081018484840111156108d157600080fd5b6108dc848285610f14565b509392505050565b6000813590506108f381610f69565b92915050565b60008083601f84011261090b57600080fd5b8235905067ffffffffffffffff81111561092457600080fd5b60208301915083602082028301111561093c57600080fd5b9250929050565b60008083601f84011261095557600080fd5b8235905067ffffffffffffffff81111561096e57600080fd5b60208301915083602082028301111561098657600080fd5b9250929050565b600082601f83011261099e57600080fd5b81356109ae848260208601610849565b91505092915050565b6000813590506109c681610f80565b92915050565b600082601f8301126109dd57600080fd5b81356109ed8482602086016108a6565b91505092915050565b600081359050610a0581610f97565b92915050565b600060208284031215610a1d57600080fd5b6000610a2b848285016108e4565b91505092915050565b60008060008060408587031215610a4a57600080fd5b600085013567ffffffffffffffff811115610a6457600080fd5b610a70878288016108f9565b9450945050602085013567ffffffffffffffff811115610a8f57600080fd5b610a9b87828801610943565b925092505092959194509250565b600060208284031215610abb57600080fd5b6000610ac9848285016109b7565b91505092915050565b60008060008060808587031215610ae857600080fd5b6000610af6878288016109f6565b9450506020610b07878288016108e4565b9350506040610b18878288016108e4565b925050606085013567ffffffffffffffff811115610b3557600080fd5b610b418782880161098d565b91505092959194509250565b610b5681610ec4565b82525050565b610b6581610ed6565b82525050565b6000610b7682610e97565b610b808185610ea2565b9350610b90818560208601610f23565b610b9981610f58565b840191505092915050565b6000610bb1602683610eb3565b91507f4f776e61626c653a206e6577206f776e657220697320746865207a65726f206160008301527f64647265737300000000000000000000000000000000000000000000000000006020830152604082019050919050565b6000610c17602f83610eb3565b91507f436f6d6d6974746565236d616e616765436f6c6c656374696f6e3a20554e415560008301527f54484f52495a45445f53454e44455200000000000000000000000000000000006020830152604082019050919050565b6000610c7d602083610eb3565b91507f4f776e61626c653a2063616c6c6572206973206e6f7420746865206f776e65726000830152602082019050919050565b6000610cbd602583610eb3565b91507f436f6d6d6974746565237365744d656d626572733a204c454e4754485f4d495360008301527f4d415443480000000000000000000000000000000000000000000000000000006020830152604082019050919050565b6000602082019050610d2b6000830184610b4d565b92915050565b6000606082019050610d466000830186610b4d565b610d536020830185610b4d565b8181036040830152610d658184610b6b565b9050949350505050565b6000602082019050610d846000830184610b5c565b92915050565b60006020820190508181036000830152610da381610ba4565b9050919050565b60006020820190508181036000830152610dc381610c0a565b9050919050565b60006020820190508181036000830152610de381610c70565b9050919050565b60006020820190508181036000830152610e0381610cb0565b9050919050565b6000604051905081810181811067ffffffffffffffff82111715610e3157610e30610f56565b5b8060405250919050565b600067ffffffffffffffff821115610e5657610e55610f56565b5b602082029050602081019050919050565b600067ffffffffffffffff821115610e8257610e81610f56565b5b601f19601f8301169050602081019050919050565b600081519050919050565b600082825260208201905092915050565b600082825260208201905092915050565b6000610ecf82610ef4565b9050919050565b60008115159050919050565b6000610eed82610ec4565b9050919050565b600073ffffffffffffffffffffffffffffffffffffffff82169050919050565b82818337600083830152505050565b60005b83811015610f41578082015181840152602081019050610f26565b83811115610f50576000848401525b50505050565bfe5b6000601f19601f8301169050919050565b610f7281610ec4565b8114610f7d57600080fd5b50565b610f8981610ed6565b8114610f9457600080fd5b50565b610fa081610ee2565b8114610fab57600080fd5b5056fea26469706673582212205fad5866a1ebc807a8f7e33ecc6014319859dd5e2dcda40e2725eefca627cf9e64736f6c63430007060033",
					"opcodes": "PUSH1 0x80 PUSH1 0x40 MSTORE CALLVALUE DUP1 ISZERO PUSH3 0x11 JUMPI PUSH1 0x0 DUP1 REVERT JUMPDEST POP PUSH1 0x40 MLOAD PUSH3 0x1776 CODESIZE SUB DUP1 PUSH3 0x1776 DUP4 CODECOPY DUP2 DUP2 ADD PUSH1 0x40 MSTORE DUP2 ADD SWAP1 PUSH3 0x37 SWAP2 SWAP1 PUSH3 0x53C JUMP JUMPDEST PUSH3 0x47 PUSH3 0xA3 PUSH1 0x20 SHL PUSH1 0x20 SHR JUMP JUMPDEST PUSH3 0x58 DUP3 PUSH3 0x155 PUSH1 0x20 SHL PUSH1 0x20 SHR JUMP JUMPDEST PUSH1 0x0 JUMPDEST DUP2 MLOAD DUP2 LT ISZERO PUSH3 0x9A JUMPI PUSH3 0x8C DUP3 DUP3 DUP2 MLOAD DUP2 LT PUSH3 0x76 JUMPI INVALID JUMPDEST PUSH1 0x20 MUL PUSH1 0x20 ADD ADD MLOAD PUSH1 0x1 PUSH3 0x325 PUSH1 0x20 SHL PUSH1 0x20 SHR JUMP JUMPDEST DUP1 DUP1 PUSH1 0x1 ADD SWAP2 POP POP PUSH3 0x5B JUMP JUMPDEST POP POP POP PUSH3 0x782 JUMP JUMPDEST PUSH1 0x0 PUSH3 0xB5 PUSH3 0x3D0 PUSH1 0x20 SHL PUSH1 0x20 SHR JUMP JUMPDEST SWAP1 POP DUP1 PUSH1 0x0 DUP1 PUSH2 0x100 EXP DUP2 SLOAD DUP2 PUSH20 0xFFFFFFFFFFFFFFFFFFFFFFFFFFFFFFFFFFFFFFFF MUL NOT AND SWAP1 DUP4 PUSH20 0xFFFFFFFFFFFFFFFFFFFFFFFFFFFFFFFFFFFFFFFF AND MUL OR SWAP1 SSTORE POP DUP1 PUSH20 0xFFFFFFFFFFFFFFFFFFFFFFFFFFFFFFFFFFFFFFFF AND PUSH1 0x0 PUSH20 0xFFFFFFFFFFFFFFFFFFFFFFFFFFFFFFFFFFFFFFFF AND PUSH32 0x8BE0079C531659141344CD1FD0A4F28419497F9722A3DAAFE3B4186F6B6457E0 PUSH1 0x40 MLOAD PUSH1 0x40 MLOAD DUP1 SWAP2 SUB SWAP1 LOG3 POP JUMP JUMPDEST PUSH3 0x165 PUSH3 0x3D0 PUSH1 0x20 SHL PUSH1 0x20 SHR JUMP JUMPDEST PUSH20 0xFFFFFFFFFFFFFFFFFFFFFFFFFFFFFFFFFFFFFFFF AND PUSH1 0x0 DUP1 SLOAD SWAP1 PUSH2 0x100 EXP SWAP1 DIV PUSH20 0xFFFFFFFFFFFFFFFFFFFFFFFFFFFFFFFFFFFFFFFF AND PUSH20 0xFFFFFFFFFFFFFFFFFFFFFFFFFFFFFFFFFFFFFFFF AND EQ PUSH3 0x1F5 JUMPI PUSH1 0x40 MLOAD PUSH32 0x8C379A000000000000000000000000000000000000000000000000000000000 DUP2 MSTORE PUSH1 0x4 ADD PUSH3 0x1EC SWAP1 PUSH3 0x690 JUMP JUMPDEST PUSH1 0x40 MLOAD DUP1 SWAP2 SUB SWAP1 REVERT JUMPDEST PUSH1 0x0 PUSH20 0xFFFFFFFFFFFFFFFFFFFFFFFFFFFFFFFFFFFFFFFF AND DUP2 PUSH20 0xFFFFFFFFFFFFFFFFFFFFFFFFFFFFFFFFFFFFFFFF AND EQ ISZERO PUSH3 0x268 JUMPI PUSH1 0x40 MLOAD PUSH32 0x8C379A000000000000000000000000000000000000000000000000000000000 DUP2 MSTORE PUSH1 0x4 ADD PUSH3 0x25F SWAP1 PUSH3 0x66E JUMP JUMPDEST PUSH1 0x40 MLOAD DUP1 SWAP2 SUB SWAP1 REVERT JUMPDEST DUP1 PUSH20 0xFFFFFFFFFFFFFFFFFFFFFFFFFFFFFFFFFFFFFFFF AND PUSH1 0x0 DUP1 SLOAD SWAP1 PUSH2 0x100 EXP SWAP1 DIV PUSH20 0xFFFFFFFFFFFFFFFFFFFFFFFFFFFFFFFFFFFFFFFF AND PUSH20 0xFFFFFFFFFFFFFFFFFFFFFFFFFFFFFFFFFFFFFFFF AND PUSH32 0x8BE0079C531659141344CD1FD0A4F28419497F9722A3DAAFE3B4186F6B6457E0 PUSH1 0x40 MLOAD PUSH1 0x40 MLOAD DUP1 SWAP2 SUB SWAP1 LOG3 DUP1 PUSH1 0x0 DUP1 PUSH2 0x100 EXP DUP2 SLOAD DUP2 PUSH20 0xFFFFFFFFFFFFFFFFFFFFFFFFFFFFFFFFFFFFFFFF MUL NOT AND SWAP1 DUP4 PUSH20 0xFFFFFFFFFFFFFFFFFFFFFFFFFFFFFFFFFFFFFFFF AND MUL OR SWAP1 SSTORE POP POP JUMP JUMPDEST DUP1 PUSH1 0x1 PUSH1 0x0 DUP5 PUSH20 0xFFFFFFFFFFFFFFFFFFFFFFFFFFFFFFFFFFFFFFFF AND PUSH20 0xFFFFFFFFFFFFFFFFFFFFFFFFFFFFFFFFFFFFFFFF AND DUP2 MSTORE PUSH1 0x20 ADD SWAP1 DUP2 MSTORE PUSH1 0x20 ADD PUSH1 0x0 KECCAK256 PUSH1 0x0 PUSH2 0x100 EXP DUP2 SLOAD DUP2 PUSH1 0xFF MUL NOT AND SWAP1 DUP4 ISZERO ISZERO MUL OR SWAP1 SSTORE POP DUP2 PUSH20 0xFFFFFFFFFFFFFFFFFFFFFFFFFFFFFFFFFFFFFFFF AND PUSH32 0x4EFC5168D98AD88D2D4784344A20876AEA2FA3E8AA503B5FB3164A09019CA3D6 DUP3 PUSH1 0x40 MLOAD PUSH3 0x3C4 SWAP2 SWAP1 PUSH3 0x651 JUMP JUMPDEST PUSH1 0x40 MLOAD DUP1 SWAP2 SUB SWAP1 LOG2 POP POP JUMP JUMPDEST PUSH1 0x0 ADDRESS PUSH20 0xFFFFFFFFFFFFFFFFFFFFFFFFFFFFFFFFFFFFFFFF AND CALLER PUSH20 0xFFFFFFFFFFFFFFFFFFFFFFFFFFFFFFFFFFFFFFFF AND EQ ISZERO PUSH3 0x47C JUMPI PUSH1 0x0 DUP1 CALLDATASIZE DUP1 DUP1 PUSH1 0x1F ADD PUSH1 0x20 DUP1 SWAP2 DIV MUL PUSH1 0x20 ADD PUSH1 0x40 MLOAD SWAP1 DUP2 ADD PUSH1 0x40 MSTORE DUP1 SWAP4 SWAP3 SWAP2 SWAP1 DUP2 DUP2 MSTORE PUSH1 0x20 ADD DUP4 DUP4 DUP1 DUP3 DUP5 CALLDATACOPY PUSH1 0x0 DUP2 DUP5 ADD MSTORE PUSH1 0x1F NOT PUSH1 0x1F DUP3 ADD AND SWAP1 POP DUP1 DUP4 ADD SWAP3 POP POP POP POP POP POP POP SWAP1 POP PUSH1 0x0 DUP1 CALLDATASIZE SWAP1 POP SWAP1 POP PUSH20 0xFFFFFFFFFFFFFFFFFFFFFFFFFFFFFFFFFFFFFFFF DUP2 DUP4 ADD MLOAD AND SWAP3 POP POP POP PUSH3 0x480 JUMP JUMPDEST CALLER SWAP1 POP JUMPDEST SWAP1 JUMP JUMPDEST PUSH1 0x0 PUSH3 0x49A PUSH3 0x494 DUP5 PUSH3 0x6E6 JUMP JUMPDEST PUSH3 0x6B2 JUMP JUMPDEST SWAP1 POP DUP1 DUP4 DUP3 MSTORE PUSH1 0x20 DUP3 ADD SWAP1 POP DUP3 DUP6 PUSH1 0x20 DUP7 MUL DUP3 ADD GT ISZERO PUSH3 0x4BA JUMPI PUSH1 0x0 DUP1 REVERT JUMPDEST PUSH1 0x0 JUMPDEST DUP6 DUP2 LT ISZERO PUSH3 0x4EE JUMPI DUP2 PUSH3 0x4D3 DUP9 DUP3 PUSH3 0x4F8 JUMP JUMPDEST DUP5 MSTORE PUSH1 0x20 DUP5 ADD SWAP4 POP PUSH1 0x20 DUP4 ADD SWAP3 POP POP PUSH1 0x1 DUP2 ADD SWAP1 POP PUSH3 0x4BD JUMP JUMPDEST POP POP POP SWAP4 SWAP3 POP POP POP JUMP JUMPDEST PUSH1 0x0 DUP2 MLOAD SWAP1 POP PUSH3 0x509 DUP2 PUSH3 0x768 JUMP JUMPDEST SWAP3 SWAP2 POP POP JUMP JUMPDEST PUSH1 0x0 DUP3 PUSH1 0x1F DUP4 ADD SLT PUSH3 0x521 JUMPI PUSH1 0x0 DUP1 REVERT JUMPDEST DUP2 MLOAD PUSH3 0x533 DUP5 DUP3 PUSH1 0x20 DUP7 ADD PUSH3 0x483 JUMP JUMPDEST SWAP2 POP POP SWAP3 SWAP2 POP POP JUMP JUMPDEST PUSH1 0x0 DUP1 PUSH1 0x40 DUP4 DUP6 SUB SLT ISZERO PUSH3 0x550 JUMPI PUSH1 0x0 DUP1 REVERT JUMPDEST PUSH1 0x0 PUSH3 0x560 DUP6 DUP3 DUP7 ADD PUSH3 0x4F8 JUMP JUMPDEST SWAP3 POP POP PUSH1 0x20 DUP4 ADD MLOAD PUSH8 0xFFFFFFFFFFFFFFFF DUP2 GT ISZERO PUSH3 0x57E JUMPI PUSH1 0x0 DUP1 REVERT JUMPDEST PUSH3 0x58C DUP6 DUP3 DUP7 ADD PUSH3 0x50F JUMP JUMPDEST SWAP2 POP POP SWAP3 POP SWAP3 SWAP1 POP JUMP JUMPDEST PUSH3 0x5A1 DUP2 PUSH3 0x73A JUMP JUMPDEST DUP3 MSTORE POP POP JUMP JUMPDEST PUSH1 0x0 PUSH3 0x5B6 PUSH1 0x26 DUP4 PUSH3 0x715 JUMP JUMPDEST SWAP2 POP PUSH32 0x4F776E61626C653A206E6577206F776E657220697320746865207A65726F2061 PUSH1 0x0 DUP4 ADD MSTORE PUSH32 0x6464726573730000000000000000000000000000000000000000000000000000 PUSH1 0x20 DUP4 ADD MSTORE PUSH1 0x40 DUP3 ADD SWAP1 POP SWAP2 SWAP1 POP JUMP JUMPDEST PUSH1 0x0 PUSH3 0x61E PUSH1 0x20 DUP4 PUSH3 0x715 JUMP JUMPDEST SWAP2 POP PUSH32 0x4F776E61626C653A2063616C6C6572206973206E6F7420746865206F776E6572 PUSH1 0x0 DUP4 ADD MSTORE PUSH1 0x20 DUP3 ADD SWAP1 POP SWAP2 SWAP1 POP JUMP JUMPDEST PUSH1 0x0 PUSH1 0x20 DUP3 ADD SWAP1 POP PUSH3 0x668 PUSH1 0x0 DUP4 ADD DUP5 PUSH3 0x596 JUMP JUMPDEST SWAP3 SWAP2 POP POP JUMP JUMPDEST PUSH1 0x0 PUSH1 0x20 DUP3 ADD SWAP1 POP DUP2 DUP2 SUB PUSH1 0x0 DUP4 ADD MSTORE PUSH3 0x689 DUP2 PUSH3 0x5A7 JUMP JUMPDEST SWAP1 POP SWAP2 SWAP1 POP JUMP JUMPDEST PUSH1 0x0 PUSH1 0x20 DUP3 ADD SWAP1 POP DUP2 DUP2 SUB PUSH1 0x0 DUP4 ADD MSTORE PUSH3 0x6AB DUP2 PUSH3 0x60F JUMP JUMPDEST SWAP1 POP SWAP2 SWAP1 POP JUMP JUMPDEST PUSH1 0x0 PUSH1 0x40 MLOAD SWAP1 POP DUP2 DUP2 ADD DUP2 DUP2 LT PUSH8 0xFFFFFFFFFFFFFFFF DUP3 GT OR ISZERO PUSH3 0x6DC JUMPI PUSH3 0x6DB PUSH3 0x766 JUMP JUMPDEST JUMPDEST DUP1 PUSH1 0x40 MSTORE POP SWAP2 SWAP1 POP JUMP JUMPDEST PUSH1 0x0 PUSH8 0xFFFFFFFFFFFFFFFF DUP3 GT ISZERO PUSH3 0x704 JUMPI PUSH3 0x703 PUSH3 0x766 JUMP JUMPDEST JUMPDEST PUSH1 0x20 DUP3 MUL SWAP1 POP PUSH1 0x20 DUP2 ADD SWAP1 POP SWAP2 SWAP1 POP JUMP JUMPDEST PUSH1 0x0 DUP3 DUP3 MSTORE PUSH1 0x20 DUP3 ADD SWAP1 POP SWAP3 SWAP2 POP POP JUMP JUMPDEST PUSH1 0x0 PUSH3 0x733 DUP3 PUSH3 0x746 JUMP JUMPDEST SWAP1 POP SWAP2 SWAP1 POP JUMP JUMPDEST PUSH1 0x0 DUP2 ISZERO ISZERO SWAP1 POP SWAP2 SWAP1 POP JUMP JUMPDEST PUSH1 0x0 PUSH20 0xFFFFFFFFFFFFFFFFFFFFFFFFFFFFFFFFFFFFFFFF DUP3 AND SWAP1 POP SWAP2 SWAP1 POP JUMP JUMPDEST INVALID JUMPDEST PUSH3 0x773 DUP2 PUSH3 0x726 JUMP JUMPDEST DUP2 EQ PUSH3 0x77F JUMPI PUSH1 0x0 DUP1 REVERT JUMPDEST POP JUMP JUMPDEST PUSH2 0xFE4 DUP1 PUSH3 0x792 PUSH1 0x0 CODECOPY PUSH1 0x0 RETURN INVALID PUSH1 0x80 PUSH1 0x40 MSTORE CALLVALUE DUP1 ISZERO PUSH2 0x10 JUMPI PUSH1 0x0 DUP1 REVERT JUMPDEST POP PUSH1 0x4 CALLDATASIZE LT PUSH2 0x62 JUMPI PUSH1 0x0 CALLDATALOAD PUSH1 0xE0 SHR DUP1 PUSH4 0x8AE4B0C EQ PUSH2 0x67 JUMPI DUP1 PUSH4 0x29352B27 EQ PUSH2 0x97 JUMPI DUP1 PUSH4 0x715018A6 EQ PUSH2 0xB3 JUMPI DUP1 PUSH4 0x81C9308E EQ PUSH2 0xBD JUMPI DUP1 PUSH4 0x8DA5CB5B EQ PUSH2 0xD9 JUMPI DUP1 PUSH4 0xF2FDE38B EQ PUSH2 0xF7 JUMPI JUMPDEST PUSH1 0x0 DUP1 REVERT JUMPDEST PUSH2 0x81 PUSH1 0x4 DUP1 CALLDATASIZE SUB DUP2 ADD SWAP1 PUSH2 0x7C SWAP2 SWAP1 PUSH2 0xA0B JUMP JUMPDEST PUSH2 0x113 JUMP JUMPDEST PUSH1 0x40 MLOAD PUSH2 0x8E SWAP2 SWAP1 PUSH2 0xD6F JUMP JUMPDEST PUSH1 0x40 MLOAD DUP1 SWAP2 SUB SWAP1 RETURN JUMPDEST PUSH2 0xB1 PUSH1 0x4 DUP1 CALLDATASIZE SUB DUP2 ADD SWAP1 PUSH2 0xAC SWAP2 SWAP1 PUSH2 0xA34 JUMP JUMPDEST PUSH2 0x133 JUMP JUMPDEST STOP JUMPDEST PUSH2 0xBB PUSH2 0x27C JUMP JUMPDEST STOP JUMPDEST PUSH2 0xD7 PUSH1 0x4 DUP1 CALLDATASIZE SUB DUP2 ADD SWAP1 PUSH2 0xD2 SWAP2 SWAP1 PUSH2 0xAD2 JUMP JUMPDEST PUSH2 0x3CF JUMP JUMPDEST STOP JUMPDEST PUSH2 0xE1 PUSH2 0x504 JUMP JUMPDEST PUSH1 0x40 MLOAD PUSH2 0xEE SWAP2 SWAP1 PUSH2 0xD16 JUMP JUMPDEST PUSH1 0x40 MLOAD DUP1 SWAP2 SUB SWAP1 RETURN JUMPDEST PUSH2 0x111 PUSH1 0x4 DUP1 CALLDATASIZE SUB DUP2 ADD SWAP1 PUSH2 0x10C SWAP2 SWAP1 PUSH2 0xA0B JUMP JUMPDEST PUSH2 0x52D JUMP JUMPDEST STOP JUMPDEST PUSH1 0x1 PUSH1 0x20 MSTORE DUP1 PUSH1 0x0 MSTORE PUSH1 0x40 PUSH1 0x0 KECCAK256 PUSH1 0x0 SWAP2 POP SLOAD SWAP1 PUSH2 0x100 EXP SWAP1 DIV PUSH1 0xFF AND DUP2 JUMP JUMPDEST PUSH2 0x13B PUSH2 0x6EF JUMP JUMPDEST PUSH20 0xFFFFFFFFFFFFFFFFFFFFFFFFFFFFFFFFFFFFFFFF AND PUSH1 0x0 DUP1 SLOAD SWAP1 PUSH2 0x100 EXP SWAP1 DIV PUSH20 0xFFFFFFFFFFFFFFFFFFFFFFFFFFFFFFFFFFFFFFFF AND PUSH20 0xFFFFFFFFFFFFFFFFFFFFFFFFFFFFFFFFFFFFFFFF AND EQ PUSH2 0x1C8 JUMPI PUSH1 0x40 MLOAD PUSH32 0x8C379A000000000000000000000000000000000000000000000000000000000 DUP2 MSTORE PUSH1 0x4 ADD PUSH2 0x1BF SWAP1 PUSH2 0xDCA JUMP JUMPDEST PUSH1 0x40 MLOAD DUP1 SWAP2 SUB SWAP1 REVERT JUMPDEST DUP2 DUP2 SWAP1 POP DUP5 DUP5 SWAP1 POP EQ PUSH2 0x210 JUMPI PUSH1 0x40 MLOAD PUSH32 0x8C379A000000000000000000000000000000000000000000000000000000000 DUP2 MSTORE PUSH1 0x4 ADD PUSH2 0x207 SWAP1 PUSH2 0xDEA JUMP JUMPDEST PUSH1 0x40 MLOAD DUP1 SWAP2 SUB SWAP1 REVERT JUMPDEST PUSH1 0x0 JUMPDEST DUP5 DUP5 SWAP1 POP DUP2 LT ISZERO PUSH2 0x275 JUMPI PUSH2 0x268 DUP6 DUP6 DUP4 DUP2 DUP2 LT PUSH2 0x22D JUMPI INVALID JUMPDEST SWAP1 POP PUSH1 0x20 MUL ADD PUSH1 0x20 DUP2 ADD SWAP1 PUSH2 0x242 SWAP2 SWAP1 PUSH2 0xA0B JUMP JUMPDEST DUP5 DUP5 DUP5 DUP2 DUP2 LT PUSH2 0x24E JUMPI INVALID JUMPDEST SWAP1 POP PUSH1 0x20 MUL ADD PUSH1 0x20 DUP2 ADD SWAP1 PUSH2 0x263 SWAP2 SWAP1 PUSH2 0xAA9 JUMP JUMPDEST PUSH2 0x7A0 JUMP JUMPDEST DUP1 DUP1 PUSH1 0x1 ADD SWAP2 POP POP PUSH2 0x213 JUMP JUMPDEST POP POP POP POP POP JUMP JUMPDEST PUSH2 0x284 PUSH2 0x6EF JUMP JUMPDEST PUSH20 0xFFFFFFFFFFFFFFFFFFFFFFFFFFFFFFFFFFFFFFFF AND PUSH1 0x0 DUP1 SLOAD SWAP1 PUSH2 0x100 EXP SWAP1 DIV PUSH20 0xFFFFFFFFFFFFFFFFFFFFFFFFFFFFFFFFFFFFFFFF AND PUSH20 0xFFFFFFFFFFFFFFFFFFFFFFFFFFFFFFFFFFFFFFFF AND EQ PUSH2 0x311 JUMPI PUSH1 0x40 MLOAD PUSH32 0x8C379A000000000000000000000000000000000000000000000000000000000 DUP2 MSTORE PUSH1 0x4 ADD PUSH2 0x308 SWAP1 PUSH2 0xDCA JUMP JUMPDEST PUSH1 0x40 MLOAD DUP1 SWAP2 SUB SWAP1 REVERT JUMPDEST PUSH1 0x0 PUSH20 0xFFFFFFFFFFFFFFFFFFFFFFFFFFFFFFFFFFFFFFFF AND PUSH1 0x0 DUP1 SLOAD SWAP1 PUSH2 0x100 EXP SWAP1 DIV PUSH20 0xFFFFFFFFFFFFFFFFFFFFFFFFFFFFFFFFFFFFFFFF AND PUSH20 0xFFFFFFFFFFFFFFFFFFFFFFFFFFFFFFFFFFFFFFFF AND PUSH32 0x8BE0079C531659141344CD1FD0A4F28419497F9722A3DAAFE3B4186F6B6457E0 PUSH1 0x40 MLOAD PUSH1 0x40 MLOAD DUP1 SWAP2 SUB SWAP1 LOG3 PUSH1 0x0 DUP1 PUSH1 0x0 PUSH2 0x100 EXP DUP2 SLOAD DUP2 PUSH20 0xFFFFFFFFFFFFFFFFFFFFFFFFFFFFFFFFFFFFFFFF MUL NOT AND SWAP1 DUP4 PUSH20 0xFFFFFFFFFFFFFFFFFFFFFFFFFFFFFFFFFFFFFFFF AND MUL OR SWAP1 SSTORE POP JUMP JUMPDEST PUSH1 0x1 PUSH1 0x0 PUSH2 0x3DB PUSH2 0x6EF JUMP JUMPDEST PUSH20 0xFFFFFFFFFFFFFFFFFFFFFFFFFFFFFFFFFFFFFFFF AND PUSH20 0xFFFFFFFFFFFFFFFFFFFFFFFFFFFFFFFFFFFFFFFF AND DUP2 MSTORE PUSH1 0x20 ADD SWAP1 DUP2 MSTORE PUSH1 0x20 ADD PUSH1 0x0 KECCAK256 PUSH1 0x0 SWAP1 SLOAD SWAP1 PUSH2 0x100 EXP SWAP1 DIV PUSH1 0xFF AND PUSH2 0x462 JUMPI PUSH1 0x40 MLOAD PUSH32 0x8C379A000000000000000000000000000000000000000000000000000000000 DUP2 MSTORE PUSH1 0x4 ADD PUSH2 0x459 SWAP1 PUSH2 0xDAA JUMP JUMPDEST PUSH1 0x40 MLOAD DUP1 SWAP2 SUB SWAP1 REVERT JUMPDEST PUSH1 0x0 JUMPDEST DUP2 MLOAD DUP2 LT ISZERO PUSH2 0x4FD JUMPI DUP5 PUSH20 0xFFFFFFFFFFFFFFFFFFFFFFFFFFFFFFFFFFFFFFFF AND PUSH4 0x1E5A92C1 DUP6 DUP6 DUP6 DUP6 DUP2 MLOAD DUP2 LT PUSH2 0x498 JUMPI INVALID JUMPDEST PUSH1 0x20 MUL PUSH1 0x20 ADD ADD MLOAD PUSH1 0x40 MLOAD DUP5 PUSH4 0xFFFFFFFF AND PUSH1 0xE0 SHL DUP2 MSTORE PUSH1 0x4 ADD PUSH2 0x4BE SWAP4 SWAP3 SWAP2 SWAP1 PUSH2 0xD31 JUMP JUMPDEST PUSH1 0x0 PUSH1 0x40 MLOAD DUP1 DUP4 SUB DUP2 PUSH1 0x0 DUP8 DUP1 EXTCODESIZE ISZERO DUP1 ISZERO PUSH2 0x4D8 JUMPI PUSH1 0x0 DUP1 REVERT JUMPDEST POP GAS CALL ISZERO DUP1 ISZERO PUSH2 0x4EC JUMPI RETURNDATASIZE PUSH1 0x0 DUP1 RETURNDATACOPY RETURNDATASIZE PUSH1 0x0 REVERT JUMPDEST POP POP POP POP DUP1 DUP1 PUSH1 0x1 ADD SWAP2 POP POP PUSH2 0x465 JUMP JUMPDEST POP POP POP POP POP JUMP JUMPDEST PUSH1 0x0 DUP1 PUSH1 0x0 SWAP1 SLOAD SWAP1 PUSH2 0x100 EXP SWAP1 DIV PUSH20 0xFFFFFFFFFFFFFFFFFFFFFFFFFFFFFFFFFFFFFFFF AND SWAP1 POP SWAP1 JUMP JUMPDEST PUSH2 0x535 PUSH2 0x6EF JUMP JUMPDEST PUSH20 0xFFFFFFFFFFFFFFFFFFFFFFFFFFFFFFFFFFFFFFFF AND PUSH1 0x0 DUP1 SLOAD SWAP1 PUSH2 0x100 EXP SWAP1 DIV PUSH20 0xFFFFFFFFFFFFFFFFFFFFFFFFFFFFFFFFFFFFFFFF AND PUSH20 0xFFFFFFFFFFFFFFFFFFFFFFFFFFFFFFFFFFFFFFFF AND EQ PUSH2 0x5C2 JUMPI PUSH1 0x40 MLOAD PUSH32 0x8C379A000000000000000000000000000000000000000000000000000000000 DUP2 MSTORE PUSH1 0x4 ADD PUSH2 0x5B9 SWAP1 PUSH2 0xDCA JUMP JUMPDEST PUSH1 0x40 MLOAD DUP1 SWAP2 SUB SWAP1 REVERT JUMPDEST PUSH1 0x0 PUSH20 0xFFFFFFFFFFFFFFFFFFFFFFFFFFFFFFFFFFFFFFFF AND DUP2 PUSH20 0xFFFFFFFFFFFFFFFFFFFFFFFFFFFFFFFFFFFFFFFF AND EQ ISZERO PUSH2 0x632 JUMPI PUSH1 0x40 MLOAD PUSH32 0x8C379A000000000000000000000000000000000000000000000000000000000 DUP2 MSTORE PUSH1 0x4 ADD PUSH2 0x629 SWAP1 PUSH2 0xD8A JUMP JUMPDEST PUSH1 0x40 MLOAD DUP1 SWAP2 SUB SWAP1 REVERT JUMPDEST DUP1 PUSH20 0xFFFFFFFFFFFFFFFFFFFFFFFFFFFFFFFFFFFFFFFF AND PUSH1 0x0 DUP1 SLOAD SWAP1 PUSH2 0x100 EXP SWAP1 DIV PUSH20 0xFFFFFFFFFFFFFFFFFFFFFFFFFFFFFFFFFFFFFFFF AND PUSH20 0xFFFFFFFFFFFFFFFFFFFFFFFFFFFFFFFFFFFFFFFF AND PUSH32 0x8BE0079C531659141344CD1FD0A4F28419497F9722A3DAAFE3B4186F6B6457E0 PUSH1 0x40 MLOAD PUSH1 0x40 MLOAD DUP1 SWAP2 SUB SWAP1 LOG3 DUP1 PUSH1 0x0 DUP1 PUSH2 0x100 EXP DUP2 SLOAD DUP2 PUSH20 0xFFFFFFFFFFFFFFFFFFFFFFFFFFFFFFFFFFFFFFFF MUL NOT AND SWAP1 DUP4 PUSH20 0xFFFFFFFFFFFFFFFFFFFFFFFFFFFFFFFFFFFFFFFF AND MUL OR SWAP1 SSTORE POP POP JUMP JUMPDEST PUSH1 0x0 ADDRESS PUSH20 0xFFFFFFFFFFFFFFFFFFFFFFFFFFFFFFFFFFFFFFFF AND CALLER PUSH20 0xFFFFFFFFFFFFFFFFFFFFFFFFFFFFFFFFFFFFFFFF AND EQ ISZERO PUSH2 0x799 JUMPI PUSH1 0x0 DUP1 CALLDATASIZE DUP1 DUP1 PUSH1 0x1F ADD PUSH1 0x20 DUP1 SWAP2 DIV MUL PUSH1 0x20 ADD PUSH1 0x40 MLOAD SWAP1 DUP2 ADD PUSH1 0x40 MSTORE DUP1 SWAP4 SWAP3 SWAP2 SWAP1 DUP2 DUP2 MSTORE PUSH1 0x20 ADD DUP4 DUP4 DUP1 DUP3 DUP5 CALLDATACOPY PUSH1 0x0 DUP2 DUP5 ADD MSTORE PUSH1 0x1F NOT PUSH1 0x1F DUP3 ADD AND SWAP1 POP DUP1 DUP4 ADD SWAP3 POP POP POP POP POP POP POP SWAP1 POP PUSH1 0x0 DUP1 CALLDATASIZE SWAP1 POP SWAP1 POP PUSH20 0xFFFFFFFFFFFFFFFFFFFFFFFFFFFFFFFFFFFFFFFF DUP2 DUP4 ADD MLOAD AND SWAP3 POP POP POP PUSH2 0x79D JUMP JUMPDEST CALLER SWAP1 POP JUMPDEST SWAP1 JUMP JUMPDEST DUP1 PUSH1 0x1 PUSH1 0x0 DUP5 PUSH20 0xFFFFFFFFFFFFFFFFFFFFFFFFFFFFFFFFFFFFFFFF AND PUSH20 0xFFFFFFFFFFFFFFFFFFFFFFFFFFFFFFFFFFFFFFFF AND DUP2 MSTORE PUSH1 0x20 ADD SWAP1 DUP2 MSTORE PUSH1 0x20 ADD PUSH1 0x0 KECCAK256 PUSH1 0x0 PUSH2 0x100 EXP DUP2 SLOAD DUP2 PUSH1 0xFF MUL NOT AND SWAP1 DUP4 ISZERO ISZERO MUL OR SWAP1 SSTORE POP DUP2 PUSH20 0xFFFFFFFFFFFFFFFFFFFFFFFFFFFFFFFFFFFFFFFF AND PUSH32 0x4EFC5168D98AD88D2D4784344A20876AEA2FA3E8AA503B5FB3164A09019CA3D6 DUP3 PUSH1 0x40 MLOAD PUSH2 0x83D SWAP2 SWAP1 PUSH2 0xD6F JUMP JUMPDEST PUSH1 0x40 MLOAD DUP1 SWAP2 SUB SWAP1 LOG2 POP POP JUMP JUMPDEST PUSH1 0x0 PUSH2 0x85C PUSH2 0x857 DUP5 PUSH2 0xE3B JUMP JUMPDEST PUSH2 0xE0A JUMP JUMPDEST SWAP1 POP DUP1 DUP4 DUP3 MSTORE PUSH1 0x20 DUP3 ADD SWAP1 POP DUP3 PUSH1 0x0 JUMPDEST DUP6 DUP2 LT ISZERO PUSH2 0x89C JUMPI DUP2 CALLDATALOAD DUP6 ADD PUSH2 0x882 DUP9 DUP3 PUSH2 0x9CC JUMP JUMPDEST DUP5 MSTORE PUSH1 0x20 DUP5 ADD SWAP4 POP PUSH1 0x20 DUP4 ADD SWAP3 POP POP PUSH1 0x1 DUP2 ADD SWAP1 POP PUSH2 0x86C JUMP JUMPDEST POP POP POP SWAP4 SWAP3 POP POP POP JUMP JUMPDEST PUSH1 0x0 PUSH2 0x8B9 PUSH2 0x8B4 DUP5 PUSH2 0xE67 JUMP JUMPDEST PUSH2 0xE0A JUMP JUMPDEST SWAP1 POP DUP3 DUP2 MSTORE PUSH1 0x20 DUP2 ADD DUP5 DUP5 DUP5 ADD GT ISZERO PUSH2 0x8D1 JUMPI PUSH1 0x0 DUP1 REVERT JUMPDEST PUSH2 0x8DC DUP5 DUP3 DUP6 PUSH2 0xF14 JUMP JUMPDEST POP SWAP4 SWAP3 POP POP POP JUMP JUMPDEST PUSH1 0x0 DUP2 CALLDATALOAD SWAP1 POP PUSH2 0x8F3 DUP2 PUSH2 0xF69 JUMP JUMPDEST SWAP3 SWAP2 POP POP JUMP JUMPDEST PUSH1 0x0 DUP1 DUP4 PUSH1 0x1F DUP5 ADD SLT PUSH2 0x90B JUMPI PUSH1 0x0 DUP1 REVERT JUMPDEST DUP3 CALLDATALOAD SWAP1 POP PUSH8 0xFFFFFFFFFFFFFFFF DUP2 GT ISZERO PUSH2 0x924 JUMPI PUSH1 0x0 DUP1 REVERT JUMPDEST PUSH1 0x20 DUP4 ADD SWAP2 POP DUP4 PUSH1 0x20 DUP3 MUL DUP4 ADD GT ISZERO PUSH2 0x93C JUMPI PUSH1 0x0 DUP1 REVERT JUMPDEST SWAP3 POP SWAP3 SWAP1 POP JUMP JUMPDEST PUSH1 0x0 DUP1 DUP4 PUSH1 0x1F DUP5 ADD SLT PUSH2 0x955 JUMPI PUSH1 0x0 DUP1 REVERT JUMPDEST DUP3 CALLDATALOAD SWAP1 POP PUSH8 0xFFFFFFFFFFFFFFFF DUP2 GT ISZERO PUSH2 0x96E JUMPI PUSH1 0x0 DUP1 REVERT JUMPDEST PUSH1 0x20 DUP4 ADD SWAP2 POP DUP4 PUSH1 0x20 DUP3 MUL DUP4 ADD GT ISZERO PUSH2 0x986 JUMPI PUSH1 0x0 DUP1 REVERT JUMPDEST SWAP3 POP SWAP3 SWAP1 POP JUMP JUMPDEST PUSH1 0x0 DUP3 PUSH1 0x1F DUP4 ADD SLT PUSH2 0x99E JUMPI PUSH1 0x0 DUP1 REVERT JUMPDEST DUP2 CALLDATALOAD PUSH2 0x9AE DUP5 DUP3 PUSH1 0x20 DUP7 ADD PUSH2 0x849 JUMP JUMPDEST SWAP2 POP POP SWAP3 SWAP2 POP POP JUMP JUMPDEST PUSH1 0x0 DUP2 CALLDATALOAD SWAP1 POP PUSH2 0x9C6 DUP2 PUSH2 0xF80 JUMP JUMPDEST SWAP3 SWAP2 POP POP JUMP JUMPDEST PUSH1 0x0 DUP3 PUSH1 0x1F DUP4 ADD SLT PUSH2 0x9DD JUMPI PUSH1 0x0 DUP1 REVERT JUMPDEST DUP2 CALLDATALOAD PUSH2 0x9ED DUP5 DUP3 PUSH1 0x20 DUP7 ADD PUSH2 0x8A6 JUMP JUMPDEST SWAP2 POP POP SWAP3 SWAP2 POP POP JUMP JUMPDEST PUSH1 0x0 DUP2 CALLDATALOAD SWAP1 POP PUSH2 0xA05 DUP2 PUSH2 0xF97 JUMP JUMPDEST SWAP3 SWAP2 POP POP JUMP JUMPDEST PUSH1 0x0 PUSH1 0x20 DUP3 DUP5 SUB SLT ISZERO PUSH2 0xA1D JUMPI PUSH1 0x0 DUP1 REVERT JUMPDEST PUSH1 0x0 PUSH2 0xA2B DUP5 DUP3 DUP6 ADD PUSH2 0x8E4 JUMP JUMPDEST SWAP2 POP POP SWAP3 SWAP2 POP POP JUMP JUMPDEST PUSH1 0x0 DUP1 PUSH1 0x0 DUP1 PUSH1 0x40 DUP6 DUP8 SUB SLT ISZERO PUSH2 0xA4A JUMPI PUSH1 0x0 DUP1 REVERT JUMPDEST PUSH1 0x0 DUP6 ADD CALLDATALOAD PUSH8 0xFFFFFFFFFFFFFFFF DUP2 GT ISZERO PUSH2 0xA64 JUMPI PUSH1 0x0 DUP1 REVERT JUMPDEST PUSH2 0xA70 DUP8 DUP3 DUP9 ADD PUSH2 0x8F9 JUMP JUMPDEST SWAP5 POP SWAP5 POP POP PUSH1 0x20 DUP6 ADD CALLDATALOAD PUSH8 0xFFFFFFFFFFFFFFFF DUP2 GT ISZERO PUSH2 0xA8F JUMPI PUSH1 0x0 DUP1 REVERT JUMPDEST PUSH2 0xA9B DUP8 DUP3 DUP9 ADD PUSH2 0x943 JUMP JUMPDEST SWAP3 POP SWAP3 POP POP SWAP3 SWAP6 SWAP2 SWAP5 POP SWAP3 POP JUMP JUMPDEST PUSH1 0x0 PUSH1 0x20 DUP3 DUP5 SUB SLT ISZERO PUSH2 0xABB JUMPI PUSH1 0x0 DUP1 REVERT JUMPDEST PUSH1 0x0 PUSH2 0xAC9 DUP5 DUP3 DUP6 ADD PUSH2 0x9B7 JUMP JUMPDEST SWAP2 POP POP SWAP3 SWAP2 POP POP JUMP JUMPDEST PUSH1 0x0 DUP1 PUSH1 0x0 DUP1 PUSH1 0x80 DUP6 DUP8 SUB SLT ISZERO PUSH2 0xAE8 JUMPI PUSH1 0x0 DUP1 REVERT JUMPDEST PUSH1 0x0 PUSH2 0xAF6 DUP8 DUP3 DUP9 ADD PUSH2 0x9F6 JUMP JUMPDEST SWAP5 POP POP PUSH1 0x20 PUSH2 0xB07 DUP8 DUP3 DUP9 ADD PUSH2 0x8E4 JUMP JUMPDEST SWAP4 POP POP PUSH1 0x40 PUSH2 0xB18 DUP8 DUP3 DUP9 ADD PUSH2 0x8E4 JUMP JUMPDEST SWAP3 POP POP PUSH1 0x60 DUP6 ADD CALLDATALOAD PUSH8 0xFFFFFFFFFFFFFFFF DUP2 GT ISZERO PUSH2 0xB35 JUMPI PUSH1 0x0 DUP1 REVERT JUMPDEST PUSH2 0xB41 DUP8 DUP3 DUP9 ADD PUSH2 0x98D JUMP JUMPDEST SWAP2 POP POP SWAP3 SWAP6 SWAP2 SWAP5 POP SWAP3 POP JUMP JUMPDEST PUSH2 0xB56 DUP2 PUSH2 0xEC4 JUMP JUMPDEST DUP3 MSTORE POP POP JUMP JUMPDEST PUSH2 0xB65 DUP2 PUSH2 0xED6 JUMP JUMPDEST DUP3 MSTORE POP POP JUMP JUMPDEST PUSH1 0x0 PUSH2 0xB76 DUP3 PUSH2 0xE97 JUMP JUMPDEST PUSH2 0xB80 DUP2 DUP6 PUSH2 0xEA2 JUMP JUMPDEST SWAP4 POP PUSH2 0xB90 DUP2 DUP6 PUSH1 0x20 DUP7 ADD PUSH2 0xF23 JUMP JUMPDEST PUSH2 0xB99 DUP2 PUSH2 0xF58 JUMP JUMPDEST DUP5 ADD SWAP2 POP POP SWAP3 SWAP2 POP POP JUMP JUMPDEST PUSH1 0x0 PUSH2 0xBB1 PUSH1 0x26 DUP4 PUSH2 0xEB3 JUMP JUMPDEST SWAP2 POP PUSH32 0x4F776E61626C653A206E6577206F776E657220697320746865207A65726F2061 PUSH1 0x0 DUP4 ADD MSTORE PUSH32 0x6464726573730000000000000000000000000000000000000000000000000000 PUSH1 0x20 DUP4 ADD MSTORE PUSH1 0x40 DUP3 ADD SWAP1 POP SWAP2 SWAP1 POP JUMP JUMPDEST PUSH1 0x0 PUSH2 0xC17 PUSH1 0x2F DUP4 PUSH2 0xEB3 JUMP JUMPDEST SWAP2 POP PUSH32 0x436F6D6D6974746565236D616E616765436F6C6C656374696F6E3A20554E4155 PUSH1 0x0 DUP4 ADD MSTORE PUSH32 0x54484F52495A45445F53454E4445520000000000000000000000000000000000 PUSH1 0x20 DUP4 ADD MSTORE PUSH1 0x40 DUP3 ADD SWAP1 POP SWAP2 SWAP1 POP JUMP JUMPDEST PUSH1 0x0 PUSH2 0xC7D PUSH1 0x20 DUP4 PUSH2 0xEB3 JUMP JUMPDEST SWAP2 POP PUSH32 0x4F776E61626C653A2063616C6C6572206973206E6F7420746865206F776E6572 PUSH1 0x0 DUP4 ADD MSTORE PUSH1 0x20 DUP3 ADD SWAP1 POP SWAP2 SWAP1 POP JUMP JUMPDEST PUSH1 0x0 PUSH2 0xCBD PUSH1 0x25 DUP4 PUSH2 0xEB3 JUMP JUMPDEST SWAP2 POP PUSH32 0x436F6D6D6974746565237365744D656D626572733A204C454E4754485F4D4953 PUSH1 0x0 DUP4 ADD MSTORE PUSH32 0x4D41544348000000000000000000000000000000000000000000000000000000 PUSH1 0x20 DUP4 ADD MSTORE PUSH1 0x40 DUP3 ADD SWAP1 POP SWAP2 SWAP1 POP JUMP JUMPDEST PUSH1 0x0 PUSH1 0x20 DUP3 ADD SWAP1 POP PUSH2 0xD2B PUSH1 0x0 DUP4 ADD DUP5 PUSH2 0xB4D JUMP JUMPDEST SWAP3 SWAP2 POP POP JUMP JUMPDEST PUSH1 0x0 PUSH1 0x60 DUP3 ADD SWAP1 POP PUSH2 0xD46 PUSH1 0x0 DUP4 ADD DUP7 PUSH2 0xB4D JUMP JUMPDEST PUSH2 0xD53 PUSH1 0x20 DUP4 ADD DUP6 PUSH2 0xB4D JUMP JUMPDEST DUP2 DUP2 SUB PUSH1 0x40 DUP4 ADD MSTORE PUSH2 0xD65 DUP2 DUP5 PUSH2 0xB6B JUMP JUMPDEST SWAP1 POP SWAP5 SWAP4 POP POP POP POP JUMP JUMPDEST PUSH1 0x0 PUSH1 0x20 DUP3 ADD SWAP1 POP PUSH2 0xD84 PUSH1 0x0 DUP4 ADD DUP5 PUSH2 0xB5C JUMP JUMPDEST SWAP3 SWAP2 POP POP JUMP JUMPDEST PUSH1 0x0 PUSH1 0x20 DUP3 ADD SWAP1 POP DUP2 DUP2 SUB PUSH1 0x0 DUP4 ADD MSTORE PUSH2 0xDA3 DUP2 PUSH2 0xBA4 JUMP JUMPDEST SWAP1 POP SWAP2 SWAP1 POP JUMP JUMPDEST PUSH1 0x0 PUSH1 0x20 DUP3 ADD SWAP1 POP DUP2 DUP2 SUB PUSH1 0x0 DUP4 ADD MSTORE PUSH2 0xDC3 DUP2 PUSH2 0xC0A JUMP JUMPDEST SWAP1 POP SWAP2 SWAP1 POP JUMP JUMPDEST PUSH1 0x0 PUSH1 0x20 DUP3 ADD SWAP1 POP DUP2 DUP2 SUB PUSH1 0x0 DUP4 ADD MSTORE PUSH2 0xDE3 DUP2 PUSH2 0xC70 JUMP JUMPDEST SWAP1 POP SWAP2 SWAP1 POP JUMP JUMPDEST PUSH1 0x0 PUSH1 0x20 DUP3 ADD SWAP1 POP DUP2 DUP2 SUB PUSH1 0x0 DUP4 ADD MSTORE PUSH2 0xE03 DUP2 PUSH2 0xCB0 JUMP JUMPDEST SWAP1 POP SWAP2 SWAP1 POP JUMP JUMPDEST PUSH1 0x0 PUSH1 0x40 MLOAD SWAP1 POP DUP2 DUP2 ADD DUP2 DUP2 LT PUSH8 0xFFFFFFFFFFFFFFFF DUP3 GT OR ISZERO PUSH2 0xE31 JUMPI PUSH2 0xE30 PUSH2 0xF56 JUMP JUMPDEST JUMPDEST DUP1 PUSH1 0x40 MSTORE POP SWAP2 SWAP1 POP JUMP JUMPDEST PUSH1 0x0 PUSH8 0xFFFFFFFFFFFFFFFF DUP3 GT ISZERO PUSH2 0xE56 JUMPI PUSH2 0xE55 PUSH2 0xF56 JUMP JUMPDEST JUMPDEST PUSH1 0x20 DUP3 MUL SWAP1 POP PUSH1 0x20 DUP2 ADD SWAP1 POP SWAP2 SWAP1 POP JUMP JUMPDEST PUSH1 0x0 PUSH8 0xFFFFFFFFFFFFFFFF DUP3 GT ISZERO PUSH2 0xE82 JUMPI PUSH2 0xE81 PUSH2 0xF56 JUMP JUMPDEST JUMPDEST PUSH1 0x1F NOT PUSH1 0x1F DUP4 ADD AND SWAP1 POP PUSH1 0x20 DUP2 ADD SWAP1 POP SWAP2 SWAP1 POP JUMP JUMPDEST PUSH1 0x0 DUP2 MLOAD SWAP1 POP SWAP2 SWAP1 POP JUMP JUMPDEST PUSH1 0x0 DUP3 DUP3 MSTORE PUSH1 0x20 DUP3 ADD SWAP1 POP SWAP3 SWAP2 POP POP JUMP JUMPDEST PUSH1 0x0 DUP3 DUP3 MSTORE PUSH1 0x20 DUP3 ADD SWAP1 POP SWAP3 SWAP2 POP POP JUMP JUMPDEST PUSH1 0x0 PUSH2 0xECF DUP3 PUSH2 0xEF4 JUMP JUMPDEST SWAP1 POP SWAP2 SWAP1 POP JUMP JUMPDEST PUSH1 0x0 DUP2 ISZERO ISZERO SWAP1 POP SWAP2 SWAP1 POP JUMP JUMPDEST PUSH1 0x0 PUSH2 0xEED DUP3 PUSH2 0xEC4 JUMP JUMPDEST SWAP1 POP SWAP2 SWAP1 POP JUMP JUMPDEST PUSH1 0x0 PUSH20 0xFFFFFFFFFFFFFFFFFFFFFFFFFFFFFFFFFFFFFFFF DUP3 AND SWAP1 POP SWAP2 SWAP1 POP JUMP JUMPDEST DUP3 DUP2 DUP4 CALLDATACOPY PUSH1 0x0 DUP4 DUP4 ADD MSTORE POP POP POP JUMP JUMPDEST PUSH1 0x0 JUMPDEST DUP4 DUP2 LT ISZERO PUSH2 0xF41 JUMPI DUP1 DUP3 ADD MLOAD DUP2 DUP5 ADD MSTORE PUSH1 0x20 DUP2 ADD SWAP1 POP PUSH2 0xF26 JUMP JUMPDEST DUP4 DUP2 GT ISZERO PUSH2 0xF50 JUMPI PUSH1 0x0 DUP5 DUP5 ADD MSTORE JUMPDEST POP POP POP POP JUMP JUMPDEST INVALID JUMPDEST PUSH1 0x0 PUSH1 0x1F NOT PUSH1 0x1F DUP4 ADD AND SWAP1 POP SWAP2 SWAP1 POP JUMP JUMPDEST PUSH2 0xF72 DUP2 PUSH2 0xEC4 JUMP JUMPDEST DUP2 EQ PUSH2 0xF7D JUMPI PUSH1 0x0 DUP1 REVERT JUMPDEST POP JUMP JUMPDEST PUSH2 0xF89 DUP2 PUSH2 0xED6 JUMP JUMPDEST DUP2 EQ PUSH2 0xF94 JUMPI PUSH1 0x0 DUP1 REVERT JUMPDEST POP JUMP JUMPDEST PUSH2 0xFA0 DUP2 PUSH2 0xEE2 JUMP JUMPDEST DUP2 EQ PUSH2 0xFAB JUMPI PUSH1 0x0 DUP1 REVERT JUMPDEST POP JUMP INVALID LOG2 PUSH5 0x6970667358 0x22 SLT KECCAK256 0x5F 0xAD PC PUSH7 0xA1EBC807A8F7E3 RETURNDATACOPY 0xCC PUSH1 0x14 BALANCE SWAP9 MSIZE 0xDD 0x5E 0x2D 0xCD LOG4 0xE 0x27 0x25 0xEE 0xFC 0xA6 0x27 0xCF SWAP15 PUSH5 0x736F6C6343 STOP SMOD MOD STOP CALLER "
				},
				"gasEstimates": {
					"creation": {
						"codeDepositCost": "813600",
						"executionCost": "infinite",
						"totalCost": "infinite"
					},
					"external": {
						"manageCollection(address,address,address,bytes[])": "infinite",
						"members(address)": "1523",
						"owner()": "1288",
						"renounceOwnership()": "infinite",
						"setMembers(address[],bool[])": "infinite",
						"transferOwnership(address)": "infinite"
					},
					"internal": {
						"_setMember(address,bool)": "infinite"
					}
				},
				"methodIdentifiers": {
					"manageCollection(address,address,address,bytes[])": "81c9308e",
					"members(address)": "08ae4b0c",
					"owner()": "8da5cb5b",
					"renounceOwnership()": "715018a6",
					"setMembers(address[],bool[])": "29352b27",
					"transferOwnership(address)": "f2fde38b"
				}
			},
			"storageLayout": {
				"storage": [
					{
						"astId": 55,
						"contract": "contracts/Committee.sol:Committee",
						"label": "_owner",
						"offset": 0,
						"slot": "0",
						"type": "t_address"
					},
					{
						"astId": 797,
						"contract": "contracts/Committee.sol:Committee",
						"label": "members",
						"offset": 0,
						"slot": "1",
						"type": "t_mapping(t_address,t_bool)"
					}
				],
				"types": {
					"t_address": {
						"encoding": "inplace",
						"label": "address",
						"numberOfBytes": "20"
					},
					"t_bool": {
						"encoding": "inplace",
						"label": "bool",
						"numberOfBytes": "1"
					},
					"t_mapping(t_address,t_bool)": {
						"encoding": "mapping",
						"key": "t_address",
						"label": "mapping(address => bool)",
						"numberOfBytes": "32",
						"value": "t_bool"
					}
				}
			},
			"userdoc": {
				"kind": "user",
				"methods": {
					"constructor": {
						"notice": "Create the contract"
					},
					"manageCollection(address,address,address,bytes[])": {
						"notice": "Manage collection"
					},
					"setMembers(address[],bool[])": {
						"notice": "Set members"
					}
				},
				"version": 1
			}
		}
	}
}