{
	"contracts/Committee.sol": {
		"NativeMetaTransaction": {
			"abi": [
				{
					"anonymous": false,
					"inputs": [
						{
							"indexed": false,
							"internalType": "address",
							"name": "userAddress",
							"type": "address"
						},
						{
							"indexed": false,
							"internalType": "address",
							"name": "relayerAddress",
							"type": "address"
						},
						{
							"indexed": false,
							"internalType": "bytes",
							"name": "functionSignature",
							"type": "bytes"
						}
					],
					"name": "MetaTransactionExecuted",
					"type": "event"
				},
				{
					"inputs": [],
					"name": "domainSeparator",
					"outputs": [
						{
							"internalType": "bytes32",
							"name": "",
							"type": "bytes32"
						}
					],
					"stateMutability": "view",
					"type": "function"
				},
				{
					"inputs": [
						{
							"internalType": "address",
							"name": "userAddress",
							"type": "address"
						},
						{
							"internalType": "bytes",
							"name": "functionSignature",
							"type": "bytes"
						},
						{
							"internalType": "bytes32",
							"name": "sigR",
							"type": "bytes32"
						},
						{
							"internalType": "bytes32",
							"name": "sigS",
							"type": "bytes32"
						},
						{
							"internalType": "uint8",
							"name": "sigV",
							"type": "uint8"
						}
					],
					"name": "executeMetaTransaction",
					"outputs": [
						{
							"internalType": "bytes",
							"name": "",
							"type": "bytes"
						}
					],
					"stateMutability": "payable",
					"type": "function"
				},
				{
					"inputs": [],
					"name": "getChainId",
					"outputs": [
						{
							"internalType": "uint256",
							"name": "",
							"type": "uint256"
						}
					],
					"stateMutability": "pure",
					"type": "function"
				},
				{
					"inputs": [
						{
							"internalType": "address",
							"name": "user",
							"type": "address"
						}
					],
					"name": "getNonce",
					"outputs": [
						{
							"internalType": "uint256",
							"name": "nonce",
							"type": "uint256"
						}
					],
					"stateMutability": "view",
					"type": "function"
				}
			],
			"devdoc": {
				"kind": "dev",
				"methods": {},
				"version": 1
			},
			"evm": {
				"assembly": "    /* \"contracts/Committee.sol\":12504:15208  contract NativeMetaTransaction is EIP712Base {... */\n  mstore(0x40, 0x80)\n  callvalue\n  dup1\n  iszero\n  tag_1\n  jumpi\n  0x00\n  dup1\n  revert\ntag_1:\n  pop\n  dataSize(sub_0)\n  dup1\n  dataOffset(sub_0)\n  0x00\n  codecopy\n  0x00\n  return\nstop\n\nsub_0: assembly {\n        /* \"contracts/Committee.sol\":12504:15208  contract NativeMetaTransaction is EIP712Base {... */\n      mstore(0x40, 0x80)\n      jumpi(tag_1, lt(calldatasize, 0x04))\n      shr(0xe0, calldataload(0x00))\n      dup1\n      0x0c53c51c\n      eq\n      tag_2\n      jumpi\n      dup1\n      0x2d0335ab\n      eq\n      tag_3\n      jumpi\n      dup1\n      0x3408e470\n      eq\n      tag_4\n      jumpi\n      dup1\n      0xf698da25\n      eq\n      tag_5\n      jumpi\n    tag_1:\n      0x00\n      dup1\n      revert\n        /* \"contracts/Committee.sol\":13059:14226  function executeMetaTransaction(... */\n    tag_2:\n      tag_6\n      0x04\n      dup1\n      calldatasize\n      sub\n      dup2\n      add\n      swap1\n      tag_7\n      swap2\n      swap1\n      tag_8\n      jump\t// in\n    tag_7:\n      tag_9\n      jump\t// in\n    tag_6:\n      mload(0x40)\n      tag_10\n      swap2\n      swap1\n      tag_11\n      jump\t// in\n    tag_10:\n      mload(0x40)\n      dup1\n      swap2\n      sub\n      swap1\n      return\n        /* \"contracts/Committee.sol\":14634:14741  function getNonce(address user) external view returns (uint256 nonce) {... */\n    tag_3:\n      callvalue\n      dup1\n      iszero\n      tag_12\n      jumpi\n      0x00\n      dup1\n      revert\n    tag_12:\n      pop\n      tag_13\n      0x04\n      dup1\n      calldatasize\n      sub\n      dup2\n      add\n      swap1\n      tag_14\n      swap2\n      swap1\n      tag_15\n      jump\t// in\n    tag_14:\n      tag_16\n      jump\t// in\n    tag_13:\n      mload(0x40)\n      tag_17\n      swap2\n      swap1\n      tag_18\n      jump\t// in\n    tag_17:\n      mload(0x40)\n      dup1\n      swap2\n      sub\n      swap1\n      return\n        /* \"contracts/Committee.sol\":11661:11816  function getChainId() public pure returns (uint256) {... */\n    tag_4:\n      callvalue\n      dup1\n      iszero\n      tag_19\n      jumpi\n      0x00\n      dup1\n      revert\n    tag_19:\n      pop\n      tag_20\n      tag_21\n      jump\t// in\n    tag_20:\n      mload(0x40)\n      tag_22\n      swap2\n      swap1\n      tag_18\n      jump\t// in\n    tag_22:\n      mload(0x40)\n      dup1\n      swap2\n      sub\n      swap1\n      return\n        /* \"contracts/Committee.sol\":11030:11060  bytes32 public domainSeparator */\n    tag_5:\n      callvalue\n      dup1\n      iszero\n      tag_23\n      jumpi\n      0x00\n      dup1\n      revert\n    tag_23:\n      pop\n      tag_24\n      tag_25\n      jump\t// in\n    tag_24:\n      mload(0x40)\n      tag_26\n      swap2\n      swap1\n      tag_27\n      jump\t// in\n    tag_26:\n      mload(0x40)\n      dup1\n      swap2\n      sub\n      swap1\n      return\n        /* \"contracts/Committee.sol\":13059:14226  function executeMetaTransaction(... */\n    tag_9:\n        /* \"contracts/Committee.sol\":13256:13268  bytes memory */\n      0x60\n        /* \"contracts/Committee.sol\":13280:13309  MetaTransaction memory metaTx */\n      0x00\n        /* \"contracts/Committee.sol\":13312:13460  MetaTransaction({... */\n      mload(0x40)\n      dup1\n      0x60\n      add\n      0x40\n      mstore\n      dup1\n        /* \"contracts/Committee.sol\":13349:13355  nonces */\n      0x01\n        /* \"contracts/Committee.sol\":13349:13368  nonces[userAddress] */\n      0x00\n        /* \"contracts/Committee.sol\":13356:13367  userAddress */\n      dup11\n        /* \"contracts/Committee.sol\":13349:13368  nonces[userAddress] */\n      0xffffffffffffffffffffffffffffffffffffffff\n      and\n      0xffffffffffffffffffffffffffffffffffffffff\n      and\n      dup2\n      mstore\n      0x20\n      add\n      swap1\n      dup2\n      mstore\n      0x20\n      add\n      0x00\n      keccak256\n      sload\n        /* \"contracts/Committee.sol\":13312:13460  MetaTransaction({... */\n      dup2\n      mstore\n      0x20\n      add\n        /* \"contracts/Committee.sol\":13388:13399  userAddress */\n      dup9\n        /* \"contracts/Committee.sol\":13312:13460  MetaTransaction({... */\n      0xffffffffffffffffffffffffffffffffffffffff\n      and\n      dup2\n      mstore\n      0x20\n      add\n        /* \"contracts/Committee.sol\":13432:13449  functionSignature */\n      dup8\n        /* \"contracts/Committee.sol\":13312:13460  MetaTransaction({... */\n      dup2\n      mstore\n      pop\n        /* \"contracts/Committee.sol\":13280:13460  MetaTransaction memory metaTx = MetaTransaction({... */\n      swap1\n      pop\n        /* \"contracts/Committee.sol\":13492:13537  verify(userAddress, metaTx, sigR, sigS, sigV) */\n      tag_29\n        /* \"contracts/Committee.sol\":13499:13510  userAddress */\n      dup8\n        /* \"contracts/Committee.sol\":13512:13518  metaTx */\n      dup3\n        /* \"contracts/Committee.sol\":13520:13524  sigR */\n      dup8\n        /* \"contracts/Committee.sol\":13526:13530  sigS */\n      dup8\n        /* \"contracts/Committee.sol\":13532:13536  sigV */\n      dup8\n        /* \"contracts/Committee.sol\":13492:13498  verify */\n      tag_30\n        /* \"contracts/Committee.sol\":13492:13537  verify(userAddress, metaTx, sigR, sigS, sigV) */\n      jump\t// in\n    tag_29:\n        /* \"contracts/Committee.sol\":13471:13624  require(... */\n      tag_31\n      jumpi\n      mload(0x40)\n      0x08c379a000000000000000000000000000000000000000000000000000000000\n      dup2\n      mstore\n      0x04\n      add\n      tag_32\n      swap1\n      tag_33\n      jump\t// in\n    tag_32:\n      mload(0x40)\n      dup1\n      swap2\n      sub\n      swap1\n      revert\n    tag_31:\n        /* \"contracts/Committee.sol\":13710:13736  nonces[userAddress].add(1) */\n      tag_34\n        /* \"contracts/Committee.sol\":13734:13735  1 */\n      0x01\n        /* \"contracts/Committee.sol\":13710:13716  nonces */\n      dup1\n        /* \"contracts/Committee.sol\":13710:13729  nonces[userAddress] */\n      0x00\n        /* \"contracts/Committee.sol\":13717:13728  userAddress */\n      dup11\n        /* \"contracts/Committee.sol\":13710:13729  nonces[userAddress] */\n      0xffffffffffffffffffffffffffffffffffffffff\n      and\n      0xffffffffffffffffffffffffffffffffffffffff\n      and\n      dup2\n      mstore\n      0x20\n      add\n      swap1\n      dup2\n      mstore\n      0x20\n      add\n      0x00\n      keccak256\n      sload\n        /* \"contracts/Committee.sol\":13710:13733  nonces[userAddress].add */\n      tag_35\n      swap1\n        /* \"contracts/Committee.sol\":13710:13736  nonces[userAddress].add(1) */\n      swap2\n      swap1\n      0xffffffff\n      and\n      jump\t// in\n    tag_34:\n        /* \"contracts/Committee.sol\":13688:13694  nonces */\n      0x01\n        /* \"contracts/Committee.sol\":13688:13707  nonces[userAddress] */\n      0x00\n        /* \"contracts/Committee.sol\":13695:13706  userAddress */\n      dup10\n        /* \"contracts/Committee.sol\":13688:13707  nonces[userAddress] */\n      0xffffffffffffffffffffffffffffffffffffffff\n      and\n      0xffffffffffffffffffffffffffffffffffffffff\n      and\n      dup2\n      mstore\n      0x20\n      add\n      swap1\n      dup2\n      mstore\n      0x20\n      add\n      0x00\n      keccak256\n        /* \"contracts/Committee.sol\":13688:13736  nonces[userAddress] = nonces[userAddress].add(1) */\n      dup2\n      swap1\n      sstore\n      pop\n        /* \"contracts/Committee.sol\":13752:13865  MetaTransactionExecuted(... */\n      0x5845892132946850460bff5a0083f71031bc5bf9aadcd40f1de79423eac9b10b\n        /* \"contracts/Committee.sol\":13789:13800  userAddress */\n      dup8\n        /* \"contracts/Committee.sol\":13814:13824  msg.sender */\n      caller\n        /* \"contracts/Committee.sol\":13838:13855  functionSignature */\n      dup9\n        /* \"contracts/Committee.sol\":13752:13865  MetaTransactionExecuted(... */\n      mload(0x40)\n      tag_36\n      swap4\n      swap3\n      swap2\n      swap1\n      tag_37\n      jump\t// in\n    tag_36:\n      mload(0x40)\n      dup1\n      swap2\n      sub\n      swap1\n      log1\n        /* \"contracts/Committee.sol\":13973:13985  bool success */\n      0x00\n        /* \"contracts/Committee.sol\":13987:14010  bytes memory returnData */\n      dup1\n        /* \"contracts/Committee.sol\":14022:14026  this */\n      address\n        /* \"contracts/Committee.sol\":14014:14032  address(this).call */\n      0xffffffffffffffffffffffffffffffffffffffff\n      and\n        /* \"contracts/Committee.sol\":14040:14049  msg.value */\n      callvalue\n        /* \"contracts/Committee.sol\":14081:14098  functionSignature */\n      dup10\n        /* \"contracts/Committee.sol\":14100:14111  userAddress */\n      dup12\n        /* \"contracts/Committee.sol\":14064:14112  abi.encodePacked(functionSignature, userAddress) */\n      add(0x20, mload(0x40))\n      tag_38\n      swap3\n      swap2\n      swap1\n      tag_39\n      jump\t// in\n    tag_38:\n      mload(0x40)\n      0x20\n      dup2\n      dup4\n      sub\n      sub\n      dup2\n      mstore\n      swap1\n      0x40\n      mstore\n        /* \"contracts/Committee.sol\":14014:14122  address(this).call{value: msg.value}(... */\n      mload(0x40)\n      tag_40\n      swap2\n      swap1\n      tag_41\n      jump\t// in\n    tag_40:\n      0x00\n      mload(0x40)\n      dup1\n      dup4\n      sub\n      dup2\n      dup6\n      dup8\n      gas\n      call\n      swap3\n      pop\n      pop\n      pop\n      returndatasize\n      dup1\n      0x00\n      dup2\n      eq\n      tag_44\n      jumpi\n      mload(0x40)\n      swap2\n      pop\n      and(add(returndatasize, 0x3f), not(0x1f))\n      dup3\n      add\n      0x40\n      mstore\n      returndatasize\n      dup3\n      mstore\n      returndatasize\n      0x00\n      0x20\n      dup5\n      add\n      returndatacopy\n      jump(tag_43)\n    tag_44:\n      0x60\n      swap2\n      pop\n    tag_43:\n      pop\n        /* \"contracts/Committee.sol\":13972:14122  (bool success, bytes memory returnData) = address(this).call{value: msg.value}(... */\n      swap2\n      pop\n      swap2\n      pop\n        /* \"contracts/Committee.sol\":14140:14147  success */\n      dup2\n        /* \"contracts/Committee.sol\":14132:14191  require(success, \"NMT#executeMetaTransaction: CALL_FAILED\") */\n      tag_45\n      jumpi\n      mload(0x40)\n      0x08c379a000000000000000000000000000000000000000000000000000000000\n      dup2\n      mstore\n      0x04\n      add\n      tag_46\n      swap1\n      tag_47\n      jump\t// in\n    tag_46:\n      mload(0x40)\n      dup1\n      swap2\n      sub\n      swap1\n      revert\n    tag_45:\n        /* \"contracts/Committee.sol\":14209:14219  returnData */\n      dup1\n        /* \"contracts/Committee.sol\":14202:14219  return returnData */\n      swap4\n      pop\n      pop\n      pop\n      pop\n        /* \"contracts/Committee.sol\":13059:14226  function executeMetaTransaction(... */\n      swap6\n      swap5\n      pop\n      pop\n      pop\n      pop\n      pop\n      jump\t// out\n        /* \"contracts/Committee.sol\":14634:14741  function getNonce(address user) external view returns (uint256 nonce) {... */\n    tag_16:\n        /* \"contracts/Committee.sol\":14689:14702  uint256 nonce */\n      0x00\n        /* \"contracts/Committee.sol\":14722:14728  nonces */\n      0x01\n        /* \"contracts/Committee.sol\":14722:14734  nonces[user] */\n      0x00\n        /* \"contracts/Committee.sol\":14729:14733  user */\n      dup4\n        /* \"contracts/Committee.sol\":14722:14734  nonces[user] */\n      0xffffffffffffffffffffffffffffffffffffffff\n      and\n      0xffffffffffffffffffffffffffffffffffffffff\n      and\n      dup2\n      mstore\n      0x20\n      add\n      swap1\n      dup2\n      mstore\n      0x20\n      add\n      0x00\n      keccak256\n      sload\n        /* \"contracts/Committee.sol\":14714:14734  nonce = nonces[user] */\n      swap1\n      pop\n        /* \"contracts/Committee.sol\":14634:14741  function getNonce(address user) external view returns (uint256 nonce) {... */\n      swap2\n      swap1\n      pop\n      jump\t// out\n        /* \"contracts/Committee.sol\":11661:11816  function getChainId() public pure returns (uint256) {... */\n    tag_21:\n        /* \"contracts/Committee.sol\":11704:11711  uint256 */\n      0x00\n        /* \"contracts/Committee.sol\":11723:11733  uint256 id */\n      dup1\n        /* \"contracts/Committee.sol\":11772:11781  chainid() */\n      chainid\n        /* \"contracts/Committee.sol\":11766:11781  id := chainid() */\n      swap1\n      pop\n        /* \"contracts/Committee.sol\":11807:11809  id */\n      dup1\n        /* \"contracts/Committee.sol\":11800:11809  return id */\n      swap2\n      pop\n      pop\n        /* \"contracts/Committee.sol\":11661:11816  function getChainId() public pure returns (uint256) {... */\n      swap1\n      jump\t// out\n        /* \"contracts/Committee.sol\":11030:11060  bytes32 public domainSeparator */\n    tag_25:\n      sload(0x00)\n      dup2\n      jump\t// out\n        /* \"contracts/Committee.sol\":14747:15206  function verify(... */\n    tag_30:\n        /* \"contracts/Committee.sol\":14919:14923  bool */\n      0x00\n        /* \"contracts/Committee.sol\":14961:14962  0 */\n      dup1\n        /* \"contracts/Committee.sol\":14943:14963  signer != address(0) */\n      0xffffffffffffffffffffffffffffffffffffffff\n      and\n        /* \"contracts/Committee.sol\":14943:14949  signer */\n      dup7\n        /* \"contracts/Committee.sol\":14943:14963  signer != address(0) */\n      0xffffffffffffffffffffffffffffffffffffffff\n      and\n      eq\n      iszero\n        /* \"contracts/Committee.sol\":14935:14994  require(signer != address(0), \"NMT#verify: INVALID_SIGNER\") */\n      tag_51\n      jumpi\n      mload(0x40)\n      0x08c379a000000000000000000000000000000000000000000000000000000000\n      dup2\n      mstore\n      0x04\n      add\n      tag_52\n      swap1\n      tag_53\n      jump\t// in\n    tag_52:\n      mload(0x40)\n      dup1\n      swap2\n      sub\n      swap1\n      revert\n    tag_51:\n        /* \"contracts/Committee.sol\":15045:15199  ecrecover(... */\n      0x01\n        /* \"contracts/Committee.sol\":15072:15119  toTypedMessageHash(hashMetaTransaction(metaTx)) */\n      tag_54\n        /* \"contracts/Committee.sol\":15091:15118  hashMetaTransaction(metaTx) */\n      tag_55\n        /* \"contracts/Committee.sol\":15111:15117  metaTx */\n      dup8\n        /* \"contracts/Committee.sol\":15091:15110  hashMetaTransaction */\n      tag_56\n        /* \"contracts/Committee.sol\":15091:15118  hashMetaTransaction(metaTx) */\n      jump\t// in\n    tag_55:\n        /* \"contracts/Committee.sol\":15072:15090  toTypedMessageHash */\n      tag_57\n        /* \"contracts/Committee.sol\":15072:15119  toTypedMessageHash(hashMetaTransaction(metaTx)) */\n      jump\t// in\n    tag_54:\n        /* \"contracts/Committee.sol\":15137:15141  sigV */\n      dup4\n        /* \"contracts/Committee.sol\":15159:15163  sigR */\n      dup7\n        /* \"contracts/Committee.sol\":15181:15185  sigS */\n      dup7\n        /* \"contracts/Committee.sol\":15045:15199  ecrecover(... */\n      mload(0x40)\n      0x00\n      dup2\n      mstore\n      0x20\n      add\n      0x40\n      mstore\n      mload(0x40)\n      tag_58\n      swap5\n      swap4\n      swap3\n      swap2\n      swap1\n      tag_59\n      jump\t// in\n    tag_58:\n      0x20\n      mload(0x40)\n      0x20\n      dup2\n      sub\n      swap1\n      dup1\n      dup5\n      sub\n      swap1\n      dup6\n      gas\n      staticcall\n      iszero\n      dup1\n      iszero\n      tag_61\n      jumpi\n      returndatasize\n      0x00\n      dup1\n      returndatacopy\n      revert(0x00, returndatasize)\n    tag_61:\n      pop\n      pop\n      pop\n      mload(sub(mload(0x40), 0x20))\n        /* \"contracts/Committee.sol\":15023:15199  signer ==... */\n      0xffffffffffffffffffffffffffffffffffffffff\n      and\n        /* \"contracts/Committee.sol\":15023:15029  signer */\n      dup7\n        /* \"contracts/Committee.sol\":15023:15199  signer ==... */\n      0xffffffffffffffffffffffffffffffffffffffff\n      and\n      eq\n        /* \"contracts/Committee.sol\":15004:15199  return... */\n      swap1\n      pop\n        /* \"contracts/Committee.sol\":14747:15206  function verify(... */\n      swap6\n      swap5\n      pop\n      pop\n      pop\n      pop\n      pop\n      jump\t// out\n        /* \"contracts/Committee.sol\":6071:6246  function add(uint256 a, uint256 b) internal pure returns (uint256) {... */\n    tag_35:\n        /* \"contracts/Committee.sol\":6129:6136  uint256 */\n      0x00\n        /* \"contracts/Committee.sol\":6148:6157  uint256 c */\n      dup1\n        /* \"contracts/Committee.sol\":6164:6165  b */\n      dup3\n        /* \"contracts/Committee.sol\":6160:6161  a */\n      dup5\n        /* \"contracts/Committee.sol\":6160:6165  a + b */\n      add\n        /* \"contracts/Committee.sol\":6148:6165  uint256 c = a + b */\n      swap1\n      pop\n        /* \"contracts/Committee.sol\":6188:6189  a */\n      dup4\n        /* \"contracts/Committee.sol\":6183:6184  c */\n      dup2\n        /* \"contracts/Committee.sol\":6183:6189  c >= a */\n      lt\n      iszero\n        /* \"contracts/Committee.sol\":6175:6221  require(c >= a, \"SafeMath: addition overflow\") */\n      tag_63\n      jumpi\n      mload(0x40)\n      0x08c379a000000000000000000000000000000000000000000000000000000000\n      dup2\n      mstore\n      0x04\n      add\n      tag_64\n      swap1\n      tag_65\n      jump\t// in\n    tag_64:\n      mload(0x40)\n      dup1\n      swap2\n      sub\n      swap1\n      revert\n    tag_63:\n        /* \"contracts/Committee.sol\":6238:6239  c */\n      dup1\n        /* \"contracts/Committee.sol\":6231:6239  return c */\n      swap2\n      pop\n      pop\n        /* \"contracts/Committee.sol\":6071:6246  function add(uint256 a, uint256 b) internal pure returns (uint256) {... */\n      swap3\n      swap2\n      pop\n      pop\n      jump\t// out\n        /* \"contracts/Committee.sol\":14232:14628  function hashMetaTransaction(MetaTransaction memory metaTx)... */\n    tag_56:\n        /* \"contracts/Committee.sol\":14339:14346  bytes32 */\n      0x00\n        /* \"contracts/Committee.sol\":12659:12757  bytes(... */\n      mload(0x40)\n      dup1\n      0x80\n      add\n      0x40\n      mstore\n      dup1\n      0x43\n      dup2\n      mstore\n      0x20\n      add\n      data_23d10def3caacba2e4042e0c75d44a42d2558aabcf5ce951d0642a8032e1e653\n      0x43\n      swap2\n      codecopy\n        /* \"contracts/Committee.sol\":12640:12763  keccak256(... */\n      dup1\n      mload\n      swap1\n      0x20\n      add\n      keccak256\n        /* \"contracts/Committee.sol\":14487:14493  metaTx */\n      dup3\n        /* \"contracts/Committee.sol\":14487:14499  metaTx.nonce */\n      0x00\n      add\n      mload\n        /* \"contracts/Committee.sol\":14521:14527  metaTx */\n      dup4\n        /* \"contracts/Committee.sol\":14521:14532  metaTx.from */\n      0x20\n      add\n      mload\n        /* \"contracts/Committee.sol\":14564:14570  metaTx */\n      dup5\n        /* \"contracts/Committee.sol\":14564:14588  metaTx.functionSignature */\n      0x40\n      add\n      mload\n        /* \"contracts/Committee.sol\":14554:14589  keccak256(metaTx.functionSignature) */\n      dup1\n      mload\n      swap1\n      0x20\n      add\n      keccak256\n        /* \"contracts/Committee.sol\":14408:14607  abi.encode(... */\n      add(0x20, mload(0x40))\n      tag_67\n      swap5\n      swap4\n      swap3\n      swap2\n      swap1\n      tag_68\n      jump\t// in\n    tag_67:\n      mload(0x40)\n      0x20\n      dup2\n      dup4\n      sub\n      sub\n      dup2\n      mstore\n      swap1\n      0x40\n      mstore\n        /* \"contracts/Committee.sol\":14381:14621  keccak256(... */\n      dup1\n      mload\n      swap1\n      0x20\n      add\n      keccak256\n        /* \"contracts/Committee.sol\":14362:14621  return... */\n      swap1\n      pop\n        /* \"contracts/Committee.sol\":14232:14628  function hashMetaTransaction(MetaTransaction memory metaTx)... */\n      swap2\n      swap1\n      pop\n      jump\t// out\n        /* \"contracts/Committee.sol\":12176:12420  function toTypedMessageHash(bytes32 messageHash)... */\n    tag_57:\n        /* \"contracts/Committee.sol\":12272:12279  bytes32 */\n      0x00\n        /* \"contracts/Committee.sol\":12370:12385  domainSeparator */\n      dup1\n      sload\n        /* \"contracts/Committee.sol\":12387:12398  messageHash */\n      dup3\n        /* \"contracts/Committee.sol\":12341:12399  abi.encodePacked(\"\\x19\\x01\", domainSeparator, messageHash) */\n      add(0x20, mload(0x40))\n      tag_70\n      swap3\n      swap2\n      swap1\n      tag_71\n      jump\t// in\n    tag_70:\n      mload(0x40)\n      0x20\n      dup2\n      dup4\n      sub\n      sub\n      dup2\n      mstore\n      swap1\n      0x40\n      mstore\n        /* \"contracts/Committee.sol\":12314:12413  keccak256(... */\n      dup1\n      mload\n      swap1\n      0x20\n      add\n      keccak256\n        /* \"contracts/Committee.sol\":12295:12413  return... */\n      swap1\n      pop\n        /* \"contracts/Committee.sol\":12176:12420  function toTypedMessageHash(bytes32 messageHash)... */\n      swap2\n      swap1\n      pop\n      jump\t// out\n        /* \"#utility.yul\":7:349   */\n    tag_73:\n      0x00\n        /* \"#utility.yul\":109:173   */\n      tag_75\n        /* \"#utility.yul\":124:172   */\n      tag_76\n        /* \"#utility.yul\":165:171   */\n      dup5\n        /* \"#utility.yul\":124:172   */\n      tag_77\n      jump\t// in\n    tag_76:\n        /* \"#utility.yul\":109:173   */\n      tag_78\n      jump\t// in\n    tag_75:\n        /* \"#utility.yul\":100:173   */\n      swap1\n      pop\n        /* \"#utility.yul\":196:202   */\n      dup3\n        /* \"#utility.yul\":189:194   */\n      dup2\n        /* \"#utility.yul\":182:203   */\n      mstore\n        /* \"#utility.yul\":234:238   */\n      0x20\n        /* \"#utility.yul\":227:232   */\n      dup2\n        /* \"#utility.yul\":223:239   */\n      add\n        /* \"#utility.yul\":272:275   */\n      dup5\n        /* \"#utility.yul\":263:269   */\n      dup5\n        /* \"#utility.yul\":258:261   */\n      dup5\n        /* \"#utility.yul\":254:270   */\n      add\n        /* \"#utility.yul\":251:276   */\n      gt\n        /* \"#utility.yul\":248:250   */\n      iszero\n      tag_79\n      jumpi\n        /* \"#utility.yul\":289:290   */\n      0x00\n        /* \"#utility.yul\":286:287   */\n      dup1\n        /* \"#utility.yul\":279:291   */\n      revert\n        /* \"#utility.yul\":248:250   */\n    tag_79:\n        /* \"#utility.yul\":302:343   */\n      tag_80\n        /* \"#utility.yul\":336:342   */\n      dup5\n        /* \"#utility.yul\":331:334   */\n      dup3\n        /* \"#utility.yul\":326:329   */\n      dup6\n        /* \"#utility.yul\":302:343   */\n      tag_81\n      jump\t// in\n    tag_80:\n        /* \"#utility.yul\":90:349   */\n      pop\n      swap4\n      swap3\n      pop\n      pop\n      pop\n      jump\t// out\n        /* \"#utility.yul\":355:494   */\n    tag_82:\n      0x00\n        /* \"#utility.yul\":439:445   */\n      dup2\n        /* \"#utility.yul\":426:446   */\n      calldataload\n        /* \"#utility.yul\":417:446   */\n      swap1\n      pop\n        /* \"#utility.yul\":455:488   */\n      tag_84\n        /* \"#utility.yul\":482:487   */\n      dup2\n        /* \"#utility.yul\":455:488   */\n      tag_85\n      jump\t// in\n    tag_84:\n        /* \"#utility.yul\":407:494   */\n      swap3\n      swap2\n      pop\n      pop\n      jump\t// out\n        /* \"#utility.yul\":500:639   */\n    tag_86:\n      0x00\n        /* \"#utility.yul\":584:590   */\n      dup2\n        /* \"#utility.yul\":571:591   */\n      calldataload\n        /* \"#utility.yul\":562:591   */\n      swap1\n      pop\n        /* \"#utility.yul\":600:633   */\n      tag_88\n        /* \"#utility.yul\":627:632   */\n      dup2\n        /* \"#utility.yul\":600:633   */\n      tag_89\n      jump\t// in\n    tag_88:\n        /* \"#utility.yul\":552:639   */\n      swap3\n      swap2\n      pop\n      pop\n      jump\t// out\n        /* \"#utility.yul\":658:929   */\n    tag_90:\n      0x00\n        /* \"#utility.yul\":762:765   */\n      dup3\n        /* \"#utility.yul\":755:759   */\n      0x1f\n        /* \"#utility.yul\":747:753   */\n      dup4\n        /* \"#utility.yul\":743:760   */\n      add\n        /* \"#utility.yul\":739:766   */\n      slt\n        /* \"#utility.yul\":729:731   */\n      tag_92\n      jumpi\n        /* \"#utility.yul\":780:781   */\n      0x00\n        /* \"#utility.yul\":777:778   */\n      dup1\n        /* \"#utility.yul\":770:782   */\n      revert\n        /* \"#utility.yul\":729:731   */\n    tag_92:\n        /* \"#utility.yul\":820:826   */\n      dup2\n        /* \"#utility.yul\":807:827   */\n      calldataload\n        /* \"#utility.yul\":845:923   */\n      tag_93\n        /* \"#utility.yul\":919:922   */\n      dup5\n        /* \"#utility.yul\":911:917   */\n      dup3\n        /* \"#utility.yul\":904:908   */\n      0x20\n        /* \"#utility.yul\":896:902   */\n      dup7\n        /* \"#utility.yul\":892:909   */\n      add\n        /* \"#utility.yul\":845:923   */\n      tag_73\n      jump\t// in\n    tag_93:\n        /* \"#utility.yul\":836:923   */\n      swap2\n      pop\n        /* \"#utility.yul\":719:929   */\n      pop\n      swap3\n      swap2\n      pop\n      pop\n      jump\t// out\n        /* \"#utility.yul\":935:1070   */\n    tag_94:\n      0x00\n        /* \"#utility.yul\":1017:1023   */\n      dup2\n        /* \"#utility.yul\":1004:1024   */\n      calldataload\n        /* \"#utility.yul\":995:1024   */\n      swap1\n      pop\n        /* \"#utility.yul\":1033:1064   */\n      tag_96\n        /* \"#utility.yul\":1058:1063   */\n      dup2\n        /* \"#utility.yul\":1033:1064   */\n      tag_97\n      jump\t// in\n    tag_96:\n        /* \"#utility.yul\":985:1070   */\n      swap3\n      swap2\n      pop\n      pop\n      jump\t// out\n        /* \"#utility.yul\":1076:1338   */\n    tag_15:\n      0x00\n        /* \"#utility.yul\":1184:1186   */\n      0x20\n        /* \"#utility.yul\":1172:1181   */\n      dup3\n        /* \"#utility.yul\":1163:1170   */\n      dup5\n        /* \"#utility.yul\":1159:1182   */\n      sub\n        /* \"#utility.yul\":1155:1187   */\n      slt\n        /* \"#utility.yul\":1152:1154   */\n      iszero\n      tag_99\n      jumpi\n        /* \"#utility.yul\":1200:1201   */\n      0x00\n        /* \"#utility.yul\":1197:1198   */\n      dup1\n        /* \"#utility.yul\":1190:1202   */\n      revert\n        /* \"#utility.yul\":1152:1154   */\n    tag_99:\n        /* \"#utility.yul\":1243:1244   */\n      0x00\n        /* \"#utility.yul\":1268:1321   */\n      tag_100\n        /* \"#utility.yul\":1313:1320   */\n      dup5\n        /* \"#utility.yul\":1304:1310   */\n      dup3\n        /* \"#utility.yul\":1293:1302   */\n      dup6\n        /* \"#utility.yul\":1289:1311   */\n      add\n        /* \"#utility.yul\":1268:1321   */\n      tag_82\n      jump\t// in\n    tag_100:\n        /* \"#utility.yul\":1258:1321   */\n      swap2\n      pop\n        /* \"#utility.yul\":1214:1331   */\n      pop\n        /* \"#utility.yul\":1142:1338   */\n      swap3\n      swap2\n      pop\n      pop\n      jump\t// out\n        /* \"#utility.yul\":1344:2295   */\n    tag_8:\n      0x00\n      dup1\n      0x00\n      dup1\n      0x00\n        /* \"#utility.yul\":1527:1530   */\n      0xa0\n        /* \"#utility.yul\":1515:1524   */\n      dup7\n        /* \"#utility.yul\":1506:1513   */\n      dup9\n        /* \"#utility.yul\":1502:1525   */\n      sub\n        /* \"#utility.yul\":1498:1531   */\n      slt\n        /* \"#utility.yul\":1495:1497   */\n      iszero\n      tag_102\n      jumpi\n        /* \"#utility.yul\":1544:1545   */\n      0x00\n        /* \"#utility.yul\":1541:1542   */\n      dup1\n        /* \"#utility.yul\":1534:1546   */\n      revert\n        /* \"#utility.yul\":1495:1497   */\n    tag_102:\n        /* \"#utility.yul\":1587:1588   */\n      0x00\n        /* \"#utility.yul\":1612:1665   */\n      tag_103\n        /* \"#utility.yul\":1657:1664   */\n      dup9\n        /* \"#utility.yul\":1648:1654   */\n      dup3\n        /* \"#utility.yul\":1637:1646   */\n      dup10\n        /* \"#utility.yul\":1633:1655   */\n      add\n        /* \"#utility.yul\":1612:1665   */\n      tag_82\n      jump\t// in\n    tag_103:\n        /* \"#utility.yul\":1602:1665   */\n      swap6\n      pop\n        /* \"#utility.yul\":1558:1675   */\n      pop\n        /* \"#utility.yul\":1742:1744   */\n      0x20\n        /* \"#utility.yul\":1731:1740   */\n      dup7\n        /* \"#utility.yul\":1727:1745   */\n      add\n        /* \"#utility.yul\":1714:1746   */\n      calldataload\n        /* \"#utility.yul\":1773:1791   */\n      0xffffffffffffffff\n        /* \"#utility.yul\":1765:1771   */\n      dup2\n        /* \"#utility.yul\":1762:1792   */\n      gt\n        /* \"#utility.yul\":1759:1761   */\n      iszero\n      tag_104\n      jumpi\n        /* \"#utility.yul\":1805:1806   */\n      0x00\n        /* \"#utility.yul\":1802:1803   */\n      dup1\n        /* \"#utility.yul\":1795:1807   */\n      revert\n        /* \"#utility.yul\":1759:1761   */\n    tag_104:\n        /* \"#utility.yul\":1833:1895   */\n      tag_105\n        /* \"#utility.yul\":1887:1894   */\n      dup9\n        /* \"#utility.yul\":1878:1884   */\n      dup3\n        /* \"#utility.yul\":1867:1876   */\n      dup10\n        /* \"#utility.yul\":1863:1885   */\n      add\n        /* \"#utility.yul\":1833:1895   */\n      tag_90\n      jump\t// in\n    tag_105:\n        /* \"#utility.yul\":1823:1895   */\n      swap5\n      pop\n        /* \"#utility.yul\":1685:1905   */\n      pop\n        /* \"#utility.yul\":1944:1946   */\n      0x40\n        /* \"#utility.yul\":1970:2023   */\n      tag_106\n        /* \"#utility.yul\":2015:2022   */\n      dup9\n        /* \"#utility.yul\":2006:2012   */\n      dup3\n        /* \"#utility.yul\":1995:2004   */\n      dup10\n        /* \"#utility.yul\":1991:2013   */\n      add\n        /* \"#utility.yul\":1970:2023   */\n      tag_86\n      jump\t// in\n    tag_106:\n        /* \"#utility.yul\":1960:2023   */\n      swap4\n      pop\n        /* \"#utility.yul\":1915:2033   */\n      pop\n        /* \"#utility.yul\":2072:2074   */\n      0x60\n        /* \"#utility.yul\":2098:2151   */\n      tag_107\n        /* \"#utility.yul\":2143:2150   */\n      dup9\n        /* \"#utility.yul\":2134:2140   */\n      dup3\n        /* \"#utility.yul\":2123:2132   */\n      dup10\n        /* \"#utility.yul\":2119:2141   */\n      add\n        /* \"#utility.yul\":2098:2151   */\n      tag_86\n      jump\t// in\n    tag_107:\n        /* \"#utility.yul\":2088:2151   */\n      swap3\n      pop\n        /* \"#utility.yul\":2043:2161   */\n      pop\n        /* \"#utility.yul\":2200:2203   */\n      0x80\n        /* \"#utility.yul\":2227:2278   */\n      tag_108\n        /* \"#utility.yul\":2270:2277   */\n      dup9\n        /* \"#utility.yul\":2261:2267   */\n      dup3\n        /* \"#utility.yul\":2250:2259   */\n      dup10\n        /* \"#utility.yul\":2246:2268   */\n      add\n        /* \"#utility.yul\":2227:2278   */\n      tag_94\n      jump\t// in\n    tag_108:\n        /* \"#utility.yul\":2217:2278   */\n      swap2\n      pop\n        /* \"#utility.yul\":2171:2288   */\n      pop\n        /* \"#utility.yul\":1485:2295   */\n      swap3\n      swap6\n      pop\n      swap3\n      swap6\n      swap1\n      swap4\n      pop\n      jump\t// out\n        /* \"#utility.yul\":2301:2448   */\n    tag_109:\n        /* \"#utility.yul\":2396:2441   */\n      tag_111\n        /* \"#utility.yul\":2435:2440   */\n      dup2\n        /* \"#utility.yul\":2396:2441   */\n      tag_112\n      jump\t// in\n    tag_111:\n        /* \"#utility.yul\":2391:2394   */\n      dup3\n        /* \"#utility.yul\":2384:2442   */\n      mstore\n        /* \"#utility.yul\":2374:2448   */\n      pop\n      pop\n      jump\t// out\n        /* \"#utility.yul\":2454:2572   */\n    tag_113:\n        /* \"#utility.yul\":2541:2565   */\n      tag_115\n        /* \"#utility.yul\":2559:2564   */\n      dup2\n        /* \"#utility.yul\":2541:2565   */\n      tag_116\n      jump\t// in\n    tag_115:\n        /* \"#utility.yul\":2536:2539   */\n      dup3\n        /* \"#utility.yul\":2529:2566   */\n      mstore\n        /* \"#utility.yul\":2519:2572   */\n      pop\n      pop\n      jump\t// out\n        /* \"#utility.yul\":2578:2735   */\n    tag_117:\n        /* \"#utility.yul\":2683:2728   */\n      tag_119\n        /* \"#utility.yul\":2703:2727   */\n      tag_120\n        /* \"#utility.yul\":2721:2726   */\n      dup3\n        /* \"#utility.yul\":2703:2727   */\n      tag_116\n      jump\t// in\n    tag_120:\n        /* \"#utility.yul\":2683:2728   */\n      tag_121\n      jump\t// in\n    tag_119:\n        /* \"#utility.yul\":2678:2681   */\n      dup3\n        /* \"#utility.yul\":2671:2729   */\n      mstore\n        /* \"#utility.yul\":2661:2735   */\n      pop\n      pop\n      jump\t// out\n        /* \"#utility.yul\":2741:2859   */\n    tag_122:\n        /* \"#utility.yul\":2828:2852   */\n      tag_124\n        /* \"#utility.yul\":2846:2851   */\n      dup2\n        /* \"#utility.yul\":2828:2852   */\n      tag_125\n      jump\t// in\n    tag_124:\n        /* \"#utility.yul\":2823:2826   */\n      dup3\n        /* \"#utility.yul\":2816:2853   */\n      mstore\n        /* \"#utility.yul\":2806:2859   */\n      pop\n      pop\n      jump\t// out\n        /* \"#utility.yul\":2865:3022   */\n    tag_126:\n        /* \"#utility.yul\":2970:3015   */\n      tag_128\n        /* \"#utility.yul\":2990:3014   */\n      tag_129\n        /* \"#utility.yul\":3008:3013   */\n      dup3\n        /* \"#utility.yul\":2990:3014   */\n      tag_125\n      jump\t// in\n    tag_129:\n        /* \"#utility.yul\":2970:3015   */\n      tag_130\n      jump\t// in\n    tag_128:\n        /* \"#utility.yul\":2965:2968   */\n      dup3\n        /* \"#utility.yul\":2958:3016   */\n      mstore\n        /* \"#utility.yul\":2948:3022   */\n      pop\n      pop\n      jump\t// out\n        /* \"#utility.yul\":3028:3388   */\n    tag_131:\n      0x00\n        /* \"#utility.yul\":3142:3180   */\n      tag_133\n        /* \"#utility.yul\":3174:3179   */\n      dup3\n        /* \"#utility.yul\":3142:3180   */\n      tag_134\n      jump\t// in\n    tag_133:\n        /* \"#utility.yul\":3196:3266   */\n      tag_135\n        /* \"#utility.yul\":3259:3265   */\n      dup2\n        /* \"#utility.yul\":3254:3257   */\n      dup6\n        /* \"#utility.yul\":3196:3266   */\n      tag_136\n      jump\t// in\n    tag_135:\n        /* \"#utility.yul\":3189:3266   */\n      swap4\n      pop\n        /* \"#utility.yul\":3275:3327   */\n      tag_137\n        /* \"#utility.yul\":3320:3326   */\n      dup2\n        /* \"#utility.yul\":3315:3318   */\n      dup6\n        /* \"#utility.yul\":3308:3312   */\n      0x20\n        /* \"#utility.yul\":3301:3306   */\n      dup7\n        /* \"#utility.yul\":3297:3313   */\n      add\n        /* \"#utility.yul\":3275:3327   */\n      tag_138\n      jump\t// in\n    tag_137:\n        /* \"#utility.yul\":3352:3381   */\n      tag_139\n        /* \"#utility.yul\":3374:3380   */\n      dup2\n        /* \"#utility.yul\":3352:3381   */\n      tag_140\n      jump\t// in\n    tag_139:\n        /* \"#utility.yul\":3347:3350   */\n      dup5\n        /* \"#utility.yul\":3343:3382   */\n      add\n        /* \"#utility.yul\":3336:3382   */\n      swap2\n      pop\n        /* \"#utility.yul\":3118:3388   */\n      pop\n      swap3\n      swap2\n      pop\n      pop\n      jump\t// out\n        /* \"#utility.yul\":3394:3767   */\n    tag_141:\n      0x00\n        /* \"#utility.yul\":3526:3564   */\n      tag_143\n        /* \"#utility.yul\":3558:3563   */\n      dup3\n        /* \"#utility.yul\":3526:3564   */\n      tag_134\n      jump\t// in\n    tag_143:\n        /* \"#utility.yul\":3580:3668   */\n      tag_144\n        /* \"#utility.yul\":3661:3667   */\n      dup2\n        /* \"#utility.yul\":3656:3659   */\n      dup6\n        /* \"#utility.yul\":3580:3668   */\n      tag_145\n      jump\t// in\n    tag_144:\n        /* \"#utility.yul\":3573:3668   */\n      swap4\n      pop\n        /* \"#utility.yul\":3677:3729   */\n      tag_146\n        /* \"#utility.yul\":3722:3728   */\n      dup2\n        /* \"#utility.yul\":3717:3720   */\n      dup6\n        /* \"#utility.yul\":3710:3714   */\n      0x20\n        /* \"#utility.yul\":3703:3708   */\n      dup7\n        /* \"#utility.yul\":3699:3715   */\n      add\n        /* \"#utility.yul\":3677:3729   */\n      tag_138\n      jump\t// in\n    tag_146:\n        /* \"#utility.yul\":3754:3760   */\n      dup1\n        /* \"#utility.yul\":3749:3752   */\n      dup5\n        /* \"#utility.yul\":3745:3761   */\n      add\n        /* \"#utility.yul\":3738:3761   */\n      swap2\n      pop\n        /* \"#utility.yul\":3502:3767   */\n      pop\n      swap3\n      swap2\n      pop\n      pop\n      jump\t// out\n        /* \"#utility.yul\":3773:4169   */\n    tag_147:\n      0x00\n        /* \"#utility.yul\":3954:4038   */\n      tag_149\n        /* \"#utility.yul\":4036:4037   */\n      0x02\n        /* \"#utility.yul\":4031:4034   */\n      dup4\n        /* \"#utility.yul\":3954:4038   */\n      tag_150\n      jump\t// in\n    tag_149:\n        /* \"#utility.yul\":3947:4038   */\n      swap2\n      pop\n        /* \"#utility.yul\":4068:4134   */\n      0x1901000000000000000000000000000000000000000000000000000000000000\n        /* \"#utility.yul\":4064:4065   */\n      0x00\n        /* \"#utility.yul\":4059:4062   */\n      dup4\n        /* \"#utility.yul\":4055:4066   */\n      add\n        /* \"#utility.yul\":4048:4135   */\n      mstore\n        /* \"#utility.yul\":4161:4162   */\n      0x02\n        /* \"#utility.yul\":4156:4159   */\n      dup3\n        /* \"#utility.yul\":4152:4163   */\n      add\n        /* \"#utility.yul\":4145:4163   */\n      swap1\n      pop\n        /* \"#utility.yul\":3937:4169   */\n      swap2\n      swap1\n      pop\n      jump\t// out\n        /* \"#utility.yul\":4175:4500   */\n    tag_151:\n      0x00\n        /* \"#utility.yul\":4338:4405   */\n      tag_153\n        /* \"#utility.yul\":4402:4404   */\n      0x1b\n        /* \"#utility.yul\":4397:4400   */\n      dup4\n        /* \"#utility.yul\":4338:4405   */\n      tag_154\n      jump\t// in\n    tag_153:\n        /* \"#utility.yul\":4331:4405   */\n      swap2\n      pop\n        /* \"#utility.yul\":4435:4464   */\n      0x536166654d6174683a206164646974696f6e206f766572666c6f770000000000\n        /* \"#utility.yul\":4431:4432   */\n      0x00\n        /* \"#utility.yul\":4426:4429   */\n      dup4\n        /* \"#utility.yul\":4422:4433   */\n      add\n        /* \"#utility.yul\":4415:4465   */\n      mstore\n        /* \"#utility.yul\":4491:4493   */\n      0x20\n        /* \"#utility.yul\":4486:4489   */\n      dup3\n        /* \"#utility.yul\":4482:4494   */\n      add\n        /* \"#utility.yul\":4475:4494   */\n      swap1\n      pop\n        /* \"#utility.yul\":4321:4500   */\n      swap2\n      swap1\n      pop\n      jump\t// out\n        /* \"#utility.yul\":4506:4899   */\n    tag_155:\n      0x00\n        /* \"#utility.yul\":4669:4736   */\n      tag_157\n        /* \"#utility.yul\":4733:4735   */\n      0x3d\n        /* \"#utility.yul\":4728:4731   */\n      dup4\n        /* \"#utility.yul\":4669:4736   */\n      tag_154\n      jump\t// in\n    tag_157:\n        /* \"#utility.yul\":4662:4736   */\n      swap2\n      pop\n        /* \"#utility.yul\":4766:4800   */\n      0x4e4d5423657865637574654d6574615472616e73616374696f6e3a205349474e\n        /* \"#utility.yul\":4762:4763   */\n      0x00\n        /* \"#utility.yul\":4757:4760   */\n      dup4\n        /* \"#utility.yul\":4753:4764   */\n      add\n        /* \"#utility.yul\":4746:4801   */\n      mstore\n        /* \"#utility.yul\":4832:4863   */\n      0x45525f414e445f5349474e41545552455f444f5f4e4f545f4d41544348000000\n        /* \"#utility.yul\":4827:4829   */\n      0x20\n        /* \"#utility.yul\":4822:4825   */\n      dup4\n        /* \"#utility.yul\":4818:4830   */\n      add\n        /* \"#utility.yul\":4811:4864   */\n      mstore\n        /* \"#utility.yul\":4890:4892   */\n      0x40\n        /* \"#utility.yul\":4885:4888   */\n      dup3\n        /* \"#utility.yul\":4881:4893   */\n      add\n        /* \"#utility.yul\":4874:4893   */\n      swap1\n      pop\n        /* \"#utility.yul\":4652:4899   */\n      swap2\n      swap1\n      pop\n      jump\t// out\n        /* \"#utility.yul\":4905:5276   */\n    tag_158:\n      0x00\n        /* \"#utility.yul\":5068:5135   */\n      tag_160\n        /* \"#utility.yul\":5132:5134   */\n      0x27\n        /* \"#utility.yul\":5127:5130   */\n      dup4\n        /* \"#utility.yul\":5068:5135   */\n      tag_154\n      jump\t// in\n    tag_160:\n        /* \"#utility.yul\":5061:5135   */\n      swap2\n      pop\n        /* \"#utility.yul\":5165:5199   */\n      0x4e4d5423657865637574654d6574615472616e73616374696f6e3a2043414c4c\n        /* \"#utility.yul\":5161:5162   */\n      0x00\n        /* \"#utility.yul\":5156:5159   */\n      dup4\n        /* \"#utility.yul\":5152:5163   */\n      add\n        /* \"#utility.yul\":5145:5200   */\n      mstore\n        /* \"#utility.yul\":5231:5240   */\n      0x5f4641494c454400000000000000000000000000000000000000000000000000\n        /* \"#utility.yul\":5226:5228   */\n      0x20\n        /* \"#utility.yul\":5221:5224   */\n      dup4\n        /* \"#utility.yul\":5217:5229   */\n      add\n        /* \"#utility.yul\":5210:5241   */\n      mstore\n        /* \"#utility.yul\":5267:5269   */\n      0x40\n        /* \"#utility.yul\":5262:5265   */\n      dup3\n        /* \"#utility.yul\":5258:5270   */\n      add\n        /* \"#utility.yul\":5251:5270   */\n      swap1\n      pop\n        /* \"#utility.yul\":5051:5276   */\n      swap2\n      swap1\n      pop\n      jump\t// out\n        /* \"#utility.yul\":5282:5606   */\n    tag_161:\n      0x00\n        /* \"#utility.yul\":5445:5512   */\n      tag_163\n        /* \"#utility.yul\":5509:5511   */\n      0x1a\n        /* \"#utility.yul\":5504:5507   */\n      dup4\n        /* \"#utility.yul\":5445:5512   */\n      tag_154\n      jump\t// in\n    tag_163:\n        /* \"#utility.yul\":5438:5512   */\n      swap2\n      pop\n        /* \"#utility.yul\":5542:5570   */\n      0x4e4d54237665726966793a20494e56414c49445f5349474e4552000000000000\n        /* \"#utility.yul\":5538:5539   */\n      0x00\n        /* \"#utility.yul\":5533:5536   */\n      dup4\n        /* \"#utility.yul\":5529:5540   */\n      add\n        /* \"#utility.yul\":5522:5571   */\n      mstore\n        /* \"#utility.yul\":5597:5599   */\n      0x20\n        /* \"#utility.yul\":5592:5595   */\n      dup3\n        /* \"#utility.yul\":5588:5600   */\n      add\n        /* \"#utility.yul\":5581:5600   */\n      swap1\n      pop\n        /* \"#utility.yul\":5428:5606   */\n      swap2\n      swap1\n      pop\n      jump\t// out\n        /* \"#utility.yul\":5612:5730   */\n    tag_164:\n        /* \"#utility.yul\":5699:5723   */\n      tag_166\n        /* \"#utility.yul\":5717:5722   */\n      dup2\n        /* \"#utility.yul\":5699:5723   */\n      tag_167\n      jump\t// in\n    tag_166:\n        /* \"#utility.yul\":5694:5697   */\n      dup3\n        /* \"#utility.yul\":5687:5724   */\n      mstore\n        /* \"#utility.yul\":5677:5730   */\n      pop\n      pop\n      jump\t// out\n        /* \"#utility.yul\":5736:5848   */\n    tag_168:\n        /* \"#utility.yul\":5819:5841   */\n      tag_170\n        /* \"#utility.yul\":5835:5840   */\n      dup2\n        /* \"#utility.yul\":5819:5841   */\n      tag_171\n      jump\t// in\n    tag_170:\n        /* \"#utility.yul\":5814:5817   */\n      dup3\n        /* \"#utility.yul\":5807:5842   */\n      mstore\n        /* \"#utility.yul\":5797:5848   */\n      pop\n      pop\n      jump\t// out\n        /* \"#utility.yul\":5854:6125   */\n    tag_41:\n      0x00\n        /* \"#utility.yul\":6006:6099   */\n      tag_173\n        /* \"#utility.yul\":6095:6098   */\n      dup3\n        /* \"#utility.yul\":6086:6092   */\n      dup5\n        /* \"#utility.yul\":6006:6099   */\n      tag_141\n      jump\t// in\n    tag_173:\n        /* \"#utility.yul\":5999:6099   */\n      swap2\n      pop\n        /* \"#utility.yul\":6116:6119   */\n      dup2\n        /* \"#utility.yul\":6109:6119   */\n      swap1\n      pop\n        /* \"#utility.yul\":5988:6125   */\n      swap3\n      swap2\n      pop\n      pop\n      jump\t// out\n        /* \"#utility.yul\":6131:6543   */\n    tag_39:\n      0x00\n        /* \"#utility.yul\":6311:6404   */\n      tag_175\n        /* \"#utility.yul\":6400:6403   */\n      dup3\n        /* \"#utility.yul\":6391:6397   */\n      dup6\n        /* \"#utility.yul\":6311:6404   */\n      tag_141\n      jump\t// in\n    tag_175:\n        /* \"#utility.yul\":6304:6404   */\n      swap2\n      pop\n        /* \"#utility.yul\":6414:6489   */\n      tag_176\n        /* \"#utility.yul\":6485:6488   */\n      dup3\n        /* \"#utility.yul\":6476:6482   */\n      dup5\n        /* \"#utility.yul\":6414:6489   */\n      tag_117\n      jump\t// in\n    tag_176:\n        /* \"#utility.yul\":6514:6516   */\n      0x14\n        /* \"#utility.yul\":6509:6512   */\n      dup3\n        /* \"#utility.yul\":6505:6517   */\n      add\n        /* \"#utility.yul\":6498:6517   */\n      swap2\n      pop\n        /* \"#utility.yul\":6534:6537   */\n      dup2\n        /* \"#utility.yul\":6527:6537   */\n      swap1\n      pop\n        /* \"#utility.yul\":6293:6543   */\n      swap4\n      swap3\n      pop\n      pop\n      pop\n      jump\t// out\n        /* \"#utility.yul\":6549:7212   */\n    tag_71:\n      0x00\n        /* \"#utility.yul\":6812:6960   */\n      tag_178\n        /* \"#utility.yul\":6956:6959   */\n      dup3\n        /* \"#utility.yul\":6812:6960   */\n      tag_147\n      jump\t// in\n    tag_178:\n        /* \"#utility.yul\":6805:6960   */\n      swap2\n      pop\n        /* \"#utility.yul\":6970:7045   */\n      tag_179\n        /* \"#utility.yul\":7041:7044   */\n      dup3\n        /* \"#utility.yul\":7032:7038   */\n      dup6\n        /* \"#utility.yul\":6970:7045   */\n      tag_126\n      jump\t// in\n    tag_179:\n        /* \"#utility.yul\":7070:7072   */\n      0x20\n        /* \"#utility.yul\":7065:7068   */\n      dup3\n        /* \"#utility.yul\":7061:7073   */\n      add\n        /* \"#utility.yul\":7054:7073   */\n      swap2\n      pop\n        /* \"#utility.yul\":7083:7158   */\n      tag_180\n        /* \"#utility.yul\":7154:7157   */\n      dup3\n        /* \"#utility.yul\":7145:7151   */\n      dup5\n        /* \"#utility.yul\":7083:7158   */\n      tag_126\n      jump\t// in\n    tag_180:\n        /* \"#utility.yul\":7183:7185   */\n      0x20\n        /* \"#utility.yul\":7178:7181   */\n      dup3\n        /* \"#utility.yul\":7174:7186   */\n      add\n        /* \"#utility.yul\":7167:7186   */\n      swap2\n      pop\n        /* \"#utility.yul\":7203:7206   */\n      dup2\n        /* \"#utility.yul\":7196:7206   */\n      swap1\n      pop\n        /* \"#utility.yul\":6794:7212   */\n      swap4\n      swap3\n      pop\n      pop\n      pop\n      jump\t// out\n        /* \"#utility.yul\":7218:7763   */\n    tag_37:\n      0x00\n        /* \"#utility.yul\":7431:7433   */\n      0x60\n        /* \"#utility.yul\":7420:7429   */\n      dup3\n        /* \"#utility.yul\":7416:7434   */\n      add\n        /* \"#utility.yul\":7408:7434   */\n      swap1\n      pop\n        /* \"#utility.yul\":7444:7515   */\n      tag_182\n        /* \"#utility.yul\":7512:7513   */\n      0x00\n        /* \"#utility.yul\":7501:7510   */\n      dup4\n        /* \"#utility.yul\":7497:7514   */\n      add\n        /* \"#utility.yul\":7488:7494   */\n      dup7\n        /* \"#utility.yul\":7444:7515   */\n      tag_113\n      jump\t// in\n    tag_182:\n        /* \"#utility.yul\":7525:7605   */\n      tag_183\n        /* \"#utility.yul\":7601:7603   */\n      0x20\n        /* \"#utility.yul\":7590:7599   */\n      dup4\n        /* \"#utility.yul\":7586:7604   */\n      add\n        /* \"#utility.yul\":7577:7583   */\n      dup6\n        /* \"#utility.yul\":7525:7605   */\n      tag_109\n      jump\t// in\n    tag_183:\n        /* \"#utility.yul\":7652:7661   */\n      dup2\n        /* \"#utility.yul\":7646:7650   */\n      dup2\n        /* \"#utility.yul\":7642:7662   */\n      sub\n        /* \"#utility.yul\":7637:7639   */\n      0x40\n        /* \"#utility.yul\":7626:7635   */\n      dup4\n        /* \"#utility.yul\":7622:7640   */\n      add\n        /* \"#utility.yul\":7615:7663   */\n      mstore\n        /* \"#utility.yul\":7680:7756   */\n      tag_184\n        /* \"#utility.yul\":7751:7755   */\n      dup2\n        /* \"#utility.yul\":7742:7748   */\n      dup5\n        /* \"#utility.yul\":7680:7756   */\n      tag_131\n      jump\t// in\n    tag_184:\n        /* \"#utility.yul\":7672:7756   */\n      swap1\n      pop\n        /* \"#utility.yul\":7398:7763   */\n      swap5\n      swap4\n      pop\n      pop\n      pop\n      pop\n      jump\t// out\n        /* \"#utility.yul\":7769:7991   */\n    tag_27:\n      0x00\n        /* \"#utility.yul\":7900:7902   */\n      0x20\n        /* \"#utility.yul\":7889:7898   */\n      dup3\n        /* \"#utility.yul\":7885:7903   */\n      add\n        /* \"#utility.yul\":7877:7903   */\n      swap1\n      pop\n        /* \"#utility.yul\":7913:7984   */\n      tag_186\n        /* \"#utility.yul\":7981:7982   */\n      0x00\n        /* \"#utility.yul\":7970:7979   */\n      dup4\n        /* \"#utility.yul\":7966:7983   */\n      add\n        /* \"#utility.yul\":7957:7963   */\n      dup5\n        /* \"#utility.yul\":7913:7984   */\n      tag_122\n      jump\t// in\n    tag_186:\n        /* \"#utility.yul\":7867:7991   */\n      swap3\n      swap2\n      pop\n      pop\n      jump\t// out\n        /* \"#utility.yul\":7997:8550   */\n    tag_68:\n      0x00\n        /* \"#utility.yul\":8212:8215   */\n      0x80\n        /* \"#utility.yul\":8201:8210   */\n      dup3\n        /* \"#utility.yul\":8197:8216   */\n      add\n        /* \"#utility.yul\":8189:8216   */\n      swap1\n      pop\n        /* \"#utility.yul\":8226:8297   */\n      tag_188\n        /* \"#utility.yul\":8294:8295   */\n      0x00\n        /* \"#utility.yul\":8283:8292   */\n      dup4\n        /* \"#utility.yul\":8279:8296   */\n      add\n        /* \"#utility.yul\":8270:8276   */\n      dup8\n        /* \"#utility.yul\":8226:8297   */\n      tag_122\n      jump\t// in\n    tag_188:\n        /* \"#utility.yul\":8307:8379   */\n      tag_189\n        /* \"#utility.yul\":8375:8377   */\n      0x20\n        /* \"#utility.yul\":8364:8373   */\n      dup4\n        /* \"#utility.yul\":8360:8378   */\n      add\n        /* \"#utility.yul\":8351:8357   */\n      dup7\n        /* \"#utility.yul\":8307:8379   */\n      tag_164\n      jump\t// in\n    tag_189:\n        /* \"#utility.yul\":8389:8461   */\n      tag_190\n        /* \"#utility.yul\":8457:8459   */\n      0x40\n        /* \"#utility.yul\":8446:8455   */\n      dup4\n        /* \"#utility.yul\":8442:8460   */\n      add\n        /* \"#utility.yul\":8433:8439   */\n      dup6\n        /* \"#utility.yul\":8389:8461   */\n      tag_113\n      jump\t// in\n    tag_190:\n        /* \"#utility.yul\":8471:8543   */\n      tag_191\n        /* \"#utility.yul\":8539:8541   */\n      0x60\n        /* \"#utility.yul\":8528:8537   */\n      dup4\n        /* \"#utility.yul\":8524:8542   */\n      add\n        /* \"#utility.yul\":8515:8521   */\n      dup5\n        /* \"#utility.yul\":8471:8543   */\n      tag_122\n      jump\t// in\n    tag_191:\n        /* \"#utility.yul\":8179:8550   */\n      swap6\n      swap5\n      pop\n      pop\n      pop\n      pop\n      pop\n      jump\t// out\n        /* \"#utility.yul\":8556:9101   */\n    tag_59:\n      0x00\n        /* \"#utility.yul\":8767:8770   */\n      0x80\n        /* \"#utility.yul\":8756:8765   */\n      dup3\n        /* \"#utility.yul\":8752:8771   */\n      add\n        /* \"#utility.yul\":8744:8771   */\n      swap1\n      pop\n        /* \"#utility.yul\":8781:8852   */\n      tag_193\n        /* \"#utility.yul\":8849:8850   */\n      0x00\n        /* \"#utility.yul\":8838:8847   */\n      dup4\n        /* \"#utility.yul\":8834:8851   */\n      add\n        /* \"#utility.yul\":8825:8831   */\n      dup8\n        /* \"#utility.yul\":8781:8852   */\n      tag_122\n      jump\t// in\n    tag_193:\n        /* \"#utility.yul\":8862:8930   */\n      tag_194\n        /* \"#utility.yul\":8926:8928   */\n      0x20\n        /* \"#utility.yul\":8915:8924   */\n      dup4\n        /* \"#utility.yul\":8911:8929   */\n      add\n        /* \"#utility.yul\":8902:8908   */\n      dup7\n        /* \"#utility.yul\":8862:8930   */\n      tag_168\n      jump\t// in\n    tag_194:\n        /* \"#utility.yul\":8940:9012   */\n      tag_195\n        /* \"#utility.yul\":9008:9010   */\n      0x40\n        /* \"#utility.yul\":8997:9006   */\n      dup4\n        /* \"#utility.yul\":8993:9011   */\n      add\n        /* \"#utility.yul\":8984:8990   */\n      dup6\n        /* \"#utility.yul\":8940:9012   */\n      tag_122\n      jump\t// in\n    tag_195:\n        /* \"#utility.yul\":9022:9094   */\n      tag_196\n        /* \"#utility.yul\":9090:9092   */\n      0x60\n        /* \"#utility.yul\":9079:9088   */\n      dup4\n        /* \"#utility.yul\":9075:9093   */\n      add\n        /* \"#utility.yul\":9066:9072   */\n      dup5\n        /* \"#utility.yul\":9022:9094   */\n      tag_122\n      jump\t// in\n    tag_196:\n        /* \"#utility.yul\":8734:9101   */\n      swap6\n      swap5\n      pop\n      pop\n      pop\n      pop\n      pop\n      jump\t// out\n        /* \"#utility.yul\":9107:9416   */\n    tag_11:\n      0x00\n        /* \"#utility.yul\":9256:9258   */\n      0x20\n        /* \"#utility.yul\":9245:9254   */\n      dup3\n        /* \"#utility.yul\":9241:9259   */\n      add\n        /* \"#utility.yul\":9233:9259   */\n      swap1\n      pop\n        /* \"#utility.yul\":9305:9314   */\n      dup2\n        /* \"#utility.yul\":9299:9303   */\n      dup2\n        /* \"#utility.yul\":9295:9315   */\n      sub\n        /* \"#utility.yul\":9291:9292   */\n      0x00\n        /* \"#utility.yul\":9280:9289   */\n      dup4\n        /* \"#utility.yul\":9276:9293   */\n      add\n        /* \"#utility.yul\":9269:9316   */\n      mstore\n        /* \"#utility.yul\":9333:9409   */\n      tag_198\n        /* \"#utility.yul\":9404:9408   */\n      dup2\n        /* \"#utility.yul\":9395:9401   */\n      dup5\n        /* \"#utility.yul\":9333:9409   */\n      tag_131\n      jump\t// in\n    tag_198:\n        /* \"#utility.yul\":9325:9409   */\n      swap1\n      pop\n        /* \"#utility.yul\":9223:9416   */\n      swap3\n      swap2\n      pop\n      pop\n      jump\t// out\n        /* \"#utility.yul\":9422:9841   */\n    tag_65:\n      0x00\n        /* \"#utility.yul\":9626:9628   */\n      0x20\n        /* \"#utility.yul\":9615:9624   */\n      dup3\n        /* \"#utility.yul\":9611:9629   */\n      add\n        /* \"#utility.yul\":9603:9629   */\n      swap1\n      pop\n        /* \"#utility.yul\":9675:9684   */\n      dup2\n        /* \"#utility.yul\":9669:9673   */\n      dup2\n        /* \"#utility.yul\":9665:9685   */\n      sub\n        /* \"#utility.yul\":9661:9662   */\n      0x00\n        /* \"#utility.yul\":9650:9659   */\n      dup4\n        /* \"#utility.yul\":9646:9663   */\n      add\n        /* \"#utility.yul\":9639:9686   */\n      mstore\n        /* \"#utility.yul\":9703:9834   */\n      tag_200\n        /* \"#utility.yul\":9829:9833   */\n      dup2\n        /* \"#utility.yul\":9703:9834   */\n      tag_151\n      jump\t// in\n    tag_200:\n        /* \"#utility.yul\":9695:9834   */\n      swap1\n      pop\n        /* \"#utility.yul\":9593:9841   */\n      swap2\n      swap1\n      pop\n      jump\t// out\n        /* \"#utility.yul\":9847:10266   */\n    tag_33:\n      0x00\n        /* \"#utility.yul\":10051:10053   */\n      0x20\n        /* \"#utility.yul\":10040:10049   */\n      dup3\n        /* \"#utility.yul\":10036:10054   */\n      add\n        /* \"#utility.yul\":10028:10054   */\n      swap1\n      pop\n        /* \"#utility.yul\":10100:10109   */\n      dup2\n        /* \"#utility.yul\":10094:10098   */\n      dup2\n        /* \"#utility.yul\":10090:10110   */\n      sub\n        /* \"#utility.yul\":10086:10087   */\n      0x00\n        /* \"#utility.yul\":10075:10084   */\n      dup4\n        /* \"#utility.yul\":10071:10088   */\n      add\n        /* \"#utility.yul\":10064:10111   */\n      mstore\n        /* \"#utility.yul\":10128:10259   */\n      tag_202\n        /* \"#utility.yul\":10254:10258   */\n      dup2\n        /* \"#utility.yul\":10128:10259   */\n      tag_155\n      jump\t// in\n    tag_202:\n        /* \"#utility.yul\":10120:10259   */\n      swap1\n      pop\n        /* \"#utility.yul\":10018:10266   */\n      swap2\n      swap1\n      pop\n      jump\t// out\n        /* \"#utility.yul\":10272:10691   */\n    tag_47:\n      0x00\n        /* \"#utility.yul\":10476:10478   */\n      0x20\n        /* \"#utility.yul\":10465:10474   */\n      dup3\n        /* \"#utility.yul\":10461:10479   */\n      add\n        /* \"#utility.yul\":10453:10479   */\n      swap1\n      pop\n        /* \"#utility.yul\":10525:10534   */\n      dup2\n        /* \"#utility.yul\":10519:10523   */\n      dup2\n        /* \"#utility.yul\":10515:10535   */\n      sub\n        /* \"#utility.yul\":10511:10512   */\n      0x00\n        /* \"#utility.yul\":10500:10509   */\n      dup4\n        /* \"#utility.yul\":10496:10513   */\n      add\n        /* \"#utility.yul\":10489:10536   */\n      mstore\n        /* \"#utility.yul\":10553:10684   */\n      tag_204\n        /* \"#utility.yul\":10679:10683   */\n      dup2\n        /* \"#utility.yul\":10553:10684   */\n      tag_158\n      jump\t// in\n    tag_204:\n        /* \"#utility.yul\":10545:10684   */\n      swap1\n      pop\n        /* \"#utility.yul\":10443:10691   */\n      swap2\n      swap1\n      pop\n      jump\t// out\n        /* \"#utility.yul\":10697:11116   */\n    tag_53:\n      0x00\n        /* \"#utility.yul\":10901:10903   */\n      0x20\n        /* \"#utility.yul\":10890:10899   */\n      dup3\n        /* \"#utility.yul\":10886:10904   */\n      add\n        /* \"#utility.yul\":10878:10904   */\n      swap1\n      pop\n        /* \"#utility.yul\":10950:10959   */\n      dup2\n        /* \"#utility.yul\":10944:10948   */\n      dup2\n        /* \"#utility.yul\":10940:10960   */\n      sub\n        /* \"#utility.yul\":10936:10937   */\n      0x00\n        /* \"#utility.yul\":10925:10934   */\n      dup4\n        /* \"#utility.yul\":10921:10938   */\n      add\n        /* \"#utility.yul\":10914:10961   */\n      mstore\n        /* \"#utility.yul\":10978:11109   */\n      tag_206\n        /* \"#utility.yul\":11104:11108   */\n      dup2\n        /* \"#utility.yul\":10978:11109   */\n      tag_161\n      jump\t// in\n    tag_206:\n        /* \"#utility.yul\":10970:11109   */\n      swap1\n      pop\n        /* \"#utility.yul\":10868:11116   */\n      swap2\n      swap1\n      pop\n      jump\t// out\n        /* \"#utility.yul\":11122:11344   */\n    tag_18:\n      0x00\n        /* \"#utility.yul\":11253:11255   */\n      0x20\n        /* \"#utility.yul\":11242:11251   */\n      dup3\n        /* \"#utility.yul\":11238:11256   */\n      add\n        /* \"#utility.yul\":11230:11256   */\n      swap1\n      pop\n        /* \"#utility.yul\":11266:11337   */\n      tag_208\n        /* \"#utility.yul\":11334:11335   */\n      0x00\n        /* \"#utility.yul\":11323:11332   */\n      dup4\n        /* \"#utility.yul\":11319:11336   */\n      add\n        /* \"#utility.yul\":11310:11316   */\n      dup5\n        /* \"#utility.yul\":11266:11337   */\n      tag_164\n      jump\t// in\n    tag_208:\n        /* \"#utility.yul\":11220:11344   */\n      swap3\n      swap2\n      pop\n      pop\n      jump\t// out\n        /* \"#utility.yul\":11350:11628   */\n    tag_78:\n      0x00\n        /* \"#utility.yul\":11416:11418   */\n      0x40\n        /* \"#utility.yul\":11410:11419   */\n      mload\n        /* \"#utility.yul\":11400:11419   */\n      swap1\n      pop\n        /* \"#utility.yul\":11458:11462   */\n      dup2\n        /* \"#utility.yul\":11450:11456   */\n      dup2\n        /* \"#utility.yul\":11446:11463   */\n      add\n        /* \"#utility.yul\":11565:11571   */\n      dup2\n        /* \"#utility.yul\":11553:11563   */\n      dup2\n        /* \"#utility.yul\":11550:11572   */\n      lt\n        /* \"#utility.yul\":11529:11547   */\n      0xffffffffffffffff\n        /* \"#utility.yul\":11517:11527   */\n      dup3\n        /* \"#utility.yul\":11514:11548   */\n      gt\n        /* \"#utility.yul\":11511:11573   */\n      or\n        /* \"#utility.yul\":11508:11510   */\n      iszero\n      tag_210\n      jumpi\n        /* \"#utility.yul\":11576:11589   */\n      tag_211\n      tag_212\n      jump\t// in\n    tag_211:\n        /* \"#utility.yul\":11508:11510   */\n    tag_210:\n        /* \"#utility.yul\":11611:11621   */\n      dup1\n        /* \"#utility.yul\":11607:11609   */\n      0x40\n        /* \"#utility.yul\":11600:11622   */\n      mstore\n        /* \"#utility.yul\":11390:11628   */\n      pop\n      swap2\n      swap1\n      pop\n      jump\t// out\n        /* \"#utility.yul\":11634:11960   */\n    tag_77:\n      0x00\n        /* \"#utility.yul\":11785:11803   */\n      0xffffffffffffffff\n        /* \"#utility.yul\":11777:11783   */\n      dup3\n        /* \"#utility.yul\":11774:11804   */\n      gt\n        /* \"#utility.yul\":11771:11773   */\n      iszero\n      tag_214\n      jumpi\n        /* \"#utility.yul\":11807:11820   */\n      tag_215\n      tag_212\n      jump\t// in\n    tag_215:\n        /* \"#utility.yul\":11771:11773   */\n    tag_214:\n        /* \"#utility.yul\":11887:11891   */\n      0x1f\n        /* \"#utility.yul\":11883:11892   */\n      not\n        /* \"#utility.yul\":11876:11880   */\n      0x1f\n        /* \"#utility.yul\":11868:11874   */\n      dup4\n        /* \"#utility.yul\":11864:11881   */\n      add\n        /* \"#utility.yul\":11860:11893   */\n      and\n        /* \"#utility.yul\":11852:11893   */\n      swap1\n      pop\n        /* \"#utility.yul\":11948:11952   */\n      0x20\n        /* \"#utility.yul\":11942:11946   */\n      dup2\n        /* \"#utility.yul\":11938:11953   */\n      add\n        /* \"#utility.yul\":11930:11953   */\n      swap1\n      pop\n        /* \"#utility.yul\":11700:11960   */\n      swap2\n      swap1\n      pop\n      jump\t// out\n        /* \"#utility.yul\":11966:12064   */\n    tag_134:\n      0x00\n        /* \"#utility.yul\":12051:12056   */\n      dup2\n        /* \"#utility.yul\":12045:12057   */\n      mload\n        /* \"#utility.yul\":12035:12057   */\n      swap1\n      pop\n        /* \"#utility.yul\":12024:12064   */\n      swap2\n      swap1\n      pop\n      jump\t// out\n        /* \"#utility.yul\":12070:12238   */\n    tag_136:\n      0x00\n        /* \"#utility.yul\":12187:12193   */\n      dup3\n        /* \"#utility.yul\":12182:12185   */\n      dup3\n        /* \"#utility.yul\":12175:12194   */\n      mstore\n        /* \"#utility.yul\":12227:12231   */\n      0x20\n        /* \"#utility.yul\":12222:12225   */\n      dup3\n        /* \"#utility.yul\":12218:12232   */\n      add\n        /* \"#utility.yul\":12203:12232   */\n      swap1\n      pop\n        /* \"#utility.yul\":12165:12238   */\n      swap3\n      swap2\n      pop\n      pop\n      jump\t// out\n        /* \"#utility.yul\":12244:12391   */\n    tag_145:\n      0x00\n        /* \"#utility.yul\":12382:12385   */\n      dup2\n        /* \"#utility.yul\":12367:12385   */\n      swap1\n      pop\n        /* \"#utility.yul\":12357:12391   */\n      swap3\n      swap2\n      pop\n      pop\n      jump\t// out\n        /* \"#utility.yul\":12397:12566   */\n    tag_154:\n      0x00\n        /* \"#utility.yul\":12515:12521   */\n      dup3\n        /* \"#utility.yul\":12510:12513   */\n      dup3\n        /* \"#utility.yul\":12503:12522   */\n      mstore\n        /* \"#utility.yul\":12555:12559   */\n      0x20\n        /* \"#utility.yul\":12550:12553   */\n      dup3\n        /* \"#utility.yul\":12546:12560   */\n      add\n        /* \"#utility.yul\":12531:12560   */\n      swap1\n      pop\n        /* \"#utility.yul\":12493:12566   */\n      swap3\n      swap2\n      pop\n      pop\n      jump\t// out\n        /* \"#utility.yul\":12572:12720   */\n    tag_150:\n      0x00\n        /* \"#utility.yul\":12711:12714   */\n      dup2\n        /* \"#utility.yul\":12696:12714   */\n      swap1\n      pop\n        /* \"#utility.yul\":12686:12720   */\n      swap3\n      swap2\n      pop\n      pop\n      jump\t// out\n        /* \"#utility.yul\":12726:12822   */\n    tag_116:\n      0x00\n        /* \"#utility.yul\":12792:12816   */\n      tag_222\n        /* \"#utility.yul\":12810:12815   */\n      dup3\n        /* \"#utility.yul\":12792:12816   */\n      tag_223\n      jump\t// in\n    tag_222:\n        /* \"#utility.yul\":12781:12816   */\n      swap1\n      pop\n        /* \"#utility.yul\":12771:12822   */\n      swap2\n      swap1\n      pop\n      jump\t// out\n        /* \"#utility.yul\":12828:12905   */\n    tag_125:\n      0x00\n        /* \"#utility.yul\":12894:12899   */\n      dup2\n        /* \"#utility.yul\":12883:12899   */\n      swap1\n      pop\n        /* \"#utility.yul\":12873:12905   */\n      swap2\n      swap1\n      pop\n      jump\t// out\n        /* \"#utility.yul\":12911:13037   */\n    tag_223:\n      0x00\n        /* \"#utility.yul\":12988:13030   */\n      0xffffffffffffffffffffffffffffffffffffffff\n        /* \"#utility.yul\":12981:12986   */\n      dup3\n        /* \"#utility.yul\":12977:13031   */\n      and\n        /* \"#utility.yul\":12966:13031   */\n      swap1\n      pop\n        /* \"#utility.yul\":12956:13037   */\n      swap2\n      swap1\n      pop\n      jump\t// out\n        /* \"#utility.yul\":13043:13120   */\n    tag_167:\n      0x00\n        /* \"#utility.yul\":13109:13114   */\n      dup2\n        /* \"#utility.yul\":13098:13114   */\n      swap1\n      pop\n        /* \"#utility.yul\":13088:13120   */\n      swap2\n      swap1\n      pop\n      jump\t// out\n        /* \"#utility.yul\":13126:13212   */\n    tag_171:\n      0x00\n        /* \"#utility.yul\":13201:13205   */\n      0xff\n        /* \"#utility.yul\":13194:13199   */\n      dup3\n        /* \"#utility.yul\":13190:13206   */\n      and\n        /* \"#utility.yul\":13179:13206   */\n      swap1\n      pop\n        /* \"#utility.yul\":13169:13212   */\n      swap2\n      swap1\n      pop\n      jump\t// out\n        /* \"#utility.yul\":13218:13352   */\n    tag_112:\n      0x00\n        /* \"#utility.yul\":13309:13346   */\n      tag_229\n        /* \"#utility.yul\":13340:13345   */\n      dup3\n        /* \"#utility.yul\":13309:13346   */\n      tag_230\n      jump\t// in\n    tag_229:\n        /* \"#utility.yul\":13296:13346   */\n      swap1\n      pop\n        /* \"#utility.yul\":13286:13352   */\n      swap2\n      swap1\n      pop\n      jump\t// out\n        /* \"#utility.yul\":13358:13484   */\n    tag_230:\n      0x00\n        /* \"#utility.yul\":13441:13478   */\n      tag_232\n        /* \"#utility.yul\":13472:13477   */\n      dup3\n        /* \"#utility.yul\":13441:13478   */\n      tag_233\n      jump\t// in\n    tag_232:\n        /* \"#utility.yul\":13428:13478   */\n      swap1\n      pop\n        /* \"#utility.yul\":13418:13484   */\n      swap2\n      swap1\n      pop\n      jump\t// out\n        /* \"#utility.yul\":13490:13603   */\n    tag_233:\n      0x00\n        /* \"#utility.yul\":13573:13597   */\n      tag_235\n        /* \"#utility.yul\":13591:13596   */\n      dup3\n        /* \"#utility.yul\":13573:13597   */\n      tag_223\n      jump\t// in\n    tag_235:\n        /* \"#utility.yul\":13560:13597   */\n      swap1\n      pop\n        /* \"#utility.yul\":13550:13603   */\n      swap2\n      swap1\n      pop\n      jump\t// out\n        /* \"#utility.yul\":13609:13763   */\n    tag_81:\n        /* \"#utility.yul\":13693:13699   */\n      dup3\n        /* \"#utility.yul\":13688:13691   */\n      dup2\n        /* \"#utility.yul\":13683:13686   */\n      dup4\n        /* \"#utility.yul\":13670:13700   */\n      calldatacopy\n        /* \"#utility.yul\":13755:13756   */\n      0x00\n        /* \"#utility.yul\":13746:13752   */\n      dup4\n        /* \"#utility.yul\":13741:13744   */\n      dup4\n        /* \"#utility.yul\":13737:13753   */\n      add\n        /* \"#utility.yul\":13730:13757   */\n      mstore\n        /* \"#utility.yul\":13660:13763   */\n      pop\n      pop\n      pop\n      jump\t// out\n        /* \"#utility.yul\":13769:14076   */\n    tag_138:\n        /* \"#utility.yul\":13837:13838   */\n      0x00\n        /* \"#utility.yul\":13847:13960   */\n    tag_238:\n        /* \"#utility.yul\":13861:13867   */\n      dup4\n        /* \"#utility.yul\":13858:13859   */\n      dup2\n        /* \"#utility.yul\":13855:13868   */\n      lt\n        /* \"#utility.yul\":13847:13960   */\n      iszero\n      tag_240\n      jumpi\n        /* \"#utility.yul\":13946:13947   */\n      dup1\n        /* \"#utility.yul\":13941:13944   */\n      dup3\n        /* \"#utility.yul\":13937:13948   */\n      add\n        /* \"#utility.yul\":13931:13949   */\n      mload\n        /* \"#utility.yul\":13927:13928   */\n      dup2\n        /* \"#utility.yul\":13922:13925   */\n      dup5\n        /* \"#utility.yul\":13918:13929   */\n      add\n        /* \"#utility.yul\":13911:13950   */\n      mstore\n        /* \"#utility.yul\":13883:13885   */\n      0x20\n        /* \"#utility.yul\":13880:13881   */\n      dup2\n        /* \"#utility.yul\":13876:13886   */\n      add\n        /* \"#utility.yul\":13871:13886   */\n      swap1\n      pop\n        /* \"#utility.yul\":13847:13960   */\n      jump(tag_238)\n    tag_240:\n        /* \"#utility.yul\":13978:13984   */\n      dup4\n        /* \"#utility.yul\":13975:13976   */\n      dup2\n        /* \"#utility.yul\":13972:13985   */\n      gt\n        /* \"#utility.yul\":13969:13971   */\n      iszero\n      tag_241\n      jumpi\n        /* \"#utility.yul\":14058:14059   */\n      0x00\n        /* \"#utility.yul\":14049:14055   */\n      dup5\n        /* \"#utility.yul\":14044:14047   */\n      dup5\n        /* \"#utility.yul\":14040:14056   */\n      add\n        /* \"#utility.yul\":14033:14060   */\n      mstore\n        /* \"#utility.yul\":13969:13971   */\n    tag_241:\n        /* \"#utility.yul\":13818:14076   */\n      pop\n      pop\n      pop\n      pop\n      jump\t// out\n        /* \"#utility.yul\":14082:14182   */\n    tag_121:\n      0x00\n        /* \"#utility.yul\":14150:14176   */\n      tag_243\n        /* \"#utility.yul\":14170:14175   */\n      dup3\n        /* \"#utility.yul\":14150:14176   */\n      tag_244\n      jump\t// in\n    tag_243:\n        /* \"#utility.yul\":14139:14176   */\n      swap1\n      pop\n        /* \"#utility.yul\":14129:14182   */\n      swap2\n      swap1\n      pop\n      jump\t// out\n        /* \"#utility.yul\":14188:14267   */\n    tag_130:\n      0x00\n        /* \"#utility.yul\":14256:14261   */\n      dup2\n        /* \"#utility.yul\":14245:14261   */\n      swap1\n      pop\n        /* \"#utility.yul\":14235:14267   */\n      swap2\n      swap1\n      pop\n      jump\t// out\n        /* \"#utility.yul\":14273:14367   */\n    tag_244:\n      0x00\n        /* \"#utility.yul\":14341:14361   */\n      tag_247\n        /* \"#utility.yul\":14355:14360   */\n      dup3\n        /* \"#utility.yul\":14341:14361   */\n      tag_248\n      jump\t// in\n    tag_247:\n        /* \"#utility.yul\":14330:14361   */\n      swap1\n      pop\n        /* \"#utility.yul\":14320:14367   */\n      swap2\n      swap1\n      pop\n      jump\t// out\n        /* \"#utility.yul\":14373:14421   */\n    tag_212:\n        /* \"#utility.yul\":14406:14415   */\n      invalid\n        /* \"#utility.yul\":14427:14529   */\n    tag_140:\n      0x00\n        /* \"#utility.yul\":14519:14521   */\n      0x1f\n        /* \"#utility.yul\":14515:14522   */\n      not\n        /* \"#utility.yul\":14510:14512   */\n      0x1f\n        /* \"#utility.yul\":14503:14508   */\n      dup4\n        /* \"#utility.yul\":14499:14513   */\n      add\n        /* \"#utility.yul\":14495:14523   */\n      and\n        /* \"#utility.yul\":14485:14523   */\n      swap1\n      pop\n        /* \"#utility.yul\":14475:14529   */\n      swap2\n      swap1\n      pop\n      jump\t// out\n        /* \"#utility.yul\":14535:14629   */\n    tag_248:\n      0x00\n        /* \"#utility.yul\":14616:14621   */\n      dup2\n        /* \"#utility.yul\":14612:14614   */\n      0x60\n        /* \"#utility.yul\":14608:14622   */\n      shl\n        /* \"#utility.yul\":14587:14622   */\n      swap1\n      pop\n        /* \"#utility.yul\":14577:14629   */\n      swap2\n      swap1\n      pop\n      jump\t// out\n        /* \"#utility.yul\":14635:14757   */\n    tag_85:\n        /* \"#utility.yul\":14708:14732   */\n      tag_253\n        /* \"#utility.yul\":14726:14731   */\n      dup2\n        /* \"#utility.yul\":14708:14732   */\n      tag_116\n      jump\t// in\n    tag_253:\n        /* \"#utility.yul\":14701:14706   */\n      dup2\n        /* \"#utility.yul\":14698:14733   */\n      eq\n        /* \"#utility.yul\":14688:14690   */\n      tag_254\n      jumpi\n        /* \"#utility.yul\":14747:14748   */\n      0x00\n        /* \"#utility.yul\":14744:14745   */\n      dup1\n        /* \"#utility.yul\":14737:14749   */\n      revert\n        /* \"#utility.yul\":14688:14690   */\n    tag_254:\n        /* \"#utility.yul\":14678:14757   */\n      pop\n      jump\t// out\n        /* \"#utility.yul\":14763:14885   */\n    tag_89:\n        /* \"#utility.yul\":14836:14860   */\n      tag_256\n        /* \"#utility.yul\":14854:14859   */\n      dup2\n        /* \"#utility.yul\":14836:14860   */\n      tag_125\n      jump\t// in\n    tag_256:\n        /* \"#utility.yul\":14829:14834   */\n      dup2\n        /* \"#utility.yul\":14826:14861   */\n      eq\n        /* \"#utility.yul\":14816:14818   */\n      tag_257\n      jumpi\n        /* \"#utility.yul\":14875:14876   */\n      0x00\n        /* \"#utility.yul\":14872:14873   */\n      dup1\n        /* \"#utility.yul\":14865:14877   */\n      revert\n        /* \"#utility.yul\":14816:14818   */\n    tag_257:\n        /* \"#utility.yul\":14806:14885   */\n      pop\n      jump\t// out\n        /* \"#utility.yul\":14891:15009   */\n    tag_97:\n        /* \"#utility.yul\":14962:14984   */\n      tag_259\n        /* \"#utility.yul\":14978:14983   */\n      dup2\n        /* \"#utility.yul\":14962:14984   */\n      tag_171\n      jump\t// in\n    tag_259:\n        /* \"#utility.yul\":14955:14960   */\n      dup2\n        /* \"#utility.yul\":14952:14985   */\n      eq\n        /* \"#utility.yul\":14942:14944   */\n      tag_260\n      jumpi\n        /* \"#utility.yul\":14999:15000   */\n      0x00\n        /* \"#utility.yul\":14996:14997   */\n      dup1\n        /* \"#utility.yul\":14989:15001   */\n      revert\n        /* \"#utility.yul\":14942:14944   */\n    tag_260:\n        /* \"#utility.yul\":14932:15009   */\n      pop\n      jump\t// out\n    stop\n    data_23d10def3caacba2e4042e0c75d44a42d2558aabcf5ce951d0642a8032e1e653 4d6574615472616e73616374696f6e2875696e74323536206e6f6e63652c616464726573732066726f6d2c62797465732066756e6374696f6e5369676e617475726529\n\n    auxdata: 0xa2646970667358221220c540dc14d70d695ae998b75d48055bc315a7ffda6afe9ba6fec1e8bc9736b21b64736f6c63430007060033\n}\n",
				"bytecode": {
					"linkReferences": {},
					"object": "608060405234801561001057600080fd5b50610e2d806100206000396000f3fe60806040526004361061003f5760003560e01c80630c53c51c146100445780632d0335ab146100745780633408e470146100b1578063f698da25146100dc575b600080fd5b61005e6004803603810190610059919061069e565b610107565b60405161006b9190610af5565b60405180910390f35b34801561008057600080fd5b5061009b60048036038101906100969190610675565b610379565b6040516100a89190610b97565b60405180910390f35b3480156100bd57600080fd5b506100c66103c2565b6040516100d39190610b97565b60405180910390f35b3480156100e857600080fd5b506100f16103cf565b6040516100fe9190610a50565b60405180910390f35b606060006040518060600160405280600160008a73ffffffffffffffffffffffffffffffffffffffff1673ffffffffffffffffffffffffffffffffffffffff1681526020019081526020016000205481526020018873ffffffffffffffffffffffffffffffffffffffff16815260200187815250905061018a87828787876103d5565b6101c9576040517f08c379a00000000000000000000000000000000000000000000000000000000081526004016101c090610b37565b60405180910390fd5b61021b60018060008a73ffffffffffffffffffffffffffffffffffffffff1673ffffffffffffffffffffffffffffffffffffffff168152602001908152602001600020546104de90919063ffffffff16565b600160008973ffffffffffffffffffffffffffffffffffffffff1673ffffffffffffffffffffffffffffffffffffffff168152602001908152602001600020819055507f5845892132946850460bff5a0083f71031bc5bf9aadcd40f1de79423eac9b10b87338860405161029193929190610a12565b60405180910390a16000803073ffffffffffffffffffffffffffffffffffffffff1634898b6040516020016102c79291906109b3565b6040516020818303038152906040526040516102e3919061099c565b60006040518083038185875af1925050503d8060008114610320576040519150601f19603f3d011682016040523d82523d6000602084013e610325565b606091505b50915091508161036a576040517f08c379a000000000000000000000000000000000000000000000000000000000815260040161036190610b57565b60405180910390fd5b80935050505095945050505050565b6000600160008373ffffffffffffffffffffffffffffffffffffffff1673ffffffffffffffffffffffffffffffffffffffff168152602001908152602001600020549050919050565b6000804690508091505090565b60005481565b60008073ffffffffffffffffffffffffffffffffffffffff168673ffffffffffffffffffffffffffffffffffffffff161415610446576040517f08c379a000000000000000000000000000000000000000000000000000000000815260040161043d90610b77565b60405180910390fd5b600161045961045487610533565b61059b565b838686604051600081526020016040526040516104799493929190610ab0565b6020604051602081039080840390855afa15801561049b573d6000803e3d6000fd5b5050506020604051035173ffffffffffffffffffffffffffffffffffffffff168673ffffffffffffffffffffffffffffffffffffffff1614905095945050505050565b600080828401905083811015610529576040517f08c379a000000000000000000000000000000000000000000000000000000000815260040161052090610b17565b60405180910390fd5b8091505092915050565b6000604051806080016040528060438152602001610db560439139805190602001208260000151836020015184604001518051906020012060405160200161057e9493929190610a6b565b604051602081830303815290604052805190602001209050919050565b60008054826040516020016105b19291906109db565b604051602081830303815290604052805190602001209050919050565b60006105e16105dc84610be3565b610bb2565b9050828152602081018484840111156105f957600080fd5b610604848285610cdf565b509392505050565b60008135905061061b81610d6f565b92915050565b60008135905061063081610d86565b92915050565b600082601f83011261064757600080fd5b81356106578482602086016105ce565b91505092915050565b60008135905061066f81610d9d565b92915050565b60006020828403121561068757600080fd5b60006106958482850161060c565b91505092915050565b600080600080600060a086880312156106b657600080fd5b60006106c48882890161060c565b955050602086013567ffffffffffffffff8111156106e157600080fd5b6106ed88828901610636565b94505060406106fe88828901610621565b935050606061070f88828901610621565b925050608061072088828901610660565b9150509295509295909350565b61073681610ca9565b82525050565b61074581610c56565b82525050565b61075c61075782610c56565b610d21565b82525050565b61076b81610c68565b82525050565b61078261077d82610c68565b610d33565b82525050565b600061079382610c13565b61079d8185610c1e565b93506107ad818560208601610cee565b6107b681610d51565b840191505092915050565b60006107cc82610c13565b6107d68185610c2f565b93506107e6818560208601610cee565b80840191505092915050565b60006107ff600283610c4b565b91507f19010000000000000000000000000000000000000000000000000000000000006000830152600282019050919050565b600061083f601b83610c3a565b91507f536166654d6174683a206164646974696f6e206f766572666c6f7700000000006000830152602082019050919050565b600061087f603d83610c3a565b91507f4e4d5423657865637574654d6574615472616e73616374696f6e3a205349474e60008301527f45525f414e445f5349474e41545552455f444f5f4e4f545f4d415443480000006020830152604082019050919050565b60006108e5602783610c3a565b91507f4e4d5423657865637574654d6574615472616e73616374696f6e3a2043414c4c60008301527f5f4641494c4544000000000000000000000000000000000000000000000000006020830152604082019050919050565b600061094b601a83610c3a565b91507f4e4d54237665726966793a20494e56414c49445f5349474e45520000000000006000830152602082019050919050565b61098781610c92565b82525050565b61099681610c9c565b82525050565b60006109a882846107c1565b915081905092915050565b60006109bf82856107c1565b91506109cb828461074b565b6014820191508190509392505050565b60006109e6826107f2565b91506109f28285610771565b602082019150610a028284610771565b6020820191508190509392505050565b6000606082019050610a27600083018661073c565b610a34602083018561072d565b8181036040830152610a468184610788565b9050949350505050565b6000602082019050610a656000830184610762565b92915050565b6000608082019050610a806000830187610762565b610a8d602083018661097e565b610a9a604083018561073c565b610aa76060830184610762565b95945050505050565b6000608082019050610ac56000830187610762565b610ad2602083018661098d565b610adf6040830185610762565b610aec6060830184610762565b95945050505050565b60006020820190508181036000830152610b0f8184610788565b905092915050565b60006020820190508181036000830152610b3081610832565b9050919050565b60006020820190508181036000830152610b5081610872565b9050919050565b60006020820190508181036000830152610b70816108d8565b9050919050565b60006020820190508181036000830152610b908161093e565b9050919050565b6000602082019050610bac600083018461097e565b92915050565b6000604051905081810181811067ffffffffffffffff82111715610bd957610bd8610d4f565b5b8060405250919050565b600067ffffffffffffffff821115610bfe57610bfd610d4f565b5b601f19601f8301169050602081019050919050565b600081519050919050565b600082825260208201905092915050565b600081905092915050565b600082825260208201905092915050565b600081905092915050565b6000610c6182610c72565b9050919050565b6000819050919050565b600073ffffffffffffffffffffffffffffffffffffffff82169050919050565b6000819050919050565b600060ff82169050919050565b6000610cb482610cbb565b9050919050565b6000610cc682610ccd565b9050919050565b6000610cd882610c72565b9050919050565b82818337600083830152505050565b60005b83811015610d0c578082015181840152602081019050610cf1565b83811115610d1b576000848401525b50505050565b6000610d2c82610d3d565b9050919050565b6000819050919050565b6000610d4882610d62565b9050919050565bfe5b6000601f19601f8301169050919050565b60008160601b9050919050565b610d7881610c56565b8114610d8357600080fd5b50565b610d8f81610c68565b8114610d9a57600080fd5b50565b610da681610c9c565b8114610db157600080fd5b5056fe4d6574615472616e73616374696f6e2875696e74323536206e6f6e63652c616464726573732066726f6d2c62797465732066756e6374696f6e5369676e617475726529a2646970667358221220c540dc14d70d695ae998b75d48055bc315a7ffda6afe9ba6fec1e8bc9736b21b64736f6c63430007060033",
					"opcodes": "PUSH1 0x80 PUSH1 0x40 MSTORE CALLVALUE DUP1 ISZERO PUSH2 0x10 JUMPI PUSH1 0x0 DUP1 REVERT JUMPDEST POP PUSH2 0xE2D DUP1 PUSH2 0x20 PUSH1 0x0 CODECOPY PUSH1 0x0 RETURN INVALID PUSH1 0x80 PUSH1 0x40 MSTORE PUSH1 0x4 CALLDATASIZE LT PUSH2 0x3F JUMPI PUSH1 0x0 CALLDATALOAD PUSH1 0xE0 SHR DUP1 PUSH4 0xC53C51C EQ PUSH2 0x44 JUMPI DUP1 PUSH4 0x2D0335AB EQ PUSH2 0x74 JUMPI DUP1 PUSH4 0x3408E470 EQ PUSH2 0xB1 JUMPI DUP1 PUSH4 0xF698DA25 EQ PUSH2 0xDC JUMPI JUMPDEST PUSH1 0x0 DUP1 REVERT JUMPDEST PUSH2 0x5E PUSH1 0x4 DUP1 CALLDATASIZE SUB DUP2 ADD SWAP1 PUSH2 0x59 SWAP2 SWAP1 PUSH2 0x69E JUMP JUMPDEST PUSH2 0x107 JUMP JUMPDEST PUSH1 0x40 MLOAD PUSH2 0x6B SWAP2 SWAP1 PUSH2 0xAF5 JUMP JUMPDEST PUSH1 0x40 MLOAD DUP1 SWAP2 SUB SWAP1 RETURN JUMPDEST CALLVALUE DUP1 ISZERO PUSH2 0x80 JUMPI PUSH1 0x0 DUP1 REVERT JUMPDEST POP PUSH2 0x9B PUSH1 0x4 DUP1 CALLDATASIZE SUB DUP2 ADD SWAP1 PUSH2 0x96 SWAP2 SWAP1 PUSH2 0x675 JUMP JUMPDEST PUSH2 0x379 JUMP JUMPDEST PUSH1 0x40 MLOAD PUSH2 0xA8 SWAP2 SWAP1 PUSH2 0xB97 JUMP JUMPDEST PUSH1 0x40 MLOAD DUP1 SWAP2 SUB SWAP1 RETURN JUMPDEST CALLVALUE DUP1 ISZERO PUSH2 0xBD JUMPI PUSH1 0x0 DUP1 REVERT JUMPDEST POP PUSH2 0xC6 PUSH2 0x3C2 JUMP JUMPDEST PUSH1 0x40 MLOAD PUSH2 0xD3 SWAP2 SWAP1 PUSH2 0xB97 JUMP JUMPDEST PUSH1 0x40 MLOAD DUP1 SWAP2 SUB SWAP1 RETURN JUMPDEST CALLVALUE DUP1 ISZERO PUSH2 0xE8 JUMPI PUSH1 0x0 DUP1 REVERT JUMPDEST POP PUSH2 0xF1 PUSH2 0x3CF JUMP JUMPDEST PUSH1 0x40 MLOAD PUSH2 0xFE SWAP2 SWAP1 PUSH2 0xA50 JUMP JUMPDEST PUSH1 0x40 MLOAD DUP1 SWAP2 SUB SWAP1 RETURN JUMPDEST PUSH1 0x60 PUSH1 0x0 PUSH1 0x40 MLOAD DUP1 PUSH1 0x60 ADD PUSH1 0x40 MSTORE DUP1 PUSH1 0x1 PUSH1 0x0 DUP11 PUSH20 0xFFFFFFFFFFFFFFFFFFFFFFFFFFFFFFFFFFFFFFFF AND PUSH20 0xFFFFFFFFFFFFFFFFFFFFFFFFFFFFFFFFFFFFFFFF AND DUP2 MSTORE PUSH1 0x20 ADD SWAP1 DUP2 MSTORE PUSH1 0x20 ADD PUSH1 0x0 KECCAK256 SLOAD DUP2 MSTORE PUSH1 0x20 ADD DUP9 PUSH20 0xFFFFFFFFFFFFFFFFFFFFFFFFFFFFFFFFFFFFFFFF AND DUP2 MSTORE PUSH1 0x20 ADD DUP8 DUP2 MSTORE POP SWAP1 POP PUSH2 0x18A DUP8 DUP3 DUP8 DUP8 DUP8 PUSH2 0x3D5 JUMP JUMPDEST PUSH2 0x1C9 JUMPI PUSH1 0x40 MLOAD PUSH32 0x8C379A000000000000000000000000000000000000000000000000000000000 DUP2 MSTORE PUSH1 0x4 ADD PUSH2 0x1C0 SWAP1 PUSH2 0xB37 JUMP JUMPDEST PUSH1 0x40 MLOAD DUP1 SWAP2 SUB SWAP1 REVERT JUMPDEST PUSH2 0x21B PUSH1 0x1 DUP1 PUSH1 0x0 DUP11 PUSH20 0xFFFFFFFFFFFFFFFFFFFFFFFFFFFFFFFFFFFFFFFF AND PUSH20 0xFFFFFFFFFFFFFFFFFFFFFFFFFFFFFFFFFFFFFFFF AND DUP2 MSTORE PUSH1 0x20 ADD SWAP1 DUP2 MSTORE PUSH1 0x20 ADD PUSH1 0x0 KECCAK256 SLOAD PUSH2 0x4DE SWAP1 SWAP2 SWAP1 PUSH4 0xFFFFFFFF AND JUMP JUMPDEST PUSH1 0x1 PUSH1 0x0 DUP10 PUSH20 0xFFFFFFFFFFFFFFFFFFFFFFFFFFFFFFFFFFFFFFFF AND PUSH20 0xFFFFFFFFFFFFFFFFFFFFFFFFFFFFFFFFFFFFFFFF AND DUP2 MSTORE PUSH1 0x20 ADD SWAP1 DUP2 MSTORE PUSH1 0x20 ADD PUSH1 0x0 KECCAK256 DUP2 SWAP1 SSTORE POP PUSH32 0x5845892132946850460BFF5A0083F71031BC5BF9AADCD40F1DE79423EAC9B10B DUP8 CALLER DUP9 PUSH1 0x40 MLOAD PUSH2 0x291 SWAP4 SWAP3 SWAP2 SWAP1 PUSH2 0xA12 JUMP JUMPDEST PUSH1 0x40 MLOAD DUP1 SWAP2 SUB SWAP1 LOG1 PUSH1 0x0 DUP1 ADDRESS PUSH20 0xFFFFFFFFFFFFFFFFFFFFFFFFFFFFFFFFFFFFFFFF AND CALLVALUE DUP10 DUP12 PUSH1 0x40 MLOAD PUSH1 0x20 ADD PUSH2 0x2C7 SWAP3 SWAP2 SWAP1 PUSH2 0x9B3 JUMP JUMPDEST PUSH1 0x40 MLOAD PUSH1 0x20 DUP2 DUP4 SUB SUB DUP2 MSTORE SWAP1 PUSH1 0x40 MSTORE PUSH1 0x40 MLOAD PUSH2 0x2E3 SWAP2 SWAP1 PUSH2 0x99C JUMP JUMPDEST PUSH1 0x0 PUSH1 0x40 MLOAD DUP1 DUP4 SUB DUP2 DUP6 DUP8 GAS CALL SWAP3 POP POP POP RETURNDATASIZE DUP1 PUSH1 0x0 DUP2 EQ PUSH2 0x320 JUMPI PUSH1 0x40 MLOAD SWAP2 POP PUSH1 0x1F NOT PUSH1 0x3F RETURNDATASIZE ADD AND DUP3 ADD PUSH1 0x40 MSTORE RETURNDATASIZE DUP3 MSTORE RETURNDATASIZE PUSH1 0x0 PUSH1 0x20 DUP5 ADD RETURNDATACOPY PUSH2 0x325 JUMP JUMPDEST PUSH1 0x60 SWAP2 POP JUMPDEST POP SWAP2 POP SWAP2 POP DUP2 PUSH2 0x36A JUMPI PUSH1 0x40 MLOAD PUSH32 0x8C379A000000000000000000000000000000000000000000000000000000000 DUP2 MSTORE PUSH1 0x4 ADD PUSH2 0x361 SWAP1 PUSH2 0xB57 JUMP JUMPDEST PUSH1 0x40 MLOAD DUP1 SWAP2 SUB SWAP1 REVERT JUMPDEST DUP1 SWAP4 POP POP POP POP SWAP6 SWAP5 POP POP POP POP POP JUMP JUMPDEST PUSH1 0x0 PUSH1 0x1 PUSH1 0x0 DUP4 PUSH20 0xFFFFFFFFFFFFFFFFFFFFFFFFFFFFFFFFFFFFFFFF AND PUSH20 0xFFFFFFFFFFFFFFFFFFFFFFFFFFFFFFFFFFFFFFFF AND DUP2 MSTORE PUSH1 0x20 ADD SWAP1 DUP2 MSTORE PUSH1 0x20 ADD PUSH1 0x0 KECCAK256 SLOAD SWAP1 POP SWAP2 SWAP1 POP JUMP JUMPDEST PUSH1 0x0 DUP1 CHAINID SWAP1 POP DUP1 SWAP2 POP POP SWAP1 JUMP JUMPDEST PUSH1 0x0 SLOAD DUP2 JUMP JUMPDEST PUSH1 0x0 DUP1 PUSH20 0xFFFFFFFFFFFFFFFFFFFFFFFFFFFFFFFFFFFFFFFF AND DUP7 PUSH20 0xFFFFFFFFFFFFFFFFFFFFFFFFFFFFFFFFFFFFFFFF AND EQ ISZERO PUSH2 0x446 JUMPI PUSH1 0x40 MLOAD PUSH32 0x8C379A000000000000000000000000000000000000000000000000000000000 DUP2 MSTORE PUSH1 0x4 ADD PUSH2 0x43D SWAP1 PUSH2 0xB77 JUMP JUMPDEST PUSH1 0x40 MLOAD DUP1 SWAP2 SUB SWAP1 REVERT JUMPDEST PUSH1 0x1 PUSH2 0x459 PUSH2 0x454 DUP8 PUSH2 0x533 JUMP JUMPDEST PUSH2 0x59B JUMP JUMPDEST DUP4 DUP7 DUP7 PUSH1 0x40 MLOAD PUSH1 0x0 DUP2 MSTORE PUSH1 0x20 ADD PUSH1 0x40 MSTORE PUSH1 0x40 MLOAD PUSH2 0x479 SWAP5 SWAP4 SWAP3 SWAP2 SWAP1 PUSH2 0xAB0 JUMP JUMPDEST PUSH1 0x20 PUSH1 0x40 MLOAD PUSH1 0x20 DUP2 SUB SWAP1 DUP1 DUP5 SUB SWAP1 DUP6 GAS STATICCALL ISZERO DUP1 ISZERO PUSH2 0x49B JUMPI RETURNDATASIZE PUSH1 0x0 DUP1 RETURNDATACOPY RETURNDATASIZE PUSH1 0x0 REVERT JUMPDEST POP POP POP PUSH1 0x20 PUSH1 0x40 MLOAD SUB MLOAD PUSH20 0xFFFFFFFFFFFFFFFFFFFFFFFFFFFFFFFFFFFFFFFF AND DUP7 PUSH20 0xFFFFFFFFFFFFFFFFFFFFFFFFFFFFFFFFFFFFFFFF AND EQ SWAP1 POP SWAP6 SWAP5 POP POP POP POP POP JUMP JUMPDEST PUSH1 0x0 DUP1 DUP3 DUP5 ADD SWAP1 POP DUP4 DUP2 LT ISZERO PUSH2 0x529 JUMPI PUSH1 0x40 MLOAD PUSH32 0x8C379A000000000000000000000000000000000000000000000000000000000 DUP2 MSTORE PUSH1 0x4 ADD PUSH2 0x520 SWAP1 PUSH2 0xB17 JUMP JUMPDEST PUSH1 0x40 MLOAD DUP1 SWAP2 SUB SWAP1 REVERT JUMPDEST DUP1 SWAP2 POP POP SWAP3 SWAP2 POP POP JUMP JUMPDEST PUSH1 0x0 PUSH1 0x40 MLOAD DUP1 PUSH1 0x80 ADD PUSH1 0x40 MSTORE DUP1 PUSH1 0x43 DUP2 MSTORE PUSH1 0x20 ADD PUSH2 0xDB5 PUSH1 0x43 SWAP2 CODECOPY DUP1 MLOAD SWAP1 PUSH1 0x20 ADD KECCAK256 DUP3 PUSH1 0x0 ADD MLOAD DUP4 PUSH1 0x20 ADD MLOAD DUP5 PUSH1 0x40 ADD MLOAD DUP1 MLOAD SWAP1 PUSH1 0x20 ADD KECCAK256 PUSH1 0x40 MLOAD PUSH1 0x20 ADD PUSH2 0x57E SWAP5 SWAP4 SWAP3 SWAP2 SWAP1 PUSH2 0xA6B JUMP JUMPDEST PUSH1 0x40 MLOAD PUSH1 0x20 DUP2 DUP4 SUB SUB DUP2 MSTORE SWAP1 PUSH1 0x40 MSTORE DUP1 MLOAD SWAP1 PUSH1 0x20 ADD KECCAK256 SWAP1 POP SWAP2 SWAP1 POP JUMP JUMPDEST PUSH1 0x0 DUP1 SLOAD DUP3 PUSH1 0x40 MLOAD PUSH1 0x20 ADD PUSH2 0x5B1 SWAP3 SWAP2 SWAP1 PUSH2 0x9DB JUMP JUMPDEST PUSH1 0x40 MLOAD PUSH1 0x20 DUP2 DUP4 SUB SUB DUP2 MSTORE SWAP1 PUSH1 0x40 MSTORE DUP1 MLOAD SWAP1 PUSH1 0x20 ADD KECCAK256 SWAP1 POP SWAP2 SWAP1 POP JUMP JUMPDEST PUSH1 0x0 PUSH2 0x5E1 PUSH2 0x5DC DUP5 PUSH2 0xBE3 JUMP JUMPDEST PUSH2 0xBB2 JUMP JUMPDEST SWAP1 POP DUP3 DUP2 MSTORE PUSH1 0x20 DUP2 ADD DUP5 DUP5 DUP5 ADD GT ISZERO PUSH2 0x5F9 JUMPI PUSH1 0x0 DUP1 REVERT JUMPDEST PUSH2 0x604 DUP5 DUP3 DUP6 PUSH2 0xCDF JUMP JUMPDEST POP SWAP4 SWAP3 POP POP POP JUMP JUMPDEST PUSH1 0x0 DUP2 CALLDATALOAD SWAP1 POP PUSH2 0x61B DUP2 PUSH2 0xD6F JUMP JUMPDEST SWAP3 SWAP2 POP POP JUMP JUMPDEST PUSH1 0x0 DUP2 CALLDATALOAD SWAP1 POP PUSH2 0x630 DUP2 PUSH2 0xD86 JUMP JUMPDEST SWAP3 SWAP2 POP POP JUMP JUMPDEST PUSH1 0x0 DUP3 PUSH1 0x1F DUP4 ADD SLT PUSH2 0x647 JUMPI PUSH1 0x0 DUP1 REVERT JUMPDEST DUP2 CALLDATALOAD PUSH2 0x657 DUP5 DUP3 PUSH1 0x20 DUP7 ADD PUSH2 0x5CE JUMP JUMPDEST SWAP2 POP POP SWAP3 SWAP2 POP POP JUMP JUMPDEST PUSH1 0x0 DUP2 CALLDATALOAD SWAP1 POP PUSH2 0x66F DUP2 PUSH2 0xD9D JUMP JUMPDEST SWAP3 SWAP2 POP POP JUMP JUMPDEST PUSH1 0x0 PUSH1 0x20 DUP3 DUP5 SUB SLT ISZERO PUSH2 0x687 JUMPI PUSH1 0x0 DUP1 REVERT JUMPDEST PUSH1 0x0 PUSH2 0x695 DUP5 DUP3 DUP6 ADD PUSH2 0x60C JUMP JUMPDEST SWAP2 POP POP SWAP3 SWAP2 POP POP JUMP JUMPDEST PUSH1 0x0 DUP1 PUSH1 0x0 DUP1 PUSH1 0x0 PUSH1 0xA0 DUP7 DUP9 SUB SLT ISZERO PUSH2 0x6B6 JUMPI PUSH1 0x0 DUP1 REVERT JUMPDEST PUSH1 0x0 PUSH2 0x6C4 DUP9 DUP3 DUP10 ADD PUSH2 0x60C JUMP JUMPDEST SWAP6 POP POP PUSH1 0x20 DUP7 ADD CALLDATALOAD PUSH8 0xFFFFFFFFFFFFFFFF DUP2 GT ISZERO PUSH2 0x6E1 JUMPI PUSH1 0x0 DUP1 REVERT JUMPDEST PUSH2 0x6ED DUP9 DUP3 DUP10 ADD PUSH2 0x636 JUMP JUMPDEST SWAP5 POP POP PUSH1 0x40 PUSH2 0x6FE DUP9 DUP3 DUP10 ADD PUSH2 0x621 JUMP JUMPDEST SWAP4 POP POP PUSH1 0x60 PUSH2 0x70F DUP9 DUP3 DUP10 ADD PUSH2 0x621 JUMP JUMPDEST SWAP3 POP POP PUSH1 0x80 PUSH2 0x720 DUP9 DUP3 DUP10 ADD PUSH2 0x660 JUMP JUMPDEST SWAP2 POP POP SWAP3 SWAP6 POP SWAP3 SWAP6 SWAP1 SWAP4 POP JUMP JUMPDEST PUSH2 0x736 DUP2 PUSH2 0xCA9 JUMP JUMPDEST DUP3 MSTORE POP POP JUMP JUMPDEST PUSH2 0x745 DUP2 PUSH2 0xC56 JUMP JUMPDEST DUP3 MSTORE POP POP JUMP JUMPDEST PUSH2 0x75C PUSH2 0x757 DUP3 PUSH2 0xC56 JUMP JUMPDEST PUSH2 0xD21 JUMP JUMPDEST DUP3 MSTORE POP POP JUMP JUMPDEST PUSH2 0x76B DUP2 PUSH2 0xC68 JUMP JUMPDEST DUP3 MSTORE POP POP JUMP JUMPDEST PUSH2 0x782 PUSH2 0x77D DUP3 PUSH2 0xC68 JUMP JUMPDEST PUSH2 0xD33 JUMP JUMPDEST DUP3 MSTORE POP POP JUMP JUMPDEST PUSH1 0x0 PUSH2 0x793 DUP3 PUSH2 0xC13 JUMP JUMPDEST PUSH2 0x79D DUP2 DUP6 PUSH2 0xC1E JUMP JUMPDEST SWAP4 POP PUSH2 0x7AD DUP2 DUP6 PUSH1 0x20 DUP7 ADD PUSH2 0xCEE JUMP JUMPDEST PUSH2 0x7B6 DUP2 PUSH2 0xD51 JUMP JUMPDEST DUP5 ADD SWAP2 POP POP SWAP3 SWAP2 POP POP JUMP JUMPDEST PUSH1 0x0 PUSH2 0x7CC DUP3 PUSH2 0xC13 JUMP JUMPDEST PUSH2 0x7D6 DUP2 DUP6 PUSH2 0xC2F JUMP JUMPDEST SWAP4 POP PUSH2 0x7E6 DUP2 DUP6 PUSH1 0x20 DUP7 ADD PUSH2 0xCEE JUMP JUMPDEST DUP1 DUP5 ADD SWAP2 POP POP SWAP3 SWAP2 POP POP JUMP JUMPDEST PUSH1 0x0 PUSH2 0x7FF PUSH1 0x2 DUP4 PUSH2 0xC4B JUMP JUMPDEST SWAP2 POP PUSH32 0x1901000000000000000000000000000000000000000000000000000000000000 PUSH1 0x0 DUP4 ADD MSTORE PUSH1 0x2 DUP3 ADD SWAP1 POP SWAP2 SWAP1 POP JUMP JUMPDEST PUSH1 0x0 PUSH2 0x83F PUSH1 0x1B DUP4 PUSH2 0xC3A JUMP JUMPDEST SWAP2 POP PUSH32 0x536166654D6174683A206164646974696F6E206F766572666C6F770000000000 PUSH1 0x0 DUP4 ADD MSTORE PUSH1 0x20 DUP3 ADD SWAP1 POP SWAP2 SWAP1 POP JUMP JUMPDEST PUSH1 0x0 PUSH2 0x87F PUSH1 0x3D DUP4 PUSH2 0xC3A JUMP JUMPDEST SWAP2 POP PUSH32 0x4E4D5423657865637574654D6574615472616E73616374696F6E3A205349474E PUSH1 0x0 DUP4 ADD MSTORE PUSH32 0x45525F414E445F5349474E41545552455F444F5F4E4F545F4D41544348000000 PUSH1 0x20 DUP4 ADD MSTORE PUSH1 0x40 DUP3 ADD SWAP1 POP SWAP2 SWAP1 POP JUMP JUMPDEST PUSH1 0x0 PUSH2 0x8E5 PUSH1 0x27 DUP4 PUSH2 0xC3A JUMP JUMPDEST SWAP2 POP PUSH32 0x4E4D5423657865637574654D6574615472616E73616374696F6E3A2043414C4C PUSH1 0x0 DUP4 ADD MSTORE PUSH32 0x5F4641494C454400000000000000000000000000000000000000000000000000 PUSH1 0x20 DUP4 ADD MSTORE PUSH1 0x40 DUP3 ADD SWAP1 POP SWAP2 SWAP1 POP JUMP JUMPDEST PUSH1 0x0 PUSH2 0x94B PUSH1 0x1A DUP4 PUSH2 0xC3A JUMP JUMPDEST SWAP2 POP PUSH32 0x4E4D54237665726966793A20494E56414C49445F5349474E4552000000000000 PUSH1 0x0 DUP4 ADD MSTORE PUSH1 0x20 DUP3 ADD SWAP1 POP SWAP2 SWAP1 POP JUMP JUMPDEST PUSH2 0x987 DUP2 PUSH2 0xC92 JUMP JUMPDEST DUP3 MSTORE POP POP JUMP JUMPDEST PUSH2 0x996 DUP2 PUSH2 0xC9C JUMP JUMPDEST DUP3 MSTORE POP POP JUMP JUMPDEST PUSH1 0x0 PUSH2 0x9A8 DUP3 DUP5 PUSH2 0x7C1 JUMP JUMPDEST SWAP2 POP DUP2 SWAP1 POP SWAP3 SWAP2 POP POP JUMP JUMPDEST PUSH1 0x0 PUSH2 0x9BF DUP3 DUP6 PUSH2 0x7C1 JUMP JUMPDEST SWAP2 POP PUSH2 0x9CB DUP3 DUP5 PUSH2 0x74B JUMP JUMPDEST PUSH1 0x14 DUP3 ADD SWAP2 POP DUP2 SWAP1 POP SWAP4 SWAP3 POP POP POP JUMP JUMPDEST PUSH1 0x0 PUSH2 0x9E6 DUP3 PUSH2 0x7F2 JUMP JUMPDEST SWAP2 POP PUSH2 0x9F2 DUP3 DUP6 PUSH2 0x771 JUMP JUMPDEST PUSH1 0x20 DUP3 ADD SWAP2 POP PUSH2 0xA02 DUP3 DUP5 PUSH2 0x771 JUMP JUMPDEST PUSH1 0x20 DUP3 ADD SWAP2 POP DUP2 SWAP1 POP SWAP4 SWAP3 POP POP POP JUMP JUMPDEST PUSH1 0x0 PUSH1 0x60 DUP3 ADD SWAP1 POP PUSH2 0xA27 PUSH1 0x0 DUP4 ADD DUP7 PUSH2 0x73C JUMP JUMPDEST PUSH2 0xA34 PUSH1 0x20 DUP4 ADD DUP6 PUSH2 0x72D JUMP JUMPDEST DUP2 DUP2 SUB PUSH1 0x40 DUP4 ADD MSTORE PUSH2 0xA46 DUP2 DUP5 PUSH2 0x788 JUMP JUMPDEST SWAP1 POP SWAP5 SWAP4 POP POP POP POP JUMP JUMPDEST PUSH1 0x0 PUSH1 0x20 DUP3 ADD SWAP1 POP PUSH2 0xA65 PUSH1 0x0 DUP4 ADD DUP5 PUSH2 0x762 JUMP JUMPDEST SWAP3 SWAP2 POP POP JUMP JUMPDEST PUSH1 0x0 PUSH1 0x80 DUP3 ADD SWAP1 POP PUSH2 0xA80 PUSH1 0x0 DUP4 ADD DUP8 PUSH2 0x762 JUMP JUMPDEST PUSH2 0xA8D PUSH1 0x20 DUP4 ADD DUP7 PUSH2 0x97E JUMP JUMPDEST PUSH2 0xA9A PUSH1 0x40 DUP4 ADD DUP6 PUSH2 0x73C JUMP JUMPDEST PUSH2 0xAA7 PUSH1 0x60 DUP4 ADD DUP5 PUSH2 0x762 JUMP JUMPDEST SWAP6 SWAP5 POP POP POP POP POP JUMP JUMPDEST PUSH1 0x0 PUSH1 0x80 DUP3 ADD SWAP1 POP PUSH2 0xAC5 PUSH1 0x0 DUP4 ADD DUP8 PUSH2 0x762 JUMP JUMPDEST PUSH2 0xAD2 PUSH1 0x20 DUP4 ADD DUP7 PUSH2 0x98D JUMP JUMPDEST PUSH2 0xADF PUSH1 0x40 DUP4 ADD DUP6 PUSH2 0x762 JUMP JUMPDEST PUSH2 0xAEC PUSH1 0x60 DUP4 ADD DUP5 PUSH2 0x762 JUMP JUMPDEST SWAP6 SWAP5 POP POP POP POP POP JUMP JUMPDEST PUSH1 0x0 PUSH1 0x20 DUP3 ADD SWAP1 POP DUP2 DUP2 SUB PUSH1 0x0 DUP4 ADD MSTORE PUSH2 0xB0F DUP2 DUP5 PUSH2 0x788 JUMP JUMPDEST SWAP1 POP SWAP3 SWAP2 POP POP JUMP JUMPDEST PUSH1 0x0 PUSH1 0x20 DUP3 ADD SWAP1 POP DUP2 DUP2 SUB PUSH1 0x0 DUP4 ADD MSTORE PUSH2 0xB30 DUP2 PUSH2 0x832 JUMP JUMPDEST SWAP1 POP SWAP2 SWAP1 POP JUMP JUMPDEST PUSH1 0x0 PUSH1 0x20 DUP3 ADD SWAP1 POP DUP2 DUP2 SUB PUSH1 0x0 DUP4 ADD MSTORE PUSH2 0xB50 DUP2 PUSH2 0x872 JUMP JUMPDEST SWAP1 POP SWAP2 SWAP1 POP JUMP JUMPDEST PUSH1 0x0 PUSH1 0x20 DUP3 ADD SWAP1 POP DUP2 DUP2 SUB PUSH1 0x0 DUP4 ADD MSTORE PUSH2 0xB70 DUP2 PUSH2 0x8D8 JUMP JUMPDEST SWAP1 POP SWAP2 SWAP1 POP JUMP JUMPDEST PUSH1 0x0 PUSH1 0x20 DUP3 ADD SWAP1 POP DUP2 DUP2 SUB PUSH1 0x0 DUP4 ADD MSTORE PUSH2 0xB90 DUP2 PUSH2 0x93E JUMP JUMPDEST SWAP1 POP SWAP2 SWAP1 POP JUMP JUMPDEST PUSH1 0x0 PUSH1 0x20 DUP3 ADD SWAP1 POP PUSH2 0xBAC PUSH1 0x0 DUP4 ADD DUP5 PUSH2 0x97E JUMP JUMPDEST SWAP3 SWAP2 POP POP JUMP JUMPDEST PUSH1 0x0 PUSH1 0x40 MLOAD SWAP1 POP DUP2 DUP2 ADD DUP2 DUP2 LT PUSH8 0xFFFFFFFFFFFFFFFF DUP3 GT OR ISZERO PUSH2 0xBD9 JUMPI PUSH2 0xBD8 PUSH2 0xD4F JUMP JUMPDEST JUMPDEST DUP1 PUSH1 0x40 MSTORE POP SWAP2 SWAP1 POP JUMP JUMPDEST PUSH1 0x0 PUSH8 0xFFFFFFFFFFFFFFFF DUP3 GT ISZERO PUSH2 0xBFE JUMPI PUSH2 0xBFD PUSH2 0xD4F JUMP JUMPDEST JUMPDEST PUSH1 0x1F NOT PUSH1 0x1F DUP4 ADD AND SWAP1 POP PUSH1 0x20 DUP2 ADD SWAP1 POP SWAP2 SWAP1 POP JUMP JUMPDEST PUSH1 0x0 DUP2 MLOAD SWAP1 POP SWAP2 SWAP1 POP JUMP JUMPDEST PUSH1 0x0 DUP3 DUP3 MSTORE PUSH1 0x20 DUP3 ADD SWAP1 POP SWAP3 SWAP2 POP POP JUMP JUMPDEST PUSH1 0x0 DUP2 SWAP1 POP SWAP3 SWAP2 POP POP JUMP JUMPDEST PUSH1 0x0 DUP3 DUP3 MSTORE PUSH1 0x20 DUP3 ADD SWAP1 POP SWAP3 SWAP2 POP POP JUMP JUMPDEST PUSH1 0x0 DUP2 SWAP1 POP SWAP3 SWAP2 POP POP JUMP JUMPDEST PUSH1 0x0 PUSH2 0xC61 DUP3 PUSH2 0xC72 JUMP JUMPDEST SWAP1 POP SWAP2 SWAP1 POP JUMP JUMPDEST PUSH1 0x0 DUP2 SWAP1 POP SWAP2 SWAP1 POP JUMP JUMPDEST PUSH1 0x0 PUSH20 0xFFFFFFFFFFFFFFFFFFFFFFFFFFFFFFFFFFFFFFFF DUP3 AND SWAP1 POP SWAP2 SWAP1 POP JUMP JUMPDEST PUSH1 0x0 DUP2 SWAP1 POP SWAP2 SWAP1 POP JUMP JUMPDEST PUSH1 0x0 PUSH1 0xFF DUP3 AND SWAP1 POP SWAP2 SWAP1 POP JUMP JUMPDEST PUSH1 0x0 PUSH2 0xCB4 DUP3 PUSH2 0xCBB JUMP JUMPDEST SWAP1 POP SWAP2 SWAP1 POP JUMP JUMPDEST PUSH1 0x0 PUSH2 0xCC6 DUP3 PUSH2 0xCCD JUMP JUMPDEST SWAP1 POP SWAP2 SWAP1 POP JUMP JUMPDEST PUSH1 0x0 PUSH2 0xCD8 DUP3 PUSH2 0xC72 JUMP JUMPDEST SWAP1 POP SWAP2 SWAP1 POP JUMP JUMPDEST DUP3 DUP2 DUP4 CALLDATACOPY PUSH1 0x0 DUP4 DUP4 ADD MSTORE POP POP POP JUMP JUMPDEST PUSH1 0x0 JUMPDEST DUP4 DUP2 LT ISZERO PUSH2 0xD0C JUMPI DUP1 DUP3 ADD MLOAD DUP2 DUP5 ADD MSTORE PUSH1 0x20 DUP2 ADD SWAP1 POP PUSH2 0xCF1 JUMP JUMPDEST DUP4 DUP2 GT ISZERO PUSH2 0xD1B JUMPI PUSH1 0x0 DUP5 DUP5 ADD MSTORE JUMPDEST POP POP POP POP JUMP JUMPDEST PUSH1 0x0 PUSH2 0xD2C DUP3 PUSH2 0xD3D JUMP JUMPDEST SWAP1 POP SWAP2 SWAP1 POP JUMP JUMPDEST PUSH1 0x0 DUP2 SWAP1 POP SWAP2 SWAP1 POP JUMP JUMPDEST PUSH1 0x0 PUSH2 0xD48 DUP3 PUSH2 0xD62 JUMP JUMPDEST SWAP1 POP SWAP2 SWAP1 POP JUMP JUMPDEST INVALID JUMPDEST PUSH1 0x0 PUSH1 0x1F NOT PUSH1 0x1F DUP4 ADD AND SWAP1 POP SWAP2 SWAP1 POP JUMP JUMPDEST PUSH1 0x0 DUP2 PUSH1 0x60 SHL SWAP1 POP SWAP2 SWAP1 POP JUMP JUMPDEST PUSH2 0xD78 DUP2 PUSH2 0xC56 JUMP JUMPDEST DUP2 EQ PUSH2 0xD83 JUMPI PUSH1 0x0 DUP1 REVERT JUMPDEST POP JUMP JUMPDEST PUSH2 0xD8F DUP2 PUSH2 0xC68 JUMP JUMPDEST DUP2 EQ PUSH2 0xD9A JUMPI PUSH1 0x0 DUP1 REVERT JUMPDEST POP JUMP JUMPDEST PUSH2 0xDA6 DUP2 PUSH2 0xC9C JUMP JUMPDEST DUP2 EQ PUSH2 0xDB1 JUMPI PUSH1 0x0 DUP1 REVERT JUMPDEST POP JUMP INVALID 0x4D PUSH6 0x74615472616E PUSH20 0x616374696F6E2875696E74323536206E6F6E6365 0x2C PUSH2 0x6464 PUSH19 0x6573732066726F6D2C62797465732066756E63 PUSH21 0x696F6E5369676E617475726529A264697066735822 SLT KECCAK256 0xC5 BLOCKHASH 0xDC EQ 0xD7 0xD PUSH10 0x5AE998B75D48055BC315 0xA7 SELFDESTRUCT 0xDA PUSH11 0xFE9BA6FEC1E8BC9736B21B PUSH5 0x736F6C6343 STOP SMOD MOD STOP CALLER "
				},
				"gasEstimates": {
					"creation": {
						"codeDepositCost": "725800",
						"executionCost": "760",
						"totalCost": "726560"
					},
					"external": {
						"domainSeparator()": "1173",
						"executeMetaTransaction(address,bytes,bytes32,bytes32,uint8)": "infinite",
						"getChainId()": "371",
						"getNonce(address)": "1541"
					},
					"internal": {
						"hashMetaTransaction(struct NativeMetaTransaction.MetaTransaction memory)": "infinite",
						"verify(address,struct NativeMetaTransaction.MetaTransaction memory,bytes32,bytes32,uint8)": "infinite"
					}
				},
				"methodIdentifiers": {
					"domainSeparator()": "f698da25",
					"executeMetaTransaction(address,bytes,bytes32,bytes32,uint8)": "0c53c51c",
					"getChainId()": "3408e470",
					"getNonce(address)": "2d0335ab"
				}
			},
			"storageLayout": {
				"storage": [
					{
						"astId": 530,
						"contract": "contracts/Committee.sol:NativeMetaTransaction",
						"label": "domainSeparator",
						"offset": 0,
						"slot": "0",
						"type": "t_bytes32"
					},
					{
						"astId": 625,
						"contract": "contracts/Committee.sol:NativeMetaTransaction",
						"label": "nonces",
						"offset": 0,
						"slot": "1",
						"type": "t_mapping(t_address,t_uint256)"
					}
				],
				"types": {
					"t_address": {
						"encoding": "inplace",
						"label": "address",
						"numberOfBytes": "20"
					},
					"t_bytes32": {
						"encoding": "inplace",
						"label": "bytes32",
						"numberOfBytes": "32"
					},
					"t_mapping(t_address,t_uint256)": {
						"encoding": "mapping",
						"key": "t_address",
						"label": "mapping(address => uint256)",
						"numberOfBytes": "32",
						"value": "t_uint256"
					},
					"t_uint256": {
						"encoding": "inplace",
						"label": "uint256",
						"numberOfBytes": "32"
					}
				}
			},
			"userdoc": {
				"kind": "user",
				"methods": {},
				"version": 1
			}
		}
	}
}