{
	"wearables-contracts/full/Rarities.sol": {
		"Rarities": {
			"abi": [
				{
					"inputs": [
						{
							"internalType": "address",
							"name": "_owner",
							"type": "address"
						},
						{
							"components": [
								{
									"internalType": "string",
									"name": "name",
									"type": "string"
								},
								{
									"internalType": "uint256",
									"name": "maxSupply",
									"type": "uint256"
								},
								{
									"internalType": "uint256",
									"name": "price",
									"type": "uint256"
								}
							],
							"internalType": "struct Rarities.Rarity[]",
							"name": "_rarities",
							"type": "tuple[]"
						}
					],
					"stateMutability": "nonpayable",
					"type": "constructor"
				},
				{
					"anonymous": false,
					"inputs": [
						{
							"components": [
								{
									"internalType": "string",
									"name": "name",
									"type": "string"
								},
								{
									"internalType": "uint256",
									"name": "maxSupply",
									"type": "uint256"
								},
								{
									"internalType": "uint256",
									"name": "price",
									"type": "uint256"
								}
							],
							"indexed": false,
							"internalType": "struct Rarities.Rarity",
							"name": "_rarity",
							"type": "tuple"
						}
					],
					"name": "AddRarity",
					"type": "event"
				},
				{
					"anonymous": false,
					"inputs": [
						{
							"indexed": true,
							"internalType": "address",
							"name": "previousOwner",
							"type": "address"
						},
						{
							"indexed": true,
							"internalType": "address",
							"name": "newOwner",
							"type": "address"
						}
					],
					"name": "OwnershipTransferred",
					"type": "event"
				},
				{
					"anonymous": false,
					"inputs": [
						{
							"indexed": false,
							"internalType": "string",
							"name": "_name",
							"type": "string"
						},
						{
							"indexed": false,
							"internalType": "uint256",
							"name": "_price",
							"type": "uint256"
						}
					],
					"name": "UpdatePrice",
					"type": "event"
				},
				{
					"inputs": [
						{
							"components": [
								{
									"internalType": "string",
									"name": "name",
									"type": "string"
								},
								{
									"internalType": "uint256",
									"name": "maxSupply",
									"type": "uint256"
								},
								{
									"internalType": "uint256",
									"name": "price",
									"type": "uint256"
								}
							],
							"internalType": "struct Rarities.Rarity[]",
							"name": "_rarities",
							"type": "tuple[]"
						}
					],
					"name": "addRarities",
					"outputs": [],
					"stateMutability": "nonpayable",
					"type": "function"
				},
				{
					"inputs": [
						{
							"internalType": "string",
							"name": "_rarity",
							"type": "string"
						}
					],
					"name": "getRarityByName",
					"outputs": [
						{
							"components": [
								{
									"internalType": "string",
									"name": "name",
									"type": "string"
								},
								{
									"internalType": "uint256",
									"name": "maxSupply",
									"type": "uint256"
								},
								{
									"internalType": "uint256",
									"name": "price",
									"type": "uint256"
								}
							],
							"internalType": "struct Rarities.Rarity",
							"name": "",
							"type": "tuple"
						}
					],
					"stateMutability": "view",
					"type": "function"
				},
				{
					"inputs": [],
					"name": "owner",
					"outputs": [
						{
							"internalType": "address",
							"name": "",
							"type": "address"
						}
					],
					"stateMutability": "view",
					"type": "function"
				},
				{
					"inputs": [
						{
							"internalType": "uint256",
							"name": "",
							"type": "uint256"
						}
					],
					"name": "rarities",
					"outputs": [
						{
							"internalType": "string",
							"name": "name",
							"type": "string"
						},
						{
							"internalType": "uint256",
							"name": "maxSupply",
							"type": "uint256"
						},
						{
							"internalType": "uint256",
							"name": "price",
							"type": "uint256"
						}
					],
					"stateMutability": "view",
					"type": "function"
				},
				{
					"inputs": [],
					"name": "raritiesCount",
					"outputs": [
						{
							"internalType": "uint256",
							"name": "",
							"type": "uint256"
						}
					],
					"stateMutability": "view",
					"type": "function"
				},
				{
					"inputs": [],
					"name": "renounceOwnership",
					"outputs": [],
					"stateMutability": "nonpayable",
					"type": "function"
				},
				{
					"inputs": [
						{
							"internalType": "address",
							"name": "newOwner",
							"type": "address"
						}
					],
					"name": "transferOwnership",
					"outputs": [],
					"stateMutability": "nonpayable",
					"type": "function"
				},
				{
					"inputs": [
						{
							"internalType": "string[]",
							"name": "_names",
							"type": "string[]"
						},
						{
							"internalType": "uint256[]",
							"name": "_prices",
							"type": "uint256[]"
						}
					],
					"name": "updatePrices",
					"outputs": [],
					"stateMutability": "nonpayable",
					"type": "function"
				}
			],
			"devdoc": {
				"kind": "dev",
				"methods": {
					"constructor": {
						"params": {
							"_owner": "- owner of the contract"
						}
					},
					"getRarityByName(string)": {
						"details": "will revert if the rarity is out of bounds",
						"returns": {
							"_0": "rarity for the given index"
						}
					},
					"owner()": {
						"details": "Returns the address of the current owner."
					},
					"raritiesCount()": {
						"returns": {
							"_0": "Amount of items in the collection"
						}
					},
					"renounceOwnership()": {
						"details": "Leaves the contract without owner. It will not be possible to call `onlyOwner` functions anymore. Can only be called by the current owner. NOTE: Renouncing ownership will leave the contract without an owner, thereby removing any functionality that is only available to the owner."
					},
					"transferOwnership(address)": {
						"details": "Transfers ownership of the contract to a new account (`newOwner`). Can only be called by the current owner."
					}
				},
				"stateVariables": {
					"rarityIndex": {
						"details": "indexes will start in 1"
					}
				},
				"version": 1
			},
			"evm": {
				"assembly": "    /* \"wearables-contracts/full/Rarities.sol\":15482:18291  contract Rarities is OwnableInitializable {... */\n  mstore(0x40, 0x80)\n    /* \"wearables-contracts/full/Rarities.sol\":15956:16232  constructor(address _owner,  Rarity[] memory _rarities) {... */\n  callvalue\n  dup1\n  iszero\n  tag_1\n  jumpi\n  0x00\n  dup1\n  revert\ntag_1:\n  pop\n  mload(0x40)\n  sub(codesize, bytecodeSize)\n  dup1\n  bytecodeSize\n  dup4\n  codecopy\n  dup2\n  add\n  0x40\n  dup2\n  swap1\n  mstore\n  tag_2\n  swap2\n  tag_3\n  jump\t// in\ntag_2:\n    /* \"wearables-contracts/full/Rarities.sol\":16069:16083  _initOwnable() */\n  tag_6\n    /* \"wearables-contracts/full/Rarities.sol\":16069:16081  _initOwnable */\n  tag_7\n    /* \"wearables-contracts/full/Rarities.sol\":16069:16083  _initOwnable() */\n  jump\t// in\ntag_6:\n    /* \"wearables-contracts/full/Rarities.sol\":16093:16118  transferOwnership(_owner) */\n  tag_8\n    /* \"wearables-contracts/full/Rarities.sol\":16111:16117  _owner */\n  dup3\n    /* \"wearables-contracts/full/Rarities.sol\":16093:16110  transferOwnership */\n  tag_9\n    /* \"wearables-contracts/full/Rarities.sol\":16093:16118  transferOwnership(_owner) */\n  jump\t// in\ntag_8:\n    /* \"wearables-contracts/full/Rarities.sol\":16134:16143  uint256 i */\n  0x00\n    /* \"wearables-contracts/full/Rarities.sol\":16129:16226  for (uint256 i = 0 ; i < _rarities.length; i++) {... */\ntag_10:\n    /* \"wearables-contracts/full/Rarities.sol\":16154:16163  _rarities */\n  dup2\n    /* \"wearables-contracts/full/Rarities.sol\":16154:16170  _rarities.length */\n  mload\n    /* \"wearables-contracts/full/Rarities.sol\":16150:16151  i */\n  dup2\n    /* \"wearables-contracts/full/Rarities.sol\":16150:16170  i < _rarities.length */\n  lt\n    /* \"wearables-contracts/full/Rarities.sol\":16129:16226  for (uint256 i = 0 ; i < _rarities.length; i++) {... */\n  iszero\n  tag_11\n  jumpi\n    /* \"wearables-contracts/full/Rarities.sol\":16191:16215  _addRarity(_rarities[i]) */\n  tag_13\n    /* \"wearables-contracts/full/Rarities.sol\":16202:16211  _rarities */\n  dup3\n    /* \"wearables-contracts/full/Rarities.sol\":16212:16213  i */\n  dup3\n    /* \"wearables-contracts/full/Rarities.sol\":16202:16214  _rarities[i] */\n  dup2\n  mload\n  dup2\n  lt\n  tag_14\n  jumpi\n  invalid\ntag_14:\n  0x20\n  mul\n  0x20\n  add\n  add\n  mload\n    /* \"wearables-contracts/full/Rarities.sol\":16191:16201  _addRarity */\n  shl(0x20, tag_15)\n    /* \"wearables-contracts/full/Rarities.sol\":16191:16215  _addRarity(_rarities[i]) */\n  0x20\n  shr\n  jump\t// in\ntag_13:\n    /* \"wearables-contracts/full/Rarities.sol\":16172:16175  i++ */\n  0x01\n  add\n    /* \"wearables-contracts/full/Rarities.sol\":16129:16226  for (uint256 i = 0 ; i < _rarities.length; i++) {... */\n  jump(tag_10)\ntag_11:\n  pop\n    /* \"wearables-contracts/full/Rarities.sol\":15956:16232  constructor(address _owner,  Rarity[] memory _rarities) {... */\n  pop\n  pop\n    /* \"wearables-contracts/full/Rarities.sol\":15482:18291  contract Rarities is OwnableInitializable {... */\n  jump(tag_71)\n    /* \"wearables-contracts/full/Rarities.sol\":1948:2117  function _initOwnable () internal {... */\ntag_7:\n    /* \"wearables-contracts/full/Rarities.sol\":1992:2009  address msgSender */\n  0x00\n    /* \"wearables-contracts/full/Rarities.sol\":2012:2024  _msgSender() */\n  tag_18\n    /* \"wearables-contracts/full/Rarities.sol\":2012:2022  _msgSender */\n  tag_19\n    /* \"wearables-contracts/full/Rarities.sol\":2012:2024  _msgSender() */\n  jump\t// in\ntag_18:\n    /* \"wearables-contracts/full/Rarities.sol\":2034:2040  _owner */\n  0x00\n    /* \"wearables-contracts/full/Rarities.sol\":2034:2052  _owner = msgSender */\n  dup1\n  sload\n  not(sub(shl(0xa0, 0x01), 0x01))\n  and\n  sub(shl(0xa0, 0x01), 0x01)\n  dup4\n  and\n  swap1\n  dup2\n  or\n  dup3\n  sstore\n    /* \"wearables-contracts/full/Rarities.sol\":2067:2110  OwnershipTransferred(address(0), msgSender) */\n  mload(0x40)\n    /* \"wearables-contracts/full/Rarities.sol\":2034:2052  _owner = msgSender */\n  swap3\n  swap4\n  pop\n  swap2\n  0x00\n  dup1\n  mload\n  0x20\n  data_9c064737b570a74c2bac5d21056d93ac53115214216cd14d4a0fc9b60be81231\n  dup4\n  codecopy\n  dup2\n  mload\n  swap2\n  mstore\n    /* \"wearables-contracts/full/Rarities.sol\":2067:2110  OwnershipTransferred(address(0), msgSender) */\n  swap1\n    /* \"wearables-contracts/full/Rarities.sol\":2034:2040  _owner */\n  dup3\n  swap1\n    /* \"wearables-contracts/full/Rarities.sol\":2067:2110  OwnershipTransferred(address(0), msgSender) */\n  log3\n    /* \"wearables-contracts/full/Rarities.sol\":1948:2117  function _initOwnable () internal {... */\n  pop\n  jump\t// out\n    /* \"wearables-contracts/full/Rarities.sol\":3110:3350  function transferOwnership(address newOwner) public virtual onlyOwner {... */\ntag_9:\n    /* \"wearables-contracts/full/Rarities.sol\":2407:2419  _msgSender() */\n  tag_21\n    /* \"wearables-contracts/full/Rarities.sol\":2407:2417  _msgSender */\n  tag_19\n    /* \"wearables-contracts/full/Rarities.sol\":2407:2419  _msgSender() */\n  jump\t// in\ntag_21:\n    /* \"wearables-contracts/full/Rarities.sol\":2397:2403  _owner */\n  sload(0x00)\n  sub(shl(0xa0, 0x01), 0x01)\n  swap1\n  dup2\n  and\n    /* \"wearables-contracts/full/Rarities.sol\":2397:2419  _owner == _msgSender() */\n  swap2\n  and\n  eq\n    /* \"wearables-contracts/full/Rarities.sol\":2389:2456  require(_owner == _msgSender(), \"Ownable: caller is not the owner\") */\n  tag_22\n  jumpi\n  mload(0x40)\n  shl(0xe5, 0x461bcd)\n  dup2\n  mstore\n  0x04\n  add\n  tag_23\n  swap1\n  tag_24\n  jump\t// in\ntag_23:\n  mload(0x40)\n  dup1\n  swap2\n  sub\n  swap1\n  revert\ntag_22:\n  sub(shl(0xa0, 0x01), 0x01)\n    /* \"wearables-contracts/full/Rarities.sol\":3198:3220  newOwner != address(0) */\n  dup2\n  and\n    /* \"wearables-contracts/full/Rarities.sol\":3190:3263  require(newOwner != address(0), \"Ownable: new owner is the zero address\") */\n  tag_26\n  jumpi\n  mload(0x40)\n  shl(0xe5, 0x461bcd)\n  dup2\n  mstore\n  0x04\n  add\n  tag_23\n  swap1\n  tag_28\n  jump\t// in\ntag_26:\n    /* \"wearables-contracts/full/Rarities.sol\":3299:3305  _owner */\n  0x00\n  dup1\n  sload\n    /* \"wearables-contracts/full/Rarities.sol\":3278:3316  OwnershipTransferred(_owner, newOwner) */\n  mload(0x40)\n  sub(shl(0xa0, 0x01), 0x01)\n  dup1\n  dup6\n  and\n  swap4\n    /* \"wearables-contracts/full/Rarities.sol\":3299:3305  _owner */\n  swap3\n  and\n  swap2\n  0x00\n  dup1\n  mload\n  0x20\n  data_9c064737b570a74c2bac5d21056d93ac53115214216cd14d4a0fc9b60be81231\n  dup4\n  codecopy\n  dup2\n  mload\n  swap2\n  mstore\n    /* \"wearables-contracts/full/Rarities.sol\":3278:3316  OwnershipTransferred(_owner, newOwner) */\n  swap2\n  log3\n    /* \"wearables-contracts/full/Rarities.sol\":3326:3332  _owner */\n  0x00\n    /* \"wearables-contracts/full/Rarities.sol\":3326:3343  _owner = newOwner */\n  dup1\n  sload\n  not(sub(shl(0xa0, 0x01), 0x01))\n  and\n  sub(shl(0xa0, 0x01), 0x01)\n  swap3\n  swap1\n  swap3\n  and\n  swap2\n  swap1\n  swap2\n  or\n  swap1\n  sstore\n    /* \"wearables-contracts/full/Rarities.sol\":3110:3350  function transferOwnership(address newOwner) public virtual onlyOwner {... */\n  jump\t// out\n    /* \"wearables-contracts/full/Rarities.sol\":17077:17575  function _addRarity(Rarity memory _rarity) internal {... */\ntag_15:\n    /* \"wearables-contracts/full/Rarities.sol\":17168:17180  _rarity.name */\n  dup1\n  mload\n    /* \"wearables-contracts/full/Rarities.sol\":17162:17188  bytes(_rarity.name).length */\n  mload\n    /* \"wearables-contracts/full/Rarities.sol\":17206:17222  rarityLength > 0 */\n  dup1\n  iszero\n  dup1\n  iszero\n  swap1\n    /* \"wearables-contracts/full/Rarities.sol\":17206:17244  rarityLength > 0 && rarityLength <= 32 */\n  tag_30\n  jumpi\n  pop\n    /* \"wearables-contracts/full/Rarities.sol\":17242:17244  32 */\n  0x20\n    /* \"wearables-contracts/full/Rarities.sol\":17226:17238  rarityLength */\n  dup2\n    /* \"wearables-contracts/full/Rarities.sol\":17226:17244  rarityLength <= 32 */\n  gt\n  iszero\n    /* \"wearables-contracts/full/Rarities.sol\":17206:17244  rarityLength > 0 && rarityLength <= 32 */\ntag_30:\n    /* \"wearables-contracts/full/Rarities.sol\":17198:17284  require(rarityLength > 0 && rarityLength <= 32, \"Rarities#_addRarity: INVALID_LENGTH\") */\n  tag_31\n  jumpi\n  mload(0x40)\n  shl(0xe5, 0x461bcd)\n  dup2\n  mstore\n  0x04\n  add\n  tag_23\n  swap1\n  tag_33\n  jump\t// in\ntag_31:\n    /* \"wearables-contracts/full/Rarities.sol\":17295:17312  bytes32 rarityKey */\n  0x00\n    /* \"wearables-contracts/full/Rarities.sol\":17331:17357  _rarity.name.toLowerCase() */\n  tag_34\n    /* \"wearables-contracts/full/Rarities.sol\":17331:17338  _rarity */\n  dup4\n    /* \"wearables-contracts/full/Rarities.sol\":17331:17343  _rarity.name */\n  0x00\n  add\n  mload\n    /* \"wearables-contracts/full/Rarities.sol\":17331:17355  _rarity.name.toLowerCase */\n  or(tag_0_46, shl(0x20, tag_35))\n    /* \"wearables-contracts/full/Rarities.sol\":17331:17357  _rarity.name.toLowerCase() */\n  0x20\n  shr\n  jump\t// in\ntag_34:\n    /* \"wearables-contracts/full/Rarities.sol\":17315:17359  keccak256(bytes(_rarity.name.toLowerCase())) */\n  dup1\n  mload\n  0x20\n  swap2\n  dup3\n  add\n  keccak256\n    /* \"wearables-contracts/full/Rarities.sol\":17377:17399  rarityIndex[rarityKey] */\n  0x00\n  dup2\n  dup2\n  mstore\n    /* \"wearables-contracts/full/Rarities.sol\":17377:17388  rarityIndex */\n  0x02\n    /* \"wearables-contracts/full/Rarities.sol\":17377:17399  rarityIndex[rarityKey] */\n  swap1\n  swap3\n  mstore\n  0x40\n  swap1\n  swap2\n  keccak256\n  sload\n    /* \"wearables-contracts/full/Rarities.sol\":17315:17359  keccak256(bytes(_rarity.name.toLowerCase())) */\n  swap1\n  swap2\n  pop\n    /* \"wearables-contracts/full/Rarities.sol\":17377:17404  rarityIndex[rarityKey] == 0 */\n  iszero\n    /* \"wearables-contracts/full/Rarities.sol\":17369:17450  require(rarityIndex[rarityKey] == 0, \"Rarities#_addRarity: RARITY_ALREADY_ADDED\") */\n  tag_36\n  jumpi\n  mload(0x40)\n  shl(0xe5, 0x461bcd)\n  dup2\n  mstore\n  0x04\n  add\n  tag_23\n  swap1\n  tag_38\n  jump\t// in\ntag_36:\n    /* \"wearables-contracts/full/Rarities.sol\":17461:17469  rarities */\n  0x01\n    /* \"wearables-contracts/full/Rarities.sol\":17461:17483  rarities.push(_rarity) */\n  dup1\n  sload\n  dup1\n  dup3\n  add\n  dup3\n  sstore\n  0x00\n  swap2\n  swap1\n  swap2\n  mstore\n  dup4\n  mload\n  dup1\n  mload\n    /* \"wearables-contracts/full/Rarities.sol\":17475:17482  _rarity */\n  dup6\n  swap3\n    /* \"wearables-contracts/full/Rarities.sol\":17461:17483  rarities.push(_rarity) */\n  0x03\n  mul\n  0xb10e2d527612073b26eecdfd717e6a320cf44b4afac2b0732d9fcbe2b7fa0cf6\n  add\n  swap2\n  tag_40\n  swap2\n  dup4\n  swap2\n  0x20\n  add\n  swap1\n  tag_41\n  jump\t// in\ntag_40:\n  pop\n  0x20\n  dup3\n  dup2\n  add\n  mload\n  0x01\n  dup1\n  dup5\n  add\n  swap2\n  swap1\n  swap2\n  sstore\n  0x40\n  swap4\n  dup5\n  add\n  mload\n  0x02\n  swap4\n  dup5\n  add\n  sstore\n    /* \"wearables-contracts/full/Rarities.sol\":17519:17534  rarities.length */\n  sload\n  0x00\n    /* \"wearables-contracts/full/Rarities.sol\":17494:17516  rarityIndex[rarityKey] */\n  dup6\n  dup2\n  mstore\n  swap3\n  swap1\n  swap2\n  mstore\n  swap1\n  dup3\n  swap1\n  keccak256\n    /* \"wearables-contracts/full/Rarities.sol\":17494:17534  rarityIndex[rarityKey] = rarities.length */\n  sstore\n    /* \"wearables-contracts/full/Rarities.sol\":17550:17568  AddRarity(_rarity) */\n  mload\n  0xa1551daaa553ebc192df9198fc7d3d7e68b02a9be07fc92605cccd0d935d2c00\n  swap1\n  tag_42\n  swap1\n    /* \"wearables-contracts/full/Rarities.sol\":17560:17567  _rarity */\n  dup6\n  swap1\n    /* \"wearables-contracts/full/Rarities.sol\":17550:17568  AddRarity(_rarity) */\n  tag_43\n  jump\t// in\ntag_42:\n  mload(0x40)\n  dup1\n  swap2\n  sub\n  swap1\n  log1\n    /* \"wearables-contracts/full/Rarities.sol\":17077:17575  function _addRarity(Rarity memory _rarity) internal {... */\n  pop\n  pop\n  pop\n  jump\t// out\n    /* \"wearables-contracts/full/Rarities.sol\":453:1092  function _msgSender()... */\ntag_19:\n    /* \"wearables-contracts/full/Rarities.sol\":538:560  address payable sender */\n  0x00\n    /* \"wearables-contracts/full/Rarities.sol\":580:590  msg.sender */\n  caller\n    /* \"wearables-contracts/full/Rarities.sol\":602:606  this */\n  address\n    /* \"wearables-contracts/full/Rarities.sol\":580:607  msg.sender == address(this) */\n  eq\n    /* \"wearables-contracts/full/Rarities.sol\":576:1063  if (msg.sender == address(this)) {... */\n  iszero\n  tag_45\n  jumpi\n    /* \"wearables-contracts/full/Rarities.sol\":623:641  bytes memory array */\n  0x00\n    /* \"wearables-contracts/full/Rarities.sol\":644:652  msg.data */\n  dup1\n  calldatasize\n    /* \"wearables-contracts/full/Rarities.sol\":623:652  bytes memory array = msg.data */\n  dup1\n  dup1\n  0x1f\n  add\n  0x20\n  dup1\n  swap2\n  div\n  mul\n  0x20\n  add\n  mload(0x40)\n  swap1\n  dup2\n  add\n  0x40\n  mstore\n  dup1\n  swap4\n  swap3\n  swap2\n  swap1\n  dup2\n  dup2\n  mstore\n  0x20\n  add\n  dup4\n  dup4\n  dup1\n  dup3\n  dup5\n  calldatacopy\n  0x00\n  swap3\n  add\n  swap2\n  swap1\n  swap2\n  mstore\n  pop\n  pop\n  pop\n  pop\n    /* \"wearables-contracts/full/Rarities.sol\":682:690  msg.data */\n  calldatasize\n    /* \"wearables-contracts/full/Rarities.sol\":889:906  add(array, index) */\n  add\n    /* \"wearables-contracts/full/Rarities.sol\":883:907  mload(add(array, index)) */\n  mload\n  sub(shl(0xa0, 0x01), 0x01)\n    /* \"wearables-contracts/full/Rarities.sol\":858:989  and(... */\n  and\n  swap2\n  pop\n    /* \"wearables-contracts/full/Rarities.sol\":720:1003  {... */\n  tag_46\n  swap1\n  pop\n  jump\ntag_45:\n  pop\n    /* \"wearables-contracts/full/Rarities.sol\":1042:1052  msg.sender */\n  caller\n    /* \"wearables-contracts/full/Rarities.sol\":576:1063  if (msg.sender == address(this)) {... */\ntag_46:\n    /* \"wearables-contracts/full/Rarities.sol\":453:1092  function _msgSender()... */\n  swap1\n  jump\t// out\n    /* \"wearables-contracts/full/Rarities.sol\":14817:15371  function toLowerCase(string memory _str) internal pure returns (string memory) {... */\ntag_35:\n    /* \"wearables-contracts/full/Rarities.sol\":14881:14894  string memory */\n  0x60\n    /* \"wearables-contracts/full/Rarities.sol\":14906:14923  bytes memory bStr */\n  0x00\n    /* \"wearables-contracts/full/Rarities.sol\":14932:14936  _str */\n  dup3\n    /* \"wearables-contracts/full/Rarities.sol\":14906:14937  bytes memory bStr = bytes(_str) */\n  swap1\n  pop\n    /* \"wearables-contracts/full/Rarities.sol\":14947:14966  bytes memory bLower */\n  0x00\n    /* \"wearables-contracts/full/Rarities.sol\":14979:14983  bStr */\n  dup2\n    /* \"wearables-contracts/full/Rarities.sol\":14979:14990  bStr.length */\n  mload\n  sub(shl(0x40, 0x01), 0x01)\n    /* \"wearables-contracts/full/Rarities.sol\":14969:14991  new bytes(bStr.length) */\n  dup2\n  gt\n  dup1\n  iszero\n  tag_48\n  jumpi\n  0x00\n  dup1\n  revert\ntag_48:\n  pop\n  mload(0x40)\n  swap1\n  dup1\n  dup3\n  mstore\n  dup1\n  0x1f\n  add\n  not(0x1f)\n  and\n  0x20\n  add\n  dup3\n  add\n  0x40\n  mstore\n  dup1\n  iszero\n  tag_49\n  jumpi\n  0x20\n  dup3\n  add\n  dup2\n  dup1\n  calldatasize\n  dup4\n  calldatacopy\n  add\n  swap1\n  pop\ntag_49:\n  pop\n    /* \"wearables-contracts/full/Rarities.sol\":14947:14991  bytes memory bLower = new bytes(bStr.length) */\n  swap1\n  pop\n    /* \"wearables-contracts/full/Rarities.sol\":15007:15013  uint i */\n  0x00\n    /* \"wearables-contracts/full/Rarities.sol\":15002:15334  for (uint i = 0; i < bStr.length; i++) {... */\ntag_50:\n    /* \"wearables-contracts/full/Rarities.sol\":15023:15027  bStr */\n  dup3\n    /* \"wearables-contracts/full/Rarities.sol\":15023:15034  bStr.length */\n  mload\n    /* \"wearables-contracts/full/Rarities.sol\":15019:15020  i */\n  dup2\n    /* \"wearables-contracts/full/Rarities.sol\":15019:15034  i < bStr.length */\n  lt\n    /* \"wearables-contracts/full/Rarities.sol\":15002:15334  for (uint i = 0; i < bStr.length; i++) {... */\n  iszero\n  tag_51\n  jumpi\n    /* \"wearables-contracts/full/Rarities.sol\":15109:15113  0x41 */\n  0x41\n    /* \"wearables-contracts/full/Rarities.sol\":15098:15113  bStr[i] >= 0x41 */\n  0xf8\n  shl\n    /* \"wearables-contracts/full/Rarities.sol\":15098:15102  bStr */\n  dup4\n    /* \"wearables-contracts/full/Rarities.sol\":15103:15104  i */\n  dup3\n    /* \"wearables-contracts/full/Rarities.sol\":15098:15105  bStr[i] */\n  dup2\n  mload\n  dup2\n  lt\n  tag_53\n  jumpi\n  invalid\ntag_53:\n  add\n  0x20\n  add\n  mload\n  not(sub(shl(0xf8, 0x01), 0x01))\n  and\n    /* \"wearables-contracts/full/Rarities.sol\":15098:15113  bStr[i] >= 0x41 */\n  lt\n  dup1\n  iszero\n  swap1\n    /* \"wearables-contracts/full/Rarities.sol\":15097:15135  (bStr[i] >= 0x41) && (bStr[i] <= 0x5A) */\n  tag_54\n  jumpi\n  pop\n    /* \"wearables-contracts/full/Rarities.sol\":15130:15134  0x5A */\n  0x5a\n    /* \"wearables-contracts/full/Rarities.sol\":15119:15134  bStr[i] <= 0x5A */\n  0xf8\n  shl\n    /* \"wearables-contracts/full/Rarities.sol\":15119:15123  bStr */\n  dup4\n    /* \"wearables-contracts/full/Rarities.sol\":15124:15125  i */\n  dup3\n    /* \"wearables-contracts/full/Rarities.sol\":15119:15126  bStr[i] */\n  dup2\n  mload\n  dup2\n  lt\n  tag_55\n  jumpi\n  invalid\ntag_55:\n  add\n  0x20\n  add\n  mload\n  not(sub(shl(0xf8, 0x01), 0x01))\n  and\n    /* \"wearables-contracts/full/Rarities.sol\":15119:15134  bStr[i] <= 0x5A */\n  gt\n  iszero\n    /* \"wearables-contracts/full/Rarities.sol\":15097:15135  (bStr[i] >= 0x41) && (bStr[i] <= 0x5A) */\ntag_54:\n    /* \"wearables-contracts/full/Rarities.sol\":15093:15324  if ((bStr[i] >= 0x41) && (bStr[i] <= 0x5A)) {... */\n  iszero\n  tag_56\n  jumpi\n    /* \"wearables-contracts/full/Rarities.sol\":15235:15239  bStr */\n  dup3\n    /* \"wearables-contracts/full/Rarities.sol\":15240:15241  i */\n  dup2\n    /* \"wearables-contracts/full/Rarities.sol\":15235:15242  bStr[i] */\n  dup2\n  mload\n  dup2\n  lt\n  tag_57\n  jumpi\n  invalid\ntag_57:\n  0x20\n  add\n  add\n  mload\n  0xf8\n  shr\n  0xf8\n  shl\n    /* \"wearables-contracts/full/Rarities.sol\":15229:15243  uint8(bStr[i]) */\n  0xf8\n  shr\n    /* \"wearables-contracts/full/Rarities.sol\":15246:15250  0x20 */\n  0x20\n    /* \"wearables-contracts/full/Rarities.sol\":15229:15250  uint8(bStr[i]) + 0x20 */\n  add\n    /* \"wearables-contracts/full/Rarities.sol\":15222:15251  bytes1(uint8(bStr[i]) + 0x20) */\n  0xf8\n  shl\n    /* \"wearables-contracts/full/Rarities.sol\":15210:15216  bLower */\n  dup3\n    /* \"wearables-contracts/full/Rarities.sol\":15217:15218  i */\n  dup3\n    /* \"wearables-contracts/full/Rarities.sol\":15210:15219  bLower[i] */\n  dup2\n  mload\n  dup2\n  lt\n  tag_58\n  jumpi\n  invalid\ntag_58:\n  0x20\n  add\n  add\n    /* \"wearables-contracts/full/Rarities.sol\":15210:15251  bLower[i] = bytes1(uint8(bStr[i]) + 0x20) */\n  swap1\n  not(sub(shl(0xf8, 0x01), 0x01))\n  and\n  swap1\n  dup2\n  0x00\n  byte\n  swap1\n  mstore8\n  pop\n    /* \"wearables-contracts/full/Rarities.sol\":15093:15324  if ((bStr[i] >= 0x41) && (bStr[i] <= 0x5A)) {... */\n  jump(tag_59)\ntag_56:\n    /* \"wearables-contracts/full/Rarities.sol\":15302:15306  bStr */\n  dup3\n    /* \"wearables-contracts/full/Rarities.sol\":15307:15308  i */\n  dup2\n    /* \"wearables-contracts/full/Rarities.sol\":15302:15309  bStr[i] */\n  dup2\n  mload\n  dup2\n  lt\n  tag_60\n  jumpi\n  invalid\ntag_60:\n  0x20\n  add\n  add\n  mload\n  0xf8\n  shr\n  0xf8\n  shl\n    /* \"wearables-contracts/full/Rarities.sol\":15290:15296  bLower */\n  dup3\n    /* \"wearables-contracts/full/Rarities.sol\":15297:15298  i */\n  dup3\n    /* \"wearables-contracts/full/Rarities.sol\":15290:15299  bLower[i] */\n  dup2\n  mload\n  dup2\n  lt\n  tag_61\n  jumpi\n  invalid\ntag_61:\n  0x20\n  add\n  add\n    /* \"wearables-contracts/full/Rarities.sol\":15290:15309  bLower[i] = bStr[i] */\n  swap1\n  not(sub(shl(0xf8, 0x01), 0x01))\n  and\n  swap1\n  dup2\n  0x00\n  byte\n  swap1\n  mstore8\n  pop\n    /* \"wearables-contracts/full/Rarities.sol\":15093:15324  if ((bStr[i] >= 0x41) && (bStr[i] <= 0x5A)) {... */\ntag_59:\n    /* \"wearables-contracts/full/Rarities.sol\":15036:15039  i++ */\n  0x01\n  add\n    /* \"wearables-contracts/full/Rarities.sol\":15002:15334  for (uint i = 0; i < bStr.length; i++) {... */\n  jump(tag_50)\ntag_51:\n  pop\n    /* \"wearables-contracts/full/Rarities.sol\":15357:15363  bLower */\n  swap4\n    /* \"wearables-contracts/full/Rarities.sol\":14817:15371  function toLowerCase(string memory _str) internal pure returns (string memory) {... */\n  swap3\n  pop\n  pop\n  pop\n  jump\t// out\n    /* \"wearables-contracts/full/Rarities.sol\":15482:18291  contract Rarities is OwnableInitializable {... */\ntag_41:\n  dup3\n  dup1\n  sload\n  0x01\n  dup2\n  0x01\n  and\n  iszero\n  0x0100\n  mul\n  sub\n  and\n  0x02\n  swap1\n  div\n  swap1\n  0x00\n  mstore\n  keccak256(0x00, 0x20)\n  swap1\n  0x1f\n  add\n  0x20\n  swap1\n  div\n  dup2\n  add\n  swap3\n  dup3\n  tag_63\n  jumpi\n  0x00\n  dup6\n  sstore\n  jump(tag_66)\ntag_63:\n  dup3\n  0x1f\n  lt\n  tag_64\n  jumpi\n  dup1\n  mload\n  not(0xff)\n  and\n  dup4\n  dup1\n  add\n  or\n  dup6\n  sstore\n  jump(tag_66)\ntag_64:\n  dup3\n  dup1\n  add\n  0x01\n  add\n  dup6\n  sstore\n  dup3\n  iszero\n  tag_66\n  jumpi\n  swap2\n  dup3\n  add\ntag_65:\n  dup3\n  dup2\n  gt\n  iszero\n  tag_66\n  jumpi\n  dup3\n  mload\n  dup3\n  sstore\n  swap2\n  0x20\n  add\n  swap2\n  swap1\n  0x01\n  add\n  swap1\n  jump(tag_65)\ntag_66:\n  pop\n  tag_67\n  swap3\n  swap2\n  pop\n  tag_68\n  jump\t// in\ntag_67:\n  pop\n  swap1\n  jump\t// out\ntag_68:\ntag_69:\n  dup1\n  dup3\n  gt\n  iszero\n  tag_67\n  jumpi\n  0x00\n  dup2\n  sstore\n  0x01\n  add\n  jump(tag_69)\n    /* \"#utility.yul\":14:2105   */\ntag_3:\n  0x00\n  dup1\n    /* \"#utility.yul\":203:205   */\n  0x40\n    /* \"#utility.yul\":191:200   */\n  dup4\n    /* \"#utility.yul\":182:189   */\n  dup6\n    /* \"#utility.yul\":178:201   */\n  sub\n    /* \"#utility.yul\":174:206   */\n  slt\n    /* \"#utility.yul\":171:173   */\n  iszero\n  tag_73\n  jumpi\n    /* \"#utility.yul\":224:230   */\n  dup2\n    /* \"#utility.yul\":216:222   */\n  dup3\n    /* \"#utility.yul\":209:231   */\n  revert\n    /* \"#utility.yul\":171:173   */\ntag_73:\n    /* \"#utility.yul\":255:271   */\n  dup3\n  mload\n  sub(shl(0xa0, 0x01), 0x01)\n    /* \"#utility.yul\":300:331   */\n  dup2\n  and\n    /* \"#utility.yul\":290:332   */\n  dup2\n  eq\n    /* \"#utility.yul\":280:282   */\n  tag_74\n  jumpi\n    /* \"#utility.yul\":351:357   */\n  dup3\n    /* \"#utility.yul\":343:349   */\n  dup4\n    /* \"#utility.yul\":336:358   */\n  revert\n    /* \"#utility.yul\":280:282   */\ntag_74:\n    /* \"#utility.yul\":428:430   */\n  0x20\n    /* \"#utility.yul\":413:431   */\n  dup5\n  add\n    /* \"#utility.yul\":407:432   */\n  mload\n    /* \"#utility.yul\":379:384   */\n  swap1\n  swap3\n  pop\n  sub(shl(0x40, 0x01), 0x01)\n    /* \"#utility.yul\":481:495   */\n  dup1\n  dup3\n  gt\n    /* \"#utility.yul\":478:480   */\n  iszero\n  tag_75\n  jumpi\n    /* \"#utility.yul\":513:519   */\n  dup3\n    /* \"#utility.yul\":505:511   */\n  dup4\n    /* \"#utility.yul\":498:520   */\n  revert\n    /* \"#utility.yul\":478:480   */\ntag_75:\n    /* \"#utility.yul\":556:562   */\n  dup2\n    /* \"#utility.yul\":545:554   */\n  dup6\n    /* \"#utility.yul\":541:563   */\n  add\n    /* \"#utility.yul\":531:563   */\n  swap2\n  pop\n    /* \"#utility.yul\":601:608   */\n  dup6\n    /* \"#utility.yul\":594:598   */\n  0x1f\n    /* \"#utility.yul\":590:592   */\n  dup4\n    /* \"#utility.yul\":586:599   */\n  add\n    /* \"#utility.yul\":582:609   */\n  slt\n    /* \"#utility.yul\":572:574   */\n  tag_76\n  jumpi\n    /* \"#utility.yul\":628:634   */\n  dup3\n    /* \"#utility.yul\":620:626   */\n  dup4\n    /* \"#utility.yul\":613:635   */\n  revert\n    /* \"#utility.yul\":572:574   */\ntag_76:\n    /* \"#utility.yul\":662:664   */\n  dup2\n    /* \"#utility.yul\":656:665   */\n  mload\n    /* \"#utility.yul\":684:686   */\n  dup2\n    /* \"#utility.yul\":680:682   */\n  dup2\n    /* \"#utility.yul\":677:687   */\n  gt\n    /* \"#utility.yul\":674:676   */\n  iszero\n  tag_77\n  jumpi\n    /* \"#utility.yul\":690:699   */\n  invalid\n    /* \"#utility.yul\":674:676   */\ntag_77:\n    /* \"#utility.yul\":721:757   */\n  tag_78\n    /* \"#utility.yul\":753:755   */\n  0x20\n    /* \"#utility.yul\":748:750   */\n  dup1\n    /* \"#utility.yul\":744:746   */\n  dup4\n    /* \"#utility.yul\":740:751   */\n  mul\n    /* \"#utility.yul\":736:756   */\n  add\n    /* \"#utility.yul\":721:757   */\n  tag_79\n  jump\t// in\ntag_78:\n    /* \"#utility.yul\":791:806   */\n  dup2\n  dup2\n  mstore\n    /* \"#utility.yul\":831:833   */\n  0x20\n    /* \"#utility.yul\":822:834   */\n  dup1\n  dup3\n  add\n  swap2\n    /* \"#utility.yul\":779:782   */\n  swap1\n    /* \"#utility.yul\":854:865   */\n  dup6\n  add\n    /* \"#utility.yul\":883:889   */\n  dup7\n    /* \"#utility.yul\":898:2075   */\ntag_80:\n    /* \"#utility.yul\":912:914   */\n  dup5\n    /* \"#utility.yul\":909:910   */\n  dup2\n    /* \"#utility.yul\":906:915   */\n  lt\n    /* \"#utility.yul\":898:2075   */\n  iszero\n  tag_82\n  jumpi\n    /* \"#utility.yul\":975:985   */\n  dup2\n  mload\n    /* \"#utility.yul\":967:986   */\n  dup8\n  add\n  not(0x1f)\n    /* \"#utility.yul\":1063:1067   */\n  0x60\n    /* \"#utility.yul\":1040:1056   */\n  dup3\n  dup15\n  sub\n    /* \"#utility.yul\":1036:1061   */\n  dup3\n  add\n    /* \"#utility.yul\":1032:1068   */\n  slt\n    /* \"#utility.yul\":1029:1031   */\n  iszero\n  tag_83\n  jumpi\n    /* \"#utility.yul\":1086:1092   */\n  dup10\n    /* \"#utility.yul\":1078:1084   */\n  dup11\n    /* \"#utility.yul\":1071:1093   */\n  revert\n    /* \"#utility.yul\":1029:1031   */\ntag_83:\n    /* \"#utility.yul\":1128:1130   */\n  0x40\n    /* \"#utility.yul\":1122:1131   */\n  mload\n    /* \"#utility.yul\":1199:1205   */\n  dup1\n    /* \"#utility.yul\":1192:1196   */\n  0x60\n    /* \"#utility.yul\":1184:1190   */\n  dup3\n    /* \"#utility.yul\":1180:1197   */\n  add\n    /* \"#utility.yul\":1177:1206   */\n  lt\n    /* \"#utility.yul\":1172:1174   */\n  dup10\n    /* \"#utility.yul\":1165:1169   */\n  0x60\n    /* \"#utility.yul\":1157:1163   */\n  dup4\n    /* \"#utility.yul\":1153:1170   */\n  add\n    /* \"#utility.yul\":1150:1175   */\n  gt\n    /* \"#utility.yul\":1147:1207   */\n  or\n    /* \"#utility.yul\":1144:1146   */\n  iszero\n  tag_84\n  jumpi\n    /* \"#utility.yul\":1210:1219   */\n  invalid\n    /* \"#utility.yul\":1144:1146   */\ntag_84:\n    /* \"#utility.yul\":1257:1261   */\n  0x60\n    /* \"#utility.yul\":1249:1255   */\n  dup2\n    /* \"#utility.yul\":1245:1262   */\n  add\n    /* \"#utility.yul\":1241:1243   */\n  0x40\n    /* \"#utility.yul\":1234:1263   */\n  mstore\n    /* \"#utility.yul\":1306:1308   */\n  0x20\n    /* \"#utility.yul\":1302:1304   */\n  dup4\n    /* \"#utility.yul\":1298:1309   */\n  add\n    /* \"#utility.yul\":1292:1310   */\n  mload\n    /* \"#utility.yul\":1339:1341   */\n  dup10\n    /* \"#utility.yul\":1329:1337   */\n  dup2\n    /* \"#utility.yul\":1326:1342   */\n  gt\n    /* \"#utility.yul\":1323:1325   */\n  iszero\n  tag_85\n  jumpi\n    /* \"#utility.yul\":1360:1366   */\n  dup12\n    /* \"#utility.yul\":1352:1358   */\n  dup13\n    /* \"#utility.yul\":1345:1367   */\n  revert\n    /* \"#utility.yul\":1323:1325   */\ntag_85:\n    /* \"#utility.yul\":1392:1409   */\n  dup4\n  add\n    /* \"#utility.yul\":1444:1446   */\n  0x3f\n    /* \"#utility.yul\":1436:1447   */\n  dup2\n  add\n    /* \"#utility.yul\":1432:1457   */\n  dup16\n  sgt\n    /* \"#utility.yul\":1422:1424   */\n  tag_86\n  jumpi\n    /* \"#utility.yul\":1476:1482   */\n  dup12\n    /* \"#utility.yul\":1468:1474   */\n  dup13\n    /* \"#utility.yul\":1461:1483   */\n  revert\n    /* \"#utility.yul\":1422:1424   */\ntag_86:\n    /* \"#utility.yul\":1522:1524   */\n  0x20\n    /* \"#utility.yul\":1518:1520   */\n  dup2\n    /* \"#utility.yul\":1514:1525   */\n  add\n    /* \"#utility.yul\":1508:1526   */\n  mload\n    /* \"#utility.yul\":1549:1551   */\n  dup11\n    /* \"#utility.yul\":1545:1547   */\n  dup2\n    /* \"#utility.yul\":1542:1552   */\n  gt\n    /* \"#utility.yul\":1539:1541   */\n  iszero\n  tag_87\n  jumpi\n    /* \"#utility.yul\":1555:1564   */\n  invalid\n    /* \"#utility.yul\":1539:1541   */\ntag_87:\n    /* \"#utility.yul\":1592:1639   */\n  tag_88\n    /* \"#utility.yul\":1635:1637   */\n  0x20\n    /* \"#utility.yul\":1630:1632   */\n  dup6\n    /* \"#utility.yul\":1623:1627   */\n  0x1f\n    /* \"#utility.yul\":1619:1621   */\n  dup5\n    /* \"#utility.yul\":1615:1628   */\n  add\n    /* \"#utility.yul\":1611:1633   */\n  and\n    /* \"#utility.yul\":1607:1638   */\n  add\n    /* \"#utility.yul\":1592:1639   */\n  tag_79\n  jump\t// in\ntag_88:\n    /* \"#utility.yul\":1579:1639   */\n  swap4\n  pop\n    /* \"#utility.yul\":1666:1668   */\n  dup1\n    /* \"#utility.yul\":1659:1664   */\n  dup5\n    /* \"#utility.yul\":1652:1669   */\n  mstore\n    /* \"#utility.yul\":1719:1726   */\n  dup16\n    /* \"#utility.yul\":1714:1716   */\n  0x20\n    /* \"#utility.yul\":1709:1711   */\n  dup1\n    /* \"#utility.yul\":1704:1706   */\n  dup4\n    /* \"#utility.yul\":1700:1702   */\n  dup6\n    /* \"#utility.yul\":1696:1707   */\n  add\n    /* \"#utility.yul\":1692:1712   */\n  add\n    /* \"#utility.yul\":1688:1717   */\n  add\n    /* \"#utility.yul\":1685:1727   */\n  gt\n    /* \"#utility.yul\":1682:1684   */\n  iszero\n  tag_89\n  jumpi\n    /* \"#utility.yul\":1745:1751   */\n  dup13\n    /* \"#utility.yul\":1737:1743   */\n  dup14\n    /* \"#utility.yul\":1730:1752   */\n  revert\n    /* \"#utility.yul\":1682:1684   */\ntag_89:\n    /* \"#utility.yul\":1767:1821   */\n  tag_90\n    /* \"#utility.yul\":1818:1820   */\n  dup2\n    /* \"#utility.yul\":1813:1815   */\n  0x20\n    /* \"#utility.yul\":1806:1811   */\n  dup7\n    /* \"#utility.yul\":1802:1816   */\n  add\n    /* \"#utility.yul\":1797:1799   */\n  0x40\n    /* \"#utility.yul\":1793:1795   */\n  dup6\n    /* \"#utility.yul\":1789:1800   */\n  add\n    /* \"#utility.yul\":1767:1821   */\n  tag_91\n  jump\t// in\ntag_90:\n  pop\n  pop\n    /* \"#utility.yul\":1834:1855   */\n  swap1\n  dup2\n  mstore\n    /* \"#utility.yul\":1906:1908   */\n  0x40\n    /* \"#utility.yul\":1898:1909   */\n  dup3\n  dup2\n  add\n    /* \"#utility.yul\":1892:1910   */\n  mload\n    /* \"#utility.yul\":1887:1889   */\n  0x20\n    /* \"#utility.yul\":1875:1890   */\n  dup1\n  dup5\n  add\n    /* \"#utility.yul\":1868:1911   */\n  swap2\n  swap1\n  swap2\n  mstore\n    /* \"#utility.yul\":1962:1966   */\n  0x60\n    /* \"#utility.yul\":1954:1967   */\n  swap1\n  swap4\n  add\n    /* \"#utility.yul\":1948:1968   */\n  mload\n    /* \"#utility.yul\":1931:1946   */\n  swap1\n  dup3\n  add\n    /* \"#utility.yul\":1924:1969   */\n  mstore\n    /* \"#utility.yul\":1982:2001   */\n  dup6\n  mstore\n    /* \"#utility.yul\":2021:2033   */\n  swap4\n  dup5\n  add\n  swap4\n    /* \"#utility.yul\":2053:2065   */\n  swap2\n  swap1\n  swap2\n  add\n  swap1\n    /* \"#utility.yul\":930:931   */\n  0x01\n    /* \"#utility.yul\":923:932   */\n  add\n    /* \"#utility.yul\":898:2075   */\n  jump(tag_80)\ntag_82:\n  pop\n    /* \"#utility.yul\":161:2105   */\n  swap7\n  swap10\n    /* \"#utility.yul\":2094:2099   */\n  swap1\n  swap9\n  pop\n    /* \"#utility.yul\":161:2105   */\n  swap7\n  pop\n  pop\n  pop\n  pop\n  pop\n  pop\n  pop\n  jump\t// out\n    /* \"#utility.yul\":2110:2512   */\ntag_28:\n    /* \"#utility.yul\":2312:2314   */\n  0x20\n    /* \"#utility.yul\":2294:2315   */\n  dup1\n  dup3\n  mstore\n    /* \"#utility.yul\":2351:2353   */\n  0x26\n    /* \"#utility.yul\":2331:2349   */\n  swap1\n  dup3\n  add\n    /* \"#utility.yul\":2324:2354   */\n  mstore\n    /* \"#utility.yul\":2390:2424   */\n  0x4f776e61626c653a206e6577206f776e657220697320746865207a65726f2061\n    /* \"#utility.yul\":2385:2387   */\n  0x40\n    /* \"#utility.yul\":2370:2388   */\n  dup3\n  add\n    /* \"#utility.yul\":2363:2425   */\n  mstore\n  shl(0xd0, 0x646472657373)\n    /* \"#utility.yul\":2456:2458   */\n  0x60\n    /* \"#utility.yul\":2441:2459   */\n  dup3\n  add\n    /* \"#utility.yul\":2434:2470   */\n  mstore\n    /* \"#utility.yul\":2502:2505   */\n  0x80\n    /* \"#utility.yul\":2487:2506   */\n  add\n  swap1\n    /* \"#utility.yul\":2284:2512   */\n  jump\t// out\n    /* \"#utility.yul\":2517:2922   */\ntag_38:\n    /* \"#utility.yul\":2719:2721   */\n  0x20\n    /* \"#utility.yul\":2701:2722   */\n  dup1\n  dup3\n  mstore\n    /* \"#utility.yul\":2758:2760   */\n  0x29\n    /* \"#utility.yul\":2738:2756   */\n  swap1\n  dup3\n  add\n    /* \"#utility.yul\":2731:2761   */\n  mstore\n    /* \"#utility.yul\":2797:2831   */\n  0x5261726974696573235f6164645261726974793a205241524954595f414c5245\n    /* \"#utility.yul\":2792:2794   */\n  0x40\n    /* \"#utility.yul\":2777:2795   */\n  dup3\n  add\n    /* \"#utility.yul\":2770:2832   */\n  mstore\n  shl(0xba, 0x10511657d051111151)\n    /* \"#utility.yul\":2863:2865   */\n  0x60\n    /* \"#utility.yul\":2848:2866   */\n  dup3\n  add\n    /* \"#utility.yul\":2841:2880   */\n  mstore\n    /* \"#utility.yul\":2912:2915   */\n  0x80\n    /* \"#utility.yul\":2897:2916   */\n  add\n  swap1\n    /* \"#utility.yul\":2691:2922   */\n  jump\t// out\n    /* \"#utility.yul\":2927:3283   */\ntag_24:\n    /* \"#utility.yul\":3129:3131   */\n  0x20\n    /* \"#utility.yul\":3111:3132   */\n  dup1\n  dup3\n  mstore\n    /* \"#utility.yul\":3148:3166   */\n  dup2\n  dup2\n  add\n    /* \"#utility.yul\":3141:3171   */\n  mstore\n    /* \"#utility.yul\":3207:3241   */\n  0x4f776e61626c653a2063616c6c6572206973206e6f7420746865206f776e6572\n    /* \"#utility.yul\":3202:3204   */\n  0x40\n    /* \"#utility.yul\":3187:3205   */\n  dup3\n  add\n    /* \"#utility.yul\":3180:3242   */\n  mstore\n    /* \"#utility.yul\":3274:3276   */\n  0x60\n    /* \"#utility.yul\":3259:3277   */\n  add\n  swap1\n    /* \"#utility.yul\":3101:3283   */\n  jump\t// out\n    /* \"#utility.yul\":3288:3687   */\ntag_33:\n    /* \"#utility.yul\":3490:3492   */\n  0x20\n    /* \"#utility.yul\":3472:3493   */\n  dup1\n  dup3\n  mstore\n    /* \"#utility.yul\":3529:3531   */\n  0x23\n    /* \"#utility.yul\":3509:3527   */\n  swap1\n  dup3\n  add\n    /* \"#utility.yul\":3502:3532   */\n  mstore\n    /* \"#utility.yul\":3568:3602   */\n  0x5261726974696573235f6164645261726974793a20494e56414c49445f4c454e\n    /* \"#utility.yul\":3563:3565   */\n  0x40\n    /* \"#utility.yul\":3548:3566   */\n  dup3\n  add\n    /* \"#utility.yul\":3541:3603   */\n  mstore\n  shl(0xeb, 0x08ea89)\n    /* \"#utility.yul\":3634:3636   */\n  0x60\n    /* \"#utility.yul\":3619:3637   */\n  dup3\n  add\n    /* \"#utility.yul\":3612:3645   */\n  mstore\n    /* \"#utility.yul\":3677:3680   */\n  0x80\n    /* \"#utility.yul\":3662:3681   */\n  add\n  swap1\n    /* \"#utility.yul\":3462:3687   */\n  jump\t// out\n    /* \"#utility.yul\":3692:4321   */\ntag_43:\n  0x00\n    /* \"#utility.yul\":3869:3871   */\n  0x20\n    /* \"#utility.yul\":3858:3867   */\n  dup3\n    /* \"#utility.yul\":3851:3872   */\n  mstore\n    /* \"#utility.yul\":3907:3913   */\n  dup3\n    /* \"#utility.yul\":3901:3914   */\n  mload\n    /* \"#utility.yul\":3950:3954   */\n  0x60\n    /* \"#utility.yul\":3945:3947   */\n  0x20\n    /* \"#utility.yul\":3934:3943   */\n  dup5\n    /* \"#utility.yul\":3930:3948   */\n  add\n    /* \"#utility.yul\":3923:3955   */\n  mstore\n    /* \"#utility.yul\":3984:3996   */\n  dup1\n    /* \"#utility.yul\":3978:3997   */\n  mload\n    /* \"#utility.yul\":4034:4040   */\n  dup1\n    /* \"#utility.yul\":4028:4031   */\n  0x80\n    /* \"#utility.yul\":4017:4026   */\n  dup6\n    /* \"#utility.yul\":4013:4032   */\n  add\n    /* \"#utility.yul\":4006:4041   */\n  mstore\n    /* \"#utility.yul\":4050:4123   */\n  tag_97\n    /* \"#utility.yul\":4116:4122   */\n  dup2\n    /* \"#utility.yul\":4110:4113   */\n  0xa0\n    /* \"#utility.yul\":4099:4108   */\n  dup7\n    /* \"#utility.yul\":4095:4114   */\n  add\n    /* \"#utility.yul\":4090:4092   */\n  0x20\n    /* \"#utility.yul\":4076:4088   */\n  dup6\n    /* \"#utility.yul\":4072:4093   */\n  add\n    /* \"#utility.yul\":4050:4123   */\n  tag_91\n  jump\t// in\ntag_97:\n    /* \"#utility.yul\":4177:4179   */\n  0x20\n    /* \"#utility.yul\":4165:4180   */\n  dup6\n  add\n    /* \"#utility.yul\":4159:4181   */\n  mload\n    /* \"#utility.yul\":4154:4156   */\n  0x40\n    /* \"#utility.yul\":4139:4157   */\n  dup6\n  dup2\n  add\n    /* \"#utility.yul\":4132:4182   */\n  swap2\n  swap1\n  swap2\n  mstore\n    /* \"#utility.yul\":4226:4241   */\n  swap1\n  swap5\n  add\n    /* \"#utility.yul\":4220:4242   */\n  mload\n    /* \"#utility.yul\":4213:4217   */\n  0x60\n    /* \"#utility.yul\":4198:4218   */\n  dup5\n  add\n    /* \"#utility.yul\":4191:4243   */\n  mstore\n  pop\n  pop\n    /* \"#utility.yul\":4311:4314   */\n  0xa0\n    /* \"#utility.yul\":4304:4306   */\n  0x1f\n    /* \"#utility.yul\":4283:4298   */\n  swap1\n  swap3\n  add\n  not(0x1f)\n    /* \"#utility.yul\":4279:4308   */\n  and\n    /* \"#utility.yul\":4264:4309   */\n  add\n    /* \"#utility.yul\":4260:4315   */\n  add\n  swap1\n    /* \"#utility.yul\":3841:4321   */\n  jump\t// out\n    /* \"#utility.yul\":4326:4568   */\ntag_79:\n    /* \"#utility.yul\":4396:4398   */\n  0x40\n    /* \"#utility.yul\":4390:4399   */\n  mload\n    /* \"#utility.yul\":4426:4443   */\n  dup2\n  dup2\n  add\n  sub(shl(0x40, 0x01), 0x01)\n    /* \"#utility.yul\":4458:4492   */\n  dup2\n  gt\n    /* \"#utility.yul\":4494:4516   */\n  dup3\n  dup3\n  lt\n    /* \"#utility.yul\":4455:4517   */\n  or\n    /* \"#utility.yul\":4452:4454   */\n  iszero\n  tag_99\n  jumpi\n    /* \"#utility.yul\":4520:4529   */\n  invalid\n    /* \"#utility.yul\":4452:4454   */\ntag_99:\n    /* \"#utility.yul\":4547:4549   */\n  0x40\n    /* \"#utility.yul\":4540:4562   */\n  mstore\n    /* \"#utility.yul\":4370:4568   */\n  swap2\n  swap1\n  pop\n  jump\t// out\n    /* \"#utility.yul\":4573:4831   */\ntag_91:\n    /* \"#utility.yul\":4645:4646   */\n  0x00\n    /* \"#utility.yul\":4655:4768   */\ntag_101:\n    /* \"#utility.yul\":4669:4675   */\n  dup4\n    /* \"#utility.yul\":4666:4667   */\n  dup2\n    /* \"#utility.yul\":4663:4676   */\n  lt\n    /* \"#utility.yul\":4655:4768   */\n  iszero\n  tag_103\n  jumpi\n    /* \"#utility.yul\":4745:4756   */\n  dup2\n  dup2\n  add\n    /* \"#utility.yul\":4739:4757   */\n  mload\n    /* \"#utility.yul\":4726:4737   */\n  dup4\n  dup3\n  add\n    /* \"#utility.yul\":4719:4758   */\n  mstore\n    /* \"#utility.yul\":4691:4693   */\n  0x20\n    /* \"#utility.yul\":4684:4694   */\n  add\n    /* \"#utility.yul\":4655:4768   */\n  jump(tag_101)\ntag_103:\n    /* \"#utility.yul\":4786:4792   */\n  dup4\n    /* \"#utility.yul\":4783:4784   */\n  dup2\n    /* \"#utility.yul\":4780:4793   */\n  gt\n    /* \"#utility.yul\":4777:4779   */\n  iszero\n  tag_104\n  jumpi\n    /* \"#utility.yul\":4821:4822   */\n  0x00\n    /* \"#utility.yul\":4812:4818   */\n  dup5\n    /* \"#utility.yul\":4807:4810   */\n  dup5\n    /* \"#utility.yul\":4803:4819   */\n  add\n    /* \"#utility.yul\":4796:4823   */\n  mstore\n    /* \"#utility.yul\":4777:4779   */\ntag_104:\n  pop\n    /* \"#utility.yul\":4626:4831   */\n  pop\n  pop\n  pop\n  jump\t// out\ntag_71:\n    /* \"wearables-contracts/full/Rarities.sol\":15482:18291  contract Rarities is OwnableInitializable {... */\n  dataSize(sub_0)\n  dup1\n  dataOffset(sub_0)\n  0x00\n  codecopy\n  0x00\n  return\nstop\ndata_9c064737b570a74c2bac5d21056d93ac53115214216cd14d4a0fc9b60be81231 8be0079c531659141344cd1fd0a4f28419497f9722a3daafe3b4186f6b6457e0\n\nsub_0: assembly {\n        /* \"wearables-contracts/full/Rarities.sol\":15482:18291  contract Rarities is OwnableInitializable {... */\n      mstore(0x40, 0x80)\n      callvalue\n      dup1\n      iszero\n      tag_1\n      jumpi\n      0x00\n      dup1\n      revert\n    tag_1:\n      pop\n      jumpi(tag_2, lt(calldatasize, 0x04))\n      shr(0xe0, calldataload(0x00))\n      dup1\n      0x8da5cb5b\n      gt\n      tag_11\n      jumpi\n      dup1\n      0x8da5cb5b\n      eq\n      tag_7\n      jumpi\n      dup1\n      0xb5262333\n      eq\n      tag_8\n      jumpi\n      dup1\n      0xf2fde38b\n      eq\n      tag_9\n      jumpi\n      dup1\n      0xfa21cc7b\n      eq\n      tag_10\n      jumpi\n      jump(tag_2)\n    tag_11:\n      dup1\n      0x17b8e1cf\n      eq\n      tag_3\n      jumpi\n      dup1\n      0x5b26f8da\n      eq\n      tag_4\n      jumpi\n      dup1\n      0x715018a6\n      eq\n      tag_5\n      jumpi\n      dup1\n      0x89e9c4d3\n      eq\n      tag_6\n      jumpi\n    tag_2:\n      0x00\n      dup1\n      revert\n        /* \"wearables-contracts/full/Rarities.sol\":15658:15682  Rarity[] public rarities */\n    tag_3:\n      tag_12\n      tag_13\n      calldatasize\n      0x04\n      tag_14\n      jump\t// in\n    tag_13:\n      tag_15\n      jump\t// in\n    tag_12:\n      mload(0x40)\n      tag_16\n      swap4\n      swap3\n      swap2\n      swap1\n      tag_17\n      jump\t// in\n    tag_16:\n      mload(0x40)\n      dup1\n      swap2\n      sub\n      swap1\n      return\n        /* \"wearables-contracts/full/Rarities.sol\":16892:17071  function addRarities(Rarity[] memory _rarities) external onlyOwner {... */\n    tag_4:\n      tag_18\n      tag_19\n      calldatasize\n      0x04\n      tag_20\n      jump\t// in\n    tag_19:\n      tag_21\n      jump\t// in\n    tag_18:\n      stop\n        /* \"wearables-contracts/full/Rarities.sol\":2816:2961  function renounceOwnership() public virtual onlyOwner {... */\n    tag_5:\n      tag_18\n      tag_23\n      jump\t// in\n        /* \"wearables-contracts/full/Rarities.sol\":17706:17802  function raritiesCount() external view returns (uint256) {... */\n    tag_6:\n      tag_24\n      tag_25\n      jump\t// in\n    tag_24:\n      mload(0x40)\n      tag_16\n      swap2\n      swap1\n      tag_27\n      jump\t// in\n        /* \"wearables-contracts/full/Rarities.sol\":2193:2270  function owner() public view returns (address) {... */\n    tag_7:\n      tag_28\n      tag_29\n      jump\t// in\n    tag_28:\n      mload(0x40)\n      tag_16\n      swap2\n      swap1\n      tag_31\n      jump\t// in\n        /* \"wearables-contracts/full/Rarities.sol\":17953:18289  function getRarityByName(string memory _rarity) public view returns (Rarity memory) {... */\n    tag_8:\n      tag_32\n      tag_33\n      calldatasize\n      0x04\n      tag_34\n      jump\t// in\n    tag_33:\n      tag_35\n      jump\t// in\n    tag_32:\n      mload(0x40)\n      tag_16\n      swap2\n      swap1\n      tag_37\n      jump\t// in\n        /* \"wearables-contracts/full/Rarities.sol\":3110:3350  function transferOwnership(address newOwner) public virtual onlyOwner {... */\n    tag_9:\n      tag_18\n      tag_39\n      calldatasize\n      0x04\n      tag_40\n      jump\t// in\n    tag_39:\n      tag_41\n      jump\t// in\n        /* \"wearables-contracts/full/Rarities.sol\":16238:16886  function updatePrices(string[] calldata _names, uint256[] calldata _prices) external onlyOwner {... */\n    tag_10:\n      tag_18\n      tag_43\n      calldatasize\n      0x04\n      tag_44\n      jump\t// in\n    tag_43:\n      tag_45\n      jump\t// in\n        /* \"wearables-contracts/full/Rarities.sol\":15658:15682  Rarity[] public rarities */\n    tag_15:\n      0x01\n      dup2\n      dup2\n      sload\n      dup2\n      lt\n      tag_47\n      jumpi\n      0x00\n      dup1\n      revert\n    tag_47:\n      0x00\n      swap2\n      dup3\n      mstore\n      0x20\n      swap2\n      dup3\n      swap1\n      keccak256\n      0x03\n      swap2\n      swap1\n      swap2\n      mul\n      add\n      dup1\n      sload\n      0x40\n      dup1\n      mload\n      0x02\n      0x01\n      dup5\n      and\n      iszero\n      0x0100\n      mul\n      not(0x00)\n      add\n      swap1\n      swap4\n      and\n      swap3\n      swap1\n      swap3\n      div\n      0x1f\n      dup2\n      add\n      dup6\n      swap1\n      div\n      dup6\n      mul\n      dup4\n      add\n      dup6\n      add\n      swap1\n      swap2\n      mstore\n      dup1\n      dup3\n      mstore\n      swap2\n      swap4\n      pop\n      swap2\n      dup4\n      swap2\n      swap1\n      dup4\n      add\n      dup3\n      dup3\n      dup1\n      iszero\n      tag_49\n      jumpi\n      dup1\n      0x1f\n      lt\n      tag_50\n      jumpi\n      0x0100\n      dup1\n      dup4\n      sload\n      div\n      mul\n      dup4\n      mstore\n      swap2\n      0x20\n      add\n      swap2\n      jump(tag_49)\n    tag_50:\n      dup3\n      add\n      swap2\n      swap1\n      0x00\n      mstore\n      keccak256(0x00, 0x20)\n      swap1\n    tag_51:\n      dup2\n      sload\n      dup2\n      mstore\n      swap1\n      0x01\n      add\n      swap1\n      0x20\n      add\n      dup1\n      dup4\n      gt\n      tag_51\n      jumpi\n      dup3\n      swap1\n      sub\n      0x1f\n      and\n      dup3\n      add\n      swap2\n    tag_49:\n      pop\n      pop\n      pop\n      pop\n      pop\n      swap1\n      dup1\n      0x01\n      add\n      sload\n      swap1\n      dup1\n      0x02\n      add\n      sload\n      swap1\n      pop\n      dup4\n      jump\t// out\n        /* \"wearables-contracts/full/Rarities.sol\":16892:17071  function addRarities(Rarity[] memory _rarities) external onlyOwner {... */\n    tag_21:\n        /* \"wearables-contracts/full/Rarities.sol\":2407:2419  _msgSender() */\n      tag_53\n        /* \"wearables-contracts/full/Rarities.sol\":2407:2417  _msgSender */\n      tag_54\n        /* \"wearables-contracts/full/Rarities.sol\":2407:2419  _msgSender() */\n      jump\t// in\n    tag_53:\n        /* \"wearables-contracts/full/Rarities.sol\":2397:2403  _owner */\n      sload(0x00)\n      sub(shl(0xa0, 0x01), 0x01)\n      swap1\n      dup2\n      and\n        /* \"wearables-contracts/full/Rarities.sol\":2397:2419  _owner == _msgSender() */\n      swap2\n      and\n      eq\n        /* \"wearables-contracts/full/Rarities.sol\":2389:2456  require(_owner == _msgSender(), \"Ownable: caller is not the owner\") */\n      tag_55\n      jumpi\n      mload(0x40)\n      shl(0xe5, 0x461bcd)\n      dup2\n      mstore\n      0x04\n      add\n      tag_56\n      swap1\n      tag_57\n      jump\t// in\n    tag_56:\n      mload(0x40)\n      dup1\n      swap2\n      sub\n      swap1\n      revert\n    tag_55:\n        /* \"wearables-contracts/full/Rarities.sol\":16974:16983  uint256 i */\n      0x00\n        /* \"wearables-contracts/full/Rarities.sol\":16969:17065  for (uint256 i = 0; i < _rarities.length; i++) {... */\n    tag_59:\n        /* \"wearables-contracts/full/Rarities.sol\":16993:17002  _rarities */\n      dup2\n        /* \"wearables-contracts/full/Rarities.sol\":16993:17009  _rarities.length */\n      mload\n        /* \"wearables-contracts/full/Rarities.sol\":16989:16990  i */\n      dup2\n        /* \"wearables-contracts/full/Rarities.sol\":16989:17009  i < _rarities.length */\n      lt\n        /* \"wearables-contracts/full/Rarities.sol\":16969:17065  for (uint256 i = 0; i < _rarities.length; i++) {... */\n      iszero\n      tag_60\n      jumpi\n        /* \"wearables-contracts/full/Rarities.sol\":17030:17054  _addRarity(_rarities[i]) */\n      tag_62\n        /* \"wearables-contracts/full/Rarities.sol\":17041:17050  _rarities */\n      dup3\n        /* \"wearables-contracts/full/Rarities.sol\":17051:17052  i */\n      dup3\n        /* \"wearables-contracts/full/Rarities.sol\":17041:17053  _rarities[i] */\n      dup2\n      mload\n      dup2\n      lt\n      tag_63\n      jumpi\n      invalid\n    tag_63:\n      0x20\n      mul\n      0x20\n      add\n      add\n      mload\n        /* \"wearables-contracts/full/Rarities.sol\":17030:17040  _addRarity */\n      tag_64\n        /* \"wearables-contracts/full/Rarities.sol\":17030:17054  _addRarity(_rarities[i]) */\n      jump\t// in\n    tag_62:\n        /* \"wearables-contracts/full/Rarities.sol\":17011:17014  i++ */\n      0x01\n      add\n        /* \"wearables-contracts/full/Rarities.sol\":16969:17065  for (uint256 i = 0; i < _rarities.length; i++) {... */\n      jump(tag_59)\n    tag_60:\n      pop\n        /* \"wearables-contracts/full/Rarities.sol\":16892:17071  function addRarities(Rarity[] memory _rarities) external onlyOwner {... */\n      pop\n      jump\t// out\n        /* \"wearables-contracts/full/Rarities.sol\":2816:2961  function renounceOwnership() public virtual onlyOwner {... */\n    tag_23:\n        /* \"wearables-contracts/full/Rarities.sol\":2407:2419  _msgSender() */\n      tag_66\n        /* \"wearables-contracts/full/Rarities.sol\":2407:2417  _msgSender */\n      tag_54\n        /* \"wearables-contracts/full/Rarities.sol\":2407:2419  _msgSender() */\n      jump\t// in\n    tag_66:\n        /* \"wearables-contracts/full/Rarities.sol\":2397:2403  _owner */\n      sload(0x00)\n      sub(shl(0xa0, 0x01), 0x01)\n      swap1\n      dup2\n      and\n        /* \"wearables-contracts/full/Rarities.sol\":2397:2419  _owner == _msgSender() */\n      swap2\n      and\n      eq\n        /* \"wearables-contracts/full/Rarities.sol\":2389:2456  require(_owner == _msgSender(), \"Ownable: caller is not the owner\") */\n      tag_67\n      jumpi\n      mload(0x40)\n      shl(0xe5, 0x461bcd)\n      dup2\n      mstore\n      0x04\n      add\n      tag_56\n      swap1\n      tag_57\n      jump\t// in\n    tag_67:\n        /* \"wearables-contracts/full/Rarities.sol\":2922:2923  0 */\n      0x00\n        /* \"wearables-contracts/full/Rarities.sol\":2906:2912  _owner */\n      dup1\n      sload\n        /* \"wearables-contracts/full/Rarities.sol\":2885:2925  OwnershipTransferred(_owner, address(0)) */\n      mload(0x40)\n      sub(shl(0xa0, 0x01), 0x01)\n        /* \"wearables-contracts/full/Rarities.sol\":2906:2912  _owner */\n      swap1\n      swap2\n      and\n      swap1\n        /* \"wearables-contracts/full/Rarities.sol\":2885:2925  OwnershipTransferred(_owner, address(0)) */\n      0x8be0079c531659141344cd1fd0a4f28419497f9722a3daafe3b4186f6b6457e0\n      swap1\n        /* \"wearables-contracts/full/Rarities.sol\":2922:2923  0 */\n      dup4\n      swap1\n        /* \"wearables-contracts/full/Rarities.sol\":2885:2925  OwnershipTransferred(_owner, address(0)) */\n      log3\n        /* \"wearables-contracts/full/Rarities.sol\":2952:2953  0 */\n      0x00\n        /* \"wearables-contracts/full/Rarities.sol\":2935:2954  _owner = address(0) */\n      dup1\n      sload\n      not(sub(shl(0xa0, 0x01), 0x01))\n      and\n      swap1\n      sstore\n        /* \"wearables-contracts/full/Rarities.sol\":2816:2961  function renounceOwnership() public virtual onlyOwner {... */\n      jump\t// out\n        /* \"wearables-contracts/full/Rarities.sol\":17706:17802  function raritiesCount() external view returns (uint256) {... */\n    tag_25:\n        /* \"wearables-contracts/full/Rarities.sol\":17780:17788  rarities */\n      0x01\n        /* \"wearables-contracts/full/Rarities.sol\":17780:17795  rarities.length */\n      sload\n        /* \"wearables-contracts/full/Rarities.sol\":17706:17802  function raritiesCount() external view returns (uint256) {... */\n    tag_70:\n      swap1\n      jump\t// out\n        /* \"wearables-contracts/full/Rarities.sol\":2193:2270  function owner() public view returns (address) {... */\n    tag_29:\n        /* \"wearables-contracts/full/Rarities.sol\":2231:2238  address */\n      0x00\n        /* \"wearables-contracts/full/Rarities.sol\":2257:2263  _owner */\n      sload\n      sub(shl(0xa0, 0x01), 0x01)\n      and\n        /* \"wearables-contracts/full/Rarities.sol\":2193:2270  function owner() public view returns (address) {... */\n      swap1\n      jump\t// out\n        /* \"wearables-contracts/full/Rarities.sol\":17953:18289  function getRarityByName(string memory _rarity) public view returns (Rarity memory) {... */\n    tag_35:\n        /* \"wearables-contracts/full/Rarities.sol\":18022:18035  Rarity memory */\n      tag_72\n      tag_73\n      jump\t// in\n    tag_72:\n        /* \"wearables-contracts/full/Rarities.sol\":18047:18064  bytes32 rarityKey */\n      0x00\n        /* \"wearables-contracts/full/Rarities.sol\":18083:18104  _rarity.toLowerCase() */\n      tag_75\n        /* \"wearables-contracts/full/Rarities.sol\":18083:18090  _rarity */\n      dup4\n        /* \"wearables-contracts/full/Rarities.sol\":18083:18102  _rarity.toLowerCase */\n      tag_46\n        /* \"wearables-contracts/full/Rarities.sol\":18083:18104  _rarity.toLowerCase() */\n      jump\t// in\n    tag_75:\n        /* \"wearables-contracts/full/Rarities.sol\":18067:18106  keccak256(bytes(_rarity.toLowerCase())) */\n      dup1\n      mload\n      0x20\n      swap2\n      dup3\n      add\n      keccak256\n        /* \"wearables-contracts/full/Rarities.sol\":18117:18130  uint256 index */\n      0x00\n        /* \"wearables-contracts/full/Rarities.sol\":18133:18155  rarityIndex[rarityKey] */\n      dup2\n      dup2\n      mstore\n        /* \"wearables-contracts/full/Rarities.sol\":18133:18144  rarityIndex */\n      0x02\n        /* \"wearables-contracts/full/Rarities.sol\":18133:18155  rarityIndex[rarityKey] */\n      swap1\n      swap3\n      mstore\n      0x40\n      swap1\n      swap2\n      keccak256\n      sload\n        /* \"wearables-contracts/full/Rarities.sol\":18067:18106  keccak256(bytes(_rarity.toLowerCase())) */\n      swap1\n      swap2\n      pop\n        /* \"wearables-contracts/full/Rarities.sol\":18174:18200  rarityIndex[rarityKey] > 0 */\n      dup1\n        /* \"wearables-contracts/full/Rarities.sol\":18166:18245  require(rarityIndex[rarityKey] > 0, \"Rarities#getRarityByName: INVALID_RARITY\") */\n      tag_76\n      jumpi\n      mload(0x40)\n      shl(0xe5, 0x461bcd)\n      dup2\n      mstore\n      0x04\n      add\n      tag_56\n      swap1\n      tag_78\n      jump\t// in\n    tag_76:\n        /* \"wearables-contracts/full/Rarities.sol\":18263:18271  rarities */\n      0x01\n        /* \"wearables-contracts/full/Rarities.sol\":18280:18281  1 */\n      dup1\n        /* \"wearables-contracts/full/Rarities.sol\":18272:18277  index */\n      dup3\n        /* \"wearables-contracts/full/Rarities.sol\":18272:18281  index - 1 */\n      sub\n        /* \"wearables-contracts/full/Rarities.sol\":18263:18282  rarities[index - 1] */\n      dup2\n      sload\n      dup2\n      lt\n      tag_79\n      jumpi\n      invalid\n    tag_79:\n      0x00\n      swap2\n      dup3\n      mstore\n      0x20\n      swap2\n      dup3\n      swap1\n      keccak256\n        /* \"wearables-contracts/full/Rarities.sol\":18256:18282  return rarities[index - 1] */\n      0x40\n      dup1\n      mload\n        /* \"wearables-contracts/full/Rarities.sol\":18263:18282  rarities[index - 1] */\n      0x03\n      swap4\n      swap1\n      swap4\n      mul\n      swap1\n      swap2\n      add\n        /* \"wearables-contracts/full/Rarities.sol\":18256:18282  return rarities[index - 1] */\n      dup1\n      sload\n      0x02\n      0x01\n      dup3\n      and\n      iszero\n      0x0100\n      mul\n      not(0x00)\n      add\n      swap1\n      swap2\n      and\n      div\n      0x1f\n      dup2\n      add\n      dup6\n      swap1\n      div\n      swap1\n      swap5\n      mul\n      dup4\n      add\n      0x80\n      swap1\n      dup2\n      add\n      swap1\n      swap3\n      mstore\n      0x60\n      dup4\n      add\n      dup5\n      dup2\n      mstore\n      swap3\n      swap4\n        /* \"wearables-contracts/full/Rarities.sol\":18263:18282  rarities[index - 1] */\n      swap1\n      swap3\n        /* \"wearables-contracts/full/Rarities.sol\":18256:18282  return rarities[index - 1] */\n      dup5\n      swap3\n      swap1\n      swap2\n        /* \"wearables-contracts/full/Rarities.sol\":18263:18282  rarities[index - 1] */\n      dup5\n      swap2\n        /* \"wearables-contracts/full/Rarities.sol\":18256:18282  return rarities[index - 1] */\n      dup5\n      add\n        /* \"wearables-contracts/full/Rarities.sol\":18263:18282  rarities[index - 1] */\n      dup3\n        /* \"wearables-contracts/full/Rarities.sol\":18256:18282  return rarities[index - 1] */\n      dup3\n      dup1\n      iszero\n      tag_81\n      jumpi\n      dup1\n      0x1f\n      lt\n      tag_82\n      jumpi\n      0x0100\n      dup1\n      dup4\n      sload\n      div\n      mul\n      dup4\n      mstore\n      swap2\n      0x20\n      add\n      swap2\n      jump(tag_81)\n    tag_82:\n      dup3\n      add\n      swap2\n      swap1\n      0x00\n      mstore\n      keccak256(0x00, 0x20)\n      swap1\n    tag_83:\n      dup2\n      sload\n      dup2\n      mstore\n      swap1\n      0x01\n      add\n      swap1\n      0x20\n      add\n      dup1\n      dup4\n      gt\n      tag_83\n      jumpi\n      dup3\n      swap1\n      sub\n      0x1f\n      and\n      dup3\n      add\n      swap2\n    tag_81:\n      pop\n      pop\n      pop\n      pop\n      pop\n      dup2\n      mstore\n      0x20\n      add\n      0x01\n      dup3\n      add\n      sload\n      dup2\n      mstore\n      0x20\n      add\n      0x02\n      dup3\n      add\n      sload\n      dup2\n      mstore\n      pop\n      pop\n      swap3\n      pop\n      pop\n      pop\n        /* \"wearables-contracts/full/Rarities.sol\":17953:18289  function getRarityByName(string memory _rarity) public view returns (Rarity memory) {... */\n      swap2\n      swap1\n      pop\n      jump\t// out\n        /* \"wearables-contracts/full/Rarities.sol\":3110:3350  function transferOwnership(address newOwner) public virtual onlyOwner {... */\n    tag_41:\n        /* \"wearables-contracts/full/Rarities.sol\":2407:2419  _msgSender() */\n      tag_85\n        /* \"wearables-contracts/full/Rarities.sol\":2407:2417  _msgSender */\n      tag_54\n        /* \"wearables-contracts/full/Rarities.sol\":2407:2419  _msgSender() */\n      jump\t// in\n    tag_85:\n        /* \"wearables-contracts/full/Rarities.sol\":2397:2403  _owner */\n      sload(0x00)\n      sub(shl(0xa0, 0x01), 0x01)\n      swap1\n      dup2\n      and\n        /* \"wearables-contracts/full/Rarities.sol\":2397:2419  _owner == _msgSender() */\n      swap2\n      and\n      eq\n        /* \"wearables-contracts/full/Rarities.sol\":2389:2456  require(_owner == _msgSender(), \"Ownable: caller is not the owner\") */\n      tag_86\n      jumpi\n      mload(0x40)\n      shl(0xe5, 0x461bcd)\n      dup2\n      mstore\n      0x04\n      add\n      tag_56\n      swap1\n      tag_57\n      jump\t// in\n    tag_86:\n      sub(shl(0xa0, 0x01), 0x01)\n        /* \"wearables-contracts/full/Rarities.sol\":3198:3220  newOwner != address(0) */\n      dup2\n      and\n        /* \"wearables-contracts/full/Rarities.sol\":3190:3263  require(newOwner != address(0), \"Ownable: new owner is the zero address\") */\n      tag_89\n      jumpi\n      mload(0x40)\n      shl(0xe5, 0x461bcd)\n      dup2\n      mstore\n      0x04\n      add\n      tag_56\n      swap1\n      tag_91\n      jump\t// in\n    tag_89:\n        /* \"wearables-contracts/full/Rarities.sol\":3299:3305  _owner */\n      0x00\n      dup1\n      sload\n        /* \"wearables-contracts/full/Rarities.sol\":3278:3316  OwnershipTransferred(_owner, newOwner) */\n      mload(0x40)\n      sub(shl(0xa0, 0x01), 0x01)\n      dup1\n      dup6\n      and\n      swap4\n        /* \"wearables-contracts/full/Rarities.sol\":3299:3305  _owner */\n      swap3\n      and\n      swap2\n        /* \"wearables-contracts/full/Rarities.sol\":3278:3316  OwnershipTransferred(_owner, newOwner) */\n      0x8be0079c531659141344cd1fd0a4f28419497f9722a3daafe3b4186f6b6457e0\n      swap2\n      log3\n        /* \"wearables-contracts/full/Rarities.sol\":3326:3332  _owner */\n      0x00\n        /* \"wearables-contracts/full/Rarities.sol\":3326:3343  _owner = newOwner */\n      dup1\n      sload\n      not(sub(shl(0xa0, 0x01), 0x01))\n      and\n      sub(shl(0xa0, 0x01), 0x01)\n      swap3\n      swap1\n      swap3\n      and\n      swap2\n      swap1\n      swap2\n      or\n      swap1\n      sstore\n        /* \"wearables-contracts/full/Rarities.sol\":3110:3350  function transferOwnership(address newOwner) public virtual onlyOwner {... */\n      jump\t// out\n        /* \"wearables-contracts/full/Rarities.sol\":16238:16886  function updatePrices(string[] calldata _names, uint256[] calldata _prices) external onlyOwner {... */\n    tag_45:\n        /* \"wearables-contracts/full/Rarities.sol\":2407:2419  _msgSender() */\n      tag_93\n        /* \"wearables-contracts/full/Rarities.sol\":2407:2417  _msgSender */\n      tag_54\n        /* \"wearables-contracts/full/Rarities.sol\":2407:2419  _msgSender() */\n      jump\t// in\n    tag_93:\n        /* \"wearables-contracts/full/Rarities.sol\":2397:2403  _owner */\n      sload(0x00)\n      sub(shl(0xa0, 0x01), 0x01)\n      swap1\n      dup2\n      and\n        /* \"wearables-contracts/full/Rarities.sol\":2397:2419  _owner == _msgSender() */\n      swap2\n      and\n      eq\n        /* \"wearables-contracts/full/Rarities.sol\":2389:2456  require(_owner == _msgSender(), \"Ownable: caller is not the owner\") */\n      tag_94\n      jumpi\n      mload(0x40)\n      shl(0xe5, 0x461bcd)\n      dup2\n      mstore\n      0x04\n      add\n      tag_56\n      swap1\n      tag_57\n      jump\t// in\n    tag_94:\n        /* \"wearables-contracts/full/Rarities.sol\":16351:16382  _names.length == _prices.length */\n      dup3\n      dup2\n      eq\n        /* \"wearables-contracts/full/Rarities.sol\":16343:16425  require(_names.length == _prices.length, \"Rarities#updatePrices: LENGTH_MISMATCH\") */\n      tag_97\n      jumpi\n      mload(0x40)\n      shl(0xe5, 0x461bcd)\n      dup2\n      mstore\n      0x04\n      add\n      tag_56\n      swap1\n      tag_99\n      jump\t// in\n    tag_97:\n        /* \"wearables-contracts/full/Rarities.sol\":16441:16450  uint256 i */\n      0x00\n        /* \"wearables-contracts/full/Rarities.sol\":16436:16880  for (uint256 i = 0; i < _names.length; i++) {... */\n    tag_100:\n        /* \"wearables-contracts/full/Rarities.sol\":16456:16473  i < _names.length */\n      dup4\n      dup2\n      lt\n        /* \"wearables-contracts/full/Rarities.sol\":16436:16880  for (uint256 i = 0; i < _names.length; i++) {... */\n      iszero\n      tag_101\n      jumpi\n        /* \"wearables-contracts/full/Rarities.sol\":16494:16512  string memory name */\n      0x00\n        /* \"wearables-contracts/full/Rarities.sol\":16515:16521  _names */\n      dup6\n      dup6\n        /* \"wearables-contracts/full/Rarities.sol\":16522:16523  i */\n      dup4\n        /* \"wearables-contracts/full/Rarities.sol\":16515:16524  _names[i] */\n      dup2\n      dup2\n      lt\n      tag_103\n      jumpi\n      invalid\n    tag_103:\n      swap1\n      pop\n      0x20\n      mul\n      dup2\n      add\n      swap1\n      tag_104\n      swap2\n      swap1\n      tag_105\n      jump\t// in\n    tag_104:\n        /* \"wearables-contracts/full/Rarities.sol\":16494:16524  string memory name = _names[i] */\n      dup1\n      dup1\n      0x1f\n      add\n      0x20\n      dup1\n      swap2\n      div\n      mul\n      0x20\n      add\n      mload(0x40)\n      swap1\n      dup2\n      add\n      0x40\n      mstore\n      dup1\n      swap4\n      swap3\n      swap2\n      swap1\n      dup2\n      dup2\n      mstore\n      0x20\n      add\n      dup4\n      dup4\n      dup1\n      dup3\n      dup5\n      calldatacopy\n      0x00\n      swap3\n      add\n      dup3\n      swap1\n      mstore\n      pop\n      swap4\n      swap5\n      pop\n        /* \"wearables-contracts/full/Rarities.sol\":16554:16561  _prices */\n      dup8\n      swap3\n      pop\n      dup7\n      swap2\n      pop\n        /* \"wearables-contracts/full/Rarities.sol\":16562:16563  i */\n      dup6\n      swap1\n      pop\n        /* \"wearables-contracts/full/Rarities.sol\":16554:16564  _prices[i] */\n      dup2\n      dup2\n      lt\n      tag_106\n      jumpi\n      invalid\n    tag_106:\n      swap1\n      pop\n      0x20\n      mul\n      add\n      calldataload\n        /* \"wearables-contracts/full/Rarities.sol\":16538:16564  uint256 price = _prices[i] */\n      swap1\n      pop\n        /* \"wearables-contracts/full/Rarities.sol\":16578:16595  bytes32 rarityKey */\n      0x00\n        /* \"wearables-contracts/full/Rarities.sol\":16614:16632  name.toLowerCase() */\n      tag_107\n        /* \"wearables-contracts/full/Rarities.sol\":16614:16618  name */\n      dup4\n        /* \"wearables-contracts/full/Rarities.sol\":16614:16630  name.toLowerCase */\n      tag_46\n        /* \"wearables-contracts/full/Rarities.sol\":16614:16632  name.toLowerCase() */\n      jump\t// in\n    tag_107:\n        /* \"wearables-contracts/full/Rarities.sol\":16598:16634  keccak256(bytes(name.toLowerCase())) */\n      dup1\n      mload\n      0x20\n      swap2\n      dup3\n      add\n      keccak256\n        /* \"wearables-contracts/full/Rarities.sol\":16648:16661  uint256 index */\n      0x00\n        /* \"wearables-contracts/full/Rarities.sol\":16664:16686  rarityIndex[rarityKey] */\n      dup2\n      dup2\n      mstore\n        /* \"wearables-contracts/full/Rarities.sol\":16664:16675  rarityIndex */\n      0x02\n        /* \"wearables-contracts/full/Rarities.sol\":16664:16686  rarityIndex[rarityKey] */\n      swap1\n      swap3\n      mstore\n      0x40\n      swap1\n      swap2\n      keccak256\n      sload\n        /* \"wearables-contracts/full/Rarities.sol\":16598:16634  keccak256(bytes(name.toLowerCase())) */\n      swap1\n      swap2\n      pop\n        /* \"wearables-contracts/full/Rarities.sol\":16709:16735  rarityIndex[rarityKey] > 0 */\n      dup1\n        /* \"wearables-contracts/full/Rarities.sol\":16701:16777  require(rarityIndex[rarityKey] > 0, \"Rarities#updatePrices: INVALID_RARITY\") */\n      tag_108\n      jumpi\n      mload(0x40)\n      shl(0xe5, 0x461bcd)\n      dup2\n      mstore\n      0x04\n      add\n      tag_56\n      swap1\n      tag_110\n      jump\t// in\n    tag_108:\n        /* \"wearables-contracts/full/Rarities.sol\":16820:16825  price */\n      dup3\n        /* \"wearables-contracts/full/Rarities.sol\":16792:16800  rarities */\n      0x01\n        /* \"wearables-contracts/full/Rarities.sol\":16809:16810  1 */\n      dup1\n        /* \"wearables-contracts/full/Rarities.sol\":16801:16806  index */\n      dup4\n        /* \"wearables-contracts/full/Rarities.sol\":16801:16810  index - 1 */\n      sub\n        /* \"wearables-contracts/full/Rarities.sol\":16792:16811  rarities[index - 1] */\n      dup2\n      sload\n      dup2\n      lt\n      tag_111\n      jumpi\n      invalid\n    tag_111:\n      swap1\n      0x00\n      mstore\n      keccak256(0x00, 0x20)\n      swap1\n      0x03\n      mul\n      add\n        /* \"wearables-contracts/full/Rarities.sol\":16792:16817  rarities[index - 1].price */\n      0x02\n      add\n        /* \"wearables-contracts/full/Rarities.sol\":16792:16825  rarities[index - 1].price = price */\n      dup2\n      swap1\n      sstore\n      pop\n        /* \"wearables-contracts/full/Rarities.sol\":16845:16869  UpdatePrice(name, price) */\n      0x05b0e3546b37c788d01ccb3d1c8a6329795f32a6b78cb3bfe6782bd86d0e26fe\n        /* \"wearables-contracts/full/Rarities.sol\":16857:16861  name */\n      dup5\n        /* \"wearables-contracts/full/Rarities.sol\":16863:16868  price */\n      dup5\n        /* \"wearables-contracts/full/Rarities.sol\":16845:16869  UpdatePrice(name, price) */\n      mload(0x40)\n      tag_113\n      swap3\n      swap2\n      swap1\n      tag_114\n      jump\t// in\n    tag_113:\n      mload(0x40)\n      dup1\n      swap2\n      sub\n      swap1\n      log1\n      pop\n      pop\n        /* \"wearables-contracts/full/Rarities.sol\":16475:16478  i++ */\n      0x01\n      swap1\n      swap3\n      add\n      swap2\n      pop\n        /* \"wearables-contracts/full/Rarities.sol\":16436:16880  for (uint256 i = 0; i < _names.length; i++) {... */\n      tag_100\n      swap1\n      pop\n      jump\n    tag_101:\n      pop\n        /* \"wearables-contracts/full/Rarities.sol\":16238:16886  function updatePrices(string[] calldata _names, uint256[] calldata _prices) external onlyOwner {... */\n      pop\n      pop\n      pop\n      pop\n      jump\t// out\n        /* \"wearables-contracts/full/Rarities.sol\":14817:15371  function toLowerCase(string memory _str) internal pure returns (string memory) {... */\n    tag_46:\n        /* \"wearables-contracts/full/Rarities.sol\":14881:14894  string memory */\n      0x60\n        /* \"wearables-contracts/full/Rarities.sol\":14906:14923  bytes memory bStr */\n      0x00\n        /* \"wearables-contracts/full/Rarities.sol\":14932:14936  _str */\n      dup3\n        /* \"wearables-contracts/full/Rarities.sol\":14906:14937  bytes memory bStr = bytes(_str) */\n      swap1\n      pop\n        /* \"wearables-contracts/full/Rarities.sol\":14947:14966  bytes memory bLower */\n      0x00\n        /* \"wearables-contracts/full/Rarities.sol\":14979:14983  bStr */\n      dup2\n        /* \"wearables-contracts/full/Rarities.sol\":14979:14990  bStr.length */\n      mload\n        /* \"wearables-contracts/full/Rarities.sol\":14969:14991  new bytes(bStr.length) */\n      0xffffffffffffffff\n      dup2\n      gt\n      dup1\n      iszero\n      tag_116\n      jumpi\n      0x00\n      dup1\n      revert\n    tag_116:\n      pop\n      mload(0x40)\n      swap1\n      dup1\n      dup3\n      mstore\n      dup1\n      0x1f\n      add\n      not(0x1f)\n      and\n      0x20\n      add\n      dup3\n      add\n      0x40\n      mstore\n      dup1\n      iszero\n      tag_117\n      jumpi\n      0x20\n      dup3\n      add\n      dup2\n      dup1\n      calldatasize\n      dup4\n      calldatacopy\n      add\n      swap1\n      pop\n    tag_117:\n      pop\n        /* \"wearables-contracts/full/Rarities.sol\":14947:14991  bytes memory bLower = new bytes(bStr.length) */\n      swap1\n      pop\n        /* \"wearables-contracts/full/Rarities.sol\":15007:15013  uint i */\n      0x00\n        /* \"wearables-contracts/full/Rarities.sol\":15002:15334  for (uint i = 0; i < bStr.length; i++) {... */\n    tag_118:\n        /* \"wearables-contracts/full/Rarities.sol\":15023:15027  bStr */\n      dup3\n        /* \"wearables-contracts/full/Rarities.sol\":15023:15034  bStr.length */\n      mload\n        /* \"wearables-contracts/full/Rarities.sol\":15019:15020  i */\n      dup2\n        /* \"wearables-contracts/full/Rarities.sol\":15019:15034  i < bStr.length */\n      lt\n        /* \"wearables-contracts/full/Rarities.sol\":15002:15334  for (uint i = 0; i < bStr.length; i++) {... */\n      iszero\n      tag_119\n      jumpi\n        /* \"wearables-contracts/full/Rarities.sol\":15109:15113  0x41 */\n      0x41\n        /* \"wearables-contracts/full/Rarities.sol\":15098:15113  bStr[i] >= 0x41 */\n      0xf8\n      shl\n        /* \"wearables-contracts/full/Rarities.sol\":15098:15102  bStr */\n      dup4\n        /* \"wearables-contracts/full/Rarities.sol\":15103:15104  i */\n      dup3\n        /* \"wearables-contracts/full/Rarities.sol\":15098:15105  bStr[i] */\n      dup2\n      mload\n      dup2\n      lt\n      tag_121\n      jumpi\n      invalid\n    tag_121:\n      add\n      0x20\n      add\n      mload\n      not(sub(shl(0xf8, 0x01), 0x01))\n      and\n        /* \"wearables-contracts/full/Rarities.sol\":15098:15113  bStr[i] >= 0x41 */\n      lt\n      dup1\n      iszero\n      swap1\n        /* \"wearables-contracts/full/Rarities.sol\":15097:15135  (bStr[i] >= 0x41) && (bStr[i] <= 0x5A) */\n      tag_122\n      jumpi\n      pop\n        /* \"wearables-contracts/full/Rarities.sol\":15130:15134  0x5A */\n      0x5a\n        /* \"wearables-contracts/full/Rarities.sol\":15119:15134  bStr[i] <= 0x5A */\n      0xf8\n      shl\n        /* \"wearables-contracts/full/Rarities.sol\":15119:15123  bStr */\n      dup4\n        /* \"wearables-contracts/full/Rarities.sol\":15124:15125  i */\n      dup3\n        /* \"wearables-contracts/full/Rarities.sol\":15119:15126  bStr[i] */\n      dup2\n      mload\n      dup2\n      lt\n      tag_123\n      jumpi\n      invalid\n    tag_123:\n      add\n      0x20\n      add\n      mload\n      not(sub(shl(0xf8, 0x01), 0x01))\n      and\n        /* \"wearables-contracts/full/Rarities.sol\":15119:15134  bStr[i] <= 0x5A */\n      gt\n      iszero\n        /* \"wearables-contracts/full/Rarities.sol\":15097:15135  (bStr[i] >= 0x41) && (bStr[i] <= 0x5A) */\n    tag_122:\n        /* \"wearables-contracts/full/Rarities.sol\":15093:15324  if ((bStr[i] >= 0x41) && (bStr[i] <= 0x5A)) {... */\n      iszero\n      tag_124\n      jumpi\n        /* \"wearables-contracts/full/Rarities.sol\":15235:15239  bStr */\n      dup3\n        /* \"wearables-contracts/full/Rarities.sol\":15240:15241  i */\n      dup2\n        /* \"wearables-contracts/full/Rarities.sol\":15235:15242  bStr[i] */\n      dup2\n      mload\n      dup2\n      lt\n      tag_125\n      jumpi\n      invalid\n    tag_125:\n      0x20\n      add\n      add\n      mload\n      0xf8\n      shr\n      0xf8\n      shl\n        /* \"wearables-contracts/full/Rarities.sol\":15229:15243  uint8(bStr[i]) */\n      0xf8\n      shr\n        /* \"wearables-contracts/full/Rarities.sol\":15246:15250  0x20 */\n      0x20\n        /* \"wearables-contracts/full/Rarities.sol\":15229:15250  uint8(bStr[i]) + 0x20 */\n      add\n        /* \"wearables-contracts/full/Rarities.sol\":15222:15251  bytes1(uint8(bStr[i]) + 0x20) */\n      0xf8\n      shl\n        /* \"wearables-contracts/full/Rarities.sol\":15210:15216  bLower */\n      dup3\n        /* \"wearables-contracts/full/Rarities.sol\":15217:15218  i */\n      dup3\n        /* \"wearables-contracts/full/Rarities.sol\":15210:15219  bLower[i] */\n      dup2\n      mload\n      dup2\n      lt\n      tag_126\n      jumpi\n      invalid\n    tag_126:\n      0x20\n      add\n      add\n        /* \"wearables-contracts/full/Rarities.sol\":15210:15251  bLower[i] = bytes1(uint8(bStr[i]) + 0x20) */\n      swap1\n      not(sub(shl(0xf8, 0x01), 0x01))\n      and\n      swap1\n      dup2\n      0x00\n      byte\n      swap1\n      mstore8\n      pop\n        /* \"wearables-contracts/full/Rarities.sol\":15093:15324  if ((bStr[i] >= 0x41) && (bStr[i] <= 0x5A)) {... */\n      jump(tag_127)\n    tag_124:\n        /* \"wearables-contracts/full/Rarities.sol\":15302:15306  bStr */\n      dup3\n        /* \"wearables-contracts/full/Rarities.sol\":15307:15308  i */\n      dup2\n        /* \"wearables-contracts/full/Rarities.sol\":15302:15309  bStr[i] */\n      dup2\n      mload\n      dup2\n      lt\n      tag_128\n      jumpi\n      invalid\n    tag_128:\n      0x20\n      add\n      add\n      mload\n      0xf8\n      shr\n      0xf8\n      shl\n        /* \"wearables-contracts/full/Rarities.sol\":15290:15296  bLower */\n      dup3\n        /* \"wearables-contracts/full/Rarities.sol\":15297:15298  i */\n      dup3\n        /* \"wearables-contracts/full/Rarities.sol\":15290:15299  bLower[i] */\n      dup2\n      mload\n      dup2\n      lt\n      tag_129\n      jumpi\n      invalid\n    tag_129:\n      0x20\n      add\n      add\n        /* \"wearables-contracts/full/Rarities.sol\":15290:15309  bLower[i] = bStr[i] */\n      swap1\n      not(sub(shl(0xf8, 0x01), 0x01))\n      and\n      swap1\n      dup2\n      0x00\n      byte\n      swap1\n      mstore8\n      pop\n        /* \"wearables-contracts/full/Rarities.sol\":15093:15324  if ((bStr[i] >= 0x41) && (bStr[i] <= 0x5A)) {... */\n    tag_127:\n        /* \"wearables-contracts/full/Rarities.sol\":15036:15039  i++ */\n      0x01\n      add\n        /* \"wearables-contracts/full/Rarities.sol\":15002:15334  for (uint i = 0; i < bStr.length; i++) {... */\n      jump(tag_118)\n    tag_119:\n      pop\n        /* \"wearables-contracts/full/Rarities.sol\":15357:15363  bLower */\n      swap4\n        /* \"wearables-contracts/full/Rarities.sol\":14817:15371  function toLowerCase(string memory _str) internal pure returns (string memory) {... */\n      swap3\n      pop\n      pop\n      pop\n      jump\t// out\n        /* \"wearables-contracts/full/Rarities.sol\":453:1092  function _msgSender()... */\n    tag_54:\n        /* \"wearables-contracts/full/Rarities.sol\":538:560  address payable sender */\n      0x00\n        /* \"wearables-contracts/full/Rarities.sol\":580:590  msg.sender */\n      caller\n        /* \"wearables-contracts/full/Rarities.sol\":602:606  this */\n      address\n        /* \"wearables-contracts/full/Rarities.sol\":580:607  msg.sender == address(this) */\n      eq\n        /* \"wearables-contracts/full/Rarities.sol\":576:1063  if (msg.sender == address(this)) {... */\n      iszero\n      tag_131\n      jumpi\n        /* \"wearables-contracts/full/Rarities.sol\":623:641  bytes memory array */\n      0x00\n        /* \"wearables-contracts/full/Rarities.sol\":644:652  msg.data */\n      dup1\n      calldatasize\n        /* \"wearables-contracts/full/Rarities.sol\":623:652  bytes memory array = msg.data */\n      dup1\n      dup1\n      0x1f\n      add\n      0x20\n      dup1\n      swap2\n      div\n      mul\n      0x20\n      add\n      mload(0x40)\n      swap1\n      dup2\n      add\n      0x40\n      mstore\n      dup1\n      swap4\n      swap3\n      swap2\n      swap1\n      dup2\n      dup2\n      mstore\n      0x20\n      add\n      dup4\n      dup4\n      dup1\n      dup3\n      dup5\n      calldatacopy\n      0x00\n      swap3\n      add\n      swap2\n      swap1\n      swap2\n      mstore\n      pop\n      pop\n      pop\n      pop\n        /* \"wearables-contracts/full/Rarities.sol\":682:690  msg.data */\n      calldatasize\n        /* \"wearables-contracts/full/Rarities.sol\":889:906  add(array, index) */\n      add\n        /* \"wearables-contracts/full/Rarities.sol\":883:907  mload(add(array, index)) */\n      mload\n      sub(shl(0xa0, 0x01), 0x01)\n        /* \"wearables-contracts/full/Rarities.sol\":858:989  and(... */\n      and\n      swap2\n      pop\n        /* \"wearables-contracts/full/Rarities.sol\":720:1003  {... */\n      tag_70\n      swap1\n      pop\n      jump\n    tag_131:\n      pop\n        /* \"wearables-contracts/full/Rarities.sol\":1042:1052  msg.sender */\n      caller\n        /* \"wearables-contracts/full/Rarities.sol\":453:1092  function _msgSender()... */\n      swap1\n      jump\t// out\n        /* \"wearables-contracts/full/Rarities.sol\":17077:17575  function _addRarity(Rarity memory _rarity) internal {... */\n    tag_64:\n        /* \"wearables-contracts/full/Rarities.sol\":17168:17180  _rarity.name */\n      dup1\n      mload\n        /* \"wearables-contracts/full/Rarities.sol\":17162:17188  bytes(_rarity.name).length */\n      mload\n        /* \"wearables-contracts/full/Rarities.sol\":17206:17222  rarityLength > 0 */\n      dup1\n      iszero\n      dup1\n      iszero\n      swap1\n        /* \"wearables-contracts/full/Rarities.sol\":17206:17244  rarityLength > 0 && rarityLength <= 32 */\n      tag_134\n      jumpi\n      pop\n        /* \"wearables-contracts/full/Rarities.sol\":17242:17244  32 */\n      0x20\n        /* \"wearables-contracts/full/Rarities.sol\":17226:17238  rarityLength */\n      dup2\n        /* \"wearables-contracts/full/Rarities.sol\":17226:17244  rarityLength <= 32 */\n      gt\n      iszero\n        /* \"wearables-contracts/full/Rarities.sol\":17206:17244  rarityLength > 0 && rarityLength <= 32 */\n    tag_134:\n        /* \"wearables-contracts/full/Rarities.sol\":17198:17284  require(rarityLength > 0 && rarityLength <= 32, \"Rarities#_addRarity: INVALID_LENGTH\") */\n      tag_135\n      jumpi\n      mload(0x40)\n      shl(0xe5, 0x461bcd)\n      dup2\n      mstore\n      0x04\n      add\n      tag_56\n      swap1\n      tag_137\n      jump\t// in\n    tag_135:\n        /* \"wearables-contracts/full/Rarities.sol\":17295:17312  bytes32 rarityKey */\n      0x00\n        /* \"wearables-contracts/full/Rarities.sol\":17331:17357  _rarity.name.toLowerCase() */\n      tag_138\n        /* \"wearables-contracts/full/Rarities.sol\":17331:17338  _rarity */\n      dup4\n        /* \"wearables-contracts/full/Rarities.sol\":17331:17343  _rarity.name */\n      0x00\n      add\n      mload\n        /* \"wearables-contracts/full/Rarities.sol\":17331:17355  _rarity.name.toLowerCase */\n      tag_46\n        /* \"wearables-contracts/full/Rarities.sol\":17331:17357  _rarity.name.toLowerCase() */\n      jump\t// in\n    tag_138:\n        /* \"wearables-contracts/full/Rarities.sol\":17315:17359  keccak256(bytes(_rarity.name.toLowerCase())) */\n      dup1\n      mload\n      0x20\n      swap2\n      dup3\n      add\n      keccak256\n        /* \"wearables-contracts/full/Rarities.sol\":17377:17399  rarityIndex[rarityKey] */\n      0x00\n      dup2\n      dup2\n      mstore\n        /* \"wearables-contracts/full/Rarities.sol\":17377:17388  rarityIndex */\n      0x02\n        /* \"wearables-contracts/full/Rarities.sol\":17377:17399  rarityIndex[rarityKey] */\n      swap1\n      swap3\n      mstore\n      0x40\n      swap1\n      swap2\n      keccak256\n      sload\n        /* \"wearables-contracts/full/Rarities.sol\":17315:17359  keccak256(bytes(_rarity.name.toLowerCase())) */\n      swap1\n      swap2\n      pop\n        /* \"wearables-contracts/full/Rarities.sol\":17377:17404  rarityIndex[rarityKey] == 0 */\n      iszero\n        /* \"wearables-contracts/full/Rarities.sol\":17369:17450  require(rarityIndex[rarityKey] == 0, \"Rarities#_addRarity: RARITY_ALREADY_ADDED\") */\n      tag_139\n      jumpi\n      mload(0x40)\n      shl(0xe5, 0x461bcd)\n      dup2\n      mstore\n      0x04\n      add\n      tag_56\n      swap1\n      tag_141\n      jump\t// in\n    tag_139:\n        /* \"wearables-contracts/full/Rarities.sol\":17461:17469  rarities */\n      0x01\n        /* \"wearables-contracts/full/Rarities.sol\":17461:17483  rarities.push(_rarity) */\n      dup1\n      sload\n      dup1\n      dup3\n      add\n      dup3\n      sstore\n      0x00\n      swap2\n      swap1\n      swap2\n      mstore\n      dup4\n      mload\n      dup1\n      mload\n        /* \"wearables-contracts/full/Rarities.sol\":17475:17482  _rarity */\n      dup6\n      swap3\n        /* \"wearables-contracts/full/Rarities.sol\":17461:17483  rarities.push(_rarity) */\n      0x03\n      mul\n      0xb10e2d527612073b26eecdfd717e6a320cf44b4afac2b0732d9fcbe2b7fa0cf6\n      add\n      swap2\n      tag_143\n      swap2\n      dup4\n      swap2\n      0x20\n      add\n      swap1\n      tag_144\n      jump\t// in\n    tag_143:\n      pop\n      0x20\n      dup3\n      dup2\n      add\n      mload\n      0x01\n      dup1\n      dup5\n      add\n      swap2\n      swap1\n      swap2\n      sstore\n      0x40\n      swap4\n      dup5\n      add\n      mload\n      0x02\n      swap4\n      dup5\n      add\n      sstore\n        /* \"wearables-contracts/full/Rarities.sol\":17519:17534  rarities.length */\n      sload\n      0x00\n        /* \"wearables-contracts/full/Rarities.sol\":17494:17516  rarityIndex[rarityKey] */\n      dup6\n      dup2\n      mstore\n      swap3\n      swap1\n      swap2\n      mstore\n      swap1\n      dup3\n      swap1\n      keccak256\n        /* \"wearables-contracts/full/Rarities.sol\":17494:17534  rarityIndex[rarityKey] = rarities.length */\n      sstore\n        /* \"wearables-contracts/full/Rarities.sol\":17550:17568  AddRarity(_rarity) */\n      mload\n      0xa1551daaa553ebc192df9198fc7d3d7e68b02a9be07fc92605cccd0d935d2c00\n      swap1\n      tag_145\n      swap1\n        /* \"wearables-contracts/full/Rarities.sol\":17560:17567  _rarity */\n      dup6\n      swap1\n        /* \"wearables-contracts/full/Rarities.sol\":17550:17568  AddRarity(_rarity) */\n      tag_37\n      jump\t// in\n    tag_145:\n      mload(0x40)\n      dup1\n      swap2\n      sub\n      swap1\n      log1\n        /* \"wearables-contracts/full/Rarities.sol\":17077:17575  function _addRarity(Rarity memory _rarity) internal {... */\n      pop\n      pop\n      pop\n      jump\t// out\n    tag_73:\n      mload(0x40)\n      dup1\n      0x60\n      add\n      0x40\n      mstore\n      dup1\n      0x60\n      dup2\n      mstore\n      0x20\n      add\n      0x00\n      dup2\n      mstore\n      0x20\n      add\n      0x00\n      dup2\n      mstore\n      pop\n      swap1\n      jump\t// out\n    tag_144:\n      dup3\n      dup1\n      sload\n      0x01\n      dup2\n      0x01\n      and\n      iszero\n      0x0100\n      mul\n      sub\n      and\n      0x02\n      swap1\n      div\n      swap1\n      0x00\n      mstore\n      keccak256(0x00, 0x20)\n      swap1\n      0x1f\n      add\n      0x20\n      swap1\n      div\n      dup2\n      add\n      swap3\n      dup3\n      tag_147\n      jumpi\n      0x00\n      dup6\n      sstore\n      jump(tag_150)\n    tag_147:\n      dup3\n      0x1f\n      lt\n      tag_148\n      jumpi\n      dup1\n      mload\n      not(0xff)\n      and\n      dup4\n      dup1\n      add\n      or\n      dup6\n      sstore\n      jump(tag_150)\n    tag_148:\n      dup3\n      dup1\n      add\n      0x01\n      add\n      dup6\n      sstore\n      dup3\n      iszero\n      tag_150\n      jumpi\n      swap2\n      dup3\n      add\n    tag_149:\n      dup3\n      dup2\n      gt\n      iszero\n      tag_150\n      jumpi\n      dup3\n      mload\n      dup3\n      sstore\n      swap2\n      0x20\n      add\n      swap2\n      swap1\n      0x01\n      add\n      swap1\n      jump(tag_149)\n    tag_150:\n      pop\n      tag_151\n      swap3\n      swap2\n      pop\n      tag_152\n      jump\t// in\n    tag_151:\n      pop\n      swap1\n      jump\t// out\n    tag_152:\n    tag_153:\n      dup1\n      dup3\n      gt\n      iszero\n      tag_151\n      jumpi\n      0x00\n      dup2\n      sstore\n      0x01\n      add\n      jump(tag_153)\n        /* \"#utility.yul\":14:426   */\n    tag_156:\n      0x00\n      dup1\n        /* \"#utility.yul\":155:158   */\n      dup4\n        /* \"#utility.yul\":148:152   */\n      0x1f\n        /* \"#utility.yul\":140:146   */\n      dup5\n        /* \"#utility.yul\":136:153   */\n      add\n        /* \"#utility.yul\":132:159   */\n      slt\n        /* \"#utility.yul\":122:124   */\n      tag_158\n      jumpi\n        /* \"#utility.yul\":180:188   */\n      dup2\n        /* \"#utility.yul\":170:178   */\n      dup3\n        /* \"#utility.yul\":163:189   */\n      revert\n        /* \"#utility.yul\":122:124   */\n    tag_158:\n      pop\n        /* \"#utility.yul\":210:230   */\n      dup2\n      calldataload\n        /* \"#utility.yul\":253:271   */\n      0xffffffffffffffff\n        /* \"#utility.yul\":242:272   */\n      dup2\n      gt\n        /* \"#utility.yul\":239:241   */\n      iszero\n      tag_159\n      jumpi\n        /* \"#utility.yul\":292:300   */\n      dup2\n        /* \"#utility.yul\":282:290   */\n      dup3\n        /* \"#utility.yul\":275:301   */\n      revert\n        /* \"#utility.yul\":239:241   */\n    tag_159:\n        /* \"#utility.yul\":336:340   */\n      0x20\n        /* \"#utility.yul\":328:334   */\n      dup4\n        /* \"#utility.yul\":324:341   */\n      add\n        /* \"#utility.yul\":312:341   */\n      swap2\n      pop\n        /* \"#utility.yul\":399:402   */\n      dup4\n        /* \"#utility.yul\":392:396   */\n      0x20\n        /* \"#utility.yul\":384:388   */\n      dup1\n        /* \"#utility.yul\":376:382   */\n      dup4\n        /* \"#utility.yul\":372:389   */\n      mul\n        /* \"#utility.yul\":364:370   */\n      dup6\n        /* \"#utility.yul\":360:390   */\n      add\n        /* \"#utility.yul\":356:397   */\n      add\n        /* \"#utility.yul\":353:403   */\n      gt\n        /* \"#utility.yul\":350:352   */\n      iszero\n      tag_160\n      jumpi\n        /* \"#utility.yul\":416:417   */\n      0x00\n        /* \"#utility.yul\":413:414   */\n      dup1\n        /* \"#utility.yul\":406:418   */\n      revert\n        /* \"#utility.yul\":350:352   */\n    tag_160:\n        /* \"#utility.yul\":112:426   */\n      swap3\n      pop\n      swap3\n      swap1\n      pop\n      jump\t// out\n        /* \"#utility.yul\":431:974   */\n    tag_161:\n      0x00\n        /* \"#utility.yul\":529:532   */\n      dup3\n        /* \"#utility.yul\":522:526   */\n      0x1f\n        /* \"#utility.yul\":514:520   */\n      dup4\n        /* \"#utility.yul\":510:527   */\n      add\n        /* \"#utility.yul\":506:533   */\n      slt\n        /* \"#utility.yul\":496:498   */\n      tag_163\n      jumpi\n        /* \"#utility.yul\":551:556   */\n      dup1\n        /* \"#utility.yul\":544:549   */\n      dup2\n        /* \"#utility.yul\":537:557   */\n      revert\n        /* \"#utility.yul\":496:498   */\n    tag_163:\n        /* \"#utility.yul\":591:597   */\n      dup2\n        /* \"#utility.yul\":578:598   */\n      calldataload\n        /* \"#utility.yul\":617:635   */\n      0xffffffffffffffff\n        /* \"#utility.yul\":613:615   */\n      dup2\n        /* \"#utility.yul\":610:636   */\n      gt\n        /* \"#utility.yul\":607:609   */\n      iszero\n      tag_164\n      jumpi\n        /* \"#utility.yul\":639:648   */\n      invalid\n        /* \"#utility.yul\":607:609   */\n    tag_164:\n        /* \"#utility.yul\":674:728   */\n      tag_165\n        /* \"#utility.yul\":716:718   */\n      0x1f\n        /* \"#utility.yul\":697:710   */\n      dup3\n      add\n      not(0x1f)\n        /* \"#utility.yul\":693:720   */\n      and\n        /* \"#utility.yul\":722:726   */\n      0x20\n        /* \"#utility.yul\":689:727   */\n      add\n        /* \"#utility.yul\":674:728   */\n      tag_166\n      jump\t// in\n    tag_165:\n        /* \"#utility.yul\":753:755   */\n      dup2\n        /* \"#utility.yul\":744:751   */\n      dup2\n        /* \"#utility.yul\":737:756   */\n      mstore\n        /* \"#utility.yul\":799:802   */\n      dup5\n        /* \"#utility.yul\":792:796   */\n      0x20\n        /* \"#utility.yul\":787:789   */\n      dup4\n        /* \"#utility.yul\":779:785   */\n      dup7\n        /* \"#utility.yul\":775:790   */\n      add\n        /* \"#utility.yul\":771:797   */\n      add\n        /* \"#utility.yul\":768:803   */\n      gt\n        /* \"#utility.yul\":765:767   */\n      iszero\n      tag_167\n      jumpi\n        /* \"#utility.yul\":820:825   */\n      dup3\n        /* \"#utility.yul\":813:818   */\n      dup4\n        /* \"#utility.yul\":806:826   */\n      revert\n        /* \"#utility.yul\":765:767   */\n    tag_167:\n        /* \"#utility.yul\":889:891   */\n      dup2\n        /* \"#utility.yul\":882:886   */\n      0x20\n        /* \"#utility.yul\":874:880   */\n      dup6\n        /* \"#utility.yul\":870:887   */\n      add\n        /* \"#utility.yul\":863:867   */\n      0x20\n        /* \"#utility.yul\":854:861   */\n      dup4\n        /* \"#utility.yul\":850:868   */\n      add\n        /* \"#utility.yul\":837:892   */\n      calldatacopy\n        /* \"#utility.yul\":912:928   */\n      swap1\n      dup2\n      add\n        /* \"#utility.yul\":930:934   */\n      0x20\n        /* \"#utility.yul\":908:935   */\n      add\n        /* \"#utility.yul\":901:943   */\n      swap2\n      swap1\n      swap2\n      mstore\n        /* \"#utility.yul\":916:923   */\n      swap3\n        /* \"#utility.yul\":486:974   */\n      swap2\n      pop\n      pop\n      jump\t// out\n        /* \"#utility.yul\":979:1285   */\n    tag_40:\n      0x00\n        /* \"#utility.yul\":1091:1093   */\n      0x20\n        /* \"#utility.yul\":1079:1088   */\n      dup3\n        /* \"#utility.yul\":1070:1077   */\n      dup5\n        /* \"#utility.yul\":1066:1089   */\n      sub\n        /* \"#utility.yul\":1062:1094   */\n      slt\n        /* \"#utility.yul\":1059:1061   */\n      iszero\n      tag_169\n      jumpi\n        /* \"#utility.yul\":1112:1118   */\n      dup1\n        /* \"#utility.yul\":1104:1110   */\n      dup2\n        /* \"#utility.yul\":1097:1119   */\n      revert\n        /* \"#utility.yul\":1059:1061   */\n    tag_169:\n        /* \"#utility.yul\":1143:1166   */\n      dup2\n      calldataload\n      sub(shl(0xa0, 0x01), 0x01)\n        /* \"#utility.yul\":1195:1226   */\n      dup2\n      and\n        /* \"#utility.yul\":1185:1227   */\n      dup2\n      eq\n        /* \"#utility.yul\":1175:1177   */\n      tag_170\n      jumpi\n        /* \"#utility.yul\":1246:1252   */\n      dup2\n        /* \"#utility.yul\":1238:1244   */\n      dup3\n        /* \"#utility.yul\":1231:1253   */\n      revert\n        /* \"#utility.yul\":1175:1177   */\n    tag_170:\n        /* \"#utility.yul\":1274:1279   */\n      swap4\n        /* \"#utility.yul\":1049:1285   */\n      swap3\n      pop\n      pop\n      pop\n      jump\t// out\n        /* \"#utility.yul\":1290:2133   */\n    tag_44:\n      0x00\n      dup1\n      0x00\n      dup1\n        /* \"#utility.yul\":1501:1503   */\n      0x40\n        /* \"#utility.yul\":1489:1498   */\n      dup6\n        /* \"#utility.yul\":1480:1487   */\n      dup8\n        /* \"#utility.yul\":1476:1499   */\n      sub\n        /* \"#utility.yul\":1472:1504   */\n      slt\n        /* \"#utility.yul\":1469:1471   */\n      iszero\n      tag_172\n      jumpi\n        /* \"#utility.yul\":1522:1528   */\n      dup3\n        /* \"#utility.yul\":1514:1520   */\n      dup4\n        /* \"#utility.yul\":1507:1529   */\n      revert\n        /* \"#utility.yul\":1469:1471   */\n    tag_172:\n        /* \"#utility.yul\":1567:1576   */\n      dup5\n        /* \"#utility.yul\":1554:1577   */\n      calldataload\n        /* \"#utility.yul\":1596:1614   */\n      0xffffffffffffffff\n        /* \"#utility.yul\":1637:1639   */\n      dup1\n        /* \"#utility.yul\":1629:1635   */\n      dup3\n        /* \"#utility.yul\":1626:1640   */\n      gt\n        /* \"#utility.yul\":1623:1625   */\n      iszero\n      tag_173\n      jumpi\n        /* \"#utility.yul\":1658:1664   */\n      dup5\n        /* \"#utility.yul\":1650:1656   */\n      dup6\n        /* \"#utility.yul\":1643:1665   */\n      revert\n        /* \"#utility.yul\":1623:1625   */\n    tag_173:\n        /* \"#utility.yul\":1702:1786   */\n      tag_174\n        /* \"#utility.yul\":1778:1785   */\n      dup9\n        /* \"#utility.yul\":1769:1775   */\n      dup4\n        /* \"#utility.yul\":1758:1767   */\n      dup10\n        /* \"#utility.yul\":1754:1776   */\n      add\n        /* \"#utility.yul\":1702:1786   */\n      tag_156\n      jump\t// in\n    tag_174:\n        /* \"#utility.yul\":1805:1813   */\n      swap1\n      swap7\n      pop\n        /* \"#utility.yul\":1676:1786   */\n      swap5\n      pop\n        /* \"#utility.yul\":1893:1895   */\n      0x20\n        /* \"#utility.yul\":1878:1896   */\n      dup8\n      add\n        /* \"#utility.yul\":1865:1897   */\n      calldataload\n      swap2\n      pop\n        /* \"#utility.yul\":1909:1925   */\n      dup1\n      dup3\n      gt\n        /* \"#utility.yul\":1906:1908   */\n      iszero\n      tag_175\n      jumpi\n        /* \"#utility.yul\":1943:1949   */\n      dup4\n        /* \"#utility.yul\":1935:1941   */\n      dup5\n        /* \"#utility.yul\":1928:1950   */\n      revert\n        /* \"#utility.yul\":1906:1908   */\n    tag_175:\n      pop\n        /* \"#utility.yul\":1987:2073   */\n      tag_176\n        /* \"#utility.yul\":2065:2072   */\n      dup8\n        /* \"#utility.yul\":2054:2062   */\n      dup3\n        /* \"#utility.yul\":2043:2052   */\n      dup9\n        /* \"#utility.yul\":2039:2063   */\n      add\n        /* \"#utility.yul\":1987:2073   */\n      tag_156\n      jump\t// in\n    tag_176:\n        /* \"#utility.yul\":1459:2133   */\n      swap6\n      swap9\n      swap5\n      swap8\n      pop\n        /* \"#utility.yul\":2092:2100   */\n      swap6\n      pop\n      pop\n      pop\n      pop\n        /* \"#utility.yul\":1459:2133   */\n      jump\t// out\n        /* \"#utility.yul\":2138:3730   */\n    tag_20:\n      0x00\n        /* \"#utility.yul\":2277:2279   */\n      0x20\n        /* \"#utility.yul\":2320:2322   */\n      dup1\n        /* \"#utility.yul\":2308:2317   */\n      dup4\n        /* \"#utility.yul\":2299:2306   */\n      dup6\n        /* \"#utility.yul\":2295:2318   */\n      sub\n        /* \"#utility.yul\":2291:2323   */\n      slt\n        /* \"#utility.yul\":2288:2290   */\n      iszero\n      tag_178\n      jumpi\n        /* \"#utility.yul\":2341:2347   */\n      dup2\n        /* \"#utility.yul\":2333:2339   */\n      dup3\n        /* \"#utility.yul\":2326:2348   */\n      revert\n        /* \"#utility.yul\":2288:2290   */\n    tag_178:\n        /* \"#utility.yul\":2386:2395   */\n      dup3\n        /* \"#utility.yul\":2373:2396   */\n      calldataload\n        /* \"#utility.yul\":2415:2433   */\n      0xffffffffffffffff\n        /* \"#utility.yul\":2456:2458   */\n      dup1\n        /* \"#utility.yul\":2448:2454   */\n      dup3\n        /* \"#utility.yul\":2445:2459   */\n      gt\n        /* \"#utility.yul\":2442:2444   */\n      iszero\n      tag_179\n      jumpi\n        /* \"#utility.yul\":2477:2483   */\n      dup4\n        /* \"#utility.yul\":2469:2475   */\n      dup5\n        /* \"#utility.yul\":2462:2484   */\n      revert\n        /* \"#utility.yul\":2442:2444   */\n    tag_179:\n        /* \"#utility.yul\":2520:2526   */\n      dup2\n        /* \"#utility.yul\":2509:2518   */\n      dup6\n        /* \"#utility.yul\":2505:2527   */\n      add\n        /* \"#utility.yul\":2495:2527   */\n      swap2\n      pop\n        /* \"#utility.yul\":2565:2572   */\n      dup6\n        /* \"#utility.yul\":2558:2562   */\n      0x1f\n        /* \"#utility.yul\":2554:2556   */\n      dup4\n        /* \"#utility.yul\":2550:2563   */\n      add\n        /* \"#utility.yul\":2546:2573   */\n      slt\n        /* \"#utility.yul\":2536:2538   */\n      tag_180\n      jumpi\n        /* \"#utility.yul\":2592:2598   */\n      dup4\n        /* \"#utility.yul\":2584:2590   */\n      dup5\n        /* \"#utility.yul\":2577:2599   */\n      revert\n        /* \"#utility.yul\":2536:2538   */\n    tag_180:\n        /* \"#utility.yul\":2633:2635   */\n      dup2\n        /* \"#utility.yul\":2620:2636   */\n      calldataload\n        /* \"#utility.yul\":2655:2657   */\n      dup2\n        /* \"#utility.yul\":2651:2653   */\n      dup2\n        /* \"#utility.yul\":2648:2658   */\n      gt\n        /* \"#utility.yul\":2645:2647   */\n      iszero\n      tag_181\n      jumpi\n        /* \"#utility.yul\":2661:2670   */\n      invalid\n        /* \"#utility.yul\":2645:2647   */\n    tag_181:\n        /* \"#utility.yul\":2692:2728   */\n      tag_182\n        /* \"#utility.yul\":2724:2726   */\n      dup5\n        /* \"#utility.yul\":2719:2721   */\n      dup6\n        /* \"#utility.yul\":2715:2717   */\n      dup4\n        /* \"#utility.yul\":2711:2722   */\n      mul\n        /* \"#utility.yul\":2707:2727   */\n      add\n        /* \"#utility.yul\":2692:2728   */\n      tag_166\n      jump\t// in\n    tag_182:\n        /* \"#utility.yul\":2762:2777   */\n      dup2\n      dup2\n      mstore\n        /* \"#utility.yul\":2793:2805   */\n      dup5\n      dup2\n      add\n      swap1\n        /* \"#utility.yul\":2825:2836   */\n      dup5\n      dup7\n      add\n        /* \"#utility.yul\":2854:2860   */\n      dup8\n        /* \"#utility.yul\":2869:3700   */\n    tag_183:\n        /* \"#utility.yul\":2883:2885   */\n      dup5\n        /* \"#utility.yul\":2880:2881   */\n      dup2\n        /* \"#utility.yul\":2877:2886   */\n      lt\n        /* \"#utility.yul\":2869:3700   */\n      iszero\n      tag_185\n      jumpi\n        /* \"#utility.yul\":2946:2963   */\n      dup2\n      calldataload\n        /* \"#utility.yul\":2938:2964   */\n      dup8\n      add\n        /* \"#utility.yul\":3016:3020   */\n      0x60\n        /* \"#utility.yul\":2988:3004   */\n      dup2\n      dup14\n      sub\n      not(0x1f)\n        /* \"#utility.yul\":2984:3014   */\n      add\n        /* \"#utility.yul\":2980:3021   */\n      slt\n        /* \"#utility.yul\":2977:2979   */\n      iszero\n      tag_186\n      jumpi\n        /* \"#utility.yul\":3039:3045   */\n      dup10\n        /* \"#utility.yul\":3031:3037   */\n      dup11\n        /* \"#utility.yul\":3024:3046   */\n      revert\n        /* \"#utility.yul\":2977:2979   */\n    tag_186:\n        /* \"#utility.yul\":3071:3073   */\n      0x40\n        /* \"#utility.yul\":3106:3108   */\n      dup1\n        /* \"#utility.yul\":3100:3109   */\n      mload\n        /* \"#utility.yul\":3152:3156   */\n      0x60\n        /* \"#utility.yul\":3144:3150   */\n      dup2\n        /* \"#utility.yul\":3140:3157   */\n      add\n        /* \"#utility.yul\":3211:3217   */\n      dup2\n        /* \"#utility.yul\":3199:3209   */\n      dup2\n        /* \"#utility.yul\":3196:3218   */\n      lt\n        /* \"#utility.yul\":3191:3193   */\n      dup11\n        /* \"#utility.yul\":3179:3189   */\n      dup3\n        /* \"#utility.yul\":3176:3194   */\n      gt\n        /* \"#utility.yul\":3173:3219   */\n      or\n        /* \"#utility.yul\":3170:3172   */\n      iszero\n      tag_187\n      jumpi\n        /* \"#utility.yul\":3222:3231   */\n      invalid\n        /* \"#utility.yul\":3170:3172   */\n    tag_187:\n        /* \"#utility.yul\":3246:3268   */\n      dup3\n      mstore\n        /* \"#utility.yul\":3310:3321   */\n      dup3\n      dup12\n      add\n        /* \"#utility.yul\":3297:3322   */\n      calldataload\n        /* \"#utility.yul\":3338:3354   */\n      dup10\n      dup2\n      gt\n        /* \"#utility.yul\":3335:3337   */\n      iszero\n      tag_188\n      jumpi\n        /* \"#utility.yul\":3372:3378   */\n      dup13\n        /* \"#utility.yul\":3364:3370   */\n      dup14\n        /* \"#utility.yul\":3357:3379   */\n      revert\n        /* \"#utility.yul\":3335:3337   */\n    tag_188:\n        /* \"#utility.yul\":3409:3465   */\n      tag_189\n        /* \"#utility.yul\":3457:3464   */\n      dup16\n        /* \"#utility.yul\":3452:3454   */\n      dup14\n        /* \"#utility.yul\":3441:3449   */\n      dup4\n        /* \"#utility.yul\":3437:3439   */\n      dup8\n        /* \"#utility.yul\":3433:3450   */\n      add\n        /* \"#utility.yul\":3429:3455   */\n      add\n        /* \"#utility.yul\":3409:3465   */\n      tag_161\n      jump\t// in\n    tag_189:\n        /* \"#utility.yul\":3394:3466   */\n      dup3\n      mstore\n      pop\n        /* \"#utility.yul\":3516:3527   */\n      dup3\n      dup3\n      add\n        /* \"#utility.yul\":3503:3528   */\n      calldataload\n        /* \"#utility.yul\":3486:3501   */\n      dup12\n      dup3\n      add\n        /* \"#utility.yul\":3479:3529   */\n      mstore\n        /* \"#utility.yul\":3587:3591   */\n      0x60\n        /* \"#utility.yul\":3579:3592   */\n      swap1\n      swap3\n      add\n        /* \"#utility.yul\":3566:3593   */\n      calldataload\n        /* \"#utility.yul\":3549:3564   */\n      swap1\n      dup3\n      add\n        /* \"#utility.yul\":3542:3594   */\n      mstore\n        /* \"#utility.yul\":3607:3626   */\n      dup5\n      mstore\n        /* \"#utility.yul\":3646:3658   */\n      swap3\n      dup8\n      add\n      swap3\n        /* \"#utility.yul\":3678:3690   */\n      swap1\n      dup8\n      add\n      swap1\n        /* \"#utility.yul\":2901:2902   */\n      0x01\n        /* \"#utility.yul\":2894:2903   */\n      add\n        /* \"#utility.yul\":2869:3700   */\n      jump(tag_183)\n    tag_185:\n      pop\n        /* \"#utility.yul\":3719:3724   */\n      swap1\n      swap10\n        /* \"#utility.yul\":2257:3730   */\n      swap9\n      pop\n      pop\n      pop\n      pop\n      pop\n      pop\n      pop\n      pop\n      pop\n      jump\t// out\n        /* \"#utility.yul\":3735:4079   */\n    tag_34:\n      0x00\n        /* \"#utility.yul\":3857:3859   */\n      0x20\n        /* \"#utility.yul\":3845:3854   */\n      dup3\n        /* \"#utility.yul\":3836:3843   */\n      dup5\n        /* \"#utility.yul\":3832:3855   */\n      sub\n        /* \"#utility.yul\":3828:3860   */\n      slt\n        /* \"#utility.yul\":3825:3827   */\n      iszero\n      tag_191\n      jumpi\n        /* \"#utility.yul\":3878:3884   */\n      dup1\n        /* \"#utility.yul\":3870:3876   */\n      dup2\n        /* \"#utility.yul\":3863:3885   */\n      revert\n        /* \"#utility.yul\":3825:3827   */\n    tag_191:\n        /* \"#utility.yul\":3923:3932   */\n      dup2\n        /* \"#utility.yul\":3910:3933   */\n      calldataload\n        /* \"#utility.yul\":3956:3974   */\n      0xffffffffffffffff\n        /* \"#utility.yul\":3948:3954   */\n      dup2\n        /* \"#utility.yul\":3945:3975   */\n      gt\n        /* \"#utility.yul\":3942:3944   */\n      iszero\n      tag_192\n      jumpi\n        /* \"#utility.yul\":3993:3999   */\n      dup2\n        /* \"#utility.yul\":3985:3991   */\n      dup3\n        /* \"#utility.yul\":3978:4000   */\n      revert\n        /* \"#utility.yul\":3942:3944   */\n    tag_192:\n        /* \"#utility.yul\":4021:4073   */\n      tag_193\n        /* \"#utility.yul\":4065:4072   */\n      dup5\n        /* \"#utility.yul\":4056:4062   */\n      dup3\n        /* \"#utility.yul\":4045:4054   */\n      dup6\n        /* \"#utility.yul\":4041:4063   */\n      add\n        /* \"#utility.yul\":4021:4073   */\n      tag_161\n      jump\t// in\n    tag_193:\n        /* \"#utility.yul\":4011:4073   */\n      swap5\n        /* \"#utility.yul\":3815:4079   */\n      swap4\n      pop\n      pop\n      pop\n      pop\n      jump\t// out\n        /* \"#utility.yul\":4084:4274   */\n    tag_14:\n      0x00\n        /* \"#utility.yul\":4196:4198   */\n      0x20\n        /* \"#utility.yul\":4184:4193   */\n      dup3\n        /* \"#utility.yul\":4175:4182   */\n      dup5\n        /* \"#utility.yul\":4171:4194   */\n      sub\n        /* \"#utility.yul\":4167:4199   */\n      slt\n        /* \"#utility.yul\":4164:4166   */\n      iszero\n      tag_195\n      jumpi\n        /* \"#utility.yul\":4217:4223   */\n      dup1\n        /* \"#utility.yul\":4209:4215   */\n      dup2\n        /* \"#utility.yul\":4202:4224   */\n      revert\n        /* \"#utility.yul\":4164:4166   */\n    tag_195:\n      pop\n        /* \"#utility.yul\":4245:4268   */\n      calldataload\n      swap2\n        /* \"#utility.yul\":4154:4274   */\n      swap1\n      pop\n      jump\t// out\n        /* \"#utility.yul\":4279:4757   */\n    tag_196:\n      0x00\n        /* \"#utility.yul\":4361:4366   */\n      dup2\n        /* \"#utility.yul\":4355:4367   */\n      mload\n        /* \"#utility.yul\":4388:4394   */\n      dup1\n        /* \"#utility.yul\":4383:4386   */\n      dup5\n        /* \"#utility.yul\":4376:4395   */\n      mstore\n        /* \"#utility.yul\":4413:4416   */\n      dup2\n        /* \"#utility.yul\":4425:4587   */\n    tag_198:\n        /* \"#utility.yul\":4439:4445   */\n      dup2\n        /* \"#utility.yul\":4436:4437   */\n      dup2\n        /* \"#utility.yul\":4433:4446   */\n      lt\n        /* \"#utility.yul\":4425:4587   */\n      iszero\n      tag_200\n      jumpi\n        /* \"#utility.yul\":4501:4505   */\n      0x20\n        /* \"#utility.yul\":4557:4570   */\n      dup2\n      dup6\n      add\n        /* \"#utility.yul\":4553:4575   */\n      dup2\n      add\n        /* \"#utility.yul\":4547:4576   */\n      mload\n        /* \"#utility.yul\":4529:4540   */\n      dup7\n      dup4\n      add\n        /* \"#utility.yul\":4525:4545   */\n      dup3\n      add\n        /* \"#utility.yul\":4518:4577   */\n      mstore\n        /* \"#utility.yul\":4454:4466   */\n      add\n        /* \"#utility.yul\":4425:4587   */\n      jump(tag_198)\n    tag_200:\n        /* \"#utility.yul\":4605:4611   */\n      dup2\n        /* \"#utility.yul\":4602:4603   */\n      dup2\n        /* \"#utility.yul\":4599:4612   */\n      gt\n        /* \"#utility.yul\":4596:4598   */\n      iszero\n      tag_201\n      jumpi\n        /* \"#utility.yul\":4671:4674   */\n      dup3\n        /* \"#utility.yul\":4664:4668   */\n      0x20\n        /* \"#utility.yul\":4655:4661   */\n      dup4\n        /* \"#utility.yul\":4650:4653   */\n      dup8\n        /* \"#utility.yul\":4646:4662   */\n      add\n        /* \"#utility.yul\":4642:4669   */\n      add\n        /* \"#utility.yul\":4635:4675   */\n      mstore\n        /* \"#utility.yul\":4596:4598   */\n    tag_201:\n      pop\n        /* \"#utility.yul\":4739:4741   */\n      0x1f\n        /* \"#utility.yul\":4718:4733   */\n      add\n      not(0x1f)\n        /* \"#utility.yul\":4714:4743   */\n      and\n        /* \"#utility.yul\":4705:4744   */\n      swap3\n      swap1\n      swap3\n      add\n        /* \"#utility.yul\":4746:4750   */\n      0x20\n        /* \"#utility.yul\":4701:4751   */\n      add\n      swap3\n        /* \"#utility.yul\":4331:4757   */\n      swap2\n      pop\n      pop\n      jump\t// out\n        /* \"#utility.yul\":4762:4965   */\n    tag_31:\n      sub(shl(0xa0, 0x01), 0x01)\n        /* \"#utility.yul\":4926:4958   */\n      swap2\n      swap1\n      swap2\n      and\n        /* \"#utility.yul\":4908:4959   */\n      dup2\n      mstore\n        /* \"#utility.yul\":4896:4898   */\n      0x20\n        /* \"#utility.yul\":4881:4899   */\n      add\n      swap1\n        /* \"#utility.yul\":4863:4965   */\n      jump\t// out\n        /* \"#utility.yul\":4970:5263   */\n    tag_114:\n      0x00\n        /* \"#utility.yul\":5147:5149   */\n      0x40\n        /* \"#utility.yul\":5136:5145   */\n      dup3\n        /* \"#utility.yul\":5129:5150   */\n      mstore\n        /* \"#utility.yul\":5167:5214   */\n      tag_204\n        /* \"#utility.yul\":5210:5212   */\n      0x40\n        /* \"#utility.yul\":5199:5208   */\n      dup4\n        /* \"#utility.yul\":5195:5213   */\n      add\n        /* \"#utility.yul\":5187:5193   */\n      dup6\n        /* \"#utility.yul\":5167:5214   */\n      tag_196\n      jump\t// in\n    tag_204:\n        /* \"#utility.yul\":5159:5214   */\n      swap1\n      pop\n        /* \"#utility.yul\":5250:5256   */\n      dup3\n        /* \"#utility.yul\":5245:5247   */\n      0x20\n        /* \"#utility.yul\":5234:5243   */\n      dup4\n        /* \"#utility.yul\":5230:5248   */\n      add\n        /* \"#utility.yul\":5223:5257   */\n      mstore\n        /* \"#utility.yul\":5119:5263   */\n      swap4\n      swap3\n      pop\n      pop\n      pop\n      jump\t// out\n        /* \"#utility.yul\":5268:5632   */\n    tag_17:\n      0x00\n        /* \"#utility.yul\":5473:5475   */\n      0x60\n        /* \"#utility.yul\":5462:5471   */\n      dup3\n        /* \"#utility.yul\":5455:5476   */\n      mstore\n        /* \"#utility.yul\":5493:5540   */\n      tag_206\n        /* \"#utility.yul\":5536:5538   */\n      0x60\n        /* \"#utility.yul\":5525:5534   */\n      dup4\n        /* \"#utility.yul\":5521:5539   */\n      add\n        /* \"#utility.yul\":5513:5519   */\n      dup7\n        /* \"#utility.yul\":5493:5540   */\n      tag_196\n      jump\t// in\n    tag_206:\n        /* \"#utility.yul\":5571:5573   */\n      0x20\n        /* \"#utility.yul\":5556:5574   */\n      dup4\n      add\n        /* \"#utility.yul\":5549:5583   */\n      swap5\n      swap1\n      swap5\n      mstore\n      pop\n        /* \"#utility.yul\":5614:5616   */\n      0x40\n        /* \"#utility.yul\":5599:5617   */\n      add\n        /* \"#utility.yul\":5592:5626   */\n      mstore\n        /* \"#utility.yul\":5485:5540   */\n      swap2\n        /* \"#utility.yul\":5445:5632   */\n      swap1\n      pop\n      jump\t// out\n        /* \"#utility.yul\":5637:6041   */\n    tag_78:\n        /* \"#utility.yul\":5839:5841   */\n      0x20\n        /* \"#utility.yul\":5821:5842   */\n      dup1\n      dup3\n      mstore\n        /* \"#utility.yul\":5878:5880   */\n      0x28\n        /* \"#utility.yul\":5858:5876   */\n      swap1\n      dup3\n      add\n        /* \"#utility.yul\":5851:5881   */\n      mstore\n        /* \"#utility.yul\":5917:5951   */\n      0x52617269746965732367657452617269747942794e616d653a20494e56414c49\n        /* \"#utility.yul\":5912:5914   */\n      0x40\n        /* \"#utility.yul\":5897:5915   */\n      dup3\n      add\n        /* \"#utility.yul\":5890:5952   */\n      mstore\n      shl(0xc0, 0x445f524152495459)\n        /* \"#utility.yul\":5983:5985   */\n      0x60\n        /* \"#utility.yul\":5968:5986   */\n      dup3\n      add\n        /* \"#utility.yul\":5961:5999   */\n      mstore\n        /* \"#utility.yul\":6031:6034   */\n      0x80\n        /* \"#utility.yul\":6016:6035   */\n      add\n      swap1\n        /* \"#utility.yul\":5811:6041   */\n      jump\t// out\n        /* \"#utility.yul\":6046:6448   */\n    tag_91:\n        /* \"#utility.yul\":6248:6250   */\n      0x20\n        /* \"#utility.yul\":6230:6251   */\n      dup1\n      dup3\n      mstore\n        /* \"#utility.yul\":6287:6289   */\n      0x26\n        /* \"#utility.yul\":6267:6285   */\n      swap1\n      dup3\n      add\n        /* \"#utility.yul\":6260:6290   */\n      mstore\n        /* \"#utility.yul\":6326:6360   */\n      0x4f776e61626c653a206e6577206f776e657220697320746865207a65726f2061\n        /* \"#utility.yul\":6321:6323   */\n      0x40\n        /* \"#utility.yul\":6306:6324   */\n      dup3\n      add\n        /* \"#utility.yul\":6299:6361   */\n      mstore\n      shl(0xd0, 0x646472657373)\n        /* \"#utility.yul\":6392:6394   */\n      0x60\n        /* \"#utility.yul\":6377:6395   */\n      dup3\n      add\n        /* \"#utility.yul\":6370:6406   */\n      mstore\n        /* \"#utility.yul\":6438:6441   */\n      0x80\n        /* \"#utility.yul\":6423:6442   */\n      add\n      swap1\n        /* \"#utility.yul\":6220:6448   */\n      jump\t// out\n        /* \"#utility.yul\":6453:6858   */\n    tag_141:\n        /* \"#utility.yul\":6655:6657   */\n      0x20\n        /* \"#utility.yul\":6637:6658   */\n      dup1\n      dup3\n      mstore\n        /* \"#utility.yul\":6694:6696   */\n      0x29\n        /* \"#utility.yul\":6674:6692   */\n      swap1\n      dup3\n      add\n        /* \"#utility.yul\":6667:6697   */\n      mstore\n        /* \"#utility.yul\":6733:6767   */\n      0x5261726974696573235f6164645261726974793a205241524954595f414c5245\n        /* \"#utility.yul\":6728:6730   */\n      0x40\n        /* \"#utility.yul\":6713:6731   */\n      dup3\n      add\n        /* \"#utility.yul\":6706:6768   */\n      mstore\n      shl(0xba, 0x10511657d051111151)\n        /* \"#utility.yul\":6799:6801   */\n      0x60\n        /* \"#utility.yul\":6784:6802   */\n      dup3\n      add\n        /* \"#utility.yul\":6777:6816   */\n      mstore\n        /* \"#utility.yul\":6848:6851   */\n      0x80\n        /* \"#utility.yul\":6833:6852   */\n      add\n      swap1\n        /* \"#utility.yul\":6627:6858   */\n      jump\t// out\n        /* \"#utility.yul\":6863:7265   */\n    tag_99:\n        /* \"#utility.yul\":7065:7067   */\n      0x20\n        /* \"#utility.yul\":7047:7068   */\n      dup1\n      dup3\n      mstore\n        /* \"#utility.yul\":7104:7106   */\n      0x26\n        /* \"#utility.yul\":7084:7102   */\n      swap1\n      dup3\n      add\n        /* \"#utility.yul\":7077:7107   */\n      mstore\n        /* \"#utility.yul\":7143:7177   */\n      0x5261726974696573237570646174655072696365733a204c454e4754485f4d49\n        /* \"#utility.yul\":7138:7140   */\n      0x40\n        /* \"#utility.yul\":7123:7141   */\n      dup3\n      add\n        /* \"#utility.yul\":7116:7178   */\n      mstore\n      shl(0xd3, 0x0a69a82a8869)\n        /* \"#utility.yul\":7209:7211   */\n      0x60\n        /* \"#utility.yul\":7194:7212   */\n      dup3\n      add\n        /* \"#utility.yul\":7187:7223   */\n      mstore\n        /* \"#utility.yul\":7255:7258   */\n      0x80\n        /* \"#utility.yul\":7240:7259   */\n      add\n      swap1\n        /* \"#utility.yul\":7037:7265   */\n      jump\t// out\n        /* \"#utility.yul\":7270:7671   */\n    tag_110:\n        /* \"#utility.yul\":7472:7474   */\n      0x20\n        /* \"#utility.yul\":7454:7475   */\n      dup1\n      dup3\n      mstore\n        /* \"#utility.yul\":7511:7513   */\n      0x25\n        /* \"#utility.yul\":7491:7509   */\n      swap1\n      dup3\n      add\n        /* \"#utility.yul\":7484:7514   */\n      mstore\n        /* \"#utility.yul\":7550:7584   */\n      0x5261726974696573237570646174655072696365733a20494e56414c49445f52\n        /* \"#utility.yul\":7545:7547   */\n      0x40\n        /* \"#utility.yul\":7530:7548   */\n      dup3\n      add\n        /* \"#utility.yul\":7523:7585   */\n      mstore\n      shl(0xd8, 0x4152495459)\n        /* \"#utility.yul\":7616:7618   */\n      0x60\n        /* \"#utility.yul\":7601:7619   */\n      dup3\n      add\n        /* \"#utility.yul\":7594:7629   */\n      mstore\n        /* \"#utility.yul\":7661:7664   */\n      0x80\n        /* \"#utility.yul\":7646:7665   */\n      add\n      swap1\n        /* \"#utility.yul\":7444:7671   */\n      jump\t// out\n        /* \"#utility.yul\":7676:8032   */\n    tag_57:\n        /* \"#utility.yul\":7878:7880   */\n      0x20\n        /* \"#utility.yul\":7860:7881   */\n      dup1\n      dup3\n      mstore\n        /* \"#utility.yul\":7897:7915   */\n      dup2\n      dup2\n      add\n        /* \"#utility.yul\":7890:7920   */\n      mstore\n        /* \"#utility.yul\":7956:7990   */\n      0x4f776e61626c653a2063616c6c6572206973206e6f7420746865206f776e6572\n        /* \"#utility.yul\":7951:7953   */\n      0x40\n        /* \"#utility.yul\":7936:7954   */\n      dup3\n      add\n        /* \"#utility.yul\":7929:7991   */\n      mstore\n        /* \"#utility.yul\":8023:8025   */\n      0x60\n        /* \"#utility.yul\":8008:8026   */\n      add\n      swap1\n        /* \"#utility.yul\":7850:8032   */\n      jump\t// out\n        /* \"#utility.yul\":8037:8436   */\n    tag_137:\n        /* \"#utility.yul\":8239:8241   */\n      0x20\n        /* \"#utility.yul\":8221:8242   */\n      dup1\n      dup3\n      mstore\n        /* \"#utility.yul\":8278:8280   */\n      0x23\n        /* \"#utility.yul\":8258:8276   */\n      swap1\n      dup3\n      add\n        /* \"#utility.yul\":8251:8281   */\n      mstore\n        /* \"#utility.yul\":8317:8351   */\n      0x5261726974696573235f6164645261726974793a20494e56414c49445f4c454e\n        /* \"#utility.yul\":8312:8314   */\n      0x40\n        /* \"#utility.yul\":8297:8315   */\n      dup3\n      add\n        /* \"#utility.yul\":8290:8352   */\n      mstore\n      shl(0xeb, 0x08ea89)\n        /* \"#utility.yul\":8383:8385   */\n      0x60\n        /* \"#utility.yul\":8368:8386   */\n      dup3\n      add\n        /* \"#utility.yul\":8361:8394   */\n      mstore\n        /* \"#utility.yul\":8426:8429   */\n      0x80\n        /* \"#utility.yul\":8411:8430   */\n      add\n      swap1\n        /* \"#utility.yul\":8211:8436   */\n      jump\t// out\n        /* \"#utility.yul\":8441:8930   */\n    tag_37:\n      0x00\n        /* \"#utility.yul\":8618:8620   */\n      0x20\n        /* \"#utility.yul\":8607:8616   */\n      dup3\n        /* \"#utility.yul\":8600:8621   */\n      mstore\n        /* \"#utility.yul\":8656:8662   */\n      dup3\n        /* \"#utility.yul\":8650:8663   */\n      mload\n        /* \"#utility.yul\":8699:8703   */\n      0x60\n        /* \"#utility.yul\":8694:8696   */\n      0x20\n        /* \"#utility.yul\":8683:8692   */\n      dup5\n        /* \"#utility.yul\":8679:8697   */\n      add\n        /* \"#utility.yul\":8672:8704   */\n      mstore\n        /* \"#utility.yul\":8727:8781   */\n      tag_215\n        /* \"#utility.yul\":8776:8779   */\n      0x80\n        /* \"#utility.yul\":8765:8774   */\n      dup5\n        /* \"#utility.yul\":8761:8780   */\n      add\n        /* \"#utility.yul\":8747:8759   */\n      dup3\n        /* \"#utility.yul\":8727:8781   */\n      tag_196\n      jump\t// in\n    tag_215:\n        /* \"#utility.yul\":8713:8781   */\n      swap1\n      pop\n        /* \"#utility.yul\":8835:8837   */\n      0x20\n        /* \"#utility.yul\":8827:8833   */\n      dup5\n        /* \"#utility.yul\":8823:8838   */\n      add\n        /* \"#utility.yul\":8817:8839   */\n      mload\n        /* \"#utility.yul\":8812:8814   */\n      0x40\n        /* \"#utility.yul\":8801:8810   */\n      dup5\n        /* \"#utility.yul\":8797:8815   */\n      add\n        /* \"#utility.yul\":8790:8840   */\n      mstore\n        /* \"#utility.yul\":8896:8898   */\n      0x40\n        /* \"#utility.yul\":8888:8894   */\n      dup5\n        /* \"#utility.yul\":8884:8899   */\n      add\n        /* \"#utility.yul\":8878:8900   */\n      mload\n        /* \"#utility.yul\":8871:8875   */\n      0x60\n        /* \"#utility.yul\":8860:8869   */\n      dup5\n        /* \"#utility.yul\":8856:8876   */\n      add\n        /* \"#utility.yul\":8849:8901   */\n      mstore\n        /* \"#utility.yul\":8918:8924   */\n      dup1\n        /* \"#utility.yul\":8910:8924   */\n      swap2\n      pop\n      pop\n        /* \"#utility.yul\":8590:8930   */\n      swap3\n      swap2\n      pop\n      pop\n      jump\t// out\n        /* \"#utility.yul\":8935:9112   */\n    tag_27:\n        /* \"#utility.yul\":9081:9106   */\n      swap1\n      dup2\n      mstore\n        /* \"#utility.yul\":9069:9071   */\n      0x20\n        /* \"#utility.yul\":9054:9072   */\n      add\n      swap1\n        /* \"#utility.yul\":9036:9112   */\n      jump\t// out\n        /* \"#utility.yul\":9117:9651   */\n    tag_105:\n      0x00\n      dup1\n        /* \"#utility.yul\":9261:9272   */\n      dup4\n        /* \"#utility.yul\":9248:9273   */\n      calldataload\n        /* \"#utility.yul\":9355:9357   */\n      0x1e\n        /* \"#utility.yul\":9351:9358   */\n      not\n        /* \"#utility.yul\":9340:9348   */\n      dup5\n        /* \"#utility.yul\":9324:9338   */\n      calldatasize\n        /* \"#utility.yul\":9320:9349   */\n      sub\n        /* \"#utility.yul\":9316:9359   */\n      add\n        /* \"#utility.yul\":9296:9314   */\n      dup2\n        /* \"#utility.yul\":9292:9360   */\n      slt\n        /* \"#utility.yul\":9282:9284   */\n      tag_218\n      jumpi\n        /* \"#utility.yul\":9377:9381   */\n      dup3\n        /* \"#utility.yul\":9371:9375   */\n      dup4\n        /* \"#utility.yul\":9364:9382   */\n      revert\n        /* \"#utility.yul\":9282:9284   */\n    tag_218:\n        /* \"#utility.yul\":9407:9440   */\n      dup4\n      add\n        /* \"#utility.yul\":9459:9479   */\n      dup1\n      calldataload\n      swap2\n      pop\n        /* \"#utility.yul\":9502:9520   */\n      0xffffffffffffffff\n        /* \"#utility.yul\":9491:9521   */\n      dup3\n      gt\n        /* \"#utility.yul\":9488:9490   */\n      iszero\n      tag_219\n      jumpi\n        /* \"#utility.yul\":9537:9541   */\n      dup3\n        /* \"#utility.yul\":9531:9535   */\n      dup4\n        /* \"#utility.yul\":9524:9542   */\n      revert\n        /* \"#utility.yul\":9488:9490   */\n    tag_219:\n        /* \"#utility.yul\":9573:9577   */\n      0x20\n        /* \"#utility.yul\":9561:9578   */\n      add\n      swap2\n      pop\n        /* \"#utility.yul\":9604:9618   */\n      calldatasize\n        /* \"#utility.yul\":9600:9627   */\n      dup2\n      swap1\n      sub\n        /* \"#utility.yul\":9590:9628   */\n      dup3\n      sgt\n        /* \"#utility.yul\":9587:9589   */\n      iszero\n      tag_160\n      jumpi\n        /* \"#utility.yul\":9641:9642   */\n      0x00\n        /* \"#utility.yul\":9638:9639   */\n      dup1\n        /* \"#utility.yul\":9631:9643   */\n      revert\n        /* \"#utility.yul\":9656:9898   */\n    tag_166:\n        /* \"#utility.yul\":9726:9728   */\n      0x40\n        /* \"#utility.yul\":9720:9729   */\n      mload\n        /* \"#utility.yul\":9756:9773   */\n      dup2\n      dup2\n      add\n        /* \"#utility.yul\":9803:9821   */\n      0xffffffffffffffff\n        /* \"#utility.yul\":9788:9822   */\n      dup2\n      gt\n        /* \"#utility.yul\":9824:9846   */\n      dup3\n      dup3\n      lt\n        /* \"#utility.yul\":9785:9847   */\n      or\n        /* \"#utility.yul\":9782:9784   */\n      iszero\n      tag_222\n      jumpi\n        /* \"#utility.yul\":9850:9859   */\n      invalid\n        /* \"#utility.yul\":9782:9784   */\n    tag_222:\n        /* \"#utility.yul\":9877:9879   */\n      0x40\n        /* \"#utility.yul\":9870:9892   */\n      mstore\n        /* \"#utility.yul\":9700:9898   */\n      swap2\n      swap1\n      pop\n      jump\t// out\n\n    auxdata: 0xa2646970667358221220d9efd409721b8a99ffa8a460513d485a4e395cfaf200a7dcaea94331f51febe464736f6c63430007060033\n}\n",
				"bytecode": {
					"linkReferences": {},
					"object": "60806040523480156200001157600080fd5b506040516200184e3803806200184e83398101604081905262000034916200051e565b6200003e6200008d565b6200004982620000d4565b60005b815181101562000084576200007b8282815181106200006757fe5b60200260200101516200018a60201b60201c565b6001016200004c565b5050506200084a565b600062000099620002c8565b600080546001600160a01b0319166001600160a01b0383169081178255604051929350916000805160206200182e833981519152908290a350565b620000de620002c8565b6000546001600160a01b03908116911614620001175760405162461bcd60e51b81526004016200010e9062000728565b60405180910390fd5b6001600160a01b038116620001405760405162461bcd60e51b81526004016200010e9062000699565b600080546040516001600160a01b03808516939216916000805160206200182e83398151915291a3600080546001600160a01b0319166001600160a01b0392909216919091179055565b80515180158015906200019e575060208111155b620001bd5760405162461bcd60e51b81526004016200010e906200075d565b6000620001d983600001516200032760201b620006691760201c565b80516020918201206000818152600290925260409091205490915015620002145760405162461bcd60e51b81526004016200010e90620006df565b6001805480820182556000919091528351805185926003027fb10e2d527612073b26eecdfd717e6a320cf44b4afac2b0732d9fcbe2b7fa0cf60191620002609183916020019062000472565b50602082810151600180840191909155604093840151600293840155546000858152929091529082902055517fa1551daaa553ebc192df9198fc7d3d7e68b02a9be07fc92605cccd0d935d2c0090620002bb908590620007a0565b60405180910390a1505050565b6000333014156200032157600080368080601f0160208091040260200160405190810160405280939291908181526020018383808284376000920191909152505050503601516001600160a01b03169150620003249050565b50335b90565b60606000829050600081516001600160401b03811180156200034857600080fd5b506040519080825280601f01601f19166020018201604052801562000374576020820181803683370190505b50905060005b82518110156200046a57604160f81b8382815181106200039657fe5b01602001516001600160f81b03191610801590620003d35750605a60f81b838281518110620003c157fe5b01602001516001600160f81b03191611155b156200042457828181518110620003e657fe5b602001015160f81c60f81b60f81c60200160f81b8282815181106200040757fe5b60200101906001600160f81b031916908160001a90535062000461565b8281815181106200043157fe5b602001015160f81c60f81b8282815181106200044957fe5b60200101906001600160f81b031916908160001a9053505b6001016200037a565b509392505050565b828054600181600116156101000203166002900490600052602060002090601f016020900481019282620004aa5760008555620004f5565b82601f10620004c557805160ff1916838001178555620004f5565b82800160010185558215620004f5579182015b82811115620004f5578251825591602001919060010190620004d8565b506200050392915062000507565b5090565b5b8082111562000503576000815560010162000508565b6000806040838503121562000531578182fd5b82516001600160a01b038116811462000548578283fd5b60208401519092506001600160401b038082111562000565578283fd5b818501915085601f83011262000579578283fd5b8151818111156200058657fe5b62000596602080830201620007f3565b818152602080820191908501865b84811015620006895781518701601f196060828e0382011215620005c657898afd5b6040518060608201108960608301111715620005de57fe5b60608101604052602083015189811115620005f7578b8cfd5b8301603f81018f1362000608578b8cfd5b60208101518a8111156200061857fe5b6200062b602085601f84011601620007f3565b93508084528f6020808385010101111562000644578c8dfd5b6200065781602086016040850162000817565b5050908152604082810151602080840191909152606090930151908201528552938401939190910190600101620005a4565b5096999098509650505050505050565b60208082526026908201527f4f776e61626c653a206e6577206f776e657220697320746865207a65726f206160408201526564647265737360d01b606082015260800190565b60208082526029908201527f5261726974696573235f6164645261726974793a205241524954595f414c524560408201526810511657d05111115160ba1b606082015260800190565b6020808252818101527f4f776e61626c653a2063616c6c6572206973206e6f7420746865206f776e6572604082015260600190565b60208082526023908201527f5261726974696573235f6164645261726974793a20494e56414c49445f4c454e60408201526208ea8960eb1b606082015260800190565b6000602082528251606060208401528051806080850152620007ca8160a086016020850162000817565b6020850151604085810191909152909401516060840152505060a0601f909201601f1916010190565b6040518181016001600160401b03811182821017156200080f57fe5b604052919050565b60005b83811015620008345781810151838201526020016200081a565b8381111562000844576000848401525b50505050565b610fd4806200085a6000396000f3fe608060405234801561001057600080fd5b50600436106100885760003560e01c80638da5cb5b1161005b5780638da5cb5b146100ea578063b5262333146100ff578063f2fde38b1461011f578063fa21cc7b1461013257610088565b806317b8e1cf1461008d5780635b26f8da146100b8578063715018a6146100cd57806389e9c4d3146100d5575b600080fd5b6100a061009b366004610c58565b610145565b6040516100af93929190610cf1565b60405180910390f35b6100cb6100c6366004610b31565b610204565b005b6100cb610276565b6100dd6102f5565b6040516100af9190610f2c565b6100f26102fc565b6040516100af9190610cbb565b61011261010d366004610c1d565b61030b565b6040516100af9190610ef0565b6100cb61012d366004610a9a565b61042e565b6100cb610140366004610ac8565b6104e4565b6001818154811061015557600080fd5b60009182526020918290206003919091020180546040805160026001841615610100026000190190931692909204601f8101859004850283018501909152808252919350918391908301828280156101ee5780601f106101c3576101008083540402835291602001916101ee565b820191906000526020600020905b8154815290600101906020018083116101d157829003601f168201915b5050505050908060010154908060020154905083565b61020c6107a8565b6000546001600160a01b039081169116146102425760405162461bcd60e51b815260040161023990610e78565b60405180910390fd5b60005b81518110156102725761026a82828151811061025d57fe5b6020026020010151610804565b600101610245565b5050565b61027e6107a8565b6000546001600160a01b039081169116146102ab5760405162461bcd60e51b815260040161023990610e78565b600080546040516001600160a01b03909116907f8be0079c531659141344cd1fd0a4f28419497f9722a3daafe3b4186f6b6457e0908390a3600080546001600160a01b0319169055565b6001545b90565b6000546001600160a01b031690565b61031361092a565b600061031e83610669565b805160209182012060008181526002909252604090912054909150806103565760405162461bcd60e51b815260040161023990610d16565b60018082038154811061036557fe5b600091825260209182902060408051600393909302909101805460026001821615610100026000190190911604601f81018590049094028301608090810190925260608301848152929390928492909184918401828280156104085780601f106103dd57610100808354040283529160200191610408565b820191906000526020600020905b8154815290600101906020018083116103eb57829003601f168201915b505050505081526020016001820154815260200160028201548152505092505050919050565b6104366107a8565b6000546001600160a01b039081169116146104635760405162461bcd60e51b815260040161023990610e78565b6001600160a01b0381166104895760405162461bcd60e51b815260040161023990610d5e565b600080546040516001600160a01b03808516939216917f8be0079c531659141344cd1fd0a4f28419497f9722a3daafe3b4186f6b6457e091a3600080546001600160a01b0319166001600160a01b0392909216919091179055565b6104ec6107a8565b6000546001600160a01b039081169116146105195760405162461bcd60e51b815260040161023990610e78565b8281146105385760405162461bcd60e51b815260040161023990610ded565b60005b8381101561066257600085858381811061055157fe5b90506020028101906105639190610f35565b8080601f01602080910402602001604051908101604052809392919081815260200183838082843760009201829052509394508792508691508590508181106105a857fe5b90506020020135905060006105bc83610669565b805160209182012060008181526002909252604090912054909150806105f45760405162461bcd60e51b815260040161023990610e33565b8260018083038154811061060457fe5b9060005260206000209060030201600201819055507f05b0e3546b37c788d01ccb3d1c8a6329795f32a6b78cb3bfe6782bd86d0e26fe848460405161064a929190610ccf565b60405180910390a150506001909201915061053b9050565b5050505050565b606060008290506000815167ffffffffffffffff8111801561068a57600080fd5b506040519080825280601f01601f1916602001820160405280156106b5576020820181803683370190505b50905060005b82518110156107a057604160f81b8382815181106106d557fe5b01602001516001600160f81b031916108015906107105750605a60f81b8382815181106106fe57fe5b01602001516001600160f81b03191611155b1561075d5782818151811061072157fe5b602001015160f81c60f81b60f81c60200160f81b82828151811061074157fe5b60200101906001600160f81b031916908160001a905350610798565b82818151811061076957fe5b602001015160f81c60f81b82828151811061078057fe5b60200101906001600160f81b031916908160001a9053505b6001016106bb565b509392505050565b6000333014156107ff57600080368080601f0160208091040260200160405190810160405280939291908181526020018383808284376000920191909152505050503601516001600160a01b031691506102f99050565b503390565b8051518015801590610817575060208111155b6108335760405162461bcd60e51b815260040161023990610ead565b60006108428360000151610669565b8051602091820120600081815260029092526040909120549091501561087a5760405162461bcd60e51b815260040161023990610da4565b6001805480820182556000919091528351805185926003027fb10e2d527612073b26eecdfd717e6a320cf44b4afac2b0732d9fcbe2b7fa0cf601916108c49183916020019061094b565b50602082810151600180840191909155604093840151600293840155546000858152929091529082902055517fa1551daaa553ebc192df9198fc7d3d7e68b02a9be07fc92605cccd0d935d2c009061091d908590610ef0565b60405180910390a1505050565b60405180606001604052806060815260200160008152602001600081525090565b828054600181600116156101000203166002900490600052602060002090601f01602090048101928261098157600085556109c7565b82601f1061099a57805160ff19168380011785556109c7565b828001600101855582156109c7579182015b828111156109c75782518255916020019190600101906109ac565b506109d39291506109d7565b5090565b5b808211156109d357600081556001016109d8565b60008083601f8401126109fd578182fd5b50813567ffffffffffffffff811115610a14578182fd5b6020830191508360208083028501011115610a2e57600080fd5b9250929050565b600082601f830112610a45578081fd5b813567ffffffffffffffff811115610a5957fe5b610a6c601f8201601f1916602001610f7a565b818152846020838601011115610a80578283fd5b816020850160208301379081016020019190915292915050565b600060208284031215610aab578081fd5b81356001600160a01b0381168114610ac1578182fd5b9392505050565b60008060008060408587031215610add578283fd5b843567ffffffffffffffff80821115610af4578485fd5b610b00888389016109ec565b90965094506020870135915080821115610b18578384fd5b50610b25878288016109ec565b95989497509550505050565b60006020808385031215610b43578182fd5b823567ffffffffffffffff80821115610b5a578384fd5b818501915085601f830112610b6d578384fd5b813581811115610b7957fe5b610b868485830201610f7a565b81815284810190848601875b84811015610c0e57813587016060818d03601f19011215610bb157898afd5b60408051606081018181108a82111715610bc757fe5b8252828b013589811115610bd9578c8dfd5b610be78f8d83870101610a35565b825250828201358b8201526060909201359082015284529287019290870190600101610b92565b50909998505050505050505050565b600060208284031215610c2e578081fd5b813567ffffffffffffffff811115610c44578182fd5b610c5084828501610a35565b949350505050565b600060208284031215610c69578081fd5b5035919050565b60008151808452815b81811015610c9557602081850181015186830182015201610c79565b81811115610ca65782602083870101525b50601f01601f19169290920160200192915050565b6001600160a01b0391909116815260200190565b600060408252610ce26040830185610c70565b90508260208301529392505050565b600060608252610d046060830186610c70565b60208301949094525060400152919050565b60208082526028908201527f52617269746965732367657452617269747942794e616d653a20494e56414c49604082015267445f52415249545960c01b606082015260800190565b60208082526026908201527f4f776e61626c653a206e6577206f776e657220697320746865207a65726f206160408201526564647265737360d01b606082015260800190565b60208082526029908201527f5261726974696573235f6164645261726974793a205241524954595f414c524560408201526810511657d05111115160ba1b606082015260800190565b60208082526026908201527f5261726974696573237570646174655072696365733a204c454e4754485f4d496040820152650a69a82a886960d31b606082015260800190565b60208082526025908201527f5261726974696573237570646174655072696365733a20494e56414c49445f52604082015264415249545960d81b606082015260800190565b6020808252818101527f4f776e61626c653a2063616c6c6572206973206e6f7420746865206f776e6572604082015260600190565b60208082526023908201527f5261726974696573235f6164645261726974793a20494e56414c49445f4c454e60408201526208ea8960eb1b606082015260800190565b600060208252825160606020840152610f0c6080840182610c70565b905060208401516040840152604084015160608401528091505092915050565b90815260200190565b6000808335601e19843603018112610f4b578283fd5b83018035915067ffffffffffffffff821115610f65578283fd5b602001915036819003821315610a2e57600080fd5b60405181810167ffffffffffffffff81118282101715610f9657fe5b60405291905056fea2646970667358221220d9efd409721b8a99ffa8a460513d485a4e395cfaf200a7dcaea94331f51febe464736f6c634300070600338be0079c531659141344cd1fd0a4f28419497f9722a3daafe3b4186f6b6457e0",
					"opcodes": "PUSH1 0x80 PUSH1 0x40 MSTORE CALLVALUE DUP1 ISZERO PUSH3 0x11 JUMPI PUSH1 0x0 DUP1 REVERT JUMPDEST POP PUSH1 0x40 MLOAD PUSH3 0x184E CODESIZE SUB DUP1 PUSH3 0x184E DUP4 CODECOPY DUP2 ADD PUSH1 0x40 DUP2 SWAP1 MSTORE PUSH3 0x34 SWAP2 PUSH3 0x51E JUMP JUMPDEST PUSH3 0x3E PUSH3 0x8D JUMP JUMPDEST PUSH3 0x49 DUP3 PUSH3 0xD4 JUMP JUMPDEST PUSH1 0x0 JUMPDEST DUP2 MLOAD DUP2 LT ISZERO PUSH3 0x84 JUMPI PUSH3 0x7B DUP3 DUP3 DUP2 MLOAD DUP2 LT PUSH3 0x67 JUMPI INVALID JUMPDEST PUSH1 0x20 MUL PUSH1 0x20 ADD ADD MLOAD PUSH3 0x18A PUSH1 0x20 SHL PUSH1 0x20 SHR JUMP JUMPDEST PUSH1 0x1 ADD PUSH3 0x4C JUMP JUMPDEST POP POP POP PUSH3 0x84A JUMP JUMPDEST PUSH1 0x0 PUSH3 0x99 PUSH3 0x2C8 JUMP JUMPDEST PUSH1 0x0 DUP1 SLOAD PUSH1 0x1 PUSH1 0x1 PUSH1 0xA0 SHL SUB NOT AND PUSH1 0x1 PUSH1 0x1 PUSH1 0xA0 SHL SUB DUP4 AND SWAP1 DUP2 OR DUP3 SSTORE PUSH1 0x40 MLOAD SWAP3 SWAP4 POP SWAP2 PUSH1 0x0 DUP1 MLOAD PUSH1 0x20 PUSH3 0x182E DUP4 CODECOPY DUP2 MLOAD SWAP2 MSTORE SWAP1 DUP3 SWAP1 LOG3 POP JUMP JUMPDEST PUSH3 0xDE PUSH3 0x2C8 JUMP JUMPDEST PUSH1 0x0 SLOAD PUSH1 0x1 PUSH1 0x1 PUSH1 0xA0 SHL SUB SWAP1 DUP2 AND SWAP2 AND EQ PUSH3 0x117 JUMPI PUSH1 0x40 MLOAD PUSH3 0x461BCD PUSH1 0xE5 SHL DUP2 MSTORE PUSH1 0x4 ADD PUSH3 0x10E SWAP1 PUSH3 0x728 JUMP JUMPDEST PUSH1 0x40 MLOAD DUP1 SWAP2 SUB SWAP1 REVERT JUMPDEST PUSH1 0x1 PUSH1 0x1 PUSH1 0xA0 SHL SUB DUP2 AND PUSH3 0x140 JUMPI PUSH1 0x40 MLOAD PUSH3 0x461BCD PUSH1 0xE5 SHL DUP2 MSTORE PUSH1 0x4 ADD PUSH3 0x10E SWAP1 PUSH3 0x699 JUMP JUMPDEST PUSH1 0x0 DUP1 SLOAD PUSH1 0x40 MLOAD PUSH1 0x1 PUSH1 0x1 PUSH1 0xA0 SHL SUB DUP1 DUP6 AND SWAP4 SWAP3 AND SWAP2 PUSH1 0x0 DUP1 MLOAD PUSH1 0x20 PUSH3 0x182E DUP4 CODECOPY DUP2 MLOAD SWAP2 MSTORE SWAP2 LOG3 PUSH1 0x0 DUP1 SLOAD PUSH1 0x1 PUSH1 0x1 PUSH1 0xA0 SHL SUB NOT AND PUSH1 0x1 PUSH1 0x1 PUSH1 0xA0 SHL SUB SWAP3 SWAP1 SWAP3 AND SWAP2 SWAP1 SWAP2 OR SWAP1 SSTORE JUMP JUMPDEST DUP1 MLOAD MLOAD DUP1 ISZERO DUP1 ISZERO SWAP1 PUSH3 0x19E JUMPI POP PUSH1 0x20 DUP2 GT ISZERO JUMPDEST PUSH3 0x1BD JUMPI PUSH1 0x40 MLOAD PUSH3 0x461BCD PUSH1 0xE5 SHL DUP2 MSTORE PUSH1 0x4 ADD PUSH3 0x10E SWAP1 PUSH3 0x75D JUMP JUMPDEST PUSH1 0x0 PUSH3 0x1D9 DUP4 PUSH1 0x0 ADD MLOAD PUSH3 0x327 PUSH1 0x20 SHL PUSH3 0x669 OR PUSH1 0x20 SHR JUMP JUMPDEST DUP1 MLOAD PUSH1 0x20 SWAP2 DUP3 ADD KECCAK256 PUSH1 0x0 DUP2 DUP2 MSTORE PUSH1 0x2 SWAP1 SWAP3 MSTORE PUSH1 0x40 SWAP1 SWAP2 KECCAK256 SLOAD SWAP1 SWAP2 POP ISZERO PUSH3 0x214 JUMPI PUSH1 0x40 MLOAD PUSH3 0x461BCD PUSH1 0xE5 SHL DUP2 MSTORE PUSH1 0x4 ADD PUSH3 0x10E SWAP1 PUSH3 0x6DF JUMP JUMPDEST PUSH1 0x1 DUP1 SLOAD DUP1 DUP3 ADD DUP3 SSTORE PUSH1 0x0 SWAP2 SWAP1 SWAP2 MSTORE DUP4 MLOAD DUP1 MLOAD DUP6 SWAP3 PUSH1 0x3 MUL PUSH32 0xB10E2D527612073B26EECDFD717E6A320CF44B4AFAC2B0732D9FCBE2B7FA0CF6 ADD SWAP2 PUSH3 0x260 SWAP2 DUP4 SWAP2 PUSH1 0x20 ADD SWAP1 PUSH3 0x472 JUMP JUMPDEST POP PUSH1 0x20 DUP3 DUP2 ADD MLOAD PUSH1 0x1 DUP1 DUP5 ADD SWAP2 SWAP1 SWAP2 SSTORE PUSH1 0x40 SWAP4 DUP5 ADD MLOAD PUSH1 0x2 SWAP4 DUP5 ADD SSTORE SLOAD PUSH1 0x0 DUP6 DUP2 MSTORE SWAP3 SWAP1 SWAP2 MSTORE SWAP1 DUP3 SWAP1 KECCAK256 SSTORE MLOAD PUSH32 0xA1551DAAA553EBC192DF9198FC7D3D7E68B02A9BE07FC92605CCCD0D935D2C00 SWAP1 PUSH3 0x2BB SWAP1 DUP6 SWAP1 PUSH3 0x7A0 JUMP JUMPDEST PUSH1 0x40 MLOAD DUP1 SWAP2 SUB SWAP1 LOG1 POP POP POP JUMP JUMPDEST PUSH1 0x0 CALLER ADDRESS EQ ISZERO PUSH3 0x321 JUMPI PUSH1 0x0 DUP1 CALLDATASIZE DUP1 DUP1 PUSH1 0x1F ADD PUSH1 0x20 DUP1 SWAP2 DIV MUL PUSH1 0x20 ADD PUSH1 0x40 MLOAD SWAP1 DUP2 ADD PUSH1 0x40 MSTORE DUP1 SWAP4 SWAP3 SWAP2 SWAP1 DUP2 DUP2 MSTORE PUSH1 0x20 ADD DUP4 DUP4 DUP1 DUP3 DUP5 CALLDATACOPY PUSH1 0x0 SWAP3 ADD SWAP2 SWAP1 SWAP2 MSTORE POP POP POP POP CALLDATASIZE ADD MLOAD PUSH1 0x1 PUSH1 0x1 PUSH1 0xA0 SHL SUB AND SWAP2 POP PUSH3 0x324 SWAP1 POP JUMP JUMPDEST POP CALLER JUMPDEST SWAP1 JUMP JUMPDEST PUSH1 0x60 PUSH1 0x0 DUP3 SWAP1 POP PUSH1 0x0 DUP2 MLOAD PUSH1 0x1 PUSH1 0x1 PUSH1 0x40 SHL SUB DUP2 GT DUP1 ISZERO PUSH3 0x348 JUMPI PUSH1 0x0 DUP1 REVERT JUMPDEST POP PUSH1 0x40 MLOAD SWAP1 DUP1 DUP3 MSTORE DUP1 PUSH1 0x1F ADD PUSH1 0x1F NOT AND PUSH1 0x20 ADD DUP3 ADD PUSH1 0x40 MSTORE DUP1 ISZERO PUSH3 0x374 JUMPI PUSH1 0x20 DUP3 ADD DUP2 DUP1 CALLDATASIZE DUP4 CALLDATACOPY ADD SWAP1 POP JUMPDEST POP SWAP1 POP PUSH1 0x0 JUMPDEST DUP3 MLOAD DUP2 LT ISZERO PUSH3 0x46A JUMPI PUSH1 0x41 PUSH1 0xF8 SHL DUP4 DUP3 DUP2 MLOAD DUP2 LT PUSH3 0x396 JUMPI INVALID JUMPDEST ADD PUSH1 0x20 ADD MLOAD PUSH1 0x1 PUSH1 0x1 PUSH1 0xF8 SHL SUB NOT AND LT DUP1 ISZERO SWAP1 PUSH3 0x3D3 JUMPI POP PUSH1 0x5A PUSH1 0xF8 SHL DUP4 DUP3 DUP2 MLOAD DUP2 LT PUSH3 0x3C1 JUMPI INVALID JUMPDEST ADD PUSH1 0x20 ADD MLOAD PUSH1 0x1 PUSH1 0x1 PUSH1 0xF8 SHL SUB NOT AND GT ISZERO JUMPDEST ISZERO PUSH3 0x424 JUMPI DUP3 DUP2 DUP2 MLOAD DUP2 LT PUSH3 0x3E6 JUMPI INVALID JUMPDEST PUSH1 0x20 ADD ADD MLOAD PUSH1 0xF8 SHR PUSH1 0xF8 SHL PUSH1 0xF8 SHR PUSH1 0x20 ADD PUSH1 0xF8 SHL DUP3 DUP3 DUP2 MLOAD DUP2 LT PUSH3 0x407 JUMPI INVALID JUMPDEST PUSH1 0x20 ADD ADD SWAP1 PUSH1 0x1 PUSH1 0x1 PUSH1 0xF8 SHL SUB NOT AND SWAP1 DUP2 PUSH1 0x0 BYTE SWAP1 MSTORE8 POP PUSH3 0x461 JUMP JUMPDEST DUP3 DUP2 DUP2 MLOAD DUP2 LT PUSH3 0x431 JUMPI INVALID JUMPDEST PUSH1 0x20 ADD ADD MLOAD PUSH1 0xF8 SHR PUSH1 0xF8 SHL DUP3 DUP3 DUP2 MLOAD DUP2 LT PUSH3 0x449 JUMPI INVALID JUMPDEST PUSH1 0x20 ADD ADD SWAP1 PUSH1 0x1 PUSH1 0x1 PUSH1 0xF8 SHL SUB NOT AND SWAP1 DUP2 PUSH1 0x0 BYTE SWAP1 MSTORE8 POP JUMPDEST PUSH1 0x1 ADD PUSH3 0x37A JUMP JUMPDEST POP SWAP4 SWAP3 POP POP POP JUMP JUMPDEST DUP3 DUP1 SLOAD PUSH1 0x1 DUP2 PUSH1 0x1 AND ISZERO PUSH2 0x100 MUL SUB AND PUSH1 0x2 SWAP1 DIV SWAP1 PUSH1 0x0 MSTORE PUSH1 0x20 PUSH1 0x0 KECCAK256 SWAP1 PUSH1 0x1F ADD PUSH1 0x20 SWAP1 DIV DUP2 ADD SWAP3 DUP3 PUSH3 0x4AA JUMPI PUSH1 0x0 DUP6 SSTORE PUSH3 0x4F5 JUMP JUMPDEST DUP3 PUSH1 0x1F LT PUSH3 0x4C5 JUMPI DUP1 MLOAD PUSH1 0xFF NOT AND DUP4 DUP1 ADD OR DUP6 SSTORE PUSH3 0x4F5 JUMP JUMPDEST DUP3 DUP1 ADD PUSH1 0x1 ADD DUP6 SSTORE DUP3 ISZERO PUSH3 0x4F5 JUMPI SWAP2 DUP3 ADD JUMPDEST DUP3 DUP2 GT ISZERO PUSH3 0x4F5 JUMPI DUP3 MLOAD DUP3 SSTORE SWAP2 PUSH1 0x20 ADD SWAP2 SWAP1 PUSH1 0x1 ADD SWAP1 PUSH3 0x4D8 JUMP JUMPDEST POP PUSH3 0x503 SWAP3 SWAP2 POP PUSH3 0x507 JUMP JUMPDEST POP SWAP1 JUMP JUMPDEST JUMPDEST DUP1 DUP3 GT ISZERO PUSH3 0x503 JUMPI PUSH1 0x0 DUP2 SSTORE PUSH1 0x1 ADD PUSH3 0x508 JUMP JUMPDEST PUSH1 0x0 DUP1 PUSH1 0x40 DUP4 DUP6 SUB SLT ISZERO PUSH3 0x531 JUMPI DUP2 DUP3 REVERT JUMPDEST DUP3 MLOAD PUSH1 0x1 PUSH1 0x1 PUSH1 0xA0 SHL SUB DUP2 AND DUP2 EQ PUSH3 0x548 JUMPI DUP3 DUP4 REVERT JUMPDEST PUSH1 0x20 DUP5 ADD MLOAD SWAP1 SWAP3 POP PUSH1 0x1 PUSH1 0x1 PUSH1 0x40 SHL SUB DUP1 DUP3 GT ISZERO PUSH3 0x565 JUMPI DUP3 DUP4 REVERT JUMPDEST DUP2 DUP6 ADD SWAP2 POP DUP6 PUSH1 0x1F DUP4 ADD SLT PUSH3 0x579 JUMPI DUP3 DUP4 REVERT JUMPDEST DUP2 MLOAD DUP2 DUP2 GT ISZERO PUSH3 0x586 JUMPI INVALID JUMPDEST PUSH3 0x596 PUSH1 0x20 DUP1 DUP4 MUL ADD PUSH3 0x7F3 JUMP JUMPDEST DUP2 DUP2 MSTORE PUSH1 0x20 DUP1 DUP3 ADD SWAP2 SWAP1 DUP6 ADD DUP7 JUMPDEST DUP5 DUP2 LT ISZERO PUSH3 0x689 JUMPI DUP2 MLOAD DUP8 ADD PUSH1 0x1F NOT PUSH1 0x60 DUP3 DUP15 SUB DUP3 ADD SLT ISZERO PUSH3 0x5C6 JUMPI DUP10 DUP11 REVERT JUMPDEST PUSH1 0x40 MLOAD DUP1 PUSH1 0x60 DUP3 ADD LT DUP10 PUSH1 0x60 DUP4 ADD GT OR ISZERO PUSH3 0x5DE JUMPI INVALID JUMPDEST PUSH1 0x60 DUP2 ADD PUSH1 0x40 MSTORE PUSH1 0x20 DUP4 ADD MLOAD DUP10 DUP2 GT ISZERO PUSH3 0x5F7 JUMPI DUP12 DUP13 REVERT JUMPDEST DUP4 ADD PUSH1 0x3F DUP2 ADD DUP16 SGT PUSH3 0x608 JUMPI DUP12 DUP13 REVERT JUMPDEST PUSH1 0x20 DUP2 ADD MLOAD DUP11 DUP2 GT ISZERO PUSH3 0x618 JUMPI INVALID JUMPDEST PUSH3 0x62B PUSH1 0x20 DUP6 PUSH1 0x1F DUP5 ADD AND ADD PUSH3 0x7F3 JUMP JUMPDEST SWAP4 POP DUP1 DUP5 MSTORE DUP16 PUSH1 0x20 DUP1 DUP4 DUP6 ADD ADD ADD GT ISZERO PUSH3 0x644 JUMPI DUP13 DUP14 REVERT JUMPDEST PUSH3 0x657 DUP2 PUSH1 0x20 DUP7 ADD PUSH1 0x40 DUP6 ADD PUSH3 0x817 JUMP JUMPDEST POP POP SWAP1 DUP2 MSTORE PUSH1 0x40 DUP3 DUP2 ADD MLOAD PUSH1 0x20 DUP1 DUP5 ADD SWAP2 SWAP1 SWAP2 MSTORE PUSH1 0x60 SWAP1 SWAP4 ADD MLOAD SWAP1 DUP3 ADD MSTORE DUP6 MSTORE SWAP4 DUP5 ADD SWAP4 SWAP2 SWAP1 SWAP2 ADD SWAP1 PUSH1 0x1 ADD PUSH3 0x5A4 JUMP JUMPDEST POP SWAP7 SWAP10 SWAP1 SWAP9 POP SWAP7 POP POP POP POP POP POP POP JUMP JUMPDEST PUSH1 0x20 DUP1 DUP3 MSTORE PUSH1 0x26 SWAP1 DUP3 ADD MSTORE PUSH32 0x4F776E61626C653A206E6577206F776E657220697320746865207A65726F2061 PUSH1 0x40 DUP3 ADD MSTORE PUSH6 0x646472657373 PUSH1 0xD0 SHL PUSH1 0x60 DUP3 ADD MSTORE PUSH1 0x80 ADD SWAP1 JUMP JUMPDEST PUSH1 0x20 DUP1 DUP3 MSTORE PUSH1 0x29 SWAP1 DUP3 ADD MSTORE PUSH32 0x5261726974696573235F6164645261726974793A205241524954595F414C5245 PUSH1 0x40 DUP3 ADD MSTORE PUSH9 0x10511657D051111151 PUSH1 0xBA SHL PUSH1 0x60 DUP3 ADD MSTORE PUSH1 0x80 ADD SWAP1 JUMP JUMPDEST PUSH1 0x20 DUP1 DUP3 MSTORE DUP2 DUP2 ADD MSTORE PUSH32 0x4F776E61626C653A2063616C6C6572206973206E6F7420746865206F776E6572 PUSH1 0x40 DUP3 ADD MSTORE PUSH1 0x60 ADD SWAP1 JUMP JUMPDEST PUSH1 0x20 DUP1 DUP3 MSTORE PUSH1 0x23 SWAP1 DUP3 ADD MSTORE PUSH32 0x5261726974696573235F6164645261726974793A20494E56414C49445F4C454E PUSH1 0x40 DUP3 ADD MSTORE PUSH3 0x8EA89 PUSH1 0xEB SHL PUSH1 0x60 DUP3 ADD MSTORE PUSH1 0x80 ADD SWAP1 JUMP JUMPDEST PUSH1 0x0 PUSH1 0x20 DUP3 MSTORE DUP3 MLOAD PUSH1 0x60 PUSH1 0x20 DUP5 ADD MSTORE DUP1 MLOAD DUP1 PUSH1 0x80 DUP6 ADD MSTORE PUSH3 0x7CA DUP2 PUSH1 0xA0 DUP7 ADD PUSH1 0x20 DUP6 ADD PUSH3 0x817 JUMP JUMPDEST PUSH1 0x20 DUP6 ADD MLOAD PUSH1 0x40 DUP6 DUP2 ADD SWAP2 SWAP1 SWAP2 MSTORE SWAP1 SWAP5 ADD MLOAD PUSH1 0x60 DUP5 ADD MSTORE POP POP PUSH1 0xA0 PUSH1 0x1F SWAP1 SWAP3 ADD PUSH1 0x1F NOT AND ADD ADD SWAP1 JUMP JUMPDEST PUSH1 0x40 MLOAD DUP2 DUP2 ADD PUSH1 0x1 PUSH1 0x1 PUSH1 0x40 SHL SUB DUP2 GT DUP3 DUP3 LT OR ISZERO PUSH3 0x80F JUMPI INVALID JUMPDEST PUSH1 0x40 MSTORE SWAP2 SWAP1 POP JUMP JUMPDEST PUSH1 0x0 JUMPDEST DUP4 DUP2 LT ISZERO PUSH3 0x834 JUMPI DUP2 DUP2 ADD MLOAD DUP4 DUP3 ADD MSTORE PUSH1 0x20 ADD PUSH3 0x81A JUMP JUMPDEST DUP4 DUP2 GT ISZERO PUSH3 0x844 JUMPI PUSH1 0x0 DUP5 DUP5 ADD MSTORE JUMPDEST POP POP POP POP JUMP JUMPDEST PUSH2 0xFD4 DUP1 PUSH3 0x85A PUSH1 0x0 CODECOPY PUSH1 0x0 RETURN INVALID PUSH1 0x80 PUSH1 0x40 MSTORE CALLVALUE DUP1 ISZERO PUSH2 0x10 JUMPI PUSH1 0x0 DUP1 REVERT JUMPDEST POP PUSH1 0x4 CALLDATASIZE LT PUSH2 0x88 JUMPI PUSH1 0x0 CALLDATALOAD PUSH1 0xE0 SHR DUP1 PUSH4 0x8DA5CB5B GT PUSH2 0x5B JUMPI DUP1 PUSH4 0x8DA5CB5B EQ PUSH2 0xEA JUMPI DUP1 PUSH4 0xB5262333 EQ PUSH2 0xFF JUMPI DUP1 PUSH4 0xF2FDE38B EQ PUSH2 0x11F JUMPI DUP1 PUSH4 0xFA21CC7B EQ PUSH2 0x132 JUMPI PUSH2 0x88 JUMP JUMPDEST DUP1 PUSH4 0x17B8E1CF EQ PUSH2 0x8D JUMPI DUP1 PUSH4 0x5B26F8DA EQ PUSH2 0xB8 JUMPI DUP1 PUSH4 0x715018A6 EQ PUSH2 0xCD JUMPI DUP1 PUSH4 0x89E9C4D3 EQ PUSH2 0xD5 JUMPI JUMPDEST PUSH1 0x0 DUP1 REVERT JUMPDEST PUSH2 0xA0 PUSH2 0x9B CALLDATASIZE PUSH1 0x4 PUSH2 0xC58 JUMP JUMPDEST PUSH2 0x145 JUMP JUMPDEST PUSH1 0x40 MLOAD PUSH2 0xAF SWAP4 SWAP3 SWAP2 SWAP1 PUSH2 0xCF1 JUMP JUMPDEST PUSH1 0x40 MLOAD DUP1 SWAP2 SUB SWAP1 RETURN JUMPDEST PUSH2 0xCB PUSH2 0xC6 CALLDATASIZE PUSH1 0x4 PUSH2 0xB31 JUMP JUMPDEST PUSH2 0x204 JUMP JUMPDEST STOP JUMPDEST PUSH2 0xCB PUSH2 0x276 JUMP JUMPDEST PUSH2 0xDD PUSH2 0x2F5 JUMP JUMPDEST PUSH1 0x40 MLOAD PUSH2 0xAF SWAP2 SWAP1 PUSH2 0xF2C JUMP JUMPDEST PUSH2 0xF2 PUSH2 0x2FC JUMP JUMPDEST PUSH1 0x40 MLOAD PUSH2 0xAF SWAP2 SWAP1 PUSH2 0xCBB JUMP JUMPDEST PUSH2 0x112 PUSH2 0x10D CALLDATASIZE PUSH1 0x4 PUSH2 0xC1D JUMP JUMPDEST PUSH2 0x30B JUMP JUMPDEST PUSH1 0x40 MLOAD PUSH2 0xAF SWAP2 SWAP1 PUSH2 0xEF0 JUMP JUMPDEST PUSH2 0xCB PUSH2 0x12D CALLDATASIZE PUSH1 0x4 PUSH2 0xA9A JUMP JUMPDEST PUSH2 0x42E JUMP JUMPDEST PUSH2 0xCB PUSH2 0x140 CALLDATASIZE PUSH1 0x4 PUSH2 0xAC8 JUMP JUMPDEST PUSH2 0x4E4 JUMP JUMPDEST PUSH1 0x1 DUP2 DUP2 SLOAD DUP2 LT PUSH2 0x155 JUMPI PUSH1 0x0 DUP1 REVERT JUMPDEST PUSH1 0x0 SWAP2 DUP3 MSTORE PUSH1 0x20 SWAP2 DUP3 SWAP1 KECCAK256 PUSH1 0x3 SWAP2 SWAP1 SWAP2 MUL ADD DUP1 SLOAD PUSH1 0x40 DUP1 MLOAD PUSH1 0x2 PUSH1 0x1 DUP5 AND ISZERO PUSH2 0x100 MUL PUSH1 0x0 NOT ADD SWAP1 SWAP4 AND SWAP3 SWAP1 SWAP3 DIV PUSH1 0x1F DUP2 ADD DUP6 SWAP1 DIV DUP6 MUL DUP4 ADD DUP6 ADD SWAP1 SWAP2 MSTORE DUP1 DUP3 MSTORE SWAP2 SWAP4 POP SWAP2 DUP4 SWAP2 SWAP1 DUP4 ADD DUP3 DUP3 DUP1 ISZERO PUSH2 0x1EE JUMPI DUP1 PUSH1 0x1F LT PUSH2 0x1C3 JUMPI PUSH2 0x100 DUP1 DUP4 SLOAD DIV MUL DUP4 MSTORE SWAP2 PUSH1 0x20 ADD SWAP2 PUSH2 0x1EE JUMP JUMPDEST DUP3 ADD SWAP2 SWAP1 PUSH1 0x0 MSTORE PUSH1 0x20 PUSH1 0x0 KECCAK256 SWAP1 JUMPDEST DUP2 SLOAD DUP2 MSTORE SWAP1 PUSH1 0x1 ADD SWAP1 PUSH1 0x20 ADD DUP1 DUP4 GT PUSH2 0x1D1 JUMPI DUP3 SWAP1 SUB PUSH1 0x1F AND DUP3 ADD SWAP2 JUMPDEST POP POP POP POP POP SWAP1 DUP1 PUSH1 0x1 ADD SLOAD SWAP1 DUP1 PUSH1 0x2 ADD SLOAD SWAP1 POP DUP4 JUMP JUMPDEST PUSH2 0x20C PUSH2 0x7A8 JUMP JUMPDEST PUSH1 0x0 SLOAD PUSH1 0x1 PUSH1 0x1 PUSH1 0xA0 SHL SUB SWAP1 DUP2 AND SWAP2 AND EQ PUSH2 0x242 JUMPI PUSH1 0x40 MLOAD PUSH3 0x461BCD PUSH1 0xE5 SHL DUP2 MSTORE PUSH1 0x4 ADD PUSH2 0x239 SWAP1 PUSH2 0xE78 JUMP JUMPDEST PUSH1 0x40 MLOAD DUP1 SWAP2 SUB SWAP1 REVERT JUMPDEST PUSH1 0x0 JUMPDEST DUP2 MLOAD DUP2 LT ISZERO PUSH2 0x272 JUMPI PUSH2 0x26A DUP3 DUP3 DUP2 MLOAD DUP2 LT PUSH2 0x25D JUMPI INVALID JUMPDEST PUSH1 0x20 MUL PUSH1 0x20 ADD ADD MLOAD PUSH2 0x804 JUMP JUMPDEST PUSH1 0x1 ADD PUSH2 0x245 JUMP JUMPDEST POP POP JUMP JUMPDEST PUSH2 0x27E PUSH2 0x7A8 JUMP JUMPDEST PUSH1 0x0 SLOAD PUSH1 0x1 PUSH1 0x1 PUSH1 0xA0 SHL SUB SWAP1 DUP2 AND SWAP2 AND EQ PUSH2 0x2AB JUMPI PUSH1 0x40 MLOAD PUSH3 0x461BCD PUSH1 0xE5 SHL DUP2 MSTORE PUSH1 0x4 ADD PUSH2 0x239 SWAP1 PUSH2 0xE78 JUMP JUMPDEST PUSH1 0x0 DUP1 SLOAD PUSH1 0x40 MLOAD PUSH1 0x1 PUSH1 0x1 PUSH1 0xA0 SHL SUB SWAP1 SWAP2 AND SWAP1 PUSH32 0x8BE0079C531659141344CD1FD0A4F28419497F9722A3DAAFE3B4186F6B6457E0 SWAP1 DUP4 SWAP1 LOG3 PUSH1 0x0 DUP1 SLOAD PUSH1 0x1 PUSH1 0x1 PUSH1 0xA0 SHL SUB NOT AND SWAP1 SSTORE JUMP JUMPDEST PUSH1 0x1 SLOAD JUMPDEST SWAP1 JUMP JUMPDEST PUSH1 0x0 SLOAD PUSH1 0x1 PUSH1 0x1 PUSH1 0xA0 SHL SUB AND SWAP1 JUMP JUMPDEST PUSH2 0x313 PUSH2 0x92A JUMP JUMPDEST PUSH1 0x0 PUSH2 0x31E DUP4 PUSH2 0x669 JUMP JUMPDEST DUP1 MLOAD PUSH1 0x20 SWAP2 DUP3 ADD KECCAK256 PUSH1 0x0 DUP2 DUP2 MSTORE PUSH1 0x2 SWAP1 SWAP3 MSTORE PUSH1 0x40 SWAP1 SWAP2 KECCAK256 SLOAD SWAP1 SWAP2 POP DUP1 PUSH2 0x356 JUMPI PUSH1 0x40 MLOAD PUSH3 0x461BCD PUSH1 0xE5 SHL DUP2 MSTORE PUSH1 0x4 ADD PUSH2 0x239 SWAP1 PUSH2 0xD16 JUMP JUMPDEST PUSH1 0x1 DUP1 DUP3 SUB DUP2 SLOAD DUP2 LT PUSH2 0x365 JUMPI INVALID JUMPDEST PUSH1 0x0 SWAP2 DUP3 MSTORE PUSH1 0x20 SWAP2 DUP3 SWAP1 KECCAK256 PUSH1 0x40 DUP1 MLOAD PUSH1 0x3 SWAP4 SWAP1 SWAP4 MUL SWAP1 SWAP2 ADD DUP1 SLOAD PUSH1 0x2 PUSH1 0x1 DUP3 AND ISZERO PUSH2 0x100 MUL PUSH1 0x0 NOT ADD SWAP1 SWAP2 AND DIV PUSH1 0x1F DUP2 ADD DUP6 SWAP1 DIV SWAP1 SWAP5 MUL DUP4 ADD PUSH1 0x80 SWAP1 DUP2 ADD SWAP1 SWAP3 MSTORE PUSH1 0x60 DUP4 ADD DUP5 DUP2 MSTORE SWAP3 SWAP4 SWAP1 SWAP3 DUP5 SWAP3 SWAP1 SWAP2 DUP5 SWAP2 DUP5 ADD DUP3 DUP3 DUP1 ISZERO PUSH2 0x408 JUMPI DUP1 PUSH1 0x1F LT PUSH2 0x3DD JUMPI PUSH2 0x100 DUP1 DUP4 SLOAD DIV MUL DUP4 MSTORE SWAP2 PUSH1 0x20 ADD SWAP2 PUSH2 0x408 JUMP JUMPDEST DUP3 ADD SWAP2 SWAP1 PUSH1 0x0 MSTORE PUSH1 0x20 PUSH1 0x0 KECCAK256 SWAP1 JUMPDEST DUP2 SLOAD DUP2 MSTORE SWAP1 PUSH1 0x1 ADD SWAP1 PUSH1 0x20 ADD DUP1 DUP4 GT PUSH2 0x3EB JUMPI DUP3 SWAP1 SUB PUSH1 0x1F AND DUP3 ADD SWAP2 JUMPDEST POP POP POP POP POP DUP2 MSTORE PUSH1 0x20 ADD PUSH1 0x1 DUP3 ADD SLOAD DUP2 MSTORE PUSH1 0x20 ADD PUSH1 0x2 DUP3 ADD SLOAD DUP2 MSTORE POP POP SWAP3 POP POP POP SWAP2 SWAP1 POP JUMP JUMPDEST PUSH2 0x436 PUSH2 0x7A8 JUMP JUMPDEST PUSH1 0x0 SLOAD PUSH1 0x1 PUSH1 0x1 PUSH1 0xA0 SHL SUB SWAP1 DUP2 AND SWAP2 AND EQ PUSH2 0x463 JUMPI PUSH1 0x40 MLOAD PUSH3 0x461BCD PUSH1 0xE5 SHL DUP2 MSTORE PUSH1 0x4 ADD PUSH2 0x239 SWAP1 PUSH2 0xE78 JUMP JUMPDEST PUSH1 0x1 PUSH1 0x1 PUSH1 0xA0 SHL SUB DUP2 AND PUSH2 0x489 JUMPI PUSH1 0x40 MLOAD PUSH3 0x461BCD PUSH1 0xE5 SHL DUP2 MSTORE PUSH1 0x4 ADD PUSH2 0x239 SWAP1 PUSH2 0xD5E JUMP JUMPDEST PUSH1 0x0 DUP1 SLOAD PUSH1 0x40 MLOAD PUSH1 0x1 PUSH1 0x1 PUSH1 0xA0 SHL SUB DUP1 DUP6 AND SWAP4 SWAP3 AND SWAP2 PUSH32 0x8BE0079C531659141344CD1FD0A4F28419497F9722A3DAAFE3B4186F6B6457E0 SWAP2 LOG3 PUSH1 0x0 DUP1 SLOAD PUSH1 0x1 PUSH1 0x1 PUSH1 0xA0 SHL SUB NOT AND PUSH1 0x1 PUSH1 0x1 PUSH1 0xA0 SHL SUB SWAP3 SWAP1 SWAP3 AND SWAP2 SWAP1 SWAP2 OR SWAP1 SSTORE JUMP JUMPDEST PUSH2 0x4EC PUSH2 0x7A8 JUMP JUMPDEST PUSH1 0x0 SLOAD PUSH1 0x1 PUSH1 0x1 PUSH1 0xA0 SHL SUB SWAP1 DUP2 AND SWAP2 AND EQ PUSH2 0x519 JUMPI PUSH1 0x40 MLOAD PUSH3 0x461BCD PUSH1 0xE5 SHL DUP2 MSTORE PUSH1 0x4 ADD PUSH2 0x239 SWAP1 PUSH2 0xE78 JUMP JUMPDEST DUP3 DUP2 EQ PUSH2 0x538 JUMPI PUSH1 0x40 MLOAD PUSH3 0x461BCD PUSH1 0xE5 SHL DUP2 MSTORE PUSH1 0x4 ADD PUSH2 0x239 SWAP1 PUSH2 0xDED JUMP JUMPDEST PUSH1 0x0 JUMPDEST DUP4 DUP2 LT ISZERO PUSH2 0x662 JUMPI PUSH1 0x0 DUP6 DUP6 DUP4 DUP2 DUP2 LT PUSH2 0x551 JUMPI INVALID JUMPDEST SWAP1 POP PUSH1 0x20 MUL DUP2 ADD SWAP1 PUSH2 0x563 SWAP2 SWAP1 PUSH2 0xF35 JUMP JUMPDEST DUP1 DUP1 PUSH1 0x1F ADD PUSH1 0x20 DUP1 SWAP2 DIV MUL PUSH1 0x20 ADD PUSH1 0x40 MLOAD SWAP1 DUP2 ADD PUSH1 0x40 MSTORE DUP1 SWAP4 SWAP3 SWAP2 SWAP1 DUP2 DUP2 MSTORE PUSH1 0x20 ADD DUP4 DUP4 DUP1 DUP3 DUP5 CALLDATACOPY PUSH1 0x0 SWAP3 ADD DUP3 SWAP1 MSTORE POP SWAP4 SWAP5 POP DUP8 SWAP3 POP DUP7 SWAP2 POP DUP6 SWAP1 POP DUP2 DUP2 LT PUSH2 0x5A8 JUMPI INVALID JUMPDEST SWAP1 POP PUSH1 0x20 MUL ADD CALLDATALOAD SWAP1 POP PUSH1 0x0 PUSH2 0x5BC DUP4 PUSH2 0x669 JUMP JUMPDEST DUP1 MLOAD PUSH1 0x20 SWAP2 DUP3 ADD KECCAK256 PUSH1 0x0 DUP2 DUP2 MSTORE PUSH1 0x2 SWAP1 SWAP3 MSTORE PUSH1 0x40 SWAP1 SWAP2 KECCAK256 SLOAD SWAP1 SWAP2 POP DUP1 PUSH2 0x5F4 JUMPI PUSH1 0x40 MLOAD PUSH3 0x461BCD PUSH1 0xE5 SHL DUP2 MSTORE PUSH1 0x4 ADD PUSH2 0x239 SWAP1 PUSH2 0xE33 JUMP JUMPDEST DUP3 PUSH1 0x1 DUP1 DUP4 SUB DUP2 SLOAD DUP2 LT PUSH2 0x604 JUMPI INVALID JUMPDEST SWAP1 PUSH1 0x0 MSTORE PUSH1 0x20 PUSH1 0x0 KECCAK256 SWAP1 PUSH1 0x3 MUL ADD PUSH1 0x2 ADD DUP2 SWAP1 SSTORE POP PUSH32 0x5B0E3546B37C788D01CCB3D1C8A6329795F32A6B78CB3BFE6782BD86D0E26FE DUP5 DUP5 PUSH1 0x40 MLOAD PUSH2 0x64A SWAP3 SWAP2 SWAP1 PUSH2 0xCCF JUMP JUMPDEST PUSH1 0x40 MLOAD DUP1 SWAP2 SUB SWAP1 LOG1 POP POP PUSH1 0x1 SWAP1 SWAP3 ADD SWAP2 POP PUSH2 0x53B SWAP1 POP JUMP JUMPDEST POP POP POP POP POP JUMP JUMPDEST PUSH1 0x60 PUSH1 0x0 DUP3 SWAP1 POP PUSH1 0x0 DUP2 MLOAD PUSH8 0xFFFFFFFFFFFFFFFF DUP2 GT DUP1 ISZERO PUSH2 0x68A JUMPI PUSH1 0x0 DUP1 REVERT JUMPDEST POP PUSH1 0x40 MLOAD SWAP1 DUP1 DUP3 MSTORE DUP1 PUSH1 0x1F ADD PUSH1 0x1F NOT AND PUSH1 0x20 ADD DUP3 ADD PUSH1 0x40 MSTORE DUP1 ISZERO PUSH2 0x6B5 JUMPI PUSH1 0x20 DUP3 ADD DUP2 DUP1 CALLDATASIZE DUP4 CALLDATACOPY ADD SWAP1 POP JUMPDEST POP SWAP1 POP PUSH1 0x0 JUMPDEST DUP3 MLOAD DUP2 LT ISZERO PUSH2 0x7A0 JUMPI PUSH1 0x41 PUSH1 0xF8 SHL DUP4 DUP3 DUP2 MLOAD DUP2 LT PUSH2 0x6D5 JUMPI INVALID JUMPDEST ADD PUSH1 0x20 ADD MLOAD PUSH1 0x1 PUSH1 0x1 PUSH1 0xF8 SHL SUB NOT AND LT DUP1 ISZERO SWAP1 PUSH2 0x710 JUMPI POP PUSH1 0x5A PUSH1 0xF8 SHL DUP4 DUP3 DUP2 MLOAD DUP2 LT PUSH2 0x6FE JUMPI INVALID JUMPDEST ADD PUSH1 0x20 ADD MLOAD PUSH1 0x1 PUSH1 0x1 PUSH1 0xF8 SHL SUB NOT AND GT ISZERO JUMPDEST ISZERO PUSH2 0x75D JUMPI DUP3 DUP2 DUP2 MLOAD DUP2 LT PUSH2 0x721 JUMPI INVALID JUMPDEST PUSH1 0x20 ADD ADD MLOAD PUSH1 0xF8 SHR PUSH1 0xF8 SHL PUSH1 0xF8 SHR PUSH1 0x20 ADD PUSH1 0xF8 SHL DUP3 DUP3 DUP2 MLOAD DUP2 LT PUSH2 0x741 JUMPI INVALID JUMPDEST PUSH1 0x20 ADD ADD SWAP1 PUSH1 0x1 PUSH1 0x1 PUSH1 0xF8 SHL SUB NOT AND SWAP1 DUP2 PUSH1 0x0 BYTE SWAP1 MSTORE8 POP PUSH2 0x798 JUMP JUMPDEST DUP3 DUP2 DUP2 MLOAD DUP2 LT PUSH2 0x769 JUMPI INVALID JUMPDEST PUSH1 0x20 ADD ADD MLOAD PUSH1 0xF8 SHR PUSH1 0xF8 SHL DUP3 DUP3 DUP2 MLOAD DUP2 LT PUSH2 0x780 JUMPI INVALID JUMPDEST PUSH1 0x20 ADD ADD SWAP1 PUSH1 0x1 PUSH1 0x1 PUSH1 0xF8 SHL SUB NOT AND SWAP1 DUP2 PUSH1 0x0 BYTE SWAP1 MSTORE8 POP JUMPDEST PUSH1 0x1 ADD PUSH2 0x6BB JUMP JUMPDEST POP SWAP4 SWAP3 POP POP POP JUMP JUMPDEST PUSH1 0x0 CALLER ADDRESS EQ ISZERO PUSH2 0x7FF JUMPI PUSH1 0x0 DUP1 CALLDATASIZE DUP1 DUP1 PUSH1 0x1F ADD PUSH1 0x20 DUP1 SWAP2 DIV MUL PUSH1 0x20 ADD PUSH1 0x40 MLOAD SWAP1 DUP2 ADD PUSH1 0x40 MSTORE DUP1 SWAP4 SWAP3 SWAP2 SWAP1 DUP2 DUP2 MSTORE PUSH1 0x20 ADD DUP4 DUP4 DUP1 DUP3 DUP5 CALLDATACOPY PUSH1 0x0 SWAP3 ADD SWAP2 SWAP1 SWAP2 MSTORE POP POP POP POP CALLDATASIZE ADD MLOAD PUSH1 0x1 PUSH1 0x1 PUSH1 0xA0 SHL SUB AND SWAP2 POP PUSH2 0x2F9 SWAP1 POP JUMP JUMPDEST POP CALLER SWAP1 JUMP JUMPDEST DUP1 MLOAD MLOAD DUP1 ISZERO DUP1 ISZERO SWAP1 PUSH2 0x817 JUMPI POP PUSH1 0x20 DUP2 GT ISZERO JUMPDEST PUSH2 0x833 JUMPI PUSH1 0x40 MLOAD PUSH3 0x461BCD PUSH1 0xE5 SHL DUP2 MSTORE PUSH1 0x4 ADD PUSH2 0x239 SWAP1 PUSH2 0xEAD JUMP JUMPDEST PUSH1 0x0 PUSH2 0x842 DUP4 PUSH1 0x0 ADD MLOAD PUSH2 0x669 JUMP JUMPDEST DUP1 MLOAD PUSH1 0x20 SWAP2 DUP3 ADD KECCAK256 PUSH1 0x0 DUP2 DUP2 MSTORE PUSH1 0x2 SWAP1 SWAP3 MSTORE PUSH1 0x40 SWAP1 SWAP2 KECCAK256 SLOAD SWAP1 SWAP2 POP ISZERO PUSH2 0x87A JUMPI PUSH1 0x40 MLOAD PUSH3 0x461BCD PUSH1 0xE5 SHL DUP2 MSTORE PUSH1 0x4 ADD PUSH2 0x239 SWAP1 PUSH2 0xDA4 JUMP JUMPDEST PUSH1 0x1 DUP1 SLOAD DUP1 DUP3 ADD DUP3 SSTORE PUSH1 0x0 SWAP2 SWAP1 SWAP2 MSTORE DUP4 MLOAD DUP1 MLOAD DUP6 SWAP3 PUSH1 0x3 MUL PUSH32 0xB10E2D527612073B26EECDFD717E6A320CF44B4AFAC2B0732D9FCBE2B7FA0CF6 ADD SWAP2 PUSH2 0x8C4 SWAP2 DUP4 SWAP2 PUSH1 0x20 ADD SWAP1 PUSH2 0x94B JUMP JUMPDEST POP PUSH1 0x20 DUP3 DUP2 ADD MLOAD PUSH1 0x1 DUP1 DUP5 ADD SWAP2 SWAP1 SWAP2 SSTORE PUSH1 0x40 SWAP4 DUP5 ADD MLOAD PUSH1 0x2 SWAP4 DUP5 ADD SSTORE SLOAD PUSH1 0x0 DUP6 DUP2 MSTORE SWAP3 SWAP1 SWAP2 MSTORE SWAP1 DUP3 SWAP1 KECCAK256 SSTORE MLOAD PUSH32 0xA1551DAAA553EBC192DF9198FC7D3D7E68B02A9BE07FC92605CCCD0D935D2C00 SWAP1 PUSH2 0x91D SWAP1 DUP6 SWAP1 PUSH2 0xEF0 JUMP JUMPDEST PUSH1 0x40 MLOAD DUP1 SWAP2 SUB SWAP1 LOG1 POP POP POP JUMP JUMPDEST PUSH1 0x40 MLOAD DUP1 PUSH1 0x60 ADD PUSH1 0x40 MSTORE DUP1 PUSH1 0x60 DUP2 MSTORE PUSH1 0x20 ADD PUSH1 0x0 DUP2 MSTORE PUSH1 0x20 ADD PUSH1 0x0 DUP2 MSTORE POP SWAP1 JUMP JUMPDEST DUP3 DUP1 SLOAD PUSH1 0x1 DUP2 PUSH1 0x1 AND ISZERO PUSH2 0x100 MUL SUB AND PUSH1 0x2 SWAP1 DIV SWAP1 PUSH1 0x0 MSTORE PUSH1 0x20 PUSH1 0x0 KECCAK256 SWAP1 PUSH1 0x1F ADD PUSH1 0x20 SWAP1 DIV DUP2 ADD SWAP3 DUP3 PUSH2 0x981 JUMPI PUSH1 0x0 DUP6 SSTORE PUSH2 0x9C7 JUMP JUMPDEST DUP3 PUSH1 0x1F LT PUSH2 0x99A JUMPI DUP1 MLOAD PUSH1 0xFF NOT AND DUP4 DUP1 ADD OR DUP6 SSTORE PUSH2 0x9C7 JUMP JUMPDEST DUP3 DUP1 ADD PUSH1 0x1 ADD DUP6 SSTORE DUP3 ISZERO PUSH2 0x9C7 JUMPI SWAP2 DUP3 ADD JUMPDEST DUP3 DUP2 GT ISZERO PUSH2 0x9C7 JUMPI DUP3 MLOAD DUP3 SSTORE SWAP2 PUSH1 0x20 ADD SWAP2 SWAP1 PUSH1 0x1 ADD SWAP1 PUSH2 0x9AC JUMP JUMPDEST POP PUSH2 0x9D3 SWAP3 SWAP2 POP PUSH2 0x9D7 JUMP JUMPDEST POP SWAP1 JUMP JUMPDEST JUMPDEST DUP1 DUP3 GT ISZERO PUSH2 0x9D3 JUMPI PUSH1 0x0 DUP2 SSTORE PUSH1 0x1 ADD PUSH2 0x9D8 JUMP JUMPDEST PUSH1 0x0 DUP1 DUP4 PUSH1 0x1F DUP5 ADD SLT PUSH2 0x9FD JUMPI DUP2 DUP3 REVERT JUMPDEST POP DUP2 CALLDATALOAD PUSH8 0xFFFFFFFFFFFFFFFF DUP2 GT ISZERO PUSH2 0xA14 JUMPI DUP2 DUP3 REVERT JUMPDEST PUSH1 0x20 DUP4 ADD SWAP2 POP DUP4 PUSH1 0x20 DUP1 DUP4 MUL DUP6 ADD ADD GT ISZERO PUSH2 0xA2E JUMPI PUSH1 0x0 DUP1 REVERT JUMPDEST SWAP3 POP SWAP3 SWAP1 POP JUMP JUMPDEST PUSH1 0x0 DUP3 PUSH1 0x1F DUP4 ADD SLT PUSH2 0xA45 JUMPI DUP1 DUP2 REVERT JUMPDEST DUP2 CALLDATALOAD PUSH8 0xFFFFFFFFFFFFFFFF DUP2 GT ISZERO PUSH2 0xA59 JUMPI INVALID JUMPDEST PUSH2 0xA6C PUSH1 0x1F DUP3 ADD PUSH1 0x1F NOT AND PUSH1 0x20 ADD PUSH2 0xF7A JUMP JUMPDEST DUP2 DUP2 MSTORE DUP5 PUSH1 0x20 DUP4 DUP7 ADD ADD GT ISZERO PUSH2 0xA80 JUMPI DUP3 DUP4 REVERT JUMPDEST DUP2 PUSH1 0x20 DUP6 ADD PUSH1 0x20 DUP4 ADD CALLDATACOPY SWAP1 DUP2 ADD PUSH1 0x20 ADD SWAP2 SWAP1 SWAP2 MSTORE SWAP3 SWAP2 POP POP JUMP JUMPDEST PUSH1 0x0 PUSH1 0x20 DUP3 DUP5 SUB SLT ISZERO PUSH2 0xAAB JUMPI DUP1 DUP2 REVERT JUMPDEST DUP2 CALLDATALOAD PUSH1 0x1 PUSH1 0x1 PUSH1 0xA0 SHL SUB DUP2 AND DUP2 EQ PUSH2 0xAC1 JUMPI DUP2 DUP3 REVERT JUMPDEST SWAP4 SWAP3 POP POP POP JUMP JUMPDEST PUSH1 0x0 DUP1 PUSH1 0x0 DUP1 PUSH1 0x40 DUP6 DUP8 SUB SLT ISZERO PUSH2 0xADD JUMPI DUP3 DUP4 REVERT JUMPDEST DUP5 CALLDATALOAD PUSH8 0xFFFFFFFFFFFFFFFF DUP1 DUP3 GT ISZERO PUSH2 0xAF4 JUMPI DUP5 DUP6 REVERT JUMPDEST PUSH2 0xB00 DUP9 DUP4 DUP10 ADD PUSH2 0x9EC JUMP JUMPDEST SWAP1 SWAP7 POP SWAP5 POP PUSH1 0x20 DUP8 ADD CALLDATALOAD SWAP2 POP DUP1 DUP3 GT ISZERO PUSH2 0xB18 JUMPI DUP4 DUP5 REVERT JUMPDEST POP PUSH2 0xB25 DUP8 DUP3 DUP9 ADD PUSH2 0x9EC JUMP JUMPDEST SWAP6 SWAP9 SWAP5 SWAP8 POP SWAP6 POP POP POP POP JUMP JUMPDEST PUSH1 0x0 PUSH1 0x20 DUP1 DUP4 DUP6 SUB SLT ISZERO PUSH2 0xB43 JUMPI DUP2 DUP3 REVERT JUMPDEST DUP3 CALLDATALOAD PUSH8 0xFFFFFFFFFFFFFFFF DUP1 DUP3 GT ISZERO PUSH2 0xB5A JUMPI DUP4 DUP5 REVERT JUMPDEST DUP2 DUP6 ADD SWAP2 POP DUP6 PUSH1 0x1F DUP4 ADD SLT PUSH2 0xB6D JUMPI DUP4 DUP5 REVERT JUMPDEST DUP2 CALLDATALOAD DUP2 DUP2 GT ISZERO PUSH2 0xB79 JUMPI INVALID JUMPDEST PUSH2 0xB86 DUP5 DUP6 DUP4 MUL ADD PUSH2 0xF7A JUMP JUMPDEST DUP2 DUP2 MSTORE DUP5 DUP2 ADD SWAP1 DUP5 DUP7 ADD DUP8 JUMPDEST DUP5 DUP2 LT ISZERO PUSH2 0xC0E JUMPI DUP2 CALLDATALOAD DUP8 ADD PUSH1 0x60 DUP2 DUP14 SUB PUSH1 0x1F NOT ADD SLT ISZERO PUSH2 0xBB1 JUMPI DUP10 DUP11 REVERT JUMPDEST PUSH1 0x40 DUP1 MLOAD PUSH1 0x60 DUP2 ADD DUP2 DUP2 LT DUP11 DUP3 GT OR ISZERO PUSH2 0xBC7 JUMPI INVALID JUMPDEST DUP3 MSTORE DUP3 DUP12 ADD CALLDATALOAD DUP10 DUP2 GT ISZERO PUSH2 0xBD9 JUMPI DUP13 DUP14 REVERT JUMPDEST PUSH2 0xBE7 DUP16 DUP14 DUP4 DUP8 ADD ADD PUSH2 0xA35 JUMP JUMPDEST DUP3 MSTORE POP DUP3 DUP3 ADD CALLDATALOAD DUP12 DUP3 ADD MSTORE PUSH1 0x60 SWAP1 SWAP3 ADD CALLDATALOAD SWAP1 DUP3 ADD MSTORE DUP5 MSTORE SWAP3 DUP8 ADD SWAP3 SWAP1 DUP8 ADD SWAP1 PUSH1 0x1 ADD PUSH2 0xB92 JUMP JUMPDEST POP SWAP1 SWAP10 SWAP9 POP POP POP POP POP POP POP POP POP JUMP JUMPDEST PUSH1 0x0 PUSH1 0x20 DUP3 DUP5 SUB SLT ISZERO PUSH2 0xC2E JUMPI DUP1 DUP2 REVERT JUMPDEST DUP2 CALLDATALOAD PUSH8 0xFFFFFFFFFFFFFFFF DUP2 GT ISZERO PUSH2 0xC44 JUMPI DUP2 DUP3 REVERT JUMPDEST PUSH2 0xC50 DUP5 DUP3 DUP6 ADD PUSH2 0xA35 JUMP JUMPDEST SWAP5 SWAP4 POP POP POP POP JUMP JUMPDEST PUSH1 0x0 PUSH1 0x20 DUP3 DUP5 SUB SLT ISZERO PUSH2 0xC69 JUMPI DUP1 DUP2 REVERT JUMPDEST POP CALLDATALOAD SWAP2 SWAP1 POP JUMP JUMPDEST PUSH1 0x0 DUP2 MLOAD DUP1 DUP5 MSTORE DUP2 JUMPDEST DUP2 DUP2 LT ISZERO PUSH2 0xC95 JUMPI PUSH1 0x20 DUP2 DUP6 ADD DUP2 ADD MLOAD DUP7 DUP4 ADD DUP3 ADD MSTORE ADD PUSH2 0xC79 JUMP JUMPDEST DUP2 DUP2 GT ISZERO PUSH2 0xCA6 JUMPI DUP3 PUSH1 0x20 DUP4 DUP8 ADD ADD MSTORE JUMPDEST POP PUSH1 0x1F ADD PUSH1 0x1F NOT AND SWAP3 SWAP1 SWAP3 ADD PUSH1 0x20 ADD SWAP3 SWAP2 POP POP JUMP JUMPDEST PUSH1 0x1 PUSH1 0x1 PUSH1 0xA0 SHL SUB SWAP2 SWAP1 SWAP2 AND DUP2 MSTORE PUSH1 0x20 ADD SWAP1 JUMP JUMPDEST PUSH1 0x0 PUSH1 0x40 DUP3 MSTORE PUSH2 0xCE2 PUSH1 0x40 DUP4 ADD DUP6 PUSH2 0xC70 JUMP JUMPDEST SWAP1 POP DUP3 PUSH1 0x20 DUP4 ADD MSTORE SWAP4 SWAP3 POP POP POP JUMP JUMPDEST PUSH1 0x0 PUSH1 0x60 DUP3 MSTORE PUSH2 0xD04 PUSH1 0x60 DUP4 ADD DUP7 PUSH2 0xC70 JUMP JUMPDEST PUSH1 0x20 DUP4 ADD SWAP5 SWAP1 SWAP5 MSTORE POP PUSH1 0x40 ADD MSTORE SWAP2 SWAP1 POP JUMP JUMPDEST PUSH1 0x20 DUP1 DUP3 MSTORE PUSH1 0x28 SWAP1 DUP3 ADD MSTORE PUSH32 0x52617269746965732367657452617269747942794E616D653A20494E56414C49 PUSH1 0x40 DUP3 ADD MSTORE PUSH8 0x445F524152495459 PUSH1 0xC0 SHL PUSH1 0x60 DUP3 ADD MSTORE PUSH1 0x80 ADD SWAP1 JUMP JUMPDEST PUSH1 0x20 DUP1 DUP3 MSTORE PUSH1 0x26 SWAP1 DUP3 ADD MSTORE PUSH32 0x4F776E61626C653A206E6577206F776E657220697320746865207A65726F2061 PUSH1 0x40 DUP3 ADD MSTORE PUSH6 0x646472657373 PUSH1 0xD0 SHL PUSH1 0x60 DUP3 ADD MSTORE PUSH1 0x80 ADD SWAP1 JUMP JUMPDEST PUSH1 0x20 DUP1 DUP3 MSTORE PUSH1 0x29 SWAP1 DUP3 ADD MSTORE PUSH32 0x5261726974696573235F6164645261726974793A205241524954595F414C5245 PUSH1 0x40 DUP3 ADD MSTORE PUSH9 0x10511657D051111151 PUSH1 0xBA SHL PUSH1 0x60 DUP3 ADD MSTORE PUSH1 0x80 ADD SWAP1 JUMP JUMPDEST PUSH1 0x20 DUP1 DUP3 MSTORE PUSH1 0x26 SWAP1 DUP3 ADD MSTORE PUSH32 0x5261726974696573237570646174655072696365733A204C454E4754485F4D49 PUSH1 0x40 DUP3 ADD MSTORE PUSH6 0xA69A82A8869 PUSH1 0xD3 SHL PUSH1 0x60 DUP3 ADD MSTORE PUSH1 0x80 ADD SWAP1 JUMP JUMPDEST PUSH1 0x20 DUP1 DUP3 MSTORE PUSH1 0x25 SWAP1 DUP3 ADD MSTORE PUSH32 0x5261726974696573237570646174655072696365733A20494E56414C49445F52 PUSH1 0x40 DUP3 ADD MSTORE PUSH5 0x4152495459 PUSH1 0xD8 SHL PUSH1 0x60 DUP3 ADD MSTORE PUSH1 0x80 ADD SWAP1 JUMP JUMPDEST PUSH1 0x20 DUP1 DUP3 MSTORE DUP2 DUP2 ADD MSTORE PUSH32 0x4F776E61626C653A2063616C6C6572206973206E6F7420746865206F776E6572 PUSH1 0x40 DUP3 ADD MSTORE PUSH1 0x60 ADD SWAP1 JUMP JUMPDEST PUSH1 0x20 DUP1 DUP3 MSTORE PUSH1 0x23 SWAP1 DUP3 ADD MSTORE PUSH32 0x5261726974696573235F6164645261726974793A20494E56414C49445F4C454E PUSH1 0x40 DUP3 ADD MSTORE PUSH3 0x8EA89 PUSH1 0xEB SHL PUSH1 0x60 DUP3 ADD MSTORE PUSH1 0x80 ADD SWAP1 JUMP JUMPDEST PUSH1 0x0 PUSH1 0x20 DUP3 MSTORE DUP3 MLOAD PUSH1 0x60 PUSH1 0x20 DUP5 ADD MSTORE PUSH2 0xF0C PUSH1 0x80 DUP5 ADD DUP3 PUSH2 0xC70 JUMP JUMPDEST SWAP1 POP PUSH1 0x20 DUP5 ADD MLOAD PUSH1 0x40 DUP5 ADD MSTORE PUSH1 0x40 DUP5 ADD MLOAD PUSH1 0x60 DUP5 ADD MSTORE DUP1 SWAP2 POP POP SWAP3 SWAP2 POP POP JUMP JUMPDEST SWAP1 DUP2 MSTORE PUSH1 0x20 ADD SWAP1 JUMP JUMPDEST PUSH1 0x0 DUP1 DUP4 CALLDATALOAD PUSH1 0x1E NOT DUP5 CALLDATASIZE SUB ADD DUP2 SLT PUSH2 0xF4B JUMPI DUP3 DUP4 REVERT JUMPDEST DUP4 ADD DUP1 CALLDATALOAD SWAP2 POP PUSH8 0xFFFFFFFFFFFFFFFF DUP3 GT ISZERO PUSH2 0xF65 JUMPI DUP3 DUP4 REVERT JUMPDEST PUSH1 0x20 ADD SWAP2 POP CALLDATASIZE DUP2 SWAP1 SUB DUP3 SGT ISZERO PUSH2 0xA2E JUMPI PUSH1 0x0 DUP1 REVERT JUMPDEST PUSH1 0x40 MLOAD DUP2 DUP2 ADD PUSH8 0xFFFFFFFFFFFFFFFF DUP2 GT DUP3 DUP3 LT OR ISZERO PUSH2 0xF96 JUMPI INVALID JUMPDEST PUSH1 0x40 MSTORE SWAP2 SWAP1 POP JUMP INVALID LOG2 PUSH5 0x6970667358 0x22 SLT KECCAK256 0xD9 0xEF 0xD4 MULMOD PUSH19 0x1B8A99FFA8A460513D485A4E395CFAF200A7DC 0xAE 0xA9 NUMBER BALANCE CREATE2 0x1F 0xEB 0xE4 PUSH5 0x736F6C6343 STOP SMOD MOD STOP CALLER DUP12 0xE0 SMOD SWAP13 MSTORE8 AND MSIZE EQ SGT DIFFICULTY 0xCD 0x1F 0xD0 LOG4 CALLCODE DUP5 NOT 0x49 PUSH32 0x9722A3DAAFE3B4186F6B6457E000000000000000000000000000000000000000 "
				},
				"gasEstimates": {
					"creation": {
						"codeDepositCost": "810400",
						"executionCost": "infinite",
						"totalCost": "infinite"
					},
					"external": {
						"addRarities((string,uint256,uint256)[])": "infinite",
						"getRarityByName(string)": "infinite",
						"owner()": "1070",
						"rarities(uint256)": "infinite",
						"raritiesCount()": "1096",
						"renounceOwnership()": "infinite",
						"transferOwnership(address)": "infinite",
						"updatePrices(string[],uint256[])": "infinite"
					},
					"internal": {
						"_addRarity(struct Rarities.Rarity memory)": "infinite"
					}
				},
				"methodIdentifiers": {
					"addRarities((string,uint256,uint256)[])": "5b26f8da",
					"getRarityByName(string)": "b5262333",
					"owner()": "8da5cb5b",
					"rarities(uint256)": "17b8e1cf",
					"raritiesCount()": "89e9c4d3",
					"renounceOwnership()": "715018a6",
					"transferOwnership(address)": "f2fde38b",
					"updatePrices(string[],uint256[])": "fa21cc7b"
				}
			},
			"storageLayout": {
				"storage": [
					{
						"astId": 55,
						"contract": "wearables-contracts/full/Rarities.sol:Rarities",
						"label": "_owner",
						"offset": 0,
						"slot": "0",
						"type": "t_address"
					},
					{
						"astId": 1023,
						"contract": "wearables-contracts/full/Rarities.sol:Rarities",
						"label": "rarities",
						"offset": 0,
						"slot": "1",
						"type": "t_array(t_struct(Rarity)1020_storage)dyn_storage"
					},
					{
						"astId": 1028,
						"contract": "wearables-contracts/full/Rarities.sol:Rarities",
						"label": "rarityIndex",
						"offset": 0,
						"slot": "2",
						"type": "t_mapping(t_bytes32,t_uint256)"
					}
				],
				"types": {
					"t_address": {
						"encoding": "inplace",
						"label": "address",
						"numberOfBytes": "20"
					},
					"t_array(t_struct(Rarity)1020_storage)dyn_storage": {
						"base": "t_struct(Rarity)1020_storage",
						"encoding": "dynamic_array",
						"label": "struct Rarities.Rarity[]",
						"numberOfBytes": "32"
					},
					"t_bytes32": {
						"encoding": "inplace",
						"label": "bytes32",
						"numberOfBytes": "32"
					},
					"t_mapping(t_bytes32,t_uint256)": {
						"encoding": "mapping",
						"key": "t_bytes32",
						"label": "mapping(bytes32 => uint256)",
						"numberOfBytes": "32",
						"value": "t_uint256"
					},
					"t_string_storage": {
						"encoding": "bytes",
						"label": "string",
						"numberOfBytes": "32"
					},
					"t_struct(Rarity)1020_storage": {
						"encoding": "inplace",
						"label": "struct Rarities.Rarity",
						"members": [
							{
								"astId": 1015,
								"contract": "wearables-contracts/full/Rarities.sol:Rarities",
								"label": "name",
								"offset": 0,
								"slot": "0",
								"type": "t_string_storage"
							},
							{
								"astId": 1017,
								"contract": "wearables-contracts/full/Rarities.sol:Rarities",
								"label": "maxSupply",
								"offset": 0,
								"slot": "1",
								"type": "t_uint256"
							},
							{
								"astId": 1019,
								"contract": "wearables-contracts/full/Rarities.sol:Rarities",
								"label": "price",
								"offset": 0,
								"slot": "2",
								"type": "t_uint256"
							}
						],
						"numberOfBytes": "96"
					},
					"t_uint256": {
						"encoding": "inplace",
						"label": "uint256",
						"numberOfBytes": "32"
					}
				}
			},
			"userdoc": {
				"kind": "user",
				"methods": {
					"constructor": {
						"notice": "Create the contract"
					},
					"getRarityByName(string)": {
						"notice": "Returns a rarity"
					},
					"raritiesCount()": {
						"notice": "Returns the amount of item in the collection"
					}
				},
				"version": 1
			}
		}
	}
}