{
	"contracts/CollectionStore.sol": {
		"CollectionStore": {
			"abi": [
				{
					"inputs": [
						{
							"internalType": "address",
							"name": "_owner",
							"type": "address"
						},
						{
							"internalType": "contract IERC20",
							"name": "_acceptedToken",
							"type": "address"
						},
						{
							"internalType": "address",
							"name": "_feeOwner",
							"type": "address"
						},
						{
							"internalType": "uint256",
							"name": "_fee",
							"type": "uint256"
						}
					],
					"stateMutability": "nonpayable",
					"type": "constructor"
				},
				{
					"anonymous": false,
					"inputs": [
						{
							"components": [
								{
									"internalType": "contract IERC721CollectionV2",
									"name": "collection",
									"type": "address"
								},
								{
									"internalType": "uint256[]",
									"name": "ids",
									"type": "uint256[]"
								},
								{
									"internalType": "uint256[]",
									"name": "prices",
									"type": "uint256[]"
								},
								{
									"internalType": "address[]",
									"name": "beneficiaries",
									"type": "address[]"
								}
							],
							"indexed": false,
							"internalType": "struct CollectionStore.ItemToBuy[]",
							"name": "_itemsToBuy",
							"type": "tuple[]"
						}
					],
					"name": "Bought",
					"type": "event"
				},
				{
					"anonymous": false,
					"inputs": [
						{
							"indexed": true,
							"internalType": "address",
							"name": "previousOwner",
							"type": "address"
						},
						{
							"indexed": true,
							"internalType": "address",
							"name": "newOwner",
							"type": "address"
						}
					],
					"name": "OwnershipTransferred",
					"type": "event"
				},
				{
					"anonymous": false,
					"inputs": [
						{
							"indexed": false,
							"internalType": "uint256",
							"name": "_oldFee",
							"type": "uint256"
						},
						{
							"indexed": false,
							"internalType": "uint256",
							"name": "_newFee",
							"type": "uint256"
						}
					],
					"name": "SetFee",
					"type": "event"
				},
				{
					"anonymous": false,
					"inputs": [
						{
							"indexed": true,
							"internalType": "address",
							"name": "_oldFeeOwner",
							"type": "address"
						},
						{
							"indexed": true,
							"internalType": "address",
							"name": "_newFeeOwner",
							"type": "address"
						}
					],
					"name": "SetFeeOwner",
					"type": "event"
				},
				{
					"inputs": [],
					"name": "BASE_FEE",
					"outputs": [
						{
							"internalType": "uint256",
							"name": "",
							"type": "uint256"
						}
					],
					"stateMutability": "view",
					"type": "function"
				},
				{
					"inputs": [],
					"name": "acceptedToken",
					"outputs": [
						{
							"internalType": "contract IERC20",
							"name": "",
							"type": "address"
						}
					],
					"stateMutability": "view",
					"type": "function"
				},
				{
					"inputs": [
						{
							"components": [
								{
									"internalType": "contract IERC721CollectionV2",
									"name": "collection",
									"type": "address"
								},
								{
									"internalType": "uint256[]",
									"name": "ids",
									"type": "uint256[]"
								},
								{
									"internalType": "uint256[]",
									"name": "prices",
									"type": "uint256[]"
								},
								{
									"internalType": "address[]",
									"name": "beneficiaries",
									"type": "address[]"
								}
							],
							"internalType": "struct CollectionStore.ItemToBuy[]",
							"name": "_itemsToBuy",
							"type": "tuple[]"
						}
					],
					"name": "buy",
					"outputs": [],
					"stateMutability": "nonpayable",
					"type": "function"
				},
				{
					"inputs": [],
					"name": "fee",
					"outputs": [
						{
							"internalType": "uint256",
							"name": "",
							"type": "uint256"
						}
					],
					"stateMutability": "view",
					"type": "function"
				},
				{
					"inputs": [],
					"name": "feeOwner",
					"outputs": [
						{
							"internalType": "address",
							"name": "",
							"type": "address"
						}
					],
					"stateMutability": "view",
					"type": "function"
				},
				{
					"inputs": [
						{
							"internalType": "contract IERC721CollectionV2",
							"name": "_collection",
							"type": "address"
						},
						{
							"internalType": "uint256",
							"name": "_itemId",
							"type": "uint256"
						}
					],
					"name": "getItemBuyData",
					"outputs": [
						{
							"internalType": "uint256",
							"name": "",
							"type": "uint256"
						},
						{
							"internalType": "address",
							"name": "",
							"type": "address"
						}
					],
					"stateMutability": "view",
					"type": "function"
				},
				{
					"inputs": [],
					"name": "owner",
					"outputs": [
						{
							"internalType": "address",
							"name": "",
							"type": "address"
						}
					],
					"stateMutability": "view",
					"type": "function"
				},
				{
					"inputs": [],
					"name": "renounceOwnership",
					"outputs": [],
					"stateMutability": "nonpayable",
					"type": "function"
				},
				{
					"inputs": [
						{
							"internalType": "uint256",
							"name": "_newFee",
							"type": "uint256"
						}
					],
					"name": "setFee",
					"outputs": [],
					"stateMutability": "nonpayable",
					"type": "function"
				},
				{
					"inputs": [
						{
							"internalType": "address",
							"name": "_newFeeOwner",
							"type": "address"
						}
					],
					"name": "setFeeOwner",
					"outputs": [],
					"stateMutability": "nonpayable",
					"type": "function"
				},
				{
					"inputs": [
						{
							"internalType": "address",
							"name": "newOwner",
							"type": "address"
						}
					],
					"name": "transferOwnership",
					"outputs": [],
					"stateMutability": "nonpayable",
					"type": "function"
				}
			],
			"devdoc": {
				"kind": "dev",
				"methods": {
					"buy((address,uint256[],uint256[],address[])[])": {
						"details": "There is a maximum amount of NFTs that can be issued per call by the block's limit.",
						"params": {
							"_itemsToBuy": "- items to buy"
						}
					},
					"constructor": {
						"params": {
							"_acceptedToken": "- Address of the ERC20 token accepted",
							"_fee": "- fee to charge for each sale",
							"_feeOwner": "- address where fees will be transferred"
						}
					},
					"getItemBuyData(address,uint256)": {
						"params": {
							"_collection": "- collection address",
							"_itemId": "- item id"
						},
						"returns": {
							"_0": "uint256 of the item's price",
							"_1": "address of the item's beneficiary"
						}
					},
					"owner()": {
						"details": "Returns the address of the current owner."
					},
					"renounceOwnership()": {
						"details": "Leaves the contract without owner. It will not be possible to call `onlyOwner` functions anymore. Can only be called by the current owner. NOTE: Renouncing ownership will leave the contract without an owner, thereby removing any functionality that is only available to the owner."
					},
					"setFee(uint256)": {
						"params": {
							"_newFee": "- Fee from 0 to 999,999"
						}
					},
					"setFeeOwner(address)": {
						"params": {
							"_newFeeOwner": "- Address of the new fee owner"
						}
					},
					"transferOwnership(address)": {
						"details": "Transfers ownership of the contract to a new account (`newOwner`). Can only be called by the current owner."
					}
				},
				"version": 1
			},
			"evm": {
				"assembly": "    /* \"contracts/CollectionStore.sol\":16472:20903  contract CollectionStore is OwnableInitializable {... */\n  mstore(0x40, 0x80)\n    /* \"contracts/CollectionStore.sol\":17263:17531  constructor(address _owner, IERC20 _acceptedToken, address _feeOwner, uint256 _fee) {... */\n  callvalue\n  dup1\n  iszero\n  tag_1\n  jumpi\n  0x00\n  dup1\n  revert\ntag_1:\n  pop\n  mload(0x40)\n  sub(codesize, bytecodeSize)\n  dup1\n  bytecodeSize\n  dup4\n  codecopy\n  dup2\n  dup2\n  add\n  0x40\n  mstore\n  dup2\n  add\n  swap1\n  tag_2\n  swap2\n  swap1\n  tag_3\n  jump\t// in\ntag_2:\n    /* \"contracts/CollectionStore.sol\":17381:17395  _initOwnable() */\n  tag_6\n    /* \"contracts/CollectionStore.sol\":17381:17393  _initOwnable */\n  shl(0x20, tag_7)\n    /* \"contracts/CollectionStore.sol\":17381:17395  _initOwnable() */\n  0x20\n  shr\n  jump\t// in\ntag_6:\n    /* \"contracts/CollectionStore.sol\":17422:17436  _acceptedToken */\n  dup3\n    /* \"contracts/CollectionStore.sol\":17406:17419  acceptedToken */\n  0x01\n  0x00\n    /* \"contracts/CollectionStore.sol\":17406:17436  acceptedToken = _acceptedToken */\n  0x0100\n  exp\n  dup2\n  sload\n  dup2\n  0xffffffffffffffffffffffffffffffffffffffff\n  mul\n  not\n  and\n  swap1\n  dup4\n  0xffffffffffffffffffffffffffffffffffffffff\n  and\n  mul\n  or\n  swap1\n  sstore\n  pop\n    /* \"contracts/CollectionStore.sol\":17457:17466  _feeOwner */\n  dup2\n    /* \"contracts/CollectionStore.sol\":17446:17454  feeOwner */\n  0x03\n  0x00\n    /* \"contracts/CollectionStore.sol\":17446:17466  feeOwner = _feeOwner */\n  0x0100\n  exp\n  dup2\n  sload\n  dup2\n  0xffffffffffffffffffffffffffffffffffffffff\n  mul\n  not\n  and\n  swap1\n  dup4\n  0xffffffffffffffffffffffffffffffffffffffff\n  and\n  mul\n  or\n  swap1\n  sstore\n  pop\n    /* \"contracts/CollectionStore.sol\":17476:17488  setFee(_fee) */\n  tag_8\n    /* \"contracts/CollectionStore.sol\":17483:17487  _fee */\n  dup2\n    /* \"contracts/CollectionStore.sol\":17476:17482  setFee */\n  shl(0x20, tag_9)\n    /* \"contracts/CollectionStore.sol\":17476:17488  setFee(_fee) */\n  0x20\n  shr\n  jump\t// in\ntag_8:\n    /* \"contracts/CollectionStore.sol\":17499:17524  transferOwnership(_owner) */\n  tag_10\n    /* \"contracts/CollectionStore.sol\":17517:17523  _owner */\n  dup5\n    /* \"contracts/CollectionStore.sol\":17499:17516  transferOwnership */\n  shl(0x20, tag_11)\n    /* \"contracts/CollectionStore.sol\":17499:17524  transferOwnership(_owner) */\n  0x20\n  shr\n  jump\t// in\ntag_10:\n    /* \"contracts/CollectionStore.sol\":17263:17531  constructor(address _owner, IERC20 _acceptedToken, address _feeOwner, uint256 _fee) {... */\n  pop\n  pop\n  pop\n  pop\n    /* \"contracts/CollectionStore.sol\":16472:20903  contract CollectionStore is OwnableInitializable {... */\n  jump(tag_12)\n    /* \"contracts/CollectionStore.sol\":10398:10567  function _initOwnable () internal {... */\ntag_7:\n    /* \"contracts/CollectionStore.sol\":10442:10459  address msgSender */\n  0x00\n    /* \"contracts/CollectionStore.sol\":10462:10474  _msgSender() */\n  tag_14\n    /* \"contracts/CollectionStore.sol\":10462:10472  _msgSender */\n  shl(0x20, tag_15)\n    /* \"contracts/CollectionStore.sol\":10462:10474  _msgSender() */\n  0x20\n  shr\n  jump\t// in\ntag_14:\n    /* \"contracts/CollectionStore.sol\":10442:10474  address msgSender = _msgSender() */\n  swap1\n  pop\n    /* \"contracts/CollectionStore.sol\":10493:10502  msgSender */\n  dup1\n    /* \"contracts/CollectionStore.sol\":10484:10490  _owner */\n  0x00\n  dup1\n    /* \"contracts/CollectionStore.sol\":10484:10502  _owner = msgSender */\n  0x0100\n  exp\n  dup2\n  sload\n  dup2\n  0xffffffffffffffffffffffffffffffffffffffff\n  mul\n  not\n  and\n  swap1\n  dup4\n  0xffffffffffffffffffffffffffffffffffffffff\n  and\n  mul\n  or\n  swap1\n  sstore\n  pop\n    /* \"contracts/CollectionStore.sol\":10550:10559  msgSender */\n  dup1\n    /* \"contracts/CollectionStore.sol\":10517:10560  OwnershipTransferred(address(0), msgSender) */\n  0xffffffffffffffffffffffffffffffffffffffff\n  and\n    /* \"contracts/CollectionStore.sol\":10546:10547  0 */\n  0x00\n    /* \"contracts/CollectionStore.sol\":10517:10560  OwnershipTransferred(address(0), msgSender) */\n  0xffffffffffffffffffffffffffffffffffffffff\n  and\n  0x8be0079c531659141344cd1fd0a4f28419497f9722a3daafe3b4186f6b6457e0\n  mload(0x40)\n  mload(0x40)\n  dup1\n  swap2\n  sub\n  swap1\n  log3\n    /* \"contracts/CollectionStore.sol\":10398:10567  function _initOwnable () internal {... */\n  pop\n  jump\t// out\n    /* \"contracts/CollectionStore.sol\":20167:20450  function setFee(uint256 _newFee) public onlyOwner {... */\ntag_9:\n    /* \"contracts/CollectionStore.sol\":10857:10869  _msgSender() */\n  tag_17\n    /* \"contracts/CollectionStore.sol\":10857:10867  _msgSender */\n  shl(0x20, tag_15)\n    /* \"contracts/CollectionStore.sol\":10857:10869  _msgSender() */\n  0x20\n  shr\n  jump\t// in\ntag_17:\n    /* \"contracts/CollectionStore.sol\":10847:10869  _owner == _msgSender() */\n  0xffffffffffffffffffffffffffffffffffffffff\n  and\n    /* \"contracts/CollectionStore.sol\":10847:10853  _owner */\n  0x00\n  dup1\n  sload\n  swap1\n  0x0100\n  exp\n  swap1\n  div\n  0xffffffffffffffffffffffffffffffffffffffff\n  and\n    /* \"contracts/CollectionStore.sol\":10847:10869  _owner == _msgSender() */\n  0xffffffffffffffffffffffffffffffffffffffff\n  and\n  eq\n    /* \"contracts/CollectionStore.sol\":10839:10906  require(_owner == _msgSender(), \"Ownable: caller is not the owner\") */\n  tag_18\n  jumpi\n  mload(0x40)\n  0x08c379a000000000000000000000000000000000000000000000000000000000\n  dup2\n  mstore\n  0x04\n  add\n  tag_19\n  swap1\n  tag_20\n  jump\t// in\ntag_19:\n  mload(0x40)\n  dup1\n  swap2\n  sub\n  swap1\n  revert\ntag_18:\n    /* \"contracts/CollectionStore.sol\":16748:16755  1000000 */\n  0x0f4240\n    /* \"contracts/CollectionStore.sol\":20235:20242  _newFee */\n  dup2\n    /* \"contracts/CollectionStore.sol\":20235:20253  _newFee < BASE_FEE */\n  lt\n    /* \"contracts/CollectionStore.sol\":20227:20315  require(_newFee < BASE_FEE, \"CollectionStore#setFee: FEE_SHOULD_BE_LOWER_THAN_BASE_FEE\") */\n  tag_22\n  jumpi\n  mload(0x40)\n  0x08c379a000000000000000000000000000000000000000000000000000000000\n  dup2\n  mstore\n  0x04\n  add\n  tag_23\n  swap1\n  tag_24\n  jump\t// in\ntag_23:\n  mload(0x40)\n  dup1\n  swap2\n  sub\n  swap1\n  revert\ntag_22:\n    /* \"contracts/CollectionStore.sol\":20344:20347  fee */\n  sload(0x02)\n    /* \"contracts/CollectionStore.sol\":20333:20340  _newFee */\n  dup2\n    /* \"contracts/CollectionStore.sol\":20333:20347  _newFee != fee */\n  eq\n  iszero\n    /* \"contracts/CollectionStore.sol\":20325:20384  require(_newFee != fee, \"CollectionStore#setFee: SAME_FEE\") */\n  tag_25\n  jumpi\n  mload(0x40)\n  0x08c379a000000000000000000000000000000000000000000000000000000000\n  dup2\n  mstore\n  0x04\n  add\n  tag_26\n  swap1\n  tag_27\n  jump\t// in\ntag_26:\n  mload(0x40)\n  dup1\n  swap2\n  sub\n  swap1\n  revert\ntag_25:\n    /* \"contracts/CollectionStore.sol\":20400:20420  SetFee(fee, _newFee) */\n  0x032dc6a2d839eb179729a55633fdf1c41a1fc4739394154117005db2b354b9b5\n    /* \"contracts/CollectionStore.sol\":20407:20410  fee */\n  sload(0x02)\n    /* \"contracts/CollectionStore.sol\":20412:20419  _newFee */\n  dup3\n    /* \"contracts/CollectionStore.sol\":20400:20420  SetFee(fee, _newFee) */\n  mload(0x40)\n  tag_28\n  swap3\n  swap2\n  swap1\n  tag_29\n  jump\t// in\ntag_28:\n  mload(0x40)\n  dup1\n  swap2\n  sub\n  swap1\n  log1\n    /* \"contracts/CollectionStore.sol\":20436:20443  _newFee */\n  dup1\n    /* \"contracts/CollectionStore.sol\":20430:20433  fee */\n  0x02\n    /* \"contracts/CollectionStore.sol\":20430:20443  fee = _newFee */\n  dup2\n  swap1\n  sstore\n  pop\n    /* \"contracts/CollectionStore.sol\":20167:20450  function setFee(uint256 _newFee) public onlyOwner {... */\n  pop\n  jump\t// out\n    /* \"contracts/CollectionStore.sol\":11560:11800  function transferOwnership(address newOwner) public virtual onlyOwner {... */\ntag_11:\n    /* \"contracts/CollectionStore.sol\":10857:10869  _msgSender() */\n  tag_31\n    /* \"contracts/CollectionStore.sol\":10857:10867  _msgSender */\n  shl(0x20, tag_15)\n    /* \"contracts/CollectionStore.sol\":10857:10869  _msgSender() */\n  0x20\n  shr\n  jump\t// in\ntag_31:\n    /* \"contracts/CollectionStore.sol\":10847:10869  _owner == _msgSender() */\n  0xffffffffffffffffffffffffffffffffffffffff\n  and\n    /* \"contracts/CollectionStore.sol\":10847:10853  _owner */\n  0x00\n  dup1\n  sload\n  swap1\n  0x0100\n  exp\n  swap1\n  div\n  0xffffffffffffffffffffffffffffffffffffffff\n  and\n    /* \"contracts/CollectionStore.sol\":10847:10869  _owner == _msgSender() */\n  0xffffffffffffffffffffffffffffffffffffffff\n  and\n  eq\n    /* \"contracts/CollectionStore.sol\":10839:10906  require(_owner == _msgSender(), \"Ownable: caller is not the owner\") */\n  tag_32\n  jumpi\n  mload(0x40)\n  0x08c379a000000000000000000000000000000000000000000000000000000000\n  dup2\n  mstore\n  0x04\n  add\n  tag_33\n  swap1\n  tag_20\n  jump\t// in\ntag_33:\n  mload(0x40)\n  dup1\n  swap2\n  sub\n  swap1\n  revert\ntag_32:\n    /* \"contracts/CollectionStore.sol\":11668:11669  0 */\n  0x00\n    /* \"contracts/CollectionStore.sol\":11648:11670  newOwner != address(0) */\n  0xffffffffffffffffffffffffffffffffffffffff\n  and\n    /* \"contracts/CollectionStore.sol\":11648:11656  newOwner */\n  dup2\n    /* \"contracts/CollectionStore.sol\":11648:11670  newOwner != address(0) */\n  0xffffffffffffffffffffffffffffffffffffffff\n  and\n  eq\n  iszero\n    /* \"contracts/CollectionStore.sol\":11640:11713  require(newOwner != address(0), \"Ownable: new owner is the zero address\") */\n  tag_35\n  jumpi\n  mload(0x40)\n  0x08c379a000000000000000000000000000000000000000000000000000000000\n  dup2\n  mstore\n  0x04\n  add\n  tag_36\n  swap1\n  tag_37\n  jump\t// in\ntag_36:\n  mload(0x40)\n  dup1\n  swap2\n  sub\n  swap1\n  revert\ntag_35:\n    /* \"contracts/CollectionStore.sol\":11757:11765  newOwner */\n  dup1\n    /* \"contracts/CollectionStore.sol\":11728:11766  OwnershipTransferred(_owner, newOwner) */\n  0xffffffffffffffffffffffffffffffffffffffff\n  and\n    /* \"contracts/CollectionStore.sol\":11749:11755  _owner */\n  0x00\n  dup1\n  sload\n  swap1\n  0x0100\n  exp\n  swap1\n  div\n  0xffffffffffffffffffffffffffffffffffffffff\n  and\n    /* \"contracts/CollectionStore.sol\":11728:11766  OwnershipTransferred(_owner, newOwner) */\n  0xffffffffffffffffffffffffffffffffffffffff\n  and\n  0x8be0079c531659141344cd1fd0a4f28419497f9722a3daafe3b4186f6b6457e0\n  mload(0x40)\n  mload(0x40)\n  dup1\n  swap2\n  sub\n  swap1\n  log3\n    /* \"contracts/CollectionStore.sol\":11785:11793  newOwner */\n  dup1\n    /* \"contracts/CollectionStore.sol\":11776:11782  _owner */\n  0x00\n  dup1\n    /* \"contracts/CollectionStore.sol\":11776:11793  _owner = newOwner */\n  0x0100\n  exp\n  dup2\n  sload\n  dup2\n  0xffffffffffffffffffffffffffffffffffffffff\n  mul\n  not\n  and\n  swap1\n  dup4\n  0xffffffffffffffffffffffffffffffffffffffff\n  and\n  mul\n  or\n  swap1\n  sstore\n  pop\n    /* \"contracts/CollectionStore.sol\":11560:11800  function transferOwnership(address newOwner) public virtual onlyOwner {... */\n  pop\n  jump\t// out\n    /* \"contracts/CollectionStore.sol\":8903:9542  function _msgSender()... */\ntag_15:\n    /* \"contracts/CollectionStore.sol\":8988:9010  address payable sender */\n  0x00\n    /* \"contracts/CollectionStore.sol\":9052:9056  this */\n  address\n    /* \"contracts/CollectionStore.sol\":9030:9057  msg.sender == address(this) */\n  0xffffffffffffffffffffffffffffffffffffffff\n  and\n    /* \"contracts/CollectionStore.sol\":9030:9040  msg.sender */\n  caller\n    /* \"contracts/CollectionStore.sol\":9030:9057  msg.sender == address(this) */\n  0xffffffffffffffffffffffffffffffffffffffff\n  and\n  eq\n    /* \"contracts/CollectionStore.sol\":9026:9513  if (msg.sender == address(this)) {... */\n  iszero\n  tag_39\n  jumpi\n    /* \"contracts/CollectionStore.sol\":9073:9091  bytes memory array */\n  0x00\n    /* \"contracts/CollectionStore.sol\":9094:9102  msg.data */\n  dup1\n  calldatasize\n    /* \"contracts/CollectionStore.sol\":9073:9102  bytes memory array = msg.data */\n  dup1\n  dup1\n  0x1f\n  add\n  0x20\n  dup1\n  swap2\n  div\n  mul\n  0x20\n  add\n  mload(0x40)\n  swap1\n  dup2\n  add\n  0x40\n  mstore\n  dup1\n  swap4\n  swap3\n  swap2\n  swap1\n  dup2\n  dup2\n  mstore\n  0x20\n  add\n  dup4\n  dup4\n  dup1\n  dup3\n  dup5\n  calldatacopy\n  0x00\n  dup2\n  dup5\n  add\n  mstore\n  not(0x1f)\n  0x1f\n  dup3\n  add\n  and\n  swap1\n  pop\n  dup1\n  dup4\n  add\n  swap3\n  pop\n  pop\n  pop\n  pop\n  pop\n  pop\n  pop\n  swap1\n  pop\n    /* \"contracts/CollectionStore.sol\":9116:9129  uint256 index */\n  0x00\n    /* \"contracts/CollectionStore.sol\":9132:9140  msg.data */\n  dup1\n  calldatasize\n    /* \"contracts/CollectionStore.sol\":9132:9147  msg.data.length */\n  swap1\n  pop\n    /* \"contracts/CollectionStore.sol\":9116:9147  uint256 index = msg.data.length */\n  swap1\n  pop\n    /* \"contracts/CollectionStore.sol\":9379:9421  0xffffffffffffffffffffffffffffffffffffffff */\n  0xffffffffffffffffffffffffffffffffffffffff\n    /* \"contracts/CollectionStore.sol\":9350:9355  index */\n  dup2\n    /* \"contracts/CollectionStore.sol\":9343:9348  array */\n  dup4\n    /* \"contracts/CollectionStore.sol\":9339:9356  add(array, index) */\n  add\n    /* \"contracts/CollectionStore.sol\":9333:9357  mload(add(array, index)) */\n  mload\n    /* \"contracts/CollectionStore.sol\":9308:9439  and(... */\n  and\n    /* \"contracts/CollectionStore.sol\":9298:9439  sender := and(... */\n  swap3\n  pop\n    /* \"contracts/CollectionStore.sol\":9170:9453  {... */\n  pop\n  pop\n  jump(tag_40)\ntag_39:\n    /* \"contracts/CollectionStore.sol\":9492:9502  msg.sender */\n  caller\n    /* \"contracts/CollectionStore.sol\":9483:9502  sender = msg.sender */\n  swap1\n  pop\n    /* \"contracts/CollectionStore.sol\":9026:9513  if (msg.sender == address(this)) {... */\ntag_40:\n    /* \"contracts/CollectionStore.sol\":8903:9542  function _msgSender()... */\n  swap1\n  jump\t// out\n    /* \"#utility.yul\":7:150   */\ntag_42:\n  0x00\n    /* \"#utility.yul\":95:101   */\n  dup2\n    /* \"#utility.yul\":89:102   */\n  mload\n    /* \"#utility.yul\":80:102   */\n  swap1\n  pop\n    /* \"#utility.yul\":111:144   */\n  tag_44\n    /* \"#utility.yul\":138:143   */\n  dup2\n    /* \"#utility.yul\":111:144   */\n  tag_45\n  jump\t// in\ntag_44:\n    /* \"#utility.yul\":70:150   */\n  swap3\n  swap2\n  pop\n  pop\n  jump\t// out\n    /* \"#utility.yul\":156:327   */\ntag_46:\n  0x00\n    /* \"#utility.yul\":258:264   */\n  dup2\n    /* \"#utility.yul\":252:265   */\n  mload\n    /* \"#utility.yul\":243:265   */\n  swap1\n  pop\n    /* \"#utility.yul\":274:321   */\n  tag_48\n    /* \"#utility.yul\":315:320   */\n  dup2\n    /* \"#utility.yul\":274:321   */\n  tag_49\n  jump\t// in\ntag_48:\n    /* \"#utility.yul\":233:327   */\n  swap3\n  swap2\n  pop\n  pop\n  jump\t// out\n    /* \"#utility.yul\":333:476   */\ntag_50:\n  0x00\n    /* \"#utility.yul\":421:427   */\n  dup2\n    /* \"#utility.yul\":415:428   */\n  mload\n    /* \"#utility.yul\":406:428   */\n  swap1\n  pop\n    /* \"#utility.yul\":437:470   */\n  tag_52\n    /* \"#utility.yul\":464:469   */\n  dup2\n    /* \"#utility.yul\":437:470   */\n  tag_53\n  jump\t// in\ntag_52:\n    /* \"#utility.yul\":396:476   */\n  swap3\n  swap2\n  pop\n  pop\n  jump\t// out\n    /* \"#utility.yul\":482:1263   */\ntag_3:\n  0x00\n  dup1\n  0x00\n  dup1\n    /* \"#utility.yul\":666:669   */\n  0x80\n    /* \"#utility.yul\":654:663   */\n  dup6\n    /* \"#utility.yul\":645:652   */\n  dup8\n    /* \"#utility.yul\":641:664   */\n  sub\n    /* \"#utility.yul\":637:670   */\n  slt\n    /* \"#utility.yul\":634:636   */\n  iszero\n  tag_55\n  jumpi\n    /* \"#utility.yul\":683:684   */\n  0x00\n    /* \"#utility.yul\":680:681   */\n  dup1\n    /* \"#utility.yul\":673:685   */\n  revert\n    /* \"#utility.yul\":634:636   */\ntag_55:\n    /* \"#utility.yul\":726:727   */\n  0x00\n    /* \"#utility.yul\":751:815   */\n  tag_56\n    /* \"#utility.yul\":807:814   */\n  dup8\n    /* \"#utility.yul\":798:804   */\n  dup3\n    /* \"#utility.yul\":787:796   */\n  dup9\n    /* \"#utility.yul\":783:805   */\n  add\n    /* \"#utility.yul\":751:815   */\n  tag_42\n  jump\t// in\ntag_56:\n    /* \"#utility.yul\":741:815   */\n  swap5\n  pop\n    /* \"#utility.yul\":697:825   */\n  pop\n    /* \"#utility.yul\":864:866   */\n  0x20\n    /* \"#utility.yul\":890:968   */\n  tag_57\n    /* \"#utility.yul\":960:967   */\n  dup8\n    /* \"#utility.yul\":951:957   */\n  dup3\n    /* \"#utility.yul\":940:949   */\n  dup9\n    /* \"#utility.yul\":936:958   */\n  add\n    /* \"#utility.yul\":890:968   */\n  tag_46\n  jump\t// in\ntag_57:\n    /* \"#utility.yul\":880:968   */\n  swap4\n  pop\n    /* \"#utility.yul\":835:978   */\n  pop\n    /* \"#utility.yul\":1017:1019   */\n  0x40\n    /* \"#utility.yul\":1043:1107   */\n  tag_58\n    /* \"#utility.yul\":1099:1106   */\n  dup8\n    /* \"#utility.yul\":1090:1096   */\n  dup3\n    /* \"#utility.yul\":1079:1088   */\n  dup9\n    /* \"#utility.yul\":1075:1097   */\n  add\n    /* \"#utility.yul\":1043:1107   */\n  tag_42\n  jump\t// in\ntag_58:\n    /* \"#utility.yul\":1033:1107   */\n  swap3\n  pop\n    /* \"#utility.yul\":988:1117   */\n  pop\n    /* \"#utility.yul\":1156:1158   */\n  0x60\n    /* \"#utility.yul\":1182:1246   */\n  tag_59\n    /* \"#utility.yul\":1238:1245   */\n  dup8\n    /* \"#utility.yul\":1229:1235   */\n  dup3\n    /* \"#utility.yul\":1218:1227   */\n  dup9\n    /* \"#utility.yul\":1214:1236   */\n  add\n    /* \"#utility.yul\":1182:1246   */\n  tag_50\n  jump\t// in\ntag_59:\n    /* \"#utility.yul\":1172:1246   */\n  swap2\n  pop\n    /* \"#utility.yul\":1127:1256   */\n  pop\n    /* \"#utility.yul\":624:1263   */\n  swap3\n  swap6\n  swap2\n  swap5\n  pop\n  swap3\n  pop\n  jump\t// out\n    /* \"#utility.yul\":1269:1639   */\ntag_60:\n  0x00\n    /* \"#utility.yul\":1432:1499   */\n  tag_62\n    /* \"#utility.yul\":1496:1498   */\n  0x26\n    /* \"#utility.yul\":1491:1494   */\n  dup4\n    /* \"#utility.yul\":1432:1499   */\n  tag_63\n  jump\t// in\ntag_62:\n    /* \"#utility.yul\":1425:1499   */\n  swap2\n  pop\n    /* \"#utility.yul\":1529:1563   */\n  0x4f776e61626c653a206e6577206f776e657220697320746865207a65726f2061\n    /* \"#utility.yul\":1525:1526   */\n  0x00\n    /* \"#utility.yul\":1520:1523   */\n  dup4\n    /* \"#utility.yul\":1516:1527   */\n  add\n    /* \"#utility.yul\":1509:1564   */\n  mstore\n    /* \"#utility.yul\":1595:1603   */\n  0x6464726573730000000000000000000000000000000000000000000000000000\n    /* \"#utility.yul\":1590:1592   */\n  0x20\n    /* \"#utility.yul\":1585:1588   */\n  dup4\n    /* \"#utility.yul\":1581:1593   */\n  add\n    /* \"#utility.yul\":1574:1604   */\n  mstore\n    /* \"#utility.yul\":1630:1632   */\n  0x40\n    /* \"#utility.yul\":1625:1628   */\n  dup3\n    /* \"#utility.yul\":1621:1633   */\n  add\n    /* \"#utility.yul\":1614:1633   */\n  swap1\n  pop\n    /* \"#utility.yul\":1415:1639   */\n  swap2\n  swap1\n  pop\n  jump\t// out\n    /* \"#utility.yul\":1645:1975   */\ntag_64:\n  0x00\n    /* \"#utility.yul\":1808:1875   */\n  tag_66\n    /* \"#utility.yul\":1872:1874   */\n  0x20\n    /* \"#utility.yul\":1867:1870   */\n  dup4\n    /* \"#utility.yul\":1808:1875   */\n  tag_63\n  jump\t// in\ntag_66:\n    /* \"#utility.yul\":1801:1875   */\n  swap2\n  pop\n    /* \"#utility.yul\":1905:1939   */\n  0x436f6c6c656374696f6e53746f7265237365744665653a2053414d455f464545\n    /* \"#utility.yul\":1901:1902   */\n  0x00\n    /* \"#utility.yul\":1896:1899   */\n  dup4\n    /* \"#utility.yul\":1892:1903   */\n  add\n    /* \"#utility.yul\":1885:1940   */\n  mstore\n    /* \"#utility.yul\":1966:1968   */\n  0x20\n    /* \"#utility.yul\":1961:1964   */\n  dup3\n    /* \"#utility.yul\":1957:1969   */\n  add\n    /* \"#utility.yul\":1950:1969   */\n  swap1\n  pop\n    /* \"#utility.yul\":1791:1975   */\n  swap2\n  swap1\n  pop\n  jump\t// out\n    /* \"#utility.yul\":1981:2311   */\ntag_67:\n  0x00\n    /* \"#utility.yul\":2144:2211   */\n  tag_69\n    /* \"#utility.yul\":2208:2210   */\n  0x20\n    /* \"#utility.yul\":2203:2206   */\n  dup4\n    /* \"#utility.yul\":2144:2211   */\n  tag_63\n  jump\t// in\ntag_69:\n    /* \"#utility.yul\":2137:2211   */\n  swap2\n  pop\n    /* \"#utility.yul\":2241:2275   */\n  0x4f776e61626c653a2063616c6c6572206973206e6f7420746865206f776e6572\n    /* \"#utility.yul\":2237:2238   */\n  0x00\n    /* \"#utility.yul\":2232:2235   */\n  dup4\n    /* \"#utility.yul\":2228:2239   */\n  add\n    /* \"#utility.yul\":2221:2276   */\n  mstore\n    /* \"#utility.yul\":2302:2304   */\n  0x20\n    /* \"#utility.yul\":2297:2300   */\n  dup3\n    /* \"#utility.yul\":2293:2305   */\n  add\n    /* \"#utility.yul\":2286:2305   */\n  swap1\n  pop\n    /* \"#utility.yul\":2127:2311   */\n  swap2\n  swap1\n  pop\n  jump\t// out\n    /* \"#utility.yul\":2317:2706   */\ntag_70:\n  0x00\n    /* \"#utility.yul\":2480:2547   */\n  tag_72\n    /* \"#utility.yul\":2544:2546   */\n  0x39\n    /* \"#utility.yul\":2539:2542   */\n  dup4\n    /* \"#utility.yul\":2480:2547   */\n  tag_63\n  jump\t// in\ntag_72:\n    /* \"#utility.yul\":2473:2547   */\n  swap2\n  pop\n    /* \"#utility.yul\":2577:2611   */\n  0x436f6c6c656374696f6e53746f7265237365744665653a204645455f53484f55\n    /* \"#utility.yul\":2573:2574   */\n  0x00\n    /* \"#utility.yul\":2568:2571   */\n  dup4\n    /* \"#utility.yul\":2564:2575   */\n  add\n    /* \"#utility.yul\":2557:2612   */\n  mstore\n    /* \"#utility.yul\":2643:2670   */\n  0x4c445f42455f4c4f5745525f5448414e5f424153455f46454500000000000000\n    /* \"#utility.yul\":2638:2640   */\n  0x20\n    /* \"#utility.yul\":2633:2636   */\n  dup4\n    /* \"#utility.yul\":2629:2641   */\n  add\n    /* \"#utility.yul\":2622:2671   */\n  mstore\n    /* \"#utility.yul\":2697:2699   */\n  0x40\n    /* \"#utility.yul\":2692:2695   */\n  dup3\n    /* \"#utility.yul\":2688:2700   */\n  add\n    /* \"#utility.yul\":2681:2700   */\n  swap1\n  pop\n    /* \"#utility.yul\":2463:2706   */\n  swap2\n  swap1\n  pop\n  jump\t// out\n    /* \"#utility.yul\":2712:2830   */\ntag_73:\n    /* \"#utility.yul\":2799:2823   */\n  tag_75\n    /* \"#utility.yul\":2817:2822   */\n  dup2\n    /* \"#utility.yul\":2799:2823   */\n  tag_76\n  jump\t// in\ntag_75:\n    /* \"#utility.yul\":2794:2797   */\n  dup3\n    /* \"#utility.yul\":2787:2824   */\n  mstore\n    /* \"#utility.yul\":2777:2830   */\n  pop\n  pop\n  jump\t// out\n    /* \"#utility.yul\":2836:3255   */\ntag_37:\n  0x00\n    /* \"#utility.yul\":3040:3042   */\n  0x20\n    /* \"#utility.yul\":3029:3038   */\n  dup3\n    /* \"#utility.yul\":3025:3043   */\n  add\n    /* \"#utility.yul\":3017:3043   */\n  swap1\n  pop\n    /* \"#utility.yul\":3089:3098   */\n  dup2\n    /* \"#utility.yul\":3083:3087   */\n  dup2\n    /* \"#utility.yul\":3079:3099   */\n  sub\n    /* \"#utility.yul\":3075:3076   */\n  0x00\n    /* \"#utility.yul\":3064:3073   */\n  dup4\n    /* \"#utility.yul\":3060:3077   */\n  add\n    /* \"#utility.yul\":3053:3100   */\n  mstore\n    /* \"#utility.yul\":3117:3248   */\n  tag_78\n    /* \"#utility.yul\":3243:3247   */\n  dup2\n    /* \"#utility.yul\":3117:3248   */\n  tag_60\n  jump\t// in\ntag_78:\n    /* \"#utility.yul\":3109:3248   */\n  swap1\n  pop\n    /* \"#utility.yul\":3007:3255   */\n  swap2\n  swap1\n  pop\n  jump\t// out\n    /* \"#utility.yul\":3261:3680   */\ntag_27:\n  0x00\n    /* \"#utility.yul\":3465:3467   */\n  0x20\n    /* \"#utility.yul\":3454:3463   */\n  dup3\n    /* \"#utility.yul\":3450:3468   */\n  add\n    /* \"#utility.yul\":3442:3468   */\n  swap1\n  pop\n    /* \"#utility.yul\":3514:3523   */\n  dup2\n    /* \"#utility.yul\":3508:3512   */\n  dup2\n    /* \"#utility.yul\":3504:3524   */\n  sub\n    /* \"#utility.yul\":3500:3501   */\n  0x00\n    /* \"#utility.yul\":3489:3498   */\n  dup4\n    /* \"#utility.yul\":3485:3502   */\n  add\n    /* \"#utility.yul\":3478:3525   */\n  mstore\n    /* \"#utility.yul\":3542:3673   */\n  tag_80\n    /* \"#utility.yul\":3668:3672   */\n  dup2\n    /* \"#utility.yul\":3542:3673   */\n  tag_64\n  jump\t// in\ntag_80:\n    /* \"#utility.yul\":3534:3673   */\n  swap1\n  pop\n    /* \"#utility.yul\":3432:3680   */\n  swap2\n  swap1\n  pop\n  jump\t// out\n    /* \"#utility.yul\":3686:4105   */\ntag_20:\n  0x00\n    /* \"#utility.yul\":3890:3892   */\n  0x20\n    /* \"#utility.yul\":3879:3888   */\n  dup3\n    /* \"#utility.yul\":3875:3893   */\n  add\n    /* \"#utility.yul\":3867:3893   */\n  swap1\n  pop\n    /* \"#utility.yul\":3939:3948   */\n  dup2\n    /* \"#utility.yul\":3933:3937   */\n  dup2\n    /* \"#utility.yul\":3929:3949   */\n  sub\n    /* \"#utility.yul\":3925:3926   */\n  0x00\n    /* \"#utility.yul\":3914:3923   */\n  dup4\n    /* \"#utility.yul\":3910:3927   */\n  add\n    /* \"#utility.yul\":3903:3950   */\n  mstore\n    /* \"#utility.yul\":3967:4098   */\n  tag_82\n    /* \"#utility.yul\":4093:4097   */\n  dup2\n    /* \"#utility.yul\":3967:4098   */\n  tag_67\n  jump\t// in\ntag_82:\n    /* \"#utility.yul\":3959:4098   */\n  swap1\n  pop\n    /* \"#utility.yul\":3857:4105   */\n  swap2\n  swap1\n  pop\n  jump\t// out\n    /* \"#utility.yul\":4111:4530   */\ntag_24:\n  0x00\n    /* \"#utility.yul\":4315:4317   */\n  0x20\n    /* \"#utility.yul\":4304:4313   */\n  dup3\n    /* \"#utility.yul\":4300:4318   */\n  add\n    /* \"#utility.yul\":4292:4318   */\n  swap1\n  pop\n    /* \"#utility.yul\":4364:4373   */\n  dup2\n    /* \"#utility.yul\":4358:4362   */\n  dup2\n    /* \"#utility.yul\":4354:4374   */\n  sub\n    /* \"#utility.yul\":4350:4351   */\n  0x00\n    /* \"#utility.yul\":4339:4348   */\n  dup4\n    /* \"#utility.yul\":4335:4352   */\n  add\n    /* \"#utility.yul\":4328:4375   */\n  mstore\n    /* \"#utility.yul\":4392:4523   */\n  tag_84\n    /* \"#utility.yul\":4518:4522   */\n  dup2\n    /* \"#utility.yul\":4392:4523   */\n  tag_70\n  jump\t// in\ntag_84:\n    /* \"#utility.yul\":4384:4523   */\n  swap1\n  pop\n    /* \"#utility.yul\":4282:4530   */\n  swap2\n  swap1\n  pop\n  jump\t// out\n    /* \"#utility.yul\":4536:4868   */\ntag_29:\n  0x00\n    /* \"#utility.yul\":4695:4697   */\n  0x40\n    /* \"#utility.yul\":4684:4693   */\n  dup3\n    /* \"#utility.yul\":4680:4698   */\n  add\n    /* \"#utility.yul\":4672:4698   */\n  swap1\n  pop\n    /* \"#utility.yul\":4708:4779   */\n  tag_86\n    /* \"#utility.yul\":4776:4777   */\n  0x00\n    /* \"#utility.yul\":4765:4774   */\n  dup4\n    /* \"#utility.yul\":4761:4778   */\n  add\n    /* \"#utility.yul\":4752:4758   */\n  dup6\n    /* \"#utility.yul\":4708:4779   */\n  tag_73\n  jump\t// in\ntag_86:\n    /* \"#utility.yul\":4789:4861   */\n  tag_87\n    /* \"#utility.yul\":4857:4859   */\n  0x20\n    /* \"#utility.yul\":4846:4855   */\n  dup4\n    /* \"#utility.yul\":4842:4860   */\n  add\n    /* \"#utility.yul\":4833:4839   */\n  dup5\n    /* \"#utility.yul\":4789:4861   */\n  tag_73\n  jump\t// in\ntag_87:\n    /* \"#utility.yul\":4662:4868   */\n  swap4\n  swap3\n  pop\n  pop\n  pop\n  jump\t// out\n    /* \"#utility.yul\":4874:5043   */\ntag_63:\n  0x00\n    /* \"#utility.yul\":4992:4998   */\n  dup3\n    /* \"#utility.yul\":4987:4990   */\n  dup3\n    /* \"#utility.yul\":4980:4999   */\n  mstore\n    /* \"#utility.yul\":5032:5036   */\n  0x20\n    /* \"#utility.yul\":5027:5030   */\n  dup3\n    /* \"#utility.yul\":5023:5037   */\n  add\n    /* \"#utility.yul\":5008:5037   */\n  swap1\n  pop\n    /* \"#utility.yul\":4970:5043   */\n  swap3\n  swap2\n  pop\n  pop\n  jump\t// out\n    /* \"#utility.yul\":5049:5145   */\ntag_89:\n  0x00\n    /* \"#utility.yul\":5115:5139   */\n  tag_91\n    /* \"#utility.yul\":5133:5138   */\n  dup3\n    /* \"#utility.yul\":5115:5139   */\n  tag_92\n  jump\t// in\ntag_91:\n    /* \"#utility.yul\":5104:5139   */\n  swap1\n  pop\n    /* \"#utility.yul\":5094:5145   */\n  swap2\n  swap1\n  pop\n  jump\t// out\n    /* \"#utility.yul\":5151:5261   */\ntag_93:\n  0x00\n    /* \"#utility.yul\":5231:5255   */\n  tag_95\n    /* \"#utility.yul\":5249:5254   */\n  dup3\n    /* \"#utility.yul\":5231:5255   */\n  tag_89\n  jump\t// in\ntag_95:\n    /* \"#utility.yul\":5220:5255   */\n  swap1\n  pop\n    /* \"#utility.yul\":5210:5261   */\n  swap2\n  swap1\n  pop\n  jump\t// out\n    /* \"#utility.yul\":5267:5393   */\ntag_92:\n  0x00\n    /* \"#utility.yul\":5344:5386   */\n  0xffffffffffffffffffffffffffffffffffffffff\n    /* \"#utility.yul\":5337:5342   */\n  dup3\n    /* \"#utility.yul\":5333:5387   */\n  and\n    /* \"#utility.yul\":5322:5387   */\n  swap1\n  pop\n    /* \"#utility.yul\":5312:5393   */\n  swap2\n  swap1\n  pop\n  jump\t// out\n    /* \"#utility.yul\":5399:5476   */\ntag_76:\n  0x00\n    /* \"#utility.yul\":5465:5470   */\n  dup2\n    /* \"#utility.yul\":5454:5470   */\n  swap1\n  pop\n    /* \"#utility.yul\":5444:5476   */\n  swap2\n  swap1\n  pop\n  jump\t// out\n    /* \"#utility.yul\":5482:5604   */\ntag_45:\n    /* \"#utility.yul\":5555:5579   */\n  tag_99\n    /* \"#utility.yul\":5573:5578   */\n  dup2\n    /* \"#utility.yul\":5555:5579   */\n  tag_89\n  jump\t// in\ntag_99:\n    /* \"#utility.yul\":5548:5553   */\n  dup2\n    /* \"#utility.yul\":5545:5580   */\n  eq\n    /* \"#utility.yul\":5535:5537   */\n  tag_100\n  jumpi\n    /* \"#utility.yul\":5594:5595   */\n  0x00\n    /* \"#utility.yul\":5591:5592   */\n  dup1\n    /* \"#utility.yul\":5584:5596   */\n  revert\n    /* \"#utility.yul\":5535:5537   */\ntag_100:\n    /* \"#utility.yul\":5525:5604   */\n  pop\n  jump\t// out\n    /* \"#utility.yul\":5610:5760   */\ntag_49:\n    /* \"#utility.yul\":5697:5735   */\n  tag_102\n    /* \"#utility.yul\":5729:5734   */\n  dup2\n    /* \"#utility.yul\":5697:5735   */\n  tag_93\n  jump\t// in\ntag_102:\n    /* \"#utility.yul\":5690:5695   */\n  dup2\n    /* \"#utility.yul\":5687:5736   */\n  eq\n    /* \"#utility.yul\":5677:5679   */\n  tag_103\n  jumpi\n    /* \"#utility.yul\":5750:5751   */\n  0x00\n    /* \"#utility.yul\":5747:5748   */\n  dup1\n    /* \"#utility.yul\":5740:5752   */\n  revert\n    /* \"#utility.yul\":5677:5679   */\ntag_103:\n    /* \"#utility.yul\":5667:5760   */\n  pop\n  jump\t// out\n    /* \"#utility.yul\":5766:5888   */\ntag_53:\n    /* \"#utility.yul\":5839:5863   */\n  tag_105\n    /* \"#utility.yul\":5857:5862   */\n  dup2\n    /* \"#utility.yul\":5839:5863   */\n  tag_76\n  jump\t// in\ntag_105:\n    /* \"#utility.yul\":5832:5837   */\n  dup2\n    /* \"#utility.yul\":5829:5864   */\n  eq\n    /* \"#utility.yul\":5819:5821   */\n  tag_106\n  jumpi\n    /* \"#utility.yul\":5878:5879   */\n  0x00\n    /* \"#utility.yul\":5875:5876   */\n  dup1\n    /* \"#utility.yul\":5868:5880   */\n  revert\n    /* \"#utility.yul\":5819:5821   */\ntag_106:\n    /* \"#utility.yul\":5809:5888   */\n  pop\n  jump\t// out\n    /* \"contracts/CollectionStore.sol\":16472:20903  contract CollectionStore is OwnableInitializable {... */\ntag_12:\n  dataSize(sub_0)\n  dup1\n  dataOffset(sub_0)\n  0x00\n  codecopy\n  0x00\n  return\nstop\n\nsub_0: assembly {\n        /* \"contracts/CollectionStore.sol\":16472:20903  contract CollectionStore is OwnableInitializable {... */\n      mstore(0x40, 0x80)\n      callvalue\n      dup1\n      iszero\n      tag_1\n      jumpi\n      0x00\n      dup1\n      revert\n    tag_1:\n      pop\n      jumpi(tag_2, lt(calldatasize, 0x04))\n      shr(0xe0, calldataload(0x00))\n      dup1\n      0x8da5cb5b\n      gt\n      tag_14\n      jumpi\n      dup1\n      0x8da5cb5b\n      eq\n      tag_8\n      jumpi\n      dup1\n      0xa4fdc78a\n      eq\n      tag_9\n      jumpi\n      dup1\n      0xb9818be1\n      eq\n      tag_10\n      jumpi\n      dup1\n      0xddca3f43\n      eq\n      tag_11\n      jumpi\n      dup1\n      0xe0f307c2\n      eq\n      tag_12\n      jumpi\n      dup1\n      0xf2fde38b\n      eq\n      tag_13\n      jumpi\n      jump(tag_2)\n    tag_14:\n      dup1\n      0x3d18651e\n      eq\n      tag_3\n      jumpi\n      dup1\n      0x451c3d80\n      eq\n      tag_4\n      jumpi\n      dup1\n      0x4b104eff\n      eq\n      tag_5\n      jumpi\n      dup1\n      0x69fe0e2d\n      eq\n      tag_6\n      jumpi\n      dup1\n      0x715018a6\n      eq\n      tag_7\n      jumpi\n    tag_2:\n      0x00\n      dup1\n      revert\n        /* \"contracts/CollectionStore.sol\":16713:16755  uint256 constant public BASE_FEE = 1000000 */\n    tag_3:\n      tag_15\n      tag_16\n      jump\t// in\n    tag_15:\n      mload(0x40)\n      tag_17\n      swap2\n      swap1\n      tag_18\n      jump\t// in\n    tag_17:\n      mload(0x40)\n      dup1\n      swap2\n      sub\n      swap1\n      return\n        /* \"contracts/CollectionStore.sol\":16761:16788  IERC20 public acceptedToken */\n    tag_4:\n      tag_19\n      tag_20\n      jump\t// in\n    tag_19:\n      mload(0x40)\n      tag_21\n      swap2\n      swap1\n      tag_22\n      jump\t// in\n    tag_21:\n      mload(0x40)\n      dup1\n      swap2\n      sub\n      swap1\n      return\n        /* \"contracts/CollectionStore.sol\":20565:20901  function setFeeOwner(address _newFeeOwner) external onlyOwner {... */\n    tag_5:\n      tag_23\n      0x04\n      dup1\n      calldatasize\n      sub\n      dup2\n      add\n      swap1\n      tag_24\n      swap2\n      swap1\n      tag_25\n      jump\t// in\n    tag_24:\n      tag_26\n      jump\t// in\n    tag_23:\n      stop\n        /* \"contracts/CollectionStore.sol\":20167:20450  function setFee(uint256 _newFee) public onlyOwner {... */\n    tag_6:\n      tag_27\n      0x04\n      dup1\n      calldatasize\n      sub\n      dup2\n      add\n      swap1\n      tag_28\n      swap2\n      swap1\n      tag_29\n      jump\t// in\n    tag_28:\n      tag_30\n      jump\t// in\n    tag_27:\n      stop\n        /* \"contracts/CollectionStore.sol\":11266:11411  function renounceOwnership() public virtual onlyOwner {... */\n    tag_7:\n      tag_31\n      tag_32\n      jump\t// in\n    tag_31:\n      stop\n        /* \"contracts/CollectionStore.sol\":10643:10720  function owner() public view returns (address) {... */\n    tag_8:\n      tag_33\n      tag_34\n      jump\t// in\n    tag_33:\n      mload(0x40)\n      tag_35\n      swap2\n      swap1\n      tag_36\n      jump\t// in\n    tag_35:\n      mload(0x40)\n      dup1\n      swap2\n      sub\n      swap1\n      return\n        /* \"contracts/CollectionStore.sol\":17725:19514  function buy(ItemToBuy[] memory _itemsToBuy) external {... */\n    tag_9:\n      tag_37\n      0x04\n      dup1\n      calldatasize\n      sub\n      dup2\n      add\n      swap1\n      tag_38\n      swap2\n      swap1\n      tag_39\n      jump\t// in\n    tag_38:\n      tag_40\n      jump\t// in\n    tag_37:\n      stop\n        /* \"contracts/CollectionStore.sol\":16818:16841  address public feeOwner */\n    tag_10:\n      tag_41\n      tag_42\n      jump\t// in\n    tag_41:\n      mload(0x40)\n      tag_43\n      swap2\n      swap1\n      tag_36\n      jump\t// in\n    tag_43:\n      mload(0x40)\n      dup1\n      swap2\n      sub\n      swap1\n      return\n        /* \"contracts/CollectionStore.sol\":16794:16812  uint256 public fee */\n    tag_11:\n      tag_44\n      tag_45\n      jump\t// in\n    tag_44:\n      mload(0x40)\n      tag_46\n      swap2\n      swap1\n      tag_18\n      jump\t// in\n    tag_46:\n      mload(0x40)\n      dup1\n      swap2\n      sub\n      swap1\n      return\n        /* \"contracts/CollectionStore.sol\":19755:19989  function getItemBuyData(IERC721CollectionV2 _collection, uint256 _itemId) public view returns (uint256, address) {... */\n    tag_12:\n      tag_47\n      0x04\n      dup1\n      calldatasize\n      sub\n      dup2\n      add\n      swap1\n      tag_48\n      swap2\n      swap1\n      tag_49\n      jump\t// in\n    tag_48:\n      tag_50\n      jump\t// in\n    tag_47:\n      mload(0x40)\n      tag_51\n      swap3\n      swap2\n      swap1\n      tag_52\n      jump\t// in\n    tag_51:\n      mload(0x40)\n      dup1\n      swap2\n      sub\n      swap1\n      return\n        /* \"contracts/CollectionStore.sol\":11560:11800  function transferOwnership(address newOwner) public virtual onlyOwner {... */\n    tag_13:\n      tag_53\n      0x04\n      dup1\n      calldatasize\n      sub\n      dup2\n      add\n      swap1\n      tag_54\n      swap2\n      swap1\n      tag_25\n      jump\t// in\n    tag_54:\n      tag_55\n      jump\t// in\n    tag_53:\n      stop\n        /* \"contracts/CollectionStore.sol\":16713:16755  uint256 constant public BASE_FEE = 1000000 */\n    tag_16:\n        /* \"contracts/CollectionStore.sol\":16748:16755  1000000 */\n      0x0f4240\n        /* \"contracts/CollectionStore.sol\":16713:16755  uint256 constant public BASE_FEE = 1000000 */\n      dup2\n      jump\t// out\n        /* \"contracts/CollectionStore.sol\":16761:16788  IERC20 public acceptedToken */\n    tag_20:\n      0x01\n      0x00\n      swap1\n      sload\n      swap1\n      0x0100\n      exp\n      swap1\n      div\n      0xffffffffffffffffffffffffffffffffffffffff\n      and\n      dup2\n      jump\t// out\n        /* \"contracts/CollectionStore.sol\":20565:20901  function setFeeOwner(address _newFeeOwner) external onlyOwner {... */\n    tag_26:\n        /* \"contracts/CollectionStore.sol\":10857:10869  _msgSender() */\n      tag_57\n        /* \"contracts/CollectionStore.sol\":10857:10867  _msgSender */\n      tag_58\n        /* \"contracts/CollectionStore.sol\":10857:10869  _msgSender() */\n      jump\t// in\n    tag_57:\n        /* \"contracts/CollectionStore.sol\":10847:10869  _owner == _msgSender() */\n      0xffffffffffffffffffffffffffffffffffffffff\n      and\n        /* \"contracts/CollectionStore.sol\":10847:10853  _owner */\n      0x00\n      dup1\n      sload\n      swap1\n      0x0100\n      exp\n      swap1\n      div\n      0xffffffffffffffffffffffffffffffffffffffff\n      and\n        /* \"contracts/CollectionStore.sol\":10847:10869  _owner == _msgSender() */\n      0xffffffffffffffffffffffffffffffffffffffff\n      and\n      eq\n        /* \"contracts/CollectionStore.sol\":10839:10906  require(_owner == _msgSender(), \"Ownable: caller is not the owner\") */\n      tag_59\n      jumpi\n      mload(0x40)\n      0x08c379a000000000000000000000000000000000000000000000000000000000\n      dup2\n      mstore\n      0x04\n      add\n      tag_60\n      swap1\n      tag_61\n      jump\t// in\n    tag_60:\n      mload(0x40)\n      dup1\n      swap2\n      sub\n      swap1\n      revert\n    tag_59:\n        /* \"contracts/CollectionStore.sol\":20669:20670  0 */\n      0x00\n        /* \"contracts/CollectionStore.sol\":20645:20671  _newFeeOwner != address(0) */\n      0xffffffffffffffffffffffffffffffffffffffff\n      and\n        /* \"contracts/CollectionStore.sol\":20645:20657  _newFeeOwner */\n      dup2\n        /* \"contracts/CollectionStore.sol\":20645:20671  _newFeeOwner != address(0) */\n      0xffffffffffffffffffffffffffffffffffffffff\n      and\n      eq\n      iszero\n        /* \"contracts/CollectionStore.sol\":20637:20720  require(_newFeeOwner != address(0), \"CollectionStore#setFeeOwner: INVALID_ADDRESS\") */\n      tag_63\n      jumpi\n      mload(0x40)\n      0x08c379a000000000000000000000000000000000000000000000000000000000\n      dup2\n      mstore\n      0x04\n      add\n      tag_64\n      swap1\n      tag_65\n      jump\t// in\n    tag_64:\n      mload(0x40)\n      dup1\n      swap2\n      sub\n      swap1\n      revert\n    tag_63:\n        /* \"contracts/CollectionStore.sol\":20754:20762  feeOwner */\n      0x03\n      0x00\n      swap1\n      sload\n      swap1\n      0x0100\n      exp\n      swap1\n      div\n      0xffffffffffffffffffffffffffffffffffffffff\n      and\n        /* \"contracts/CollectionStore.sol\":20738:20762  _newFeeOwner != feeOwner */\n      0xffffffffffffffffffffffffffffffffffffffff\n      and\n        /* \"contracts/CollectionStore.sol\":20738:20750  _newFeeOwner */\n      dup2\n        /* \"contracts/CollectionStore.sol\":20738:20762  _newFeeOwner != feeOwner */\n      0xffffffffffffffffffffffffffffffffffffffff\n      and\n      eq\n      iszero\n        /* \"contracts/CollectionStore.sol\":20730:20810  require(_newFeeOwner != feeOwner, \"CollectionStore#setFeeOwner: SAME_FEE_OWNER\") */\n      tag_66\n      jumpi\n      mload(0x40)\n      0x08c379a000000000000000000000000000000000000000000000000000000000\n      dup2\n      mstore\n      0x04\n      add\n      tag_67\n      swap1\n      tag_68\n      jump\t// in\n    tag_67:\n      mload(0x40)\n      dup1\n      swap2\n      sub\n      swap1\n      revert\n    tag_66:\n        /* \"contracts/CollectionStore.sol\":20848:20860  _newFeeOwner */\n      dup1\n        /* \"contracts/CollectionStore.sol\":20826:20861  SetFeeOwner(feeOwner, _newFeeOwner) */\n      0xffffffffffffffffffffffffffffffffffffffff\n      and\n        /* \"contracts/CollectionStore.sol\":20838:20846  feeOwner */\n      0x03\n      0x00\n      swap1\n      sload\n      swap1\n      0x0100\n      exp\n      swap1\n      div\n      0xffffffffffffffffffffffffffffffffffffffff\n      and\n        /* \"contracts/CollectionStore.sol\":20826:20861  SetFeeOwner(feeOwner, _newFeeOwner) */\n      0xffffffffffffffffffffffffffffffffffffffff\n      and\n      0xe0bbf1a07376101b84e5aff236bc710878c9a975168510f821b4a735c0d35e51\n      mload(0x40)\n      mload(0x40)\n      dup1\n      swap2\n      sub\n      swap1\n      log3\n        /* \"contracts/CollectionStore.sol\":20882:20894  _newFeeOwner */\n      dup1\n        /* \"contracts/CollectionStore.sol\":20871:20879  feeOwner */\n      0x03\n      0x00\n        /* \"contracts/CollectionStore.sol\":20871:20894  feeOwner = _newFeeOwner */\n      0x0100\n      exp\n      dup2\n      sload\n      dup2\n      0xffffffffffffffffffffffffffffffffffffffff\n      mul\n      not\n      and\n      swap1\n      dup4\n      0xffffffffffffffffffffffffffffffffffffffff\n      and\n      mul\n      or\n      swap1\n      sstore\n      pop\n        /* \"contracts/CollectionStore.sol\":20565:20901  function setFeeOwner(address _newFeeOwner) external onlyOwner {... */\n      pop\n      jump\t// out\n        /* \"contracts/CollectionStore.sol\":20167:20450  function setFee(uint256 _newFee) public onlyOwner {... */\n    tag_30:\n        /* \"contracts/CollectionStore.sol\":10857:10869  _msgSender() */\n      tag_70\n        /* \"contracts/CollectionStore.sol\":10857:10867  _msgSender */\n      tag_58\n        /* \"contracts/CollectionStore.sol\":10857:10869  _msgSender() */\n      jump\t// in\n    tag_70:\n        /* \"contracts/CollectionStore.sol\":10847:10869  _owner == _msgSender() */\n      0xffffffffffffffffffffffffffffffffffffffff\n      and\n        /* \"contracts/CollectionStore.sol\":10847:10853  _owner */\n      0x00\n      dup1\n      sload\n      swap1\n      0x0100\n      exp\n      swap1\n      div\n      0xffffffffffffffffffffffffffffffffffffffff\n      and\n        /* \"contracts/CollectionStore.sol\":10847:10869  _owner == _msgSender() */\n      0xffffffffffffffffffffffffffffffffffffffff\n      and\n      eq\n        /* \"contracts/CollectionStore.sol\":10839:10906  require(_owner == _msgSender(), \"Ownable: caller is not the owner\") */\n      tag_71\n      jumpi\n      mload(0x40)\n      0x08c379a000000000000000000000000000000000000000000000000000000000\n      dup2\n      mstore\n      0x04\n      add\n      tag_72\n      swap1\n      tag_61\n      jump\t// in\n    tag_72:\n      mload(0x40)\n      dup1\n      swap2\n      sub\n      swap1\n      revert\n    tag_71:\n        /* \"contracts/CollectionStore.sol\":16748:16755  1000000 */\n      0x0f4240\n        /* \"contracts/CollectionStore.sol\":20235:20242  _newFee */\n      dup2\n        /* \"contracts/CollectionStore.sol\":20235:20253  _newFee < BASE_FEE */\n      lt\n        /* \"contracts/CollectionStore.sol\":20227:20315  require(_newFee < BASE_FEE, \"CollectionStore#setFee: FEE_SHOULD_BE_LOWER_THAN_BASE_FEE\") */\n      tag_74\n      jumpi\n      mload(0x40)\n      0x08c379a000000000000000000000000000000000000000000000000000000000\n      dup2\n      mstore\n      0x04\n      add\n      tag_75\n      swap1\n      tag_76\n      jump\t// in\n    tag_75:\n      mload(0x40)\n      dup1\n      swap2\n      sub\n      swap1\n      revert\n    tag_74:\n        /* \"contracts/CollectionStore.sol\":20344:20347  fee */\n      sload(0x02)\n        /* \"contracts/CollectionStore.sol\":20333:20340  _newFee */\n      dup2\n        /* \"contracts/CollectionStore.sol\":20333:20347  _newFee != fee */\n      eq\n      iszero\n        /* \"contracts/CollectionStore.sol\":20325:20384  require(_newFee != fee, \"CollectionStore#setFee: SAME_FEE\") */\n      tag_77\n      jumpi\n      mload(0x40)\n      0x08c379a000000000000000000000000000000000000000000000000000000000\n      dup2\n      mstore\n      0x04\n      add\n      tag_78\n      swap1\n      tag_79\n      jump\t// in\n    tag_78:\n      mload(0x40)\n      dup1\n      swap2\n      sub\n      swap1\n      revert\n    tag_77:\n        /* \"contracts/CollectionStore.sol\":20400:20420  SetFee(fee, _newFee) */\n      0x032dc6a2d839eb179729a55633fdf1c41a1fc4739394154117005db2b354b9b5\n        /* \"contracts/CollectionStore.sol\":20407:20410  fee */\n      sload(0x02)\n        /* \"contracts/CollectionStore.sol\":20412:20419  _newFee */\n      dup3\n        /* \"contracts/CollectionStore.sol\":20400:20420  SetFee(fee, _newFee) */\n      mload(0x40)\n      tag_80\n      swap3\n      swap2\n      swap1\n      tag_81\n      jump\t// in\n    tag_80:\n      mload(0x40)\n      dup1\n      swap2\n      sub\n      swap1\n      log1\n        /* \"contracts/CollectionStore.sol\":20436:20443  _newFee */\n      dup1\n        /* \"contracts/CollectionStore.sol\":20430:20433  fee */\n      0x02\n        /* \"contracts/CollectionStore.sol\":20430:20443  fee = _newFee */\n      dup2\n      swap1\n      sstore\n      pop\n        /* \"contracts/CollectionStore.sol\":20167:20450  function setFee(uint256 _newFee) public onlyOwner {... */\n      pop\n      jump\t// out\n        /* \"contracts/CollectionStore.sol\":11266:11411  function renounceOwnership() public virtual onlyOwner {... */\n    tag_32:\n        /* \"contracts/CollectionStore.sol\":10857:10869  _msgSender() */\n      tag_83\n        /* \"contracts/CollectionStore.sol\":10857:10867  _msgSender */\n      tag_58\n        /* \"contracts/CollectionStore.sol\":10857:10869  _msgSender() */\n      jump\t// in\n    tag_83:\n        /* \"contracts/CollectionStore.sol\":10847:10869  _owner == _msgSender() */\n      0xffffffffffffffffffffffffffffffffffffffff\n      and\n        /* \"contracts/CollectionStore.sol\":10847:10853  _owner */\n      0x00\n      dup1\n      sload\n      swap1\n      0x0100\n      exp\n      swap1\n      div\n      0xffffffffffffffffffffffffffffffffffffffff\n      and\n        /* \"contracts/CollectionStore.sol\":10847:10869  _owner == _msgSender() */\n      0xffffffffffffffffffffffffffffffffffffffff\n      and\n      eq\n        /* \"contracts/CollectionStore.sol\":10839:10906  require(_owner == _msgSender(), \"Ownable: caller is not the owner\") */\n      tag_84\n      jumpi\n      mload(0x40)\n      0x08c379a000000000000000000000000000000000000000000000000000000000\n      dup2\n      mstore\n      0x04\n      add\n      tag_85\n      swap1\n      tag_61\n      jump\t// in\n    tag_85:\n      mload(0x40)\n      dup1\n      swap2\n      sub\n      swap1\n      revert\n    tag_84:\n        /* \"contracts/CollectionStore.sol\":11372:11373  0 */\n      0x00\n        /* \"contracts/CollectionStore.sol\":11335:11375  OwnershipTransferred(_owner, address(0)) */\n      0xffffffffffffffffffffffffffffffffffffffff\n      and\n        /* \"contracts/CollectionStore.sol\":11356:11362  _owner */\n      0x00\n      dup1\n      sload\n      swap1\n      0x0100\n      exp\n      swap1\n      div\n      0xffffffffffffffffffffffffffffffffffffffff\n      and\n        /* \"contracts/CollectionStore.sol\":11335:11375  OwnershipTransferred(_owner, address(0)) */\n      0xffffffffffffffffffffffffffffffffffffffff\n      and\n      0x8be0079c531659141344cd1fd0a4f28419497f9722a3daafe3b4186f6b6457e0\n      mload(0x40)\n      mload(0x40)\n      dup1\n      swap2\n      sub\n      swap1\n      log3\n        /* \"contracts/CollectionStore.sol\":11402:11403  0 */\n      0x00\n        /* \"contracts/CollectionStore.sol\":11385:11391  _owner */\n      dup1\n      0x00\n        /* \"contracts/CollectionStore.sol\":11385:11404  _owner = address(0) */\n      0x0100\n      exp\n      dup2\n      sload\n      dup2\n      0xffffffffffffffffffffffffffffffffffffffff\n      mul\n      not\n      and\n      swap1\n      dup4\n      0xffffffffffffffffffffffffffffffffffffffff\n      and\n      mul\n      or\n      swap1\n      sstore\n      pop\n        /* \"contracts/CollectionStore.sol\":11266:11411  function renounceOwnership() public virtual onlyOwner {... */\n      jump\t// out\n        /* \"contracts/CollectionStore.sol\":10643:10720  function owner() public view returns (address) {... */\n    tag_34:\n        /* \"contracts/CollectionStore.sol\":10681:10688  address */\n      0x00\n        /* \"contracts/CollectionStore.sol\":10707:10713  _owner */\n      dup1\n      0x00\n      swap1\n      sload\n      swap1\n      0x0100\n      exp\n      swap1\n      div\n      0xffffffffffffffffffffffffffffffffffffffff\n      and\n        /* \"contracts/CollectionStore.sol\":10700:10713  return _owner */\n      swap1\n      pop\n        /* \"contracts/CollectionStore.sol\":10643:10720  function owner() public view returns (address) {... */\n      swap1\n      jump\t// out\n        /* \"contracts/CollectionStore.sol\":17725:19514  function buy(ItemToBuy[] memory _itemsToBuy) external {... */\n    tag_40:\n        /* \"contracts/CollectionStore.sol\":17789:17805  uint256 totalFee */\n      0x00\n        /* \"contracts/CollectionStore.sol\":17819:17833  address sender */\n      dup1\n        /* \"contracts/CollectionStore.sol\":17836:17848  _msgSender() */\n      tag_89\n        /* \"contracts/CollectionStore.sol\":17836:17846  _msgSender */\n      tag_58\n        /* \"contracts/CollectionStore.sol\":17836:17848  _msgSender() */\n      jump\t// in\n    tag_89:\n        /* \"contracts/CollectionStore.sol\":17819:17848  address sender = _msgSender() */\n      swap1\n      pop\n        /* \"contracts/CollectionStore.sol\":17864:17873  uint256 i */\n      0x00\n        /* \"contracts/CollectionStore.sol\":17859:19215  for (uint256 i = 0; i < _itemsToBuy.length; i++) {... */\n    tag_90:\n        /* \"contracts/CollectionStore.sol\":17883:17894  _itemsToBuy */\n      dup4\n        /* \"contracts/CollectionStore.sol\":17883:17901  _itemsToBuy.length */\n      mload\n        /* \"contracts/CollectionStore.sol\":17879:17880  i */\n      dup2\n        /* \"contracts/CollectionStore.sol\":17879:17901  i < _itemsToBuy.length */\n      lt\n        /* \"contracts/CollectionStore.sol\":17859:19215  for (uint256 i = 0; i < _itemsToBuy.length; i++) {... */\n      iszero\n      tag_91\n      jumpi\n        /* \"contracts/CollectionStore.sol\":17922:17948  ItemToBuy memory itemToBuy */\n      0x00\n        /* \"contracts/CollectionStore.sol\":17951:17962  _itemsToBuy */\n      dup5\n        /* \"contracts/CollectionStore.sol\":17963:17964  i */\n      dup3\n        /* \"contracts/CollectionStore.sol\":17951:17965  _itemsToBuy[i] */\n      dup2\n      mload\n      dup2\n      lt\n      tag_93\n      jumpi\n      invalid\n    tag_93:\n      0x20\n      mul\n      0x20\n      add\n      add\n      mload\n        /* \"contracts/CollectionStore.sol\":17922:17965  ItemToBuy memory itemToBuy = _itemsToBuy[i] */\n      swap1\n      pop\n        /* \"contracts/CollectionStore.sol\":17979:18009  IERC721CollectionV2 collection */\n      0x00\n        /* \"contracts/CollectionStore.sol\":18012:18021  itemToBuy */\n      dup2\n        /* \"contracts/CollectionStore.sol\":18012:18032  itemToBuy.collection */\n      0x00\n      add\n      mload\n        /* \"contracts/CollectionStore.sol\":17979:18032  IERC721CollectionV2 collection = itemToBuy.collection */\n      swap1\n      pop\n        /* \"contracts/CollectionStore.sol\":18046:18067  uint256 amountOfItems */\n      0x00\n        /* \"contracts/CollectionStore.sol\":18070:18079  itemToBuy */\n      dup3\n        /* \"contracts/CollectionStore.sol\":18070:18083  itemToBuy.ids */\n      0x20\n      add\n      mload\n        /* \"contracts/CollectionStore.sol\":18070:18090  itemToBuy.ids.length */\n      mload\n        /* \"contracts/CollectionStore.sol\":18046:18090  uint256 amountOfItems = itemToBuy.ids.length */\n      swap1\n      pop\n        /* \"contracts/CollectionStore.sol\":18130:18139  itemToBuy */\n      dup3\n        /* \"contracts/CollectionStore.sol\":18130:18146  itemToBuy.prices */\n      0x40\n      add\n      mload\n        /* \"contracts/CollectionStore.sol\":18130:18153  itemToBuy.prices.length */\n      mload\n        /* \"contracts/CollectionStore.sol\":18113:18126  amountOfItems */\n      dup2\n        /* \"contracts/CollectionStore.sol\":18113:18153  amountOfItems == itemToBuy.prices.length */\n      eq\n        /* \"contracts/CollectionStore.sol\":18105:18194  require(amountOfItems == itemToBuy.prices.length, \"CollectionStore#buy: LENGTH_MISMATCH\") */\n      tag_94\n      jumpi\n      mload(0x40)\n      0x08c379a000000000000000000000000000000000000000000000000000000000\n      dup2\n      mstore\n      0x04\n      add\n      tag_95\n      swap1\n      tag_96\n      jump\t// in\n    tag_95:\n      mload(0x40)\n      dup1\n      swap2\n      sub\n      swap1\n      revert\n    tag_94:\n        /* \"contracts/CollectionStore.sol\":18214:18223  uint256 j */\n      0x00\n        /* \"contracts/CollectionStore.sol\":18209:19102  for (uint256 j = 0; j < amountOfItems; j++) {... */\n    tag_97:\n        /* \"contracts/CollectionStore.sol\":18233:18246  amountOfItems */\n      dup2\n        /* \"contracts/CollectionStore.sol\":18229:18230  j */\n      dup2\n        /* \"contracts/CollectionStore.sol\":18229:18246  j < amountOfItems */\n      lt\n        /* \"contracts/CollectionStore.sol\":18209:19102  for (uint256 j = 0; j < amountOfItems; j++) {... */\n      iszero\n      tag_98\n      jumpi\n        /* \"contracts/CollectionStore.sol\":18271:18285  uint256 itemId */\n      0x00\n        /* \"contracts/CollectionStore.sol\":18288:18297  itemToBuy */\n      dup5\n        /* \"contracts/CollectionStore.sol\":18288:18301  itemToBuy.ids */\n      0x20\n      add\n      mload\n        /* \"contracts/CollectionStore.sol\":18302:18303  j */\n      dup3\n        /* \"contracts/CollectionStore.sol\":18288:18304  itemToBuy.ids[j] */\n      dup2\n      mload\n      dup2\n      lt\n      tag_100\n      jumpi\n      invalid\n    tag_100:\n      0x20\n      mul\n      0x20\n      add\n      add\n      mload\n        /* \"contracts/CollectionStore.sol\":18271:18304  uint256 itemId = itemToBuy.ids[j] */\n      swap1\n      pop\n        /* \"contracts/CollectionStore.sol\":18322:18335  uint256 price */\n      0x00\n        /* \"contracts/CollectionStore.sol\":18338:18347  itemToBuy */\n      dup6\n        /* \"contracts/CollectionStore.sol\":18338:18354  itemToBuy.prices */\n      0x40\n      add\n      mload\n        /* \"contracts/CollectionStore.sol\":18355:18356  j */\n      dup4\n        /* \"contracts/CollectionStore.sol\":18338:18357  itemToBuy.prices[j] */\n      dup2\n      mload\n      dup2\n      lt\n      tag_101\n      jumpi\n      invalid\n    tag_101:\n      0x20\n      mul\n      0x20\n      add\n      add\n      mload\n        /* \"contracts/CollectionStore.sol\":18322:18357  uint256 price = itemToBuy.prices[j] */\n      swap1\n      pop\n        /* \"contracts/CollectionStore.sol\":18377:18394  uint256 itemPrice */\n      0x00\n        /* \"contracts/CollectionStore.sol\":18396:18419  address itemBeneficiary */\n      dup1\n        /* \"contracts/CollectionStore.sol\":18423:18457  getItemBuyData(collection, itemId) */\n      tag_102\n        /* \"contracts/CollectionStore.sol\":18438:18448  collection */\n      dup8\n        /* \"contracts/CollectionStore.sol\":18450:18456  itemId */\n      dup6\n        /* \"contracts/CollectionStore.sol\":18423:18437  getItemBuyData */\n      tag_50\n        /* \"contracts/CollectionStore.sol\":18423:18457  getItemBuyData(collection, itemId) */\n      jump\t// in\n    tag_102:\n        /* \"contracts/CollectionStore.sol\":18376:18457  (uint256 itemPrice, address itemBeneficiary) = getItemBuyData(collection, itemId) */\n      swap2\n      pop\n      swap2\n      pop\n        /* \"contracts/CollectionStore.sol\":18492:18501  itemPrice */\n      dup2\n        /* \"contracts/CollectionStore.sol\":18483:18488  price */\n      dup4\n        /* \"contracts/CollectionStore.sol\":18483:18501  price == itemPrice */\n      eq\n        /* \"contracts/CollectionStore.sol\":18475:18546  require(price == itemPrice, \"CollectionStore#buy: ITEM_PRICE_MISMATCH\") */\n      tag_103\n      jumpi\n      mload(0x40)\n      0x08c379a000000000000000000000000000000000000000000000000000000000\n      dup2\n      mstore\n      0x04\n      add\n      tag_104\n      swap1\n      tag_105\n      jump\t// in\n    tag_104:\n      mload(0x40)\n      dup1\n      swap2\n      sub\n      swap1\n      revert\n    tag_103:\n        /* \"contracts/CollectionStore.sol\":18581:18582  0 */\n      0x00\n        /* \"contracts/CollectionStore.sol\":18569:18578  itemPrice */\n      dup3\n        /* \"contracts/CollectionStore.sol\":18569:18582  itemPrice > 0 */\n      gt\n        /* \"contracts/CollectionStore.sol\":18565:19088  if (itemPrice > 0) {... */\n      iszero\n      tag_106\n      jumpi\n        /* \"contracts/CollectionStore.sol\":18650:18673  uint256 saleShareAmount */\n      0x00\n        /* \"contracts/CollectionStore.sol\":18676:18708  itemPrice.mul(fee).div(BASE_FEE) */\n      tag_107\n        /* \"contracts/CollectionStore.sol\":16748:16755  1000000 */\n      0x0f4240\n        /* \"contracts/CollectionStore.sol\":18676:18694  itemPrice.mul(fee) */\n      tag_108\n        /* \"contracts/CollectionStore.sol\":18690:18693  fee */\n      sload(0x02)\n        /* \"contracts/CollectionStore.sol\":18676:18685  itemPrice */\n      dup7\n        /* \"contracts/CollectionStore.sol\":18676:18689  itemPrice.mul */\n      tag_109\n      swap1\n        /* \"contracts/CollectionStore.sol\":18676:18694  itemPrice.mul(fee) */\n      swap2\n      swap1\n      0xffffffff\n      and\n      jump\t// in\n    tag_108:\n        /* \"contracts/CollectionStore.sol\":18676:18698  itemPrice.mul(fee).div */\n      tag_110\n      swap1\n        /* \"contracts/CollectionStore.sol\":18676:18708  itemPrice.mul(fee).div(BASE_FEE) */\n      swap2\n      swap1\n      0xffffffff\n      and\n      jump\t// in\n    tag_107:\n        /* \"contracts/CollectionStore.sol\":18650:18708  uint256 saleShareAmount = itemPrice.mul(fee).div(BASE_FEE) */\n      swap1\n      pop\n        /* \"contracts/CollectionStore.sol\":18741:18770  totalFee.add(saleShareAmount) */\n      tag_111\n        /* \"contracts/CollectionStore.sol\":18754:18769  saleShareAmount */\n      dup2\n        /* \"contracts/CollectionStore.sol\":18741:18749  totalFee */\n      dup14\n        /* \"contracts/CollectionStore.sol\":18741:18753  totalFee.add */\n      tag_112\n      swap1\n        /* \"contracts/CollectionStore.sol\":18741:18770  totalFee.add(saleShareAmount) */\n      swap2\n      swap1\n      0xffffffff\n      and\n      jump\t// in\n    tag_111:\n        /* \"contracts/CollectionStore.sol\":18730:18770  totalFee = totalFee.add(saleShareAmount) */\n      swap12\n      pop\n        /* \"contracts/CollectionStore.sol\":18894:18907  acceptedToken */\n      0x01\n      0x00\n      swap1\n      sload\n      swap1\n      0x0100\n      exp\n      swap1\n      div\n      0xffffffffffffffffffffffffffffffffffffffff\n      and\n        /* \"contracts/CollectionStore.sol\":18894:18920  acceptedToken.transferFrom */\n      0xffffffffffffffffffffffffffffffffffffffff\n      and\n      0x23b872dd\n        /* \"contracts/CollectionStore.sol\":18921:18927  sender */\n      dup13\n        /* \"contracts/CollectionStore.sol\":18929:18944  itemBeneficiary */\n      dup5\n        /* \"contracts/CollectionStore.sol\":18946:18976  itemPrice.sub(saleShareAmount) */\n      tag_113\n        /* \"contracts/CollectionStore.sol\":18960:18975  saleShareAmount */\n      dup6\n        /* \"contracts/CollectionStore.sol\":18946:18955  itemPrice */\n      dup9\n        /* \"contracts/CollectionStore.sol\":18946:18959  itemPrice.sub */\n      tag_114\n      swap1\n        /* \"contracts/CollectionStore.sol\":18946:18976  itemPrice.sub(saleShareAmount) */\n      swap2\n      swap1\n      0xffffffff\n      and\n      jump\t// in\n    tag_113:\n        /* \"contracts/CollectionStore.sol\":18894:18977  acceptedToken.transferFrom(sender, itemBeneficiary, itemPrice.sub(saleShareAmount)) */\n      mload(0x40)\n      dup5\n      0xffffffff\n      and\n      0xe0\n      shl\n      dup2\n      mstore\n      0x04\n      add\n      tag_115\n      swap4\n      swap3\n      swap2\n      swap1\n      tag_116\n      jump\t// in\n    tag_115:\n      0x20\n      mload(0x40)\n      dup1\n      dup4\n      sub\n      dup2\n      0x00\n      dup8\n      dup1\n      extcodesize\n      iszero\n      dup1\n      iszero\n      tag_117\n      jumpi\n      0x00\n      dup1\n      revert\n    tag_117:\n      pop\n      gas\n      call\n      iszero\n      dup1\n      iszero\n      tag_119\n      jumpi\n      returndatasize\n      0x00\n      dup1\n      returndatacopy\n      revert(0x00, returndatasize)\n    tag_119:\n      pop\n      pop\n      pop\n      pop\n      mload(0x40)\n      returndatasize\n      not(0x1f)\n      0x1f\n      dup3\n      add\n      and\n      dup3\n      add\n      dup1\n      0x40\n      mstore\n      pop\n      dup2\n      add\n      swap1\n      tag_120\n      swap2\n      swap1\n      tag_121\n      jump\t// in\n    tag_120:\n        /* \"contracts/CollectionStore.sol\":18861:19069  require(... */\n      tag_122\n      jumpi\n      mload(0x40)\n      0x08c379a000000000000000000000000000000000000000000000000000000000\n      dup2\n      mstore\n      0x04\n      add\n      tag_123\n      swap1\n      tag_124\n      jump\t// in\n    tag_123:\n      mload(0x40)\n      dup1\n      swap2\n      sub\n      swap1\n      revert\n    tag_122:\n        /* \"contracts/CollectionStore.sol\":18565:19088  if (itemPrice > 0) {... */\n      pop\n    tag_106:\n        /* \"contracts/CollectionStore.sol\":18209:19102  for (uint256 j = 0; j < amountOfItems; j++) {... */\n      pop\n      pop\n      pop\n      pop\n        /* \"contracts/CollectionStore.sol\":18248:18251  j++ */\n      dup1\n      dup1\n      0x01\n      add\n      swap2\n      pop\n      pop\n        /* \"contracts/CollectionStore.sol\":18209:19102  for (uint256 j = 0; j < amountOfItems; j++) {... */\n      jump(tag_97)\n    tag_98:\n      pop\n        /* \"contracts/CollectionStore.sol\":19142:19152  collection */\n      dup2\n        /* \"contracts/CollectionStore.sol\":19142:19164  collection.issueTokens */\n      0xffffffffffffffffffffffffffffffffffffffff\n      and\n      0x7c8f76a1\n        /* \"contracts/CollectionStore.sol\":19165:19174  itemToBuy */\n      dup5\n        /* \"contracts/CollectionStore.sol\":19165:19188  itemToBuy.beneficiaries */\n      0x60\n      add\n      mload\n        /* \"contracts/CollectionStore.sol\":19190:19199  itemToBuy */\n      dup6\n        /* \"contracts/CollectionStore.sol\":19190:19203  itemToBuy.ids */\n      0x20\n      add\n      mload\n        /* \"contracts/CollectionStore.sol\":19142:19204  collection.issueTokens(itemToBuy.beneficiaries, itemToBuy.ids) */\n      mload(0x40)\n      dup4\n      0xffffffff\n      and\n      0xe0\n      shl\n      dup2\n      mstore\n      0x04\n      add\n      tag_125\n      swap3\n      swap2\n      swap1\n      tag_126\n      jump\t// in\n    tag_125:\n      0x00\n      mload(0x40)\n      dup1\n      dup4\n      sub\n      dup2\n      0x00\n      dup8\n      dup1\n      extcodesize\n      iszero\n      dup1\n      iszero\n      tag_127\n      jumpi\n      0x00\n      dup1\n      revert\n    tag_127:\n      pop\n      gas\n      call\n      iszero\n      dup1\n      iszero\n      tag_129\n      jumpi\n      returndatasize\n      0x00\n      dup1\n      returndatacopy\n      revert(0x00, returndatasize)\n    tag_129:\n      pop\n      pop\n      pop\n      pop\n        /* \"contracts/CollectionStore.sol\":17859:19215  for (uint256 i = 0; i < _itemsToBuy.length; i++) {... */\n      pop\n      pop\n      pop\n        /* \"contracts/CollectionStore.sol\":17903:17906  i++ */\n      dup1\n      dup1\n      0x01\n      add\n      swap2\n      pop\n      pop\n        /* \"contracts/CollectionStore.sol\":17859:19215  for (uint256 i = 0; i < _itemsToBuy.length; i++) {... */\n      jump(tag_90)\n    tag_91:\n      pop\n        /* \"contracts/CollectionStore.sol\":19240:19241  0 */\n      0x00\n        /* \"contracts/CollectionStore.sol\":19229:19237  totalFee */\n      dup3\n        /* \"contracts/CollectionStore.sol\":19229:19241  totalFee > 0 */\n      gt\n        /* \"contracts/CollectionStore.sol\":19225:19474  if (totalFee > 0) {... */\n      iszero\n      tag_130\n      jumpi\n        /* \"contracts/CollectionStore.sol\":19334:19347  acceptedToken */\n      0x01\n      0x00\n      swap1\n      sload\n      swap1\n      0x0100\n      exp\n      swap1\n      div\n      0xffffffffffffffffffffffffffffffffffffffff\n      and\n        /* \"contracts/CollectionStore.sol\":19334:19360  acceptedToken.transferFrom */\n      0xffffffffffffffffffffffffffffffffffffffff\n      and\n      0x23b872dd\n        /* \"contracts/CollectionStore.sol\":19361:19367  sender */\n      dup3\n        /* \"contracts/CollectionStore.sol\":19369:19377  feeOwner */\n      0x03\n      0x00\n      swap1\n      sload\n      swap1\n      0x0100\n      exp\n      swap1\n      div\n      0xffffffffffffffffffffffffffffffffffffffff\n      and\n        /* \"contracts/CollectionStore.sol\":19379:19387  totalFee */\n      dup6\n        /* \"contracts/CollectionStore.sol\":19334:19388  acceptedToken.transferFrom(sender, feeOwner, totalFee) */\n      mload(0x40)\n      dup5\n      0xffffffff\n      and\n      0xe0\n      shl\n      dup2\n      mstore\n      0x04\n      add\n      tag_131\n      swap4\n      swap3\n      swap2\n      swap1\n      tag_116\n      jump\t// in\n    tag_131:\n      0x20\n      mload(0x40)\n      dup1\n      dup4\n      sub\n      dup2\n      0x00\n      dup8\n      dup1\n      extcodesize\n      iszero\n      dup1\n      iszero\n      tag_132\n      jumpi\n      0x00\n      dup1\n      revert\n    tag_132:\n      pop\n      gas\n      call\n      iszero\n      dup1\n      iszero\n      tag_134\n      jumpi\n      returndatasize\n      0x00\n      dup1\n      returndatacopy\n      revert(0x00, returndatasize)\n    tag_134:\n      pop\n      pop\n      pop\n      pop\n      mload(0x40)\n      returndatasize\n      not(0x1f)\n      0x1f\n      dup3\n      add\n      and\n      dup3\n      add\n      dup1\n      0x40\n      mstore\n      pop\n      dup2\n      add\n      swap1\n      tag_135\n      swap2\n      swap1\n      tag_121\n      jump\t// in\n    tag_135:\n        /* \"contracts/CollectionStore.sol\":19309:19463  require(... */\n      tag_136\n      jumpi\n      mload(0x40)\n      0x08c379a000000000000000000000000000000000000000000000000000000000\n      dup2\n      mstore\n      0x04\n      add\n      tag_137\n      swap1\n      tag_138\n      jump\t// in\n    tag_137:\n      mload(0x40)\n      dup1\n      swap2\n      sub\n      swap1\n      revert\n    tag_136:\n        /* \"contracts/CollectionStore.sol\":19225:19474  if (totalFee > 0) {... */\n    tag_130:\n        /* \"contracts/CollectionStore.sol\":19488:19507  Bought(_itemsToBuy) */\n      0x77cc75f8061aa168906862622e88c5b05a026a9c06c02d91ec98543e01e7ad33\n        /* \"contracts/CollectionStore.sol\":19495:19506  _itemsToBuy */\n      dup4\n        /* \"contracts/CollectionStore.sol\":19488:19507  Bought(_itemsToBuy) */\n      mload(0x40)\n      tag_139\n      swap2\n      swap1\n      tag_140\n      jump\t// in\n    tag_139:\n      mload(0x40)\n      dup1\n      swap2\n      sub\n      swap1\n      log1\n        /* \"contracts/CollectionStore.sol\":17725:19514  function buy(ItemToBuy[] memory _itemsToBuy) external {... */\n      pop\n      pop\n      pop\n      jump\t// out\n        /* \"contracts/CollectionStore.sol\":16818:16841  address public feeOwner */\n    tag_42:\n      0x03\n      0x00\n      swap1\n      sload\n      swap1\n      0x0100\n      exp\n      swap1\n      div\n      0xffffffffffffffffffffffffffffffffffffffff\n      and\n      dup2\n      jump\t// out\n        /* \"contracts/CollectionStore.sol\":16794:16812  uint256 public fee */\n    tag_45:\n      sload(0x02)\n      dup2\n      jump\t// out\n        /* \"contracts/CollectionStore.sol\":19755:19989  function getItemBuyData(IERC721CollectionV2 _collection, uint256 _itemId) public view returns (uint256, address) {... */\n    tag_50:\n        /* \"contracts/CollectionStore.sol\":19850:19857  uint256 */\n      0x00\n        /* \"contracts/CollectionStore.sol\":19859:19866  address */\n      dup1\n        /* \"contracts/CollectionStore.sol\":19880:19893  uint256 price */\n      0x00\n        /* \"contracts/CollectionStore.sol\":19895:19914  address beneficiary */\n      dup1\n        /* \"contracts/CollectionStore.sol\":19920:19931  _collection */\n      dup6\n        /* \"contracts/CollectionStore.sol\":19920:19937  _collection.items */\n      0xffffffffffffffffffffffffffffffffffffffff\n      and\n      0xbfb231d2\n        /* \"contracts/CollectionStore.sol\":19938:19945  _itemId */\n      dup7\n        /* \"contracts/CollectionStore.sol\":19920:19946  _collection.items(_itemId) */\n      mload(0x40)\n      dup3\n      0xffffffff\n      and\n      0xe0\n      shl\n      dup2\n      mstore\n      0x04\n      add\n      tag_142\n      swap2\n      swap1\n      tag_18\n      jump\t// in\n    tag_142:\n      0x00\n      mload(0x40)\n      dup1\n      dup4\n      sub\n      dup2\n      dup7\n      dup1\n      extcodesize\n      iszero\n      dup1\n      iszero\n      tag_143\n      jumpi\n      0x00\n      dup1\n      revert\n    tag_143:\n      pop\n      gas\n      staticcall\n      iszero\n      dup1\n      iszero\n      tag_145\n      jumpi\n      returndatasize\n      0x00\n      dup1\n      returndatacopy\n      revert(0x00, returndatasize)\n    tag_145:\n      pop\n      pop\n      pop\n      pop\n      mload(0x40)\n      returndatasize\n      0x00\n      dup3\n      returndatacopy\n      returndatasize\n      not(0x1f)\n      0x1f\n      dup3\n      add\n      and\n      dup3\n      add\n      dup1\n      0x40\n      mstore\n      pop\n      dup2\n      add\n      swap1\n      tag_146\n      swap2\n      swap1\n      tag_147\n      jump\t// in\n    tag_146:\n        /* \"contracts/CollectionStore.sol\":19876:19946  (,,,uint256 price, address beneficiary,,) = _collection.items(_itemId) */\n      pop\n      pop\n      swap5\n      pop\n      swap5\n      pop\n      pop\n      pop\n      pop\n        /* \"contracts/CollectionStore.sol\":19963:19968  price */\n      dup2\n        /* \"contracts/CollectionStore.sol\":19970:19981  beneficiary */\n      dup2\n        /* \"contracts/CollectionStore.sol\":19955:19982  return (price, beneficiary) */\n      swap4\n      pop\n      swap4\n      pop\n      pop\n      pop\n        /* \"contracts/CollectionStore.sol\":19755:19989  function getItemBuyData(IERC721CollectionV2 _collection, uint256 _itemId) public view returns (uint256, address) {... */\n      swap3\n      pop\n      swap3\n      swap1\n      pop\n      jump\t// out\n        /* \"contracts/CollectionStore.sol\":11560:11800  function transferOwnership(address newOwner) public virtual onlyOwner {... */\n    tag_55:\n        /* \"contracts/CollectionStore.sol\":10857:10869  _msgSender() */\n      tag_149\n        /* \"contracts/CollectionStore.sol\":10857:10867  _msgSender */\n      tag_58\n        /* \"contracts/CollectionStore.sol\":10857:10869  _msgSender() */\n      jump\t// in\n    tag_149:\n        /* \"contracts/CollectionStore.sol\":10847:10869  _owner == _msgSender() */\n      0xffffffffffffffffffffffffffffffffffffffff\n      and\n        /* \"contracts/CollectionStore.sol\":10847:10853  _owner */\n      0x00\n      dup1\n      sload\n      swap1\n      0x0100\n      exp\n      swap1\n      div\n      0xffffffffffffffffffffffffffffffffffffffff\n      and\n        /* \"contracts/CollectionStore.sol\":10847:10869  _owner == _msgSender() */\n      0xffffffffffffffffffffffffffffffffffffffff\n      and\n      eq\n        /* \"contracts/CollectionStore.sol\":10839:10906  require(_owner == _msgSender(), \"Ownable: caller is not the owner\") */\n      tag_150\n      jumpi\n      mload(0x40)\n      0x08c379a000000000000000000000000000000000000000000000000000000000\n      dup2\n      mstore\n      0x04\n      add\n      tag_151\n      swap1\n      tag_61\n      jump\t// in\n    tag_151:\n      mload(0x40)\n      dup1\n      swap2\n      sub\n      swap1\n      revert\n    tag_150:\n        /* \"contracts/CollectionStore.sol\":11668:11669  0 */\n      0x00\n        /* \"contracts/CollectionStore.sol\":11648:11670  newOwner != address(0) */\n      0xffffffffffffffffffffffffffffffffffffffff\n      and\n        /* \"contracts/CollectionStore.sol\":11648:11656  newOwner */\n      dup2\n        /* \"contracts/CollectionStore.sol\":11648:11670  newOwner != address(0) */\n      0xffffffffffffffffffffffffffffffffffffffff\n      and\n      eq\n      iszero\n        /* \"contracts/CollectionStore.sol\":11640:11713  require(newOwner != address(0), \"Ownable: new owner is the zero address\") */\n      tag_153\n      jumpi\n      mload(0x40)\n      0x08c379a000000000000000000000000000000000000000000000000000000000\n      dup2\n      mstore\n      0x04\n      add\n      tag_154\n      swap1\n      tag_155\n      jump\t// in\n    tag_154:\n      mload(0x40)\n      dup1\n      swap2\n      sub\n      swap1\n      revert\n    tag_153:\n        /* \"contracts/CollectionStore.sol\":11757:11765  newOwner */\n      dup1\n        /* \"contracts/CollectionStore.sol\":11728:11766  OwnershipTransferred(_owner, newOwner) */\n      0xffffffffffffffffffffffffffffffffffffffff\n      and\n        /* \"contracts/CollectionStore.sol\":11749:11755  _owner */\n      0x00\n      dup1\n      sload\n      swap1\n      0x0100\n      exp\n      swap1\n      div\n      0xffffffffffffffffffffffffffffffffffffffff\n      and\n        /* \"contracts/CollectionStore.sol\":11728:11766  OwnershipTransferred(_owner, newOwner) */\n      0xffffffffffffffffffffffffffffffffffffffff\n      and\n      0x8be0079c531659141344cd1fd0a4f28419497f9722a3daafe3b4186f6b6457e0\n      mload(0x40)\n      mload(0x40)\n      dup1\n      swap2\n      sub\n      swap1\n      log3\n        /* \"contracts/CollectionStore.sol\":11785:11793  newOwner */\n      dup1\n        /* \"contracts/CollectionStore.sol\":11776:11782  _owner */\n      0x00\n      dup1\n        /* \"contracts/CollectionStore.sol\":11776:11793  _owner = newOwner */\n      0x0100\n      exp\n      dup2\n      sload\n      dup2\n      0xffffffffffffffffffffffffffffffffffffffff\n      mul\n      not\n      and\n      swap1\n      dup4\n      0xffffffffffffffffffffffffffffffffffffffff\n      and\n      mul\n      or\n      swap1\n      sstore\n      pop\n        /* \"contracts/CollectionStore.sol\":11560:11800  function transferOwnership(address newOwner) public virtual onlyOwner {... */\n      pop\n      jump\t// out\n        /* \"contracts/CollectionStore.sol\":8903:9542  function _msgSender()... */\n    tag_58:\n        /* \"contracts/CollectionStore.sol\":8988:9010  address payable sender */\n      0x00\n        /* \"contracts/CollectionStore.sol\":9052:9056  this */\n      address\n        /* \"contracts/CollectionStore.sol\":9030:9057  msg.sender == address(this) */\n      0xffffffffffffffffffffffffffffffffffffffff\n      and\n        /* \"contracts/CollectionStore.sol\":9030:9040  msg.sender */\n      caller\n        /* \"contracts/CollectionStore.sol\":9030:9057  msg.sender == address(this) */\n      0xffffffffffffffffffffffffffffffffffffffff\n      and\n      eq\n        /* \"contracts/CollectionStore.sol\":9026:9513  if (msg.sender == address(this)) {... */\n      iszero\n      tag_157\n      jumpi\n        /* \"contracts/CollectionStore.sol\":9073:9091  bytes memory array */\n      0x00\n        /* \"contracts/CollectionStore.sol\":9094:9102  msg.data */\n      dup1\n      calldatasize\n        /* \"contracts/CollectionStore.sol\":9073:9102  bytes memory array = msg.data */\n      dup1\n      dup1\n      0x1f\n      add\n      0x20\n      dup1\n      swap2\n      div\n      mul\n      0x20\n      add\n      mload(0x40)\n      swap1\n      dup2\n      add\n      0x40\n      mstore\n      dup1\n      swap4\n      swap3\n      swap2\n      swap1\n      dup2\n      dup2\n      mstore\n      0x20\n      add\n      dup4\n      dup4\n      dup1\n      dup3\n      dup5\n      calldatacopy\n      0x00\n      dup2\n      dup5\n      add\n      mstore\n      not(0x1f)\n      0x1f\n      dup3\n      add\n      and\n      swap1\n      pop\n      dup1\n      dup4\n      add\n      swap3\n      pop\n      pop\n      pop\n      pop\n      pop\n      pop\n      pop\n      swap1\n      pop\n        /* \"contracts/CollectionStore.sol\":9116:9129  uint256 index */\n      0x00\n        /* \"contracts/CollectionStore.sol\":9132:9140  msg.data */\n      dup1\n      calldatasize\n        /* \"contracts/CollectionStore.sol\":9132:9147  msg.data.length */\n      swap1\n      pop\n        /* \"contracts/CollectionStore.sol\":9116:9147  uint256 index = msg.data.length */\n      swap1\n      pop\n        /* \"contracts/CollectionStore.sol\":9379:9421  0xffffffffffffffffffffffffffffffffffffffff */\n      0xffffffffffffffffffffffffffffffffffffffff\n        /* \"contracts/CollectionStore.sol\":9350:9355  index */\n      dup2\n        /* \"contracts/CollectionStore.sol\":9343:9348  array */\n      dup4\n        /* \"contracts/CollectionStore.sol\":9339:9356  add(array, index) */\n      add\n        /* \"contracts/CollectionStore.sol\":9333:9357  mload(add(array, index)) */\n      mload\n        /* \"contracts/CollectionStore.sol\":9308:9439  and(... */\n      and\n        /* \"contracts/CollectionStore.sol\":9298:9439  sender := and(... */\n      swap3\n      pop\n        /* \"contracts/CollectionStore.sol\":9170:9453  {... */\n      pop\n      pop\n      jump(tag_158)\n    tag_157:\n        /* \"contracts/CollectionStore.sol\":9492:9502  msg.sender */\n      caller\n        /* \"contracts/CollectionStore.sol\":9483:9502  sender = msg.sender */\n      swap1\n      pop\n        /* \"contracts/CollectionStore.sol\":9026:9513  if (msg.sender == address(this)) {... */\n    tag_158:\n        /* \"contracts/CollectionStore.sol\":8903:9542  function _msgSender()... */\n      swap1\n      jump\t// out\n        /* \"contracts/CollectionStore.sol\":3658:3873  function mul(uint256 a, uint256 b) internal pure returns (uint256) {... */\n    tag_109:\n        /* \"contracts/CollectionStore.sol\":3716:3723  uint256 */\n      0x00\n        /* \"contracts/CollectionStore.sol\":3744:3745  0 */\n      dup1\n        /* \"contracts/CollectionStore.sol\":3739:3740  a */\n      dup4\n        /* \"contracts/CollectionStore.sol\":3739:3745  a == 0 */\n      eq\n        /* \"contracts/CollectionStore.sol\":3735:3755  if (a == 0) return 0 */\n      iszero\n      tag_160\n      jumpi\n        /* \"contracts/CollectionStore.sol\":3754:3755  0 */\n      0x00\n        /* \"contracts/CollectionStore.sol\":3747:3755  return 0 */\n      swap1\n      pop\n      jump(tag_159)\n        /* \"contracts/CollectionStore.sol\":3735:3755  if (a == 0) return 0 */\n    tag_160:\n        /* \"contracts/CollectionStore.sol\":3765:3774  uint256 c */\n      0x00\n        /* \"contracts/CollectionStore.sol\":3781:3782  b */\n      dup3\n        /* \"contracts/CollectionStore.sol\":3777:3778  a */\n      dup5\n        /* \"contracts/CollectionStore.sol\":3777:3782  a * b */\n      mul\n        /* \"contracts/CollectionStore.sol\":3765:3782  uint256 c = a * b */\n      swap1\n      pop\n        /* \"contracts/CollectionStore.sol\":3809:3810  b */\n      dup3\n        /* \"contracts/CollectionStore.sol\":3804:3805  a */\n      dup5\n        /* \"contracts/CollectionStore.sol\":3800:3801  c */\n      dup3\n        /* \"contracts/CollectionStore.sol\":3800:3805  c / a */\n      dup2\n      tag_161\n      jumpi\n      invalid\n    tag_161:\n      div\n        /* \"contracts/CollectionStore.sol\":3800:3810  c / a == b */\n      eq\n        /* \"contracts/CollectionStore.sol\":3792:3848  require(c / a == b, \"SafeMath: multiplication overflow\") */\n      tag_162\n      jumpi\n      mload(0x40)\n      0x08c379a000000000000000000000000000000000000000000000000000000000\n      dup2\n      mstore\n      0x04\n      add\n      tag_163\n      swap1\n      tag_164\n      jump\t// in\n    tag_163:\n      mload(0x40)\n      dup1\n      swap2\n      sub\n      swap1\n      revert\n    tag_162:\n        /* \"contracts/CollectionStore.sol\":3865:3866  c */\n      dup1\n        /* \"contracts/CollectionStore.sol\":3858:3866  return c */\n      swap2\n      pop\n      pop\n        /* \"contracts/CollectionStore.sol\":3658:3873  function mul(uint256 a, uint256 b) internal pure returns (uint256) {... */\n    tag_159:\n      swap3\n      swap2\n      pop\n      pop\n      jump\t// out\n        /* \"contracts/CollectionStore.sol\":4337:4487  function div(uint256 a, uint256 b) internal pure returns (uint256) {... */\n    tag_110:\n        /* \"contracts/CollectionStore.sol\":4395:4402  uint256 */\n      0x00\n        /* \"contracts/CollectionStore.sol\":4426:4427  0 */\n      dup1\n        /* \"contracts/CollectionStore.sol\":4422:4423  b */\n      dup3\n        /* \"contracts/CollectionStore.sol\":4422:4427  b > 0 */\n      gt\n        /* \"contracts/CollectionStore.sol\":4414:4458  require(b > 0, \"SafeMath: division by zero\") */\n      tag_166\n      jumpi\n      mload(0x40)\n      0x08c379a000000000000000000000000000000000000000000000000000000000\n      dup2\n      mstore\n      0x04\n      add\n      tag_167\n      swap1\n      tag_168\n      jump\t// in\n    tag_167:\n      mload(0x40)\n      dup1\n      swap2\n      sub\n      swap1\n      revert\n    tag_166:\n        /* \"contracts/CollectionStore.sol\":4479:4480  b */\n      dup2\n        /* \"contracts/CollectionStore.sol\":4475:4476  a */\n      dup4\n        /* \"contracts/CollectionStore.sol\":4475:4480  a / b */\n      dup2\n      tag_169\n      jumpi\n      invalid\n    tag_169:\n      div\n        /* \"contracts/CollectionStore.sol\":4468:4480  return a / b */\n      swap1\n      pop\n        /* \"contracts/CollectionStore.sol\":4337:4487  function div(uint256 a, uint256 b) internal pure returns (uint256) {... */\n      swap3\n      swap2\n      pop\n      pop\n      jump\t// out\n        /* \"contracts/CollectionStore.sol\":2810:2985  function add(uint256 a, uint256 b) internal pure returns (uint256) {... */\n    tag_112:\n        /* \"contracts/CollectionStore.sol\":2868:2875  uint256 */\n      0x00\n        /* \"contracts/CollectionStore.sol\":2887:2896  uint256 c */\n      dup1\n        /* \"contracts/CollectionStore.sol\":2903:2904  b */\n      dup3\n        /* \"contracts/CollectionStore.sol\":2899:2900  a */\n      dup5\n        /* \"contracts/CollectionStore.sol\":2899:2904  a + b */\n      add\n        /* \"contracts/CollectionStore.sol\":2887:2904  uint256 c = a + b */\n      swap1\n      pop\n        /* \"contracts/CollectionStore.sol\":2927:2928  a */\n      dup4\n        /* \"contracts/CollectionStore.sol\":2922:2923  c */\n      dup2\n        /* \"contracts/CollectionStore.sol\":2922:2928  c >= a */\n      lt\n      iszero\n        /* \"contracts/CollectionStore.sol\":2914:2960  require(c >= a, \"SafeMath: addition overflow\") */\n      tag_171\n      jumpi\n      mload(0x40)\n      0x08c379a000000000000000000000000000000000000000000000000000000000\n      dup2\n      mstore\n      0x04\n      add\n      tag_172\n      swap1\n      tag_173\n      jump\t// in\n    tag_172:\n      mload(0x40)\n      dup1\n      swap2\n      sub\n      swap1\n      revert\n    tag_171:\n        /* \"contracts/CollectionStore.sol\":2977:2978  c */\n      dup1\n        /* \"contracts/CollectionStore.sol\":2970:2978  return c */\n      swap2\n      pop\n      pop\n        /* \"contracts/CollectionStore.sol\":2810:2985  function add(uint256 a, uint256 b) internal pure returns (uint256) {... */\n      swap3\n      swap2\n      pop\n      pop\n      jump\t// out\n        /* \"contracts/CollectionStore.sol\":3256:3411  function sub(uint256 a, uint256 b) internal pure returns (uint256) {... */\n    tag_114:\n        /* \"contracts/CollectionStore.sol\":3314:3321  uint256 */\n      0x00\n        /* \"contracts/CollectionStore.sol\":3346:3347  a */\n      dup3\n        /* \"contracts/CollectionStore.sol\":3341:3342  b */\n      dup3\n        /* \"contracts/CollectionStore.sol\":3341:3347  b <= a */\n      gt\n      iszero\n        /* \"contracts/CollectionStore.sol\":3333:3382  require(b <= a, \"SafeMath: subtraction overflow\") */\n      tag_175\n      jumpi\n      mload(0x40)\n      0x08c379a000000000000000000000000000000000000000000000000000000000\n      dup2\n      mstore\n      0x04\n      add\n      tag_176\n      swap1\n      tag_177\n      jump\t// in\n    tag_176:\n      mload(0x40)\n      dup1\n      swap2\n      sub\n      swap1\n      revert\n    tag_175:\n        /* \"contracts/CollectionStore.sol\":3403:3404  b */\n      dup2\n        /* \"contracts/CollectionStore.sol\":3399:3400  a */\n      dup4\n        /* \"contracts/CollectionStore.sol\":3399:3404  a - b */\n      sub\n        /* \"contracts/CollectionStore.sol\":3392:3404  return a - b */\n      swap1\n      pop\n        /* \"contracts/CollectionStore.sol\":3256:3411  function sub(uint256 a, uint256 b) internal pure returns (uint256) {... */\n      swap3\n      swap2\n      pop\n      pop\n      jump\t// out\n        /* \"#utility.yul\":24:646   */\n    tag_179:\n      0x00\n        /* \"#utility.yul\":145:225   */\n      tag_181\n        /* \"#utility.yul\":160:224   */\n      tag_182\n        /* \"#utility.yul\":217:223   */\n      dup5\n        /* \"#utility.yul\":160:224   */\n      tag_183\n      jump\t// in\n    tag_182:\n        /* \"#utility.yul\":145:225   */\n      tag_184\n      jump\t// in\n    tag_181:\n        /* \"#utility.yul\":136:225   */\n      swap1\n      pop\n        /* \"#utility.yul\":245:250   */\n      dup1\n        /* \"#utility.yul\":273:279   */\n      dup4\n        /* \"#utility.yul\":266:271   */\n      dup3\n        /* \"#utility.yul\":259:280   */\n      mstore\n        /* \"#utility.yul\":299:303   */\n      0x20\n        /* \"#utility.yul\":292:297   */\n      dup3\n        /* \"#utility.yul\":288:304   */\n      add\n        /* \"#utility.yul\":281:304   */\n      swap1\n      pop\n        /* \"#utility.yul\":324:330   */\n      dup3\n        /* \"#utility.yul\":374:377   */\n      dup6\n        /* \"#utility.yul\":366:370   */\n      0x20\n        /* \"#utility.yul\":358:364   */\n      dup7\n        /* \"#utility.yul\":354:371   */\n      mul\n        /* \"#utility.yul\":349:352   */\n      dup3\n        /* \"#utility.yul\":345:372   */\n      add\n        /* \"#utility.yul\":342:378   */\n      gt\n        /* \"#utility.yul\":339:341   */\n      iszero\n      tag_185\n      jumpi\n        /* \"#utility.yul\":391:392   */\n      0x00\n        /* \"#utility.yul\":388:389   */\n      dup1\n        /* \"#utility.yul\":381:393   */\n      revert\n        /* \"#utility.yul\":339:341   */\n    tag_185:\n        /* \"#utility.yul\":419:420   */\n      0x00\n        /* \"#utility.yul\":404:640   */\n    tag_186:\n        /* \"#utility.yul\":429:435   */\n      dup6\n        /* \"#utility.yul\":426:427   */\n      dup2\n        /* \"#utility.yul\":423:436   */\n      lt\n        /* \"#utility.yul\":404:640   */\n      iszero\n      tag_188\n      jumpi\n        /* \"#utility.yul\":496:499   */\n      dup2\n        /* \"#utility.yul\":524:561   */\n      tag_189\n        /* \"#utility.yul\":557:560   */\n      dup9\n        /* \"#utility.yul\":545:555   */\n      dup3\n        /* \"#utility.yul\":524:561   */\n      tag_190\n      jump\t// in\n    tag_189:\n        /* \"#utility.yul\":519:522   */\n      dup5\n        /* \"#utility.yul\":512:562   */\n      mstore\n        /* \"#utility.yul\":591:595   */\n      0x20\n        /* \"#utility.yul\":586:589   */\n      dup5\n        /* \"#utility.yul\":582:596   */\n      add\n        /* \"#utility.yul\":575:596   */\n      swap4\n      pop\n        /* \"#utility.yul\":625:629   */\n      0x20\n        /* \"#utility.yul\":620:623   */\n      dup4\n        /* \"#utility.yul\":616:630   */\n      add\n        /* \"#utility.yul\":609:630   */\n      swap3\n      pop\n        /* \"#utility.yul\":464:640   */\n      pop\n        /* \"#utility.yul\":451:452   */\n      0x01\n        /* \"#utility.yul\":448:449   */\n      dup2\n        /* \"#utility.yul\":444:453   */\n      add\n        /* \"#utility.yul\":439:453   */\n      swap1\n      pop\n        /* \"#utility.yul\":404:640   */\n      jump(tag_186)\n    tag_188:\n        /* \"#utility.yul\":408:422   */\n      pop\n        /* \"#utility.yul\":126:646   */\n      pop\n      pop\n      swap4\n      swap3\n      pop\n      pop\n      pop\n      jump\t// out\n        /* \"#utility.yul\":694:1357   */\n    tag_191:\n      0x00\n        /* \"#utility.yul\":841:947   */\n      tag_193\n        /* \"#utility.yul\":856:946   */\n      tag_194\n        /* \"#utility.yul\":939:945   */\n      dup5\n        /* \"#utility.yul\":856:946   */\n      tag_195\n      jump\t// in\n    tag_194:\n        /* \"#utility.yul\":841:947   */\n      tag_184\n      jump\t// in\n    tag_193:\n        /* \"#utility.yul\":832:947   */\n      swap1\n      pop\n        /* \"#utility.yul\":967:972   */\n      dup1\n        /* \"#utility.yul\":995:1001   */\n      dup4\n        /* \"#utility.yul\":988:993   */\n      dup3\n        /* \"#utility.yul\":981:1002   */\n      mstore\n        /* \"#utility.yul\":1021:1025   */\n      0x20\n        /* \"#utility.yul\":1014:1019   */\n      dup3\n        /* \"#utility.yul\":1010:1026   */\n      add\n        /* \"#utility.yul\":1003:1026   */\n      swap1\n      pop\n        /* \"#utility.yul\":1046:1052   */\n      dup3\n        /* \"#utility.yul\":1077:1078   */\n      0x00\n        /* \"#utility.yul\":1062:1351   */\n    tag_196:\n        /* \"#utility.yul\":1087:1093   */\n      dup6\n        /* \"#utility.yul\":1084:1085   */\n      dup2\n        /* \"#utility.yul\":1081:1094   */\n      lt\n        /* \"#utility.yul\":1062:1351   */\n      iszero\n      tag_198\n      jumpi\n        /* \"#utility.yul\":1179:1182   */\n      dup2\n        /* \"#utility.yul\":1166:1183   */\n      calldataload\n        /* \"#utility.yul\":1158:1164   */\n      dup6\n        /* \"#utility.yul\":1154:1184   */\n      add\n        /* \"#utility.yul\":1209:1272   */\n      tag_199\n        /* \"#utility.yul\":1268:1271   */\n      dup9\n        /* \"#utility.yul\":1256:1266   */\n      dup3\n        /* \"#utility.yul\":1209:1272   */\n      tag_200\n      jump\t// in\n    tag_199:\n        /* \"#utility.yul\":1204:1207   */\n      dup5\n        /* \"#utility.yul\":1197:1273   */\n      mstore\n        /* \"#utility.yul\":1302:1306   */\n      0x20\n        /* \"#utility.yul\":1297:1300   */\n      dup5\n        /* \"#utility.yul\":1293:1307   */\n      add\n        /* \"#utility.yul\":1286:1307   */\n      swap4\n      pop\n        /* \"#utility.yul\":1336:1340   */\n      0x20\n        /* \"#utility.yul\":1331:1334   */\n      dup4\n        /* \"#utility.yul\":1327:1341   */\n      add\n        /* \"#utility.yul\":1320:1341   */\n      swap3\n      pop\n        /* \"#utility.yul\":1122:1351   */\n      pop\n        /* \"#utility.yul\":1109:1110   */\n      0x01\n        /* \"#utility.yul\":1106:1107   */\n      dup2\n        /* \"#utility.yul\":1102:1111   */\n      add\n        /* \"#utility.yul\":1097:1111   */\n      swap1\n      pop\n        /* \"#utility.yul\":1062:1351   */\n      jump(tag_196)\n    tag_198:\n        /* \"#utility.yul\":1066:1080   */\n      pop\n        /* \"#utility.yul\":822:1357   */\n      pop\n      pop\n      swap4\n      swap3\n      pop\n      pop\n      pop\n      jump\t// out\n        /* \"#utility.yul\":1380:2002   */\n    tag_201:\n      0x00\n        /* \"#utility.yul\":1501:1581   */\n      tag_203\n        /* \"#utility.yul\":1516:1580   */\n      tag_204\n        /* \"#utility.yul\":1573:1579   */\n      dup5\n        /* \"#utility.yul\":1516:1580   */\n      tag_205\n      jump\t// in\n    tag_204:\n        /* \"#utility.yul\":1501:1581   */\n      tag_184\n      jump\t// in\n    tag_203:\n        /* \"#utility.yul\":1492:1581   */\n      swap1\n      pop\n        /* \"#utility.yul\":1601:1606   */\n      dup1\n        /* \"#utility.yul\":1629:1635   */\n      dup4\n        /* \"#utility.yul\":1622:1627   */\n      dup3\n        /* \"#utility.yul\":1615:1636   */\n      mstore\n        /* \"#utility.yul\":1655:1659   */\n      0x20\n        /* \"#utility.yul\":1648:1653   */\n      dup3\n        /* \"#utility.yul\":1644:1660   */\n      add\n        /* \"#utility.yul\":1637:1660   */\n      swap1\n      pop\n        /* \"#utility.yul\":1680:1686   */\n      dup3\n        /* \"#utility.yul\":1730:1733   */\n      dup6\n        /* \"#utility.yul\":1722:1726   */\n      0x20\n        /* \"#utility.yul\":1714:1720   */\n      dup7\n        /* \"#utility.yul\":1710:1727   */\n      mul\n        /* \"#utility.yul\":1705:1708   */\n      dup3\n        /* \"#utility.yul\":1701:1728   */\n      add\n        /* \"#utility.yul\":1698:1734   */\n      gt\n        /* \"#utility.yul\":1695:1697   */\n      iszero\n      tag_206\n      jumpi\n        /* \"#utility.yul\":1747:1748   */\n      0x00\n        /* \"#utility.yul\":1744:1745   */\n      dup1\n        /* \"#utility.yul\":1737:1749   */\n      revert\n        /* \"#utility.yul\":1695:1697   */\n    tag_206:\n        /* \"#utility.yul\":1775:1776   */\n      0x00\n        /* \"#utility.yul\":1760:1996   */\n    tag_207:\n        /* \"#utility.yul\":1785:1791   */\n      dup6\n        /* \"#utility.yul\":1782:1783   */\n      dup2\n        /* \"#utility.yul\":1779:1792   */\n      lt\n        /* \"#utility.yul\":1760:1996   */\n      iszero\n      tag_209\n      jumpi\n        /* \"#utility.yul\":1852:1855   */\n      dup2\n        /* \"#utility.yul\":1880:1917   */\n      tag_210\n        /* \"#utility.yul\":1913:1916   */\n      dup9\n        /* \"#utility.yul\":1901:1911   */\n      dup3\n        /* \"#utility.yul\":1880:1917   */\n      tag_211\n      jump\t// in\n    tag_210:\n        /* \"#utility.yul\":1875:1878   */\n      dup5\n        /* \"#utility.yul\":1868:1918   */\n      mstore\n        /* \"#utility.yul\":1947:1951   */\n      0x20\n        /* \"#utility.yul\":1942:1945   */\n      dup5\n        /* \"#utility.yul\":1938:1952   */\n      add\n        /* \"#utility.yul\":1931:1952   */\n      swap4\n      pop\n        /* \"#utility.yul\":1981:1985   */\n      0x20\n        /* \"#utility.yul\":1976:1979   */\n      dup4\n        /* \"#utility.yul\":1972:1986   */\n      add\n        /* \"#utility.yul\":1965:1986   */\n      swap3\n      pop\n        /* \"#utility.yul\":1820:1996   */\n      pop\n        /* \"#utility.yul\":1807:1808   */\n      0x01\n        /* \"#utility.yul\":1804:1805   */\n      dup2\n        /* \"#utility.yul\":1800:1809   */\n      add\n        /* \"#utility.yul\":1795:1809   */\n      swap1\n      pop\n        /* \"#utility.yul\":1760:1996   */\n      jump(tag_207)\n    tag_209:\n        /* \"#utility.yul\":1764:1778   */\n      pop\n        /* \"#utility.yul\":1482:2002   */\n      pop\n      pop\n      swap4\n      swap3\n      pop\n      pop\n      pop\n      jump\t// out\n        /* \"#utility.yul\":2008:2361   */\n    tag_212:\n      0x00\n        /* \"#utility.yul\":2122:2187   */\n      tag_214\n        /* \"#utility.yul\":2137:2186   */\n      tag_215\n        /* \"#utility.yul\":2179:2185   */\n      dup5\n        /* \"#utility.yul\":2137:2186   */\n      tag_216\n      jump\t// in\n    tag_215:\n        /* \"#utility.yul\":2122:2187   */\n      tag_184\n      jump\t// in\n    tag_214:\n        /* \"#utility.yul\":2113:2187   */\n      swap1\n      pop\n        /* \"#utility.yul\":2210:2216   */\n      dup3\n        /* \"#utility.yul\":2203:2208   */\n      dup2\n        /* \"#utility.yul\":2196:2217   */\n      mstore\n        /* \"#utility.yul\":2248:2252   */\n      0x20\n        /* \"#utility.yul\":2241:2246   */\n      dup2\n        /* \"#utility.yul\":2237:2253   */\n      add\n        /* \"#utility.yul\":2286:2289   */\n      dup5\n        /* \"#utility.yul\":2277:2283   */\n      dup5\n        /* \"#utility.yul\":2272:2275   */\n      dup5\n        /* \"#utility.yul\":2268:2284   */\n      add\n        /* \"#utility.yul\":2265:2290   */\n      gt\n        /* \"#utility.yul\":2262:2264   */\n      iszero\n      tag_217\n      jumpi\n        /* \"#utility.yul\":2303:2304   */\n      0x00\n        /* \"#utility.yul\":2300:2301   */\n      dup1\n        /* \"#utility.yul\":2293:2305   */\n      revert\n        /* \"#utility.yul\":2262:2264   */\n    tag_217:\n        /* \"#utility.yul\":2316:2355   */\n      tag_218\n        /* \"#utility.yul\":2348:2354   */\n      dup5\n        /* \"#utility.yul\":2343:2346   */\n      dup3\n        /* \"#utility.yul\":2338:2341   */\n      dup6\n        /* \"#utility.yul\":2316:2355   */\n      tag_219\n      jump\t// in\n    tag_218:\n        /* \"#utility.yul\":2103:2361   */\n      pop\n      swap4\n      swap3\n      pop\n      pop\n      pop\n      jump\t// out\n        /* \"#utility.yul\":2367:2506   */\n    tag_190:\n      0x00\n        /* \"#utility.yul\":2451:2457   */\n      dup2\n        /* \"#utility.yul\":2438:2458   */\n      calldataload\n        /* \"#utility.yul\":2429:2458   */\n      swap1\n      pop\n        /* \"#utility.yul\":2467:2500   */\n      tag_221\n        /* \"#utility.yul\":2494:2499   */\n      dup2\n        /* \"#utility.yul\":2467:2500   */\n      tag_222\n      jump\t// in\n    tag_221:\n        /* \"#utility.yul\":2419:2506   */\n      swap3\n      swap2\n      pop\n      pop\n      jump\t// out\n        /* \"#utility.yul\":2512:2655   */\n    tag_223:\n      0x00\n        /* \"#utility.yul\":2600:2606   */\n      dup2\n        /* \"#utility.yul\":2594:2607   */\n      mload\n        /* \"#utility.yul\":2585:2607   */\n      swap1\n      pop\n        /* \"#utility.yul\":2616:2649   */\n      tag_225\n        /* \"#utility.yul\":2643:2648   */\n      dup2\n        /* \"#utility.yul\":2616:2649   */\n      tag_222\n      jump\t// in\n    tag_225:\n        /* \"#utility.yul\":2575:2655   */\n      swap3\n      swap2\n      pop\n      pop\n      jump\t// out\n        /* \"#utility.yul\":2678:2981   */\n    tag_226:\n      0x00\n        /* \"#utility.yul\":2798:2801   */\n      dup3\n        /* \"#utility.yul\":2791:2795   */\n      0x1f\n        /* \"#utility.yul\":2783:2789   */\n      dup4\n        /* \"#utility.yul\":2779:2796   */\n      add\n        /* \"#utility.yul\":2775:2802   */\n      slt\n        /* \"#utility.yul\":2765:2767   */\n      tag_228\n      jumpi\n        /* \"#utility.yul\":2816:2817   */\n      0x00\n        /* \"#utility.yul\":2813:2814   */\n      dup1\n        /* \"#utility.yul\":2806:2818   */\n      revert\n        /* \"#utility.yul\":2765:2767   */\n    tag_228:\n        /* \"#utility.yul\":2856:2862   */\n      dup2\n        /* \"#utility.yul\":2843:2863   */\n      calldataload\n        /* \"#utility.yul\":2881:2975   */\n      tag_229\n        /* \"#utility.yul\":2971:2974   */\n      dup5\n        /* \"#utility.yul\":2963:2969   */\n      dup3\n        /* \"#utility.yul\":2956:2960   */\n      0x20\n        /* \"#utility.yul\":2948:2954   */\n      dup7\n        /* \"#utility.yul\":2944:2961   */\n      add\n        /* \"#utility.yul\":2881:2975   */\n      tag_179\n      jump\t// in\n    tag_229:\n        /* \"#utility.yul\":2872:2975   */\n      swap2\n      pop\n        /* \"#utility.yul\":2755:2981   */\n      pop\n      swap3\n      swap2\n      pop\n      pop\n      jump\t// out\n        /* \"#utility.yul\":3029:3384   */\n    tag_230:\n      0x00\n        /* \"#utility.yul\":3175:3178   */\n      dup3\n        /* \"#utility.yul\":3168:3172   */\n      0x1f\n        /* \"#utility.yul\":3160:3166   */\n      dup4\n        /* \"#utility.yul\":3156:3173   */\n      add\n        /* \"#utility.yul\":3152:3179   */\n      slt\n        /* \"#utility.yul\":3142:3144   */\n      tag_232\n      jumpi\n        /* \"#utility.yul\":3193:3194   */\n      0x00\n        /* \"#utility.yul\":3190:3191   */\n      dup1\n        /* \"#utility.yul\":3183:3195   */\n      revert\n        /* \"#utility.yul\":3142:3144   */\n    tag_232:\n        /* \"#utility.yul\":3233:3239   */\n      dup2\n        /* \"#utility.yul\":3220:3240   */\n      calldataload\n        /* \"#utility.yul\":3258:3378   */\n      tag_233\n        /* \"#utility.yul\":3374:3377   */\n      dup5\n        /* \"#utility.yul\":3366:3372   */\n      dup3\n        /* \"#utility.yul\":3359:3363   */\n      0x20\n        /* \"#utility.yul\":3351:3357   */\n      dup7\n        /* \"#utility.yul\":3347:3364   */\n      add\n        /* \"#utility.yul\":3258:3378   */\n      tag_191\n      jump\t// in\n    tag_233:\n        /* \"#utility.yul\":3249:3378   */\n      swap2\n      pop\n        /* \"#utility.yul\":3132:3384   */\n      pop\n      swap3\n      swap2\n      pop\n      pop\n      jump\t// out\n        /* \"#utility.yul\":3407:3710   */\n    tag_234:\n      0x00\n        /* \"#utility.yul\":3527:3530   */\n      dup3\n        /* \"#utility.yul\":3520:3524   */\n      0x1f\n        /* \"#utility.yul\":3512:3518   */\n      dup4\n        /* \"#utility.yul\":3508:3525   */\n      add\n        /* \"#utility.yul\":3504:3531   */\n      slt\n        /* \"#utility.yul\":3494:3496   */\n      tag_236\n      jumpi\n        /* \"#utility.yul\":3545:3546   */\n      0x00\n        /* \"#utility.yul\":3542:3543   */\n      dup1\n        /* \"#utility.yul\":3535:3547   */\n      revert\n        /* \"#utility.yul\":3494:3496   */\n    tag_236:\n        /* \"#utility.yul\":3585:3591   */\n      dup2\n        /* \"#utility.yul\":3572:3592   */\n      calldataload\n        /* \"#utility.yul\":3610:3704   */\n      tag_237\n        /* \"#utility.yul\":3700:3703   */\n      dup5\n        /* \"#utility.yul\":3692:3698   */\n      dup3\n        /* \"#utility.yul\":3685:3689   */\n      0x20\n        /* \"#utility.yul\":3677:3683   */\n      dup7\n        /* \"#utility.yul\":3673:3690   */\n      add\n        /* \"#utility.yul\":3610:3704   */\n      tag_201\n      jump\t// in\n    tag_237:\n        /* \"#utility.yul\":3601:3704   */\n      swap2\n      pop\n        /* \"#utility.yul\":3484:3710   */\n      pop\n      swap3\n      swap2\n      pop\n      pop\n      jump\t// out\n        /* \"#utility.yul\":3716:3853   */\n    tag_238:\n      0x00\n        /* \"#utility.yul\":3801:3807   */\n      dup2\n        /* \"#utility.yul\":3795:3808   */\n      mload\n        /* \"#utility.yul\":3786:3808   */\n      swap1\n      pop\n        /* \"#utility.yul\":3817:3847   */\n      tag_240\n        /* \"#utility.yul\":3841:3846   */\n      dup2\n        /* \"#utility.yul\":3817:3847   */\n      tag_241\n      jump\t// in\n    tag_240:\n        /* \"#utility.yul\":3776:3853   */\n      swap3\n      swap2\n      pop\n      pop\n      jump\t// out\n        /* \"#utility.yul\":3859:4052   */\n    tag_242:\n      0x00\n        /* \"#utility.yul\":3970:3976   */\n      dup2\n        /* \"#utility.yul\":3957:3977   */\n      calldataload\n        /* \"#utility.yul\":3948:3977   */\n      swap1\n      pop\n        /* \"#utility.yul\":3986:4046   */\n      tag_244\n        /* \"#utility.yul\":4040:4045   */\n      dup2\n        /* \"#utility.yul\":3986:4046   */\n      tag_245\n      jump\t// in\n    tag_244:\n        /* \"#utility.yul\":3938:4052   */\n      swap3\n      swap2\n      pop\n      pop\n      jump\t// out\n        /* \"#utility.yul\":4072:4360   */\n    tag_246:\n      0x00\n        /* \"#utility.yul\":4188:4191   */\n      dup3\n        /* \"#utility.yul\":4181:4185   */\n      0x1f\n        /* \"#utility.yul\":4173:4179   */\n      dup4\n        /* \"#utility.yul\":4169:4186   */\n      add\n        /* \"#utility.yul\":4165:4192   */\n      slt\n        /* \"#utility.yul\":4155:4157   */\n      tag_248\n      jumpi\n        /* \"#utility.yul\":4206:4207   */\n      0x00\n        /* \"#utility.yul\":4203:4204   */\n      dup1\n        /* \"#utility.yul\":4196:4208   */\n      revert\n        /* \"#utility.yul\":4155:4157   */\n    tag_248:\n        /* \"#utility.yul\":4239:4245   */\n      dup2\n        /* \"#utility.yul\":4233:4246   */\n      mload\n        /* \"#utility.yul\":4264:4354   */\n      tag_249\n        /* \"#utility.yul\":4350:4353   */\n      dup5\n        /* \"#utility.yul\":4342:4348   */\n      dup3\n        /* \"#utility.yul\":4335:4339   */\n      0x20\n        /* \"#utility.yul\":4327:4333   */\n      dup7\n        /* \"#utility.yul\":4323:4340   */\n      add\n        /* \"#utility.yul\":4264:4354   */\n      tag_212\n      jump\t// in\n    tag_249:\n        /* \"#utility.yul\":4255:4354   */\n      swap2\n      pop\n        /* \"#utility.yul\":4145:4360   */\n      pop\n      swap3\n      swap2\n      pop\n      pop\n      jump\t// out\n        /* \"#utility.yul\":4406:5632   */\n    tag_200:\n      0x00\n        /* \"#utility.yul\":4525:4529   */\n      0x80\n        /* \"#utility.yul\":4513:4522   */\n      dup3\n        /* \"#utility.yul\":4508:4511   */\n      dup5\n        /* \"#utility.yul\":4504:4523   */\n      sub\n        /* \"#utility.yul\":4500:4530   */\n      slt\n        /* \"#utility.yul\":4497:4499   */\n      iszero\n      tag_251\n      jumpi\n        /* \"#utility.yul\":4543:4544   */\n      0x00\n        /* \"#utility.yul\":4540:4541   */\n      dup1\n        /* \"#utility.yul\":4533:4545   */\n      revert\n        /* \"#utility.yul\":4497:4499   */\n    tag_251:\n        /* \"#utility.yul\":4565:4585   */\n      tag_252\n        /* \"#utility.yul\":4580:4584   */\n      0x80\n        /* \"#utility.yul\":4565:4585   */\n      tag_184\n      jump\t// in\n    tag_252:\n        /* \"#utility.yul\":4556:4585   */\n      swap1\n      pop\n        /* \"#utility.yul\":4650:4651   */\n      0x00\n        /* \"#utility.yul\":4690:4766   */\n      tag_253\n        /* \"#utility.yul\":4762:4765   */\n      dup5\n        /* \"#utility.yul\":4753:4759   */\n      dup3\n        /* \"#utility.yul\":4742:4751   */\n      dup6\n        /* \"#utility.yul\":4738:4760   */\n      add\n        /* \"#utility.yul\":4690:4766   */\n      tag_242\n      jump\t// in\n    tag_253:\n        /* \"#utility.yul\":4683:4687   */\n      0x00\n        /* \"#utility.yul\":4676:4681   */\n      dup4\n        /* \"#utility.yul\":4672:4688   */\n      add\n        /* \"#utility.yul\":4665:4767   */\n      mstore\n        /* \"#utility.yul\":4595:4778   */\n      pop\n        /* \"#utility.yul\":4864:4866   */\n      0x20\n        /* \"#utility.yul\":4853:4862   */\n      dup3\n        /* \"#utility.yul\":4849:4867   */\n      add\n        /* \"#utility.yul\":4836:4868   */\n      calldataload\n        /* \"#utility.yul\":4895:4913   */\n      0xffffffffffffffff\n        /* \"#utility.yul\":4887:4893   */\n      dup2\n        /* \"#utility.yul\":4884:4914   */\n      gt\n        /* \"#utility.yul\":4881:4883   */\n      iszero\n      tag_254\n      jumpi\n        /* \"#utility.yul\":4927:4928   */\n      0x00\n        /* \"#utility.yul\":4924:4925   */\n      dup1\n        /* \"#utility.yul\":4917:4929   */\n      revert\n        /* \"#utility.yul\":4881:4883   */\n    tag_254:\n        /* \"#utility.yul\":4970:5044   */\n      tag_255\n        /* \"#utility.yul\":5040:5043   */\n      dup5\n        /* \"#utility.yul\":5031:5037   */\n      dup3\n        /* \"#utility.yul\":5020:5029   */\n      dup6\n        /* \"#utility.yul\":5016:5038   */\n      add\n        /* \"#utility.yul\":4970:5044   */\n      tag_234\n      jump\t// in\n    tag_255:\n        /* \"#utility.yul\":4963:4967   */\n      0x20\n        /* \"#utility.yul\":4956:4961   */\n      dup4\n        /* \"#utility.yul\":4952:4968   */\n      add\n        /* \"#utility.yul\":4945:5045   */\n      mstore\n        /* \"#utility.yul\":4788:5056   */\n      pop\n        /* \"#utility.yul\":5145:5147   */\n      0x40\n        /* \"#utility.yul\":5134:5143   */\n      dup3\n        /* \"#utility.yul\":5130:5148   */\n      add\n        /* \"#utility.yul\":5117:5149   */\n      calldataload\n        /* \"#utility.yul\":5176:5194   */\n      0xffffffffffffffff\n        /* \"#utility.yul\":5168:5174   */\n      dup2\n        /* \"#utility.yul\":5165:5195   */\n      gt\n        /* \"#utility.yul\":5162:5164   */\n      iszero\n      tag_256\n      jumpi\n        /* \"#utility.yul\":5208:5209   */\n      0x00\n        /* \"#utility.yul\":5205:5206   */\n      dup1\n        /* \"#utility.yul\":5198:5210   */\n      revert\n        /* \"#utility.yul\":5162:5164   */\n    tag_256:\n        /* \"#utility.yul\":5251:5325   */\n      tag_257\n        /* \"#utility.yul\":5321:5324   */\n      dup5\n        /* \"#utility.yul\":5312:5318   */\n      dup3\n        /* \"#utility.yul\":5301:5310   */\n      dup6\n        /* \"#utility.yul\":5297:5319   */\n      add\n        /* \"#utility.yul\":5251:5325   */\n      tag_234\n      jump\t// in\n    tag_257:\n        /* \"#utility.yul\":5244:5248   */\n      0x40\n        /* \"#utility.yul\":5237:5242   */\n      dup4\n        /* \"#utility.yul\":5233:5249   */\n      add\n        /* \"#utility.yul\":5226:5326   */\n      mstore\n        /* \"#utility.yul\":5066:5337   */\n      pop\n        /* \"#utility.yul\":5433:5435   */\n      0x60\n        /* \"#utility.yul\":5422:5431   */\n      dup3\n        /* \"#utility.yul\":5418:5436   */\n      add\n        /* \"#utility.yul\":5405:5437   */\n      calldataload\n        /* \"#utility.yul\":5464:5482   */\n      0xffffffffffffffff\n        /* \"#utility.yul\":5456:5462   */\n      dup2\n        /* \"#utility.yul\":5453:5483   */\n      gt\n        /* \"#utility.yul\":5450:5452   */\n      iszero\n      tag_258\n      jumpi\n        /* \"#utility.yul\":5496:5497   */\n      0x00\n        /* \"#utility.yul\":5493:5494   */\n      dup1\n        /* \"#utility.yul\":5486:5498   */\n      revert\n        /* \"#utility.yul\":5450:5452   */\n    tag_258:\n        /* \"#utility.yul\":5539:5613   */\n      tag_259\n        /* \"#utility.yul\":5609:5612   */\n      dup5\n        /* \"#utility.yul\":5600:5606   */\n      dup3\n        /* \"#utility.yul\":5589:5598   */\n      dup6\n        /* \"#utility.yul\":5585:5607   */\n      add\n        /* \"#utility.yul\":5539:5613   */\n      tag_226\n      jump\t// in\n    tag_259:\n        /* \"#utility.yul\":5532:5536   */\n      0x60\n        /* \"#utility.yul\":5525:5530   */\n      dup4\n        /* \"#utility.yul\":5521:5537   */\n      add\n        /* \"#utility.yul\":5514:5614   */\n      mstore\n        /* \"#utility.yul\":5347:5625   */\n      pop\n        /* \"#utility.yul\":4487:5632   */\n      swap3\n      swap2\n      pop\n      pop\n      jump\t// out\n        /* \"#utility.yul\":5638:5777   */\n    tag_211:\n      0x00\n        /* \"#utility.yul\":5722:5728   */\n      dup2\n        /* \"#utility.yul\":5709:5729   */\n      calldataload\n        /* \"#utility.yul\":5700:5729   */\n      swap1\n      pop\n        /* \"#utility.yul\":5738:5771   */\n      tag_261\n        /* \"#utility.yul\":5765:5770   */\n      dup2\n        /* \"#utility.yul\":5738:5771   */\n      tag_262\n      jump\t// in\n    tag_261:\n        /* \"#utility.yul\":5690:5777   */\n      swap3\n      swap2\n      pop\n      pop\n      jump\t// out\n        /* \"#utility.yul\":5783:5926   */\n    tag_263:\n      0x00\n        /* \"#utility.yul\":5871:5877   */\n      dup2\n        /* \"#utility.yul\":5865:5878   */\n      mload\n        /* \"#utility.yul\":5856:5878   */\n      swap1\n      pop\n        /* \"#utility.yul\":5887:5920   */\n      tag_265\n        /* \"#utility.yul\":5914:5919   */\n      dup2\n        /* \"#utility.yul\":5887:5920   */\n      tag_262\n      jump\t// in\n    tag_265:\n        /* \"#utility.yul\":5846:5926   */\n      swap3\n      swap2\n      pop\n      pop\n      jump\t// out\n        /* \"#utility.yul\":5932:6194   */\n    tag_25:\n      0x00\n        /* \"#utility.yul\":6040:6042   */\n      0x20\n        /* \"#utility.yul\":6028:6037   */\n      dup3\n        /* \"#utility.yul\":6019:6026   */\n      dup5\n        /* \"#utility.yul\":6015:6038   */\n      sub\n        /* \"#utility.yul\":6011:6043   */\n      slt\n        /* \"#utility.yul\":6008:6010   */\n      iszero\n      tag_267\n      jumpi\n        /* \"#utility.yul\":6056:6057   */\n      0x00\n        /* \"#utility.yul\":6053:6054   */\n      dup1\n        /* \"#utility.yul\":6046:6058   */\n      revert\n        /* \"#utility.yul\":6008:6010   */\n    tag_267:\n        /* \"#utility.yul\":6099:6100   */\n      0x00\n        /* \"#utility.yul\":6124:6177   */\n      tag_268\n        /* \"#utility.yul\":6169:6176   */\n      dup5\n        /* \"#utility.yul\":6160:6166   */\n      dup3\n        /* \"#utility.yul\":6149:6158   */\n      dup6\n        /* \"#utility.yul\":6145:6167   */\n      add\n        /* \"#utility.yul\":6124:6177   */\n      tag_190\n      jump\t// in\n    tag_268:\n        /* \"#utility.yul\":6114:6177   */\n      swap2\n      pop\n        /* \"#utility.yul\":6070:6187   */\n      pop\n        /* \"#utility.yul\":5998:6194   */\n      swap3\n      swap2\n      pop\n      pop\n      jump\t// out\n        /* \"#utility.yul\":6200:6657   */\n    tag_39:\n      0x00\n        /* \"#utility.yul\":6359:6361   */\n      0x20\n        /* \"#utility.yul\":6347:6356   */\n      dup3\n        /* \"#utility.yul\":6338:6345   */\n      dup5\n        /* \"#utility.yul\":6334:6357   */\n      sub\n        /* \"#utility.yul\":6330:6362   */\n      slt\n        /* \"#utility.yul\":6327:6329   */\n      iszero\n      tag_270\n      jumpi\n        /* \"#utility.yul\":6375:6376   */\n      0x00\n        /* \"#utility.yul\":6372:6373   */\n      dup1\n        /* \"#utility.yul\":6365:6377   */\n      revert\n        /* \"#utility.yul\":6327:6329   */\n    tag_270:\n        /* \"#utility.yul\":6446:6447   */\n      0x00\n        /* \"#utility.yul\":6435:6444   */\n      dup3\n        /* \"#utility.yul\":6431:6448   */\n      add\n        /* \"#utility.yul\":6418:6449   */\n      calldataload\n        /* \"#utility.yul\":6476:6494   */\n      0xffffffffffffffff\n        /* \"#utility.yul\":6468:6474   */\n      dup2\n        /* \"#utility.yul\":6465:6495   */\n      gt\n        /* \"#utility.yul\":6462:6464   */\n      iszero\n      tag_271\n      jumpi\n        /* \"#utility.yul\":6508:6509   */\n      0x00\n        /* \"#utility.yul\":6505:6506   */\n      dup1\n        /* \"#utility.yul\":6498:6510   */\n      revert\n        /* \"#utility.yul\":6462:6464   */\n    tag_271:\n        /* \"#utility.yul\":6536:6640   */\n      tag_272\n        /* \"#utility.yul\":6632:6639   */\n      dup5\n        /* \"#utility.yul\":6623:6629   */\n      dup3\n        /* \"#utility.yul\":6612:6621   */\n      dup6\n        /* \"#utility.yul\":6608:6630   */\n      add\n        /* \"#utility.yul\":6536:6640   */\n      tag_230\n      jump\t// in\n    tag_272:\n        /* \"#utility.yul\":6526:6640   */\n      swap2\n      pop\n        /* \"#utility.yul\":6389:6650   */\n      pop\n        /* \"#utility.yul\":6317:6657   */\n      swap3\n      swap2\n      pop\n      pop\n      jump\t// out\n        /* \"#utility.yul\":6663:6941   */\n    tag_121:\n      0x00\n        /* \"#utility.yul\":6779:6781   */\n      0x20\n        /* \"#utility.yul\":6767:6776   */\n      dup3\n        /* \"#utility.yul\":6758:6765   */\n      dup5\n        /* \"#utility.yul\":6754:6777   */\n      sub\n        /* \"#utility.yul\":6750:6782   */\n      slt\n        /* \"#utility.yul\":6747:6749   */\n      iszero\n      tag_274\n      jumpi\n        /* \"#utility.yul\":6795:6796   */\n      0x00\n        /* \"#utility.yul\":6792:6793   */\n      dup1\n        /* \"#utility.yul\":6785:6797   */\n      revert\n        /* \"#utility.yul\":6747:6749   */\n    tag_274:\n        /* \"#utility.yul\":6838:6839   */\n      0x00\n        /* \"#utility.yul\":6863:6924   */\n      tag_275\n        /* \"#utility.yul\":6916:6923   */\n      dup5\n        /* \"#utility.yul\":6907:6913   */\n      dup3\n        /* \"#utility.yul\":6896:6905   */\n      dup6\n        /* \"#utility.yul\":6892:6914   */\n      add\n        /* \"#utility.yul\":6863:6924   */\n      tag_238\n      jump\t// in\n    tag_275:\n        /* \"#utility.yul\":6853:6924   */\n      swap2\n      pop\n        /* \"#utility.yul\":6809:6934   */\n      pop\n        /* \"#utility.yul\":6737:6941   */\n      swap3\n      swap2\n      pop\n      pop\n      jump\t// out\n        /* \"#utility.yul\":6947:7408   */\n    tag_49:\n      0x00\n      dup1\n        /* \"#utility.yul\":7099:7101   */\n      0x40\n        /* \"#utility.yul\":7087:7096   */\n      dup4\n        /* \"#utility.yul\":7078:7085   */\n      dup6\n        /* \"#utility.yul\":7074:7097   */\n      sub\n        /* \"#utility.yul\":7070:7102   */\n      slt\n        /* \"#utility.yul\":7067:7069   */\n      iszero\n      tag_277\n      jumpi\n        /* \"#utility.yul\":7115:7116   */\n      0x00\n        /* \"#utility.yul\":7112:7113   */\n      dup1\n        /* \"#utility.yul\":7105:7117   */\n      revert\n        /* \"#utility.yul\":7067:7069   */\n    tag_277:\n        /* \"#utility.yul\":7158:7159   */\n      0x00\n        /* \"#utility.yul\":7183:7263   */\n      tag_278\n        /* \"#utility.yul\":7255:7262   */\n      dup6\n        /* \"#utility.yul\":7246:7252   */\n      dup3\n        /* \"#utility.yul\":7235:7244   */\n      dup7\n        /* \"#utility.yul\":7231:7253   */\n      add\n        /* \"#utility.yul\":7183:7263   */\n      tag_242\n      jump\t// in\n    tag_278:\n        /* \"#utility.yul\":7173:7263   */\n      swap3\n      pop\n        /* \"#utility.yul\":7129:7273   */\n      pop\n        /* \"#utility.yul\":7312:7314   */\n      0x20\n        /* \"#utility.yul\":7338:7391   */\n      tag_279\n        /* \"#utility.yul\":7383:7390   */\n      dup6\n        /* \"#utility.yul\":7374:7380   */\n      dup3\n        /* \"#utility.yul\":7363:7372   */\n      dup7\n        /* \"#utility.yul\":7359:7381   */\n      add\n        /* \"#utility.yul\":7338:7391   */\n      tag_211\n      jump\t// in\n    tag_279:\n        /* \"#utility.yul\":7328:7391   */\n      swap2\n      pop\n        /* \"#utility.yul\":7283:7401   */\n      pop\n        /* \"#utility.yul\":7057:7408   */\n      swap3\n      pop\n      swap3\n      swap1\n      pop\n      jump\t// out\n        /* \"#utility.yul\":7414:8956   */\n    tag_147:\n      0x00\n      dup1\n      0x00\n      dup1\n      0x00\n      dup1\n      0x00\n        /* \"#utility.yul\":7665:7668   */\n      0xe0\n        /* \"#utility.yul\":7653:7662   */\n      dup9\n        /* \"#utility.yul\":7644:7651   */\n      dup11\n        /* \"#utility.yul\":7640:7663   */\n      sub\n        /* \"#utility.yul\":7636:7669   */\n      slt\n        /* \"#utility.yul\":7633:7635   */\n      iszero\n      tag_281\n      jumpi\n        /* \"#utility.yul\":7682:7683   */\n      0x00\n        /* \"#utility.yul\":7679:7680   */\n      dup1\n        /* \"#utility.yul\":7672:7684   */\n      revert\n        /* \"#utility.yul\":7633:7635   */\n    tag_281:\n        /* \"#utility.yul\":7746:7747   */\n      0x00\n        /* \"#utility.yul\":7735:7744   */\n      dup9\n        /* \"#utility.yul\":7731:7748   */\n      add\n        /* \"#utility.yul\":7725:7749   */\n      mload\n        /* \"#utility.yul\":7776:7794   */\n      0xffffffffffffffff\n        /* \"#utility.yul\":7768:7774   */\n      dup2\n        /* \"#utility.yul\":7765:7795   */\n      gt\n        /* \"#utility.yul\":7762:7764   */\n      iszero\n      tag_282\n      jumpi\n        /* \"#utility.yul\":7808:7809   */\n      0x00\n        /* \"#utility.yul\":7805:7806   */\n      dup1\n        /* \"#utility.yul\":7798:7810   */\n      revert\n        /* \"#utility.yul\":7762:7764   */\n    tag_282:\n        /* \"#utility.yul\":7836:7910   */\n      tag_283\n        /* \"#utility.yul\":7902:7909   */\n      dup11\n        /* \"#utility.yul\":7893:7899   */\n      dup3\n        /* \"#utility.yul\":7882:7891   */\n      dup12\n        /* \"#utility.yul\":7878:7900   */\n      add\n        /* \"#utility.yul\":7836:7910   */\n      tag_246\n      jump\t// in\n    tag_283:\n        /* \"#utility.yul\":7826:7910   */\n      swap8\n      pop\n        /* \"#utility.yul\":7696:7920   */\n      pop\n        /* \"#utility.yul\":7959:7961   */\n      0x20\n        /* \"#utility.yul\":7985:8049   */\n      tag_284\n        /* \"#utility.yul\":8041:8048   */\n      dup11\n        /* \"#utility.yul\":8032:8038   */\n      dup3\n        /* \"#utility.yul\":8021:8030   */\n      dup12\n        /* \"#utility.yul\":8017:8039   */\n      add\n        /* \"#utility.yul\":7985:8049   */\n      tag_263\n      jump\t// in\n    tag_284:\n        /* \"#utility.yul\":7975:8049   */\n      swap7\n      pop\n        /* \"#utility.yul\":7930:8059   */\n      pop\n        /* \"#utility.yul\":8098:8100   */\n      0x40\n        /* \"#utility.yul\":8124:8188   */\n      tag_285\n        /* \"#utility.yul\":8180:8187   */\n      dup11\n        /* \"#utility.yul\":8171:8177   */\n      dup3\n        /* \"#utility.yul\":8160:8169   */\n      dup12\n        /* \"#utility.yul\":8156:8178   */\n      add\n        /* \"#utility.yul\":8124:8188   */\n      tag_263\n      jump\t// in\n    tag_285:\n        /* \"#utility.yul\":8114:8188   */\n      swap6\n      pop\n        /* \"#utility.yul\":8069:8198   */\n      pop\n        /* \"#utility.yul\":8237:8239   */\n      0x60\n        /* \"#utility.yul\":8263:8327   */\n      tag_286\n        /* \"#utility.yul\":8319:8326   */\n      dup11\n        /* \"#utility.yul\":8310:8316   */\n      dup3\n        /* \"#utility.yul\":8299:8308   */\n      dup12\n        /* \"#utility.yul\":8295:8317   */\n      add\n        /* \"#utility.yul\":8263:8327   */\n      tag_263\n      jump\t// in\n    tag_286:\n        /* \"#utility.yul\":8253:8327   */\n      swap5\n      pop\n        /* \"#utility.yul\":8208:8337   */\n      pop\n        /* \"#utility.yul\":8376:8379   */\n      0x80\n        /* \"#utility.yul\":8403:8467   */\n      tag_287\n        /* \"#utility.yul\":8459:8466   */\n      dup11\n        /* \"#utility.yul\":8450:8456   */\n      dup3\n        /* \"#utility.yul\":8439:8448   */\n      dup12\n        /* \"#utility.yul\":8435:8457   */\n      add\n        /* \"#utility.yul\":8403:8467   */\n      tag_223\n      jump\t// in\n    tag_287:\n        /* \"#utility.yul\":8393:8467   */\n      swap4\n      pop\n        /* \"#utility.yul\":8347:8477   */\n      pop\n        /* \"#utility.yul\":8537:8540   */\n      0xa0\n        /* \"#utility.yul\":8526:8535   */\n      dup9\n        /* \"#utility.yul\":8522:8541   */\n      add\n        /* \"#utility.yul\":8516:8542   */\n      mload\n        /* \"#utility.yul\":8569:8587   */\n      0xffffffffffffffff\n        /* \"#utility.yul\":8561:8567   */\n      dup2\n        /* \"#utility.yul\":8558:8588   */\n      gt\n        /* \"#utility.yul\":8555:8557   */\n      iszero\n      tag_288\n      jumpi\n        /* \"#utility.yul\":8601:8602   */\n      0x00\n        /* \"#utility.yul\":8598:8599   */\n      dup1\n        /* \"#utility.yul\":8591:8603   */\n      revert\n        /* \"#utility.yul\":8555:8557   */\n    tag_288:\n        /* \"#utility.yul\":8629:8703   */\n      tag_289\n        /* \"#utility.yul\":8695:8702   */\n      dup11\n        /* \"#utility.yul\":8686:8692   */\n      dup3\n        /* \"#utility.yul\":8675:8684   */\n      dup12\n        /* \"#utility.yul\":8671:8693   */\n      add\n        /* \"#utility.yul\":8629:8703   */\n      tag_246\n      jump\t// in\n    tag_289:\n        /* \"#utility.yul\":8619:8703   */\n      swap3\n      pop\n        /* \"#utility.yul\":8487:8713   */\n      pop\n        /* \"#utility.yul\":8773:8776   */\n      0xc0\n        /* \"#utility.yul\":8762:8771   */\n      dup9\n        /* \"#utility.yul\":8758:8777   */\n      add\n        /* \"#utility.yul\":8752:8778   */\n      mload\n        /* \"#utility.yul\":8805:8823   */\n      0xffffffffffffffff\n        /* \"#utility.yul\":8797:8803   */\n      dup2\n        /* \"#utility.yul\":8794:8824   */\n      gt\n        /* \"#utility.yul\":8791:8793   */\n      iszero\n      tag_290\n      jumpi\n        /* \"#utility.yul\":8837:8838   */\n      0x00\n        /* \"#utility.yul\":8834:8835   */\n      dup1\n        /* \"#utility.yul\":8827:8839   */\n      revert\n        /* \"#utility.yul\":8791:8793   */\n    tag_290:\n        /* \"#utility.yul\":8865:8939   */\n      tag_291\n        /* \"#utility.yul\":8931:8938   */\n      dup11\n        /* \"#utility.yul\":8922:8928   */\n      dup3\n        /* \"#utility.yul\":8911:8920   */\n      dup12\n        /* \"#utility.yul\":8907:8929   */\n      add\n        /* \"#utility.yul\":8865:8939   */\n      tag_246\n      jump\t// in\n    tag_291:\n        /* \"#utility.yul\":8855:8939   */\n      swap2\n      pop\n        /* \"#utility.yul\":8723:8949   */\n      pop\n        /* \"#utility.yul\":7623:8956   */\n      swap3\n      swap6\n      swap9\n      swap2\n      swap5\n      swap8\n      pop\n      swap3\n      swap6\n      pop\n      jump\t// out\n        /* \"#utility.yul\":8962:9224   */\n    tag_29:\n      0x00\n        /* \"#utility.yul\":9070:9072   */\n      0x20\n        /* \"#utility.yul\":9058:9067   */\n      dup3\n        /* \"#utility.yul\":9049:9056   */\n      dup5\n        /* \"#utility.yul\":9045:9068   */\n      sub\n        /* \"#utility.yul\":9041:9073   */\n      slt\n        /* \"#utility.yul\":9038:9040   */\n      iszero\n      tag_293\n      jumpi\n        /* \"#utility.yul\":9086:9087   */\n      0x00\n        /* \"#utility.yul\":9083:9084   */\n      dup1\n        /* \"#utility.yul\":9076:9088   */\n      revert\n        /* \"#utility.yul\":9038:9040   */\n    tag_293:\n        /* \"#utility.yul\":9129:9130   */\n      0x00\n        /* \"#utility.yul\":9154:9207   */\n      tag_294\n        /* \"#utility.yul\":9199:9206   */\n      dup5\n        /* \"#utility.yul\":9190:9196   */\n      dup3\n        /* \"#utility.yul\":9179:9188   */\n      dup6\n        /* \"#utility.yul\":9175:9197   */\n      add\n        /* \"#utility.yul\":9154:9207   */\n      tag_211\n      jump\t// in\n    tag_294:\n        /* \"#utility.yul\":9144:9207   */\n      swap2\n      pop\n        /* \"#utility.yul\":9100:9217   */\n      pop\n        /* \"#utility.yul\":9028:9224   */\n      swap3\n      swap2\n      pop\n      pop\n      jump\t// out\n        /* \"#utility.yul\":9230:9409   */\n    tag_295:\n      0x00\n        /* \"#utility.yul\":9320:9366   */\n      tag_297\n        /* \"#utility.yul\":9362:9365   */\n      dup4\n        /* \"#utility.yul\":9354:9360   */\n      dup4\n        /* \"#utility.yul\":9320:9366   */\n      tag_298\n      jump\t// in\n    tag_297:\n        /* \"#utility.yul\":9398:9402   */\n      0x20\n        /* \"#utility.yul\":9393:9396   */\n      dup4\n        /* \"#utility.yul\":9389:9403   */\n      add\n        /* \"#utility.yul\":9375:9403   */\n      swap1\n      pop\n        /* \"#utility.yul\":9310:9409   */\n      swap3\n      swap2\n      pop\n      pop\n      jump\t// out\n        /* \"#utility.yul\":9415:9675   */\n    tag_299:\n      0x00\n        /* \"#utility.yul\":9571:9669   */\n      tag_301\n        /* \"#utility.yul\":9665:9668   */\n      dup4\n        /* \"#utility.yul\":9657:9663   */\n      dup4\n        /* \"#utility.yul\":9571:9669   */\n      tag_302\n      jump\t// in\n    tag_301:\n        /* \"#utility.yul\":9557:9669   */\n      swap1\n      pop\n        /* \"#utility.yul\":9547:9675   */\n      swap3\n      swap2\n      pop\n      pop\n      jump\t// out\n        /* \"#utility.yul\":9681:9860   */\n    tag_303:\n      0x00\n        /* \"#utility.yul\":9771:9817   */\n      tag_305\n        /* \"#utility.yul\":9813:9816   */\n      dup4\n        /* \"#utility.yul\":9805:9811   */\n      dup4\n        /* \"#utility.yul\":9771:9817   */\n      tag_306\n      jump\t// in\n    tag_305:\n        /* \"#utility.yul\":9849:9853   */\n      0x20\n        /* \"#utility.yul\":9844:9847   */\n      dup4\n        /* \"#utility.yul\":9840:9854   */\n      add\n        /* \"#utility.yul\":9826:9854   */\n      swap1\n      pop\n        /* \"#utility.yul\":9761:9860   */\n      swap3\n      swap2\n      pop\n      pop\n      jump\t// out\n        /* \"#utility.yul\":9866:9974   */\n    tag_298:\n        /* \"#utility.yul\":9943:9967   */\n      tag_308\n        /* \"#utility.yul\":9961:9966   */\n      dup2\n        /* \"#utility.yul\":9943:9967   */\n      tag_309\n      jump\t// in\n    tag_308:\n        /* \"#utility.yul\":9938:9941   */\n      dup3\n        /* \"#utility.yul\":9931:9968   */\n      mstore\n        /* \"#utility.yul\":9921:9974   */\n      pop\n      pop\n      jump\t// out\n        /* \"#utility.yul\":9980:10098   */\n    tag_310:\n        /* \"#utility.yul\":10067:10091   */\n      tag_312\n        /* \"#utility.yul\":10085:10090   */\n      dup2\n        /* \"#utility.yul\":10067:10091   */\n      tag_309\n      jump\t// in\n    tag_312:\n        /* \"#utility.yul\":10062:10065   */\n      dup3\n        /* \"#utility.yul\":10055:10092   */\n      mstore\n        /* \"#utility.yul\":10045:10098   */\n      pop\n      pop\n      jump\t// out\n        /* \"#utility.yul\":10134:10846   */\n    tag_313:\n      0x00\n        /* \"#utility.yul\":10272:10326   */\n      tag_315\n        /* \"#utility.yul\":10320:10325   */\n      dup3\n        /* \"#utility.yul\":10272:10326   */\n      tag_316\n      jump\t// in\n    tag_315:\n        /* \"#utility.yul\":10342:10418   */\n      tag_317\n        /* \"#utility.yul\":10411:10417   */\n      dup2\n        /* \"#utility.yul\":10406:10409   */\n      dup6\n        /* \"#utility.yul\":10342:10418   */\n      tag_318\n      jump\t// in\n    tag_317:\n        /* \"#utility.yul\":10335:10418   */\n      swap4\n      pop\n        /* \"#utility.yul\":10442:10498   */\n      tag_319\n        /* \"#utility.yul\":10492:10497   */\n      dup4\n        /* \"#utility.yul\":10442:10498   */\n      tag_320\n      jump\t// in\n    tag_319:\n        /* \"#utility.yul\":10521:10528   */\n      dup1\n        /* \"#utility.yul\":10552:10553   */\n      0x00\n        /* \"#utility.yul\":10537:10821   */\n    tag_321:\n        /* \"#utility.yul\":10562:10568   */\n      dup4\n        /* \"#utility.yul\":10559:10560   */\n      dup2\n        /* \"#utility.yul\":10556:10569   */\n      lt\n        /* \"#utility.yul\":10537:10821   */\n      iszero\n      tag_323\n      jumpi\n        /* \"#utility.yul\":10638:10644   */\n      dup2\n        /* \"#utility.yul\":10632:10645   */\n      mload\n        /* \"#utility.yul\":10665:10728   */\n      tag_324\n        /* \"#utility.yul\":10724:10727   */\n      dup9\n        /* \"#utility.yul\":10709:10722   */\n      dup3\n        /* \"#utility.yul\":10665:10728   */\n      tag_295\n      jump\t// in\n    tag_324:\n        /* \"#utility.yul\":10658:10728   */\n      swap8\n      pop\n        /* \"#utility.yul\":10751:10811   */\n      tag_325\n        /* \"#utility.yul\":10804:10810   */\n      dup4\n        /* \"#utility.yul\":10751:10811   */\n      tag_326\n      jump\t// in\n    tag_325:\n        /* \"#utility.yul\":10741:10811   */\n      swap3\n      pop\n        /* \"#utility.yul\":10597:10821   */\n      pop\n        /* \"#utility.yul\":10584:10585   */\n      0x01\n        /* \"#utility.yul\":10581:10582   */\n      dup2\n        /* \"#utility.yul\":10577:10586   */\n      add\n        /* \"#utility.yul\":10572:10586   */\n      swap1\n      pop\n        /* \"#utility.yul\":10537:10821   */\n      jump(tag_321)\n    tag_323:\n        /* \"#utility.yul\":10541:10555   */\n      pop\n        /* \"#utility.yul\":10837:10840   */\n      dup6\n        /* \"#utility.yul\":10830:10840   */\n      swap4\n      pop\n        /* \"#utility.yul\":10248:10846   */\n      pop\n      pop\n      pop\n      swap3\n      swap2\n      pop\n      pop\n      jump\t// out\n        /* \"#utility.yul\":10882:11614   */\n    tag_327:\n      0x00\n        /* \"#utility.yul\":11030:11084   */\n      tag_329\n        /* \"#utility.yul\":11078:11083   */\n      dup3\n        /* \"#utility.yul\":11030:11084   */\n      tag_316\n      jump\t// in\n    tag_329:\n        /* \"#utility.yul\":11100:11186   */\n      tag_330\n        /* \"#utility.yul\":11179:11185   */\n      dup2\n        /* \"#utility.yul\":11174:11177   */\n      dup6\n        /* \"#utility.yul\":11100:11186   */\n      tag_331\n      jump\t// in\n    tag_330:\n        /* \"#utility.yul\":11093:11186   */\n      swap4\n      pop\n        /* \"#utility.yul\":11210:11266   */\n      tag_332\n        /* \"#utility.yul\":11260:11265   */\n      dup4\n        /* \"#utility.yul\":11210:11266   */\n      tag_320\n      jump\t// in\n    tag_332:\n        /* \"#utility.yul\":11289:11296   */\n      dup1\n        /* \"#utility.yul\":11320:11321   */\n      0x00\n        /* \"#utility.yul\":11305:11589   */\n    tag_333:\n        /* \"#utility.yul\":11330:11336   */\n      dup4\n        /* \"#utility.yul\":11327:11328   */\n      dup2\n        /* \"#utility.yul\":11324:11337   */\n      lt\n        /* \"#utility.yul\":11305:11589   */\n      iszero\n      tag_335\n      jumpi\n        /* \"#utility.yul\":11406:11412   */\n      dup2\n        /* \"#utility.yul\":11400:11413   */\n      mload\n        /* \"#utility.yul\":11433:11496   */\n      tag_336\n        /* \"#utility.yul\":11492:11495   */\n      dup9\n        /* \"#utility.yul\":11477:11490   */\n      dup3\n        /* \"#utility.yul\":11433:11496   */\n      tag_295\n      jump\t// in\n    tag_336:\n        /* \"#utility.yul\":11426:11496   */\n      swap8\n      pop\n        /* \"#utility.yul\":11519:11579   */\n      tag_337\n        /* \"#utility.yul\":11572:11578   */\n      dup4\n        /* \"#utility.yul\":11519:11579   */\n      tag_326\n      jump\t// in\n    tag_337:\n        /* \"#utility.yul\":11509:11579   */\n      swap3\n      pop\n        /* \"#utility.yul\":11365:11589   */\n      pop\n        /* \"#utility.yul\":11352:11353   */\n      0x01\n        /* \"#utility.yul\":11349:11350   */\n      dup2\n        /* \"#utility.yul\":11345:11354   */\n      add\n        /* \"#utility.yul\":11340:11354   */\n      swap1\n      pop\n        /* \"#utility.yul\":11305:11589   */\n      jump(tag_333)\n    tag_335:\n        /* \"#utility.yul\":11309:11323   */\n      pop\n        /* \"#utility.yul\":11605:11608   */\n      dup6\n        /* \"#utility.yul\":11598:11608   */\n      swap4\n      pop\n        /* \"#utility.yul\":11006:11614   */\n      pop\n      pop\n      pop\n      swap3\n      swap2\n      pop\n      pop\n      jump\t// out\n        /* \"#utility.yul\":11700:12819   */\n    tag_338:\n      0x00\n        /* \"#utility.yul\":11900:11980   */\n      tag_340\n        /* \"#utility.yul\":11974:11979   */\n      dup3\n        /* \"#utility.yul\":11900:11980   */\n      tag_341\n      jump\t// in\n    tag_340:\n        /* \"#utility.yul\":11996:12108   */\n      tag_342\n        /* \"#utility.yul\":12101:12107   */\n      dup2\n        /* \"#utility.yul\":12096:12099   */\n      dup6\n        /* \"#utility.yul\":11996:12108   */\n      tag_343\n      jump\t// in\n    tag_342:\n        /* \"#utility.yul\":11989:12108   */\n      swap4\n      pop\n        /* \"#utility.yul\":12134:12137   */\n      dup4\n        /* \"#utility.yul\":12179:12183   */\n      0x20\n        /* \"#utility.yul\":12171:12177   */\n      dup3\n        /* \"#utility.yul\":12167:12184   */\n      mul\n        /* \"#utility.yul\":12162:12165   */\n      dup6\n        /* \"#utility.yul\":12158:12185   */\n      add\n        /* \"#utility.yul\":12209:12291   */\n      tag_344\n        /* \"#utility.yul\":12285:12290   */\n      dup6\n        /* \"#utility.yul\":12209:12291   */\n      tag_345\n      jump\t// in\n    tag_344:\n        /* \"#utility.yul\":12314:12321   */\n      dup1\n        /* \"#utility.yul\":12345:12346   */\n      0x00\n        /* \"#utility.yul\":12330:12774   */\n    tag_346:\n        /* \"#utility.yul\":12355:12361   */\n      dup6\n        /* \"#utility.yul\":12352:12353   */\n      dup2\n        /* \"#utility.yul\":12349:12362   */\n      lt\n        /* \"#utility.yul\":12330:12774   */\n      iszero\n      tag_348\n      jumpi\n        /* \"#utility.yul\":12426:12435   */\n      dup5\n        /* \"#utility.yul\":12420:12424   */\n      dup5\n        /* \"#utility.yul\":12416:12436   */\n      sub\n        /* \"#utility.yul\":12411:12414   */\n      dup10\n        /* \"#utility.yul\":12404:12437   */\n      mstore\n        /* \"#utility.yul\":12477:12483   */\n      dup2\n        /* \"#utility.yul\":12471:12484   */\n      mload\n        /* \"#utility.yul\":12505:12621   */\n      tag_349\n        /* \"#utility.yul\":12616:12620   */\n      dup6\n        /* \"#utility.yul\":12601:12614   */\n      dup3\n        /* \"#utility.yul\":12505:12621   */\n      tag_299\n      jump\t// in\n    tag_349:\n        /* \"#utility.yul\":12497:12621   */\n      swap5\n      pop\n        /* \"#utility.yul\":12644:12730   */\n      tag_350\n        /* \"#utility.yul\":12723:12729   */\n      dup4\n        /* \"#utility.yul\":12644:12730   */\n      tag_351\n      jump\t// in\n    tag_350:\n        /* \"#utility.yul\":12634:12730   */\n      swap3\n      pop\n        /* \"#utility.yul\":12759:12763   */\n      0x20\n        /* \"#utility.yul\":12754:12757   */\n      dup11\n        /* \"#utility.yul\":12750:12764   */\n      add\n        /* \"#utility.yul\":12743:12764   */\n      swap10\n      pop\n        /* \"#utility.yul\":12390:12774   */\n      pop\n        /* \"#utility.yul\":12377:12378   */\n      0x01\n        /* \"#utility.yul\":12374:12375   */\n      dup2\n        /* \"#utility.yul\":12370:12379   */\n      add\n        /* \"#utility.yul\":12365:12379   */\n      swap1\n      pop\n        /* \"#utility.yul\":12330:12774   */\n      jump(tag_346)\n    tag_348:\n        /* \"#utility.yul\":12334:12348   */\n      pop\n        /* \"#utility.yul\":12790:12794   */\n      dup3\n        /* \"#utility.yul\":12783:12794   */\n      swap8\n      pop\n        /* \"#utility.yul\":12810:12813   */\n      dup8\n        /* \"#utility.yul\":12803:12813   */\n      swap6\n      pop\n        /* \"#utility.yul\":11876:12819   */\n      pop\n      pop\n      pop\n      pop\n      pop\n      swap3\n      swap2\n      pop\n      pop\n      jump\t// out\n        /* \"#utility.yul\":12855:13567   */\n    tag_352:\n      0x00\n        /* \"#utility.yul\":12993:13047   */\n      tag_354\n        /* \"#utility.yul\":13041:13046   */\n      dup3\n        /* \"#utility.yul\":12993:13047   */\n      tag_355\n      jump\t// in\n    tag_354:\n        /* \"#utility.yul\":13063:13139   */\n      tag_356\n        /* \"#utility.yul\":13132:13138   */\n      dup2\n        /* \"#utility.yul\":13127:13130   */\n      dup6\n        /* \"#utility.yul\":13063:13139   */\n      tag_357\n      jump\t// in\n    tag_356:\n        /* \"#utility.yul\":13056:13139   */\n      swap4\n      pop\n        /* \"#utility.yul\":13163:13219   */\n      tag_358\n        /* \"#utility.yul\":13213:13218   */\n      dup4\n        /* \"#utility.yul\":13163:13219   */\n      tag_359\n      jump\t// in\n    tag_358:\n        /* \"#utility.yul\":13242:13249   */\n      dup1\n        /* \"#utility.yul\":13273:13274   */\n      0x00\n        /* \"#utility.yul\":13258:13542   */\n    tag_360:\n        /* \"#utility.yul\":13283:13289   */\n      dup4\n        /* \"#utility.yul\":13280:13281   */\n      dup2\n        /* \"#utility.yul\":13277:13290   */\n      lt\n        /* \"#utility.yul\":13258:13542   */\n      iszero\n      tag_362\n      jumpi\n        /* \"#utility.yul\":13359:13365   */\n      dup2\n        /* \"#utility.yul\":13353:13366   */\n      mload\n        /* \"#utility.yul\":13386:13449   */\n      tag_363\n        /* \"#utility.yul\":13445:13448   */\n      dup9\n        /* \"#utility.yul\":13430:13443   */\n      dup3\n        /* \"#utility.yul\":13386:13449   */\n      tag_303\n      jump\t// in\n    tag_363:\n        /* \"#utility.yul\":13379:13449   */\n      swap8\n      pop\n        /* \"#utility.yul\":13472:13532   */\n      tag_364\n        /* \"#utility.yul\":13525:13531   */\n      dup4\n        /* \"#utility.yul\":13472:13532   */\n      tag_365\n      jump\t// in\n    tag_364:\n        /* \"#utility.yul\":13462:13532   */\n      swap3\n      pop\n        /* \"#utility.yul\":13318:13542   */\n      pop\n        /* \"#utility.yul\":13305:13306   */\n      0x01\n        /* \"#utility.yul\":13302:13303   */\n      dup2\n        /* \"#utility.yul\":13298:13307   */\n      add\n        /* \"#utility.yul\":13293:13307   */\n      swap1\n      pop\n        /* \"#utility.yul\":13258:13542   */\n      jump(tag_360)\n    tag_362:\n        /* \"#utility.yul\":13262:13276   */\n      pop\n        /* \"#utility.yul\":13558:13561   */\n      dup6\n        /* \"#utility.yul\":13551:13561   */\n      swap4\n      pop\n        /* \"#utility.yul\":12969:13567   */\n      pop\n      pop\n      pop\n      swap3\n      swap2\n      pop\n      pop\n      jump\t// out\n        /* \"#utility.yul\":13603:14335   */\n    tag_366:\n      0x00\n        /* \"#utility.yul\":13751:13805   */\n      tag_368\n        /* \"#utility.yul\":13799:13804   */\n      dup3\n        /* \"#utility.yul\":13751:13805   */\n      tag_355\n      jump\t// in\n    tag_368:\n        /* \"#utility.yul\":13821:13907   */\n      tag_369\n        /* \"#utility.yul\":13900:13906   */\n      dup2\n        /* \"#utility.yul\":13895:13898   */\n      dup6\n        /* \"#utility.yul\":13821:13907   */\n      tag_370\n      jump\t// in\n    tag_369:\n        /* \"#utility.yul\":13814:13907   */\n      swap4\n      pop\n        /* \"#utility.yul\":13931:13987   */\n      tag_371\n        /* \"#utility.yul\":13981:13986   */\n      dup4\n        /* \"#utility.yul\":13931:13987   */\n      tag_359\n      jump\t// in\n    tag_371:\n        /* \"#utility.yul\":14010:14017   */\n      dup1\n        /* \"#utility.yul\":14041:14042   */\n      0x00\n        /* \"#utility.yul\":14026:14310   */\n    tag_372:\n        /* \"#utility.yul\":14051:14057   */\n      dup4\n        /* \"#utility.yul\":14048:14049   */\n      dup2\n        /* \"#utility.yul\":14045:14058   */\n      lt\n        /* \"#utility.yul\":14026:14310   */\n      iszero\n      tag_374\n      jumpi\n        /* \"#utility.yul\":14127:14133   */\n      dup2\n        /* \"#utility.yul\":14121:14134   */\n      mload\n        /* \"#utility.yul\":14154:14217   */\n      tag_375\n        /* \"#utility.yul\":14213:14216   */\n      dup9\n        /* \"#utility.yul\":14198:14211   */\n      dup3\n        /* \"#utility.yul\":14154:14217   */\n      tag_303\n      jump\t// in\n    tag_375:\n        /* \"#utility.yul\":14147:14217   */\n      swap8\n      pop\n        /* \"#utility.yul\":14240:14300   */\n      tag_376\n        /* \"#utility.yul\":14293:14299   */\n      dup4\n        /* \"#utility.yul\":14240:14300   */\n      tag_365\n      jump\t// in\n    tag_376:\n        /* \"#utility.yul\":14230:14300   */\n      swap3\n      pop\n        /* \"#utility.yul\":14086:14310   */\n      pop\n        /* \"#utility.yul\":14073:14074   */\n      0x01\n        /* \"#utility.yul\":14070:14071   */\n      dup2\n        /* \"#utility.yul\":14066:14075   */\n      add\n        /* \"#utility.yul\":14061:14075   */\n      swap1\n      pop\n        /* \"#utility.yul\":14026:14310   */\n      jump(tag_372)\n    tag_374:\n        /* \"#utility.yul\":14030:14044   */\n      pop\n        /* \"#utility.yul\":14326:14329   */\n      dup6\n        /* \"#utility.yul\":14319:14329   */\n      swap4\n      pop\n        /* \"#utility.yul\":13727:14335   */\n      pop\n      pop\n      pop\n      swap3\n      swap2\n      pop\n      pop\n      jump\t// out\n        /* \"#utility.yul\":14341:14500   */\n    tag_377:\n        /* \"#utility.yul\":14442:14493   */\n      tag_379\n        /* \"#utility.yul\":14487:14492   */\n      dup2\n        /* \"#utility.yul\":14442:14493   */\n      tag_380\n      jump\t// in\n    tag_379:\n        /* \"#utility.yul\":14437:14440   */\n      dup3\n        /* \"#utility.yul\":14430:14494   */\n      mstore\n        /* \"#utility.yul\":14420:14500   */\n      pop\n      pop\n      jump\t// out\n        /* \"#utility.yul\":14506:14681   */\n    tag_381:\n        /* \"#utility.yul\":14610:14674   */\n      tag_383\n        /* \"#utility.yul\":14668:14673   */\n      dup2\n        /* \"#utility.yul\":14610:14674   */\n      tag_384\n      jump\t// in\n    tag_383:\n        /* \"#utility.yul\":14605:14608   */\n      dup3\n        /* \"#utility.yul\":14598:14675   */\n      mstore\n        /* \"#utility.yul\":14588:14681   */\n      pop\n      pop\n      jump\t// out\n        /* \"#utility.yul\":14687:15057   */\n    tag_385:\n      0x00\n        /* \"#utility.yul\":14850:14917   */\n      tag_387\n        /* \"#utility.yul\":14914:14916   */\n      0x26\n        /* \"#utility.yul\":14909:14912   */\n      dup4\n        /* \"#utility.yul\":14850:14917   */\n      tag_388\n      jump\t// in\n    tag_387:\n        /* \"#utility.yul\":14843:14917   */\n      swap2\n      pop\n        /* \"#utility.yul\":14947:14981   */\n      0x4f776e61626c653a206e6577206f776e657220697320746865207a65726f2061\n        /* \"#utility.yul\":14943:14944   */\n      0x00\n        /* \"#utility.yul\":14938:14941   */\n      dup4\n        /* \"#utility.yul\":14934:14945   */\n      add\n        /* \"#utility.yul\":14927:14982   */\n      mstore\n        /* \"#utility.yul\":15013:15021   */\n      0x6464726573730000000000000000000000000000000000000000000000000000\n        /* \"#utility.yul\":15008:15010   */\n      0x20\n        /* \"#utility.yul\":15003:15006   */\n      dup4\n        /* \"#utility.yul\":14999:15011   */\n      add\n        /* \"#utility.yul\":14992:15022   */\n      mstore\n        /* \"#utility.yul\":15048:15050   */\n      0x40\n        /* \"#utility.yul\":15043:15046   */\n      dup3\n        /* \"#utility.yul\":15039:15051   */\n      add\n        /* \"#utility.yul\":15032:15051   */\n      swap1\n      pop\n        /* \"#utility.yul\":14833:15057   */\n      swap2\n      swap1\n      pop\n      jump\t// out\n        /* \"#utility.yul\":15063:15388   */\n    tag_389:\n      0x00\n        /* \"#utility.yul\":15226:15293   */\n      tag_391\n        /* \"#utility.yul\":15290:15292   */\n      0x1b\n        /* \"#utility.yul\":15285:15288   */\n      dup4\n        /* \"#utility.yul\":15226:15293   */\n      tag_388\n      jump\t// in\n    tag_391:\n        /* \"#utility.yul\":15219:15293   */\n      swap2\n      pop\n        /* \"#utility.yul\":15323:15352   */\n      0x536166654d6174683a206164646974696f6e206f766572666c6f770000000000\n        /* \"#utility.yul\":15319:15320   */\n      0x00\n        /* \"#utility.yul\":15314:15317   */\n      dup4\n        /* \"#utility.yul\":15310:15321   */\n      add\n        /* \"#utility.yul\":15303:15353   */\n      mstore\n        /* \"#utility.yul\":15379:15381   */\n      0x20\n        /* \"#utility.yul\":15374:15377   */\n      dup3\n        /* \"#utility.yul\":15370:15382   */\n      add\n        /* \"#utility.yul\":15363:15382   */\n      swap1\n      pop\n        /* \"#utility.yul\":15209:15388   */\n      swap2\n      swap1\n      pop\n      jump\t// out\n        /* \"#utility.yul\":15394:15766   */\n    tag_392:\n      0x00\n        /* \"#utility.yul\":15557:15624   */\n      tag_394\n        /* \"#utility.yul\":15621:15623   */\n      0x28\n        /* \"#utility.yul\":15616:15619   */\n      dup4\n        /* \"#utility.yul\":15557:15624   */\n      tag_388\n      jump\t// in\n    tag_394:\n        /* \"#utility.yul\":15550:15624   */\n      swap2\n      pop\n        /* \"#utility.yul\":15654:15688   */\n      0x436f6c6c656374696f6e53746f7265236275793a204954454d5f50524943455f\n        /* \"#utility.yul\":15650:15651   */\n      0x00\n        /* \"#utility.yul\":15645:15648   */\n      dup4\n        /* \"#utility.yul\":15641:15652   */\n      add\n        /* \"#utility.yul\":15634:15689   */\n      mstore\n        /* \"#utility.yul\":15720:15730   */\n      0x4d49534d41544348000000000000000000000000000000000000000000000000\n        /* \"#utility.yul\":15715:15717   */\n      0x20\n        /* \"#utility.yul\":15710:15713   */\n      dup4\n        /* \"#utility.yul\":15706:15718   */\n      add\n        /* \"#utility.yul\":15699:15731   */\n      mstore\n        /* \"#utility.yul\":15757:15759   */\n      0x40\n        /* \"#utility.yul\":15752:15755   */\n      dup3\n        /* \"#utility.yul\":15748:15760   */\n      add\n        /* \"#utility.yul\":15741:15760   */\n      swap1\n      pop\n        /* \"#utility.yul\":15540:15766   */\n      swap2\n      swap1\n      pop\n      jump\t// out\n        /* \"#utility.yul\":15772:16100   */\n    tag_395:\n      0x00\n        /* \"#utility.yul\":15935:16002   */\n      tag_397\n        /* \"#utility.yul\":15999:16001   */\n      0x1e\n        /* \"#utility.yul\":15994:15997   */\n      dup4\n        /* \"#utility.yul\":15935:16002   */\n      tag_388\n      jump\t// in\n    tag_397:\n        /* \"#utility.yul\":15928:16002   */\n      swap2\n      pop\n        /* \"#utility.yul\":16032:16064   */\n      0x536166654d6174683a207375627472616374696f6e206f766572666c6f770000\n        /* \"#utility.yul\":16028:16029   */\n      0x00\n        /* \"#utility.yul\":16023:16026   */\n      dup4\n        /* \"#utility.yul\":16019:16030   */\n      add\n        /* \"#utility.yul\":16012:16065   */\n      mstore\n        /* \"#utility.yul\":16091:16093   */\n      0x20\n        /* \"#utility.yul\":16086:16089   */\n      dup3\n        /* \"#utility.yul\":16082:16094   */\n      add\n        /* \"#utility.yul\":16075:16094   */\n      swap1\n      pop\n        /* \"#utility.yul\":15918:16100   */\n      swap2\n      swap1\n      pop\n      jump\t// out\n        /* \"#utility.yul\":16106:16430   */\n    tag_398:\n      0x00\n        /* \"#utility.yul\":16269:16336   */\n      tag_400\n        /* \"#utility.yul\":16333:16335   */\n      0x1a\n        /* \"#utility.yul\":16328:16331   */\n      dup4\n        /* \"#utility.yul\":16269:16336   */\n      tag_388\n      jump\t// in\n    tag_400:\n        /* \"#utility.yul\":16262:16336   */\n      swap2\n      pop\n        /* \"#utility.yul\":16366:16394   */\n      0x536166654d6174683a206469766973696f6e206279207a65726f000000000000\n        /* \"#utility.yul\":16362:16363   */\n      0x00\n        /* \"#utility.yul\":16357:16360   */\n      dup4\n        /* \"#utility.yul\":16353:16364   */\n      add\n        /* \"#utility.yul\":16346:16395   */\n      mstore\n        /* \"#utility.yul\":16421:16423   */\n      0x20\n        /* \"#utility.yul\":16416:16419   */\n      dup3\n        /* \"#utility.yul\":16412:16424   */\n      add\n        /* \"#utility.yul\":16405:16424   */\n      swap1\n      pop\n        /* \"#utility.yul\":16252:16430   */\n      swap2\n      swap1\n      pop\n      jump\t// out\n        /* \"#utility.yul\":16436:16810   */\n    tag_401:\n      0x00\n        /* \"#utility.yul\":16599:16666   */\n      tag_403\n        /* \"#utility.yul\":16663:16665   */\n      0x2a\n        /* \"#utility.yul\":16658:16661   */\n      dup4\n        /* \"#utility.yul\":16599:16666   */\n      tag_388\n      jump\t// in\n    tag_403:\n        /* \"#utility.yul\":16592:16666   */\n      swap2\n      pop\n        /* \"#utility.yul\":16696:16730   */\n      0x436f6c6c656374696f6e53746f7265236275793a205452414e534645525f5052\n        /* \"#utility.yul\":16692:16693   */\n      0x00\n        /* \"#utility.yul\":16687:16690   */\n      dup4\n        /* \"#utility.yul\":16683:16694   */\n      add\n        /* \"#utility.yul\":16676:16731   */\n      mstore\n        /* \"#utility.yul\":16762:16774   */\n      0x4943455f4641494c454400000000000000000000000000000000000000000000\n        /* \"#utility.yul\":16757:16759   */\n      0x20\n        /* \"#utility.yul\":16752:16755   */\n      dup4\n        /* \"#utility.yul\":16748:16760   */\n      add\n        /* \"#utility.yul\":16741:16775   */\n      mstore\n        /* \"#utility.yul\":16801:16803   */\n      0x40\n        /* \"#utility.yul\":16796:16799   */\n      dup3\n        /* \"#utility.yul\":16792:16804   */\n      add\n        /* \"#utility.yul\":16785:16804   */\n      swap1\n      pop\n        /* \"#utility.yul\":16582:16810   */\n      swap2\n      swap1\n      pop\n      jump\t// out\n        /* \"#utility.yul\":16816:17184   */\n    tag_404:\n      0x00\n        /* \"#utility.yul\":16979:17046   */\n      tag_406\n        /* \"#utility.yul\":17043:17045   */\n      0x24\n        /* \"#utility.yul\":17038:17041   */\n      dup4\n        /* \"#utility.yul\":16979:17046   */\n      tag_388\n      jump\t// in\n    tag_406:\n        /* \"#utility.yul\":16972:17046   */\n      swap2\n      pop\n        /* \"#utility.yul\":17076:17110   */\n      0x436f6c6c656374696f6e53746f7265236275793a204c454e4754485f4d49534d\n        /* \"#utility.yul\":17072:17073   */\n      0x00\n        /* \"#utility.yul\":17067:17070   */\n      dup4\n        /* \"#utility.yul\":17063:17074   */\n      add\n        /* \"#utility.yul\":17056:17111   */\n      mstore\n        /* \"#utility.yul\":17142:17148   */\n      0x4154434800000000000000000000000000000000000000000000000000000000\n        /* \"#utility.yul\":17137:17139   */\n      0x20\n        /* \"#utility.yul\":17132:17135   */\n      dup4\n        /* \"#utility.yul\":17128:17140   */\n      add\n        /* \"#utility.yul\":17121:17149   */\n      mstore\n        /* \"#utility.yul\":17175:17177   */\n      0x40\n        /* \"#utility.yul\":17170:17173   */\n      dup3\n        /* \"#utility.yul\":17166:17178   */\n      add\n        /* \"#utility.yul\":17159:17178   */\n      swap1\n      pop\n        /* \"#utility.yul\":16962:17184   */\n      swap2\n      swap1\n      pop\n      jump\t// out\n        /* \"#utility.yul\":17190:17520   */\n    tag_407:\n      0x00\n        /* \"#utility.yul\":17353:17420   */\n      tag_409\n        /* \"#utility.yul\":17417:17419   */\n      0x20\n        /* \"#utility.yul\":17412:17415   */\n      dup4\n        /* \"#utility.yul\":17353:17420   */\n      tag_388\n      jump\t// in\n    tag_409:\n        /* \"#utility.yul\":17346:17420   */\n      swap2\n      pop\n        /* \"#utility.yul\":17450:17484   */\n      0x436f6c6c656374696f6e53746f7265237365744665653a2053414d455f464545\n        /* \"#utility.yul\":17446:17447   */\n      0x00\n        /* \"#utility.yul\":17441:17444   */\n      dup4\n        /* \"#utility.yul\":17437:17448   */\n      add\n        /* \"#utility.yul\":17430:17485   */\n      mstore\n        /* \"#utility.yul\":17511:17513   */\n      0x20\n        /* \"#utility.yul\":17506:17509   */\n      dup3\n        /* \"#utility.yul\":17502:17514   */\n      add\n        /* \"#utility.yul\":17495:17514   */\n      swap1\n      pop\n        /* \"#utility.yul\":17336:17520   */\n      swap2\n      swap1\n      pop\n      jump\t// out\n        /* \"#utility.yul\":17526:17891   */\n    tag_410:\n      0x00\n        /* \"#utility.yul\":17689:17756   */\n      tag_412\n        /* \"#utility.yul\":17753:17755   */\n      0x21\n        /* \"#utility.yul\":17748:17751   */\n      dup4\n        /* \"#utility.yul\":17689:17756   */\n      tag_388\n      jump\t// in\n    tag_412:\n        /* \"#utility.yul\":17682:17756   */\n      swap2\n      pop\n        /* \"#utility.yul\":17786:17820   */\n      0x536166654d6174683a206d756c7469706c69636174696f6e206f766572666c6f\n        /* \"#utility.yul\":17782:17783   */\n      0x00\n        /* \"#utility.yul\":17777:17780   */\n      dup4\n        /* \"#utility.yul\":17773:17784   */\n      add\n        /* \"#utility.yul\":17766:17821   */\n      mstore\n        /* \"#utility.yul\":17852:17855   */\n      0x7700000000000000000000000000000000000000000000000000000000000000\n        /* \"#utility.yul\":17847:17849   */\n      0x20\n        /* \"#utility.yul\":17842:17845   */\n      dup4\n        /* \"#utility.yul\":17838:17850   */\n      add\n        /* \"#utility.yul\":17831:17856   */\n      mstore\n        /* \"#utility.yul\":17882:17884   */\n      0x40\n        /* \"#utility.yul\":17877:17880   */\n      dup3\n        /* \"#utility.yul\":17873:17885   */\n      add\n        /* \"#utility.yul\":17866:17885   */\n      swap1\n      pop\n        /* \"#utility.yul\":17672:17891   */\n      swap2\n      swap1\n      pop\n      jump\t// out\n        /* \"#utility.yul\":17897:18227   */\n    tag_413:\n      0x00\n        /* \"#utility.yul\":18060:18127   */\n      tag_415\n        /* \"#utility.yul\":18124:18126   */\n      0x20\n        /* \"#utility.yul\":18119:18122   */\n      dup4\n        /* \"#utility.yul\":18060:18127   */\n      tag_388\n      jump\t// in\n    tag_415:\n        /* \"#utility.yul\":18053:18127   */\n      swap2\n      pop\n        /* \"#utility.yul\":18157:18191   */\n      0x4f776e61626c653a2063616c6c6572206973206e6f7420746865206f776e6572\n        /* \"#utility.yul\":18153:18154   */\n      0x00\n        /* \"#utility.yul\":18148:18151   */\n      dup4\n        /* \"#utility.yul\":18144:18155   */\n      add\n        /* \"#utility.yul\":18137:18192   */\n      mstore\n        /* \"#utility.yul\":18218:18220   */\n      0x20\n        /* \"#utility.yul\":18213:18216   */\n      dup3\n        /* \"#utility.yul\":18209:18221   */\n      add\n        /* \"#utility.yul\":18202:18221   */\n      swap1\n      pop\n        /* \"#utility.yul\":18043:18227   */\n      swap2\n      swap1\n      pop\n      jump\t// out\n        /* \"#utility.yul\":18233:18606   */\n    tag_416:\n      0x00\n        /* \"#utility.yul\":18396:18463   */\n      tag_418\n        /* \"#utility.yul\":18460:18462   */\n      0x29\n        /* \"#utility.yul\":18455:18458   */\n      dup4\n        /* \"#utility.yul\":18396:18463   */\n      tag_388\n      jump\t// in\n    tag_418:\n        /* \"#utility.yul\":18389:18463   */\n      swap2\n      pop\n        /* \"#utility.yul\":18493:18527   */\n      0x436f6c6c656374696f6e53746f7265236275793a205452414e534645525f4645\n        /* \"#utility.yul\":18489:18490   */\n      0x00\n        /* \"#utility.yul\":18484:18487   */\n      dup4\n        /* \"#utility.yul\":18480:18491   */\n      add\n        /* \"#utility.yul\":18473:18528   */\n      mstore\n        /* \"#utility.yul\":18559:18570   */\n      0x45535f4641494c45440000000000000000000000000000000000000000000000\n        /* \"#utility.yul\":18554:18556   */\n      0x20\n        /* \"#utility.yul\":18549:18552   */\n      dup4\n        /* \"#utility.yul\":18545:18557   */\n      add\n        /* \"#utility.yul\":18538:18571   */\n      mstore\n        /* \"#utility.yul\":18597:18599   */\n      0x40\n        /* \"#utility.yul\":18592:18595   */\n      dup3\n        /* \"#utility.yul\":18588:18600   */\n      add\n        /* \"#utility.yul\":18581:18600   */\n      swap1\n      pop\n        /* \"#utility.yul\":18379:18606   */\n      swap2\n      swap1\n      pop\n      jump\t// out\n        /* \"#utility.yul\":18612:19001   */\n    tag_419:\n      0x00\n        /* \"#utility.yul\":18775:18842   */\n      tag_421\n        /* \"#utility.yul\":18839:18841   */\n      0x39\n        /* \"#utility.yul\":18834:18837   */\n      dup4\n        /* \"#utility.yul\":18775:18842   */\n      tag_388\n      jump\t// in\n    tag_421:\n        /* \"#utility.yul\":18768:18842   */\n      swap2\n      pop\n        /* \"#utility.yul\":18872:18906   */\n      0x436f6c6c656374696f6e53746f7265237365744665653a204645455f53484f55\n        /* \"#utility.yul\":18868:18869   */\n      0x00\n        /* \"#utility.yul\":18863:18866   */\n      dup4\n        /* \"#utility.yul\":18859:18870   */\n      add\n        /* \"#utility.yul\":18852:18907   */\n      mstore\n        /* \"#utility.yul\":18938:18965   */\n      0x4c445f42455f4c4f5745525f5448414e5f424153455f46454500000000000000\n        /* \"#utility.yul\":18933:18935   */\n      0x20\n        /* \"#utility.yul\":18928:18931   */\n      dup4\n        /* \"#utility.yul\":18924:18936   */\n      add\n        /* \"#utility.yul\":18917:18966   */\n      mstore\n        /* \"#utility.yul\":18992:18994   */\n      0x40\n        /* \"#utility.yul\":18987:18990   */\n      dup3\n        /* \"#utility.yul\":18983:18995   */\n      add\n        /* \"#utility.yul\":18976:18995   */\n      swap1\n      pop\n        /* \"#utility.yul\":18758:19001   */\n      swap2\n      swap1\n      pop\n      jump\t// out\n        /* \"#utility.yul\":19007:19382   */\n    tag_422:\n      0x00\n        /* \"#utility.yul\":19170:19237   */\n      tag_424\n        /* \"#utility.yul\":19234:19236   */\n      0x2b\n        /* \"#utility.yul\":19229:19232   */\n      dup4\n        /* \"#utility.yul\":19170:19237   */\n      tag_388\n      jump\t// in\n    tag_424:\n        /* \"#utility.yul\":19163:19237   */\n      swap2\n      pop\n        /* \"#utility.yul\":19267:19301   */\n      0x436f6c6c656374696f6e53746f7265237365744665654f776e65723a2053414d\n        /* \"#utility.yul\":19263:19264   */\n      0x00\n        /* \"#utility.yul\":19258:19261   */\n      dup4\n        /* \"#utility.yul\":19254:19265   */\n      add\n        /* \"#utility.yul\":19247:19302   */\n      mstore\n        /* \"#utility.yul\":19333:19346   */\n      0x455f4645455f4f574e4552000000000000000000000000000000000000000000\n        /* \"#utility.yul\":19328:19330   */\n      0x20\n        /* \"#utility.yul\":19323:19326   */\n      dup4\n        /* \"#utility.yul\":19319:19331   */\n      add\n        /* \"#utility.yul\":19312:19347   */\n      mstore\n        /* \"#utility.yul\":19373:19375   */\n      0x40\n        /* \"#utility.yul\":19368:19371   */\n      dup3\n        /* \"#utility.yul\":19364:19376   */\n      add\n        /* \"#utility.yul\":19357:19376   */\n      swap1\n      pop\n        /* \"#utility.yul\":19153:19382   */\n      swap2\n      swap1\n      pop\n      jump\t// out\n        /* \"#utility.yul\":19388:19764   */\n    tag_425:\n      0x00\n        /* \"#utility.yul\":19551:19618   */\n      tag_427\n        /* \"#utility.yul\":19615:19617   */\n      0x2c\n        /* \"#utility.yul\":19610:19613   */\n      dup4\n        /* \"#utility.yul\":19551:19618   */\n      tag_388\n      jump\t// in\n    tag_427:\n        /* \"#utility.yul\":19544:19618   */\n      swap2\n      pop\n        /* \"#utility.yul\":19648:19682   */\n      0x436f6c6c656374696f6e53746f7265237365744665654f776e65723a20494e56\n        /* \"#utility.yul\":19644:19645   */\n      0x00\n        /* \"#utility.yul\":19639:19642   */\n      dup4\n        /* \"#utility.yul\":19635:19646   */\n      add\n        /* \"#utility.yul\":19628:19683   */\n      mstore\n        /* \"#utility.yul\":19714:19728   */\n      0x414c49445f414444524553530000000000000000000000000000000000000000\n        /* \"#utility.yul\":19709:19711   */\n      0x20\n        /* \"#utility.yul\":19704:19707   */\n      dup4\n        /* \"#utility.yul\":19700:19712   */\n      add\n        /* \"#utility.yul\":19693:19729   */\n      mstore\n        /* \"#utility.yul\":19755:19757   */\n      0x40\n        /* \"#utility.yul\":19750:19753   */\n      dup3\n        /* \"#utility.yul\":19746:19758   */\n      add\n        /* \"#utility.yul\":19739:19758   */\n      swap1\n      pop\n        /* \"#utility.yul\":19534:19764   */\n      swap2\n      swap1\n      pop\n      jump\t// out\n        /* \"#utility.yul\":19846:21067   */\n    tag_302:\n      0x00\n        /* \"#utility.yul\":19993:19997   */\n      0x80\n        /* \"#utility.yul\":19988:19991   */\n      dup4\n        /* \"#utility.yul\":19984:19998   */\n      add\n        /* \"#utility.yul\":20086:20090   */\n      0x00\n        /* \"#utility.yul\":20079:20084   */\n      dup4\n        /* \"#utility.yul\":20075:20091   */\n      add\n        /* \"#utility.yul\":20069:20092   */\n      mload\n        /* \"#utility.yul\":20105:20195   */\n      tag_429\n        /* \"#utility.yul\":20189:20193   */\n      0x00\n        /* \"#utility.yul\":20184:20187   */\n      dup7\n        /* \"#utility.yul\":20180:20194   */\n      add\n        /* \"#utility.yul\":20166:20178   */\n      dup3\n        /* \"#utility.yul\":20105:20195   */\n      tag_381\n      jump\t// in\n    tag_429:\n        /* \"#utility.yul\":20008:20205   */\n      pop\n        /* \"#utility.yul\":20286:20290   */\n      0x20\n        /* \"#utility.yul\":20279:20284   */\n      dup4\n        /* \"#utility.yul\":20275:20291   */\n      add\n        /* \"#utility.yul\":20269:20292   */\n      mload\n        /* \"#utility.yul\":20339:20342   */\n      dup5\n        /* \"#utility.yul\":20333:20337   */\n      dup3\n        /* \"#utility.yul\":20329:20343   */\n      sub\n        /* \"#utility.yul\":20322:20326   */\n      0x20\n        /* \"#utility.yul\":20317:20320   */\n      dup7\n        /* \"#utility.yul\":20313:20327   */\n      add\n        /* \"#utility.yul\":20306:20344   */\n      mstore\n        /* \"#utility.yul\":20365:20468   */\n      tag_430\n        /* \"#utility.yul\":20463:20467   */\n      dup3\n        /* \"#utility.yul\":20449:20461   */\n      dup3\n        /* \"#utility.yul\":20365:20468   */\n      tag_352\n      jump\t// in\n    tag_430:\n        /* \"#utility.yul\":20357:20468   */\n      swap2\n      pop\n        /* \"#utility.yul\":20215:20479   */\n      pop\n        /* \"#utility.yul\":20563:20567   */\n      0x40\n        /* \"#utility.yul\":20556:20561   */\n      dup4\n        /* \"#utility.yul\":20552:20568   */\n      add\n        /* \"#utility.yul\":20546:20569   */\n      mload\n        /* \"#utility.yul\":20616:20619   */\n      dup5\n        /* \"#utility.yul\":20610:20614   */\n      dup3\n        /* \"#utility.yul\":20606:20620   */\n      sub\n        /* \"#utility.yul\":20599:20603   */\n      0x40\n        /* \"#utility.yul\":20594:20597   */\n      dup7\n        /* \"#utility.yul\":20590:20604   */\n      add\n        /* \"#utility.yul\":20583:20621   */\n      mstore\n        /* \"#utility.yul\":20642:20745   */\n      tag_431\n        /* \"#utility.yul\":20740:20744   */\n      dup3\n        /* \"#utility.yul\":20726:20738   */\n      dup3\n        /* \"#utility.yul\":20642:20745   */\n      tag_352\n      jump\t// in\n    tag_431:\n        /* \"#utility.yul\":20634:20745   */\n      swap2\n      pop\n        /* \"#utility.yul\":20489:20756   */\n      pop\n        /* \"#utility.yul\":20847:20851   */\n      0x60\n        /* \"#utility.yul\":20840:20845   */\n      dup4\n        /* \"#utility.yul\":20836:20852   */\n      add\n        /* \"#utility.yul\":20830:20853   */\n      mload\n        /* \"#utility.yul\":20900:20903   */\n      dup5\n        /* \"#utility.yul\":20894:20898   */\n      dup3\n        /* \"#utility.yul\":20890:20904   */\n      sub\n        /* \"#utility.yul\":20883:20887   */\n      0x60\n        /* \"#utility.yul\":20878:20881   */\n      dup7\n        /* \"#utility.yul\":20874:20888   */\n      add\n        /* \"#utility.yul\":20867:20905   */\n      mstore\n        /* \"#utility.yul\":20926:21029   */\n      tag_432\n        /* \"#utility.yul\":21024:21028   */\n      dup3\n        /* \"#utility.yul\":21010:21022   */\n      dup3\n        /* \"#utility.yul\":20926:21029   */\n      tag_313\n      jump\t// in\n    tag_432:\n        /* \"#utility.yul\":20918:21029   */\n      swap2\n      pop\n        /* \"#utility.yul\":20766:21040   */\n      pop\n        /* \"#utility.yul\":21057:21061   */\n      dup1\n        /* \"#utility.yul\":21050:21061   */\n      swap2\n      pop\n        /* \"#utility.yul\":19962:21067   */\n      pop\n      swap3\n      swap2\n      pop\n      pop\n      jump\t// out\n        /* \"#utility.yul\":21073:21181   */\n    tag_306:\n        /* \"#utility.yul\":21150:21174   */\n      tag_434\n        /* \"#utility.yul\":21168:21173   */\n      dup2\n        /* \"#utility.yul\":21150:21174   */\n      tag_435\n      jump\t// in\n    tag_434:\n        /* \"#utility.yul\":21145:21148   */\n      dup3\n        /* \"#utility.yul\":21138:21175   */\n      mstore\n        /* \"#utility.yul\":21128:21181   */\n      pop\n      pop\n      jump\t// out\n        /* \"#utility.yul\":21187:21305   */\n    tag_436:\n        /* \"#utility.yul\":21274:21298   */\n      tag_438\n        /* \"#utility.yul\":21292:21297   */\n      dup2\n        /* \"#utility.yul\":21274:21298   */\n      tag_435\n      jump\t// in\n    tag_438:\n        /* \"#utility.yul\":21269:21272   */\n      dup3\n        /* \"#utility.yul\":21262:21299   */\n      mstore\n        /* \"#utility.yul\":21252:21305   */\n      pop\n      pop\n      jump\t// out\n        /* \"#utility.yul\":21311:21533   */\n    tag_36:\n      0x00\n        /* \"#utility.yul\":21442:21444   */\n      0x20\n        /* \"#utility.yul\":21431:21440   */\n      dup3\n        /* \"#utility.yul\":21427:21445   */\n      add\n        /* \"#utility.yul\":21419:21445   */\n      swap1\n      pop\n        /* \"#utility.yul\":21455:21526   */\n      tag_440\n        /* \"#utility.yul\":21523:21524   */\n      0x00\n        /* \"#utility.yul\":21512:21521   */\n      dup4\n        /* \"#utility.yul\":21508:21525   */\n      add\n        /* \"#utility.yul\":21499:21505   */\n      dup5\n        /* \"#utility.yul\":21455:21526   */\n      tag_310\n      jump\t// in\n    tag_440:\n        /* \"#utility.yul\":21409:21533   */\n      swap3\n      swap2\n      pop\n      pop\n      jump\t// out\n        /* \"#utility.yul\":21539:21981   */\n    tag_116:\n      0x00\n        /* \"#utility.yul\":21726:21728   */\n      0x60\n        /* \"#utility.yul\":21715:21724   */\n      dup3\n        /* \"#utility.yul\":21711:21729   */\n      add\n        /* \"#utility.yul\":21703:21729   */\n      swap1\n      pop\n        /* \"#utility.yul\":21739:21810   */\n      tag_442\n        /* \"#utility.yul\":21807:21808   */\n      0x00\n        /* \"#utility.yul\":21796:21805   */\n      dup4\n        /* \"#utility.yul\":21792:21809   */\n      add\n        /* \"#utility.yul\":21783:21789   */\n      dup7\n        /* \"#utility.yul\":21739:21810   */\n      tag_310\n      jump\t// in\n    tag_442:\n        /* \"#utility.yul\":21820:21892   */\n      tag_443\n        /* \"#utility.yul\":21888:21890   */\n      0x20\n        /* \"#utility.yul\":21877:21886   */\n      dup4\n        /* \"#utility.yul\":21873:21891   */\n      add\n        /* \"#utility.yul\":21864:21870   */\n      dup6\n        /* \"#utility.yul\":21820:21892   */\n      tag_310\n      jump\t// in\n    tag_443:\n        /* \"#utility.yul\":21902:21974   */\n      tag_444\n        /* \"#utility.yul\":21970:21972   */\n      0x40\n        /* \"#utility.yul\":21959:21968   */\n      dup4\n        /* \"#utility.yul\":21955:21973   */\n      add\n        /* \"#utility.yul\":21946:21952   */\n      dup5\n        /* \"#utility.yul\":21902:21974   */\n      tag_436\n      jump\t// in\n    tag_444:\n        /* \"#utility.yul\":21693:21981   */\n      swap5\n      swap4\n      pop\n      pop\n      pop\n      pop\n      jump\t// out\n        /* \"#utility.yul\":21987:22621   */\n    tag_126:\n      0x00\n        /* \"#utility.yul\":22246:22248   */\n      0x40\n        /* \"#utility.yul\":22235:22244   */\n      dup3\n        /* \"#utility.yul\":22231:22249   */\n      add\n        /* \"#utility.yul\":22223:22249   */\n      swap1\n      pop\n        /* \"#utility.yul\":22295:22304   */\n      dup2\n        /* \"#utility.yul\":22289:22293   */\n      dup2\n        /* \"#utility.yul\":22285:22305   */\n      sub\n        /* \"#utility.yul\":22281:22282   */\n      0x00\n        /* \"#utility.yul\":22270:22279   */\n      dup4\n        /* \"#utility.yul\":22266:22283   */\n      add\n        /* \"#utility.yul\":22259:22306   */\n      mstore\n        /* \"#utility.yul\":22323:22431   */\n      tag_446\n        /* \"#utility.yul\":22426:22430   */\n      dup2\n        /* \"#utility.yul\":22417:22423   */\n      dup6\n        /* \"#utility.yul\":22323:22431   */\n      tag_327\n      jump\t// in\n    tag_446:\n        /* \"#utility.yul\":22315:22431   */\n      swap1\n      pop\n        /* \"#utility.yul\":22478:22487   */\n      dup2\n        /* \"#utility.yul\":22472:22476   */\n      dup2\n        /* \"#utility.yul\":22468:22488   */\n      sub\n        /* \"#utility.yul\":22463:22465   */\n      0x20\n        /* \"#utility.yul\":22452:22461   */\n      dup4\n        /* \"#utility.yul\":22448:22466   */\n      add\n        /* \"#utility.yul\":22441:22489   */\n      mstore\n        /* \"#utility.yul\":22506:22614   */\n      tag_447\n        /* \"#utility.yul\":22609:22613   */\n      dup2\n        /* \"#utility.yul\":22600:22606   */\n      dup5\n        /* \"#utility.yul\":22506:22614   */\n      tag_366\n      jump\t// in\n    tag_447:\n        /* \"#utility.yul\":22498:22614   */\n      swap1\n      pop\n        /* \"#utility.yul\":22213:22621   */\n      swap4\n      swap3\n      pop\n      pop\n      pop\n      jump\t// out\n        /* \"#utility.yul\":22627:23104   */\n    tag_140:\n      0x00\n        /* \"#utility.yul\":22860:22862   */\n      0x20\n        /* \"#utility.yul\":22849:22858   */\n      dup3\n        /* \"#utility.yul\":22845:22863   */\n      add\n        /* \"#utility.yul\":22837:22863   */\n      swap1\n      pop\n        /* \"#utility.yul\":22909:22918   */\n      dup2\n        /* \"#utility.yul\":22903:22907   */\n      dup2\n        /* \"#utility.yul\":22899:22919   */\n      sub\n        /* \"#utility.yul\":22895:22896   */\n      0x00\n        /* \"#utility.yul\":22884:22893   */\n      dup4\n        /* \"#utility.yul\":22880:22897   */\n      add\n        /* \"#utility.yul\":22873:22920   */\n      mstore\n        /* \"#utility.yul\":22937:23097   */\n      tag_449\n        /* \"#utility.yul\":23092:23096   */\n      dup2\n        /* \"#utility.yul\":23083:23089   */\n      dup5\n        /* \"#utility.yul\":22937:23097   */\n      tag_338\n      jump\t// in\n    tag_449:\n        /* \"#utility.yul\":22929:23097   */\n      swap1\n      pop\n        /* \"#utility.yul\":22827:23104   */\n      swap3\n      swap2\n      pop\n      pop\n      jump\t// out\n        /* \"#utility.yul\":23110:23360   */\n    tag_22:\n      0x00\n        /* \"#utility.yul\":23255:23257   */\n      0x20\n        /* \"#utility.yul\":23244:23253   */\n      dup3\n        /* \"#utility.yul\":23240:23258   */\n      add\n        /* \"#utility.yul\":23232:23258   */\n      swap1\n      pop\n        /* \"#utility.yul\":23268:23353   */\n      tag_451\n        /* \"#utility.yul\":23350:23351   */\n      0x00\n        /* \"#utility.yul\":23339:23348   */\n      dup4\n        /* \"#utility.yul\":23335:23352   */\n      add\n        /* \"#utility.yul\":23326:23332   */\n      dup5\n        /* \"#utility.yul\":23268:23353   */\n      tag_377\n      jump\t// in\n    tag_451:\n        /* \"#utility.yul\":23222:23360   */\n      swap3\n      swap2\n      pop\n      pop\n      jump\t// out\n        /* \"#utility.yul\":23366:23785   */\n    tag_155:\n      0x00\n        /* \"#utility.yul\":23570:23572   */\n      0x20\n        /* \"#utility.yul\":23559:23568   */\n      dup3\n        /* \"#utility.yul\":23555:23573   */\n      add\n        /* \"#utility.yul\":23547:23573   */\n      swap1\n      pop\n        /* \"#utility.yul\":23619:23628   */\n      dup2\n        /* \"#utility.yul\":23613:23617   */\n      dup2\n        /* \"#utility.yul\":23609:23629   */\n      sub\n        /* \"#utility.yul\":23605:23606   */\n      0x00\n        /* \"#utility.yul\":23594:23603   */\n      dup4\n        /* \"#utility.yul\":23590:23607   */\n      add\n        /* \"#utility.yul\":23583:23630   */\n      mstore\n        /* \"#utility.yul\":23647:23778   */\n      tag_453\n        /* \"#utility.yul\":23773:23777   */\n      dup2\n        /* \"#utility.yul\":23647:23778   */\n      tag_385\n      jump\t// in\n    tag_453:\n        /* \"#utility.yul\":23639:23778   */\n      swap1\n      pop\n        /* \"#utility.yul\":23537:23785   */\n      swap2\n      swap1\n      pop\n      jump\t// out\n        /* \"#utility.yul\":23791:24210   */\n    tag_173:\n      0x00\n        /* \"#utility.yul\":23995:23997   */\n      0x20\n        /* \"#utility.yul\":23984:23993   */\n      dup3\n        /* \"#utility.yul\":23980:23998   */\n      add\n        /* \"#utility.yul\":23972:23998   */\n      swap1\n      pop\n        /* \"#utility.yul\":24044:24053   */\n      dup2\n        /* \"#utility.yul\":24038:24042   */\n      dup2\n        /* \"#utility.yul\":24034:24054   */\n      sub\n        /* \"#utility.yul\":24030:24031   */\n      0x00\n        /* \"#utility.yul\":24019:24028   */\n      dup4\n        /* \"#utility.yul\":24015:24032   */\n      add\n        /* \"#utility.yul\":24008:24055   */\n      mstore\n        /* \"#utility.yul\":24072:24203   */\n      tag_455\n        /* \"#utility.yul\":24198:24202   */\n      dup2\n        /* \"#utility.yul\":24072:24203   */\n      tag_389\n      jump\t// in\n    tag_455:\n        /* \"#utility.yul\":24064:24203   */\n      swap1\n      pop\n        /* \"#utility.yul\":23962:24210   */\n      swap2\n      swap1\n      pop\n      jump\t// out\n        /* \"#utility.yul\":24216:24635   */\n    tag_105:\n      0x00\n        /* \"#utility.yul\":24420:24422   */\n      0x20\n        /* \"#utility.yul\":24409:24418   */\n      dup3\n        /* \"#utility.yul\":24405:24423   */\n      add\n        /* \"#utility.yul\":24397:24423   */\n      swap1\n      pop\n        /* \"#utility.yul\":24469:24478   */\n      dup2\n        /* \"#utility.yul\":24463:24467   */\n      dup2\n        /* \"#utility.yul\":24459:24479   */\n      sub\n        /* \"#utility.yul\":24455:24456   */\n      0x00\n        /* \"#utility.yul\":24444:24453   */\n      dup4\n        /* \"#utility.yul\":24440:24457   */\n      add\n        /* \"#utility.yul\":24433:24480   */\n      mstore\n        /* \"#utility.yul\":24497:24628   */\n      tag_457\n        /* \"#utility.yul\":24623:24627   */\n      dup2\n        /* \"#utility.yul\":24497:24628   */\n      tag_392\n      jump\t// in\n    tag_457:\n        /* \"#utility.yul\":24489:24628   */\n      swap1\n      pop\n        /* \"#utility.yul\":24387:24635   */\n      swap2\n      swap1\n      pop\n      jump\t// out\n        /* \"#utility.yul\":24641:25060   */\n    tag_177:\n      0x00\n        /* \"#utility.yul\":24845:24847   */\n      0x20\n        /* \"#utility.yul\":24834:24843   */\n      dup3\n        /* \"#utility.yul\":24830:24848   */\n      add\n        /* \"#utility.yul\":24822:24848   */\n      swap1\n      pop\n        /* \"#utility.yul\":24894:24903   */\n      dup2\n        /* \"#utility.yul\":24888:24892   */\n      dup2\n        /* \"#utility.yul\":24884:24904   */\n      sub\n        /* \"#utility.yul\":24880:24881   */\n      0x00\n        /* \"#utility.yul\":24869:24878   */\n      dup4\n        /* \"#utility.yul\":24865:24882   */\n      add\n        /* \"#utility.yul\":24858:24905   */\n      mstore\n        /* \"#utility.yul\":24922:25053   */\n      tag_459\n        /* \"#utility.yul\":25048:25052   */\n      dup2\n        /* \"#utility.yul\":24922:25053   */\n      tag_395\n      jump\t// in\n    tag_459:\n        /* \"#utility.yul\":24914:25053   */\n      swap1\n      pop\n        /* \"#utility.yul\":24812:25060   */\n      swap2\n      swap1\n      pop\n      jump\t// out\n        /* \"#utility.yul\":25066:25485   */\n    tag_168:\n      0x00\n        /* \"#utility.yul\":25270:25272   */\n      0x20\n        /* \"#utility.yul\":25259:25268   */\n      dup3\n        /* \"#utility.yul\":25255:25273   */\n      add\n        /* \"#utility.yul\":25247:25273   */\n      swap1\n      pop\n        /* \"#utility.yul\":25319:25328   */\n      dup2\n        /* \"#utility.yul\":25313:25317   */\n      dup2\n        /* \"#utility.yul\":25309:25329   */\n      sub\n        /* \"#utility.yul\":25305:25306   */\n      0x00\n        /* \"#utility.yul\":25294:25303   */\n      dup4\n        /* \"#utility.yul\":25290:25307   */\n      add\n        /* \"#utility.yul\":25283:25330   */\n      mstore\n        /* \"#utility.yul\":25347:25478   */\n      tag_461\n        /* \"#utility.yul\":25473:25477   */\n      dup2\n        /* \"#utility.yul\":25347:25478   */\n      tag_398\n      jump\t// in\n    tag_461:\n        /* \"#utility.yul\":25339:25478   */\n      swap1\n      pop\n        /* \"#utility.yul\":25237:25485   */\n      swap2\n      swap1\n      pop\n      jump\t// out\n        /* \"#utility.yul\":25491:25910   */\n    tag_124:\n      0x00\n        /* \"#utility.yul\":25695:25697   */\n      0x20\n        /* \"#utility.yul\":25684:25693   */\n      dup3\n        /* \"#utility.yul\":25680:25698   */\n      add\n        /* \"#utility.yul\":25672:25698   */\n      swap1\n      pop\n        /* \"#utility.yul\":25744:25753   */\n      dup2\n        /* \"#utility.yul\":25738:25742   */\n      dup2\n        /* \"#utility.yul\":25734:25754   */\n      sub\n        /* \"#utility.yul\":25730:25731   */\n      0x00\n        /* \"#utility.yul\":25719:25728   */\n      dup4\n        /* \"#utility.yul\":25715:25732   */\n      add\n        /* \"#utility.yul\":25708:25755   */\n      mstore\n        /* \"#utility.yul\":25772:25903   */\n      tag_463\n        /* \"#utility.yul\":25898:25902   */\n      dup2\n        /* \"#utility.yul\":25772:25903   */\n      tag_401\n      jump\t// in\n    tag_463:\n        /* \"#utility.yul\":25764:25903   */\n      swap1\n      pop\n        /* \"#utility.yul\":25662:25910   */\n      swap2\n      swap1\n      pop\n      jump\t// out\n        /* \"#utility.yul\":25916:26335   */\n    tag_96:\n      0x00\n        /* \"#utility.yul\":26120:26122   */\n      0x20\n        /* \"#utility.yul\":26109:26118   */\n      dup3\n        /* \"#utility.yul\":26105:26123   */\n      add\n        /* \"#utility.yul\":26097:26123   */\n      swap1\n      pop\n        /* \"#utility.yul\":26169:26178   */\n      dup2\n        /* \"#utility.yul\":26163:26167   */\n      dup2\n        /* \"#utility.yul\":26159:26179   */\n      sub\n        /* \"#utility.yul\":26155:26156   */\n      0x00\n        /* \"#utility.yul\":26144:26153   */\n      dup4\n        /* \"#utility.yul\":26140:26157   */\n      add\n        /* \"#utility.yul\":26133:26180   */\n      mstore\n        /* \"#utility.yul\":26197:26328   */\n      tag_465\n        /* \"#utility.yul\":26323:26327   */\n      dup2\n        /* \"#utility.yul\":26197:26328   */\n      tag_404\n      jump\t// in\n    tag_465:\n        /* \"#utility.yul\":26189:26328   */\n      swap1\n      pop\n        /* \"#utility.yul\":26087:26335   */\n      swap2\n      swap1\n      pop\n      jump\t// out\n        /* \"#utility.yul\":26341:26760   */\n    tag_79:\n      0x00\n        /* \"#utility.yul\":26545:26547   */\n      0x20\n        /* \"#utility.yul\":26534:26543   */\n      dup3\n        /* \"#utility.yul\":26530:26548   */\n      add\n        /* \"#utility.yul\":26522:26548   */\n      swap1\n      pop\n        /* \"#utility.yul\":26594:26603   */\n      dup2\n        /* \"#utility.yul\":26588:26592   */\n      dup2\n        /* \"#utility.yul\":26584:26604   */\n      sub\n        /* \"#utility.yul\":26580:26581   */\n      0x00\n        /* \"#utility.yul\":26569:26578   */\n      dup4\n        /* \"#utility.yul\":26565:26582   */\n      add\n        /* \"#utility.yul\":26558:26605   */\n      mstore\n        /* \"#utility.yul\":26622:26753   */\n      tag_467\n        /* \"#utility.yul\":26748:26752   */\n      dup2\n        /* \"#utility.yul\":26622:26753   */\n      tag_407\n      jump\t// in\n    tag_467:\n        /* \"#utility.yul\":26614:26753   */\n      swap1\n      pop\n        /* \"#utility.yul\":26512:26760   */\n      swap2\n      swap1\n      pop\n      jump\t// out\n        /* \"#utility.yul\":26766:27185   */\n    tag_164:\n      0x00\n        /* \"#utility.yul\":26970:26972   */\n      0x20\n        /* \"#utility.yul\":26959:26968   */\n      dup3\n        /* \"#utility.yul\":26955:26973   */\n      add\n        /* \"#utility.yul\":26947:26973   */\n      swap1\n      pop\n        /* \"#utility.yul\":27019:27028   */\n      dup2\n        /* \"#utility.yul\":27013:27017   */\n      dup2\n        /* \"#utility.yul\":27009:27029   */\n      sub\n        /* \"#utility.yul\":27005:27006   */\n      0x00\n        /* \"#utility.yul\":26994:27003   */\n      dup4\n        /* \"#utility.yul\":26990:27007   */\n      add\n        /* \"#utility.yul\":26983:27030   */\n      mstore\n        /* \"#utility.yul\":27047:27178   */\n      tag_469\n        /* \"#utility.yul\":27173:27177   */\n      dup2\n        /* \"#utility.yul\":27047:27178   */\n      tag_410\n      jump\t// in\n    tag_469:\n        /* \"#utility.yul\":27039:27178   */\n      swap1\n      pop\n        /* \"#utility.yul\":26937:27185   */\n      swap2\n      swap1\n      pop\n      jump\t// out\n        /* \"#utility.yul\":27191:27610   */\n    tag_61:\n      0x00\n        /* \"#utility.yul\":27395:27397   */\n      0x20\n        /* \"#utility.yul\":27384:27393   */\n      dup3\n        /* \"#utility.yul\":27380:27398   */\n      add\n        /* \"#utility.yul\":27372:27398   */\n      swap1\n      pop\n        /* \"#utility.yul\":27444:27453   */\n      dup2\n        /* \"#utility.yul\":27438:27442   */\n      dup2\n        /* \"#utility.yul\":27434:27454   */\n      sub\n        /* \"#utility.yul\":27430:27431   */\n      0x00\n        /* \"#utility.yul\":27419:27428   */\n      dup4\n        /* \"#utility.yul\":27415:27432   */\n      add\n        /* \"#utility.yul\":27408:27455   */\n      mstore\n        /* \"#utility.yul\":27472:27603   */\n      tag_471\n        /* \"#utility.yul\":27598:27602   */\n      dup2\n        /* \"#utility.yul\":27472:27603   */\n      tag_413\n      jump\t// in\n    tag_471:\n        /* \"#utility.yul\":27464:27603   */\n      swap1\n      pop\n        /* \"#utility.yul\":27362:27610   */\n      swap2\n      swap1\n      pop\n      jump\t// out\n        /* \"#utility.yul\":27616:28035   */\n    tag_138:\n      0x00\n        /* \"#utility.yul\":27820:27822   */\n      0x20\n        /* \"#utility.yul\":27809:27818   */\n      dup3\n        /* \"#utility.yul\":27805:27823   */\n      add\n        /* \"#utility.yul\":27797:27823   */\n      swap1\n      pop\n        /* \"#utility.yul\":27869:27878   */\n      dup2\n        /* \"#utility.yul\":27863:27867   */\n      dup2\n        /* \"#utility.yul\":27859:27879   */\n      sub\n        /* \"#utility.yul\":27855:27856   */\n      0x00\n        /* \"#utility.yul\":27844:27853   */\n      dup4\n        /* \"#utility.yul\":27840:27857   */\n      add\n        /* \"#utility.yul\":27833:27880   */\n      mstore\n        /* \"#utility.yul\":27897:28028   */\n      tag_473\n        /* \"#utility.yul\":28023:28027   */\n      dup2\n        /* \"#utility.yul\":27897:28028   */\n      tag_416\n      jump\t// in\n    tag_473:\n        /* \"#utility.yul\":27889:28028   */\n      swap1\n      pop\n        /* \"#utility.yul\":27787:28035   */\n      swap2\n      swap1\n      pop\n      jump\t// out\n        /* \"#utility.yul\":28041:28460   */\n    tag_76:\n      0x00\n        /* \"#utility.yul\":28245:28247   */\n      0x20\n        /* \"#utility.yul\":28234:28243   */\n      dup3\n        /* \"#utility.yul\":28230:28248   */\n      add\n        /* \"#utility.yul\":28222:28248   */\n      swap1\n      pop\n        /* \"#utility.yul\":28294:28303   */\n      dup2\n        /* \"#utility.yul\":28288:28292   */\n      dup2\n        /* \"#utility.yul\":28284:28304   */\n      sub\n        /* \"#utility.yul\":28280:28281   */\n      0x00\n        /* \"#utility.yul\":28269:28278   */\n      dup4\n        /* \"#utility.yul\":28265:28282   */\n      add\n        /* \"#utility.yul\":28258:28305   */\n      mstore\n        /* \"#utility.yul\":28322:28453   */\n      tag_475\n        /* \"#utility.yul\":28448:28452   */\n      dup2\n        /* \"#utility.yul\":28322:28453   */\n      tag_419\n      jump\t// in\n    tag_475:\n        /* \"#utility.yul\":28314:28453   */\n      swap1\n      pop\n        /* \"#utility.yul\":28212:28460   */\n      swap2\n      swap1\n      pop\n      jump\t// out\n        /* \"#utility.yul\":28466:28885   */\n    tag_68:\n      0x00\n        /* \"#utility.yul\":28670:28672   */\n      0x20\n        /* \"#utility.yul\":28659:28668   */\n      dup3\n        /* \"#utility.yul\":28655:28673   */\n      add\n        /* \"#utility.yul\":28647:28673   */\n      swap1\n      pop\n        /* \"#utility.yul\":28719:28728   */\n      dup2\n        /* \"#utility.yul\":28713:28717   */\n      dup2\n        /* \"#utility.yul\":28709:28729   */\n      sub\n        /* \"#utility.yul\":28705:28706   */\n      0x00\n        /* \"#utility.yul\":28694:28703   */\n      dup4\n        /* \"#utility.yul\":28690:28707   */\n      add\n        /* \"#utility.yul\":28683:28730   */\n      mstore\n        /* \"#utility.yul\":28747:28878   */\n      tag_477\n        /* \"#utility.yul\":28873:28877   */\n      dup2\n        /* \"#utility.yul\":28747:28878   */\n      tag_422\n      jump\t// in\n    tag_477:\n        /* \"#utility.yul\":28739:28878   */\n      swap1\n      pop\n        /* \"#utility.yul\":28637:28885   */\n      swap2\n      swap1\n      pop\n      jump\t// out\n        /* \"#utility.yul\":28891:29310   */\n    tag_65:\n      0x00\n        /* \"#utility.yul\":29095:29097   */\n      0x20\n        /* \"#utility.yul\":29084:29093   */\n      dup3\n        /* \"#utility.yul\":29080:29098   */\n      add\n        /* \"#utility.yul\":29072:29098   */\n      swap1\n      pop\n        /* \"#utility.yul\":29144:29153   */\n      dup2\n        /* \"#utility.yul\":29138:29142   */\n      dup2\n        /* \"#utility.yul\":29134:29154   */\n      sub\n        /* \"#utility.yul\":29130:29131   */\n      0x00\n        /* \"#utility.yul\":29119:29128   */\n      dup4\n        /* \"#utility.yul\":29115:29132   */\n      add\n        /* \"#utility.yul\":29108:29155   */\n      mstore\n        /* \"#utility.yul\":29172:29303   */\n      tag_479\n        /* \"#utility.yul\":29298:29302   */\n      dup2\n        /* \"#utility.yul\":29172:29303   */\n      tag_425\n      jump\t// in\n    tag_479:\n        /* \"#utility.yul\":29164:29303   */\n      swap1\n      pop\n        /* \"#utility.yul\":29062:29310   */\n      swap2\n      swap1\n      pop\n      jump\t// out\n        /* \"#utility.yul\":29316:29538   */\n    tag_18:\n      0x00\n        /* \"#utility.yul\":29447:29449   */\n      0x20\n        /* \"#utility.yul\":29436:29445   */\n      dup3\n        /* \"#utility.yul\":29432:29450   */\n      add\n        /* \"#utility.yul\":29424:29450   */\n      swap1\n      pop\n        /* \"#utility.yul\":29460:29531   */\n      tag_481\n        /* \"#utility.yul\":29528:29529   */\n      0x00\n        /* \"#utility.yul\":29517:29526   */\n      dup4\n        /* \"#utility.yul\":29513:29530   */\n      add\n        /* \"#utility.yul\":29504:29510   */\n      dup5\n        /* \"#utility.yul\":29460:29531   */\n      tag_436\n      jump\t// in\n    tag_481:\n        /* \"#utility.yul\":29414:29538   */\n      swap3\n      swap2\n      pop\n      pop\n      jump\t// out\n        /* \"#utility.yul\":29544:29876   */\n    tag_52:\n      0x00\n        /* \"#utility.yul\":29703:29705   */\n      0x40\n        /* \"#utility.yul\":29692:29701   */\n      dup3\n        /* \"#utility.yul\":29688:29706   */\n      add\n        /* \"#utility.yul\":29680:29706   */\n      swap1\n      pop\n        /* \"#utility.yul\":29716:29787   */\n      tag_483\n        /* \"#utility.yul\":29784:29785   */\n      0x00\n        /* \"#utility.yul\":29773:29782   */\n      dup4\n        /* \"#utility.yul\":29769:29786   */\n      add\n        /* \"#utility.yul\":29760:29766   */\n      dup6\n        /* \"#utility.yul\":29716:29787   */\n      tag_436\n      jump\t// in\n    tag_483:\n        /* \"#utility.yul\":29797:29869   */\n      tag_484\n        /* \"#utility.yul\":29865:29867   */\n      0x20\n        /* \"#utility.yul\":29854:29863   */\n      dup4\n        /* \"#utility.yul\":29850:29868   */\n      add\n        /* \"#utility.yul\":29841:29847   */\n      dup5\n        /* \"#utility.yul\":29797:29869   */\n      tag_310\n      jump\t// in\n    tag_484:\n        /* \"#utility.yul\":29670:29876   */\n      swap4\n      swap3\n      pop\n      pop\n      pop\n      jump\t// out\n        /* \"#utility.yul\":29882:30214   */\n    tag_81:\n      0x00\n        /* \"#utility.yul\":30041:30043   */\n      0x40\n        /* \"#utility.yul\":30030:30039   */\n      dup3\n        /* \"#utility.yul\":30026:30044   */\n      add\n        /* \"#utility.yul\":30018:30044   */\n      swap1\n      pop\n        /* \"#utility.yul\":30054:30125   */\n      tag_486\n        /* \"#utility.yul\":30122:30123   */\n      0x00\n        /* \"#utility.yul\":30111:30120   */\n      dup4\n        /* \"#utility.yul\":30107:30124   */\n      add\n        /* \"#utility.yul\":30098:30104   */\n      dup6\n        /* \"#utility.yul\":30054:30125   */\n      tag_436\n      jump\t// in\n    tag_486:\n        /* \"#utility.yul\":30135:30207   */\n      tag_487\n        /* \"#utility.yul\":30203:30205   */\n      0x20\n        /* \"#utility.yul\":30192:30201   */\n      dup4\n        /* \"#utility.yul\":30188:30206   */\n      add\n        /* \"#utility.yul\":30179:30185   */\n      dup5\n        /* \"#utility.yul\":30135:30207   */\n      tag_436\n      jump\t// in\n    tag_487:\n        /* \"#utility.yul\":30008:30214   */\n      swap4\n      swap3\n      pop\n      pop\n      pop\n      jump\t// out\n        /* \"#utility.yul\":30220:30498   */\n    tag_184:\n      0x00\n        /* \"#utility.yul\":30286:30288   */\n      0x40\n        /* \"#utility.yul\":30280:30289   */\n      mload\n        /* \"#utility.yul\":30270:30289   */\n      swap1\n      pop\n        /* \"#utility.yul\":30328:30332   */\n      dup2\n        /* \"#utility.yul\":30320:30326   */\n      dup2\n        /* \"#utility.yul\":30316:30333   */\n      add\n        /* \"#utility.yul\":30435:30441   */\n      dup2\n        /* \"#utility.yul\":30423:30433   */\n      dup2\n        /* \"#utility.yul\":30420:30442   */\n      lt\n        /* \"#utility.yul\":30399:30417   */\n      0xffffffffffffffff\n        /* \"#utility.yul\":30387:30397   */\n      dup3\n        /* \"#utility.yul\":30384:30418   */\n      gt\n        /* \"#utility.yul\":30381:30443   */\n      or\n        /* \"#utility.yul\":30378:30380   */\n      iszero\n      tag_489\n      jumpi\n        /* \"#utility.yul\":30446:30459   */\n      tag_490\n      tag_491\n      jump\t// in\n    tag_490:\n        /* \"#utility.yul\":30378:30380   */\n    tag_489:\n        /* \"#utility.yul\":30481:30491   */\n      dup1\n        /* \"#utility.yul\":30477:30479   */\n      0x40\n        /* \"#utility.yul\":30470:30492   */\n      mstore\n        /* \"#utility.yul\":30260:30498   */\n      pop\n      swap2\n      swap1\n      pop\n      jump\t// out\n        /* \"#utility.yul\":30504:30810   */\n    tag_183:\n      0x00\n        /* \"#utility.yul\":30671:30689   */\n      0xffffffffffffffff\n        /* \"#utility.yul\":30663:30669   */\n      dup3\n        /* \"#utility.yul\":30660:30690   */\n      gt\n        /* \"#utility.yul\":30657:30659   */\n      iszero\n      tag_493\n      jumpi\n        /* \"#utility.yul\":30693:30706   */\n      tag_494\n      tag_491\n      jump\t// in\n    tag_494:\n        /* \"#utility.yul\":30657:30659   */\n    tag_493:\n        /* \"#utility.yul\":30738:30742   */\n      0x20\n        /* \"#utility.yul\":30730:30736   */\n      dup3\n        /* \"#utility.yul\":30726:30743   */\n      mul\n        /* \"#utility.yul\":30718:30743   */\n      swap1\n      pop\n        /* \"#utility.yul\":30798:30802   */\n      0x20\n        /* \"#utility.yul\":30792:30796   */\n      dup2\n        /* \"#utility.yul\":30788:30803   */\n      add\n        /* \"#utility.yul\":30780:30803   */\n      swap1\n      pop\n        /* \"#utility.yul\":30586:30810   */\n      swap2\n      swap1\n      pop\n      jump\t// out\n        /* \"#utility.yul\":30816:31148   */\n    tag_195:\n      0x00\n        /* \"#utility.yul\":31009:31027   */\n      0xffffffffffffffff\n        /* \"#utility.yul\":31001:31007   */\n      dup3\n        /* \"#utility.yul\":30998:31028   */\n      gt\n        /* \"#utility.yul\":30995:30997   */\n      iszero\n      tag_496\n      jumpi\n        /* \"#utility.yul\":31031:31044   */\n      tag_497\n      tag_491\n      jump\t// in\n    tag_497:\n        /* \"#utility.yul\":30995:30997   */\n    tag_496:\n        /* \"#utility.yul\":31076:31080   */\n      0x20\n        /* \"#utility.yul\":31068:31074   */\n      dup3\n        /* \"#utility.yul\":31064:31081   */\n      mul\n        /* \"#utility.yul\":31056:31081   */\n      swap1\n      pop\n        /* \"#utility.yul\":31136:31140   */\n      0x20\n        /* \"#utility.yul\":31130:31134   */\n      dup2\n        /* \"#utility.yul\":31126:31141   */\n      add\n        /* \"#utility.yul\":31118:31141   */\n      swap1\n      pop\n        /* \"#utility.yul\":30924:31148   */\n      swap2\n      swap1\n      pop\n      jump\t// out\n        /* \"#utility.yul\":31154:31460   */\n    tag_205:\n      0x00\n        /* \"#utility.yul\":31321:31339   */\n      0xffffffffffffffff\n        /* \"#utility.yul\":31313:31319   */\n      dup3\n        /* \"#utility.yul\":31310:31340   */\n      gt\n        /* \"#utility.yul\":31307:31309   */\n      iszero\n      tag_499\n      jumpi\n        /* \"#utility.yul\":31343:31356   */\n      tag_500\n      tag_491\n      jump\t// in\n    tag_500:\n        /* \"#utility.yul\":31307:31309   */\n    tag_499:\n        /* \"#utility.yul\":31388:31392   */\n      0x20\n        /* \"#utility.yul\":31380:31386   */\n      dup3\n        /* \"#utility.yul\":31376:31393   */\n      mul\n        /* \"#utility.yul\":31368:31393   */\n      swap1\n      pop\n        /* \"#utility.yul\":31448:31452   */\n      0x20\n        /* \"#utility.yul\":31442:31446   */\n      dup2\n        /* \"#utility.yul\":31438:31453   */\n      add\n        /* \"#utility.yul\":31430:31453   */\n      swap1\n      pop\n        /* \"#utility.yul\":31236:31460   */\n      swap2\n      swap1\n      pop\n      jump\t// out\n        /* \"#utility.yul\":31466:31793   */\n    tag_216:\n      0x00\n        /* \"#utility.yul\":31618:31636   */\n      0xffffffffffffffff\n        /* \"#utility.yul\":31610:31616   */\n      dup3\n        /* \"#utility.yul\":31607:31637   */\n      gt\n        /* \"#utility.yul\":31604:31606   */\n      iszero\n      tag_502\n      jumpi\n        /* \"#utility.yul\":31640:31653   */\n      tag_503\n      tag_491\n      jump\t// in\n    tag_503:\n        /* \"#utility.yul\":31604:31606   */\n    tag_502:\n        /* \"#utility.yul\":31720:31724   */\n      0x1f\n        /* \"#utility.yul\":31716:31725   */\n      not\n        /* \"#utility.yul\":31709:31713   */\n      0x1f\n        /* \"#utility.yul\":31701:31707   */\n      dup4\n        /* \"#utility.yul\":31697:31714   */\n      add\n        /* \"#utility.yul\":31693:31726   */\n      and\n        /* \"#utility.yul\":31685:31726   */\n      swap1\n      pop\n        /* \"#utility.yul\":31781:31785   */\n      0x20\n        /* \"#utility.yul\":31775:31779   */\n      dup2\n        /* \"#utility.yul\":31771:31786   */\n      add\n        /* \"#utility.yul\":31763:31786   */\n      swap1\n      pop\n        /* \"#utility.yul\":31533:31793   */\n      swap2\n      swap1\n      pop\n      jump\t// out\n        /* \"#utility.yul\":31799:31931   */\n    tag_320:\n      0x00\n        /* \"#utility.yul\":31889:31892   */\n      dup2\n        /* \"#utility.yul\":31881:31892   */\n      swap1\n      pop\n        /* \"#utility.yul\":31919:31923   */\n      0x20\n        /* \"#utility.yul\":31914:31917   */\n      dup3\n        /* \"#utility.yul\":31910:31924   */\n      add\n        /* \"#utility.yul\":31902:31924   */\n      swap1\n      pop\n        /* \"#utility.yul\":31871:31931   */\n      swap2\n      swap1\n      pop\n      jump\t// out\n        /* \"#utility.yul\":31937:32095   */\n    tag_345:\n      0x00\n        /* \"#utility.yul\":32053:32056   */\n      dup2\n        /* \"#utility.yul\":32045:32056   */\n      swap1\n      pop\n        /* \"#utility.yul\":32083:32087   */\n      0x20\n        /* \"#utility.yul\":32078:32081   */\n      dup3\n        /* \"#utility.yul\":32074:32088   */\n      add\n        /* \"#utility.yul\":32066:32088   */\n      swap1\n      pop\n        /* \"#utility.yul\":32035:32095   */\n      swap2\n      swap1\n      pop\n      jump\t// out\n        /* \"#utility.yul\":32101:32233   */\n    tag_359:\n      0x00\n        /* \"#utility.yul\":32191:32194   */\n      dup2\n        /* \"#utility.yul\":32183:32194   */\n      swap1\n      pop\n        /* \"#utility.yul\":32221:32225   */\n      0x20\n        /* \"#utility.yul\":32216:32219   */\n      dup3\n        /* \"#utility.yul\":32212:32226   */\n      add\n        /* \"#utility.yul\":32204:32226   */\n      swap1\n      pop\n        /* \"#utility.yul\":32173:32233   */\n      swap2\n      swap1\n      pop\n      jump\t// out\n        /* \"#utility.yul\":32239:32353   */\n    tag_316:\n      0x00\n        /* \"#utility.yul\":32340:32345   */\n      dup2\n        /* \"#utility.yul\":32334:32346   */\n      mload\n        /* \"#utility.yul\":32324:32346   */\n      swap1\n      pop\n        /* \"#utility.yul\":32313:32353   */\n      swap2\n      swap1\n      pop\n      jump\t// out\n        /* \"#utility.yul\":32359:32499   */\n    tag_341:\n      0x00\n        /* \"#utility.yul\":32486:32491   */\n      dup2\n        /* \"#utility.yul\":32480:32492   */\n      mload\n        /* \"#utility.yul\":32470:32492   */\n      swap1\n      pop\n        /* \"#utility.yul\":32459:32499   */\n      swap2\n      swap1\n      pop\n      jump\t// out\n        /* \"#utility.yul\":32505:32619   */\n    tag_355:\n      0x00\n        /* \"#utility.yul\":32606:32611   */\n      dup2\n        /* \"#utility.yul\":32600:32612   */\n      mload\n        /* \"#utility.yul\":32590:32612   */\n      swap1\n      pop\n        /* \"#utility.yul\":32579:32619   */\n      swap2\n      swap1\n      pop\n      jump\t// out\n        /* \"#utility.yul\":32625:32738   */\n    tag_326:\n      0x00\n        /* \"#utility.yul\":32727:32731   */\n      0x20\n        /* \"#utility.yul\":32722:32725   */\n      dup3\n        /* \"#utility.yul\":32718:32732   */\n      add\n        /* \"#utility.yul\":32710:32732   */\n      swap1\n      pop\n        /* \"#utility.yul\":32700:32738   */\n      swap2\n      swap1\n      pop\n      jump\t// out\n        /* \"#utility.yul\":32744:32883   */\n    tag_351:\n      0x00\n        /* \"#utility.yul\":32872:32876   */\n      0x20\n        /* \"#utility.yul\":32867:32870   */\n      dup3\n        /* \"#utility.yul\":32863:32877   */\n      add\n        /* \"#utility.yul\":32855:32877   */\n      swap1\n      pop\n        /* \"#utility.yul\":32845:32883   */\n      swap2\n      swap1\n      pop\n      jump\t// out\n        /* \"#utility.yul\":32889:33002   */\n    tag_365:\n      0x00\n        /* \"#utility.yul\":32991:32995   */\n      0x20\n        /* \"#utility.yul\":32986:32989   */\n      dup3\n        /* \"#utility.yul\":32982:32996   */\n      add\n        /* \"#utility.yul\":32974:32996   */\n      swap1\n      pop\n        /* \"#utility.yul\":32964:33002   */\n      swap2\n      swap1\n      pop\n      jump\t// out\n        /* \"#utility.yul\":33008:33182   */\n    tag_318:\n      0x00\n        /* \"#utility.yul\":33131:33137   */\n      dup3\n        /* \"#utility.yul\":33126:33129   */\n      dup3\n        /* \"#utility.yul\":33119:33138   */\n      mstore\n        /* \"#utility.yul\":33171:33175   */\n      0x20\n        /* \"#utility.yul\":33166:33169   */\n      dup3\n        /* \"#utility.yul\":33162:33176   */\n      add\n        /* \"#utility.yul\":33147:33176   */\n      swap1\n      pop\n        /* \"#utility.yul\":33109:33182   */\n      swap3\n      swap2\n      pop\n      pop\n      jump\t// out\n        /* \"#utility.yul\":33188:33372   */\n    tag_331:\n      0x00\n        /* \"#utility.yul\":33321:33327   */\n      dup3\n        /* \"#utility.yul\":33316:33319   */\n      dup3\n        /* \"#utility.yul\":33309:33328   */\n      mstore\n        /* \"#utility.yul\":33361:33365   */\n      0x20\n        /* \"#utility.yul\":33356:33359   */\n      dup3\n        /* \"#utility.yul\":33352:33366   */\n      add\n        /* \"#utility.yul\":33337:33366   */\n      swap1\n      pop\n        /* \"#utility.yul\":33299:33372   */\n      swap3\n      swap2\n      pop\n      pop\n      jump\t// out\n        /* \"#utility.yul\":33378:33588   */\n    tag_343:\n      0x00\n        /* \"#utility.yul\":33537:33543   */\n      dup3\n        /* \"#utility.yul\":33532:33535   */\n      dup3\n        /* \"#utility.yul\":33525:33544   */\n      mstore\n        /* \"#utility.yul\":33577:33581   */\n      0x20\n        /* \"#utility.yul\":33572:33575   */\n      dup3\n        /* \"#utility.yul\":33568:33582   */\n      add\n        /* \"#utility.yul\":33553:33582   */\n      swap1\n      pop\n        /* \"#utility.yul\":33515:33588   */\n      swap3\n      swap2\n      pop\n      pop\n      jump\t// out\n        /* \"#utility.yul\":33594:33768   */\n    tag_357:\n      0x00\n        /* \"#utility.yul\":33717:33723   */\n      dup3\n        /* \"#utility.yul\":33712:33715   */\n      dup3\n        /* \"#utility.yul\":33705:33724   */\n      mstore\n        /* \"#utility.yul\":33757:33761   */\n      0x20\n        /* \"#utility.yul\":33752:33755   */\n      dup3\n        /* \"#utility.yul\":33748:33762   */\n      add\n        /* \"#utility.yul\":33733:33762   */\n      swap1\n      pop\n        /* \"#utility.yul\":33695:33768   */\n      swap3\n      swap2\n      pop\n      pop\n      jump\t// out\n        /* \"#utility.yul\":33774:33958   */\n    tag_370:\n      0x00\n        /* \"#utility.yul\":33907:33913   */\n      dup3\n        /* \"#utility.yul\":33902:33905   */\n      dup3\n        /* \"#utility.yul\":33895:33914   */\n      mstore\n        /* \"#utility.yul\":33947:33951   */\n      0x20\n        /* \"#utility.yul\":33942:33945   */\n      dup3\n        /* \"#utility.yul\":33938:33952   */\n      add\n        /* \"#utility.yul\":33923:33952   */\n      swap1\n      pop\n        /* \"#utility.yul\":33885:33958   */\n      swap3\n      swap2\n      pop\n      pop\n      jump\t// out\n        /* \"#utility.yul\":33964:34133   */\n    tag_388:\n      0x00\n        /* \"#utility.yul\":34082:34088   */\n      dup3\n        /* \"#utility.yul\":34077:34080   */\n      dup3\n        /* \"#utility.yul\":34070:34089   */\n      mstore\n        /* \"#utility.yul\":34122:34126   */\n      0x20\n        /* \"#utility.yul\":34117:34120   */\n      dup3\n        /* \"#utility.yul\":34113:34127   */\n      add\n        /* \"#utility.yul\":34098:34127   */\n      swap1\n      pop\n        /* \"#utility.yul\":34060:34133   */\n      swap3\n      swap2\n      pop\n      pop\n      jump\t// out\n        /* \"#utility.yul\":34139:34235   */\n    tag_309:\n      0x00\n        /* \"#utility.yul\":34205:34229   */\n      tag_520\n        /* \"#utility.yul\":34223:34228   */\n      dup3\n        /* \"#utility.yul\":34205:34229   */\n      tag_521\n      jump\t// in\n    tag_520:\n        /* \"#utility.yul\":34194:34229   */\n      swap1\n      pop\n        /* \"#utility.yul\":34184:34235   */\n      swap2\n      swap1\n      pop\n      jump\t// out\n        /* \"#utility.yul\":34241:34331   */\n    tag_522:\n      0x00\n        /* \"#utility.yul\":34318:34323   */\n      dup2\n        /* \"#utility.yul\":34311:34324   */\n      iszero\n        /* \"#utility.yul\":34304:34325   */\n      iszero\n        /* \"#utility.yul\":34293:34325   */\n      swap1\n      pop\n        /* \"#utility.yul\":34283:34331   */\n      swap2\n      swap1\n      pop\n      jump\t// out\n        /* \"#utility.yul\":34337:34460   */\n    tag_524:\n      0x00\n        /* \"#utility.yul\":34430:34454   */\n      tag_526\n        /* \"#utility.yul\":34448:34453   */\n      dup3\n        /* \"#utility.yul\":34430:34454   */\n      tag_309\n      jump\t// in\n    tag_526:\n        /* \"#utility.yul\":34419:34454   */\n      swap1\n      pop\n        /* \"#utility.yul\":34409:34460   */\n      swap2\n      swap1\n      pop\n      jump\t// out\n        /* \"#utility.yul\":34466:34592   */\n    tag_521:\n      0x00\n        /* \"#utility.yul\":34543:34585   */\n      0xffffffffffffffffffffffffffffffffffffffff\n        /* \"#utility.yul\":34536:34541   */\n      dup3\n        /* \"#utility.yul\":34532:34586   */\n      and\n        /* \"#utility.yul\":34521:34586   */\n      swap1\n      pop\n        /* \"#utility.yul\":34511:34592   */\n      swap2\n      swap1\n      pop\n      jump\t// out\n        /* \"#utility.yul\":34598:34675   */\n    tag_435:\n      0x00\n        /* \"#utility.yul\":34664:34669   */\n      dup2\n        /* \"#utility.yul\":34653:34669   */\n      swap1\n      pop\n        /* \"#utility.yul\":34643:34675   */\n      swap2\n      swap1\n      pop\n      jump\t// out\n        /* \"#utility.yul\":34681:34835   */\n    tag_380:\n      0x00\n        /* \"#utility.yul\":34778:34829   */\n      tag_530\n        /* \"#utility.yul\":34823:34828   */\n      dup3\n        /* \"#utility.yul\":34778:34829   */\n      tag_531\n      jump\t// in\n    tag_530:\n        /* \"#utility.yul\":34765:34829   */\n      swap1\n      pop\n        /* \"#utility.yul\":34755:34835   */\n      swap2\n      swap1\n      pop\n      jump\t// out\n        /* \"#utility.yul\":34841:34968   */\n    tag_531:\n      0x00\n        /* \"#utility.yul\":34938:34962   */\n      tag_533\n        /* \"#utility.yul\":34956:34961   */\n      dup3\n        /* \"#utility.yul\":34938:34962   */\n      tag_521\n      jump\t// in\n    tag_533:\n        /* \"#utility.yul\":34925:34962   */\n      swap1\n      pop\n        /* \"#utility.yul\":34915:34968   */\n      swap2\n      swap1\n      pop\n      jump\t// out\n        /* \"#utility.yul\":34974:35154   */\n    tag_384:\n      0x00\n        /* \"#utility.yul\":35084:35148   */\n      tag_535\n        /* \"#utility.yul\":35142:35147   */\n      dup3\n        /* \"#utility.yul\":35084:35148   */\n      tag_536\n      jump\t// in\n    tag_535:\n        /* \"#utility.yul\":35071:35148   */\n      swap1\n      pop\n        /* \"#utility.yul\":35061:35154   */\n      swap2\n      swap1\n      pop\n      jump\t// out\n        /* \"#utility.yul\":35160:35300   */\n    tag_536:\n      0x00\n        /* \"#utility.yul\":35270:35294   */\n      tag_538\n        /* \"#utility.yul\":35288:35293   */\n      dup3\n        /* \"#utility.yul\":35270:35294   */\n      tag_521\n      jump\t// in\n    tag_538:\n        /* \"#utility.yul\":35257:35294   */\n      swap1\n      pop\n        /* \"#utility.yul\":35247:35300   */\n      swap2\n      swap1\n      pop\n      jump\t// out\n        /* \"#utility.yul\":35306:35613   */\n    tag_219:\n        /* \"#utility.yul\":35374:35375   */\n      0x00\n        /* \"#utility.yul\":35384:35497   */\n    tag_540:\n        /* \"#utility.yul\":35398:35404   */\n      dup4\n        /* \"#utility.yul\":35395:35396   */\n      dup2\n        /* \"#utility.yul\":35392:35405   */\n      lt\n        /* \"#utility.yul\":35384:35497   */\n      iszero\n      tag_542\n      jumpi\n        /* \"#utility.yul\":35483:35484   */\n      dup1\n        /* \"#utility.yul\":35478:35481   */\n      dup3\n        /* \"#utility.yul\":35474:35485   */\n      add\n        /* \"#utility.yul\":35468:35486   */\n      mload\n        /* \"#utility.yul\":35464:35465   */\n      dup2\n        /* \"#utility.yul\":35459:35462   */\n      dup5\n        /* \"#utility.yul\":35455:35466   */\n      add\n        /* \"#utility.yul\":35448:35487   */\n      mstore\n        /* \"#utility.yul\":35420:35422   */\n      0x20\n        /* \"#utility.yul\":35417:35418   */\n      dup2\n        /* \"#utility.yul\":35413:35423   */\n      add\n        /* \"#utility.yul\":35408:35423   */\n      swap1\n      pop\n        /* \"#utility.yul\":35384:35497   */\n      jump(tag_540)\n    tag_542:\n        /* \"#utility.yul\":35515:35521   */\n      dup4\n        /* \"#utility.yul\":35512:35513   */\n      dup2\n        /* \"#utility.yul\":35509:35522   */\n      gt\n        /* \"#utility.yul\":35506:35508   */\n      iszero\n      tag_543\n      jumpi\n        /* \"#utility.yul\":35595:35596   */\n      0x00\n        /* \"#utility.yul\":35586:35592   */\n      dup5\n        /* \"#utility.yul\":35581:35584   */\n      dup5\n        /* \"#utility.yul\":35577:35593   */\n      add\n        /* \"#utility.yul\":35570:35597   */\n      mstore\n        /* \"#utility.yul\":35506:35508   */\n    tag_543:\n        /* \"#utility.yul\":35355:35613   */\n      pop\n      pop\n      pop\n      pop\n      jump\t// out\n        /* \"#utility.yul\":35619:35667   */\n    tag_491:\n        /* \"#utility.yul\":35652:35661   */\n      invalid\n        /* \"#utility.yul\":35673:35795   */\n    tag_222:\n        /* \"#utility.yul\":35746:35770   */\n      tag_546\n        /* \"#utility.yul\":35764:35769   */\n      dup2\n        /* \"#utility.yul\":35746:35770   */\n      tag_309\n      jump\t// in\n    tag_546:\n        /* \"#utility.yul\":35739:35744   */\n      dup2\n        /* \"#utility.yul\":35736:35771   */\n      eq\n        /* \"#utility.yul\":35726:35728   */\n      tag_547\n      jumpi\n        /* \"#utility.yul\":35785:35786   */\n      0x00\n        /* \"#utility.yul\":35782:35783   */\n      dup1\n        /* \"#utility.yul\":35775:35787   */\n      revert\n        /* \"#utility.yul\":35726:35728   */\n    tag_547:\n        /* \"#utility.yul\":35716:35795   */\n      pop\n      jump\t// out\n        /* \"#utility.yul\":35801:35917   */\n    tag_241:\n        /* \"#utility.yul\":35871:35892   */\n      tag_549\n        /* \"#utility.yul\":35886:35891   */\n      dup2\n        /* \"#utility.yul\":35871:35892   */\n      tag_522\n      jump\t// in\n    tag_549:\n        /* \"#utility.yul\":35864:35869   */\n      dup2\n        /* \"#utility.yul\":35861:35893   */\n      eq\n        /* \"#utility.yul\":35851:35853   */\n      tag_550\n      jumpi\n        /* \"#utility.yul\":35907:35908   */\n      0x00\n        /* \"#utility.yul\":35904:35905   */\n      dup1\n        /* \"#utility.yul\":35897:35909   */\n      revert\n        /* \"#utility.yul\":35851:35853   */\n    tag_550:\n        /* \"#utility.yul\":35841:35917   */\n      pop\n      jump\t// out\n        /* \"#utility.yul\":35923:36099   */\n    tag_245:\n        /* \"#utility.yul\":36023:36074   */\n      tag_552\n        /* \"#utility.yul\":36068:36073   */\n      dup2\n        /* \"#utility.yul\":36023:36074   */\n      tag_524\n      jump\t// in\n    tag_552:\n        /* \"#utility.yul\":36016:36021   */\n      dup2\n        /* \"#utility.yul\":36013:36075   */\n      eq\n        /* \"#utility.yul\":36003:36005   */\n      tag_553\n      jumpi\n        /* \"#utility.yul\":36089:36090   */\n      0x00\n        /* \"#utility.yul\":36086:36087   */\n      dup1\n        /* \"#utility.yul\":36079:36091   */\n      revert\n        /* \"#utility.yul\":36003:36005   */\n    tag_553:\n        /* \"#utility.yul\":35993:36099   */\n      pop\n      jump\t// out\n        /* \"#utility.yul\":36105:36227   */\n    tag_262:\n        /* \"#utility.yul\":36178:36202   */\n      tag_555\n        /* \"#utility.yul\":36196:36201   */\n      dup2\n        /* \"#utility.yul\":36178:36202   */\n      tag_435\n      jump\t// in\n    tag_555:\n        /* \"#utility.yul\":36171:36176   */\n      dup2\n        /* \"#utility.yul\":36168:36203   */\n      eq\n        /* \"#utility.yul\":36158:36160   */\n      tag_556\n      jumpi\n        /* \"#utility.yul\":36217:36218   */\n      0x00\n        /* \"#utility.yul\":36214:36215   */\n      dup1\n        /* \"#utility.yul\":36207:36219   */\n      revert\n        /* \"#utility.yul\":36158:36160   */\n    tag_556:\n        /* \"#utility.yul\":36148:36227   */\n      pop\n      jump\t// out\n\n    auxdata: 0xa26469706673582212203b84eb0b26b99c7cfcfa3ed3707347a5cfce4304ff77c3fa44c49672d9c88b3864736f6c63430007060033\n}\n",
				"bytecode": {
					"linkReferences": {},
					"object": "60806040523480156200001157600080fd5b5060405162002cba38038062002cba8339818101604052810190620000379190620005e6565b62000047620000f560201b60201c565b82600160006101000a81548173ffffffffffffffffffffffffffffffffffffffff021916908373ffffffffffffffffffffffffffffffffffffffff16021790555081600360006101000a81548173ffffffffffffffffffffffffffffffffffffffff021916908373ffffffffffffffffffffffffffffffffffffffff160217905550620000da81620001a760201b60201c565b620000eb846200031e60201b60201c565b505050506200091d565b600062000107620004ee60201b60201c565b9050806000806101000a81548173ffffffffffffffffffffffffffffffffffffffff021916908373ffffffffffffffffffffffffffffffffffffffff1602179055508073ffffffffffffffffffffffffffffffffffffffff16600073ffffffffffffffffffffffffffffffffffffffff167f8be0079c531659141344cd1fd0a4f28419497f9722a3daafe3b4186f6b6457e060405160405180910390a350565b620001b7620004ee60201b60201c565b73ffffffffffffffffffffffffffffffffffffffff1660008054906101000a900473ffffffffffffffffffffffffffffffffffffffff1673ffffffffffffffffffffffffffffffffffffffff161462000247576040517f08c379a00000000000000000000000000000000000000000000000000000000081526004016200023e90620007fb565b60405180910390fd5b620f424081106200028f576040517f08c379a000000000000000000000000000000000000000000000000000000000815260040162000286906200081d565b60405180910390fd5b600254811415620002d7576040517f08c379a0000000000000000000000000000000000000000000000000000000008152600401620002ce90620007d9565b60405180910390fd5b7f032dc6a2d839eb179729a55633fdf1c41a1fc4739394154117005db2b354b9b5600254826040516200030c9291906200083f565b60405180910390a18060028190555050565b6200032e620004ee60201b60201c565b73ffffffffffffffffffffffffffffffffffffffff1660008054906101000a900473ffffffffffffffffffffffffffffffffffffffff1673ffffffffffffffffffffffffffffffffffffffff1614620003be576040517f08c379a0000000000000000000000000000000000000000000000000000000008152600401620003b590620007fb565b60405180910390fd5b600073ffffffffffffffffffffffffffffffffffffffff168173ffffffffffffffffffffffffffffffffffffffff16141562000431576040517f08c379a00000000000000000000000000000000000000000000000000000000081526004016200042890620007b7565b60405180910390fd5b8073ffffffffffffffffffffffffffffffffffffffff1660008054906101000a900473ffffffffffffffffffffffffffffffffffffffff1673ffffffffffffffffffffffffffffffffffffffff167f8be0079c531659141344cd1fd0a4f28419497f9722a3daafe3b4186f6b6457e060405160405180910390a3806000806101000a81548173ffffffffffffffffffffffffffffffffffffffff021916908373ffffffffffffffffffffffffffffffffffffffff16021790555050565b60003073ffffffffffffffffffffffffffffffffffffffff163373ffffffffffffffffffffffffffffffffffffffff1614156200059a57600080368080601f016020809104026020016040519081016040528093929190818152602001838380828437600081840152601f19601f820116905080830192505050505050509050600080369050905073ffffffffffffffffffffffffffffffffffffffff8183015116925050506200059e565b3390505b90565b600081519050620005b281620008cf565b92915050565b600081519050620005c981620008e9565b92915050565b600081519050620005e08162000903565b92915050565b60008060008060808587031215620005fd57600080fd5b60006200060d87828801620005a1565b94505060206200062087828801620005b8565b93505060406200063387828801620005a1565b92505060606200064687828801620005cf565b91505092959194509250565b6000620006616026836200086c565b91507f4f776e61626c653a206e6577206f776e657220697320746865207a65726f206160008301527f64647265737300000000000000000000000000000000000000000000000000006020830152604082019050919050565b6000620006c96020836200086c565b91507f436f6c6c656374696f6e53746f7265237365744665653a2053414d455f4645456000830152602082019050919050565b60006200070b6020836200086c565b91507f4f776e61626c653a2063616c6c6572206973206e6f7420746865206f776e65726000830152602082019050919050565b60006200074d6039836200086c565b91507f436f6c6c656374696f6e53746f7265237365744665653a204645455f53484f5560008301527f4c445f42455f4c4f5745525f5448414e5f424153455f464545000000000000006020830152604082019050919050565b620007b181620008c5565b82525050565b60006020820190508181036000830152620007d28162000652565b9050919050565b60006020820190508181036000830152620007f481620006ba565b9050919050565b600060208201905081810360008301526200081681620006fc565b9050919050565b6000602082019050818103600083015262000838816200073e565b9050919050565b6000604082019050620008566000830185620007a6565b620008656020830184620007a6565b9392505050565b600082825260208201905092915050565b60006200088a82620008a5565b9050919050565b60006200089e826200087d565b9050919050565b600073ffffffffffffffffffffffffffffffffffffffff82169050919050565b6000819050919050565b620008da816200087d565b8114620008e657600080fd5b50565b620008f48162000891565b81146200090057600080fd5b50565b6200090e81620008c5565b81146200091a57600080fd5b50565b61238d806200092d6000396000f3fe608060405234801561001057600080fd5b50600436106100a95760003560e01c80638da5cb5b116100715780638da5cb5b1461012c578063a4fdc78a1461014a578063b9818be114610166578063ddca3f4314610184578063e0f307c2146101a2578063f2fde38b146101d3576100a9565b80633d18651e146100ae578063451c3d80146100cc5780634b104eff146100ea57806369fe0e2d14610106578063715018a614610122575b600080fd5b6100b66101ef565b6040516100c39190611ff4565b60405180910390f35b6100d46101f6565b6040516100e19190611e19565b60405180910390f35b61010460048036038101906100ff91906113be565b61021c565b005b610120600480360381019061011b9190611573565b610472565b005b61012a6105d6565b005b610134610729565b6040516101419190611d6e565b60405180910390f35b610164600480360381019061015f91906113e7565b610752565b005b61016e610bb3565b60405161017b9190611d6e565b60405180910390f35b61018c610bd9565b6040516101999190611ff4565b60405180910390f35b6101bc60048036038101906101b79190611451565b610bdf565b6040516101ca92919061200f565b60405180910390f35b6101ed60048036038101906101e891906113be565b610c8b565b005b620f424081565b600160009054906101000a900473ffffffffffffffffffffffffffffffffffffffff1681565b610224610e4d565b73ffffffffffffffffffffffffffffffffffffffff1660008054906101000a900473ffffffffffffffffffffffffffffffffffffffff1673ffffffffffffffffffffffffffffffffffffffff16146102b1576040517f08c379a00000000000000000000000000000000000000000000000000000000081526004016102a890611f54565b60405180910390fd5b600073ffffffffffffffffffffffffffffffffffffffff168173ffffffffffffffffffffffffffffffffffffffff161415610321576040517f08c379a000000000000000000000000000000000000000000000000000000000815260040161031890611fd4565b60405180910390fd5b600360009054906101000a900473ffffffffffffffffffffffffffffffffffffffff1673ffffffffffffffffffffffffffffffffffffffff168173ffffffffffffffffffffffffffffffffffffffff1614156103b2576040517f08c379a00000000000000000000000000000000000000000000000000000000081526004016103a990611fb4565b60405180910390fd5b8073ffffffffffffffffffffffffffffffffffffffff16600360009054906101000a900473ffffffffffffffffffffffffffffffffffffffff1673ffffffffffffffffffffffffffffffffffffffff167fe0bbf1a07376101b84e5aff236bc710878c9a975168510f821b4a735c0d35e5160405160405180910390a380600360006101000a81548173ffffffffffffffffffffffffffffffffffffffff021916908373ffffffffffffffffffffffffffffffffffffffff16021790555050565b61047a610e4d565b73ffffffffffffffffffffffffffffffffffffffff1660008054906101000a900473ffffffffffffffffffffffffffffffffffffffff1673ffffffffffffffffffffffffffffffffffffffff1614610507576040517f08c379a00000000000000000000000000000000000000000000000000000000081526004016104fe90611f54565b60405180910390fd5b620f4240811061054c576040517f08c379a000000000000000000000000000000000000000000000000000000000815260040161054390611f94565b60405180910390fd5b600254811415610591576040517f08c379a000000000000000000000000000000000000000000000000000000000815260040161058890611f14565b60405180910390fd5b7f032dc6a2d839eb179729a55633fdf1c41a1fc4739394154117005db2b354b9b5600254826040516105c4929190612038565b60405180910390a18060028190555050565b6105de610e4d565b73ffffffffffffffffffffffffffffffffffffffff1660008054906101000a900473ffffffffffffffffffffffffffffffffffffffff1673ffffffffffffffffffffffffffffffffffffffff161461066b576040517f08c379a000000000000000000000000000000000000000000000000000000000815260040161066290611f54565b60405180910390fd5b600073ffffffffffffffffffffffffffffffffffffffff1660008054906101000a900473ffffffffffffffffffffffffffffffffffffffff1673ffffffffffffffffffffffffffffffffffffffff167f8be0079c531659141344cd1fd0a4f28419497f9722a3daafe3b4186f6b6457e060405160405180910390a360008060006101000a81548173ffffffffffffffffffffffffffffffffffffffff021916908373ffffffffffffffffffffffffffffffffffffffff160217905550565b60008060009054906101000a900473ffffffffffffffffffffffffffffffffffffffff16905090565b60008061075d610e4d565b905060005b8351811015610a5a57600084828151811061077957fe5b602002602001015190506000816000015190506000826020015151905082604001515181146107dd576040517f08c379a00000000000000000000000000000000000000000000000000000000081526004016107d490611ef4565b60405180910390fd5b60005b818110156109d4576000846020015182815181106107fa57fe5b6020026020010151905060008560400151838151811061081657fe5b6020026020010151905060008061082d8785610bdf565b91509150818314610873576040517f08c379a000000000000000000000000000000000000000000000000000000000815260040161086a90611e74565b60405180910390fd5b60008211156109c35760006108a8620f424061089a60025486610efe90919063ffffffff16565b610f6e90919063ffffffff16565b90506108bd818d610fc490919063ffffffff16565b9b50600160009054906101000a900473ffffffffffffffffffffffffffffffffffffffff1673ffffffffffffffffffffffffffffffffffffffff166323b872dd8c84610912858861101990919063ffffffff16565b6040518463ffffffff1660e01b815260040161093093929190611d89565b602060405180830381600087803b15801561094a57600080fd5b505af115801561095e573d6000803e3d6000fd5b505050506040513d601f19601f820116820180604052508101906109829190611428565b6109c1576040517f08c379a00000000000000000000000000000000000000000000000000000000081526004016109b890611ed4565b60405180910390fd5b505b5050505080806001019150506107e0565b508173ffffffffffffffffffffffffffffffffffffffff16637c8f76a1846060015185602001516040518363ffffffff1660e01b8152600401610a18929190611dc0565b600060405180830381600087803b158015610a3257600080fd5b505af1158015610a46573d6000803e3d6000fd5b505050505050508080600101915050610762565b506000821115610b7757600160009054906101000a900473ffffffffffffffffffffffffffffffffffffffff1673ffffffffffffffffffffffffffffffffffffffff166323b872dd82600360009054906101000a900473ffffffffffffffffffffffffffffffffffffffff16856040518463ffffffff1660e01b8152600401610ae593929190611d89565b602060405180830381600087803b158015610aff57600080fd5b505af1158015610b13573d6000803e3d6000fd5b505050506040513d601f19601f82011682018060405250810190610b379190611428565b610b76576040517f08c379a0000000000000000000000000000000000000000000000000000000008152600401610b6d90611f74565b60405180910390fd5b5b7f77cc75f8061aa168906862622e88c5b05a026a9c06c02d91ec98543e01e7ad3383604051610ba69190611df7565b60405180910390a1505050565b600360009054906101000a900473ffffffffffffffffffffffffffffffffffffffff1681565b60025481565b6000806000808573ffffffffffffffffffffffffffffffffffffffff1663bfb231d2866040518263ffffffff1660e01b8152600401610c1e9190611ff4565b60006040518083038186803b158015610c3657600080fd5b505afa158015610c4a573d6000803e3d6000fd5b505050506040513d6000823e3d601f19601f82011682018060405250810190610c73919061148d565b50509450945050505081819350935050509250929050565b610c93610e4d565b73ffffffffffffffffffffffffffffffffffffffff1660008054906101000a900473ffffffffffffffffffffffffffffffffffffffff1673ffffffffffffffffffffffffffffffffffffffff1614610d20576040517f08c379a0000000000000000000000000000000000000000000000000000000008152600401610d1790611f54565b60405180910390fd5b600073ffffffffffffffffffffffffffffffffffffffff168173ffffffffffffffffffffffffffffffffffffffff161415610d90576040517f08c379a0000000000000000000000000000000000000000000000000000000008152600401610d8790611e34565b60405180910390fd5b8073ffffffffffffffffffffffffffffffffffffffff1660008054906101000a900473ffffffffffffffffffffffffffffffffffffffff1673ffffffffffffffffffffffffffffffffffffffff167f8be0079c531659141344cd1fd0a4f28419497f9722a3daafe3b4186f6b6457e060405160405180910390a3806000806101000a81548173ffffffffffffffffffffffffffffffffffffffff021916908373ffffffffffffffffffffffffffffffffffffffff16021790555050565b60003073ffffffffffffffffffffffffffffffffffffffff163373ffffffffffffffffffffffffffffffffffffffff161415610ef757600080368080601f016020809104026020016040519081016040528093929190818152602001838380828437600081840152601f19601f820116905080830192505050505050509050600080369050905073ffffffffffffffffffffffffffffffffffffffff818301511692505050610efb565b3390505b90565b600080831415610f115760009050610f68565b6000828402905082848281610f2257fe5b0414610f63576040517f08c379a0000000000000000000000000000000000000000000000000000000008152600401610f5a90611f34565b60405180910390fd5b809150505b92915050565b6000808211610fb2576040517f08c379a0000000000000000000000000000000000000000000000000000000008152600401610fa990611eb4565b60405180910390fd5b818381610fbb57fe5b04905092915050565b60008082840190508381101561100f576040517f08c379a000000000000000000000000000000000000000000000000000000000815260040161100690611e54565b60405180910390fd5b8091505092915050565b60008282111561105e576040517f08c379a000000000000000000000000000000000000000000000000000000000815260040161105590611e94565b60405180910390fd5b818303905092915050565b600061107c61107784612092565b612061565b9050808382526020820190508285602086028201111561109b57600080fd5b60005b858110156110cb57816110b188826111dc565b84526020840193506020830192505060018101905061109e565b5050509392505050565b60006110e86110e3846120be565b612061565b9050808382526020820190508260005b85811015611128578135850161110e88826112d8565b8452602084019350602083019250506001810190506110f8565b5050509392505050565b6000611145611140846120ea565b612061565b9050808382526020820190508285602086028201111561116457600080fd5b60005b85811015611194578161117a8882611394565b845260208401935060208301925050600181019050611167565b5050509392505050565b60006111b16111ac84612116565b612061565b9050828152602081018484840111156111c957600080fd5b6111d48482856122c6565b509392505050565b6000813590506111eb816122fb565b92915050565b600081519050611200816122fb565b92915050565b600082601f83011261121757600080fd5b8135611227848260208601611069565b91505092915050565b600082601f83011261124157600080fd5b81356112518482602086016110d5565b91505092915050565b600082601f83011261126b57600080fd5b813561127b848260208601611132565b91505092915050565b60008151905061129381612312565b92915050565b6000813590506112a881612329565b92915050565b600082601f8301126112bf57600080fd5b81516112cf84826020860161119e565b91505092915050565b6000608082840312156112ea57600080fd5b6112f46080612061565b9050600061130484828501611299565b600083015250602082013567ffffffffffffffff81111561132457600080fd5b6113308482850161125a565b602083015250604082013567ffffffffffffffff81111561135057600080fd5b61135c8482850161125a565b604083015250606082013567ffffffffffffffff81111561137c57600080fd5b61138884828501611206565b60608301525092915050565b6000813590506113a381612340565b92915050565b6000815190506113b881612340565b92915050565b6000602082840312156113d057600080fd5b60006113de848285016111dc565b91505092915050565b6000602082840312156113f957600080fd5b600082013567ffffffffffffffff81111561141357600080fd5b61141f84828501611230565b91505092915050565b60006020828403121561143a57600080fd5b600061144884828501611284565b91505092915050565b6000806040838503121561146457600080fd5b600061147285828601611299565b925050602061148385828601611394565b9150509250929050565b600080600080600080600060e0888a0312156114a857600080fd5b600088015167ffffffffffffffff8111156114c257600080fd5b6114ce8a828b016112ae565b97505060206114df8a828b016113a9565b96505060406114f08a828b016113a9565b95505060606115018a828b016113a9565b94505060806115128a828b016111f1565b93505060a088015167ffffffffffffffff81111561152f57600080fd5b61153b8a828b016112ae565b92505060c088015167ffffffffffffffff81111561155857600080fd5b6115648a828b016112ae565b91505092959891949750929550565b60006020828403121561158557600080fd5b600061159384828501611394565b91505092915050565b60006115a883836115e0565b60208301905092915050565b60006115c08383611cdf565b905092915050565b60006115d48383611d50565b60208301905092915050565b6115e981612224565b82525050565b6115f881612224565b82525050565b600061160982612176565b61161381856121be565b935061161e83612146565b8060005b8381101561164f578151611636888261159c565b975061164183612197565b925050600181019050611622565b5085935050505092915050565b600061166782612176565b61167181856121cf565b935061167c83612146565b8060005b838110156116ad578151611694888261159c565b975061169f83612197565b925050600181019050611680565b5085935050505092915050565b60006116c582612181565b6116cf81856121e0565b9350836020820285016116e185612156565b8060005b8581101561171d57848403895281516116fe85826115b4565b9450611709836121a4565b925060208a019950506001810190506116e5565b50829750879550505050505092915050565b600061173a8261218c565b61174481856121f1565b935061174f83612166565b8060005b8381101561178057815161176788826115c8565b9750611772836121b1565b925050600181019050611753565b5085935050505092915050565b60006117988261218c565b6117a28185612202565b93506117ad83612166565b8060005b838110156117de5781516117c588826115c8565b97506117d0836121b1565b9250506001810190506117b1565b5085935050505092915050565b6117f48161227e565b82525050565b611803816122a2565b82525050565b6000611816602683612213565b91507f4f776e61626c653a206e6577206f776e657220697320746865207a65726f206160008301527f64647265737300000000000000000000000000000000000000000000000000006020830152604082019050919050565b600061187c601b83612213565b91507f536166654d6174683a206164646974696f6e206f766572666c6f7700000000006000830152602082019050919050565b60006118bc602883612213565b91507f436f6c6c656374696f6e53746f7265236275793a204954454d5f50524943455f60008301527f4d49534d415443480000000000000000000000000000000000000000000000006020830152604082019050919050565b6000611922601e83612213565b91507f536166654d6174683a207375627472616374696f6e206f766572666c6f7700006000830152602082019050919050565b6000611962601a83612213565b91507f536166654d6174683a206469766973696f6e206279207a65726f0000000000006000830152602082019050919050565b60006119a2602a83612213565b91507f436f6c6c656374696f6e53746f7265236275793a205452414e534645525f505260008301527f4943455f4641494c4544000000000000000000000000000000000000000000006020830152604082019050919050565b6000611a08602483612213565b91507f436f6c6c656374696f6e53746f7265236275793a204c454e4754485f4d49534d60008301527f41544348000000000000000000000000000000000000000000000000000000006020830152604082019050919050565b6000611a6e602083612213565b91507f436f6c6c656374696f6e53746f7265237365744665653a2053414d455f4645456000830152602082019050919050565b6000611aae602183612213565b91507f536166654d6174683a206d756c7469706c69636174696f6e206f766572666c6f60008301527f77000000000000000000000000000000000000000000000000000000000000006020830152604082019050919050565b6000611b14602083612213565b91507f4f776e61626c653a2063616c6c6572206973206e6f7420746865206f776e65726000830152602082019050919050565b6000611b54602983612213565b91507f436f6c6c656374696f6e53746f7265236275793a205452414e534645525f464560008301527f45535f4641494c454400000000000000000000000000000000000000000000006020830152604082019050919050565b6000611bba603983612213565b91507f436f6c6c656374696f6e53746f7265237365744665653a204645455f53484f5560008301527f4c445f42455f4c4f5745525f5448414e5f424153455f464545000000000000006020830152604082019050919050565b6000611c20602b83612213565b91507f436f6c6c656374696f6e53746f7265237365744665654f776e65723a2053414d60008301527f455f4645455f4f574e45520000000000000000000000000000000000000000006020830152604082019050919050565b6000611c86602c83612213565b91507f436f6c6c656374696f6e53746f7265237365744665654f776e65723a20494e5660008301527f414c49445f4144445245535300000000000000000000000000000000000000006020830152604082019050919050565b6000608083016000830151611cf760008601826117fa565b5060208301518482036020860152611d0f828261172f565b91505060408301518482036040860152611d29828261172f565b91505060608301518482036060860152611d4382826115fe565b9150508091505092915050565b611d5981612274565b82525050565b611d6881612274565b82525050565b6000602082019050611d8360008301846115ef565b92915050565b6000606082019050611d9e60008301866115ef565b611dab60208301856115ef565b611db86040830184611d5f565b949350505050565b60006040820190508181036000830152611dda818561165c565b90508181036020830152611dee818461178d565b90509392505050565b60006020820190508181036000830152611e1181846116ba565b905092915050565b6000602082019050611e2e60008301846117eb565b92915050565b60006020820190508181036000830152611e4d81611809565b9050919050565b60006020820190508181036000830152611e6d8161186f565b9050919050565b60006020820190508181036000830152611e8d816118af565b9050919050565b60006020820190508181036000830152611ead81611915565b9050919050565b60006020820190508181036000830152611ecd81611955565b9050919050565b60006020820190508181036000830152611eed81611995565b9050919050565b60006020820190508181036000830152611f0d816119fb565b9050919050565b60006020820190508181036000830152611f2d81611a61565b9050919050565b60006020820190508181036000830152611f4d81611aa1565b9050919050565b60006020820190508181036000830152611f6d81611b07565b9050919050565b60006020820190508181036000830152611f8d81611b47565b9050919050565b60006020820190508181036000830152611fad81611bad565b9050919050565b60006020820190508181036000830152611fcd81611c13565b9050919050565b60006020820190508181036000830152611fed81611c79565b9050919050565b60006020820190506120096000830184611d5f565b92915050565b60006040820190506120246000830185611d5f565b61203160208301846115ef565b9392505050565b600060408201905061204d6000830185611d5f565b61205a6020830184611d5f565b9392505050565b6000604051905081810181811067ffffffffffffffff82111715612088576120876122f9565b5b8060405250919050565b600067ffffffffffffffff8211156120ad576120ac6122f9565b5b602082029050602081019050919050565b600067ffffffffffffffff8211156120d9576120d86122f9565b5b602082029050602081019050919050565b600067ffffffffffffffff821115612105576121046122f9565b5b602082029050602081019050919050565b600067ffffffffffffffff821115612131576121306122f9565b5b601f19601f8301169050602081019050919050565b6000819050602082019050919050565b6000819050602082019050919050565b6000819050602082019050919050565b600081519050919050565b600081519050919050565b600081519050919050565b6000602082019050919050565b6000602082019050919050565b6000602082019050919050565b600082825260208201905092915050565b600082825260208201905092915050565b600082825260208201905092915050565b600082825260208201905092915050565b600082825260208201905092915050565b600082825260208201905092915050565b600061222f82612254565b9050919050565b60008115159050919050565b600061224d82612224565b9050919050565b600073ffffffffffffffffffffffffffffffffffffffff82169050919050565b6000819050919050565b600061228982612290565b9050919050565b600061229b82612254565b9050919050565b60006122ad826122b4565b9050919050565b60006122bf82612254565b9050919050565b60005b838110156122e45780820151818401526020810190506122c9565b838111156122f3576000848401525b50505050565bfe5b61230481612224565b811461230f57600080fd5b50565b61231b81612236565b811461232657600080fd5b50565b61233281612242565b811461233d57600080fd5b50565b61234981612274565b811461235457600080fd5b5056fea26469706673582212203b84eb0b26b99c7cfcfa3ed3707347a5cfce4304ff77c3fa44c49672d9c88b3864736f6c63430007060033",
					"opcodes": "PUSH1 0x80 PUSH1 0x40 MSTORE CALLVALUE DUP1 ISZERO PUSH3 0x11 JUMPI PUSH1 0x0 DUP1 REVERT JUMPDEST POP PUSH1 0x40 MLOAD PUSH3 0x2CBA CODESIZE SUB DUP1 PUSH3 0x2CBA DUP4 CODECOPY DUP2 DUP2 ADD PUSH1 0x40 MSTORE DUP2 ADD SWAP1 PUSH3 0x37 SWAP2 SWAP1 PUSH3 0x5E6 JUMP JUMPDEST PUSH3 0x47 PUSH3 0xF5 PUSH1 0x20 SHL PUSH1 0x20 SHR JUMP JUMPDEST DUP3 PUSH1 0x1 PUSH1 0x0 PUSH2 0x100 EXP DUP2 SLOAD DUP2 PUSH20 0xFFFFFFFFFFFFFFFFFFFFFFFFFFFFFFFFFFFFFFFF MUL NOT AND SWAP1 DUP4 PUSH20 0xFFFFFFFFFFFFFFFFFFFFFFFFFFFFFFFFFFFFFFFF AND MUL OR SWAP1 SSTORE POP DUP2 PUSH1 0x3 PUSH1 0x0 PUSH2 0x100 EXP DUP2 SLOAD DUP2 PUSH20 0xFFFFFFFFFFFFFFFFFFFFFFFFFFFFFFFFFFFFFFFF MUL NOT AND SWAP1 DUP4 PUSH20 0xFFFFFFFFFFFFFFFFFFFFFFFFFFFFFFFFFFFFFFFF AND MUL OR SWAP1 SSTORE POP PUSH3 0xDA DUP2 PUSH3 0x1A7 PUSH1 0x20 SHL PUSH1 0x20 SHR JUMP JUMPDEST PUSH3 0xEB DUP5 PUSH3 0x31E PUSH1 0x20 SHL PUSH1 0x20 SHR JUMP JUMPDEST POP POP POP POP PUSH3 0x91D JUMP JUMPDEST PUSH1 0x0 PUSH3 0x107 PUSH3 0x4EE PUSH1 0x20 SHL PUSH1 0x20 SHR JUMP JUMPDEST SWAP1 POP DUP1 PUSH1 0x0 DUP1 PUSH2 0x100 EXP DUP2 SLOAD DUP2 PUSH20 0xFFFFFFFFFFFFFFFFFFFFFFFFFFFFFFFFFFFFFFFF MUL NOT AND SWAP1 DUP4 PUSH20 0xFFFFFFFFFFFFFFFFFFFFFFFFFFFFFFFFFFFFFFFF AND MUL OR SWAP1 SSTORE POP DUP1 PUSH20 0xFFFFFFFFFFFFFFFFFFFFFFFFFFFFFFFFFFFFFFFF AND PUSH1 0x0 PUSH20 0xFFFFFFFFFFFFFFFFFFFFFFFFFFFFFFFFFFFFFFFF AND PUSH32 0x8BE0079C531659141344CD1FD0A4F28419497F9722A3DAAFE3B4186F6B6457E0 PUSH1 0x40 MLOAD PUSH1 0x40 MLOAD DUP1 SWAP2 SUB SWAP1 LOG3 POP JUMP JUMPDEST PUSH3 0x1B7 PUSH3 0x4EE PUSH1 0x20 SHL PUSH1 0x20 SHR JUMP JUMPDEST PUSH20 0xFFFFFFFFFFFFFFFFFFFFFFFFFFFFFFFFFFFFFFFF AND PUSH1 0x0 DUP1 SLOAD SWAP1 PUSH2 0x100 EXP SWAP1 DIV PUSH20 0xFFFFFFFFFFFFFFFFFFFFFFFFFFFFFFFFFFFFFFFF AND PUSH20 0xFFFFFFFFFFFFFFFFFFFFFFFFFFFFFFFFFFFFFFFF AND EQ PUSH3 0x247 JUMPI PUSH1 0x40 MLOAD PUSH32 0x8C379A000000000000000000000000000000000000000000000000000000000 DUP2 MSTORE PUSH1 0x4 ADD PUSH3 0x23E SWAP1 PUSH3 0x7FB JUMP JUMPDEST PUSH1 0x40 MLOAD DUP1 SWAP2 SUB SWAP1 REVERT JUMPDEST PUSH3 0xF4240 DUP2 LT PUSH3 0x28F JUMPI PUSH1 0x40 MLOAD PUSH32 0x8C379A000000000000000000000000000000000000000000000000000000000 DUP2 MSTORE PUSH1 0x4 ADD PUSH3 0x286 SWAP1 PUSH3 0x81D JUMP JUMPDEST PUSH1 0x40 MLOAD DUP1 SWAP2 SUB SWAP1 REVERT JUMPDEST PUSH1 0x2 SLOAD DUP2 EQ ISZERO PUSH3 0x2D7 JUMPI PUSH1 0x40 MLOAD PUSH32 0x8C379A000000000000000000000000000000000000000000000000000000000 DUP2 MSTORE PUSH1 0x4 ADD PUSH3 0x2CE SWAP1 PUSH3 0x7D9 JUMP JUMPDEST PUSH1 0x40 MLOAD DUP1 SWAP2 SUB SWAP1 REVERT JUMPDEST PUSH32 0x32DC6A2D839EB179729A55633FDF1C41A1FC4739394154117005DB2B354B9B5 PUSH1 0x2 SLOAD DUP3 PUSH1 0x40 MLOAD PUSH3 0x30C SWAP3 SWAP2 SWAP1 PUSH3 0x83F JUMP JUMPDEST PUSH1 0x40 MLOAD DUP1 SWAP2 SUB SWAP1 LOG1 DUP1 PUSH1 0x2 DUP2 SWAP1 SSTORE POP POP JUMP JUMPDEST PUSH3 0x32E PUSH3 0x4EE PUSH1 0x20 SHL PUSH1 0x20 SHR JUMP JUMPDEST PUSH20 0xFFFFFFFFFFFFFFFFFFFFFFFFFFFFFFFFFFFFFFFF AND PUSH1 0x0 DUP1 SLOAD SWAP1 PUSH2 0x100 EXP SWAP1 DIV PUSH20 0xFFFFFFFFFFFFFFFFFFFFFFFFFFFFFFFFFFFFFFFF AND PUSH20 0xFFFFFFFFFFFFFFFFFFFFFFFFFFFFFFFFFFFFFFFF AND EQ PUSH3 0x3BE JUMPI PUSH1 0x40 MLOAD PUSH32 0x8C379A000000000000000000000000000000000000000000000000000000000 DUP2 MSTORE PUSH1 0x4 ADD PUSH3 0x3B5 SWAP1 PUSH3 0x7FB JUMP JUMPDEST PUSH1 0x40 MLOAD DUP1 SWAP2 SUB SWAP1 REVERT JUMPDEST PUSH1 0x0 PUSH20 0xFFFFFFFFFFFFFFFFFFFFFFFFFFFFFFFFFFFFFFFF AND DUP2 PUSH20 0xFFFFFFFFFFFFFFFFFFFFFFFFFFFFFFFFFFFFFFFF AND EQ ISZERO PUSH3 0x431 JUMPI PUSH1 0x40 MLOAD PUSH32 0x8C379A000000000000000000000000000000000000000000000000000000000 DUP2 MSTORE PUSH1 0x4 ADD PUSH3 0x428 SWAP1 PUSH3 0x7B7 JUMP JUMPDEST PUSH1 0x40 MLOAD DUP1 SWAP2 SUB SWAP1 REVERT JUMPDEST DUP1 PUSH20 0xFFFFFFFFFFFFFFFFFFFFFFFFFFFFFFFFFFFFFFFF AND PUSH1 0x0 DUP1 SLOAD SWAP1 PUSH2 0x100 EXP SWAP1 DIV PUSH20 0xFFFFFFFFFFFFFFFFFFFFFFFFFFFFFFFFFFFFFFFF AND PUSH20 0xFFFFFFFFFFFFFFFFFFFFFFFFFFFFFFFFFFFFFFFF AND PUSH32 0x8BE0079C531659141344CD1FD0A4F28419497F9722A3DAAFE3B4186F6B6457E0 PUSH1 0x40 MLOAD PUSH1 0x40 MLOAD DUP1 SWAP2 SUB SWAP1 LOG3 DUP1 PUSH1 0x0 DUP1 PUSH2 0x100 EXP DUP2 SLOAD DUP2 PUSH20 0xFFFFFFFFFFFFFFFFFFFFFFFFFFFFFFFFFFFFFFFF MUL NOT AND SWAP1 DUP4 PUSH20 0xFFFFFFFFFFFFFFFFFFFFFFFFFFFFFFFFFFFFFFFF AND MUL OR SWAP1 SSTORE POP POP JUMP JUMPDEST PUSH1 0x0 ADDRESS PUSH20 0xFFFFFFFFFFFFFFFFFFFFFFFFFFFFFFFFFFFFFFFF AND CALLER PUSH20 0xFFFFFFFFFFFFFFFFFFFFFFFFFFFFFFFFFFFFFFFF AND EQ ISZERO PUSH3 0x59A JUMPI PUSH1 0x0 DUP1 CALLDATASIZE DUP1 DUP1 PUSH1 0x1F ADD PUSH1 0x20 DUP1 SWAP2 DIV MUL PUSH1 0x20 ADD PUSH1 0x40 MLOAD SWAP1 DUP2 ADD PUSH1 0x40 MSTORE DUP1 SWAP4 SWAP3 SWAP2 SWAP1 DUP2 DUP2 MSTORE PUSH1 0x20 ADD DUP4 DUP4 DUP1 DUP3 DUP5 CALLDATACOPY PUSH1 0x0 DUP2 DUP5 ADD MSTORE PUSH1 0x1F NOT PUSH1 0x1F DUP3 ADD AND SWAP1 POP DUP1 DUP4 ADD SWAP3 POP POP POP POP POP POP POP SWAP1 POP PUSH1 0x0 DUP1 CALLDATASIZE SWAP1 POP SWAP1 POP PUSH20 0xFFFFFFFFFFFFFFFFFFFFFFFFFFFFFFFFFFFFFFFF DUP2 DUP4 ADD MLOAD AND SWAP3 POP POP POP PUSH3 0x59E JUMP JUMPDEST CALLER SWAP1 POP JUMPDEST SWAP1 JUMP JUMPDEST PUSH1 0x0 DUP2 MLOAD SWAP1 POP PUSH3 0x5B2 DUP2 PUSH3 0x8CF JUMP JUMPDEST SWAP3 SWAP2 POP POP JUMP JUMPDEST PUSH1 0x0 DUP2 MLOAD SWAP1 POP PUSH3 0x5C9 DUP2 PUSH3 0x8E9 JUMP JUMPDEST SWAP3 SWAP2 POP POP JUMP JUMPDEST PUSH1 0x0 DUP2 MLOAD SWAP1 POP PUSH3 0x5E0 DUP2 PUSH3 0x903 JUMP JUMPDEST SWAP3 SWAP2 POP POP JUMP JUMPDEST PUSH1 0x0 DUP1 PUSH1 0x0 DUP1 PUSH1 0x80 DUP6 DUP8 SUB SLT ISZERO PUSH3 0x5FD JUMPI PUSH1 0x0 DUP1 REVERT JUMPDEST PUSH1 0x0 PUSH3 0x60D DUP8 DUP3 DUP9 ADD PUSH3 0x5A1 JUMP JUMPDEST SWAP5 POP POP PUSH1 0x20 PUSH3 0x620 DUP8 DUP3 DUP9 ADD PUSH3 0x5B8 JUMP JUMPDEST SWAP4 POP POP PUSH1 0x40 PUSH3 0x633 DUP8 DUP3 DUP9 ADD PUSH3 0x5A1 JUMP JUMPDEST SWAP3 POP POP PUSH1 0x60 PUSH3 0x646 DUP8 DUP3 DUP9 ADD PUSH3 0x5CF JUMP JUMPDEST SWAP2 POP POP SWAP3 SWAP6 SWAP2 SWAP5 POP SWAP3 POP JUMP JUMPDEST PUSH1 0x0 PUSH3 0x661 PUSH1 0x26 DUP4 PUSH3 0x86C JUMP JUMPDEST SWAP2 POP PUSH32 0x4F776E61626C653A206E6577206F776E657220697320746865207A65726F2061 PUSH1 0x0 DUP4 ADD MSTORE PUSH32 0x6464726573730000000000000000000000000000000000000000000000000000 PUSH1 0x20 DUP4 ADD MSTORE PUSH1 0x40 DUP3 ADD SWAP1 POP SWAP2 SWAP1 POP JUMP JUMPDEST PUSH1 0x0 PUSH3 0x6C9 PUSH1 0x20 DUP4 PUSH3 0x86C JUMP JUMPDEST SWAP2 POP PUSH32 0x436F6C6C656374696F6E53746F7265237365744665653A2053414D455F464545 PUSH1 0x0 DUP4 ADD MSTORE PUSH1 0x20 DUP3 ADD SWAP1 POP SWAP2 SWAP1 POP JUMP JUMPDEST PUSH1 0x0 PUSH3 0x70B PUSH1 0x20 DUP4 PUSH3 0x86C JUMP JUMPDEST SWAP2 POP PUSH32 0x4F776E61626C653A2063616C6C6572206973206E6F7420746865206F776E6572 PUSH1 0x0 DUP4 ADD MSTORE PUSH1 0x20 DUP3 ADD SWAP1 POP SWAP2 SWAP1 POP JUMP JUMPDEST PUSH1 0x0 PUSH3 0x74D PUSH1 0x39 DUP4 PUSH3 0x86C JUMP JUMPDEST SWAP2 POP PUSH32 0x436F6C6C656374696F6E53746F7265237365744665653A204645455F53484F55 PUSH1 0x0 DUP4 ADD MSTORE PUSH32 0x4C445F42455F4C4F5745525F5448414E5F424153455F46454500000000000000 PUSH1 0x20 DUP4 ADD MSTORE PUSH1 0x40 DUP3 ADD SWAP1 POP SWAP2 SWAP1 POP JUMP JUMPDEST PUSH3 0x7B1 DUP2 PUSH3 0x8C5 JUMP JUMPDEST DUP3 MSTORE POP POP JUMP JUMPDEST PUSH1 0x0 PUSH1 0x20 DUP3 ADD SWAP1 POP DUP2 DUP2 SUB PUSH1 0x0 DUP4 ADD MSTORE PUSH3 0x7D2 DUP2 PUSH3 0x652 JUMP JUMPDEST SWAP1 POP SWAP2 SWAP1 POP JUMP JUMPDEST PUSH1 0x0 PUSH1 0x20 DUP3 ADD SWAP1 POP DUP2 DUP2 SUB PUSH1 0x0 DUP4 ADD MSTORE PUSH3 0x7F4 DUP2 PUSH3 0x6BA JUMP JUMPDEST SWAP1 POP SWAP2 SWAP1 POP JUMP JUMPDEST PUSH1 0x0 PUSH1 0x20 DUP3 ADD SWAP1 POP DUP2 DUP2 SUB PUSH1 0x0 DUP4 ADD MSTORE PUSH3 0x816 DUP2 PUSH3 0x6FC JUMP JUMPDEST SWAP1 POP SWAP2 SWAP1 POP JUMP JUMPDEST PUSH1 0x0 PUSH1 0x20 DUP3 ADD SWAP1 POP DUP2 DUP2 SUB PUSH1 0x0 DUP4 ADD MSTORE PUSH3 0x838 DUP2 PUSH3 0x73E JUMP JUMPDEST SWAP1 POP SWAP2 SWAP1 POP JUMP JUMPDEST PUSH1 0x0 PUSH1 0x40 DUP3 ADD SWAP1 POP PUSH3 0x856 PUSH1 0x0 DUP4 ADD DUP6 PUSH3 0x7A6 JUMP JUMPDEST PUSH3 0x865 PUSH1 0x20 DUP4 ADD DUP5 PUSH3 0x7A6 JUMP JUMPDEST SWAP4 SWAP3 POP POP POP JUMP JUMPDEST PUSH1 0x0 DUP3 DUP3 MSTORE PUSH1 0x20 DUP3 ADD SWAP1 POP SWAP3 SWAP2 POP POP JUMP JUMPDEST PUSH1 0x0 PUSH3 0x88A DUP3 PUSH3 0x8A5 JUMP JUMPDEST SWAP1 POP SWAP2 SWAP1 POP JUMP JUMPDEST PUSH1 0x0 PUSH3 0x89E DUP3 PUSH3 0x87D JUMP JUMPDEST SWAP1 POP SWAP2 SWAP1 POP JUMP JUMPDEST PUSH1 0x0 PUSH20 0xFFFFFFFFFFFFFFFFFFFFFFFFFFFFFFFFFFFFFFFF DUP3 AND SWAP1 POP SWAP2 SWAP1 POP JUMP JUMPDEST PUSH1 0x0 DUP2 SWAP1 POP SWAP2 SWAP1 POP JUMP JUMPDEST PUSH3 0x8DA DUP2 PUSH3 0x87D JUMP JUMPDEST DUP2 EQ PUSH3 0x8E6 JUMPI PUSH1 0x0 DUP1 REVERT JUMPDEST POP JUMP JUMPDEST PUSH3 0x8F4 DUP2 PUSH3 0x891 JUMP JUMPDEST DUP2 EQ PUSH3 0x900 JUMPI PUSH1 0x0 DUP1 REVERT JUMPDEST POP JUMP JUMPDEST PUSH3 0x90E DUP2 PUSH3 0x8C5 JUMP JUMPDEST DUP2 EQ PUSH3 0x91A JUMPI PUSH1 0x0 DUP1 REVERT JUMPDEST POP JUMP JUMPDEST PUSH2 0x238D DUP1 PUSH3 0x92D PUSH1 0x0 CODECOPY PUSH1 0x0 RETURN INVALID PUSH1 0x80 PUSH1 0x40 MSTORE CALLVALUE DUP1 ISZERO PUSH2 0x10 JUMPI PUSH1 0x0 DUP1 REVERT JUMPDEST POP PUSH1 0x4 CALLDATASIZE LT PUSH2 0xA9 JUMPI PUSH1 0x0 CALLDATALOAD PUSH1 0xE0 SHR DUP1 PUSH4 0x8DA5CB5B GT PUSH2 0x71 JUMPI DUP1 PUSH4 0x8DA5CB5B EQ PUSH2 0x12C JUMPI DUP1 PUSH4 0xA4FDC78A EQ PUSH2 0x14A JUMPI DUP1 PUSH4 0xB9818BE1 EQ PUSH2 0x166 JUMPI DUP1 PUSH4 0xDDCA3F43 EQ PUSH2 0x184 JUMPI DUP1 PUSH4 0xE0F307C2 EQ PUSH2 0x1A2 JUMPI DUP1 PUSH4 0xF2FDE38B EQ PUSH2 0x1D3 JUMPI PUSH2 0xA9 JUMP JUMPDEST DUP1 PUSH4 0x3D18651E EQ PUSH2 0xAE JUMPI DUP1 PUSH4 0x451C3D80 EQ PUSH2 0xCC JUMPI DUP1 PUSH4 0x4B104EFF EQ PUSH2 0xEA JUMPI DUP1 PUSH4 0x69FE0E2D EQ PUSH2 0x106 JUMPI DUP1 PUSH4 0x715018A6 EQ PUSH2 0x122 JUMPI JUMPDEST PUSH1 0x0 DUP1 REVERT JUMPDEST PUSH2 0xB6 PUSH2 0x1EF JUMP JUMPDEST PUSH1 0x40 MLOAD PUSH2 0xC3 SWAP2 SWAP1 PUSH2 0x1FF4 JUMP JUMPDEST PUSH1 0x40 MLOAD DUP1 SWAP2 SUB SWAP1 RETURN JUMPDEST PUSH2 0xD4 PUSH2 0x1F6 JUMP JUMPDEST PUSH1 0x40 MLOAD PUSH2 0xE1 SWAP2 SWAP1 PUSH2 0x1E19 JUMP JUMPDEST PUSH1 0x40 MLOAD DUP1 SWAP2 SUB SWAP1 RETURN JUMPDEST PUSH2 0x104 PUSH1 0x4 DUP1 CALLDATASIZE SUB DUP2 ADD SWAP1 PUSH2 0xFF SWAP2 SWAP1 PUSH2 0x13BE JUMP JUMPDEST PUSH2 0x21C JUMP JUMPDEST STOP JUMPDEST PUSH2 0x120 PUSH1 0x4 DUP1 CALLDATASIZE SUB DUP2 ADD SWAP1 PUSH2 0x11B SWAP2 SWAP1 PUSH2 0x1573 JUMP JUMPDEST PUSH2 0x472 JUMP JUMPDEST STOP JUMPDEST PUSH2 0x12A PUSH2 0x5D6 JUMP JUMPDEST STOP JUMPDEST PUSH2 0x134 PUSH2 0x729 JUMP JUMPDEST PUSH1 0x40 MLOAD PUSH2 0x141 SWAP2 SWAP1 PUSH2 0x1D6E JUMP JUMPDEST PUSH1 0x40 MLOAD DUP1 SWAP2 SUB SWAP1 RETURN JUMPDEST PUSH2 0x164 PUSH1 0x4 DUP1 CALLDATASIZE SUB DUP2 ADD SWAP1 PUSH2 0x15F SWAP2 SWAP1 PUSH2 0x13E7 JUMP JUMPDEST PUSH2 0x752 JUMP JUMPDEST STOP JUMPDEST PUSH2 0x16E PUSH2 0xBB3 JUMP JUMPDEST PUSH1 0x40 MLOAD PUSH2 0x17B SWAP2 SWAP1 PUSH2 0x1D6E JUMP JUMPDEST PUSH1 0x40 MLOAD DUP1 SWAP2 SUB SWAP1 RETURN JUMPDEST PUSH2 0x18C PUSH2 0xBD9 JUMP JUMPDEST PUSH1 0x40 MLOAD PUSH2 0x199 SWAP2 SWAP1 PUSH2 0x1FF4 JUMP JUMPDEST PUSH1 0x40 MLOAD DUP1 SWAP2 SUB SWAP1 RETURN JUMPDEST PUSH2 0x1BC PUSH1 0x4 DUP1 CALLDATASIZE SUB DUP2 ADD SWAP1 PUSH2 0x1B7 SWAP2 SWAP1 PUSH2 0x1451 JUMP JUMPDEST PUSH2 0xBDF JUMP JUMPDEST PUSH1 0x40 MLOAD PUSH2 0x1CA SWAP3 SWAP2 SWAP1 PUSH2 0x200F JUMP JUMPDEST PUSH1 0x40 MLOAD DUP1 SWAP2 SUB SWAP1 RETURN JUMPDEST PUSH2 0x1ED PUSH1 0x4 DUP1 CALLDATASIZE SUB DUP2 ADD SWAP1 PUSH2 0x1E8 SWAP2 SWAP1 PUSH2 0x13BE JUMP JUMPDEST PUSH2 0xC8B JUMP JUMPDEST STOP JUMPDEST PUSH3 0xF4240 DUP2 JUMP JUMPDEST PUSH1 0x1 PUSH1 0x0 SWAP1 SLOAD SWAP1 PUSH2 0x100 EXP SWAP1 DIV PUSH20 0xFFFFFFFFFFFFFFFFFFFFFFFFFFFFFFFFFFFFFFFF AND DUP2 JUMP JUMPDEST PUSH2 0x224 PUSH2 0xE4D JUMP JUMPDEST PUSH20 0xFFFFFFFFFFFFFFFFFFFFFFFFFFFFFFFFFFFFFFFF AND PUSH1 0x0 DUP1 SLOAD SWAP1 PUSH2 0x100 EXP SWAP1 DIV PUSH20 0xFFFFFFFFFFFFFFFFFFFFFFFFFFFFFFFFFFFFFFFF AND PUSH20 0xFFFFFFFFFFFFFFFFFFFFFFFFFFFFFFFFFFFFFFFF AND EQ PUSH2 0x2B1 JUMPI PUSH1 0x40 MLOAD PUSH32 0x8C379A000000000000000000000000000000000000000000000000000000000 DUP2 MSTORE PUSH1 0x4 ADD PUSH2 0x2A8 SWAP1 PUSH2 0x1F54 JUMP JUMPDEST PUSH1 0x40 MLOAD DUP1 SWAP2 SUB SWAP1 REVERT JUMPDEST PUSH1 0x0 PUSH20 0xFFFFFFFFFFFFFFFFFFFFFFFFFFFFFFFFFFFFFFFF AND DUP2 PUSH20 0xFFFFFFFFFFFFFFFFFFFFFFFFFFFFFFFFFFFFFFFF AND EQ ISZERO PUSH2 0x321 JUMPI PUSH1 0x40 MLOAD PUSH32 0x8C379A000000000000000000000000000000000000000000000000000000000 DUP2 MSTORE PUSH1 0x4 ADD PUSH2 0x318 SWAP1 PUSH2 0x1FD4 JUMP JUMPDEST PUSH1 0x40 MLOAD DUP1 SWAP2 SUB SWAP1 REVERT JUMPDEST PUSH1 0x3 PUSH1 0x0 SWAP1 SLOAD SWAP1 PUSH2 0x100 EXP SWAP1 DIV PUSH20 0xFFFFFFFFFFFFFFFFFFFFFFFFFFFFFFFFFFFFFFFF AND PUSH20 0xFFFFFFFFFFFFFFFFFFFFFFFFFFFFFFFFFFFFFFFF AND DUP2 PUSH20 0xFFFFFFFFFFFFFFFFFFFFFFFFFFFFFFFFFFFFFFFF AND EQ ISZERO PUSH2 0x3B2 JUMPI PUSH1 0x40 MLOAD PUSH32 0x8C379A000000000000000000000000000000000000000000000000000000000 DUP2 MSTORE PUSH1 0x4 ADD PUSH2 0x3A9 SWAP1 PUSH2 0x1FB4 JUMP JUMPDEST PUSH1 0x40 MLOAD DUP1 SWAP2 SUB SWAP1 REVERT JUMPDEST DUP1 PUSH20 0xFFFFFFFFFFFFFFFFFFFFFFFFFFFFFFFFFFFFFFFF AND PUSH1 0x3 PUSH1 0x0 SWAP1 SLOAD SWAP1 PUSH2 0x100 EXP SWAP1 DIV PUSH20 0xFFFFFFFFFFFFFFFFFFFFFFFFFFFFFFFFFFFFFFFF AND PUSH20 0xFFFFFFFFFFFFFFFFFFFFFFFFFFFFFFFFFFFFFFFF AND PUSH32 0xE0BBF1A07376101B84E5AFF236BC710878C9A975168510F821B4A735C0D35E51 PUSH1 0x40 MLOAD PUSH1 0x40 MLOAD DUP1 SWAP2 SUB SWAP1 LOG3 DUP1 PUSH1 0x3 PUSH1 0x0 PUSH2 0x100 EXP DUP2 SLOAD DUP2 PUSH20 0xFFFFFFFFFFFFFFFFFFFFFFFFFFFFFFFFFFFFFFFF MUL NOT AND SWAP1 DUP4 PUSH20 0xFFFFFFFFFFFFFFFFFFFFFFFFFFFFFFFFFFFFFFFF AND MUL OR SWAP1 SSTORE POP POP JUMP JUMPDEST PUSH2 0x47A PUSH2 0xE4D JUMP JUMPDEST PUSH20 0xFFFFFFFFFFFFFFFFFFFFFFFFFFFFFFFFFFFFFFFF AND PUSH1 0x0 DUP1 SLOAD SWAP1 PUSH2 0x100 EXP SWAP1 DIV PUSH20 0xFFFFFFFFFFFFFFFFFFFFFFFFFFFFFFFFFFFFFFFF AND PUSH20 0xFFFFFFFFFFFFFFFFFFFFFFFFFFFFFFFFFFFFFFFF AND EQ PUSH2 0x507 JUMPI PUSH1 0x40 MLOAD PUSH32 0x8C379A000000000000000000000000000000000000000000000000000000000 DUP2 MSTORE PUSH1 0x4 ADD PUSH2 0x4FE SWAP1 PUSH2 0x1F54 JUMP JUMPDEST PUSH1 0x40 MLOAD DUP1 SWAP2 SUB SWAP1 REVERT JUMPDEST PUSH3 0xF4240 DUP2 LT PUSH2 0x54C JUMPI PUSH1 0x40 MLOAD PUSH32 0x8C379A000000000000000000000000000000000000000000000000000000000 DUP2 MSTORE PUSH1 0x4 ADD PUSH2 0x543 SWAP1 PUSH2 0x1F94 JUMP JUMPDEST PUSH1 0x40 MLOAD DUP1 SWAP2 SUB SWAP1 REVERT JUMPDEST PUSH1 0x2 SLOAD DUP2 EQ ISZERO PUSH2 0x591 JUMPI PUSH1 0x40 MLOAD PUSH32 0x8C379A000000000000000000000000000000000000000000000000000000000 DUP2 MSTORE PUSH1 0x4 ADD PUSH2 0x588 SWAP1 PUSH2 0x1F14 JUMP JUMPDEST PUSH1 0x40 MLOAD DUP1 SWAP2 SUB SWAP1 REVERT JUMPDEST PUSH32 0x32DC6A2D839EB179729A55633FDF1C41A1FC4739394154117005DB2B354B9B5 PUSH1 0x2 SLOAD DUP3 PUSH1 0x40 MLOAD PUSH2 0x5C4 SWAP3 SWAP2 SWAP1 PUSH2 0x2038 JUMP JUMPDEST PUSH1 0x40 MLOAD DUP1 SWAP2 SUB SWAP1 LOG1 DUP1 PUSH1 0x2 DUP2 SWAP1 SSTORE POP POP JUMP JUMPDEST PUSH2 0x5DE PUSH2 0xE4D JUMP JUMPDEST PUSH20 0xFFFFFFFFFFFFFFFFFFFFFFFFFFFFFFFFFFFFFFFF AND PUSH1 0x0 DUP1 SLOAD SWAP1 PUSH2 0x100 EXP SWAP1 DIV PUSH20 0xFFFFFFFFFFFFFFFFFFFFFFFFFFFFFFFFFFFFFFFF AND PUSH20 0xFFFFFFFFFFFFFFFFFFFFFFFFFFFFFFFFFFFFFFFF AND EQ PUSH2 0x66B JUMPI PUSH1 0x40 MLOAD PUSH32 0x8C379A000000000000000000000000000000000000000000000000000000000 DUP2 MSTORE PUSH1 0x4 ADD PUSH2 0x662 SWAP1 PUSH2 0x1F54 JUMP JUMPDEST PUSH1 0x40 MLOAD DUP1 SWAP2 SUB SWAP1 REVERT JUMPDEST PUSH1 0x0 PUSH20 0xFFFFFFFFFFFFFFFFFFFFFFFFFFFFFFFFFFFFFFFF AND PUSH1 0x0 DUP1 SLOAD SWAP1 PUSH2 0x100 EXP SWAP1 DIV PUSH20 0xFFFFFFFFFFFFFFFFFFFFFFFFFFFFFFFFFFFFFFFF AND PUSH20 0xFFFFFFFFFFFFFFFFFFFFFFFFFFFFFFFFFFFFFFFF AND PUSH32 0x8BE0079C531659141344CD1FD0A4F28419497F9722A3DAAFE3B4186F6B6457E0 PUSH1 0x40 MLOAD PUSH1 0x40 MLOAD DUP1 SWAP2 SUB SWAP1 LOG3 PUSH1 0x0 DUP1 PUSH1 0x0 PUSH2 0x100 EXP DUP2 SLOAD DUP2 PUSH20 0xFFFFFFFFFFFFFFFFFFFFFFFFFFFFFFFFFFFFFFFF MUL NOT AND SWAP1 DUP4 PUSH20 0xFFFFFFFFFFFFFFFFFFFFFFFFFFFFFFFFFFFFFFFF AND MUL OR SWAP1 SSTORE POP JUMP JUMPDEST PUSH1 0x0 DUP1 PUSH1 0x0 SWAP1 SLOAD SWAP1 PUSH2 0x100 EXP SWAP1 DIV PUSH20 0xFFFFFFFFFFFFFFFFFFFFFFFFFFFFFFFFFFFFFFFF AND SWAP1 POP SWAP1 JUMP JUMPDEST PUSH1 0x0 DUP1 PUSH2 0x75D PUSH2 0xE4D JUMP JUMPDEST SWAP1 POP PUSH1 0x0 JUMPDEST DUP4 MLOAD DUP2 LT ISZERO PUSH2 0xA5A JUMPI PUSH1 0x0 DUP5 DUP3 DUP2 MLOAD DUP2 LT PUSH2 0x779 JUMPI INVALID JUMPDEST PUSH1 0x20 MUL PUSH1 0x20 ADD ADD MLOAD SWAP1 POP PUSH1 0x0 DUP2 PUSH1 0x0 ADD MLOAD SWAP1 POP PUSH1 0x0 DUP3 PUSH1 0x20 ADD MLOAD MLOAD SWAP1 POP DUP3 PUSH1 0x40 ADD MLOAD MLOAD DUP2 EQ PUSH2 0x7DD JUMPI PUSH1 0x40 MLOAD PUSH32 0x8C379A000000000000000000000000000000000000000000000000000000000 DUP2 MSTORE PUSH1 0x4 ADD PUSH2 0x7D4 SWAP1 PUSH2 0x1EF4 JUMP JUMPDEST PUSH1 0x40 MLOAD DUP1 SWAP2 SUB SWAP1 REVERT JUMPDEST PUSH1 0x0 JUMPDEST DUP2 DUP2 LT ISZERO PUSH2 0x9D4 JUMPI PUSH1 0x0 DUP5 PUSH1 0x20 ADD MLOAD DUP3 DUP2 MLOAD DUP2 LT PUSH2 0x7FA JUMPI INVALID JUMPDEST PUSH1 0x20 MUL PUSH1 0x20 ADD ADD MLOAD SWAP1 POP PUSH1 0x0 DUP6 PUSH1 0x40 ADD MLOAD DUP4 DUP2 MLOAD DUP2 LT PUSH2 0x816 JUMPI INVALID JUMPDEST PUSH1 0x20 MUL PUSH1 0x20 ADD ADD MLOAD SWAP1 POP PUSH1 0x0 DUP1 PUSH2 0x82D DUP8 DUP6 PUSH2 0xBDF JUMP JUMPDEST SWAP2 POP SWAP2 POP DUP2 DUP4 EQ PUSH2 0x873 JUMPI PUSH1 0x40 MLOAD PUSH32 0x8C379A000000000000000000000000000000000000000000000000000000000 DUP2 MSTORE PUSH1 0x4 ADD PUSH2 0x86A SWAP1 PUSH2 0x1E74 JUMP JUMPDEST PUSH1 0x40 MLOAD DUP1 SWAP2 SUB SWAP1 REVERT JUMPDEST PUSH1 0x0 DUP3 GT ISZERO PUSH2 0x9C3 JUMPI PUSH1 0x0 PUSH2 0x8A8 PUSH3 0xF4240 PUSH2 0x89A PUSH1 0x2 SLOAD DUP7 PUSH2 0xEFE SWAP1 SWAP2 SWAP1 PUSH4 0xFFFFFFFF AND JUMP JUMPDEST PUSH2 0xF6E SWAP1 SWAP2 SWAP1 PUSH4 0xFFFFFFFF AND JUMP JUMPDEST SWAP1 POP PUSH2 0x8BD DUP2 DUP14 PUSH2 0xFC4 SWAP1 SWAP2 SWAP1 PUSH4 0xFFFFFFFF AND JUMP JUMPDEST SWAP12 POP PUSH1 0x1 PUSH1 0x0 SWAP1 SLOAD SWAP1 PUSH2 0x100 EXP SWAP1 DIV PUSH20 0xFFFFFFFFFFFFFFFFFFFFFFFFFFFFFFFFFFFFFFFF AND PUSH20 0xFFFFFFFFFFFFFFFFFFFFFFFFFFFFFFFFFFFFFFFF AND PUSH4 0x23B872DD DUP13 DUP5 PUSH2 0x912 DUP6 DUP9 PUSH2 0x1019 SWAP1 SWAP2 SWAP1 PUSH4 0xFFFFFFFF AND JUMP JUMPDEST PUSH1 0x40 MLOAD DUP5 PUSH4 0xFFFFFFFF AND PUSH1 0xE0 SHL DUP2 MSTORE PUSH1 0x4 ADD PUSH2 0x930 SWAP4 SWAP3 SWAP2 SWAP1 PUSH2 0x1D89 JUMP JUMPDEST PUSH1 0x20 PUSH1 0x40 MLOAD DUP1 DUP4 SUB DUP2 PUSH1 0x0 DUP8 DUP1 EXTCODESIZE ISZERO DUP1 ISZERO PUSH2 0x94A JUMPI PUSH1 0x0 DUP1 REVERT JUMPDEST POP GAS CALL ISZERO DUP1 ISZERO PUSH2 0x95E JUMPI RETURNDATASIZE PUSH1 0x0 DUP1 RETURNDATACOPY RETURNDATASIZE PUSH1 0x0 REVERT JUMPDEST POP POP POP POP PUSH1 0x40 MLOAD RETURNDATASIZE PUSH1 0x1F NOT PUSH1 0x1F DUP3 ADD AND DUP3 ADD DUP1 PUSH1 0x40 MSTORE POP DUP2 ADD SWAP1 PUSH2 0x982 SWAP2 SWAP1 PUSH2 0x1428 JUMP JUMPDEST PUSH2 0x9C1 JUMPI PUSH1 0x40 MLOAD PUSH32 0x8C379A000000000000000000000000000000000000000000000000000000000 DUP2 MSTORE PUSH1 0x4 ADD PUSH2 0x9B8 SWAP1 PUSH2 0x1ED4 JUMP JUMPDEST PUSH1 0x40 MLOAD DUP1 SWAP2 SUB SWAP1 REVERT JUMPDEST POP JUMPDEST POP POP POP POP DUP1 DUP1 PUSH1 0x1 ADD SWAP2 POP POP PUSH2 0x7E0 JUMP JUMPDEST POP DUP2 PUSH20 0xFFFFFFFFFFFFFFFFFFFFFFFFFFFFFFFFFFFFFFFF AND PUSH4 0x7C8F76A1 DUP5 PUSH1 0x60 ADD MLOAD DUP6 PUSH1 0x20 ADD MLOAD PUSH1 0x40 MLOAD DUP4 PUSH4 0xFFFFFFFF AND PUSH1 0xE0 SHL DUP2 MSTORE PUSH1 0x4 ADD PUSH2 0xA18 SWAP3 SWAP2 SWAP1 PUSH2 0x1DC0 JUMP JUMPDEST PUSH1 0x0 PUSH1 0x40 MLOAD DUP1 DUP4 SUB DUP2 PUSH1 0x0 DUP8 DUP1 EXTCODESIZE ISZERO DUP1 ISZERO PUSH2 0xA32 JUMPI PUSH1 0x0 DUP1 REVERT JUMPDEST POP GAS CALL ISZERO DUP1 ISZERO PUSH2 0xA46 JUMPI RETURNDATASIZE PUSH1 0x0 DUP1 RETURNDATACOPY RETURNDATASIZE PUSH1 0x0 REVERT JUMPDEST POP POP POP POP POP POP POP DUP1 DUP1 PUSH1 0x1 ADD SWAP2 POP POP PUSH2 0x762 JUMP JUMPDEST POP PUSH1 0x0 DUP3 GT ISZERO PUSH2 0xB77 JUMPI PUSH1 0x1 PUSH1 0x0 SWAP1 SLOAD SWAP1 PUSH2 0x100 EXP SWAP1 DIV PUSH20 0xFFFFFFFFFFFFFFFFFFFFFFFFFFFFFFFFFFFFFFFF AND PUSH20 0xFFFFFFFFFFFFFFFFFFFFFFFFFFFFFFFFFFFFFFFF AND PUSH4 0x23B872DD DUP3 PUSH1 0x3 PUSH1 0x0 SWAP1 SLOAD SWAP1 PUSH2 0x100 EXP SWAP1 DIV PUSH20 0xFFFFFFFFFFFFFFFFFFFFFFFFFFFFFFFFFFFFFFFF AND DUP6 PUSH1 0x40 MLOAD DUP5 PUSH4 0xFFFFFFFF AND PUSH1 0xE0 SHL DUP2 MSTORE PUSH1 0x4 ADD PUSH2 0xAE5 SWAP4 SWAP3 SWAP2 SWAP1 PUSH2 0x1D89 JUMP JUMPDEST PUSH1 0x20 PUSH1 0x40 MLOAD DUP1 DUP4 SUB DUP2 PUSH1 0x0 DUP8 DUP1 EXTCODESIZE ISZERO DUP1 ISZERO PUSH2 0xAFF JUMPI PUSH1 0x0 DUP1 REVERT JUMPDEST POP GAS CALL ISZERO DUP1 ISZERO PUSH2 0xB13 JUMPI RETURNDATASIZE PUSH1 0x0 DUP1 RETURNDATACOPY RETURNDATASIZE PUSH1 0x0 REVERT JUMPDEST POP POP POP POP PUSH1 0x40 MLOAD RETURNDATASIZE PUSH1 0x1F NOT PUSH1 0x1F DUP3 ADD AND DUP3 ADD DUP1 PUSH1 0x40 MSTORE POP DUP2 ADD SWAP1 PUSH2 0xB37 SWAP2 SWAP1 PUSH2 0x1428 JUMP JUMPDEST PUSH2 0xB76 JUMPI PUSH1 0x40 MLOAD PUSH32 0x8C379A000000000000000000000000000000000000000000000000000000000 DUP2 MSTORE PUSH1 0x4 ADD PUSH2 0xB6D SWAP1 PUSH2 0x1F74 JUMP JUMPDEST PUSH1 0x40 MLOAD DUP1 SWAP2 SUB SWAP1 REVERT JUMPDEST JUMPDEST PUSH32 0x77CC75F8061AA168906862622E88C5B05A026A9C06C02D91EC98543E01E7AD33 DUP4 PUSH1 0x40 MLOAD PUSH2 0xBA6 SWAP2 SWAP1 PUSH2 0x1DF7 JUMP JUMPDEST PUSH1 0x40 MLOAD DUP1 SWAP2 SUB SWAP1 LOG1 POP POP POP JUMP JUMPDEST PUSH1 0x3 PUSH1 0x0 SWAP1 SLOAD SWAP1 PUSH2 0x100 EXP SWAP1 DIV PUSH20 0xFFFFFFFFFFFFFFFFFFFFFFFFFFFFFFFFFFFFFFFF AND DUP2 JUMP JUMPDEST PUSH1 0x2 SLOAD DUP2 JUMP JUMPDEST PUSH1 0x0 DUP1 PUSH1 0x0 DUP1 DUP6 PUSH20 0xFFFFFFFFFFFFFFFFFFFFFFFFFFFFFFFFFFFFFFFF AND PUSH4 0xBFB231D2 DUP7 PUSH1 0x40 MLOAD DUP3 PUSH4 0xFFFFFFFF AND PUSH1 0xE0 SHL DUP2 MSTORE PUSH1 0x4 ADD PUSH2 0xC1E SWAP2 SWAP1 PUSH2 0x1FF4 JUMP JUMPDEST PUSH1 0x0 PUSH1 0x40 MLOAD DUP1 DUP4 SUB DUP2 DUP7 DUP1 EXTCODESIZE ISZERO DUP1 ISZERO PUSH2 0xC36 JUMPI PUSH1 0x0 DUP1 REVERT JUMPDEST POP GAS STATICCALL ISZERO DUP1 ISZERO PUSH2 0xC4A JUMPI RETURNDATASIZE PUSH1 0x0 DUP1 RETURNDATACOPY RETURNDATASIZE PUSH1 0x0 REVERT JUMPDEST POP POP POP POP PUSH1 0x40 MLOAD RETURNDATASIZE PUSH1 0x0 DUP3 RETURNDATACOPY RETURNDATASIZE PUSH1 0x1F NOT PUSH1 0x1F DUP3 ADD AND DUP3 ADD DUP1 PUSH1 0x40 MSTORE POP DUP2 ADD SWAP1 PUSH2 0xC73 SWAP2 SWAP1 PUSH2 0x148D JUMP JUMPDEST POP POP SWAP5 POP SWAP5 POP POP POP POP DUP2 DUP2 SWAP4 POP SWAP4 POP POP POP SWAP3 POP SWAP3 SWAP1 POP JUMP JUMPDEST PUSH2 0xC93 PUSH2 0xE4D JUMP JUMPDEST PUSH20 0xFFFFFFFFFFFFFFFFFFFFFFFFFFFFFFFFFFFFFFFF AND PUSH1 0x0 DUP1 SLOAD SWAP1 PUSH2 0x100 EXP SWAP1 DIV PUSH20 0xFFFFFFFFFFFFFFFFFFFFFFFFFFFFFFFFFFFFFFFF AND PUSH20 0xFFFFFFFFFFFFFFFFFFFFFFFFFFFFFFFFFFFFFFFF AND EQ PUSH2 0xD20 JUMPI PUSH1 0x40 MLOAD PUSH32 0x8C379A000000000000000000000000000000000000000000000000000000000 DUP2 MSTORE PUSH1 0x4 ADD PUSH2 0xD17 SWAP1 PUSH2 0x1F54 JUMP JUMPDEST PUSH1 0x40 MLOAD DUP1 SWAP2 SUB SWAP1 REVERT JUMPDEST PUSH1 0x0 PUSH20 0xFFFFFFFFFFFFFFFFFFFFFFFFFFFFFFFFFFFFFFFF AND DUP2 PUSH20 0xFFFFFFFFFFFFFFFFFFFFFFFFFFFFFFFFFFFFFFFF AND EQ ISZERO PUSH2 0xD90 JUMPI PUSH1 0x40 MLOAD PUSH32 0x8C379A000000000000000000000000000000000000000000000000000000000 DUP2 MSTORE PUSH1 0x4 ADD PUSH2 0xD87 SWAP1 PUSH2 0x1E34 JUMP JUMPDEST PUSH1 0x40 MLOAD DUP1 SWAP2 SUB SWAP1 REVERT JUMPDEST DUP1 PUSH20 0xFFFFFFFFFFFFFFFFFFFFFFFFFFFFFFFFFFFFFFFF AND PUSH1 0x0 DUP1 SLOAD SWAP1 PUSH2 0x100 EXP SWAP1 DIV PUSH20 0xFFFFFFFFFFFFFFFFFFFFFFFFFFFFFFFFFFFFFFFF AND PUSH20 0xFFFFFFFFFFFFFFFFFFFFFFFFFFFFFFFFFFFFFFFF AND PUSH32 0x8BE0079C531659141344CD1FD0A4F28419497F9722A3DAAFE3B4186F6B6457E0 PUSH1 0x40 MLOAD PUSH1 0x40 MLOAD DUP1 SWAP2 SUB SWAP1 LOG3 DUP1 PUSH1 0x0 DUP1 PUSH2 0x100 EXP DUP2 SLOAD DUP2 PUSH20 0xFFFFFFFFFFFFFFFFFFFFFFFFFFFFFFFFFFFFFFFF MUL NOT AND SWAP1 DUP4 PUSH20 0xFFFFFFFFFFFFFFFFFFFFFFFFFFFFFFFFFFFFFFFF AND MUL OR SWAP1 SSTORE POP POP JUMP JUMPDEST PUSH1 0x0 ADDRESS PUSH20 0xFFFFFFFFFFFFFFFFFFFFFFFFFFFFFFFFFFFFFFFF AND CALLER PUSH20 0xFFFFFFFFFFFFFFFFFFFFFFFFFFFFFFFFFFFFFFFF AND EQ ISZERO PUSH2 0xEF7 JUMPI PUSH1 0x0 DUP1 CALLDATASIZE DUP1 DUP1 PUSH1 0x1F ADD PUSH1 0x20 DUP1 SWAP2 DIV MUL PUSH1 0x20 ADD PUSH1 0x40 MLOAD SWAP1 DUP2 ADD PUSH1 0x40 MSTORE DUP1 SWAP4 SWAP3 SWAP2 SWAP1 DUP2 DUP2 MSTORE PUSH1 0x20 ADD DUP4 DUP4 DUP1 DUP3 DUP5 CALLDATACOPY PUSH1 0x0 DUP2 DUP5 ADD MSTORE PUSH1 0x1F NOT PUSH1 0x1F DUP3 ADD AND SWAP1 POP DUP1 DUP4 ADD SWAP3 POP POP POP POP POP POP POP SWAP1 POP PUSH1 0x0 DUP1 CALLDATASIZE SWAP1 POP SWAP1 POP PUSH20 0xFFFFFFFFFFFFFFFFFFFFFFFFFFFFFFFFFFFFFFFF DUP2 DUP4 ADD MLOAD AND SWAP3 POP POP POP PUSH2 0xEFB JUMP JUMPDEST CALLER SWAP1 POP JUMPDEST SWAP1 JUMP JUMPDEST PUSH1 0x0 DUP1 DUP4 EQ ISZERO PUSH2 0xF11 JUMPI PUSH1 0x0 SWAP1 POP PUSH2 0xF68 JUMP JUMPDEST PUSH1 0x0 DUP3 DUP5 MUL SWAP1 POP DUP3 DUP5 DUP3 DUP2 PUSH2 0xF22 JUMPI INVALID JUMPDEST DIV EQ PUSH2 0xF63 JUMPI PUSH1 0x40 MLOAD PUSH32 0x8C379A000000000000000000000000000000000000000000000000000000000 DUP2 MSTORE PUSH1 0x4 ADD PUSH2 0xF5A SWAP1 PUSH2 0x1F34 JUMP JUMPDEST PUSH1 0x40 MLOAD DUP1 SWAP2 SUB SWAP1 REVERT JUMPDEST DUP1 SWAP2 POP POP JUMPDEST SWAP3 SWAP2 POP POP JUMP JUMPDEST PUSH1 0x0 DUP1 DUP3 GT PUSH2 0xFB2 JUMPI PUSH1 0x40 MLOAD PUSH32 0x8C379A000000000000000000000000000000000000000000000000000000000 DUP2 MSTORE PUSH1 0x4 ADD PUSH2 0xFA9 SWAP1 PUSH2 0x1EB4 JUMP JUMPDEST PUSH1 0x40 MLOAD DUP1 SWAP2 SUB SWAP1 REVERT JUMPDEST DUP2 DUP4 DUP2 PUSH2 0xFBB JUMPI INVALID JUMPDEST DIV SWAP1 POP SWAP3 SWAP2 POP POP JUMP JUMPDEST PUSH1 0x0 DUP1 DUP3 DUP5 ADD SWAP1 POP DUP4 DUP2 LT ISZERO PUSH2 0x100F JUMPI PUSH1 0x40 MLOAD PUSH32 0x8C379A000000000000000000000000000000000000000000000000000000000 DUP2 MSTORE PUSH1 0x4 ADD PUSH2 0x1006 SWAP1 PUSH2 0x1E54 JUMP JUMPDEST PUSH1 0x40 MLOAD DUP1 SWAP2 SUB SWAP1 REVERT JUMPDEST DUP1 SWAP2 POP POP SWAP3 SWAP2 POP POP JUMP JUMPDEST PUSH1 0x0 DUP3 DUP3 GT ISZERO PUSH2 0x105E JUMPI PUSH1 0x40 MLOAD PUSH32 0x8C379A000000000000000000000000000000000000000000000000000000000 DUP2 MSTORE PUSH1 0x4 ADD PUSH2 0x1055 SWAP1 PUSH2 0x1E94 JUMP JUMPDEST PUSH1 0x40 MLOAD DUP1 SWAP2 SUB SWAP1 REVERT JUMPDEST DUP2 DUP4 SUB SWAP1 POP SWAP3 SWAP2 POP POP JUMP JUMPDEST PUSH1 0x0 PUSH2 0x107C PUSH2 0x1077 DUP5 PUSH2 0x2092 JUMP JUMPDEST PUSH2 0x2061 JUMP JUMPDEST SWAP1 POP DUP1 DUP4 DUP3 MSTORE PUSH1 0x20 DUP3 ADD SWAP1 POP DUP3 DUP6 PUSH1 0x20 DUP7 MUL DUP3 ADD GT ISZERO PUSH2 0x109B JUMPI PUSH1 0x0 DUP1 REVERT JUMPDEST PUSH1 0x0 JUMPDEST DUP6 DUP2 LT ISZERO PUSH2 0x10CB JUMPI DUP2 PUSH2 0x10B1 DUP9 DUP3 PUSH2 0x11DC JUMP JUMPDEST DUP5 MSTORE PUSH1 0x20 DUP5 ADD SWAP4 POP PUSH1 0x20 DUP4 ADD SWAP3 POP POP PUSH1 0x1 DUP2 ADD SWAP1 POP PUSH2 0x109E JUMP JUMPDEST POP POP POP SWAP4 SWAP3 POP POP POP JUMP JUMPDEST PUSH1 0x0 PUSH2 0x10E8 PUSH2 0x10E3 DUP5 PUSH2 0x20BE JUMP JUMPDEST PUSH2 0x2061 JUMP JUMPDEST SWAP1 POP DUP1 DUP4 DUP3 MSTORE PUSH1 0x20 DUP3 ADD SWAP1 POP DUP3 PUSH1 0x0 JUMPDEST DUP6 DUP2 LT ISZERO PUSH2 0x1128 JUMPI DUP2 CALLDATALOAD DUP6 ADD PUSH2 0x110E DUP9 DUP3 PUSH2 0x12D8 JUMP JUMPDEST DUP5 MSTORE PUSH1 0x20 DUP5 ADD SWAP4 POP PUSH1 0x20 DUP4 ADD SWAP3 POP POP PUSH1 0x1 DUP2 ADD SWAP1 POP PUSH2 0x10F8 JUMP JUMPDEST POP POP POP SWAP4 SWAP3 POP POP POP JUMP JUMPDEST PUSH1 0x0 PUSH2 0x1145 PUSH2 0x1140 DUP5 PUSH2 0x20EA JUMP JUMPDEST PUSH2 0x2061 JUMP JUMPDEST SWAP1 POP DUP1 DUP4 DUP3 MSTORE PUSH1 0x20 DUP3 ADD SWAP1 POP DUP3 DUP6 PUSH1 0x20 DUP7 MUL DUP3 ADD GT ISZERO PUSH2 0x1164 JUMPI PUSH1 0x0 DUP1 REVERT JUMPDEST PUSH1 0x0 JUMPDEST DUP6 DUP2 LT ISZERO PUSH2 0x1194 JUMPI DUP2 PUSH2 0x117A DUP9 DUP3 PUSH2 0x1394 JUMP JUMPDEST DUP5 MSTORE PUSH1 0x20 DUP5 ADD SWAP4 POP PUSH1 0x20 DUP4 ADD SWAP3 POP POP PUSH1 0x1 DUP2 ADD SWAP1 POP PUSH2 0x1167 JUMP JUMPDEST POP POP POP SWAP4 SWAP3 POP POP POP JUMP JUMPDEST PUSH1 0x0 PUSH2 0x11B1 PUSH2 0x11AC DUP5 PUSH2 0x2116 JUMP JUMPDEST PUSH2 0x2061 JUMP JUMPDEST SWAP1 POP DUP3 DUP2 MSTORE PUSH1 0x20 DUP2 ADD DUP5 DUP5 DUP5 ADD GT ISZERO PUSH2 0x11C9 JUMPI PUSH1 0x0 DUP1 REVERT JUMPDEST PUSH2 0x11D4 DUP5 DUP3 DUP6 PUSH2 0x22C6 JUMP JUMPDEST POP SWAP4 SWAP3 POP POP POP JUMP JUMPDEST PUSH1 0x0 DUP2 CALLDATALOAD SWAP1 POP PUSH2 0x11EB DUP2 PUSH2 0x22FB JUMP JUMPDEST SWAP3 SWAP2 POP POP JUMP JUMPDEST PUSH1 0x0 DUP2 MLOAD SWAP1 POP PUSH2 0x1200 DUP2 PUSH2 0x22FB JUMP JUMPDEST SWAP3 SWAP2 POP POP JUMP JUMPDEST PUSH1 0x0 DUP3 PUSH1 0x1F DUP4 ADD SLT PUSH2 0x1217 JUMPI PUSH1 0x0 DUP1 REVERT JUMPDEST DUP2 CALLDATALOAD PUSH2 0x1227 DUP5 DUP3 PUSH1 0x20 DUP7 ADD PUSH2 0x1069 JUMP JUMPDEST SWAP2 POP POP SWAP3 SWAP2 POP POP JUMP JUMPDEST PUSH1 0x0 DUP3 PUSH1 0x1F DUP4 ADD SLT PUSH2 0x1241 JUMPI PUSH1 0x0 DUP1 REVERT JUMPDEST DUP2 CALLDATALOAD PUSH2 0x1251 DUP5 DUP3 PUSH1 0x20 DUP7 ADD PUSH2 0x10D5 JUMP JUMPDEST SWAP2 POP POP SWAP3 SWAP2 POP POP JUMP JUMPDEST PUSH1 0x0 DUP3 PUSH1 0x1F DUP4 ADD SLT PUSH2 0x126B JUMPI PUSH1 0x0 DUP1 REVERT JUMPDEST DUP2 CALLDATALOAD PUSH2 0x127B DUP5 DUP3 PUSH1 0x20 DUP7 ADD PUSH2 0x1132 JUMP JUMPDEST SWAP2 POP POP SWAP3 SWAP2 POP POP JUMP JUMPDEST PUSH1 0x0 DUP2 MLOAD SWAP1 POP PUSH2 0x1293 DUP2 PUSH2 0x2312 JUMP JUMPDEST SWAP3 SWAP2 POP POP JUMP JUMPDEST PUSH1 0x0 DUP2 CALLDATALOAD SWAP1 POP PUSH2 0x12A8 DUP2 PUSH2 0x2329 JUMP JUMPDEST SWAP3 SWAP2 POP POP JUMP JUMPDEST PUSH1 0x0 DUP3 PUSH1 0x1F DUP4 ADD SLT PUSH2 0x12BF JUMPI PUSH1 0x0 DUP1 REVERT JUMPDEST DUP2 MLOAD PUSH2 0x12CF DUP5 DUP3 PUSH1 0x20 DUP7 ADD PUSH2 0x119E JUMP JUMPDEST SWAP2 POP POP SWAP3 SWAP2 POP POP JUMP JUMPDEST PUSH1 0x0 PUSH1 0x80 DUP3 DUP5 SUB SLT ISZERO PUSH2 0x12EA JUMPI PUSH1 0x0 DUP1 REVERT JUMPDEST PUSH2 0x12F4 PUSH1 0x80 PUSH2 0x2061 JUMP JUMPDEST SWAP1 POP PUSH1 0x0 PUSH2 0x1304 DUP5 DUP3 DUP6 ADD PUSH2 0x1299 JUMP JUMPDEST PUSH1 0x0 DUP4 ADD MSTORE POP PUSH1 0x20 DUP3 ADD CALLDATALOAD PUSH8 0xFFFFFFFFFFFFFFFF DUP2 GT ISZERO PUSH2 0x1324 JUMPI PUSH1 0x0 DUP1 REVERT JUMPDEST PUSH2 0x1330 DUP5 DUP3 DUP6 ADD PUSH2 0x125A JUMP JUMPDEST PUSH1 0x20 DUP4 ADD MSTORE POP PUSH1 0x40 DUP3 ADD CALLDATALOAD PUSH8 0xFFFFFFFFFFFFFFFF DUP2 GT ISZERO PUSH2 0x1350 JUMPI PUSH1 0x0 DUP1 REVERT JUMPDEST PUSH2 0x135C DUP5 DUP3 DUP6 ADD PUSH2 0x125A JUMP JUMPDEST PUSH1 0x40 DUP4 ADD MSTORE POP PUSH1 0x60 DUP3 ADD CALLDATALOAD PUSH8 0xFFFFFFFFFFFFFFFF DUP2 GT ISZERO PUSH2 0x137C JUMPI PUSH1 0x0 DUP1 REVERT JUMPDEST PUSH2 0x1388 DUP5 DUP3 DUP6 ADD PUSH2 0x1206 JUMP JUMPDEST PUSH1 0x60 DUP4 ADD MSTORE POP SWAP3 SWAP2 POP POP JUMP JUMPDEST PUSH1 0x0 DUP2 CALLDATALOAD SWAP1 POP PUSH2 0x13A3 DUP2 PUSH2 0x2340 JUMP JUMPDEST SWAP3 SWAP2 POP POP JUMP JUMPDEST PUSH1 0x0 DUP2 MLOAD SWAP1 POP PUSH2 0x13B8 DUP2 PUSH2 0x2340 JUMP JUMPDEST SWAP3 SWAP2 POP POP JUMP JUMPDEST PUSH1 0x0 PUSH1 0x20 DUP3 DUP5 SUB SLT ISZERO PUSH2 0x13D0 JUMPI PUSH1 0x0 DUP1 REVERT JUMPDEST PUSH1 0x0 PUSH2 0x13DE DUP5 DUP3 DUP6 ADD PUSH2 0x11DC JUMP JUMPDEST SWAP2 POP POP SWAP3 SWAP2 POP POP JUMP JUMPDEST PUSH1 0x0 PUSH1 0x20 DUP3 DUP5 SUB SLT ISZERO PUSH2 0x13F9 JUMPI PUSH1 0x0 DUP1 REVERT JUMPDEST PUSH1 0x0 DUP3 ADD CALLDATALOAD PUSH8 0xFFFFFFFFFFFFFFFF DUP2 GT ISZERO PUSH2 0x1413 JUMPI PUSH1 0x0 DUP1 REVERT JUMPDEST PUSH2 0x141F DUP5 DUP3 DUP6 ADD PUSH2 0x1230 JUMP JUMPDEST SWAP2 POP POP SWAP3 SWAP2 POP POP JUMP JUMPDEST PUSH1 0x0 PUSH1 0x20 DUP3 DUP5 SUB SLT ISZERO PUSH2 0x143A JUMPI PUSH1 0x0 DUP1 REVERT JUMPDEST PUSH1 0x0 PUSH2 0x1448 DUP5 DUP3 DUP6 ADD PUSH2 0x1284 JUMP JUMPDEST SWAP2 POP POP SWAP3 SWAP2 POP POP JUMP JUMPDEST PUSH1 0x0 DUP1 PUSH1 0x40 DUP4 DUP6 SUB SLT ISZERO PUSH2 0x1464 JUMPI PUSH1 0x0 DUP1 REVERT JUMPDEST PUSH1 0x0 PUSH2 0x1472 DUP6 DUP3 DUP7 ADD PUSH2 0x1299 JUMP JUMPDEST SWAP3 POP POP PUSH1 0x20 PUSH2 0x1483 DUP6 DUP3 DUP7 ADD PUSH2 0x1394 JUMP JUMPDEST SWAP2 POP POP SWAP3 POP SWAP3 SWAP1 POP JUMP JUMPDEST PUSH1 0x0 DUP1 PUSH1 0x0 DUP1 PUSH1 0x0 DUP1 PUSH1 0x0 PUSH1 0xE0 DUP9 DUP11 SUB SLT ISZERO PUSH2 0x14A8 JUMPI PUSH1 0x0 DUP1 REVERT JUMPDEST PUSH1 0x0 DUP9 ADD MLOAD PUSH8 0xFFFFFFFFFFFFFFFF DUP2 GT ISZERO PUSH2 0x14C2 JUMPI PUSH1 0x0 DUP1 REVERT JUMPDEST PUSH2 0x14CE DUP11 DUP3 DUP12 ADD PUSH2 0x12AE JUMP JUMPDEST SWAP8 POP POP PUSH1 0x20 PUSH2 0x14DF DUP11 DUP3 DUP12 ADD PUSH2 0x13A9 JUMP JUMPDEST SWAP7 POP POP PUSH1 0x40 PUSH2 0x14F0 DUP11 DUP3 DUP12 ADD PUSH2 0x13A9 JUMP JUMPDEST SWAP6 POP POP PUSH1 0x60 PUSH2 0x1501 DUP11 DUP3 DUP12 ADD PUSH2 0x13A9 JUMP JUMPDEST SWAP5 POP POP PUSH1 0x80 PUSH2 0x1512 DUP11 DUP3 DUP12 ADD PUSH2 0x11F1 JUMP JUMPDEST SWAP4 POP POP PUSH1 0xA0 DUP9 ADD MLOAD PUSH8 0xFFFFFFFFFFFFFFFF DUP2 GT ISZERO PUSH2 0x152F JUMPI PUSH1 0x0 DUP1 REVERT JUMPDEST PUSH2 0x153B DUP11 DUP3 DUP12 ADD PUSH2 0x12AE JUMP JUMPDEST SWAP3 POP POP PUSH1 0xC0 DUP9 ADD MLOAD PUSH8 0xFFFFFFFFFFFFFFFF DUP2 GT ISZERO PUSH2 0x1558 JUMPI PUSH1 0x0 DUP1 REVERT JUMPDEST PUSH2 0x1564 DUP11 DUP3 DUP12 ADD PUSH2 0x12AE JUMP JUMPDEST SWAP2 POP POP SWAP3 SWAP6 SWAP9 SWAP2 SWAP5 SWAP8 POP SWAP3 SWAP6 POP JUMP JUMPDEST PUSH1 0x0 PUSH1 0x20 DUP3 DUP5 SUB SLT ISZERO PUSH2 0x1585 JUMPI PUSH1 0x0 DUP1 REVERT JUMPDEST PUSH1 0x0 PUSH2 0x1593 DUP5 DUP3 DUP6 ADD PUSH2 0x1394 JUMP JUMPDEST SWAP2 POP POP SWAP3 SWAP2 POP POP JUMP JUMPDEST PUSH1 0x0 PUSH2 0x15A8 DUP4 DUP4 PUSH2 0x15E0 JUMP JUMPDEST PUSH1 0x20 DUP4 ADD SWAP1 POP SWAP3 SWAP2 POP POP JUMP JUMPDEST PUSH1 0x0 PUSH2 0x15C0 DUP4 DUP4 PUSH2 0x1CDF JUMP JUMPDEST SWAP1 POP SWAP3 SWAP2 POP POP JUMP JUMPDEST PUSH1 0x0 PUSH2 0x15D4 DUP4 DUP4 PUSH2 0x1D50 JUMP JUMPDEST PUSH1 0x20 DUP4 ADD SWAP1 POP SWAP3 SWAP2 POP POP JUMP JUMPDEST PUSH2 0x15E9 DUP2 PUSH2 0x2224 JUMP JUMPDEST DUP3 MSTORE POP POP JUMP JUMPDEST PUSH2 0x15F8 DUP2 PUSH2 0x2224 JUMP JUMPDEST DUP3 MSTORE POP POP JUMP JUMPDEST PUSH1 0x0 PUSH2 0x1609 DUP3 PUSH2 0x2176 JUMP JUMPDEST PUSH2 0x1613 DUP2 DUP6 PUSH2 0x21BE JUMP JUMPDEST SWAP4 POP PUSH2 0x161E DUP4 PUSH2 0x2146 JUMP JUMPDEST DUP1 PUSH1 0x0 JUMPDEST DUP4 DUP2 LT ISZERO PUSH2 0x164F JUMPI DUP2 MLOAD PUSH2 0x1636 DUP9 DUP3 PUSH2 0x159C JUMP JUMPDEST SWAP8 POP PUSH2 0x1641 DUP4 PUSH2 0x2197 JUMP JUMPDEST SWAP3 POP POP PUSH1 0x1 DUP2 ADD SWAP1 POP PUSH2 0x1622 JUMP JUMPDEST POP DUP6 SWAP4 POP POP POP POP SWAP3 SWAP2 POP POP JUMP JUMPDEST PUSH1 0x0 PUSH2 0x1667 DUP3 PUSH2 0x2176 JUMP JUMPDEST PUSH2 0x1671 DUP2 DUP6 PUSH2 0x21CF JUMP JUMPDEST SWAP4 POP PUSH2 0x167C DUP4 PUSH2 0x2146 JUMP JUMPDEST DUP1 PUSH1 0x0 JUMPDEST DUP4 DUP2 LT ISZERO PUSH2 0x16AD JUMPI DUP2 MLOAD PUSH2 0x1694 DUP9 DUP3 PUSH2 0x159C JUMP JUMPDEST SWAP8 POP PUSH2 0x169F DUP4 PUSH2 0x2197 JUMP JUMPDEST SWAP3 POP POP PUSH1 0x1 DUP2 ADD SWAP1 POP PUSH2 0x1680 JUMP JUMPDEST POP DUP6 SWAP4 POP POP POP POP SWAP3 SWAP2 POP POP JUMP JUMPDEST PUSH1 0x0 PUSH2 0x16C5 DUP3 PUSH2 0x2181 JUMP JUMPDEST PUSH2 0x16CF DUP2 DUP6 PUSH2 0x21E0 JUMP JUMPDEST SWAP4 POP DUP4 PUSH1 0x20 DUP3 MUL DUP6 ADD PUSH2 0x16E1 DUP6 PUSH2 0x2156 JUMP JUMPDEST DUP1 PUSH1 0x0 JUMPDEST DUP6 DUP2 LT ISZERO PUSH2 0x171D JUMPI DUP5 DUP5 SUB DUP10 MSTORE DUP2 MLOAD PUSH2 0x16FE DUP6 DUP3 PUSH2 0x15B4 JUMP JUMPDEST SWAP5 POP PUSH2 0x1709 DUP4 PUSH2 0x21A4 JUMP JUMPDEST SWAP3 POP PUSH1 0x20 DUP11 ADD SWAP10 POP POP PUSH1 0x1 DUP2 ADD SWAP1 POP PUSH2 0x16E5 JUMP JUMPDEST POP DUP3 SWAP8 POP DUP8 SWAP6 POP POP POP POP POP POP SWAP3 SWAP2 POP POP JUMP JUMPDEST PUSH1 0x0 PUSH2 0x173A DUP3 PUSH2 0x218C JUMP JUMPDEST PUSH2 0x1744 DUP2 DUP6 PUSH2 0x21F1 JUMP JUMPDEST SWAP4 POP PUSH2 0x174F DUP4 PUSH2 0x2166 JUMP JUMPDEST DUP1 PUSH1 0x0 JUMPDEST DUP4 DUP2 LT ISZERO PUSH2 0x1780 JUMPI DUP2 MLOAD PUSH2 0x1767 DUP9 DUP3 PUSH2 0x15C8 JUMP JUMPDEST SWAP8 POP PUSH2 0x1772 DUP4 PUSH2 0x21B1 JUMP JUMPDEST SWAP3 POP POP PUSH1 0x1 DUP2 ADD SWAP1 POP PUSH2 0x1753 JUMP JUMPDEST POP DUP6 SWAP4 POP POP POP POP SWAP3 SWAP2 POP POP JUMP JUMPDEST PUSH1 0x0 PUSH2 0x1798 DUP3 PUSH2 0x218C JUMP JUMPDEST PUSH2 0x17A2 DUP2 DUP6 PUSH2 0x2202 JUMP JUMPDEST SWAP4 POP PUSH2 0x17AD DUP4 PUSH2 0x2166 JUMP JUMPDEST DUP1 PUSH1 0x0 JUMPDEST DUP4 DUP2 LT ISZERO PUSH2 0x17DE JUMPI DUP2 MLOAD PUSH2 0x17C5 DUP9 DUP3 PUSH2 0x15C8 JUMP JUMPDEST SWAP8 POP PUSH2 0x17D0 DUP4 PUSH2 0x21B1 JUMP JUMPDEST SWAP3 POP POP PUSH1 0x1 DUP2 ADD SWAP1 POP PUSH2 0x17B1 JUMP JUMPDEST POP DUP6 SWAP4 POP POP POP POP SWAP3 SWAP2 POP POP JUMP JUMPDEST PUSH2 0x17F4 DUP2 PUSH2 0x227E JUMP JUMPDEST DUP3 MSTORE POP POP JUMP JUMPDEST PUSH2 0x1803 DUP2 PUSH2 0x22A2 JUMP JUMPDEST DUP3 MSTORE POP POP JUMP JUMPDEST PUSH1 0x0 PUSH2 0x1816 PUSH1 0x26 DUP4 PUSH2 0x2213 JUMP JUMPDEST SWAP2 POP PUSH32 0x4F776E61626C653A206E6577206F776E657220697320746865207A65726F2061 PUSH1 0x0 DUP4 ADD MSTORE PUSH32 0x6464726573730000000000000000000000000000000000000000000000000000 PUSH1 0x20 DUP4 ADD MSTORE PUSH1 0x40 DUP3 ADD SWAP1 POP SWAP2 SWAP1 POP JUMP JUMPDEST PUSH1 0x0 PUSH2 0x187C PUSH1 0x1B DUP4 PUSH2 0x2213 JUMP JUMPDEST SWAP2 POP PUSH32 0x536166654D6174683A206164646974696F6E206F766572666C6F770000000000 PUSH1 0x0 DUP4 ADD MSTORE PUSH1 0x20 DUP3 ADD SWAP1 POP SWAP2 SWAP1 POP JUMP JUMPDEST PUSH1 0x0 PUSH2 0x18BC PUSH1 0x28 DUP4 PUSH2 0x2213 JUMP JUMPDEST SWAP2 POP PUSH32 0x436F6C6C656374696F6E53746F7265236275793A204954454D5F50524943455F PUSH1 0x0 DUP4 ADD MSTORE PUSH32 0x4D49534D41544348000000000000000000000000000000000000000000000000 PUSH1 0x20 DUP4 ADD MSTORE PUSH1 0x40 DUP3 ADD SWAP1 POP SWAP2 SWAP1 POP JUMP JUMPDEST PUSH1 0x0 PUSH2 0x1922 PUSH1 0x1E DUP4 PUSH2 0x2213 JUMP JUMPDEST SWAP2 POP PUSH32 0x536166654D6174683A207375627472616374696F6E206F766572666C6F770000 PUSH1 0x0 DUP4 ADD MSTORE PUSH1 0x20 DUP3 ADD SWAP1 POP SWAP2 SWAP1 POP JUMP JUMPDEST PUSH1 0x0 PUSH2 0x1962 PUSH1 0x1A DUP4 PUSH2 0x2213 JUMP JUMPDEST SWAP2 POP PUSH32 0x536166654D6174683A206469766973696F6E206279207A65726F000000000000 PUSH1 0x0 DUP4 ADD MSTORE PUSH1 0x20 DUP3 ADD SWAP1 POP SWAP2 SWAP1 POP JUMP JUMPDEST PUSH1 0x0 PUSH2 0x19A2 PUSH1 0x2A DUP4 PUSH2 0x2213 JUMP JUMPDEST SWAP2 POP PUSH32 0x436F6C6C656374696F6E53746F7265236275793A205452414E534645525F5052 PUSH1 0x0 DUP4 ADD MSTORE PUSH32 0x4943455F4641494C454400000000000000000000000000000000000000000000 PUSH1 0x20 DUP4 ADD MSTORE PUSH1 0x40 DUP3 ADD SWAP1 POP SWAP2 SWAP1 POP JUMP JUMPDEST PUSH1 0x0 PUSH2 0x1A08 PUSH1 0x24 DUP4 PUSH2 0x2213 JUMP JUMPDEST SWAP2 POP PUSH32 0x436F6C6C656374696F6E53746F7265236275793A204C454E4754485F4D49534D PUSH1 0x0 DUP4 ADD MSTORE PUSH32 0x4154434800000000000000000000000000000000000000000000000000000000 PUSH1 0x20 DUP4 ADD MSTORE PUSH1 0x40 DUP3 ADD SWAP1 POP SWAP2 SWAP1 POP JUMP JUMPDEST PUSH1 0x0 PUSH2 0x1A6E PUSH1 0x20 DUP4 PUSH2 0x2213 JUMP JUMPDEST SWAP2 POP PUSH32 0x436F6C6C656374696F6E53746F7265237365744665653A2053414D455F464545 PUSH1 0x0 DUP4 ADD MSTORE PUSH1 0x20 DUP3 ADD SWAP1 POP SWAP2 SWAP1 POP JUMP JUMPDEST PUSH1 0x0 PUSH2 0x1AAE PUSH1 0x21 DUP4 PUSH2 0x2213 JUMP JUMPDEST SWAP2 POP PUSH32 0x536166654D6174683A206D756C7469706C69636174696F6E206F766572666C6F PUSH1 0x0 DUP4 ADD MSTORE PUSH32 0x7700000000000000000000000000000000000000000000000000000000000000 PUSH1 0x20 DUP4 ADD MSTORE PUSH1 0x40 DUP3 ADD SWAP1 POP SWAP2 SWAP1 POP JUMP JUMPDEST PUSH1 0x0 PUSH2 0x1B14 PUSH1 0x20 DUP4 PUSH2 0x2213 JUMP JUMPDEST SWAP2 POP PUSH32 0x4F776E61626C653A2063616C6C6572206973206E6F7420746865206F776E6572 PUSH1 0x0 DUP4 ADD MSTORE PUSH1 0x20 DUP3 ADD SWAP1 POP SWAP2 SWAP1 POP JUMP JUMPDEST PUSH1 0x0 PUSH2 0x1B54 PUSH1 0x29 DUP4 PUSH2 0x2213 JUMP JUMPDEST SWAP2 POP PUSH32 0x436F6C6C656374696F6E53746F7265236275793A205452414E534645525F4645 PUSH1 0x0 DUP4 ADD MSTORE PUSH32 0x45535F4641494C45440000000000000000000000000000000000000000000000 PUSH1 0x20 DUP4 ADD MSTORE PUSH1 0x40 DUP3 ADD SWAP1 POP SWAP2 SWAP1 POP JUMP JUMPDEST PUSH1 0x0 PUSH2 0x1BBA PUSH1 0x39 DUP4 PUSH2 0x2213 JUMP JUMPDEST SWAP2 POP PUSH32 0x436F6C6C656374696F6E53746F7265237365744665653A204645455F53484F55 PUSH1 0x0 DUP4 ADD MSTORE PUSH32 0x4C445F42455F4C4F5745525F5448414E5F424153455F46454500000000000000 PUSH1 0x20 DUP4 ADD MSTORE PUSH1 0x40 DUP3 ADD SWAP1 POP SWAP2 SWAP1 POP JUMP JUMPDEST PUSH1 0x0 PUSH2 0x1C20 PUSH1 0x2B DUP4 PUSH2 0x2213 JUMP JUMPDEST SWAP2 POP PUSH32 0x436F6C6C656374696F6E53746F7265237365744665654F776E65723A2053414D PUSH1 0x0 DUP4 ADD MSTORE PUSH32 0x455F4645455F4F574E4552000000000000000000000000000000000000000000 PUSH1 0x20 DUP4 ADD MSTORE PUSH1 0x40 DUP3 ADD SWAP1 POP SWAP2 SWAP1 POP JUMP JUMPDEST PUSH1 0x0 PUSH2 0x1C86 PUSH1 0x2C DUP4 PUSH2 0x2213 JUMP JUMPDEST SWAP2 POP PUSH32 0x436F6C6C656374696F6E53746F7265237365744665654F776E65723A20494E56 PUSH1 0x0 DUP4 ADD MSTORE PUSH32 0x414C49445F414444524553530000000000000000000000000000000000000000 PUSH1 0x20 DUP4 ADD MSTORE PUSH1 0x40 DUP3 ADD SWAP1 POP SWAP2 SWAP1 POP JUMP JUMPDEST PUSH1 0x0 PUSH1 0x80 DUP4 ADD PUSH1 0x0 DUP4 ADD MLOAD PUSH2 0x1CF7 PUSH1 0x0 DUP7 ADD DUP3 PUSH2 0x17FA JUMP JUMPDEST POP PUSH1 0x20 DUP4 ADD MLOAD DUP5 DUP3 SUB PUSH1 0x20 DUP7 ADD MSTORE PUSH2 0x1D0F DUP3 DUP3 PUSH2 0x172F JUMP JUMPDEST SWAP2 POP POP PUSH1 0x40 DUP4 ADD MLOAD DUP5 DUP3 SUB PUSH1 0x40 DUP7 ADD MSTORE PUSH2 0x1D29 DUP3 DUP3 PUSH2 0x172F JUMP JUMPDEST SWAP2 POP POP PUSH1 0x60 DUP4 ADD MLOAD DUP5 DUP3 SUB PUSH1 0x60 DUP7 ADD MSTORE PUSH2 0x1D43 DUP3 DUP3 PUSH2 0x15FE JUMP JUMPDEST SWAP2 POP POP DUP1 SWAP2 POP POP SWAP3 SWAP2 POP POP JUMP JUMPDEST PUSH2 0x1D59 DUP2 PUSH2 0x2274 JUMP JUMPDEST DUP3 MSTORE POP POP JUMP JUMPDEST PUSH2 0x1D68 DUP2 PUSH2 0x2274 JUMP JUMPDEST DUP3 MSTORE POP POP JUMP JUMPDEST PUSH1 0x0 PUSH1 0x20 DUP3 ADD SWAP1 POP PUSH2 0x1D83 PUSH1 0x0 DUP4 ADD DUP5 PUSH2 0x15EF JUMP JUMPDEST SWAP3 SWAP2 POP POP JUMP JUMPDEST PUSH1 0x0 PUSH1 0x60 DUP3 ADD SWAP1 POP PUSH2 0x1D9E PUSH1 0x0 DUP4 ADD DUP7 PUSH2 0x15EF JUMP JUMPDEST PUSH2 0x1DAB PUSH1 0x20 DUP4 ADD DUP6 PUSH2 0x15EF JUMP JUMPDEST PUSH2 0x1DB8 PUSH1 0x40 DUP4 ADD DUP5 PUSH2 0x1D5F JUMP JUMPDEST SWAP5 SWAP4 POP POP POP POP JUMP JUMPDEST PUSH1 0x0 PUSH1 0x40 DUP3 ADD SWAP1 POP DUP2 DUP2 SUB PUSH1 0x0 DUP4 ADD MSTORE PUSH2 0x1DDA DUP2 DUP6 PUSH2 0x165C JUMP JUMPDEST SWAP1 POP DUP2 DUP2 SUB PUSH1 0x20 DUP4 ADD MSTORE PUSH2 0x1DEE DUP2 DUP5 PUSH2 0x178D JUMP JUMPDEST SWAP1 POP SWAP4 SWAP3 POP POP POP JUMP JUMPDEST PUSH1 0x0 PUSH1 0x20 DUP3 ADD SWAP1 POP DUP2 DUP2 SUB PUSH1 0x0 DUP4 ADD MSTORE PUSH2 0x1E11 DUP2 DUP5 PUSH2 0x16BA JUMP JUMPDEST SWAP1 POP SWAP3 SWAP2 POP POP JUMP JUMPDEST PUSH1 0x0 PUSH1 0x20 DUP3 ADD SWAP1 POP PUSH2 0x1E2E PUSH1 0x0 DUP4 ADD DUP5 PUSH2 0x17EB JUMP JUMPDEST SWAP3 SWAP2 POP POP JUMP JUMPDEST PUSH1 0x0 PUSH1 0x20 DUP3 ADD SWAP1 POP DUP2 DUP2 SUB PUSH1 0x0 DUP4 ADD MSTORE PUSH2 0x1E4D DUP2 PUSH2 0x1809 JUMP JUMPDEST SWAP1 POP SWAP2 SWAP1 POP JUMP JUMPDEST PUSH1 0x0 PUSH1 0x20 DUP3 ADD SWAP1 POP DUP2 DUP2 SUB PUSH1 0x0 DUP4 ADD MSTORE PUSH2 0x1E6D DUP2 PUSH2 0x186F JUMP JUMPDEST SWAP1 POP SWAP2 SWAP1 POP JUMP JUMPDEST PUSH1 0x0 PUSH1 0x20 DUP3 ADD SWAP1 POP DUP2 DUP2 SUB PUSH1 0x0 DUP4 ADD MSTORE PUSH2 0x1E8D DUP2 PUSH2 0x18AF JUMP JUMPDEST SWAP1 POP SWAP2 SWAP1 POP JUMP JUMPDEST PUSH1 0x0 PUSH1 0x20 DUP3 ADD SWAP1 POP DUP2 DUP2 SUB PUSH1 0x0 DUP4 ADD MSTORE PUSH2 0x1EAD DUP2 PUSH2 0x1915 JUMP JUMPDEST SWAP1 POP SWAP2 SWAP1 POP JUMP JUMPDEST PUSH1 0x0 PUSH1 0x20 DUP3 ADD SWAP1 POP DUP2 DUP2 SUB PUSH1 0x0 DUP4 ADD MSTORE PUSH2 0x1ECD DUP2 PUSH2 0x1955 JUMP JUMPDEST SWAP1 POP SWAP2 SWAP1 POP JUMP JUMPDEST PUSH1 0x0 PUSH1 0x20 DUP3 ADD SWAP1 POP DUP2 DUP2 SUB PUSH1 0x0 DUP4 ADD MSTORE PUSH2 0x1EED DUP2 PUSH2 0x1995 JUMP JUMPDEST SWAP1 POP SWAP2 SWAP1 POP JUMP JUMPDEST PUSH1 0x0 PUSH1 0x20 DUP3 ADD SWAP1 POP DUP2 DUP2 SUB PUSH1 0x0 DUP4 ADD MSTORE PUSH2 0x1F0D DUP2 PUSH2 0x19FB JUMP JUMPDEST SWAP1 POP SWAP2 SWAP1 POP JUMP JUMPDEST PUSH1 0x0 PUSH1 0x20 DUP3 ADD SWAP1 POP DUP2 DUP2 SUB PUSH1 0x0 DUP4 ADD MSTORE PUSH2 0x1F2D DUP2 PUSH2 0x1A61 JUMP JUMPDEST SWAP1 POP SWAP2 SWAP1 POP JUMP JUMPDEST PUSH1 0x0 PUSH1 0x20 DUP3 ADD SWAP1 POP DUP2 DUP2 SUB PUSH1 0x0 DUP4 ADD MSTORE PUSH2 0x1F4D DUP2 PUSH2 0x1AA1 JUMP JUMPDEST SWAP1 POP SWAP2 SWAP1 POP JUMP JUMPDEST PUSH1 0x0 PUSH1 0x20 DUP3 ADD SWAP1 POP DUP2 DUP2 SUB PUSH1 0x0 DUP4 ADD MSTORE PUSH2 0x1F6D DUP2 PUSH2 0x1B07 JUMP JUMPDEST SWAP1 POP SWAP2 SWAP1 POP JUMP JUMPDEST PUSH1 0x0 PUSH1 0x20 DUP3 ADD SWAP1 POP DUP2 DUP2 SUB PUSH1 0x0 DUP4 ADD MSTORE PUSH2 0x1F8D DUP2 PUSH2 0x1B47 JUMP JUMPDEST SWAP1 POP SWAP2 SWAP1 POP JUMP JUMPDEST PUSH1 0x0 PUSH1 0x20 DUP3 ADD SWAP1 POP DUP2 DUP2 SUB PUSH1 0x0 DUP4 ADD MSTORE PUSH2 0x1FAD DUP2 PUSH2 0x1BAD JUMP JUMPDEST SWAP1 POP SWAP2 SWAP1 POP JUMP JUMPDEST PUSH1 0x0 PUSH1 0x20 DUP3 ADD SWAP1 POP DUP2 DUP2 SUB PUSH1 0x0 DUP4 ADD MSTORE PUSH2 0x1FCD DUP2 PUSH2 0x1C13 JUMP JUMPDEST SWAP1 POP SWAP2 SWAP1 POP JUMP JUMPDEST PUSH1 0x0 PUSH1 0x20 DUP3 ADD SWAP1 POP DUP2 DUP2 SUB PUSH1 0x0 DUP4 ADD MSTORE PUSH2 0x1FED DUP2 PUSH2 0x1C79 JUMP JUMPDEST SWAP1 POP SWAP2 SWAP1 POP JUMP JUMPDEST PUSH1 0x0 PUSH1 0x20 DUP3 ADD SWAP1 POP PUSH2 0x2009 PUSH1 0x0 DUP4 ADD DUP5 PUSH2 0x1D5F JUMP JUMPDEST SWAP3 SWAP2 POP POP JUMP JUMPDEST PUSH1 0x0 PUSH1 0x40 DUP3 ADD SWAP1 POP PUSH2 0x2024 PUSH1 0x0 DUP4 ADD DUP6 PUSH2 0x1D5F JUMP JUMPDEST PUSH2 0x2031 PUSH1 0x20 DUP4 ADD DUP5 PUSH2 0x15EF JUMP JUMPDEST SWAP4 SWAP3 POP POP POP JUMP JUMPDEST PUSH1 0x0 PUSH1 0x40 DUP3 ADD SWAP1 POP PUSH2 0x204D PUSH1 0x0 DUP4 ADD DUP6 PUSH2 0x1D5F JUMP JUMPDEST PUSH2 0x205A PUSH1 0x20 DUP4 ADD DUP5 PUSH2 0x1D5F JUMP JUMPDEST SWAP4 SWAP3 POP POP POP JUMP JUMPDEST PUSH1 0x0 PUSH1 0x40 MLOAD SWAP1 POP DUP2 DUP2 ADD DUP2 DUP2 LT PUSH8 0xFFFFFFFFFFFFFFFF DUP3 GT OR ISZERO PUSH2 0x2088 JUMPI PUSH2 0x2087 PUSH2 0x22F9 JUMP JUMPDEST JUMPDEST DUP1 PUSH1 0x40 MSTORE POP SWAP2 SWAP1 POP JUMP JUMPDEST PUSH1 0x0 PUSH8 0xFFFFFFFFFFFFFFFF DUP3 GT ISZERO PUSH2 0x20AD JUMPI PUSH2 0x20AC PUSH2 0x22F9 JUMP JUMPDEST JUMPDEST PUSH1 0x20 DUP3 MUL SWAP1 POP PUSH1 0x20 DUP2 ADD SWAP1 POP SWAP2 SWAP1 POP JUMP JUMPDEST PUSH1 0x0 PUSH8 0xFFFFFFFFFFFFFFFF DUP3 GT ISZERO PUSH2 0x20D9 JUMPI PUSH2 0x20D8 PUSH2 0x22F9 JUMP JUMPDEST JUMPDEST PUSH1 0x20 DUP3 MUL SWAP1 POP PUSH1 0x20 DUP2 ADD SWAP1 POP SWAP2 SWAP1 POP JUMP JUMPDEST PUSH1 0x0 PUSH8 0xFFFFFFFFFFFFFFFF DUP3 GT ISZERO PUSH2 0x2105 JUMPI PUSH2 0x2104 PUSH2 0x22F9 JUMP JUMPDEST JUMPDEST PUSH1 0x20 DUP3 MUL SWAP1 POP PUSH1 0x20 DUP2 ADD SWAP1 POP SWAP2 SWAP1 POP JUMP JUMPDEST PUSH1 0x0 PUSH8 0xFFFFFFFFFFFFFFFF DUP3 GT ISZERO PUSH2 0x2131 JUMPI PUSH2 0x2130 PUSH2 0x22F9 JUMP JUMPDEST JUMPDEST PUSH1 0x1F NOT PUSH1 0x1F DUP4 ADD AND SWAP1 POP PUSH1 0x20 DUP2 ADD SWAP1 POP SWAP2 SWAP1 POP JUMP JUMPDEST PUSH1 0x0 DUP2 SWAP1 POP PUSH1 0x20 DUP3 ADD SWAP1 POP SWAP2 SWAP1 POP JUMP JUMPDEST PUSH1 0x0 DUP2 SWAP1 POP PUSH1 0x20 DUP3 ADD SWAP1 POP SWAP2 SWAP1 POP JUMP JUMPDEST PUSH1 0x0 DUP2 SWAP1 POP PUSH1 0x20 DUP3 ADD SWAP1 POP SWAP2 SWAP1 POP JUMP JUMPDEST PUSH1 0x0 DUP2 MLOAD SWAP1 POP SWAP2 SWAP1 POP JUMP JUMPDEST PUSH1 0x0 DUP2 MLOAD SWAP1 POP SWAP2 SWAP1 POP JUMP JUMPDEST PUSH1 0x0 DUP2 MLOAD SWAP1 POP SWAP2 SWAP1 POP JUMP JUMPDEST PUSH1 0x0 PUSH1 0x20 DUP3 ADD SWAP1 POP SWAP2 SWAP1 POP JUMP JUMPDEST PUSH1 0x0 PUSH1 0x20 DUP3 ADD SWAP1 POP SWAP2 SWAP1 POP JUMP JUMPDEST PUSH1 0x0 PUSH1 0x20 DUP3 ADD SWAP1 POP SWAP2 SWAP1 POP JUMP JUMPDEST PUSH1 0x0 DUP3 DUP3 MSTORE PUSH1 0x20 DUP3 ADD SWAP1 POP SWAP3 SWAP2 POP POP JUMP JUMPDEST PUSH1 0x0 DUP3 DUP3 MSTORE PUSH1 0x20 DUP3 ADD SWAP1 POP SWAP3 SWAP2 POP POP JUMP JUMPDEST PUSH1 0x0 DUP3 DUP3 MSTORE PUSH1 0x20 DUP3 ADD SWAP1 POP SWAP3 SWAP2 POP POP JUMP JUMPDEST PUSH1 0x0 DUP3 DUP3 MSTORE PUSH1 0x20 DUP3 ADD SWAP1 POP SWAP3 SWAP2 POP POP JUMP JUMPDEST PUSH1 0x0 DUP3 DUP3 MSTORE PUSH1 0x20 DUP3 ADD SWAP1 POP SWAP3 SWAP2 POP POP JUMP JUMPDEST PUSH1 0x0 DUP3 DUP3 MSTORE PUSH1 0x20 DUP3 ADD SWAP1 POP SWAP3 SWAP2 POP POP JUMP JUMPDEST PUSH1 0x0 PUSH2 0x222F DUP3 PUSH2 0x2254 JUMP JUMPDEST SWAP1 POP SWAP2 SWAP1 POP JUMP JUMPDEST PUSH1 0x0 DUP2 ISZERO ISZERO SWAP1 POP SWAP2 SWAP1 POP JUMP JUMPDEST PUSH1 0x0 PUSH2 0x224D DUP3 PUSH2 0x2224 JUMP JUMPDEST SWAP1 POP SWAP2 SWAP1 POP JUMP JUMPDEST PUSH1 0x0 PUSH20 0xFFFFFFFFFFFFFFFFFFFFFFFFFFFFFFFFFFFFFFFF DUP3 AND SWAP1 POP SWAP2 SWAP1 POP JUMP JUMPDEST PUSH1 0x0 DUP2 SWAP1 POP SWAP2 SWAP1 POP JUMP JUMPDEST PUSH1 0x0 PUSH2 0x2289 DUP3 PUSH2 0x2290 JUMP JUMPDEST SWAP1 POP SWAP2 SWAP1 POP JUMP JUMPDEST PUSH1 0x0 PUSH2 0x229B DUP3 PUSH2 0x2254 JUMP JUMPDEST SWAP1 POP SWAP2 SWAP1 POP JUMP JUMPDEST PUSH1 0x0 PUSH2 0x22AD DUP3 PUSH2 0x22B4 JUMP JUMPDEST SWAP1 POP SWAP2 SWAP1 POP JUMP JUMPDEST PUSH1 0x0 PUSH2 0x22BF DUP3 PUSH2 0x2254 JUMP JUMPDEST SWAP1 POP SWAP2 SWAP1 POP JUMP JUMPDEST PUSH1 0x0 JUMPDEST DUP4 DUP2 LT ISZERO PUSH2 0x22E4 JUMPI DUP1 DUP3 ADD MLOAD DUP2 DUP5 ADD MSTORE PUSH1 0x20 DUP2 ADD SWAP1 POP PUSH2 0x22C9 JUMP JUMPDEST DUP4 DUP2 GT ISZERO PUSH2 0x22F3 JUMPI PUSH1 0x0 DUP5 DUP5 ADD MSTORE JUMPDEST POP POP POP POP JUMP JUMPDEST INVALID JUMPDEST PUSH2 0x2304 DUP2 PUSH2 0x2224 JUMP JUMPDEST DUP2 EQ PUSH2 0x230F JUMPI PUSH1 0x0 DUP1 REVERT JUMPDEST POP JUMP JUMPDEST PUSH2 0x231B DUP2 PUSH2 0x2236 JUMP JUMPDEST DUP2 EQ PUSH2 0x2326 JUMPI PUSH1 0x0 DUP1 REVERT JUMPDEST POP JUMP JUMPDEST PUSH2 0x2332 DUP2 PUSH2 0x2242 JUMP JUMPDEST DUP2 EQ PUSH2 0x233D JUMPI PUSH1 0x0 DUP1 REVERT JUMPDEST POP JUMP JUMPDEST PUSH2 0x2349 DUP2 PUSH2 0x2274 JUMP JUMPDEST DUP2 EQ PUSH2 0x2354 JUMPI PUSH1 0x0 DUP1 REVERT JUMPDEST POP JUMP INVALID LOG2 PUSH5 0x6970667358 0x22 SLT KECCAK256 EXTCODESIZE DUP5 0xEB SIGNEXTEND 0x26 0xB9 SWAP13 PUSH29 0xFCFA3ED3707347A5CFCE4304FF77C3FA44C49672D9C88B3864736F6C63 NUMBER STOP SMOD MOD STOP CALLER "
				},
				"gasEstimates": {
					"creation": {
						"codeDepositCost": "1820200",
						"executionCost": "infinite",
						"totalCost": "infinite"
					},
					"external": {
						"BASE_FEE()": "330",
						"acceptedToken()": "1280",
						"buy((address,uint256[],uint256[],address[])[])": "infinite",
						"fee()": "1195",
						"feeOwner()": "1258",
						"getItemBuyData(address,uint256)": "infinite",
						"owner()": "1222",
						"renounceOwnership()": "infinite",
						"setFee(uint256)": "infinite",
						"setFeeOwner(address)": "infinite",
						"transferOwnership(address)": "infinite"
					}
				},
				"methodIdentifiers": {
					"BASE_FEE()": "3d18651e",
					"acceptedToken()": "451c3d80",
					"buy((address,uint256[],uint256[],address[])[])": "a4fdc78a",
					"fee()": "ddca3f43",
					"feeOwner()": "b9818be1",
					"getItemBuyData(address,uint256)": "e0f307c2",
					"owner()": "8da5cb5b",
					"renounceOwnership()": "715018a6",
					"setFee(uint256)": "69fe0e2d",
					"setFeeOwner(address)": "4b104eff",
					"transferOwnership(address)": "f2fde38b"
				}
			},
			"storageLayout": {
				"storage": [
					{
						"astId": 510,
						"contract": "contracts/CollectionStore.sol:CollectionStore",
						"label": "_owner",
						"offset": 0,
						"slot": "0",
						"type": "t_address"
					},
					{
						"astId": 915,
						"contract": "contracts/CollectionStore.sol:CollectionStore",
						"label": "acceptedToken",
						"offset": 0,
						"slot": "1",
						"type": "t_contract(IERC20)397"
					},
					{
						"astId": 917,
						"contract": "contracts/CollectionStore.sol:CollectionStore",
						"label": "fee",
						"offset": 0,
						"slot": "2",
						"type": "t_uint256"
					},
					{
						"astId": 919,
						"contract": "contracts/CollectionStore.sol:CollectionStore",
						"label": "feeOwner",
						"offset": 0,
						"slot": "3",
						"type": "t_address"
					}
				],
				"types": {
					"t_address": {
						"encoding": "inplace",
						"label": "address",
						"numberOfBytes": "20"
					},
					"t_contract(IERC20)397": {
						"encoding": "inplace",
						"label": "contract IERC20",
						"numberOfBytes": "20"
					},
					"t_uint256": {
						"encoding": "inplace",
						"label": "uint256",
						"numberOfBytes": "32"
					}
				}
			},
			"userdoc": {
				"kind": "user",
				"methods": {
					"buy((address,uint256[],uint256[],address[])[])": {
						"notice": "Buy collection's items."
					},
					"constructor": {
						"notice": "Constructor of the contract."
					},
					"getItemBuyData(address,uint256)": {
						"notice": "Get item's price and beneficiary"
					},
					"setFee(uint256)": {
						"notice": "Sets the fee of the contract that's charged to the seller on each sale"
					},
					"setFeeOwner(address)": {
						"notice": "Set a new fee owner."
					}
				},
				"version": 1
			}
		}
	}
}