{
	"data": {
		"bytecode": {
			"linkReferences": {},
			"object": "60806040523480156200001157600080fd5b50620000246301ffc9a760e01b6200002a565b620000bf565b6001600160e01b03198082161415620000605760405162461bcd60e51b8152600401620000579062000088565b60405180910390fd5b6001600160e01b0319166000908152600160208190526040909120805460ff19169091179055565b6020808252601c908201527f4552433136353a20696e76616c696420696e7465726661636520696400000000604082015260600190565b6151a980620000cf6000396000f3fe608060405234801561001057600080fd5b506004361061038e5760003560e01c80636d2e4b1b116101de578063b88d4fde1161010f578063e6170a53116100ad578063f3993d111161007c578063f3993d111461073e578063f59d9e3f14610751578063f6f07b6314610759578063fa391c641461076e5761038e565b8063e6170a53146106f2578063e985e9c514610705578063ebd46d6414610718578063f2fde38b1461072b5761038e565b8063c87b56dd116100e9578063c87b56dd146106bc578063cf09e0d0146106cf578063d14fee77146106d7578063e2c03ace146106ea5761038e565b8063b88d4fde14610670578063be4763b314610683578063bfb231d2146106965761038e565b80637efd91121161017c57806395d89b411161015657806395d89b411461063a578063a22cb46514610642578063b4c2025e14610655578063b4da4e37146106685761038e565b80637efd9112146106095780638da5cb5b1461062a578063950fa904146106325761038e565b8063715018a6116101b8578063715018a6146105d35780637682dfca146105db5780637c8f76a1146105ee5780637e12acce146106015761038e565b80636d2e4b1b1461059a5780636d67b1ab146105ad57806370a08231146105c05761038e565b806330127574116102c357806342842e0e1161026157806355f804b31161023057806355f804b3146105575780635ec7c5371461056a5780636352211e1461057f5780636c0360eb146105925761038e565b806342842e0e1461050957806346d5a5681461051c578063486220181461052f5780634f6ccce7146105445761038e565b80633bdcc9231161029d5780633bdcc923146104bd5780633c963655146104d057806341bceced146104e3578063425f60ed146104f65761038e565b806330127574146104a5578063392e53cd146104ad5780633992cd0d146104b55761038e565b8063239a603b1161033057806328f371aa1161030a57806328f371aa1461046f5780632b481883146104775780632cb0d48a1461047f5780632f745c59146104925761038e565b8063239a603b1461043657806323b872dd1461044957806328cfbd461461045c5761038e565b8063081812fc1161036c578063081812fc146103e6578063095ea7b3146103f95780630ebde06e1461040e57806318160ddd146104215761038e565b806301ffc9a71461039357806302d05d3f146103bc57806306fdde03146103d1575b600080fd5b6103a66103a13660046139db565b610776565b6040516103b39190613e03565b60405180910390f35b6103c4610799565b6040516103b39190613db2565b6103d96107a8565b6040516103b39190613e29565b6103c46103f4366004613bf2565b61083f565b61040c6104073660046137b5565b61088b565b005b61040c61041c366004613903565b610923565b610429610c32565b6040516103b39190613e20565b61040c61044436600461386e565b610c43565b61040c6104573660046136e4565b610e0a565b61040c61046a366004613607565b610e42565b6103a6610e7c565b6103a6610e8c565b61040c61048d3660046139c1565b610eb2565b6104296104a03660046137b5565b610f46565b61040c610f71565b6103a6610fa3565b6103c4610fac565b61040c6104cb3660046137e0565b610fbb565b61040c6104de36600461386e565b61111e565b61040c6104f13660046137e0565b6112dc565b61040c61050436600461383c565b61143f565b61040c6105173660046136e4565b611473565b61040c61052a3660046139c1565b61148e565b610537611525565b6040516103b39190614ff0565b610429610552366004613bf2565b61152e565b61040c610565366004613a13565b611544565b6105726115c2565b6040516103b39190615002565b6103c461058d366004613bf2565b6115c7565b6103d96115ef565b61040c6105a8366004613551565b611650565b6104296105bb366004613c0a565b61172f565b6104296105ce366004613551565b61174c565b61040c611795565b6103a66105e9366004613551565b611814565b61040c6105fc3660046137e0565b611829565b6104296118d0565b61061c610617366004613bf2565b6118f4565b6040516103b3929190614fe2565b6103c4611908565b610572611917565b6103d961191c565b61040c610650366004613781565b61197d565b6103a6610663366004613551565b611a4b565b6103a6611a60565b61040c61067e366004613724565b611a6f565b6103a6610691366004613c0a565b611aae565b6106a96106a4366004613bf2565b611ace565b6040516103b39796959493929190613e8f565b6103d96106ca366004613bf2565b611cc6565b610429611d58565b61040c6106e5366004613a45565b611d5e565b610429611e48565b61040c61070036600461386e565b611e4e565b6103a661071336600461356d565b611ff0565b610429610726366004613c2e565b61201e565b61040c610739366004613551565b612077565b61040c61074c3660046135a5565b61212d565b61040c61215d565b6107616121b3565b6040516103b39190614f8d565b6103a66121be565b6001600160e01b0319811660009081526001602052604090205460ff165b919050565b600c546001600160a01b031681565b60078054604080516020601f60026000196101006001881615020190951694909404938401819004810282018101909252828152606093909290918301828280156108345780601f1061080957610100808354040283529160200191610834565b820191906000526020600020905b81548152906001019060200180831161081757829003601f168201915b505050505090505b90565b600061084a826121cc565b61086f5760405162461bcd60e51b8152600401610866906146ca565b60405180910390fd5b506000908152600560205260409020546001600160a01b031690565b6000610896826115c7565b9050806001600160a01b0316836001600160a01b031614156108ca5760405162461bcd60e51b8152600401610866906149a4565b806001600160a01b03166108dc6121d9565b6001600160a01b031614806108f857506108f8816107136121d9565b6109145760405162461bcd60e51b815260040161086690614473565b61091e8383612235565b505050565b868514801561093157508483145b801561093c57508281145b6109585760405162461bcd60e51b815260040161086690613f4f565b60135462010000900460ff166109805760405162461bcd60e51b815260040161086690614c3e565b60005b87811015610c2757600089898381811061099957fe5b90506020020135905060008888848181106109b057fe5b90506020020135905060008787858181106109c757fe5b90506020020160208101906109dc9190613551565b905060008686868181106109ec57fe5b90506020028101906109fe9190615010565b8080601f016020809104026020016040519081016040528093929190818152602001838380828437600092019190915250929350610a3f92506122a3915050565b80610a4e5750610a4e846122c3565b610a6a5760405162461bcd60e51b815260040161086690614c84565b6011548410610a8b5760405162461bcd60e51b815260040161086690614b79565b600083118015610aa357506001600160a01b03821615155b80610abe575082158015610abe57506001600160a01b038216155b610ada5760405162461bcd60e51b815260040161086690613fbd565b6000815111610afb5760405162461bcd60e51b815260040161086690614adb565b600060118581548110610b0a57fe5b90600052602060002090600702019050601360039054906101000a900460ff161580610b84575081604051602001610b429190613e29565b6040516020818303038152906040528051906020012081600501604051602001610b6c9190613efa565b60405160208183030381529060405280519060200120145b610ba05760405162461bcd60e51b815260040161086690614d98565b600381018490556004810180546001600160a01b0319166001600160a01b0385161790558151610bd990600583019060208501906132f4565b50847fc3835f7dd5063bbc8fdc7077944498159008d73d30bf55fe6513e683c8c38209858585604051610c0e93929190614fb8565b60405180910390a2505060019093019250610983915050565b505050505050505050565b6000610c3e6003612321565b905090565b610c4b6122a3565b610c675760405162461bcd60e51b815260040161086690614962565b8483148015610c7557508281145b610c915760405162461bcd60e51b8152600401610866906148b5565b60005b83811015610e01576000858583818110610caa57fe5b9050602002016020810190610cbf9190613551565b90506000888884818110610ccf57fe5b9050602002013590506000858585818110610ce657fe5b9050602002016020810190610cfb91906139c1565b90506001600160a01b038316610d235760405162461bcd60e51b815260040161086690614d18565b6011548210610d445760405162461bcd60e51b815260040161086690614cd3565b60008281526010602090815260408083206001600160a01b038716845290915290205460ff1615158115151415610d8d5760405162461bcd60e51b815260040161086690614ec1565b60008281526010602090815260408083206001600160a01b038716808552925291829020805460ff1916841515179055905183907f1271b13cf757efd2a177fe5f26c2111b69ce904f1d0e3372832dc4e4773298cc90610dee908590613e03565b60405180910390a3505050600101610c94565b50505050505050565b610e1b610e156121d9565b8261232c565b610e375760405162461bcd60e51b815260040161086690614a8a565b61091e8383836123b1565b60005b8251811015610e7557610e6d8585858481518110610e5f57fe5b602002602001015185611a6f565b600101610e45565b5050505050565b6013546301000000900460ff1681565b601354600090610100900460ff168015610c3e5750506013546301000000900460ff1690565b60135460ff620100009091041615158115151415610ee25760405162461bcd60e51b815260040161086690614009565b7fc8ca126810b77bfdcb10ae82ef3bc72619d404f9e3c4bf2057f03f057dcf230a601360029054906101000a900460ff1682604051610f22929190613e0e565b60405180910390a160138054911515620100000262ff000019909216919091179055565b6001600160a01b0382166000908152600260205260408120610f6890836124bf565b90505b92915050565b60135460ff1615610f945760405162461bcd60e51b815260040161086690614595565b6013805460ff19166001179055565b60135460ff1681565b600b546001600160a01b031681565b610fc36122a3565b610fdf5760405162461bcd60e51b815260040161086690614962565b828114610ffe5760405162461bcd60e51b8152600401610866906149e5565b60005b83811015610e7557600085858381811061101757fe5b905060200201602081019061102c9190613551565b9050600084848481811061103c57fe5b905060200201602081019061105191906139c1565b90506001600160a01b0382166110795760405162461bcd60e51b815260040161086690614280565b6001600160a01b0382166000908152600e602052604090205460ff16151581151514156110b85760405162461bcd60e51b8152600401610866906147b7565b6001600160a01b0382166000818152600e602052604090819020805460ff1916841515179055517f68bb2af98a57ecc88afb707f2d75e1e253c3e30191071548355731e21322a4329061110c908490613e03565b60405180910390a25050600101611001565b848314801561112c57508281145b6111485760405162461bcd60e51b815260040161086690613f86565b60005b85811015610e0157600087878381811061116157fe5b905060200201359050601180549050811061118e5760405162461bcd60e51b815260040161086690614782565b60006011828154811061119d57fe5b9060005260206000209060070201905060008787858181106111bb57fe5b90506020028101906111cd9190615010565b8080601f016020809104026020016040519081016040528093929190818152602001838380828437600092018290525093945089925088915087905081811061121257fe5b90506020028101906112249190615010565b8080601f016020809104026020016040519081016040528093929190818152602001838380828437600092019190915250508451929350611270926006870192506020860191506132f4565b5080511561128f57805161128d90600585019060208401906132f4565b505b837f87a972ab2db2d47a0bbefe72cefc4fe5a38b1b9d2bc4b9f366b59fdb6dbd958183856005016040516112c4929190613e6a565b60405180910390a250506001909201915061114b9050565b6112e46122a3565b6113005760405162461bcd60e51b815260040161086690614962565b82811461131f5760405162461bcd60e51b8152600401610866906147ee565b60005b83811015610e7557600085858381811061133857fe5b905060200201602081019061134d9190613551565b9050600084848481811061135d57fe5b905060200201602081019061137291906139c1565b90506001600160a01b03821661139a5760405162461bcd60e51b8152600401610866906143b5565b6001600160a01b0382166000908152600d602052604090205460ff16151581151514156113d95760405162461bcd60e51b815260040161086690614e13565b6001600160a01b0382166000818152600d602052604090819020805460ff1916841515179055517f27defe4b442489e757345f4f743096c5db8d2399e1474bb9653118cdf53138699061142d908490613e03565b60405180910390a25050600101611322565b601354610100900460ff16156114675760405162461bcd60e51b8152600401610866906145cc565b611470816124cb565b50565b61091e83838360405180602001604052806000815250611a6f565b60135460ff630100000090910416151581151514156114bf5760405162461bcd60e51b81526004016108669061437e565b7f9ea3c7bd2b8ff87a3768286a529f5932ca385584c8ddf42eea8eade2ac1fb121601360039054906101000a900460ff16826040516114ff929190613e0e565b60405180910390a16013805491151563010000000263ff00000019909216919091179055565b64ffffffffff81565b60008061153c600384612807565b509392505050565b61154c6121d9565b6000546001600160a01b039081169116146115795760405162461bcd60e51b815260040161086690614716565b7fb8fdf10126d507f6daf46465ec25a2bbc08449cf6c944c98219264161391040a6115a26115ef565b826040516115b1929190613e3c565b60405180910390a161147081612825565b602881565b6000610f6b8260405180606001604052806029815260200161514b602991396003919061283c565b600a8054604080516020601f60026000196101006001881615020190951694909404938401819004810282018101909252828152606093909290918301828280156108345780601f1061080957610100808354040283529160200191610834565b600061165a6121d9565b9050611664611908565b6001600160a01b0316816001600160a01b031614806116905750600c546001600160a01b038281169116145b6116ac5760405162461bcd60e51b8152600401610866906141b2565b6001600160a01b0382166116d25760405162461bcd60e51b815260040161086690614bf2565b600c546040516001600160a01b038085169216907ff25c6226b06a6bf4b2c2391bb66962bb4290c323cf8b5814efb185aba3f42d5f90600090a350600c80546001600160a01b0319166001600160a01b0392909216919091179055565b600f60209081526000928352604080842090915290825290205481565b60006001600160a01b0382166117745760405162461bcd60e51b815260040161086690614514565b6001600160a01b0382166000908152600260205260409020610f6b90612321565b61179d6121d9565b6000546001600160a01b039081169116146117ca5760405162461bcd60e51b815260040161086690614716565b600080546040516001600160a01b03909116907f8be0079c531659141344cd1fd0a4f28419497f9722a3daafe3b4186f6b6457e0908390a3600080546001600160a01b0319169055565b600e6020526000908152604090205460ff1681565b611831610e8c565b61184d5760405162461bcd60e51b8152600401610866906142c4565b82811461186c5760405162461bcd60e51b81526004016108669061492b565b60006118766121d9565b905060005b828110156118c8576118c086868381811061189257fe5b90506020020160208101906118a79190613551565b8585848181106118b357fe5b9050602002013584612849565b60010161187b565b505050505050565b7f085858259777fa9b13d1b7719cc0a9d4d012e29b100679e2974863bab94a0c1a81565b60d881901c916001600160d81b0390911690565b6000546001600160a01b031690565b60d881565b60088054604080516020601f60026000196101006001881615020190951694909404938401819004810282018101909252828152606093909290918301828280156108345780601f1061080957610100808354040283529160200191610834565b6119856121d9565b6001600160a01b0316826001600160a01b031614156119b65760405162461bcd60e51b815260040161086690614249565b80600660006119c36121d9565b6001600160a01b03908116825260208083019390935260409182016000908120918716808252919093529120805460ff191692151592909217909155611a076121d9565b6001600160a01b03167f17307eab39ab6107e8899845ad3d59bd9653f200f220920489ca2b5937696c3183604051611a3f9190613e03565b60405180910390a35050565b600d6020526000908152604090205460ff1681565b60135462010000900460ff1681565b611a80611a7a6121d9565b8361232c565b611a9c5760405162461bcd60e51b815260040161086690614a8a565b611aa8848484846129da565b50505050565b601060209081526000928352604080842090915290825290205460ff1681565b60118181548110611ade57600080fd5b60009182526020918290206007919091020180546040805160026001841615610100026000190190931692909204601f810185900485028301850190915280825291935091839190830182828015611b775780601f10611b4c57610100808354040283529160200191611b77565b820191906000526020600020905b815481529060010190602001808311611b5a57829003601f168201915b5050506001808501546002808701546003880154600489015460058a018054604080516020601f6000199b851615610100029b909b01909316979097049889018290048202870182019052878652999a95999398509196506001600160a01b0316949091830182828015611c2c5780601f10611c0157610100808354040283529160200191611c2c565b820191906000526020600020905b815481529060010190602001808311611c0f57829003601f168201915b5050505060068301805460408051602060026001851615610100026000190190941693909304601f8101849004840282018401909252818152949594935090830182828015611cbc5780601f10611c9157610100808354040283529160200191611cbc565b820191906000526020600020905b815481529060010190602001808311611c9f57829003601f168201915b5050505050905087565b6060611cd1826121cc565b611ced5760405162461bcd60e51b81526004016108669061474b565b600080611cf9846118f4565b909250905046611d076115ef565b611d1082612a0d565b611d1930612ae7565b611d2286612a0d565b611d2b86612a0d565b604051602001611d3f959493929190613d1a565b6040516020818303038152906040529350505050919050565b60125481565b611d66610f71565b6001600160a01b038516611d8c5760405162461bcd60e51b8152600401610866906142fb565b6001600160a01b038216611db25760405162461bcd60e51b815260040161086690614a53565b611dba612bdc565b611dc48888612c32565b611dcd86611544565b600c80546001600160a01b038088166001600160a01b031992831617909255600b805492851692909116919091179055611e06816124cb565b8315611e1457611e14612c8a565b50506013805462ff00001992151563010000000263ff00000019909116179190911662010000179055505042601255505050565b60115490565b611e566122a3565b611e725760405162461bcd60e51b815260040161086690614962565b8483148015611e8057508281145b611e9c5760405162461bcd60e51b8152600401610866906148f6565b60005b83811015610e01576000858583818110611eb557fe5b9050602002016020810190611eca9190613551565b90506000888884818110611eda57fe5b9050602002013590506000858585818110611ef157fe5b60200291909101359150506001600160a01b038316611f225760405162461bcd60e51b8152600401610866906143f7565b6011548210611f435760405162461bcd60e51b8152600401610866906144d0565b6000828152600f602090815260408083206001600160a01b0387168452909152902054811415611f855760405162461bcd60e51b815260040161086690614e4a565b6000828152600f602090815260408083206001600160a01b038716808552925291829020839055905183907f45a634291439a8ec187e2b70279696615889c34c17c3a1208a7f85544e13b56590611fdd908590613e20565b60405180910390a3505050600101611e9f565b6001600160a01b03918216600090815260066020908152604080832093909416825291909152205460ff1690565b600064ffffffffff8311156120455760405162461bcd60e51b815260040161086690614ddc565b6001600160d81b0382111561206c5760405162461bcd60e51b815260040161086690614146565b5060d89190911b1790565b61207f6121d9565b6000546001600160a01b039081169116146120ac5760405162461bcd60e51b815260040161086690614716565b6001600160a01b0381166120d25760405162461bcd60e51b815260040161086690614092565b600080546040516001600160a01b03808516939216917f8be0079c531659141344cd1fd0a4f28419497f9722a3daafe3b4186f6b6457e091a3600080546001600160a01b0319166001600160a01b0392909216919091179055565b60005b81811015610e7557612155858585858581811061214957fe5b90506020020135610e0a565b600101612130565b6121656122a3565b6121815760405162461bcd60e51b815260040161086690614962565b601354610100900460ff16156121a95760405162461bcd60e51b815260040161086690614603565b6121b1612c8a565b565b6001600160d81b0381565b601354610100900460ff1681565b6000610f6b600383612cc4565b60003330141561223057600080368080601f0160208091040260200160405190810160405280939291908181526020018383808284376000920191909152505050503601516001600160a01b0316915061083c9050565b503390565b600081815260056020526040902080546001600160a01b0319166001600160a01b038416908117909155819061226a826115c7565b6001600160a01b03167f8c5be1e5ebec7d5bd14f71427d1e84f3dd0314c0f7b2291e5b200ac8c7c3b92560405160405180910390a45050565b60006122ad6121d9565b600c546001600160a01b03908116911614905090565b6000806122ce6121d9565b6001600160a01b0381166000908152600e602052604090205490915060ff168061231a575060008381526010602090815260408083206001600160a01b038516845290915290205460ff165b9392505050565b6000610f6b82612cd0565b6000612337826121cc565b6123535760405162461bcd60e51b815260040161086690614332565b600061235e836115c7565b9050806001600160a01b0316846001600160a01b031614806123995750836001600160a01b031661238e8461083f565b6001600160a01b0316145b806123a957506123a98185611ff0565b949350505050565b826001600160a01b03166123c4826115c7565b6001600160a01b0316146123ea5760405162461bcd60e51b815260040161086690614825565b6001600160a01b0382166124105760405162461bcd60e51b815260040161086690614205565b61241b83838361091e565b612426600082612235565b6001600160a01b03831660009081526002602052604090206124489082612cd4565b506001600160a01b038216600090815260026020526040902061246b9082612ce0565b5061247860038284612cec565b5080826001600160a01b0316846001600160a01b03167fddf252ad1be2c89b69c2b068fc378daa952ba7f163c4a11628f55a4df523b3ef60405160405180910390a4505050565b6000610f688383612d02565b60008151116124ec5760405162461bcd60e51b815260040161086690614b12565b6124f4613380565b6000805b8351811015611aa857600084828151811061250f57fe5b60200260200101519050600081600001518051906020012090508084146125f457600b54825160405163b526233360e01b81526001600160a01b039092169163b52623339161256091600401613e29565b60006040518083038186803b15801561257857600080fd5b505afa15801561258c573d6000803e3d6000fd5b505050506040513d6000823e601f3d908101601f191682016040526125b49190810190613b2f565b9450809350600085602001511180156125d8575060208501516001600160d81b0310155b6125f45760405162461bcd60e51b815260040161086690614a1c565b6000826060015151116126195760405162461bcd60e51b815260040161086690614b42565b60008260200151118015612639575060408201516001600160a01b031615155b8061265c5750602082015115801561265c575060408201516001600160a01b0316155b6126785760405162461bcd60e51b81526004016108669061486e565b60115464ffffffffff811061269f5760405162461bcd60e51b815260040161086690614d61565b6040805160e0810182528751815260208089015181830152600082840181905286820151606080850191909152878501516001600160a01b0316608085015287015160a0840152835180830190945280845260c0830193909352601180546001810182559352815180519293849360079091027f31ecc21a745e3968a04e9570e4425bc18fa8019c68028196b546d1669c200c6801926127439284929101906132f4565b506020828101516001830155604083015160028301556060830151600383015560808301516004830180546001600160a01b0319166001600160a01b0390921691909117905560a083015180516127a092600585019201906132f4565b5060c082015180516127bc9160068401916020909101906132f4565b505050817f1464db75caec2c4f1b56b5246ef01a229ff5edc3b0fcf9b2953fec53b3987d8f826040516127ef9190614f04565b60405180910390a25050600190920191506124f89050565b60008080806128168686612d47565b909450925050505b9250929050565b805161283890600a9060208401906132f4565b5050565b60006123a9848484612da3565b6128516122a3565b8061287457506001600160a01b0381166000908152600d602052604090205460ff165b6128ee576000828152600f602090815260408083206001600160a01b0385168452909152902054806128b85760405162461bcd60e51b815260040161086690614e8c565b60001981146128ec576000838152600f602090815260408083206001600160a01b0386168452909152902080546000190190555b505b601154821061290f5760405162461bcd60e51b81526004016108669061443e565b60006011838154811061291e57fe5b90600052602060002090600702019050600061294860018360020154612e0290919063ffffffff16565b9050816001015481111561296e5760405162461bcd60e51b81526004016108669061455e565b600061297a858361201e565b60028401839055905061298d8682612e27565b8481876001600160a01b03167f57e2fe3f4d57a597e655a893f43c395d7dc18cb9c9c1898eda75cc0ad760852585886040516129ca929190614fa1565b60405180910390a4505050505050565b6129e58484846123b1565b6129f184848484612eeb565b611aa85760405162461bcd60e51b815260040161086690614040565b60608180612a345750506040805180820190915260018152600360fc1b6020820152610794565b8060005b8115612a4c57600101600a82049150612a38565b6000816001600160401b0381118015612a6457600080fd5b506040519080825280601f01601f191660200182016040528015612a8f576020820181803683370190505b50905060001982015b8415612add57600a850660300160f81b82828060019003935081518110612abb57fe5b60200101906001600160f81b031916908160001a905350600a85049450612a98565b5095945050505050565b60408051602880825260608281019093526000919060208201818036833701905050905060005b6014811015612bd55760008160130360080260020a856001600160a01b031681612b3457fe5b0460f81b9050600060108260f81c60ff1681612b4c57fe5b0460f81b905060008160f81c6010028360f81c0360f81b9050612b6e82612fca565b858560020281518110612b7d57fe5b60200101906001600160f81b031916908160001a905350612b9d81612fca565b858560020260010181518110612baf57fe5b60200101906001600160f81b031916908160001a9053505060019092019150612b0e9050565b5092915050565b6000612be66121d9565b600080546001600160a01b0319166001600160a01b0383169081178255604051929350917f8be0079c531659141344cd1fd0a4f28419497f9722a3daafe3b4186f6b6457e0908290a350565b8151612c459060079060208501906132f4565b508051612c599060089060208401906132f4565b50612c6a6380ac58cd60e01b612ffb565b612c7a635b5e139f60e01b612ffb565b61283863780e9d6360e01b612ffb565b6013805461ff0019166101001790556040517f01b7dcb42d49142a99e4c98da755263c600213a33b780986779405b9823501d390600090a1565b6000610f68838361304d565b5490565b6000610f688383613065565b6000610f68838361312b565b60006123a984846001600160a01b038516613175565b81546000908210612d255760405162461bcd60e51b815260040161086690613f0d565b826000018281548110612d3457fe5b9060005260206000200154905092915050565b815460009081908310612d6c5760405162461bcd60e51b815260040161086690614653565b6000846000018481548110612d7d57fe5b906000526020600020906002020190508060000154816001015492509250509250929050565b60008281526001840160205260408120548281612dd35760405162461bcd60e51b81526004016108669190613e29565b50846000016001820381548110612de657fe5b9060005260206000209060020201600101549150509392505050565b600082820183811015610f685760405162461bcd60e51b81526004016108669061417b565b6001600160a01b038216612e4d5760405162461bcd60e51b815260040161086690614695565b612e56816121cc565b15612e735760405162461bcd60e51b81526004016108669061410f565b612e7f6000838361091e565b6001600160a01b0382166000908152600260205260409020612ea19082612ce0565b50612eae60038284612cec565b5060405181906001600160a01b038416906000907fddf252ad1be2c89b69c2b068fc378daa952ba7f163c4a11628f55a4df523b3ef908290a45050565b6000612eff846001600160a01b031661320c565b612f0b575060016123a9565b6000612f93630a85bd0160e11b612f206121d9565b888787604051602401612f369493929190613dc6565b604051602081830303815290604052906001600160e01b0319166020820180516001600160e01b038381831617835250505050604051806060016040528060328152602001615119603291396001600160a01b0388169190613212565b9050600081806020019051810190612fab91906139f7565b6001600160e01b031916630a85bd0160e11b1492505050949350505050565b6000600a60f883901c1015612fea578160f81c60300160f81b9050610794565b8160f81c60570160f81b9050610794565b6001600160e01b031980821614156130255760405162461bcd60e51b8152600401610866906140d8565b6001600160e01b0319166000908152600160208190526040909120805460ff19169091179055565b60009081526001919091016020526040902054151590565b60008181526001830160205260408120548015613121578354600019808301919081019060009087908390811061309857fe5b90600052602060002001549050808760000184815481106130b557fe5b6000918252602080832090910192909255828152600189810190925260409020908401905586548790806130e557fe5b60019003818190600052602060002001600090559055866001016000878152602001908152602001600020600090556001945050505050610f6b565b6000915050610f6b565b6000613137838361304d565b61316d57508154600181810184556000848152602080822090930184905584548482528286019093526040902091909155610f6b565b506000610f6b565b6000828152600184016020526040812054806131da57505060408051808201825283815260208082018481528654600181810189556000898152848120955160029093029095019182559151908201558654868452818801909252929091205561231a565b828560000160018303815481106131ed57fe5b906000526020600020906002020160010181905550600091505061231a565b3b151590565b60606123a98484600085856132268561320c565b6132425760405162461bcd60e51b815260040161086690614bbb565b600080866001600160a01b0316858760405161325e9190613cfe565b60006040518083038185875af1925050503d806000811461329b576040519150601f19603f3d011682016040523d82523d6000602084013e6132a0565b606091505b50915091506132b08282866132bb565b979650505050505050565b606083156132ca57508161231a565b8251156132da5782518084602001fd5b8160405162461bcd60e51b81526004016108669190613e29565b828054600181600116156101000203166002900490600052602060002090601f01602090048101928261332a5760008555613370565b82601f1061334357805160ff1916838001178555613370565b82800160010185558215613370579182015b82811115613370578251825591602001919060010190613355565b5061337c9291506133a1565b5090565b60405180606001604052806060815260200160008152602001600081525090565b5b8082111561337c57600081556001016133a2565b8035610794816150ed565b60008083601f8401126133d2578182fd5b5081356001600160401b038111156133e8578182fd5b602083019150836020808302850101111561281e57600080fd5b600082601f830112613412578081fd5b8135602061342761342283615077565b615054565b82815281810190858301855b858110156134e85781358801608080601f19838d03011215613453578889fd5b604080518281016001600160401b03828210818311171561347057fe5b908352848a01359080821115613484578c8dfd5b6134928f8c84890101613505565b8352838601358b840152606091506134ab8287016133b6565b838501529385013593808511156134c0578c8dfd5b506134cf8e8b86880101613505565b9082015287525050509284019290840190600101613433565b5090979650505050505050565b8035801515811461079457600080fd5b600082601f830112613515578081fd5b813561352361342282615094565b818152846020838601011115613537578283fd5b816020850160208301379081016020019190915292915050565b600060208284031215613562578081fd5b8135610f68816150ed565b6000806040838503121561357f578081fd5b823561358a816150ed565b9150602083013561359a816150ed565b809150509250929050565b600080600080606085870312156135ba578182fd5b84356135c5816150ed565b935060208501356135d5816150ed565b925060408501356001600160401b038111156135ef578283fd5b6135fb878288016133c1565b95989497509550505050565b6000806000806080858703121561361c578182fd5b8435613627816150ed565b9350602085810135613638816150ed565b935060408601356001600160401b0380821115613653578485fd5b818801915088601f830112613666578485fd5b813561367461342282615077565b81815284810190848601868402860187018d1015613690578889fd5b8895505b838610156136b2578035835260019590950194918601918601613694565b509650505060608801359250808311156136ca578384fd5b50506136d887828801613505565b91505092959194509250565b6000806000606084860312156136f8578081fd5b8335613703816150ed565b92506020840135613713816150ed565b929592945050506040919091013590565b60008060008060808587031215613739578182fd5b8435613744816150ed565b93506020850135613754816150ed565b92506040850135915060608501356001600160401b03811115613775578182fd5b6136d887828801613505565b60008060408385031215613793578182fd5b823561379e816150ed565b91506137ac602084016134f5565b90509250929050565b600080604083850312156137c7578182fd5b82356137d2816150ed565b946020939093013593505050565b600080600080604085870312156137f5578182fd5b84356001600160401b038082111561380b578384fd5b613817888389016133c1565b9096509450602087013591508082111561382f578384fd5b506135fb878288016133c1565b60006020828403121561384d578081fd5b81356001600160401b03811115613862578182fd5b6123a984828501613402565b60008060008060008060608789031215613886578384fd5b86356001600160401b038082111561389c578586fd5b6138a88a838b016133c1565b909850965060208901359150808211156138c0578586fd5b6138cc8a838b016133c1565b909650945060408901359150808211156138e4578384fd5b506138f189828a016133c1565b979a9699509497509295939492505050565b6000806000806000806000806080898b03121561391e578586fd5b88356001600160401b0380821115613934578788fd5b6139408c838d016133c1565b909a50985060208b0135915080821115613958578788fd5b6139648c838d016133c1565b909850965060408b013591508082111561397c578384fd5b6139888c838d016133c1565b909650945060608b01359150808211156139a0578384fd5b506139ad8b828c016133c1565b999c989b5096995094979396929594505050565b6000602082840312156139d2578081fd5b610f68826134f5565b6000602082840312156139ec578081fd5b8135610f6881615102565b600060208284031215613a08578081fd5b8151610f6881615102565b600060208284031215613a24578081fd5b81356001600160401b03811115613a39578182fd5b6123a984828501613505565b600080600080600080600080610100898b031215613a61578182fd5b88356001600160401b0380821115613a77578384fd5b613a838c838d01613505565b995060208b0135915080821115613a98578384fd5b613aa48c838d01613505565b985060408b0135915080821115613ab9578384fd5b613ac58c838d01613505565b9750613ad360608c016133b6565b9650613ae160808c016134f5565b9550613aef60a08c016134f5565b9450613afd60c08c016133b6565b935060e08b0135915080821115613b12578283fd5b50613b1f8b828c01613402565b9150509295985092959890939650565b60006020808385031215613b41578182fd5b82516001600160401b0380821115613b57578384fd5b9084019060608287031215613b6a578384fd5b604051606081018181108382111715613b7f57fe5b604052825182811115613b90578586fd5b83019150601f82018713613ba2578485fd5b8151613bb061342282615094565b8181528886838601011115613bc3578687fd5b613bd2828783018887016150c1565b825250828401519381019390935250604090810151908201529392505050565b600060208284031215613c03578081fd5b5035919050565b60008060408385031215613c1c578182fd5b82359150602083013561359a816150ed565b60008060408385031215613c40578182fd5b50508035926020909101359150565b60008151808452613c678160208601602086016150c1565b601f01601f19169290920160200192915050565b60008154600180821660008114613c995760018114613cb757613cf5565b60028304607f16865260ff1983166020870152604086019350613cf5565b60028304808752613cc7866150b5565b60005b82811015613ceb5781546020828b0101528482019150602081019050613cca565b8801602001955050505b50505092915050565b60008251613d108184602087016150c1565b9190910192915050565b60008651613d2c818460208b016150c1565b865190830190613d40818360208b016150c1565b602f60f81b910181815261060f60f31b60018201528651909190613d6b816003850160208b016150c1565b600392019182018190528551613d88816004850160208a016150c1565b60049201918201528351613da38160058401602088016150c1565b01600501979650505050505050565b6001600160a01b0391909116815260200190565b6001600160a01b0385811682528416602082015260408101839052608060608201819052600090613df990830184613c4f565b9695505050505050565b901515815260200190565b91151582521515602082015260400190565b90815260200190565b600060208252610f686020830184613c4f565b600060408252613e4f6040830185613c4f565b8281036020840152613e618185613c4f565b95945050505050565b600060408252613e7d6040830185613c4f565b8281036020840152613e618185613c7b565b600060e08252613ea260e083018a613c4f565b6020830189905260408301889052606083018790526001600160a01b038616608084015282810360a0840152613ed88186613c4f565b905082810360c0840152613eec8185613c4f565b9a9950505050505050505050565b600060208252610f686020830184613c7b565b60208082526022908201527f456e756d657261626c655365743a20696e646578206f7574206f6620626f756e604082015261647360f01b606082015260800190565b6020808252601e908201527f656469744974656d73446174613a204c454e4754485f4d49534d415443480000604082015260600190565b6020808252601c908201527f7265736375654974656d733a204c454e4754485f4d49534d4154434800000000604082015260600190565b6020808252602c908201527f656469744974656d73446174613a20494e56414c49445f50524943455f414e4460408201526b5f42454e454649434941525960a01b606082015260800190565b6020808252601e908201527f7365744564697461626c653a2056414c55455f49535f5448455f53414d450000604082015260600190565b60208082526032908201527f4552433732313a207472616e7366657220746f206e6f6e20455243373231526560408201527131b2b4bb32b91034b6b83632b6b2b73a32b960711b606082015260800190565b60208082526026908201527f4f776e61626c653a206e6577206f776e657220697320746865207a65726f206160408201526564647265737360d01b606082015260800190565b6020808252601c908201527f4552433136353a20696e76616c696420696e7465726661636520696400000000604082015260600190565b6020808252601c908201527f4552433732313a20746f6b656e20616c7265616479206d696e74656400000000604082015260600190565b6020808252818101527f656e636f6465546f6b656e49643a20494e56414c49445f4953535545445f4944604082015260600190565b6020808252601b908201527f536166654d6174683a206164646974696f6e206f766572666c6f770000000000604082015260600190565b60208082526033908201527f7472616e7366657243726561746f72736869703a2043414c4c45525f49535f4e60408201527227aa2fa7aba722a92fa7a92fa1a922a0aa27a960691b606082015260800190565b60208082526024908201527f4552433732313a207472616e7366657220746f20746865207a65726f206164646040820152637265737360e01b606082015260800190565b60208082526019908201527f4552433732313a20617070726f766520746f2063616c6c657200000000000000604082015260600190565b60208082526024908201527f7365744d616e61676572733a20494e56414c49445f4d414e414745525f4144446040820152635245535360e01b606082015260800190565b6020808252601d908201527f6973737565546f6b656e733a204d494e545f4e4f545f414c4c4f574544000000604082015260600190565b6020808252601b908201527f696e697469616c697a653a20494e56414c49445f43524541544f520000000000604082015260600190565b6020808252602c908201527f4552433732313a206f70657261746f7220717565727920666f72206e6f6e657860408201526b34b9ba32b73a103a37b5b2b760a11b606082015260800190565b6020808252601e908201527f736574417070726f7665643a2056414c55455f49535f5448455f53414d450000604082015260600190565b60208082526022908201527f7365744d696e746572733a20494e56414c49445f4d494e5445525f4144445245604082015261535360f01b606082015260800190565b60208082526027908201527f7365744974656d734d696e746572733a20494e56414c49445f4d494e5445525f6040820152664144445245535360c81b606082015260800190565b6020808252818101527f5f6973737565546f6b656e3a204954454d5f444f45535f4e4f545f4558495354604082015260600190565b60208082526038908201527f4552433732313a20617070726f76652063616c6c6572206973206e6f74206f7760408201527f6e6572206e6f7220617070726f76656420666f7220616c6c0000000000000000606082015260800190565b60208082526024908201527f7365744974656d734d696e746572733a204954454d5f444f45535f4e4f545f45604082015263161254d560e21b606082015260800190565b6020808252602a908201527f4552433732313a2062616c616e636520717565727920666f7220746865207a65604082015269726f206164647265737360b01b606082015260800190565b6020808252601b908201527f5f6973737565546f6b656e3a204954454d5f4558484155535445440000000000604082015260600190565b6020808252601f908201527f696e697469616c697a653a20414c52454144595f494e495449414c495a454400604082015260600190565b6020808252601e908201527f5f6164644974656d3a20434f4c4c454354494f4e5f434f4d504c455445440000604082015260600190565b60208082526030908201527f636f6d706c657465436f6c6c656374696f6e3a20434f4c4c454354494f4e5f4160408201526f13149150511657d0d3d354131155115160821b606082015260800190565b60208082526022908201527f456e756d657261626c654d61703a20696e646578206f7574206f6620626f756e604082015261647360f01b606082015260800190565b6020808252818101527f4552433732313a206d696e7420746f20746865207a65726f2061646472657373604082015260600190565b6020808252602c908201527f4552433732313a20617070726f76656420717565727920666f72206e6f6e657860408201526b34b9ba32b73a103a37b5b2b760a11b606082015260800190565b6020808252818101527f4f776e61626c653a2063616c6c6572206973206e6f7420746865206f776e6572604082015260600190565b6020808252601a908201527f746f6b656e5552493a20494e56414c49445f544f4b454e5f4944000000000000604082015260600190565b6020808252818101527f7265736375654974656d733a204954454d5f444f45535f4e4f545f4558495354604082015260600190565b6020808252601e908201527f7365744d616e61676572733a2056414c55455f49535f5448455f53414d450000604082015260600190565b6020808252601b908201527f7365744d696e746572733a204c454e4754485f4d49534d415443480000000000604082015260600190565b60208082526029908201527f4552433732313a207472616e73666572206f6620746f6b656e2074686174206960408201526839903737ba1037bbb760b91b606082015260800190565b60208082526027908201527f5f6164644974656d3a20494e56414c49445f50524943455f414e445f42454e456040820152664649434941525960c81b606082015260800190565b60208082526021908201527f7365744974656d734d616e61676572733a204c454e4754485f4d49534d4154436040820152600960fb1b606082015260800190565b6020808252818101527f7365744974656d734d696e746572733a204c454e4754485f4d49534d41544348604082015260600190565b6020808252601c908201527f6973737565546f6b656e733a204c454e4754485f4d49534d4154434800000000604082015260600190565b60208082526022908201527f6f6e6c7943726561746f723a2043414c4c45525f49535f4e4f545f435245415460408201526127a960f11b606082015260800190565b60208082526021908201527f4552433732313a20617070726f76616c20746f2063757272656e74206f776e656040820152603960f91b606082015260800190565b6020808252601c908201527f7365744d616e61676572733a204c454e4754485f4d49534d4154434800000000604082015260600190565b60208082526018908201527f5f6164644974656d3a20494e56414c49445f5241524954590000000000000000604082015260600190565b6020808252601c908201527f696e697469616c697a653a20494e56414c49445f524152495449455300000000604082015260600190565b60208082526031908201527f4552433732313a207472616e736665722063616c6c6572206973206e6f74206f6040820152701ddb995c881b9bdc88185c1c1c9bdd9959607a1b606082015260800190565b6020808252601d908201527f656469744974656d73446174613a20454d5054595f4d45544144415441000000604082015260600190565b6020808252601690820152755f6164644974656d733a20454d5054595f4954454d5360501b604082015260600190565b60208082526018908201527f5f6164644974656d3a20454d5054595f4d455441444154410000000000000000604082015260600190565b60208082526022908201527f656469744974656d73446174613a204954454d5f444f45535f4e4f545f45584960408201526114d560f21b606082015260800190565b6020808252601d908201527f416464726573733a2063616c6c20746f206e6f6e2d636f6e7472616374000000604082015260600190565b6020808252602c908201527f7472616e7366657243726561746f72736869703a20494e56414c49445f43524560408201526b41544f525f4144445245535360a01b606082015260800190565b60208082526026908201527f656469744974656d73446174613a20434f4c4c454354494f4e5f4e4f545f4544604082015265495441424c4560d01b606082015260800190565b6020808252602f908201527f656469744974656d73446174613a2043414c4c45525f49535f4e4f545f43524560408201526e20aa27a92fa7a92fa6a0a720a3a2a960891b606082015260800190565b60208082526025908201527f7365744974656d734d616e61676572733a204954454d5f444f45535f4e4f545f60408201526411561254d560da1b606082015260800190565b60208082526029908201527f7365744974656d734d616e61676572733a20494e56414c49445f4d414e414745604082015268525f4144445245535360b81b606082015260800190565b6020808252601d908201527f5f6164644974656d3a204d41585f4954454d5f49445f52454143484544000000604082015260600190565b60208082526024908201527f656469744974656d73446174613a2043414e5f4e4f545f454449545f4d4554416040820152634441544160e01b606082015260800190565b6020808252601e908201527f656e636f6465546f6b656e49643a20494e56414c49445f4954454d5f49440000604082015260600190565b6020808252601d908201527f7365744d696e746572733a2056414c55455f49535f5448455f53414d45000000604082015260600190565b60208082526022908201527f7365744974656d734d696e746572733a2056414c55455f49535f5448455f53416040820152614d4560f01b606082015260800190565b6020808252818101527f5f6973737565546f6b656e3a2043414c4c45525f43414e5f4e4f545f4d494e54604082015260600190565b60208082526023908201527f7365744974656d734d616e61676572733a2056414c55455f49535f5448455f53604082015262414d4560e81b606082015260800190565b600060208252825160e06020840152614f21610100840182613c4f565b905060208401516040840152604084015160608401526060840151608084015260018060a01b0360808501511660a084015260a0840151601f19808584030160c0860152614f6f8383613c4f565b925060c08601519150808584030160e086015250613e618282613c4f565b6001600160d81b0391909116815260200190565b9182526001600160a01b0316602082015260400190565b8381526001600160a01b0383166020820152606060408201819052600090613e6190830184613c4f565b918252602082015260400190565b64ffffffffff91909116815260200190565b60ff91909116815260200190565b6000808335601e19843603018112615026578283fd5b8301803591506001600160401b0382111561503f578283fd5b60200191503681900382131561281e57600080fd5b6040518181016001600160401b038111828210171561506f57fe5b604052919050565b60006001600160401b0382111561508a57fe5b5060209081020190565b60006001600160401b038211156150a757fe5b50601f01601f191660200190565b60009081526020902090565b60005b838110156150dc5781810151838201526020016150c4565b83811115611aa85750506000910152565b6001600160a01b038116811461147057600080fd5b6001600160e01b03198116811461147057600080fdfe4552433732313a207472616e7366657220746f206e6f6e20455243373231526563656976657220696d706c656d656e7465724552433732313a206f776e657220717565727920666f72206e6f6e6578697374656e7420746f6b656ea26469706673582212201a69f1482100bfc51eb082f0e2cb48c841d6edd5e86e55518542cbf7d2a1c7c164736f6c63430007060033",
			"opcodes": "PUSH1 0x80 PUSH1 0x40 MSTORE CALLVALUE DUP1 ISZERO PUSH3 0x11 JUMPI PUSH1 0x0 DUP1 REVERT JUMPDEST POP PUSH3 0x24 PUSH4 0x1FFC9A7 PUSH1 0xE0 SHL PUSH3 0x2A JUMP JUMPDEST PUSH3 0xBF JUMP JUMPDEST PUSH1 0x1 PUSH1 0x1 PUSH1 0xE0 SHL SUB NOT DUP1 DUP3 AND EQ ISZERO PUSH3 0x60 JUMPI PUSH1 0x40 MLOAD PUSH3 0x461BCD PUSH1 0xE5 SHL DUP2 MSTORE PUSH1 0x4 ADD PUSH3 0x57 SWAP1 PUSH3 0x88 JUMP JUMPDEST PUSH1 0x40 MLOAD DUP1 SWAP2 SUB SWAP1 REVERT JUMPDEST PUSH1 0x1 PUSH1 0x1 PUSH1 0xE0 SHL SUB NOT AND PUSH1 0x0 SWAP1 DUP2 MSTORE PUSH1 0x1 PUSH1 0x20 DUP2 SWAP1 MSTORE PUSH1 0x40 SWAP1 SWAP2 KECCAK256 DUP1 SLOAD PUSH1 0xFF NOT AND SWAP1 SWAP2 OR SWAP1 SSTORE JUMP JUMPDEST PUSH1 0x20 DUP1 DUP3 MSTORE PUSH1 0x1C SWAP1 DUP3 ADD MSTORE PUSH32 0x4552433136353A20696E76616C696420696E7465726661636520696400000000 PUSH1 0x40 DUP3 ADD MSTORE PUSH1 0x60 ADD SWAP1 JUMP JUMPDEST PUSH2 0x51A9 DUP1 PUSH3 0xCF PUSH1 0x0 CODECOPY PUSH1 0x0 RETURN INVALID PUSH1 0x80 PUSH1 0x40 MSTORE CALLVALUE DUP1 ISZERO PUSH2 0x10 JUMPI PUSH1 0x0 DUP1 REVERT JUMPDEST POP PUSH1 0x4 CALLDATASIZE LT PUSH2 0x38E JUMPI PUSH1 0x0 CALLDATALOAD PUSH1 0xE0 SHR DUP1 PUSH4 0x6D2E4B1B GT PUSH2 0x1DE JUMPI DUP1 PUSH4 0xB88D4FDE GT PUSH2 0x10F JUMPI DUP1 PUSH4 0xE6170A53 GT PUSH2 0xAD JUMPI DUP1 PUSH4 0xF3993D11 GT PUSH2 0x7C JUMPI DUP1 PUSH4 0xF3993D11 EQ PUSH2 0x73E JUMPI DUP1 PUSH4 0xF59D9E3F EQ PUSH2 0x751 JUMPI DUP1 PUSH4 0xF6F07B63 EQ PUSH2 0x759 JUMPI DUP1 PUSH4 0xFA391C64 EQ PUSH2 0x76E JUMPI PUSH2 0x38E JUMP JUMPDEST DUP1 PUSH4 0xE6170A53 EQ PUSH2 0x6F2 JUMPI DUP1 PUSH4 0xE985E9C5 EQ PUSH2 0x705 JUMPI DUP1 PUSH4 0xEBD46D64 EQ PUSH2 0x718 JUMPI DUP1 PUSH4 0xF2FDE38B EQ PUSH2 0x72B JUMPI PUSH2 0x38E JUMP JUMPDEST DUP1 PUSH4 0xC87B56DD GT PUSH2 0xE9 JUMPI DUP1 PUSH4 0xC87B56DD EQ PUSH2 0x6BC JUMPI DUP1 PUSH4 0xCF09E0D0 EQ PUSH2 0x6CF JUMPI DUP1 PUSH4 0xD14FEE77 EQ PUSH2 0x6D7 JUMPI DUP1 PUSH4 0xE2C03ACE EQ PUSH2 0x6EA JUMPI PUSH2 0x38E JUMP JUMPDEST DUP1 PUSH4 0xB88D4FDE EQ PUSH2 0x670 JUMPI DUP1 PUSH4 0xBE4763B3 EQ PUSH2 0x683 JUMPI DUP1 PUSH4 0xBFB231D2 EQ PUSH2 0x696 JUMPI PUSH2 0x38E JUMP JUMPDEST DUP1 PUSH4 0x7EFD9112 GT PUSH2 0x17C JUMPI DUP1 PUSH4 0x95D89B41 GT PUSH2 0x156 JUMPI DUP1 PUSH4 0x95D89B41 EQ PUSH2 0x63A JUMPI DUP1 PUSH4 0xA22CB465 EQ PUSH2 0x642 JUMPI DUP1 PUSH4 0xB4C2025E EQ PUSH2 0x655 JUMPI DUP1 PUSH4 0xB4DA4E37 EQ PUSH2 0x668 JUMPI PUSH2 0x38E JUMP JUMPDEST DUP1 PUSH4 0x7EFD9112 EQ PUSH2 0x609 JUMPI DUP1 PUSH4 0x8DA5CB5B EQ PUSH2 0x62A JUMPI DUP1 PUSH4 0x950FA904 EQ PUSH2 0x632 JUMPI PUSH2 0x38E JUMP JUMPDEST DUP1 PUSH4 0x715018A6 GT PUSH2 0x1B8 JUMPI DUP1 PUSH4 0x715018A6 EQ PUSH2 0x5D3 JUMPI DUP1 PUSH4 0x7682DFCA EQ PUSH2 0x5DB JUMPI DUP1 PUSH4 0x7C8F76A1 EQ PUSH2 0x5EE JUMPI DUP1 PUSH4 0x7E12ACCE EQ PUSH2 0x601 JUMPI PUSH2 0x38E JUMP JUMPDEST DUP1 PUSH4 0x6D2E4B1B EQ PUSH2 0x59A JUMPI DUP1 PUSH4 0x6D67B1AB EQ PUSH2 0x5AD JUMPI DUP1 PUSH4 0x70A08231 EQ PUSH2 0x5C0 JUMPI PUSH2 0x38E JUMP JUMPDEST DUP1 PUSH4 0x30127574 GT PUSH2 0x2C3 JUMPI DUP1 PUSH4 0x42842E0E GT PUSH2 0x261 JUMPI DUP1 PUSH4 0x55F804B3 GT PUSH2 0x230 JUMPI DUP1 PUSH4 0x55F804B3 EQ PUSH2 0x557 JUMPI DUP1 PUSH4 0x5EC7C537 EQ PUSH2 0x56A JUMPI DUP1 PUSH4 0x6352211E EQ PUSH2 0x57F JUMPI DUP1 PUSH4 0x6C0360EB EQ PUSH2 0x592 JUMPI PUSH2 0x38E JUMP JUMPDEST DUP1 PUSH4 0x42842E0E EQ PUSH2 0x509 JUMPI DUP1 PUSH4 0x46D5A568 EQ PUSH2 0x51C JUMPI DUP1 PUSH4 0x48622018 EQ PUSH2 0x52F JUMPI DUP1 PUSH4 0x4F6CCCE7 EQ PUSH2 0x544 JUMPI PUSH2 0x38E JUMP JUMPDEST DUP1 PUSH4 0x3BDCC923 GT PUSH2 0x29D JUMPI DUP1 PUSH4 0x3BDCC923 EQ PUSH2 0x4BD JUMPI DUP1 PUSH4 0x3C963655 EQ PUSH2 0x4D0 JUMPI DUP1 PUSH4 0x41BCECED EQ PUSH2 0x4E3 JUMPI DUP1 PUSH4 0x425F60ED EQ PUSH2 0x4F6 JUMPI PUSH2 0x38E JUMP JUMPDEST DUP1 PUSH4 0x30127574 EQ PUSH2 0x4A5 JUMPI DUP1 PUSH4 0x392E53CD EQ PUSH2 0x4AD JUMPI DUP1 PUSH4 0x3992CD0D EQ PUSH2 0x4B5 JUMPI PUSH2 0x38E JUMP JUMPDEST DUP1 PUSH4 0x239A603B GT PUSH2 0x330 JUMPI DUP1 PUSH4 0x28F371AA GT PUSH2 0x30A JUMPI DUP1 PUSH4 0x28F371AA EQ PUSH2 0x46F JUMPI DUP1 PUSH4 0x2B481883 EQ PUSH2 0x477 JUMPI DUP1 PUSH4 0x2CB0D48A EQ PUSH2 0x47F JUMPI DUP1 PUSH4 0x2F745C59 EQ PUSH2 0x492 JUMPI PUSH2 0x38E JUMP JUMPDEST DUP1 PUSH4 0x239A603B EQ PUSH2 0x436 JUMPI DUP1 PUSH4 0x23B872DD EQ PUSH2 0x449 JUMPI DUP1 PUSH4 0x28CFBD46 EQ PUSH2 0x45C JUMPI PUSH2 0x38E JUMP JUMPDEST DUP1 PUSH4 0x81812FC GT PUSH2 0x36C JUMPI DUP1 PUSH4 0x81812FC EQ PUSH2 0x3E6 JUMPI DUP1 PUSH4 0x95EA7B3 EQ PUSH2 0x3F9 JUMPI DUP1 PUSH4 0xEBDE06E EQ PUSH2 0x40E JUMPI DUP1 PUSH4 0x18160DDD EQ PUSH2 0x421 JUMPI PUSH2 0x38E JUMP JUMPDEST DUP1 PUSH4 0x1FFC9A7 EQ PUSH2 0x393 JUMPI DUP1 PUSH4 0x2D05D3F EQ PUSH2 0x3BC JUMPI DUP1 PUSH4 0x6FDDE03 EQ PUSH2 0x3D1 JUMPI JUMPDEST PUSH1 0x0 DUP1 REVERT JUMPDEST PUSH2 0x3A6 PUSH2 0x3A1 CALLDATASIZE PUSH1 0x4 PUSH2 0x39DB JUMP JUMPDEST PUSH2 0x776 JUMP JUMPDEST PUSH1 0x40 MLOAD PUSH2 0x3B3 SWAP2 SWAP1 PUSH2 0x3E03 JUMP JUMPDEST PUSH1 0x40 MLOAD DUP1 SWAP2 SUB SWAP1 RETURN JUMPDEST PUSH2 0x3C4 PUSH2 0x799 JUMP JUMPDEST PUSH1 0x40 MLOAD PUSH2 0x3B3 SWAP2 SWAP1 PUSH2 0x3DB2 JUMP JUMPDEST PUSH2 0x3D9 PUSH2 0x7A8 JUMP JUMPDEST PUSH1 0x40 MLOAD PUSH2 0x3B3 SWAP2 SWAP1 PUSH2 0x3E29 JUMP JUMPDEST PUSH2 0x3C4 PUSH2 0x3F4 CALLDATASIZE PUSH1 0x4 PUSH2 0x3BF2 JUMP JUMPDEST PUSH2 0x83F JUMP JUMPDEST PUSH2 0x40C PUSH2 0x407 CALLDATASIZE PUSH1 0x4 PUSH2 0x37B5 JUMP JUMPDEST PUSH2 0x88B JUMP JUMPDEST STOP JUMPDEST PUSH2 0x40C PUSH2 0x41C CALLDATASIZE PUSH1 0x4 PUSH2 0x3903 JUMP JUMPDEST PUSH2 0x923 JUMP JUMPDEST PUSH2 0x429 PUSH2 0xC32 JUMP JUMPDEST PUSH1 0x40 MLOAD PUSH2 0x3B3 SWAP2 SWAP1 PUSH2 0x3E20 JUMP JUMPDEST PUSH2 0x40C PUSH2 0x444 CALLDATASIZE PUSH1 0x4 PUSH2 0x386E JUMP JUMPDEST PUSH2 0xC43 JUMP JUMPDEST PUSH2 0x40C PUSH2 0x457 CALLDATASIZE PUSH1 0x4 PUSH2 0x36E4 JUMP JUMPDEST PUSH2 0xE0A JUMP JUMPDEST PUSH2 0x40C PUSH2 0x46A CALLDATASIZE PUSH1 0x4 PUSH2 0x3607 JUMP JUMPDEST PUSH2 0xE42 JUMP JUMPDEST PUSH2 0x3A6 PUSH2 0xE7C JUMP JUMPDEST PUSH2 0x3A6 PUSH2 0xE8C JUMP JUMPDEST PUSH2 0x40C PUSH2 0x48D CALLDATASIZE PUSH1 0x4 PUSH2 0x39C1 JUMP JUMPDEST PUSH2 0xEB2 JUMP JUMPDEST PUSH2 0x429 PUSH2 0x4A0 CALLDATASIZE PUSH1 0x4 PUSH2 0x37B5 JUMP JUMPDEST PUSH2 0xF46 JUMP JUMPDEST PUSH2 0x40C PUSH2 0xF71 JUMP JUMPDEST PUSH2 0x3A6 PUSH2 0xFA3 JUMP JUMPDEST PUSH2 0x3C4 PUSH2 0xFAC JUMP JUMPDEST PUSH2 0x40C PUSH2 0x4CB CALLDATASIZE PUSH1 0x4 PUSH2 0x37E0 JUMP JUMPDEST PUSH2 0xFBB JUMP JUMPDEST PUSH2 0x40C PUSH2 0x4DE CALLDATASIZE PUSH1 0x4 PUSH2 0x386E JUMP JUMPDEST PUSH2 0x111E JUMP JUMPDEST PUSH2 0x40C PUSH2 0x4F1 CALLDATASIZE PUSH1 0x4 PUSH2 0x37E0 JUMP JUMPDEST PUSH2 0x12DC JUMP JUMPDEST PUSH2 0x40C PUSH2 0x504 CALLDATASIZE PUSH1 0x4 PUSH2 0x383C JUMP JUMPDEST PUSH2 0x143F JUMP JUMPDEST PUSH2 0x40C PUSH2 0x517 CALLDATASIZE PUSH1 0x4 PUSH2 0x36E4 JUMP JUMPDEST PUSH2 0x1473 JUMP JUMPDEST PUSH2 0x40C PUSH2 0x52A CALLDATASIZE PUSH1 0x4 PUSH2 0x39C1 JUMP JUMPDEST PUSH2 0x148E JUMP JUMPDEST PUSH2 0x537 PUSH2 0x1525 JUMP JUMPDEST PUSH1 0x40 MLOAD PUSH2 0x3B3 SWAP2 SWAP1 PUSH2 0x4FF0 JUMP JUMPDEST PUSH2 0x429 PUSH2 0x552 CALLDATASIZE PUSH1 0x4 PUSH2 0x3BF2 JUMP JUMPDEST PUSH2 0x152E JUMP JUMPDEST PUSH2 0x40C PUSH2 0x565 CALLDATASIZE PUSH1 0x4 PUSH2 0x3A13 JUMP JUMPDEST PUSH2 0x1544 JUMP JUMPDEST PUSH2 0x572 PUSH2 0x15C2 JUMP JUMPDEST PUSH1 0x40 MLOAD PUSH2 0x3B3 SWAP2 SWAP1 PUSH2 0x5002 JUMP JUMPDEST PUSH2 0x3C4 PUSH2 0x58D CALLDATASIZE PUSH1 0x4 PUSH2 0x3BF2 JUMP JUMPDEST PUSH2 0x15C7 JUMP JUMPDEST PUSH2 0x3D9 PUSH2 0x15EF JUMP JUMPDEST PUSH2 0x40C PUSH2 0x5A8 CALLDATASIZE PUSH1 0x4 PUSH2 0x3551 JUMP JUMPDEST PUSH2 0x1650 JUMP JUMPDEST PUSH2 0x429 PUSH2 0x5BB CALLDATASIZE PUSH1 0x4 PUSH2 0x3C0A JUMP JUMPDEST PUSH2 0x172F JUMP JUMPDEST PUSH2 0x429 PUSH2 0x5CE CALLDATASIZE PUSH1 0x4 PUSH2 0x3551 JUMP JUMPDEST PUSH2 0x174C JUMP JUMPDEST PUSH2 0x40C PUSH2 0x1795 JUMP JUMPDEST PUSH2 0x3A6 PUSH2 0x5E9 CALLDATASIZE PUSH1 0x4 PUSH2 0x3551 JUMP JUMPDEST PUSH2 0x1814 JUMP JUMPDEST PUSH2 0x40C PUSH2 0x5FC CALLDATASIZE PUSH1 0x4 PUSH2 0x37E0 JUMP JUMPDEST PUSH2 0x1829 JUMP JUMPDEST PUSH2 0x429 PUSH2 0x18D0 JUMP JUMPDEST PUSH2 0x61C PUSH2 0x617 CALLDATASIZE PUSH1 0x4 PUSH2 0x3BF2 JUMP JUMPDEST PUSH2 0x18F4 JUMP JUMPDEST PUSH1 0x40 MLOAD PUSH2 0x3B3 SWAP3 SWAP2 SWAP1 PUSH2 0x4FE2 JUMP JUMPDEST PUSH2 0x3C4 PUSH2 0x1908 JUMP JUMPDEST PUSH2 0x572 PUSH2 0x1917 JUMP JUMPDEST PUSH2 0x3D9 PUSH2 0x191C JUMP JUMPDEST PUSH2 0x40C PUSH2 0x650 CALLDATASIZE PUSH1 0x4 PUSH2 0x3781 JUMP JUMPDEST PUSH2 0x197D JUMP JUMPDEST PUSH2 0x3A6 PUSH2 0x663 CALLDATASIZE PUSH1 0x4 PUSH2 0x3551 JUMP JUMPDEST PUSH2 0x1A4B JUMP JUMPDEST PUSH2 0x3A6 PUSH2 0x1A60 JUMP JUMPDEST PUSH2 0x40C PUSH2 0x67E CALLDATASIZE PUSH1 0x4 PUSH2 0x3724 JUMP JUMPDEST PUSH2 0x1A6F JUMP JUMPDEST PUSH2 0x3A6 PUSH2 0x691 CALLDATASIZE PUSH1 0x4 PUSH2 0x3C0A JUMP JUMPDEST PUSH2 0x1AAE JUMP JUMPDEST PUSH2 0x6A9 PUSH2 0x6A4 CALLDATASIZE PUSH1 0x4 PUSH2 0x3BF2 JUMP JUMPDEST PUSH2 0x1ACE JUMP JUMPDEST PUSH1 0x40 MLOAD PUSH2 0x3B3 SWAP8 SWAP7 SWAP6 SWAP5 SWAP4 SWAP3 SWAP2 SWAP1 PUSH2 0x3E8F JUMP JUMPDEST PUSH2 0x3D9 PUSH2 0x6CA CALLDATASIZE PUSH1 0x4 PUSH2 0x3BF2 JUMP JUMPDEST PUSH2 0x1CC6 JUMP JUMPDEST PUSH2 0x429 PUSH2 0x1D58 JUMP JUMPDEST PUSH2 0x40C PUSH2 0x6E5 CALLDATASIZE PUSH1 0x4 PUSH2 0x3A45 JUMP JUMPDEST PUSH2 0x1D5E JUMP JUMPDEST PUSH2 0x429 PUSH2 0x1E48 JUMP JUMPDEST PUSH2 0x40C PUSH2 0x700 CALLDATASIZE PUSH1 0x4 PUSH2 0x386E JUMP JUMPDEST PUSH2 0x1E4E JUMP JUMPDEST PUSH2 0x3A6 PUSH2 0x713 CALLDATASIZE PUSH1 0x4 PUSH2 0x356D JUMP JUMPDEST PUSH2 0x1FF0 JUMP JUMPDEST PUSH2 0x429 PUSH2 0x726 CALLDATASIZE PUSH1 0x4 PUSH2 0x3C2E JUMP JUMPDEST PUSH2 0x201E JUMP JUMPDEST PUSH2 0x40C PUSH2 0x739 CALLDATASIZE PUSH1 0x4 PUSH2 0x3551 JUMP JUMPDEST PUSH2 0x2077 JUMP JUMPDEST PUSH2 0x40C PUSH2 0x74C CALLDATASIZE PUSH1 0x4 PUSH2 0x35A5 JUMP JUMPDEST PUSH2 0x212D JUMP JUMPDEST PUSH2 0x40C PUSH2 0x215D JUMP JUMPDEST PUSH2 0x761 PUSH2 0x21B3 JUMP JUMPDEST PUSH1 0x40 MLOAD PUSH2 0x3B3 SWAP2 SWAP1 PUSH2 0x4F8D JUMP JUMPDEST PUSH2 0x3A6 PUSH2 0x21BE JUMP JUMPDEST PUSH1 0x1 PUSH1 0x1 PUSH1 0xE0 SHL SUB NOT DUP2 AND PUSH1 0x0 SWAP1 DUP2 MSTORE PUSH1 0x1 PUSH1 0x20 MSTORE PUSH1 0x40 SWAP1 KECCAK256 SLOAD PUSH1 0xFF AND JUMPDEST SWAP2 SWAP1 POP JUMP JUMPDEST PUSH1 0xC SLOAD PUSH1 0x1 PUSH1 0x1 PUSH1 0xA0 SHL SUB AND DUP2 JUMP JUMPDEST PUSH1 0x7 DUP1 SLOAD PUSH1 0x40 DUP1 MLOAD PUSH1 0x20 PUSH1 0x1F PUSH1 0x2 PUSH1 0x0 NOT PUSH2 0x100 PUSH1 0x1 DUP9 AND ISZERO MUL ADD SWAP1 SWAP6 AND SWAP5 SWAP1 SWAP5 DIV SWAP4 DUP5 ADD DUP2 SWAP1 DIV DUP2 MUL DUP3 ADD DUP2 ADD SWAP1 SWAP3 MSTORE DUP3 DUP2 MSTORE PUSH1 0x60 SWAP4 SWAP1 SWAP3 SWAP1 SWAP2 DUP4 ADD DUP3 DUP3 DUP1 ISZERO PUSH2 0x834 JUMPI DUP1 PUSH1 0x1F LT PUSH2 0x809 JUMPI PUSH2 0x100 DUP1 DUP4 SLOAD DIV MUL DUP4 MSTORE SWAP2 PUSH1 0x20 ADD SWAP2 PUSH2 0x834 JUMP JUMPDEST DUP3 ADD SWAP2 SWAP1 PUSH1 0x0 MSTORE PUSH1 0x20 PUSH1 0x0 KECCAK256 SWAP1 JUMPDEST DUP2 SLOAD DUP2 MSTORE SWAP1 PUSH1 0x1 ADD SWAP1 PUSH1 0x20 ADD DUP1 DUP4 GT PUSH2 0x817 JUMPI DUP3 SWAP1 SUB PUSH1 0x1F AND DUP3 ADD SWAP2 JUMPDEST POP POP POP POP POP SWAP1 POP JUMPDEST SWAP1 JUMP JUMPDEST PUSH1 0x0 PUSH2 0x84A DUP3 PUSH2 0x21CC JUMP JUMPDEST PUSH2 0x86F JUMPI PUSH1 0x40 MLOAD PUSH3 0x461BCD PUSH1 0xE5 SHL DUP2 MSTORE PUSH1 0x4 ADD PUSH2 0x866 SWAP1 PUSH2 0x46CA JUMP JUMPDEST PUSH1 0x40 MLOAD DUP1 SWAP2 SUB SWAP1 REVERT JUMPDEST POP PUSH1 0x0 SWAP1 DUP2 MSTORE PUSH1 0x5 PUSH1 0x20 MSTORE PUSH1 0x40 SWAP1 KECCAK256 SLOAD PUSH1 0x1 PUSH1 0x1 PUSH1 0xA0 SHL SUB AND SWAP1 JUMP JUMPDEST PUSH1 0x0 PUSH2 0x896 DUP3 PUSH2 0x15C7 JUMP JUMPDEST SWAP1 POP DUP1 PUSH1 0x1 PUSH1 0x1 PUSH1 0xA0 SHL SUB AND DUP4 PUSH1 0x1 PUSH1 0x1 PUSH1 0xA0 SHL SUB AND EQ ISZERO PUSH2 0x8CA JUMPI PUSH1 0x40 MLOAD PUSH3 0x461BCD PUSH1 0xE5 SHL DUP2 MSTORE PUSH1 0x4 ADD PUSH2 0x866 SWAP1 PUSH2 0x49A4 JUMP JUMPDEST DUP1 PUSH1 0x1 PUSH1 0x1 PUSH1 0xA0 SHL SUB AND PUSH2 0x8DC PUSH2 0x21D9 JUMP JUMPDEST PUSH1 0x1 PUSH1 0x1 PUSH1 0xA0 SHL SUB AND EQ DUP1 PUSH2 0x8F8 JUMPI POP PUSH2 0x8F8 DUP2 PUSH2 0x713 PUSH2 0x21D9 JUMP JUMPDEST PUSH2 0x914 JUMPI PUSH1 0x40 MLOAD PUSH3 0x461BCD PUSH1 0xE5 SHL DUP2 MSTORE PUSH1 0x4 ADD PUSH2 0x866 SWAP1 PUSH2 0x4473 JUMP JUMPDEST PUSH2 0x91E DUP4 DUP4 PUSH2 0x2235 JUMP JUMPDEST POP POP POP JUMP JUMPDEST DUP7 DUP6 EQ DUP1 ISZERO PUSH2 0x931 JUMPI POP DUP5 DUP4 EQ JUMPDEST DUP1 ISZERO PUSH2 0x93C JUMPI POP DUP3 DUP2 EQ JUMPDEST PUSH2 0x958 JUMPI PUSH1 0x40 MLOAD PUSH3 0x461BCD PUSH1 0xE5 SHL DUP2 MSTORE PUSH1 0x4 ADD PUSH2 0x866 SWAP1 PUSH2 0x3F4F JUMP JUMPDEST PUSH1 0x13 SLOAD PUSH3 0x10000 SWAP1 DIV PUSH1 0xFF AND PUSH2 0x980 JUMPI PUSH1 0x40 MLOAD PUSH3 0x461BCD PUSH1 0xE5 SHL DUP2 MSTORE PUSH1 0x4 ADD PUSH2 0x866 SWAP1 PUSH2 0x4C3E JUMP JUMPDEST PUSH1 0x0 JUMPDEST DUP8 DUP2 LT ISZERO PUSH2 0xC27 JUMPI PUSH1 0x0 DUP10 DUP10 DUP4 DUP2 DUP2 LT PUSH2 0x999 JUMPI INVALID JUMPDEST SWAP1 POP PUSH1 0x20 MUL ADD CALLDATALOAD SWAP1 POP PUSH1 0x0 DUP9 DUP9 DUP5 DUP2 DUP2 LT PUSH2 0x9B0 JUMPI INVALID JUMPDEST SWAP1 POP PUSH1 0x20 MUL ADD CALLDATALOAD SWAP1 POP PUSH1 0x0 DUP8 DUP8 DUP6 DUP2 DUP2 LT PUSH2 0x9C7 JUMPI INVALID JUMPDEST SWAP1 POP PUSH1 0x20 MUL ADD PUSH1 0x20 DUP2 ADD SWAP1 PUSH2 0x9DC SWAP2 SWAP1 PUSH2 0x3551 JUMP JUMPDEST SWAP1 POP PUSH1 0x0 DUP7 DUP7 DUP7 DUP2 DUP2 LT PUSH2 0x9EC JUMPI INVALID JUMPDEST SWAP1 POP PUSH1 0x20 MUL DUP2 ADD SWAP1 PUSH2 0x9FE SWAP2 SWAP1 PUSH2 0x5010 JUMP JUMPDEST DUP1 DUP1 PUSH1 0x1F ADD PUSH1 0x20 DUP1 SWAP2 DIV MUL PUSH1 0x20 ADD PUSH1 0x40 MLOAD SWAP1 DUP2 ADD PUSH1 0x40 MSTORE DUP1 SWAP4 SWAP3 SWAP2 SWAP1 DUP2 DUP2 MSTORE PUSH1 0x20 ADD DUP4 DUP4 DUP1 DUP3 DUP5 CALLDATACOPY PUSH1 0x0 SWAP3 ADD SWAP2 SWAP1 SWAP2 MSTORE POP SWAP3 SWAP4 POP PUSH2 0xA3F SWAP3 POP PUSH2 0x22A3 SWAP2 POP POP JUMP JUMPDEST DUP1 PUSH2 0xA4E JUMPI POP PUSH2 0xA4E DUP5 PUSH2 0x22C3 JUMP JUMPDEST PUSH2 0xA6A JUMPI PUSH1 0x40 MLOAD PUSH3 0x461BCD PUSH1 0xE5 SHL DUP2 MSTORE PUSH1 0x4 ADD PUSH2 0x866 SWAP1 PUSH2 0x4C84 JUMP JUMPDEST PUSH1 0x11 SLOAD DUP5 LT PUSH2 0xA8B JUMPI PUSH1 0x40 MLOAD PUSH3 0x461BCD PUSH1 0xE5 SHL DUP2 MSTORE PUSH1 0x4 ADD PUSH2 0x866 SWAP1 PUSH2 0x4B79 JUMP JUMPDEST PUSH1 0x0 DUP4 GT DUP1 ISZERO PUSH2 0xAA3 JUMPI POP PUSH1 0x1 PUSH1 0x1 PUSH1 0xA0 SHL SUB DUP3 AND ISZERO ISZERO JUMPDEST DUP1 PUSH2 0xABE JUMPI POP DUP3 ISZERO DUP1 ISZERO PUSH2 0xABE JUMPI POP PUSH1 0x1 PUSH1 0x1 PUSH1 0xA0 SHL SUB DUP3 AND ISZERO JUMPDEST PUSH2 0xADA JUMPI PUSH1 0x40 MLOAD PUSH3 0x461BCD PUSH1 0xE5 SHL DUP2 MSTORE PUSH1 0x4 ADD PUSH2 0x866 SWAP1 PUSH2 0x3FBD JUMP JUMPDEST PUSH1 0x0 DUP2 MLOAD GT PUSH2 0xAFB JUMPI PUSH1 0x40 MLOAD PUSH3 0x461BCD PUSH1 0xE5 SHL DUP2 MSTORE PUSH1 0x4 ADD PUSH2 0x866 SWAP1 PUSH2 0x4ADB JUMP JUMPDEST PUSH1 0x0 PUSH1 0x11 DUP6 DUP2 SLOAD DUP2 LT PUSH2 0xB0A JUMPI INVALID JUMPDEST SWAP1 PUSH1 0x0 MSTORE PUSH1 0x20 PUSH1 0x0 KECCAK256 SWAP1 PUSH1 0x7 MUL ADD SWAP1 POP PUSH1 0x13 PUSH1 0x3 SWAP1 SLOAD SWAP1 PUSH2 0x100 EXP SWAP1 DIV PUSH1 0xFF AND ISZERO DUP1 PUSH2 0xB84 JUMPI POP DUP2 PUSH1 0x40 MLOAD PUSH1 0x20 ADD PUSH2 0xB42 SWAP2 SWAP1 PUSH2 0x3E29 JUMP JUMPDEST PUSH1 0x40 MLOAD PUSH1 0x20 DUP2 DUP4 SUB SUB DUP2 MSTORE SWAP1 PUSH1 0x40 MSTORE DUP1 MLOAD SWAP1 PUSH1 0x20 ADD KECCAK256 DUP2 PUSH1 0x5 ADD PUSH1 0x40 MLOAD PUSH1 0x20 ADD PUSH2 0xB6C SWAP2 SWAP1 PUSH2 0x3EFA JUMP JUMPDEST PUSH1 0x40 MLOAD PUSH1 0x20 DUP2 DUP4 SUB SUB DUP2 MSTORE SWAP1 PUSH1 0x40 MSTORE DUP1 MLOAD SWAP1 PUSH1 0x20 ADD KECCAK256 EQ JUMPDEST PUSH2 0xBA0 JUMPI PUSH1 0x40 MLOAD PUSH3 0x461BCD PUSH1 0xE5 SHL DUP2 MSTORE PUSH1 0x4 ADD PUSH2 0x866 SWAP1 PUSH2 0x4D98 JUMP JUMPDEST PUSH1 0x3 DUP2 ADD DUP5 SWAP1 SSTORE PUSH1 0x4 DUP2 ADD DUP1 SLOAD PUSH1 0x1 PUSH1 0x1 PUSH1 0xA0 SHL SUB NOT AND PUSH1 0x1 PUSH1 0x1 PUSH1 0xA0 SHL SUB DUP6 AND OR SWAP1 SSTORE DUP2 MLOAD PUSH2 0xBD9 SWAP1 PUSH1 0x5 DUP4 ADD SWAP1 PUSH1 0x20 DUP6 ADD SWAP1 PUSH2 0x32F4 JUMP JUMPDEST POP DUP5 PUSH32 0xC3835F7DD5063BBC8FDC7077944498159008D73D30BF55FE6513E683C8C38209 DUP6 DUP6 DUP6 PUSH1 0x40 MLOAD PUSH2 0xC0E SWAP4 SWAP3 SWAP2 SWAP1 PUSH2 0x4FB8 JUMP JUMPDEST PUSH1 0x40 MLOAD DUP1 SWAP2 SUB SWAP1 LOG2 POP POP PUSH1 0x1 SWAP1 SWAP4 ADD SWAP3 POP PUSH2 0x983 SWAP2 POP POP JUMP JUMPDEST POP POP POP POP POP POP POP POP POP JUMP JUMPDEST PUSH1 0x0 PUSH2 0xC3E PUSH1 0x3 PUSH2 0x2321 JUMP JUMPDEST SWAP1 POP SWAP1 JUMP JUMPDEST PUSH2 0xC4B PUSH2 0x22A3 JUMP JUMPDEST PUSH2 0xC67 JUMPI PUSH1 0x40 MLOAD PUSH3 0x461BCD PUSH1 0xE5 SHL DUP2 MSTORE PUSH1 0x4 ADD PUSH2 0x866 SWAP1 PUSH2 0x4962 JUMP JUMPDEST DUP5 DUP4 EQ DUP1 ISZERO PUSH2 0xC75 JUMPI POP DUP3 DUP2 EQ JUMPDEST PUSH2 0xC91 JUMPI PUSH1 0x40 MLOAD PUSH3 0x461BCD PUSH1 0xE5 SHL DUP2 MSTORE PUSH1 0x4 ADD PUSH2 0x866 SWAP1 PUSH2 0x48B5 JUMP JUMPDEST PUSH1 0x0 JUMPDEST DUP4 DUP2 LT ISZERO PUSH2 0xE01 JUMPI PUSH1 0x0 DUP6 DUP6 DUP4 DUP2 DUP2 LT PUSH2 0xCAA JUMPI INVALID JUMPDEST SWAP1 POP PUSH1 0x20 MUL ADD PUSH1 0x20 DUP2 ADD SWAP1 PUSH2 0xCBF SWAP2 SWAP1 PUSH2 0x3551 JUMP JUMPDEST SWAP1 POP PUSH1 0x0 DUP9 DUP9 DUP5 DUP2 DUP2 LT PUSH2 0xCCF JUMPI INVALID JUMPDEST SWAP1 POP PUSH1 0x20 MUL ADD CALLDATALOAD SWAP1 POP PUSH1 0x0 DUP6 DUP6 DUP6 DUP2 DUP2 LT PUSH2 0xCE6 JUMPI INVALID JUMPDEST SWAP1 POP PUSH1 0x20 MUL ADD PUSH1 0x20 DUP2 ADD SWAP1 PUSH2 0xCFB SWAP2 SWAP1 PUSH2 0x39C1 JUMP JUMPDEST SWAP1 POP PUSH1 0x1 PUSH1 0x1 PUSH1 0xA0 SHL SUB DUP4 AND PUSH2 0xD23 JUMPI PUSH1 0x40 MLOAD PUSH3 0x461BCD PUSH1 0xE5 SHL DUP2 MSTORE PUSH1 0x4 ADD PUSH2 0x866 SWAP1 PUSH2 0x4D18 JUMP JUMPDEST PUSH1 0x11 SLOAD DUP3 LT PUSH2 0xD44 JUMPI PUSH1 0x40 MLOAD PUSH3 0x461BCD PUSH1 0xE5 SHL DUP2 MSTORE PUSH1 0x4 ADD PUSH2 0x866 SWAP1 PUSH2 0x4CD3 JUMP JUMPDEST PUSH1 0x0 DUP3 DUP2 MSTORE PUSH1 0x10 PUSH1 0x20 SWAP1 DUP2 MSTORE PUSH1 0x40 DUP1 DUP4 KECCAK256 PUSH1 0x1 PUSH1 0x1 PUSH1 0xA0 SHL SUB DUP8 AND DUP5 MSTORE SWAP1 SWAP2 MSTORE SWAP1 KECCAK256 SLOAD PUSH1 0xFF AND ISZERO ISZERO DUP2 ISZERO ISZERO EQ ISZERO PUSH2 0xD8D JUMPI PUSH1 0x40 MLOAD PUSH3 0x461BCD PUSH1 0xE5 SHL DUP2 MSTORE PUSH1 0x4 ADD PUSH2 0x866 SWAP1 PUSH2 0x4EC1 JUMP JUMPDEST PUSH1 0x0 DUP3 DUP2 MSTORE PUSH1 0x10 PUSH1 0x20 SWAP1 DUP2 MSTORE PUSH1 0x40 DUP1 DUP4 KECCAK256 PUSH1 0x1 PUSH1 0x1 PUSH1 0xA0 SHL SUB DUP8 AND DUP1 DUP6 MSTORE SWAP3 MSTORE SWAP2 DUP3 SWAP1 KECCAK256 DUP1 SLOAD PUSH1 0xFF NOT AND DUP5 ISZERO ISZERO OR SWAP1 SSTORE SWAP1 MLOAD DUP4 SWAP1 PUSH32 0x1271B13CF757EFD2A177FE5F26C2111B69CE904F1D0E3372832DC4E4773298CC SWAP1 PUSH2 0xDEE SWAP1 DUP6 SWAP1 PUSH2 0x3E03 JUMP JUMPDEST PUSH1 0x40 MLOAD DUP1 SWAP2 SUB SWAP1 LOG3 POP POP POP PUSH1 0x1 ADD PUSH2 0xC94 JUMP JUMPDEST POP POP POP POP POP POP POP JUMP JUMPDEST PUSH2 0xE1B PUSH2 0xE15 PUSH2 0x21D9 JUMP JUMPDEST DUP3 PUSH2 0x232C JUMP JUMPDEST PUSH2 0xE37 JUMPI PUSH1 0x40 MLOAD PUSH3 0x461BCD PUSH1 0xE5 SHL DUP2 MSTORE PUSH1 0x4 ADD PUSH2 0x866 SWAP1 PUSH2 0x4A8A JUMP JUMPDEST PUSH2 0x91E DUP4 DUP4 DUP4 PUSH2 0x23B1 JUMP JUMPDEST PUSH1 0x0 JUMPDEST DUP3 MLOAD DUP2 LT ISZERO PUSH2 0xE75 JUMPI PUSH2 0xE6D DUP6 DUP6 DUP6 DUP5 DUP2 MLOAD DUP2 LT PUSH2 0xE5F JUMPI INVALID JUMPDEST PUSH1 0x20 MUL PUSH1 0x20 ADD ADD MLOAD DUP6 PUSH2 0x1A6F JUMP JUMPDEST PUSH1 0x1 ADD PUSH2 0xE45 JUMP JUMPDEST POP POP POP POP POP JUMP JUMPDEST PUSH1 0x13 SLOAD PUSH4 0x1000000 SWAP1 DIV PUSH1 0xFF AND DUP2 JUMP JUMPDEST PUSH1 0x13 SLOAD PUSH1 0x0 SWAP1 PUSH2 0x100 SWAP1 DIV PUSH1 0xFF AND DUP1 ISZERO PUSH2 0xC3E JUMPI POP POP PUSH1 0x13 SLOAD PUSH4 0x1000000 SWAP1 DIV PUSH1 0xFF AND SWAP1 JUMP JUMPDEST PUSH1 0x13 SLOAD PUSH1 0xFF PUSH3 0x10000 SWAP1 SWAP2 DIV AND ISZERO ISZERO DUP2 ISZERO ISZERO EQ ISZERO PUSH2 0xEE2 JUMPI PUSH1 0x40 MLOAD PUSH3 0x461BCD PUSH1 0xE5 SHL DUP2 MSTORE PUSH1 0x4 ADD PUSH2 0x866 SWAP1 PUSH2 0x4009 JUMP JUMPDEST PUSH32 0xC8CA126810B77BFDCB10AE82EF3BC72619D404F9E3C4BF2057F03F057DCF230A PUSH1 0x13 PUSH1 0x2 SWAP1 SLOAD SWAP1 PUSH2 0x100 EXP SWAP1 DIV PUSH1 0xFF AND DUP3 PUSH1 0x40 MLOAD PUSH2 0xF22 SWAP3 SWAP2 SWAP1 PUSH2 0x3E0E JUMP JUMPDEST PUSH1 0x40 MLOAD DUP1 SWAP2 SUB SWAP1 LOG1 PUSH1 0x13 DUP1 SLOAD SWAP2 ISZERO ISZERO PUSH3 0x10000 MUL PUSH3 0xFF0000 NOT SWAP1 SWAP3 AND SWAP2 SWAP1 SWAP2 OR SWAP1 SSTORE JUMP JUMPDEST PUSH1 0x1 PUSH1 0x1 PUSH1 0xA0 SHL SUB DUP3 AND PUSH1 0x0 SWAP1 DUP2 MSTORE PUSH1 0x2 PUSH1 0x20 MSTORE PUSH1 0x40 DUP2 KECCAK256 PUSH2 0xF68 SWAP1 DUP4 PUSH2 0x24BF JUMP JUMPDEST SWAP1 POP JUMPDEST SWAP3 SWAP2 POP POP JUMP JUMPDEST PUSH1 0x13 SLOAD PUSH1 0xFF AND ISZERO PUSH2 0xF94 JUMPI PUSH1 0x40 MLOAD PUSH3 0x461BCD PUSH1 0xE5 SHL DUP2 MSTORE PUSH1 0x4 ADD PUSH2 0x866 SWAP1 PUSH2 0x4595 JUMP JUMPDEST PUSH1 0x13 DUP1 SLOAD PUSH1 0xFF NOT AND PUSH1 0x1 OR SWAP1 SSTORE JUMP JUMPDEST PUSH1 0x13 SLOAD PUSH1 0xFF AND DUP2 JUMP JUMPDEST PUSH1 0xB SLOAD PUSH1 0x1 PUSH1 0x1 PUSH1 0xA0 SHL SUB AND DUP2 JUMP JUMPDEST PUSH2 0xFC3 PUSH2 0x22A3 JUMP JUMPDEST PUSH2 0xFDF JUMPI PUSH1 0x40 MLOAD PUSH3 0x461BCD PUSH1 0xE5 SHL DUP2 MSTORE PUSH1 0x4 ADD PUSH2 0x866 SWAP1 PUSH2 0x4962 JUMP JUMPDEST DUP3 DUP2 EQ PUSH2 0xFFE JUMPI PUSH1 0x40 MLOAD PUSH3 0x461BCD PUSH1 0xE5 SHL DUP2 MSTORE PUSH1 0x4 ADD PUSH2 0x866 SWAP1 PUSH2 0x49E5 JUMP JUMPDEST PUSH1 0x0 JUMPDEST DUP4 DUP2 LT ISZERO PUSH2 0xE75 JUMPI PUSH1 0x0 DUP6 DUP6 DUP4 DUP2 DUP2 LT PUSH2 0x1017 JUMPI INVALID JUMPDEST SWAP1 POP PUSH1 0x20 MUL ADD PUSH1 0x20 DUP2 ADD SWAP1 PUSH2 0x102C SWAP2 SWAP1 PUSH2 0x3551 JUMP JUMPDEST SWAP1 POP PUSH1 0x0 DUP5 DUP5 DUP5 DUP2 DUP2 LT PUSH2 0x103C JUMPI INVALID JUMPDEST SWAP1 POP PUSH1 0x20 MUL ADD PUSH1 0x20 DUP2 ADD SWAP1 PUSH2 0x1051 SWAP2 SWAP1 PUSH2 0x39C1 JUMP JUMPDEST SWAP1 POP PUSH1 0x1 PUSH1 0x1 PUSH1 0xA0 SHL SUB DUP3 AND PUSH2 0x1079 JUMPI PUSH1 0x40 MLOAD PUSH3 0x461BCD PUSH1 0xE5 SHL DUP2 MSTORE PUSH1 0x4 ADD PUSH2 0x866 SWAP1 PUSH2 0x4280 JUMP JUMPDEST PUSH1 0x1 PUSH1 0x1 PUSH1 0xA0 SHL SUB DUP3 AND PUSH1 0x0 SWAP1 DUP2 MSTORE PUSH1 0xE PUSH1 0x20 MSTORE PUSH1 0x40 SWAP1 KECCAK256 SLOAD PUSH1 0xFF AND ISZERO ISZERO DUP2 ISZERO ISZERO EQ ISZERO PUSH2 0x10B8 JUMPI PUSH1 0x40 MLOAD PUSH3 0x461BCD PUSH1 0xE5 SHL DUP2 MSTORE PUSH1 0x4 ADD PUSH2 0x866 SWAP1 PUSH2 0x47B7 JUMP JUMPDEST PUSH1 0x1 PUSH1 0x1 PUSH1 0xA0 SHL SUB DUP3 AND PUSH1 0x0 DUP2 DUP2 MSTORE PUSH1 0xE PUSH1 0x20 MSTORE PUSH1 0x40 SWAP1 DUP2 SWAP1 KECCAK256 DUP1 SLOAD PUSH1 0xFF NOT AND DUP5 ISZERO ISZERO OR SWAP1 SSTORE MLOAD PUSH32 0x68BB2AF98A57ECC88AFB707F2D75E1E253C3E30191071548355731E21322A432 SWAP1 PUSH2 0x110C SWAP1 DUP5 SWAP1 PUSH2 0x3E03 JUMP JUMPDEST PUSH1 0x40 MLOAD DUP1 SWAP2 SUB SWAP1 LOG2 POP POP PUSH1 0x1 ADD PUSH2 0x1001 JUMP JUMPDEST DUP5 DUP4 EQ DUP1 ISZERO PUSH2 0x112C JUMPI POP DUP3 DUP2 EQ JUMPDEST PUSH2 0x1148 JUMPI PUSH1 0x40 MLOAD PUSH3 0x461BCD PUSH1 0xE5 SHL DUP2 MSTORE PUSH1 0x4 ADD PUSH2 0x866 SWAP1 PUSH2 0x3F86 JUMP JUMPDEST PUSH1 0x0 JUMPDEST DUP6 DUP2 LT ISZERO PUSH2 0xE01 JUMPI PUSH1 0x0 DUP8 DUP8 DUP4 DUP2 DUP2 LT PUSH2 0x1161 JUMPI INVALID JUMPDEST SWAP1 POP PUSH1 0x20 MUL ADD CALLDATALOAD SWAP1 POP PUSH1 0x11 DUP1 SLOAD SWAP1 POP DUP2 LT PUSH2 0x118E JUMPI PUSH1 0x40 MLOAD PUSH3 0x461BCD PUSH1 0xE5 SHL DUP2 MSTORE PUSH1 0x4 ADD PUSH2 0x866 SWAP1 PUSH2 0x4782 JUMP JUMPDEST PUSH1 0x0 PUSH1 0x11 DUP3 DUP2 SLOAD DUP2 LT PUSH2 0x119D JUMPI INVALID JUMPDEST SWAP1 PUSH1 0x0 MSTORE PUSH1 0x20 PUSH1 0x0 KECCAK256 SWAP1 PUSH1 0x7 MUL ADD SWAP1 POP PUSH1 0x0 DUP8 DUP8 DUP6 DUP2 DUP2 LT PUSH2 0x11BB JUMPI INVALID JUMPDEST SWAP1 POP PUSH1 0x20 MUL DUP2 ADD SWAP1 PUSH2 0x11CD SWAP2 SWAP1 PUSH2 0x5010 JUMP JUMPDEST DUP1 DUP1 PUSH1 0x1F ADD PUSH1 0x20 DUP1 SWAP2 DIV MUL PUSH1 0x20 ADD PUSH1 0x40 MLOAD SWAP1 DUP2 ADD PUSH1 0x40 MSTORE DUP1 SWAP4 SWAP3 SWAP2 SWAP1 DUP2 DUP2 MSTORE PUSH1 0x20 ADD DUP4 DUP4 DUP1 DUP3 DUP5 CALLDATACOPY PUSH1 0x0 SWAP3 ADD DUP3 SWAP1 MSTORE POP SWAP4 SWAP5 POP DUP10 SWAP3 POP DUP9 SWAP2 POP DUP8 SWAP1 POP DUP2 DUP2 LT PUSH2 0x1212 JUMPI INVALID JUMPDEST SWAP1 POP PUSH1 0x20 MUL DUP2 ADD SWAP1 PUSH2 0x1224 SWAP2 SWAP1 PUSH2 0x5010 JUMP JUMPDEST DUP1 DUP1 PUSH1 0x1F ADD PUSH1 0x20 DUP1 SWAP2 DIV MUL PUSH1 0x20 ADD PUSH1 0x40 MLOAD SWAP1 DUP2 ADD PUSH1 0x40 MSTORE DUP1 SWAP4 SWAP3 SWAP2 SWAP1 DUP2 DUP2 MSTORE PUSH1 0x20 ADD DUP4 DUP4 DUP1 DUP3 DUP5 CALLDATACOPY PUSH1 0x0 SWAP3 ADD SWAP2 SWAP1 SWAP2 MSTORE POP POP DUP5 MLOAD SWAP3 SWAP4 POP PUSH2 0x1270 SWAP3 PUSH1 0x6 DUP8 ADD SWAP3 POP PUSH1 0x20 DUP7 ADD SWAP2 POP PUSH2 0x32F4 JUMP JUMPDEST POP DUP1 MLOAD ISZERO PUSH2 0x128F JUMPI DUP1 MLOAD PUSH2 0x128D SWAP1 PUSH1 0x5 DUP6 ADD SWAP1 PUSH1 0x20 DUP5 ADD SWAP1 PUSH2 0x32F4 JUMP JUMPDEST POP JUMPDEST DUP4 PUSH32 0x87A972AB2DB2D47A0BBEFE72CEFC4FE5A38B1B9D2BC4B9F366B59FDB6DBD9581 DUP4 DUP6 PUSH1 0x5 ADD PUSH1 0x40 MLOAD PUSH2 0x12C4 SWAP3 SWAP2 SWAP1 PUSH2 0x3E6A JUMP JUMPDEST PUSH1 0x40 MLOAD DUP1 SWAP2 SUB SWAP1 LOG2 POP POP PUSH1 0x1 SWAP1 SWAP3 ADD SWAP2 POP PUSH2 0x114B SWAP1 POP JUMP JUMPDEST PUSH2 0x12E4 PUSH2 0x22A3 JUMP JUMPDEST PUSH2 0x1300 JUMPI PUSH1 0x40 MLOAD PUSH3 0x461BCD PUSH1 0xE5 SHL DUP2 MSTORE PUSH1 0x4 ADD PUSH2 0x866 SWAP1 PUSH2 0x4962 JUMP JUMPDEST DUP3 DUP2 EQ PUSH2 0x131F JUMPI PUSH1 0x40 MLOAD PUSH3 0x461BCD PUSH1 0xE5 SHL DUP2 MSTORE PUSH1 0x4 ADD PUSH2 0x866 SWAP1 PUSH2 0x47EE JUMP JUMPDEST PUSH1 0x0 JUMPDEST DUP4 DUP2 LT ISZERO PUSH2 0xE75 JUMPI PUSH1 0x0 DUP6 DUP6 DUP4 DUP2 DUP2 LT PUSH2 0x1338 JUMPI INVALID JUMPDEST SWAP1 POP PUSH1 0x20 MUL ADD PUSH1 0x20 DUP2 ADD SWAP1 PUSH2 0x134D SWAP2 SWAP1 PUSH2 0x3551 JUMP JUMPDEST SWAP1 POP PUSH1 0x0 DUP5 DUP5 DUP5 DUP2 DUP2 LT PUSH2 0x135D JUMPI INVALID JUMPDEST SWAP1 POP PUSH1 0x20 MUL ADD PUSH1 0x20 DUP2 ADD SWAP1 PUSH2 0x1372 SWAP2 SWAP1 PUSH2 0x39C1 JUMP JUMPDEST SWAP1 POP PUSH1 0x1 PUSH1 0x1 PUSH1 0xA0 SHL SUB DUP3 AND PUSH2 0x139A JUMPI PUSH1 0x40 MLOAD PUSH3 0x461BCD PUSH1 0xE5 SHL DUP2 MSTORE PUSH1 0x4 ADD PUSH2 0x866 SWAP1 PUSH2 0x43B5 JUMP JUMPDEST PUSH1 0x1 PUSH1 0x1 PUSH1 0xA0 SHL SUB DUP3 AND PUSH1 0x0 SWAP1 DUP2 MSTORE PUSH1 0xD PUSH1 0x20 MSTORE PUSH1 0x40 SWAP1 KECCAK256 SLOAD PUSH1 0xFF AND ISZERO ISZERO DUP2 ISZERO ISZERO EQ ISZERO PUSH2 0x13D9 JUMPI PUSH1 0x40 MLOAD PUSH3 0x461BCD PUSH1 0xE5 SHL DUP2 MSTORE PUSH1 0x4 ADD PUSH2 0x866 SWAP1 PUSH2 0x4E13 JUMP JUMPDEST PUSH1 0x1 PUSH1 0x1 PUSH1 0xA0 SHL SUB DUP3 AND PUSH1 0x0 DUP2 DUP2 MSTORE PUSH1 0xD PUSH1 0x20 MSTORE PUSH1 0x40 SWAP1 DUP2 SWAP1 KECCAK256 DUP1 SLOAD PUSH1 0xFF NOT AND DUP5 ISZERO ISZERO OR SWAP1 SSTORE MLOAD PUSH32 0x27DEFE4B442489E757345F4F743096C5DB8D2399E1474BB9653118CDF5313869 SWAP1 PUSH2 0x142D SWAP1 DUP5 SWAP1 PUSH2 0x3E03 JUMP JUMPDEST PUSH1 0x40 MLOAD DUP1 SWAP2 SUB SWAP1 LOG2 POP POP PUSH1 0x1 ADD PUSH2 0x1322 JUMP JUMPDEST PUSH1 0x13 SLOAD PUSH2 0x100 SWAP1 DIV PUSH1 0xFF AND ISZERO PUSH2 0x1467 JUMPI PUSH1 0x40 MLOAD PUSH3 0x461BCD PUSH1 0xE5 SHL DUP2 MSTORE PUSH1 0x4 ADD PUSH2 0x866 SWAP1 PUSH2 0x45CC JUMP JUMPDEST PUSH2 0x1470 DUP2 PUSH2 0x24CB JUMP JUMPDEST POP JUMP JUMPDEST PUSH2 0x91E DUP4 DUP4 DUP4 PUSH1 0x40 MLOAD DUP1 PUSH1 0x20 ADD PUSH1 0x40 MSTORE DUP1 PUSH1 0x0 DUP2 MSTORE POP PUSH2 0x1A6F JUMP JUMPDEST PUSH1 0x13 SLOAD PUSH1 0xFF PUSH4 0x1000000 SWAP1 SWAP2 DIV AND ISZERO ISZERO DUP2 ISZERO ISZERO EQ ISZERO PUSH2 0x14BF JUMPI PUSH1 0x40 MLOAD PUSH3 0x461BCD PUSH1 0xE5 SHL DUP2 MSTORE PUSH1 0x4 ADD PUSH2 0x866 SWAP1 PUSH2 0x437E JUMP JUMPDEST PUSH32 0x9EA3C7BD2B8FF87A3768286A529F5932CA385584C8DDF42EEA8EADE2AC1FB121 PUSH1 0x13 PUSH1 0x3 SWAP1 SLOAD SWAP1 PUSH2 0x100 EXP SWAP1 DIV PUSH1 0xFF AND DUP3 PUSH1 0x40 MLOAD PUSH2 0x14FF SWAP3 SWAP2 SWAP1 PUSH2 0x3E0E JUMP JUMPDEST PUSH1 0x40 MLOAD DUP1 SWAP2 SUB SWAP1 LOG1 PUSH1 0x13 DUP1 SLOAD SWAP2 ISZERO ISZERO PUSH4 0x1000000 MUL PUSH4 0xFF000000 NOT SWAP1 SWAP3 AND SWAP2 SWAP1 SWAP2 OR SWAP1 SSTORE JUMP JUMPDEST PUSH5 0xFFFFFFFFFF DUP2 JUMP JUMPDEST PUSH1 0x0 DUP1 PUSH2 0x153C PUSH1 0x3 DUP5 PUSH2 0x2807 JUMP JUMPDEST POP SWAP4 SWAP3 POP POP POP JUMP JUMPDEST PUSH2 0x154C PUSH2 0x21D9 JUMP JUMPDEST PUSH1 0x0 SLOAD PUSH1 0x1 PUSH1 0x1 PUSH1 0xA0 SHL SUB SWAP1 DUP2 AND SWAP2 AND EQ PUSH2 0x1579 JUMPI PUSH1 0x40 MLOAD PUSH3 0x461BCD PUSH1 0xE5 SHL DUP2 MSTORE PUSH1 0x4 ADD PUSH2 0x866 SWAP1 PUSH2 0x4716 JUMP JUMPDEST PUSH32 0xB8FDF10126D507F6DAF46465EC25A2BBC08449CF6C944C98219264161391040A PUSH2 0x15A2 PUSH2 0x15EF JUMP JUMPDEST DUP3 PUSH1 0x40 MLOAD PUSH2 0x15B1 SWAP3 SWAP2 SWAP1 PUSH2 0x3E3C JUMP JUMPDEST PUSH1 0x40 MLOAD DUP1 SWAP2 SUB SWAP1 LOG1 PUSH2 0x1470 DUP2 PUSH2 0x2825 JUMP JUMPDEST PUSH1 0x28 DUP2 JUMP JUMPDEST PUSH1 0x0 PUSH2 0xF6B DUP3 PUSH1 0x40 MLOAD DUP1 PUSH1 0x60 ADD PUSH1 0x40 MSTORE DUP1 PUSH1 0x29 DUP2 MSTORE PUSH1 0x20 ADD PUSH2 0x514B PUSH1 0x29 SWAP2 CODECOPY PUSH1 0x3 SWAP2 SWAP1 PUSH2 0x283C JUMP JUMPDEST PUSH1 0xA DUP1 SLOAD PUSH1 0x40 DUP1 MLOAD PUSH1 0x20 PUSH1 0x1F PUSH1 0x2 PUSH1 0x0 NOT PUSH2 0x100 PUSH1 0x1 DUP9 AND ISZERO MUL ADD SWAP1 SWAP6 AND SWAP5 SWAP1 SWAP5 DIV SWAP4 DUP5 ADD DUP2 SWAP1 DIV DUP2 MUL DUP3 ADD DUP2 ADD SWAP1 SWAP3 MSTORE DUP3 DUP2 MSTORE PUSH1 0x60 SWAP4 SWAP1 SWAP3 SWAP1 SWAP2 DUP4 ADD DUP3 DUP3 DUP1 ISZERO PUSH2 0x834 JUMPI DUP1 PUSH1 0x1F LT PUSH2 0x809 JUMPI PUSH2 0x100 DUP1 DUP4 SLOAD DIV MUL DUP4 MSTORE SWAP2 PUSH1 0x20 ADD SWAP2 PUSH2 0x834 JUMP JUMPDEST PUSH1 0x0 PUSH2 0x165A PUSH2 0x21D9 JUMP JUMPDEST SWAP1 POP PUSH2 0x1664 PUSH2 0x1908 JUMP JUMPDEST PUSH1 0x1 PUSH1 0x1 PUSH1 0xA0 SHL SUB AND DUP2 PUSH1 0x1 PUSH1 0x1 PUSH1 0xA0 SHL SUB AND EQ DUP1 PUSH2 0x1690 JUMPI POP PUSH1 0xC SLOAD PUSH1 0x1 PUSH1 0x1 PUSH1 0xA0 SHL SUB DUP3 DUP2 AND SWAP2 AND EQ JUMPDEST PUSH2 0x16AC JUMPI PUSH1 0x40 MLOAD PUSH3 0x461BCD PUSH1 0xE5 SHL DUP2 MSTORE PUSH1 0x4 ADD PUSH2 0x866 SWAP1 PUSH2 0x41B2 JUMP JUMPDEST PUSH1 0x1 PUSH1 0x1 PUSH1 0xA0 SHL SUB DUP3 AND PUSH2 0x16D2 JUMPI PUSH1 0x40 MLOAD PUSH3 0x461BCD PUSH1 0xE5 SHL DUP2 MSTORE PUSH1 0x4 ADD PUSH2 0x866 SWAP1 PUSH2 0x4BF2 JUMP JUMPDEST PUSH1 0xC SLOAD PUSH1 0x40 MLOAD PUSH1 0x1 PUSH1 0x1 PUSH1 0xA0 SHL SUB DUP1 DUP6 AND SWAP3 AND SWAP1 PUSH32 0xF25C6226B06A6BF4B2C2391BB66962BB4290C323CF8B5814EFB185ABA3F42D5F SWAP1 PUSH1 0x0 SWAP1 LOG3 POP PUSH1 0xC DUP1 SLOAD PUSH1 0x1 PUSH1 0x1 PUSH1 0xA0 SHL SUB NOT AND PUSH1 0x1 PUSH1 0x1 PUSH1 0xA0 SHL SUB SWAP3 SWAP1 SWAP3 AND SWAP2 SWAP1 SWAP2 OR SWAP1 SSTORE JUMP JUMPDEST PUSH1 0xF PUSH1 0x20 SWAP1 DUP2 MSTORE PUSH1 0x0 SWAP3 DUP4 MSTORE PUSH1 0x40 DUP1 DUP5 KECCAK256 SWAP1 SWAP2 MSTORE SWAP1 DUP3 MSTORE SWAP1 KECCAK256 SLOAD DUP2 JUMP JUMPDEST PUSH1 0x0 PUSH1 0x1 PUSH1 0x1 PUSH1 0xA0 SHL SUB DUP3 AND PUSH2 0x1774 JUMPI PUSH1 0x40 MLOAD PUSH3 0x461BCD PUSH1 0xE5 SHL DUP2 MSTORE PUSH1 0x4 ADD PUSH2 0x866 SWAP1 PUSH2 0x4514 JUMP JUMPDEST PUSH1 0x1 PUSH1 0x1 PUSH1 0xA0 SHL SUB DUP3 AND PUSH1 0x0 SWAP1 DUP2 MSTORE PUSH1 0x2 PUSH1 0x20 MSTORE PUSH1 0x40 SWAP1 KECCAK256 PUSH2 0xF6B SWAP1 PUSH2 0x2321 JUMP JUMPDEST PUSH2 0x179D PUSH2 0x21D9 JUMP JUMPDEST PUSH1 0x0 SLOAD PUSH1 0x1 PUSH1 0x1 PUSH1 0xA0 SHL SUB SWAP1 DUP2 AND SWAP2 AND EQ PUSH2 0x17CA JUMPI PUSH1 0x40 MLOAD PUSH3 0x461BCD PUSH1 0xE5 SHL DUP2 MSTORE PUSH1 0x4 ADD PUSH2 0x866 SWAP1 PUSH2 0x4716 JUMP JUMPDEST PUSH1 0x0 DUP1 SLOAD PUSH1 0x40 MLOAD PUSH1 0x1 PUSH1 0x1 PUSH1 0xA0 SHL SUB SWAP1 SWAP2 AND SWAP1 PUSH32 0x8BE0079C531659141344CD1FD0A4F28419497F9722A3DAAFE3B4186F6B6457E0 SWAP1 DUP4 SWAP1 LOG3 PUSH1 0x0 DUP1 SLOAD PUSH1 0x1 PUSH1 0x1 PUSH1 0xA0 SHL SUB NOT AND SWAP1 SSTORE JUMP JUMPDEST PUSH1 0xE PUSH1 0x20 MSTORE PUSH1 0x0 SWAP1 DUP2 MSTORE PUSH1 0x40 SWAP1 KECCAK256 SLOAD PUSH1 0xFF AND DUP2 JUMP JUMPDEST PUSH2 0x1831 PUSH2 0xE8C JUMP JUMPDEST PUSH2 0x184D JUMPI PUSH1 0x40 MLOAD PUSH3 0x461BCD PUSH1 0xE5 SHL DUP2 MSTORE PUSH1 0x4 ADD PUSH2 0x866 SWAP1 PUSH2 0x42C4 JUMP JUMPDEST DUP3 DUP2 EQ PUSH2 0x186C JUMPI PUSH1 0x40 MLOAD PUSH3 0x461BCD PUSH1 0xE5 SHL DUP2 MSTORE PUSH1 0x4 ADD PUSH2 0x866 SWAP1 PUSH2 0x492B JUMP JUMPDEST PUSH1 0x0 PUSH2 0x1876 PUSH2 0x21D9 JUMP JUMPDEST SWAP1 POP PUSH1 0x0 JUMPDEST DUP3 DUP2 LT ISZERO PUSH2 0x18C8 JUMPI PUSH2 0x18C0 DUP7 DUP7 DUP4 DUP2 DUP2 LT PUSH2 0x1892 JUMPI INVALID JUMPDEST SWAP1 POP PUSH1 0x20 MUL ADD PUSH1 0x20 DUP2 ADD SWAP1 PUSH2 0x18A7 SWAP2 SWAP1 PUSH2 0x3551 JUMP JUMPDEST DUP6 DUP6 DUP5 DUP2 DUP2 LT PUSH2 0x18B3 JUMPI INVALID JUMPDEST SWAP1 POP PUSH1 0x20 MUL ADD CALLDATALOAD DUP5 PUSH2 0x2849 JUMP JUMPDEST PUSH1 0x1 ADD PUSH2 0x187B JUMP JUMPDEST POP POP POP POP POP POP JUMP JUMPDEST PUSH32 0x85858259777FA9B13D1B7719CC0A9D4D012E29B100679E2974863BAB94A0C1A DUP2 JUMP JUMPDEST PUSH1 0xD8 DUP2 SWAP1 SHR SWAP2 PUSH1 0x1 PUSH1 0x1 PUSH1 0xD8 SHL SUB SWAP1 SWAP2 AND SWAP1 JUMP JUMPDEST PUSH1 0x0 SLOAD PUSH1 0x1 PUSH1 0x1 PUSH1 0xA0 SHL SUB AND SWAP1 JUMP JUMPDEST PUSH1 0xD8 DUP2 JUMP JUMPDEST PUSH1 0x8 DUP1 SLOAD PUSH1 0x40 DUP1 MLOAD PUSH1 0x20 PUSH1 0x1F PUSH1 0x2 PUSH1 0x0 NOT PUSH2 0x100 PUSH1 0x1 DUP9 AND ISZERO MUL ADD SWAP1 SWAP6 AND SWAP5 SWAP1 SWAP5 DIV SWAP4 DUP5 ADD DUP2 SWAP1 DIV DUP2 MUL DUP3 ADD DUP2 ADD SWAP1 SWAP3 MSTORE DUP3 DUP2 MSTORE PUSH1 0x60 SWAP4 SWAP1 SWAP3 SWAP1 SWAP2 DUP4 ADD DUP3 DUP3 DUP1 ISZERO PUSH2 0x834 JUMPI DUP1 PUSH1 0x1F LT PUSH2 0x809 JUMPI PUSH2 0x100 DUP1 DUP4 SLOAD DIV MUL DUP4 MSTORE SWAP2 PUSH1 0x20 ADD SWAP2 PUSH2 0x834 JUMP JUMPDEST PUSH2 0x1985 PUSH2 0x21D9 JUMP JUMPDEST PUSH1 0x1 PUSH1 0x1 PUSH1 0xA0 SHL SUB AND DUP3 PUSH1 0x1 PUSH1 0x1 PUSH1 0xA0 SHL SUB AND EQ ISZERO PUSH2 0x19B6 JUMPI PUSH1 0x40 MLOAD PUSH3 0x461BCD PUSH1 0xE5 SHL DUP2 MSTORE PUSH1 0x4 ADD PUSH2 0x866 SWAP1 PUSH2 0x4249 JUMP JUMPDEST DUP1 PUSH1 0x6 PUSH1 0x0 PUSH2 0x19C3 PUSH2 0x21D9 JUMP JUMPDEST PUSH1 0x1 PUSH1 0x1 PUSH1 0xA0 SHL SUB SWAP1 DUP2 AND DUP3 MSTORE PUSH1 0x20 DUP1 DUP4 ADD SWAP4 SWAP1 SWAP4 MSTORE PUSH1 0x40 SWAP2 DUP3 ADD PUSH1 0x0 SWAP1 DUP2 KECCAK256 SWAP2 DUP8 AND DUP1 DUP3 MSTORE SWAP2 SWAP1 SWAP4 MSTORE SWAP2 KECCAK256 DUP1 SLOAD PUSH1 0xFF NOT AND SWAP3 ISZERO ISZERO SWAP3 SWAP1 SWAP3 OR SWAP1 SWAP2 SSTORE PUSH2 0x1A07 PUSH2 0x21D9 JUMP JUMPDEST PUSH1 0x1 PUSH1 0x1 PUSH1 0xA0 SHL SUB AND PUSH32 0x17307EAB39AB6107E8899845AD3D59BD9653F200F220920489CA2B5937696C31 DUP4 PUSH1 0x40 MLOAD PUSH2 0x1A3F SWAP2 SWAP1 PUSH2 0x3E03 JUMP JUMPDEST PUSH1 0x40 MLOAD DUP1 SWAP2 SUB SWAP1 LOG3 POP POP JUMP JUMPDEST PUSH1 0xD PUSH1 0x20 MSTORE PUSH1 0x0 SWAP1 DUP2 MSTORE PUSH1 0x40 SWAP1 KECCAK256 SLOAD PUSH1 0xFF AND DUP2 JUMP JUMPDEST PUSH1 0x13 SLOAD PUSH3 0x10000 SWAP1 DIV PUSH1 0xFF AND DUP2 JUMP JUMPDEST PUSH2 0x1A80 PUSH2 0x1A7A PUSH2 0x21D9 JUMP JUMPDEST DUP4 PUSH2 0x232C JUMP JUMPDEST PUSH2 0x1A9C JUMPI PUSH1 0x40 MLOAD PUSH3 0x461BCD PUSH1 0xE5 SHL DUP2 MSTORE PUSH1 0x4 ADD PUSH2 0x866 SWAP1 PUSH2 0x4A8A JUMP JUMPDEST PUSH2 0x1AA8 DUP5 DUP5 DUP5 DUP5 PUSH2 0x29DA JUMP JUMPDEST POP POP POP POP JUMP JUMPDEST PUSH1 0x10 PUSH1 0x20 SWAP1 DUP2 MSTORE PUSH1 0x0 SWAP3 DUP4 MSTORE PUSH1 0x40 DUP1 DUP5 KECCAK256 SWAP1 SWAP2 MSTORE SWAP1 DUP3 MSTORE SWAP1 KECCAK256 SLOAD PUSH1 0xFF AND DUP2 JUMP JUMPDEST PUSH1 0x11 DUP2 DUP2 SLOAD DUP2 LT PUSH2 0x1ADE JUMPI PUSH1 0x0 DUP1 REVERT JUMPDEST PUSH1 0x0 SWAP2 DUP3 MSTORE PUSH1 0x20 SWAP2 DUP3 SWAP1 KECCAK256 PUSH1 0x7 SWAP2 SWAP1 SWAP2 MUL ADD DUP1 SLOAD PUSH1 0x40 DUP1 MLOAD PUSH1 0x2 PUSH1 0x1 DUP5 AND ISZERO PUSH2 0x100 MUL PUSH1 0x0 NOT ADD SWAP1 SWAP4 AND SWAP3 SWAP1 SWAP3 DIV PUSH1 0x1F DUP2 ADD DUP6 SWAP1 DIV DUP6 MUL DUP4 ADD DUP6 ADD SWAP1 SWAP2 MSTORE DUP1 DUP3 MSTORE SWAP2 SWAP4 POP SWAP2 DUP4 SWAP2 SWAP1 DUP4 ADD DUP3 DUP3 DUP1 ISZERO PUSH2 0x1B77 JUMPI DUP1 PUSH1 0x1F LT PUSH2 0x1B4C JUMPI PUSH2 0x100 DUP1 DUP4 SLOAD DIV MUL DUP4 MSTORE SWAP2 PUSH1 0x20 ADD SWAP2 PUSH2 0x1B77 JUMP JUMPDEST DUP3 ADD SWAP2 SWAP1 PUSH1 0x0 MSTORE PUSH1 0x20 PUSH1 0x0 KECCAK256 SWAP1 JUMPDEST DUP2 SLOAD DUP2 MSTORE SWAP1 PUSH1 0x1 ADD SWAP1 PUSH1 0x20 ADD DUP1 DUP4 GT PUSH2 0x1B5A JUMPI DUP3 SWAP1 SUB PUSH1 0x1F AND DUP3 ADD SWAP2 JUMPDEST POP POP POP PUSH1 0x1 DUP1 DUP6 ADD SLOAD PUSH1 0x2 DUP1 DUP8 ADD SLOAD PUSH1 0x3 DUP9 ADD SLOAD PUSH1 0x4 DUP10 ADD SLOAD PUSH1 0x5 DUP11 ADD DUP1 SLOAD PUSH1 0x40 DUP1 MLOAD PUSH1 0x20 PUSH1 0x1F PUSH1 0x0 NOT SWAP12 DUP6 AND ISZERO PUSH2 0x100 MUL SWAP12 SWAP1 SWAP12 ADD SWAP1 SWAP4 AND SWAP8 SWAP1 SWAP8 DIV SWAP9 DUP10 ADD DUP3 SWAP1 DIV DUP3 MUL DUP8 ADD DUP3 ADD SWAP1 MSTORE DUP8 DUP7 MSTORE SWAP10 SWAP11 SWAP6 SWAP10 SWAP4 SWAP9 POP SWAP2 SWAP7 POP PUSH1 0x1 PUSH1 0x1 PUSH1 0xA0 SHL SUB AND SWAP5 SWAP1 SWAP2 DUP4 ADD DUP3 DUP3 DUP1 ISZERO PUSH2 0x1C2C JUMPI DUP1 PUSH1 0x1F LT PUSH2 0x1C01 JUMPI PUSH2 0x100 DUP1 DUP4 SLOAD DIV MUL DUP4 MSTORE SWAP2 PUSH1 0x20 ADD SWAP2 PUSH2 0x1C2C JUMP JUMPDEST DUP3 ADD SWAP2 SWAP1 PUSH1 0x0 MSTORE PUSH1 0x20 PUSH1 0x0 KECCAK256 SWAP1 JUMPDEST DUP2 SLOAD DUP2 MSTORE SWAP1 PUSH1 0x1 ADD SWAP1 PUSH1 0x20 ADD DUP1 DUP4 GT PUSH2 0x1C0F JUMPI DUP3 SWAP1 SUB PUSH1 0x1F AND DUP3 ADD SWAP2 JUMPDEST POP POP POP POP PUSH1 0x6 DUP4 ADD DUP1 SLOAD PUSH1 0x40 DUP1 MLOAD PUSH1 0x20 PUSH1 0x2 PUSH1 0x1 DUP6 AND ISZERO PUSH2 0x100 MUL PUSH1 0x0 NOT ADD SWAP1 SWAP5 AND SWAP4 SWAP1 SWAP4 DIV PUSH1 0x1F DUP2 ADD DUP5 SWAP1 DIV DUP5 MUL DUP3 ADD DUP5 ADD SWAP1 SWAP3 MSTORE DUP2 DUP2 MSTORE SWAP5 SWAP6 SWAP5 SWAP4 POP SWAP1 DUP4 ADD DUP3 DUP3 DUP1 ISZERO PUSH2 0x1CBC JUMPI DUP1 PUSH1 0x1F LT PUSH2 0x1C91 JUMPI PUSH2 0x100 DUP1 DUP4 SLOAD DIV MUL DUP4 MSTORE SWAP2 PUSH1 0x20 ADD SWAP2 PUSH2 0x1CBC JUMP JUMPDEST DUP3 ADD SWAP2 SWAP1 PUSH1 0x0 MSTORE PUSH1 0x20 PUSH1 0x0 KECCAK256 SWAP1 JUMPDEST DUP2 SLOAD DUP2 MSTORE SWAP1 PUSH1 0x1 ADD SWAP1 PUSH1 0x20 ADD DUP1 DUP4 GT PUSH2 0x1C9F JUMPI DUP3 SWAP1 SUB PUSH1 0x1F AND DUP3 ADD SWAP2 JUMPDEST POP POP POP POP POP SWAP1 POP DUP8 JUMP JUMPDEST PUSH1 0x60 PUSH2 0x1CD1 DUP3 PUSH2 0x21CC JUMP JUMPDEST PUSH2 0x1CED JUMPI PUSH1 0x40 MLOAD PUSH3 0x461BCD PUSH1 0xE5 SHL DUP2 MSTORE PUSH1 0x4 ADD PUSH2 0x866 SWAP1 PUSH2 0x474B JUMP JUMPDEST PUSH1 0x0 DUP1 PUSH2 0x1CF9 DUP5 PUSH2 0x18F4 JUMP JUMPDEST SWAP1 SWAP3 POP SWAP1 POP CHAINID PUSH2 0x1D07 PUSH2 0x15EF JUMP JUMPDEST PUSH2 0x1D10 DUP3 PUSH2 0x2A0D JUMP JUMPDEST PUSH2 0x1D19 ADDRESS PUSH2 0x2AE7 JUMP JUMPDEST PUSH2 0x1D22 DUP7 PUSH2 0x2A0D JUMP JUMPDEST PUSH2 0x1D2B DUP7 PUSH2 0x2A0D JUMP JUMPDEST PUSH1 0x40 MLOAD PUSH1 0x20 ADD PUSH2 0x1D3F SWAP6 SWAP5 SWAP4 SWAP3 SWAP2 SWAP1 PUSH2 0x3D1A JUMP JUMPDEST PUSH1 0x40 MLOAD PUSH1 0x20 DUP2 DUP4 SUB SUB DUP2 MSTORE SWAP1 PUSH1 0x40 MSTORE SWAP4 POP POP POP POP SWAP2 SWAP1 POP JUMP JUMPDEST PUSH1 0x12 SLOAD DUP2 JUMP JUMPDEST PUSH2 0x1D66 PUSH2 0xF71 JUMP JUMPDEST PUSH1 0x1 PUSH1 0x1 PUSH1 0xA0 SHL SUB DUP6 AND PUSH2 0x1D8C JUMPI PUSH1 0x40 MLOAD PUSH3 0x461BCD PUSH1 0xE5 SHL DUP2 MSTORE PUSH1 0x4 ADD PUSH2 0x866 SWAP1 PUSH2 0x42FB JUMP JUMPDEST PUSH1 0x1 PUSH1 0x1 PUSH1 0xA0 SHL SUB DUP3 AND PUSH2 0x1DB2 JUMPI PUSH1 0x40 MLOAD PUSH3 0x461BCD PUSH1 0xE5 SHL DUP2 MSTORE PUSH1 0x4 ADD PUSH2 0x866 SWAP1 PUSH2 0x4A53 JUMP JUMPDEST PUSH2 0x1DBA PUSH2 0x2BDC JUMP JUMPDEST PUSH2 0x1DC4 DUP9 DUP9 PUSH2 0x2C32 JUMP JUMPDEST PUSH2 0x1DCD DUP7 PUSH2 0x1544 JUMP JUMPDEST PUSH1 0xC DUP1 SLOAD PUSH1 0x1 PUSH1 0x1 PUSH1 0xA0 SHL SUB DUP1 DUP9 AND PUSH1 0x1 PUSH1 0x1 PUSH1 0xA0 SHL SUB NOT SWAP3 DUP4 AND OR SWAP1 SWAP3 SSTORE PUSH1 0xB DUP1 SLOAD SWAP3 DUP6 AND SWAP3 SWAP1 SWAP2 AND SWAP2 SWAP1 SWAP2 OR SWAP1 SSTORE PUSH2 0x1E06 DUP2 PUSH2 0x24CB JUMP JUMPDEST DUP4 ISZERO PUSH2 0x1E14 JUMPI PUSH2 0x1E14 PUSH2 0x2C8A JUMP JUMPDEST POP POP PUSH1 0x13 DUP1 SLOAD PUSH3 0xFF0000 NOT SWAP3 ISZERO ISZERO PUSH4 0x1000000 MUL PUSH4 0xFF000000 NOT SWAP1 SWAP2 AND OR SWAP2 SWAP1 SWAP2 AND PUSH3 0x10000 OR SWAP1 SSTORE POP POP TIMESTAMP PUSH1 0x12 SSTORE POP POP POP JUMP JUMPDEST PUSH1 0x11 SLOAD SWAP1 JUMP JUMPDEST PUSH2 0x1E56 PUSH2 0x22A3 JUMP JUMPDEST PUSH2 0x1E72 JUMPI PUSH1 0x40 MLOAD PUSH3 0x461BCD PUSH1 0xE5 SHL DUP2 MSTORE PUSH1 0x4 ADD PUSH2 0x866 SWAP1 PUSH2 0x4962 JUMP JUMPDEST DUP5 DUP4 EQ DUP1 ISZERO PUSH2 0x1E80 JUMPI POP DUP3 DUP2 EQ JUMPDEST PUSH2 0x1E9C JUMPI PUSH1 0x40 MLOAD PUSH3 0x461BCD PUSH1 0xE5 SHL DUP2 MSTORE PUSH1 0x4 ADD PUSH2 0x866 SWAP1 PUSH2 0x48F6 JUMP JUMPDEST PUSH1 0x0 JUMPDEST DUP4 DUP2 LT ISZERO PUSH2 0xE01 JUMPI PUSH1 0x0 DUP6 DUP6 DUP4 DUP2 DUP2 LT PUSH2 0x1EB5 JUMPI INVALID JUMPDEST SWAP1 POP PUSH1 0x20 MUL ADD PUSH1 0x20 DUP2 ADD SWAP1 PUSH2 0x1ECA SWAP2 SWAP1 PUSH2 0x3551 JUMP JUMPDEST SWAP1 POP PUSH1 0x0 DUP9 DUP9 DUP5 DUP2 DUP2 LT PUSH2 0x1EDA JUMPI INVALID JUMPDEST SWAP1 POP PUSH1 0x20 MUL ADD CALLDATALOAD SWAP1 POP PUSH1 0x0 DUP6 DUP6 DUP6 DUP2 DUP2 LT PUSH2 0x1EF1 JUMPI INVALID JUMPDEST PUSH1 0x20 MUL SWAP2 SWAP1 SWAP2 ADD CALLDATALOAD SWAP2 POP POP PUSH1 0x1 PUSH1 0x1 PUSH1 0xA0 SHL SUB DUP4 AND PUSH2 0x1F22 JUMPI PUSH1 0x40 MLOAD PUSH3 0x461BCD PUSH1 0xE5 SHL DUP2 MSTORE PUSH1 0x4 ADD PUSH2 0x866 SWAP1 PUSH2 0x43F7 JUMP JUMPDEST PUSH1 0x11 SLOAD DUP3 LT PUSH2 0x1F43 JUMPI PUSH1 0x40 MLOAD PUSH3 0x461BCD PUSH1 0xE5 SHL DUP2 MSTORE PUSH1 0x4 ADD PUSH2 0x866 SWAP1 PUSH2 0x44D0 JUMP JUMPDEST PUSH1 0x0 DUP3 DUP2 MSTORE PUSH1 0xF PUSH1 0x20 SWAP1 DUP2 MSTORE PUSH1 0x40 DUP1 DUP4 KECCAK256 PUSH1 0x1 PUSH1 0x1 PUSH1 0xA0 SHL SUB DUP8 AND DUP5 MSTORE SWAP1 SWAP2 MSTORE SWAP1 KECCAK256 SLOAD DUP2 EQ ISZERO PUSH2 0x1F85 JUMPI PUSH1 0x40 MLOAD PUSH3 0x461BCD PUSH1 0xE5 SHL DUP2 MSTORE PUSH1 0x4 ADD PUSH2 0x866 SWAP1 PUSH2 0x4E4A JUMP JUMPDEST PUSH1 0x0 DUP3 DUP2 MSTORE PUSH1 0xF PUSH1 0x20 SWAP1 DUP2 MSTORE PUSH1 0x40 DUP1 DUP4 KECCAK256 PUSH1 0x1 PUSH1 0x1 PUSH1 0xA0 SHL SUB DUP8 AND DUP1 DUP6 MSTORE SWAP3 MSTORE SWAP2 DUP3 SWAP1 KECCAK256 DUP4 SWAP1 SSTORE SWAP1 MLOAD DUP4 SWAP1 PUSH32 0x45A634291439A8EC187E2B70279696615889C34C17C3A1208A7F85544E13B565 SWAP1 PUSH2 0x1FDD SWAP1 DUP6 SWAP1 PUSH2 0x3E20 JUMP JUMPDEST PUSH1 0x40 MLOAD DUP1 SWAP2 SUB SWAP1 LOG3 POP POP POP PUSH1 0x1 ADD PUSH2 0x1E9F JUMP JUMPDEST PUSH1 0x1 PUSH1 0x1 PUSH1 0xA0 SHL SUB SWAP2 DUP3 AND PUSH1 0x0 SWAP1 DUP2 MSTORE PUSH1 0x6 PUSH1 0x20 SWAP1 DUP2 MSTORE PUSH1 0x40 DUP1 DUP4 KECCAK256 SWAP4 SWAP1 SWAP5 AND DUP3 MSTORE SWAP2 SWAP1 SWAP2 MSTORE KECCAK256 SLOAD PUSH1 0xFF AND SWAP1 JUMP JUMPDEST PUSH1 0x0 PUSH5 0xFFFFFFFFFF DUP4 GT ISZERO PUSH2 0x2045 JUMPI PUSH1 0x40 MLOAD PUSH3 0x461BCD PUSH1 0xE5 SHL DUP2 MSTORE PUSH1 0x4 ADD PUSH2 0x866 SWAP1 PUSH2 0x4DDC JUMP JUMPDEST PUSH1 0x1 PUSH1 0x1 PUSH1 0xD8 SHL SUB DUP3 GT ISZERO PUSH2 0x206C JUMPI PUSH1 0x40 MLOAD PUSH3 0x461BCD PUSH1 0xE5 SHL DUP2 MSTORE PUSH1 0x4 ADD PUSH2 0x866 SWAP1 PUSH2 0x4146 JUMP JUMPDEST POP PUSH1 0xD8 SWAP2 SWAP1 SWAP2 SHL OR SWAP1 JUMP JUMPDEST PUSH2 0x207F PUSH2 0x21D9 JUMP JUMPDEST PUSH1 0x0 SLOAD PUSH1 0x1 PUSH1 0x1 PUSH1 0xA0 SHL SUB SWAP1 DUP2 AND SWAP2 AND EQ PUSH2 0x20AC JUMPI PUSH1 0x40 MLOAD PUSH3 0x461BCD PUSH1 0xE5 SHL DUP2 MSTORE PUSH1 0x4 ADD PUSH2 0x866 SWAP1 PUSH2 0x4716 JUMP JUMPDEST PUSH1 0x1 PUSH1 0x1 PUSH1 0xA0 SHL SUB DUP2 AND PUSH2 0x20D2 JUMPI PUSH1 0x40 MLOAD PUSH3 0x461BCD PUSH1 0xE5 SHL DUP2 MSTORE PUSH1 0x4 ADD PUSH2 0x866 SWAP1 PUSH2 0x4092 JUMP JUMPDEST PUSH1 0x0 DUP1 SLOAD PUSH1 0x40 MLOAD PUSH1 0x1 PUSH1 0x1 PUSH1 0xA0 SHL SUB DUP1 DUP6 AND SWAP4 SWAP3 AND SWAP2 PUSH32 0x8BE0079C531659141344CD1FD0A4F28419497F9722A3DAAFE3B4186F6B6457E0 SWAP2 LOG3 PUSH1 0x0 DUP1 SLOAD PUSH1 0x1 PUSH1 0x1 PUSH1 0xA0 SHL SUB NOT AND PUSH1 0x1 PUSH1 0x1 PUSH1 0xA0 SHL SUB SWAP3 SWAP1 SWAP3 AND SWAP2 SWAP1 SWAP2 OR SWAP1 SSTORE JUMP JUMPDEST PUSH1 0x0 JUMPDEST DUP2 DUP2 LT ISZERO PUSH2 0xE75 JUMPI PUSH2 0x2155 DUP6 DUP6 DUP6 DUP6 DUP6 DUP2 DUP2 LT PUSH2 0x2149 JUMPI INVALID JUMPDEST SWAP1 POP PUSH1 0x20 MUL ADD CALLDATALOAD PUSH2 0xE0A JUMP JUMPDEST PUSH1 0x1 ADD PUSH2 0x2130 JUMP JUMPDEST PUSH2 0x2165 PUSH2 0x22A3 JUMP JUMPDEST PUSH2 0x2181 JUMPI PUSH1 0x40 MLOAD PUSH3 0x461BCD PUSH1 0xE5 SHL DUP2 MSTORE PUSH1 0x4 ADD PUSH2 0x866 SWAP1 PUSH2 0x4962 JUMP JUMPDEST PUSH1 0x13 SLOAD PUSH2 0x100 SWAP1 DIV PUSH1 0xFF AND ISZERO PUSH2 0x21A9 JUMPI PUSH1 0x40 MLOAD PUSH3 0x461BCD PUSH1 0xE5 SHL DUP2 MSTORE PUSH1 0x4 ADD PUSH2 0x866 SWAP1 PUSH2 0x4603 JUMP JUMPDEST PUSH2 0x21B1 PUSH2 0x2C8A JUMP JUMPDEST JUMP JUMPDEST PUSH1 0x1 PUSH1 0x1 PUSH1 0xD8 SHL SUB DUP2 JUMP JUMPDEST PUSH1 0x13 SLOAD PUSH2 0x100 SWAP1 DIV PUSH1 0xFF AND DUP2 JUMP JUMPDEST PUSH1 0x0 PUSH2 0xF6B PUSH1 0x3 DUP4 PUSH2 0x2CC4 JUMP JUMPDEST PUSH1 0x0 CALLER ADDRESS EQ ISZERO PUSH2 0x2230 JUMPI PUSH1 0x0 DUP1 CALLDATASIZE DUP1 DUP1 PUSH1 0x1F ADD PUSH1 0x20 DUP1 SWAP2 DIV MUL PUSH1 0x20 ADD PUSH1 0x40 MLOAD SWAP1 DUP2 ADD PUSH1 0x40 MSTORE DUP1 SWAP4 SWAP3 SWAP2 SWAP1 DUP2 DUP2 MSTORE PUSH1 0x20 ADD DUP4 DUP4 DUP1 DUP3 DUP5 CALLDATACOPY PUSH1 0x0 SWAP3 ADD SWAP2 SWAP1 SWAP2 MSTORE POP POP POP POP CALLDATASIZE ADD MLOAD PUSH1 0x1 PUSH1 0x1 PUSH1 0xA0 SHL SUB AND SWAP2 POP PUSH2 0x83C SWAP1 POP JUMP JUMPDEST POP CALLER SWAP1 JUMP JUMPDEST PUSH1 0x0 DUP2 DUP2 MSTORE PUSH1 0x5 PUSH1 0x20 MSTORE PUSH1 0x40 SWAP1 KECCAK256 DUP1 SLOAD PUSH1 0x1 PUSH1 0x1 PUSH1 0xA0 SHL SUB NOT AND PUSH1 0x1 PUSH1 0x1 PUSH1 0xA0 SHL SUB DUP5 AND SWAP1 DUP2 OR SWAP1 SWAP2 SSTORE DUP2 SWAP1 PUSH2 0x226A DUP3 PUSH2 0x15C7 JUMP JUMPDEST PUSH1 0x1 PUSH1 0x1 PUSH1 0xA0 SHL SUB AND PUSH32 0x8C5BE1E5EBEC7D5BD14F71427D1E84F3DD0314C0F7B2291E5B200AC8C7C3B925 PUSH1 0x40 MLOAD PUSH1 0x40 MLOAD DUP1 SWAP2 SUB SWAP1 LOG4 POP POP JUMP JUMPDEST PUSH1 0x0 PUSH2 0x22AD PUSH2 0x21D9 JUMP JUMPDEST PUSH1 0xC SLOAD PUSH1 0x1 PUSH1 0x1 PUSH1 0xA0 SHL SUB SWAP1 DUP2 AND SWAP2 AND EQ SWAP1 POP SWAP1 JUMP JUMPDEST PUSH1 0x0 DUP1 PUSH2 0x22CE PUSH2 0x21D9 JUMP JUMPDEST PUSH1 0x1 PUSH1 0x1 PUSH1 0xA0 SHL SUB DUP2 AND PUSH1 0x0 SWAP1 DUP2 MSTORE PUSH1 0xE PUSH1 0x20 MSTORE PUSH1 0x40 SWAP1 KECCAK256 SLOAD SWAP1 SWAP2 POP PUSH1 0xFF AND DUP1 PUSH2 0x231A JUMPI POP PUSH1 0x0 DUP4 DUP2 MSTORE PUSH1 0x10 PUSH1 0x20 SWAP1 DUP2 MSTORE PUSH1 0x40 DUP1 DUP4 KECCAK256 PUSH1 0x1 PUSH1 0x1 PUSH1 0xA0 SHL SUB DUP6 AND DUP5 MSTORE SWAP1 SWAP2 MSTORE SWAP1 KECCAK256 SLOAD PUSH1 0xFF AND JUMPDEST SWAP4 SWAP3 POP POP POP JUMP JUMPDEST PUSH1 0x0 PUSH2 0xF6B DUP3 PUSH2 0x2CD0 JUMP JUMPDEST PUSH1 0x0 PUSH2 0x2337 DUP3 PUSH2 0x21CC JUMP JUMPDEST PUSH2 0x2353 JUMPI PUSH1 0x40 MLOAD PUSH3 0x461BCD PUSH1 0xE5 SHL DUP2 MSTORE PUSH1 0x4 ADD PUSH2 0x866 SWAP1 PUSH2 0x4332 JUMP JUMPDEST PUSH1 0x0 PUSH2 0x235E DUP4 PUSH2 0x15C7 JUMP JUMPDEST SWAP1 POP DUP1 PUSH1 0x1 PUSH1 0x1 PUSH1 0xA0 SHL SUB AND DUP5 PUSH1 0x1 PUSH1 0x1 PUSH1 0xA0 SHL SUB AND EQ DUP1 PUSH2 0x2399 JUMPI POP DUP4 PUSH1 0x1 PUSH1 0x1 PUSH1 0xA0 SHL SUB AND PUSH2 0x238E DUP5 PUSH2 0x83F JUMP JUMPDEST PUSH1 0x1 PUSH1 0x1 PUSH1 0xA0 SHL SUB AND EQ JUMPDEST DUP1 PUSH2 0x23A9 JUMPI POP PUSH2 0x23A9 DUP2 DUP6 PUSH2 0x1FF0 JUMP JUMPDEST SWAP5 SWAP4 POP POP POP POP JUMP JUMPDEST DUP3 PUSH1 0x1 PUSH1 0x1 PUSH1 0xA0 SHL SUB AND PUSH2 0x23C4 DUP3 PUSH2 0x15C7 JUMP JUMPDEST PUSH1 0x1 PUSH1 0x1 PUSH1 0xA0 SHL SUB AND EQ PUSH2 0x23EA JUMPI PUSH1 0x40 MLOAD PUSH3 0x461BCD PUSH1 0xE5 SHL DUP2 MSTORE PUSH1 0x4 ADD PUSH2 0x866 SWAP1 PUSH2 0x4825 JUMP JUMPDEST PUSH1 0x1 PUSH1 0x1 PUSH1 0xA0 SHL SUB DUP3 AND PUSH2 0x2410 JUMPI PUSH1 0x40 MLOAD PUSH3 0x461BCD PUSH1 0xE5 SHL DUP2 MSTORE PUSH1 0x4 ADD PUSH2 0x866 SWAP1 PUSH2 0x4205 JUMP JUMPDEST PUSH2 0x241B DUP4 DUP4 DUP4 PUSH2 0x91E JUMP JUMPDEST PUSH2 0x2426 PUSH1 0x0 DUP3 PUSH2 0x2235 JUMP JUMPDEST PUSH1 0x1 PUSH1 0x1 PUSH1 0xA0 SHL SUB DUP4 AND PUSH1 0x0 SWAP1 DUP2 MSTORE PUSH1 0x2 PUSH1 0x20 MSTORE PUSH1 0x40 SWAP1 KECCAK256 PUSH2 0x2448 SWAP1 DUP3 PUSH2 0x2CD4 JUMP JUMPDEST POP PUSH1 0x1 PUSH1 0x1 PUSH1 0xA0 SHL SUB DUP3 AND PUSH1 0x0 SWAP1 DUP2 MSTORE PUSH1 0x2 PUSH1 0x20 MSTORE PUSH1 0x40 SWAP1 KECCAK256 PUSH2 0x246B SWAP1 DUP3 PUSH2 0x2CE0 JUMP JUMPDEST POP PUSH2 0x2478 PUSH1 0x3 DUP3 DUP5 PUSH2 0x2CEC JUMP JUMPDEST POP DUP1 DUP3 PUSH1 0x1 PUSH1 0x1 PUSH1 0xA0 SHL SUB AND DUP5 PUSH1 0x1 PUSH1 0x1 PUSH1 0xA0 SHL SUB AND PUSH32 0xDDF252AD1BE2C89B69C2B068FC378DAA952BA7F163C4A11628F55A4DF523B3EF PUSH1 0x40 MLOAD PUSH1 0x40 MLOAD DUP1 SWAP2 SUB SWAP1 LOG4 POP POP POP JUMP JUMPDEST PUSH1 0x0 PUSH2 0xF68 DUP4 DUP4 PUSH2 0x2D02 JUMP JUMPDEST PUSH1 0x0 DUP2 MLOAD GT PUSH2 0x24EC JUMPI PUSH1 0x40 MLOAD PUSH3 0x461BCD PUSH1 0xE5 SHL DUP2 MSTORE PUSH1 0x4 ADD PUSH2 0x866 SWAP1 PUSH2 0x4B12 JUMP JUMPDEST PUSH2 0x24F4 PUSH2 0x3380 JUMP JUMPDEST PUSH1 0x0 DUP1 JUMPDEST DUP4 MLOAD DUP2 LT ISZERO PUSH2 0x1AA8 JUMPI PUSH1 0x0 DUP5 DUP3 DUP2 MLOAD DUP2 LT PUSH2 0x250F JUMPI INVALID JUMPDEST PUSH1 0x20 MUL PUSH1 0x20 ADD ADD MLOAD SWAP1 POP PUSH1 0x0 DUP2 PUSH1 0x0 ADD MLOAD DUP1 MLOAD SWAP1 PUSH1 0x20 ADD KECCAK256 SWAP1 POP DUP1 DUP5 EQ PUSH2 0x25F4 JUMPI PUSH1 0xB SLOAD DUP3 MLOAD PUSH1 0x40 MLOAD PUSH4 0xB5262333 PUSH1 0xE0 SHL DUP2 MSTORE PUSH1 0x1 PUSH1 0x1 PUSH1 0xA0 SHL SUB SWAP1 SWAP3 AND SWAP2 PUSH4 0xB5262333 SWAP2 PUSH2 0x2560 SWAP2 PUSH1 0x4 ADD PUSH2 0x3E29 JUMP JUMPDEST PUSH1 0x0 PUSH1 0x40 MLOAD DUP1 DUP4 SUB DUP2 DUP7 DUP1 EXTCODESIZE ISZERO DUP1 ISZERO PUSH2 0x2578 JUMPI PUSH1 0x0 DUP1 REVERT JUMPDEST POP GAS STATICCALL ISZERO DUP1 ISZERO PUSH2 0x258C JUMPI RETURNDATASIZE PUSH1 0x0 DUP1 RETURNDATACOPY RETURNDATASIZE PUSH1 0x0 REVERT JUMPDEST POP POP POP POP PUSH1 0x40 MLOAD RETURNDATASIZE PUSH1 0x0 DUP3 RETURNDATACOPY PUSH1 0x1F RETURNDATASIZE SWAP1 DUP2 ADD PUSH1 0x1F NOT AND DUP3 ADD PUSH1 0x40 MSTORE PUSH2 0x25B4 SWAP2 SWAP1 DUP2 ADD SWAP1 PUSH2 0x3B2F JUMP JUMPDEST SWAP5 POP DUP1 SWAP4 POP PUSH1 0x0 DUP6 PUSH1 0x20 ADD MLOAD GT DUP1 ISZERO PUSH2 0x25D8 JUMPI POP PUSH1 0x20 DUP6 ADD MLOAD PUSH1 0x1 PUSH1 0x1 PUSH1 0xD8 SHL SUB LT ISZERO JUMPDEST PUSH2 0x25F4 JUMPI PUSH1 0x40 MLOAD PUSH3 0x461BCD PUSH1 0xE5 SHL DUP2 MSTORE PUSH1 0x4 ADD PUSH2 0x866 SWAP1 PUSH2 0x4A1C JUMP JUMPDEST PUSH1 0x0 DUP3 PUSH1 0x60 ADD MLOAD MLOAD GT PUSH2 0x2619 JUMPI PUSH1 0x40 MLOAD PUSH3 0x461BCD PUSH1 0xE5 SHL DUP2 MSTORE PUSH1 0x4 ADD PUSH2 0x866 SWAP1 PUSH2 0x4B42 JUMP JUMPDEST PUSH1 0x0 DUP3 PUSH1 0x20 ADD MLOAD GT DUP1 ISZERO PUSH2 0x2639 JUMPI POP PUSH1 0x40 DUP3 ADD MLOAD PUSH1 0x1 PUSH1 0x1 PUSH1 0xA0 SHL SUB AND ISZERO ISZERO JUMPDEST DUP1 PUSH2 0x265C JUMPI POP PUSH1 0x20 DUP3 ADD MLOAD ISZERO DUP1 ISZERO PUSH2 0x265C JUMPI POP PUSH1 0x40 DUP3 ADD MLOAD PUSH1 0x1 PUSH1 0x1 PUSH1 0xA0 SHL SUB AND ISZERO JUMPDEST PUSH2 0x2678 JUMPI PUSH1 0x40 MLOAD PUSH3 0x461BCD PUSH1 0xE5 SHL DUP2 MSTORE PUSH1 0x4 ADD PUSH2 0x866 SWAP1 PUSH2 0x486E JUMP JUMPDEST PUSH1 0x11 SLOAD PUSH5 0xFFFFFFFFFF DUP2 LT PUSH2 0x269F JUMPI PUSH1 0x40 MLOAD PUSH3 0x461BCD PUSH1 0xE5 SHL DUP2 MSTORE PUSH1 0x4 ADD PUSH2 0x866 SWAP1 PUSH2 0x4D61 JUMP JUMPDEST PUSH1 0x40 DUP1 MLOAD PUSH1 0xE0 DUP2 ADD DUP3 MSTORE DUP8 MLOAD DUP2 MSTORE PUSH1 0x20 DUP1 DUP10 ADD MLOAD DUP2 DUP4 ADD MSTORE PUSH1 0x0 DUP3 DUP5 ADD DUP2 SWAP1 MSTORE DUP7 DUP3 ADD MLOAD PUSH1 0x60 DUP1 DUP6 ADD SWAP2 SWAP1 SWAP2 MSTORE DUP8 DUP6 ADD MLOAD PUSH1 0x1 PUSH1 0x1 PUSH1 0xA0 SHL SUB AND PUSH1 0x80 DUP6 ADD MSTORE DUP8 ADD MLOAD PUSH1 0xA0 DUP5 ADD MSTORE DUP4 MLOAD DUP1 DUP4 ADD SWAP1 SWAP5 MSTORE DUP1 DUP5 MSTORE PUSH1 0xC0 DUP4 ADD SWAP4 SWAP1 SWAP4 MSTORE PUSH1 0x11 DUP1 SLOAD PUSH1 0x1 DUP2 ADD DUP3 SSTORE SWAP4 MSTORE DUP2 MLOAD DUP1 MLOAD SWAP3 SWAP4 DUP5 SWAP4 PUSH1 0x7 SWAP1 SWAP2 MUL PUSH32 0x31ECC21A745E3968A04E9570E4425BC18FA8019C68028196B546D1669C200C68 ADD SWAP3 PUSH2 0x2743 SWAP3 DUP5 SWAP3 SWAP2 ADD SWAP1 PUSH2 0x32F4 JUMP JUMPDEST POP PUSH1 0x20 DUP3 DUP2 ADD MLOAD PUSH1 0x1 DUP4 ADD SSTORE PUSH1 0x40 DUP4 ADD MLOAD PUSH1 0x2 DUP4 ADD SSTORE PUSH1 0x60 DUP4 ADD MLOAD PUSH1 0x3 DUP4 ADD SSTORE PUSH1 0x80 DUP4 ADD MLOAD PUSH1 0x4 DUP4 ADD DUP1 SLOAD PUSH1 0x1 PUSH1 0x1 PUSH1 0xA0 SHL SUB NOT AND PUSH1 0x1 PUSH1 0x1 PUSH1 0xA0 SHL SUB SWAP1 SWAP3 AND SWAP2 SWAP1 SWAP2 OR SWAP1 SSTORE PUSH1 0xA0 DUP4 ADD MLOAD DUP1 MLOAD PUSH2 0x27A0 SWAP3 PUSH1 0x5 DUP6 ADD SWAP3 ADD SWAP1 PUSH2 0x32F4 JUMP JUMPDEST POP PUSH1 0xC0 DUP3 ADD MLOAD DUP1 MLOAD PUSH2 0x27BC SWAP2 PUSH1 0x6 DUP5 ADD SWAP2 PUSH1 0x20 SWAP1 SWAP2 ADD SWAP1 PUSH2 0x32F4 JUMP JUMPDEST POP POP POP DUP2 PUSH32 0x1464DB75CAEC2C4F1B56B5246EF01A229FF5EDC3B0FCF9B2953FEC53B3987D8F DUP3 PUSH1 0x40 MLOAD PUSH2 0x27EF SWAP2 SWAP1 PUSH2 0x4F04 JUMP JUMPDEST PUSH1 0x40 MLOAD DUP1 SWAP2 SUB SWAP1 LOG2 POP POP PUSH1 0x1 SWAP1 SWAP3 ADD SWAP2 POP PUSH2 0x24F8 SWAP1 POP JUMP JUMPDEST PUSH1 0x0 DUP1 DUP1 DUP1 PUSH2 0x2816 DUP7 DUP7 PUSH2 0x2D47 JUMP JUMPDEST SWAP1 SWAP5 POP SWAP3 POP POP POP JUMPDEST SWAP3 POP SWAP3 SWAP1 POP JUMP JUMPDEST DUP1 MLOAD PUSH2 0x2838 SWAP1 PUSH1 0xA SWAP1 PUSH1 0x20 DUP5 ADD SWAP1 PUSH2 0x32F4 JUMP JUMPDEST POP POP JUMP JUMPDEST PUSH1 0x0 PUSH2 0x23A9 DUP5 DUP5 DUP5 PUSH2 0x2DA3 JUMP JUMPDEST PUSH2 0x2851 PUSH2 0x22A3 JUMP JUMPDEST DUP1 PUSH2 0x2874 JUMPI POP PUSH1 0x1 PUSH1 0x1 PUSH1 0xA0 SHL SUB DUP2 AND PUSH1 0x0 SWAP1 DUP2 MSTORE PUSH1 0xD PUSH1 0x20 MSTORE PUSH1 0x40 SWAP1 KECCAK256 SLOAD PUSH1 0xFF AND JUMPDEST PUSH2 0x28EE JUMPI PUSH1 0x0 DUP3 DUP2 MSTORE PUSH1 0xF PUSH1 0x20 SWAP1 DUP2 MSTORE PUSH1 0x40 DUP1 DUP4 KECCAK256 PUSH1 0x1 PUSH1 0x1 PUSH1 0xA0 SHL SUB DUP6 AND DUP5 MSTORE SWAP1 SWAP2 MSTORE SWAP1 KECCAK256 SLOAD DUP1 PUSH2 0x28B8 JUMPI PUSH1 0x40 MLOAD PUSH3 0x461BCD PUSH1 0xE5 SHL DUP2 MSTORE PUSH1 0x4 ADD PUSH2 0x866 SWAP1 PUSH2 0x4E8C JUMP JUMPDEST PUSH1 0x0 NOT DUP2 EQ PUSH2 0x28EC JUMPI PUSH1 0x0 DUP4 DUP2 MSTORE PUSH1 0xF PUSH1 0x20 SWAP1 DUP2 MSTORE PUSH1 0x40 DUP1 DUP4 KECCAK256 PUSH1 0x1 PUSH1 0x1 PUSH1 0xA0 SHL SUB DUP7 AND DUP5 MSTORE SWAP1 SWAP2 MSTORE SWAP1 KECCAK256 DUP1 SLOAD PUSH1 0x0 NOT ADD SWAP1 SSTORE JUMPDEST POP JUMPDEST PUSH1 0x11 SLOAD DUP3 LT PUSH2 0x290F JUMPI PUSH1 0x40 MLOAD PUSH3 0x461BCD PUSH1 0xE5 SHL DUP2 MSTORE PUSH1 0x4 ADD PUSH2 0x866 SWAP1 PUSH2 0x443E JUMP JUMPDEST PUSH1 0x0 PUSH1 0x11 DUP4 DUP2 SLOAD DUP2 LT PUSH2 0x291E JUMPI INVALID JUMPDEST SWAP1 PUSH1 0x0 MSTORE PUSH1 0x20 PUSH1 0x0 KECCAK256 SWAP1 PUSH1 0x7 MUL ADD SWAP1 POP PUSH1 0x0 PUSH2 0x2948 PUSH1 0x1 DUP4 PUSH1 0x2 ADD SLOAD PUSH2 0x2E02 SWAP1 SWAP2 SWAP1 PUSH4 0xFFFFFFFF AND JUMP JUMPDEST SWAP1 POP DUP2 PUSH1 0x1 ADD SLOAD DUP2 GT ISZERO PUSH2 0x296E JUMPI PUSH1 0x40 MLOAD PUSH3 0x461BCD PUSH1 0xE5 SHL DUP2 MSTORE PUSH1 0x4 ADD PUSH2 0x866 SWAP1 PUSH2 0x455E JUMP JUMPDEST PUSH1 0x0 PUSH2 0x297A DUP6 DUP4 PUSH2 0x201E JUMP JUMPDEST PUSH1 0x2 DUP5 ADD DUP4 SWAP1 SSTORE SWAP1 POP PUSH2 0x298D DUP7 DUP3 PUSH2 0x2E27 JUMP JUMPDEST DUP5 DUP2 DUP8 PUSH1 0x1 PUSH1 0x1 PUSH1 0xA0 SHL SUB AND PUSH32 0x57E2FE3F4D57A597E655A893F43C395D7DC18CB9C9C1898EDA75CC0AD7608525 DUP6 DUP9 PUSH1 0x40 MLOAD PUSH2 0x29CA SWAP3 SWAP2 SWAP1 PUSH2 0x4FA1 JUMP JUMPDEST PUSH1 0x40 MLOAD DUP1 SWAP2 SUB SWAP1 LOG4 POP POP POP POP POP POP JUMP JUMPDEST PUSH2 0x29E5 DUP5 DUP5 DUP5 PUSH2 0x23B1 JUMP JUMPDEST PUSH2 0x29F1 DUP5 DUP5 DUP5 DUP5 PUSH2 0x2EEB JUMP JUMPDEST PUSH2 0x1AA8 JUMPI PUSH1 0x40 MLOAD PUSH3 0x461BCD PUSH1 0xE5 SHL DUP2 MSTORE PUSH1 0x4 ADD PUSH2 0x866 SWAP1 PUSH2 0x4040 JUMP JUMPDEST PUSH1 0x60 DUP2 DUP1 PUSH2 0x2A34 JUMPI POP POP PUSH1 0x40 DUP1 MLOAD DUP1 DUP3 ADD SWAP1 SWAP2 MSTORE PUSH1 0x1 DUP2 MSTORE PUSH1 0x3 PUSH1 0xFC SHL PUSH1 0x20 DUP3 ADD MSTORE PUSH2 0x794 JUMP JUMPDEST DUP1 PUSH1 0x0 JUMPDEST DUP2 ISZERO PUSH2 0x2A4C JUMPI PUSH1 0x1 ADD PUSH1 0xA DUP3 DIV SWAP2 POP PUSH2 0x2A38 JUMP JUMPDEST PUSH1 0x0 DUP2 PUSH1 0x1 PUSH1 0x1 PUSH1 0x40 SHL SUB DUP2 GT DUP1 ISZERO PUSH2 0x2A64 JUMPI PUSH1 0x0 DUP1 REVERT JUMPDEST POP PUSH1 0x40 MLOAD SWAP1 DUP1 DUP3 MSTORE DUP1 PUSH1 0x1F ADD PUSH1 0x1F NOT AND PUSH1 0x20 ADD DUP3 ADD PUSH1 0x40 MSTORE DUP1 ISZERO PUSH2 0x2A8F JUMPI PUSH1 0x20 DUP3 ADD DUP2 DUP1 CALLDATASIZE DUP4 CALLDATACOPY ADD SWAP1 POP JUMPDEST POP SWAP1 POP PUSH1 0x0 NOT DUP3 ADD JUMPDEST DUP5 ISZERO PUSH2 0x2ADD JUMPI PUSH1 0xA DUP6 MOD PUSH1 0x30 ADD PUSH1 0xF8 SHL DUP3 DUP3 DUP1 PUSH1 0x1 SWAP1 SUB SWAP4 POP DUP2 MLOAD DUP2 LT PUSH2 0x2ABB JUMPI INVALID JUMPDEST PUSH1 0x20 ADD ADD SWAP1 PUSH1 0x1 PUSH1 0x1 PUSH1 0xF8 SHL SUB NOT AND SWAP1 DUP2 PUSH1 0x0 BYTE SWAP1 MSTORE8 POP PUSH1 0xA DUP6 DIV SWAP5 POP PUSH2 0x2A98 JUMP JUMPDEST POP SWAP6 SWAP5 POP POP POP POP POP JUMP JUMPDEST PUSH1 0x40 DUP1 MLOAD PUSH1 0x28 DUP1 DUP3 MSTORE PUSH1 0x60 DUP3 DUP2 ADD SWAP1 SWAP4 MSTORE PUSH1 0x0 SWAP2 SWAP1 PUSH1 0x20 DUP3 ADD DUP2 DUP1 CALLDATASIZE DUP4 CALLDATACOPY ADD SWAP1 POP POP SWAP1 POP PUSH1 0x0 JUMPDEST PUSH1 0x14 DUP2 LT ISZERO PUSH2 0x2BD5 JUMPI PUSH1 0x0 DUP2 PUSH1 0x13 SUB PUSH1 0x8 MUL PUSH1 0x2 EXP DUP6 PUSH1 0x1 PUSH1 0x1 PUSH1 0xA0 SHL SUB AND DUP2 PUSH2 0x2B34 JUMPI INVALID JUMPDEST DIV PUSH1 0xF8 SHL SWAP1 POP PUSH1 0x0 PUSH1 0x10 DUP3 PUSH1 0xF8 SHR PUSH1 0xFF AND DUP2 PUSH2 0x2B4C JUMPI INVALID JUMPDEST DIV PUSH1 0xF8 SHL SWAP1 POP PUSH1 0x0 DUP2 PUSH1 0xF8 SHR PUSH1 0x10 MUL DUP4 PUSH1 0xF8 SHR SUB PUSH1 0xF8 SHL SWAP1 POP PUSH2 0x2B6E DUP3 PUSH2 0x2FCA JUMP JUMPDEST DUP6 DUP6 PUSH1 0x2 MUL DUP2 MLOAD DUP2 LT PUSH2 0x2B7D JUMPI INVALID JUMPDEST PUSH1 0x20 ADD ADD SWAP1 PUSH1 0x1 PUSH1 0x1 PUSH1 0xF8 SHL SUB NOT AND SWAP1 DUP2 PUSH1 0x0 BYTE SWAP1 MSTORE8 POP PUSH2 0x2B9D DUP2 PUSH2 0x2FCA JUMP JUMPDEST DUP6 DUP6 PUSH1 0x2 MUL PUSH1 0x1 ADD DUP2 MLOAD DUP2 LT PUSH2 0x2BAF JUMPI INVALID JUMPDEST PUSH1 0x20 ADD ADD SWAP1 PUSH1 0x1 PUSH1 0x1 PUSH1 0xF8 SHL SUB NOT AND SWAP1 DUP2 PUSH1 0x0 BYTE SWAP1 MSTORE8 POP POP PUSH1 0x1 SWAP1 SWAP3 ADD SWAP2 POP PUSH2 0x2B0E SWAP1 POP JUMP JUMPDEST POP SWAP3 SWAP2 POP POP JUMP JUMPDEST PUSH1 0x0 PUSH2 0x2BE6 PUSH2 0x21D9 JUMP JUMPDEST PUSH1 0x0 DUP1 SLOAD PUSH1 0x1 PUSH1 0x1 PUSH1 0xA0 SHL SUB NOT AND PUSH1 0x1 PUSH1 0x1 PUSH1 0xA0 SHL SUB DUP4 AND SWAP1 DUP2 OR DUP3 SSTORE PUSH1 0x40 MLOAD SWAP3 SWAP4 POP SWAP2 PUSH32 0x8BE0079C531659141344CD1FD0A4F28419497F9722A3DAAFE3B4186F6B6457E0 SWAP1 DUP3 SWAP1 LOG3 POP JUMP JUMPDEST DUP2 MLOAD PUSH2 0x2C45 SWAP1 PUSH1 0x7 SWAP1 PUSH1 0x20 DUP6 ADD SWAP1 PUSH2 0x32F4 JUMP JUMPDEST POP DUP1 MLOAD PUSH2 0x2C59 SWAP1 PUSH1 0x8 SWAP1 PUSH1 0x20 DUP5 ADD SWAP1 PUSH2 0x32F4 JUMP JUMPDEST POP PUSH2 0x2C6A PUSH4 0x80AC58CD PUSH1 0xE0 SHL PUSH2 0x2FFB JUMP JUMPDEST PUSH2 0x2C7A PUSH4 0x5B5E139F PUSH1 0xE0 SHL PUSH2 0x2FFB JUMP JUMPDEST PUSH2 0x2838 PUSH4 0x780E9D63 PUSH1 0xE0 SHL PUSH2 0x2FFB JUMP JUMPDEST PUSH1 0x13 DUP1 SLOAD PUSH2 0xFF00 NOT AND PUSH2 0x100 OR SWAP1 SSTORE PUSH1 0x40 MLOAD PUSH32 0x1B7DCB42D49142A99E4C98DA755263C600213A33B780986779405B9823501D3 SWAP1 PUSH1 0x0 SWAP1 LOG1 JUMP JUMPDEST PUSH1 0x0 PUSH2 0xF68 DUP4 DUP4 PUSH2 0x304D JUMP JUMPDEST SLOAD SWAP1 JUMP JUMPDEST PUSH1 0x0 PUSH2 0xF68 DUP4 DUP4 PUSH2 0x3065 JUMP JUMPDEST PUSH1 0x0 PUSH2 0xF68 DUP4 DUP4 PUSH2 0x312B JUMP JUMPDEST PUSH1 0x0 PUSH2 0x23A9 DUP5 DUP5 PUSH1 0x1 PUSH1 0x1 PUSH1 0xA0 SHL SUB DUP6 AND PUSH2 0x3175 JUMP JUMPDEST DUP2 SLOAD PUSH1 0x0 SWAP1 DUP3 LT PUSH2 0x2D25 JUMPI PUSH1 0x40 MLOAD PUSH3 0x461BCD PUSH1 0xE5 SHL DUP2 MSTORE PUSH1 0x4 ADD PUSH2 0x866 SWAP1 PUSH2 0x3F0D JUMP JUMPDEST DUP3 PUSH1 0x0 ADD DUP3 DUP2 SLOAD DUP2 LT PUSH2 0x2D34 JUMPI INVALID JUMPDEST SWAP1 PUSH1 0x0 MSTORE PUSH1 0x20 PUSH1 0x0 KECCAK256 ADD SLOAD SWAP1 POP SWAP3 SWAP2 POP POP JUMP JUMPDEST DUP2 SLOAD PUSH1 0x0 SWAP1 DUP2 SWAP1 DUP4 LT PUSH2 0x2D6C JUMPI PUSH1 0x40 MLOAD PUSH3 0x461BCD PUSH1 0xE5 SHL DUP2 MSTORE PUSH1 0x4 ADD PUSH2 0x866 SWAP1 PUSH2 0x4653 JUMP JUMPDEST PUSH1 0x0 DUP5 PUSH1 0x0 ADD DUP5 DUP2 SLOAD DUP2 LT PUSH2 0x2D7D JUMPI INVALID JUMPDEST SWAP1 PUSH1 0x0 MSTORE PUSH1 0x20 PUSH1 0x0 KECCAK256 SWAP1 PUSH1 0x2 MUL ADD SWAP1 POP DUP1 PUSH1 0x0 ADD SLOAD DUP2 PUSH1 0x1 ADD SLOAD SWAP3 POP SWAP3 POP POP SWAP3 POP SWAP3 SWAP1 POP JUMP JUMPDEST PUSH1 0x0 DUP3 DUP2 MSTORE PUSH1 0x1 DUP5 ADD PUSH1 0x20 MSTORE PUSH1 0x40 DUP2 KECCAK256 SLOAD DUP3 DUP2 PUSH2 0x2DD3 JUMPI PUSH1 0x40 MLOAD PUSH3 0x461BCD PUSH1 0xE5 SHL DUP2 MSTORE PUSH1 0x4 ADD PUSH2 0x866 SWAP2 SWAP1 PUSH2 0x3E29 JUMP JUMPDEST POP DUP5 PUSH1 0x0 ADD PUSH1 0x1 DUP3 SUB DUP2 SLOAD DUP2 LT PUSH2 0x2DE6 JUMPI INVALID JUMPDEST SWAP1 PUSH1 0x0 MSTORE PUSH1 0x20 PUSH1 0x0 KECCAK256 SWAP1 PUSH1 0x2 MUL ADD PUSH1 0x1 ADD SLOAD SWAP2 POP POP SWAP4 SWAP3 POP POP POP JUMP JUMPDEST PUSH1 0x0 DUP3 DUP3 ADD DUP4 DUP2 LT ISZERO PUSH2 0xF68 JUMPI PUSH1 0x40 MLOAD PUSH3 0x461BCD PUSH1 0xE5 SHL DUP2 MSTORE PUSH1 0x4 ADD PUSH2 0x866 SWAP1 PUSH2 0x417B JUMP JUMPDEST PUSH1 0x1 PUSH1 0x1 PUSH1 0xA0 SHL SUB DUP3 AND PUSH2 0x2E4D JUMPI PUSH1 0x40 MLOAD PUSH3 0x461BCD PUSH1 0xE5 SHL DUP2 MSTORE PUSH1 0x4 ADD PUSH2 0x866 SWAP1 PUSH2 0x4695 JUMP JUMPDEST PUSH2 0x2E56 DUP2 PUSH2 0x21CC JUMP JUMPDEST ISZERO PUSH2 0x2E73 JUMPI PUSH1 0x40 MLOAD PUSH3 0x461BCD PUSH1 0xE5 SHL DUP2 MSTORE PUSH1 0x4 ADD PUSH2 0x866 SWAP1 PUSH2 0x410F JUMP JUMPDEST PUSH2 0x2E7F PUSH1 0x0 DUP4 DUP4 PUSH2 0x91E JUMP JUMPDEST PUSH1 0x1 PUSH1 0x1 PUSH1 0xA0 SHL SUB DUP3 AND PUSH1 0x0 SWAP1 DUP2 MSTORE PUSH1 0x2 PUSH1 0x20 MSTORE PUSH1 0x40 SWAP1 KECCAK256 PUSH2 0x2EA1 SWAP1 DUP3 PUSH2 0x2CE0 JUMP JUMPDEST POP PUSH2 0x2EAE PUSH1 0x3 DUP3 DUP5 PUSH2 0x2CEC JUMP JUMPDEST POP PUSH1 0x40 MLOAD DUP2 SWAP1 PUSH1 0x1 PUSH1 0x1 PUSH1 0xA0 SHL SUB DUP5 AND SWAP1 PUSH1 0x0 SWAP1 PUSH32 0xDDF252AD1BE2C89B69C2B068FC378DAA952BA7F163C4A11628F55A4DF523B3EF SWAP1 DUP3 SWAP1 LOG4 POP POP JUMP JUMPDEST PUSH1 0x0 PUSH2 0x2EFF DUP5 PUSH1 0x1 PUSH1 0x1 PUSH1 0xA0 SHL SUB AND PUSH2 0x320C JUMP JUMPDEST PUSH2 0x2F0B JUMPI POP PUSH1 0x1 PUSH2 0x23A9 JUMP JUMPDEST PUSH1 0x0 PUSH2 0x2F93 PUSH4 0xA85BD01 PUSH1 0xE1 SHL PUSH2 0x2F20 PUSH2 0x21D9 JUMP JUMPDEST DUP9 DUP8 DUP8 PUSH1 0x40 MLOAD PUSH1 0x24 ADD PUSH2 0x2F36 SWAP5 SWAP4 SWAP3 SWAP2 SWAP1 PUSH2 0x3DC6 JUMP JUMPDEST PUSH1 0x40 MLOAD PUSH1 0x20 DUP2 DUP4 SUB SUB DUP2 MSTORE SWAP1 PUSH1 0x40 MSTORE SWAP1 PUSH1 0x1 PUSH1 0x1 PUSH1 0xE0 SHL SUB NOT AND PUSH1 0x20 DUP3 ADD DUP1 MLOAD PUSH1 0x1 PUSH1 0x1 PUSH1 0xE0 SHL SUB DUP4 DUP2 DUP4 AND OR DUP4 MSTORE POP POP POP POP PUSH1 0x40 MLOAD DUP1 PUSH1 0x60 ADD PUSH1 0x40 MSTORE DUP1 PUSH1 0x32 DUP2 MSTORE PUSH1 0x20 ADD PUSH2 0x5119 PUSH1 0x32 SWAP2 CODECOPY PUSH1 0x1 PUSH1 0x1 PUSH1 0xA0 SHL SUB DUP9 AND SWAP2 SWAP1 PUSH2 0x3212 JUMP JUMPDEST SWAP1 POP PUSH1 0x0 DUP2 DUP1 PUSH1 0x20 ADD SWAP1 MLOAD DUP2 ADD SWAP1 PUSH2 0x2FAB SWAP2 SWAP1 PUSH2 0x39F7 JUMP JUMPDEST PUSH1 0x1 PUSH1 0x1 PUSH1 0xE0 SHL SUB NOT AND PUSH4 0xA85BD01 PUSH1 0xE1 SHL EQ SWAP3 POP POP POP SWAP5 SWAP4 POP POP POP POP JUMP JUMPDEST PUSH1 0x0 PUSH1 0xA PUSH1 0xF8 DUP4 SWAP1 SHR LT ISZERO PUSH2 0x2FEA JUMPI DUP2 PUSH1 0xF8 SHR PUSH1 0x30 ADD PUSH1 0xF8 SHL SWAP1 POP PUSH2 0x794 JUMP JUMPDEST DUP2 PUSH1 0xF8 SHR PUSH1 0x57 ADD PUSH1 0xF8 SHL SWAP1 POP PUSH2 0x794 JUMP JUMPDEST PUSH1 0x1 PUSH1 0x1 PUSH1 0xE0 SHL SUB NOT DUP1 DUP3 AND EQ ISZERO PUSH2 0x3025 JUMPI PUSH1 0x40 MLOAD PUSH3 0x461BCD PUSH1 0xE5 SHL DUP2 MSTORE PUSH1 0x4 ADD PUSH2 0x866 SWAP1 PUSH2 0x40D8 JUMP JUMPDEST PUSH1 0x1 PUSH1 0x1 PUSH1 0xE0 SHL SUB NOT AND PUSH1 0x0 SWAP1 DUP2 MSTORE PUSH1 0x1 PUSH1 0x20 DUP2 SWAP1 MSTORE PUSH1 0x40 SWAP1 SWAP2 KECCAK256 DUP1 SLOAD PUSH1 0xFF NOT AND SWAP1 SWAP2 OR SWAP1 SSTORE JUMP JUMPDEST PUSH1 0x0 SWAP1 DUP2 MSTORE PUSH1 0x1 SWAP2 SWAP1 SWAP2 ADD PUSH1 0x20 MSTORE PUSH1 0x40 SWAP1 KECCAK256 SLOAD ISZERO ISZERO SWAP1 JUMP JUMPDEST PUSH1 0x0 DUP2 DUP2 MSTORE PUSH1 0x1 DUP4 ADD PUSH1 0x20 MSTORE PUSH1 0x40 DUP2 KECCAK256 SLOAD DUP1 ISZERO PUSH2 0x3121 JUMPI DUP4 SLOAD PUSH1 0x0 NOT DUP1 DUP4 ADD SWAP2 SWAP1 DUP2 ADD SWAP1 PUSH1 0x0 SWAP1 DUP8 SWAP1 DUP4 SWAP1 DUP2 LT PUSH2 0x3098 JUMPI INVALID JUMPDEST SWAP1 PUSH1 0x0 MSTORE PUSH1 0x20 PUSH1 0x0 KECCAK256 ADD SLOAD SWAP1 POP DUP1 DUP8 PUSH1 0x0 ADD DUP5 DUP2 SLOAD DUP2 LT PUSH2 0x30B5 JUMPI INVALID JUMPDEST PUSH1 0x0 SWAP2 DUP3 MSTORE PUSH1 0x20 DUP1 DUP4 KECCAK256 SWAP1 SWAP2 ADD SWAP3 SWAP1 SWAP3 SSTORE DUP3 DUP2 MSTORE PUSH1 0x1 DUP10 DUP2 ADD SWAP1 SWAP3 MSTORE PUSH1 0x40 SWAP1 KECCAK256 SWAP1 DUP5 ADD SWAP1 SSTORE DUP7 SLOAD DUP8 SWAP1 DUP1 PUSH2 0x30E5 JUMPI INVALID JUMPDEST PUSH1 0x1 SWAP1 SUB DUP2 DUP2 SWAP1 PUSH1 0x0 MSTORE PUSH1 0x20 PUSH1 0x0 KECCAK256 ADD PUSH1 0x0 SWAP1 SSTORE SWAP1 SSTORE DUP7 PUSH1 0x1 ADD PUSH1 0x0 DUP8 DUP2 MSTORE PUSH1 0x20 ADD SWAP1 DUP2 MSTORE PUSH1 0x20 ADD PUSH1 0x0 KECCAK256 PUSH1 0x0 SWAP1 SSTORE PUSH1 0x1 SWAP5 POP POP POP POP POP PUSH2 0xF6B JUMP JUMPDEST PUSH1 0x0 SWAP2 POP POP PUSH2 0xF6B JUMP JUMPDEST PUSH1 0x0 PUSH2 0x3137 DUP4 DUP4 PUSH2 0x304D JUMP JUMPDEST PUSH2 0x316D JUMPI POP DUP2 SLOAD PUSH1 0x1 DUP2 DUP2 ADD DUP5 SSTORE PUSH1 0x0 DUP5 DUP2 MSTORE PUSH1 0x20 DUP1 DUP3 KECCAK256 SWAP1 SWAP4 ADD DUP5 SWAP1 SSTORE DUP5 SLOAD DUP5 DUP3 MSTORE DUP3 DUP7 ADD SWAP1 SWAP4 MSTORE PUSH1 0x40 SWAP1 KECCAK256 SWAP2 SWAP1 SWAP2 SSTORE PUSH2 0xF6B JUMP JUMPDEST POP PUSH1 0x0 PUSH2 0xF6B JUMP JUMPDEST PUSH1 0x0 DUP3 DUP2 MSTORE PUSH1 0x1 DUP5 ADD PUSH1 0x20 MSTORE PUSH1 0x40 DUP2 KECCAK256 SLOAD DUP1 PUSH2 0x31DA JUMPI POP POP PUSH1 0x40 DUP1 MLOAD DUP1 DUP3 ADD DUP3 MSTORE DUP4 DUP2 MSTORE PUSH1 0x20 DUP1 DUP3 ADD DUP5 DUP2 MSTORE DUP7 SLOAD PUSH1 0x1 DUP2 DUP2 ADD DUP10 SSTORE PUSH1 0x0 DUP10 DUP2 MSTORE DUP5 DUP2 KECCAK256 SWAP6 MLOAD PUSH1 0x2 SWAP1 SWAP4 MUL SWAP1 SWAP6 ADD SWAP2 DUP3 SSTORE SWAP2 MLOAD SWAP1 DUP3 ADD SSTORE DUP7 SLOAD DUP7 DUP5 MSTORE DUP2 DUP9 ADD SWAP1 SWAP3 MSTORE SWAP3 SWAP1 SWAP2 KECCAK256 SSTORE PUSH2 0x231A JUMP JUMPDEST DUP3 DUP6 PUSH1 0x0 ADD PUSH1 0x1 DUP4 SUB DUP2 SLOAD DUP2 LT PUSH2 0x31ED JUMPI INVALID JUMPDEST SWAP1 PUSH1 0x0 MSTORE PUSH1 0x20 PUSH1 0x0 KECCAK256 SWAP1 PUSH1 0x2 MUL ADD PUSH1 0x1 ADD DUP2 SWAP1 SSTORE POP PUSH1 0x0 SWAP2 POP POP PUSH2 0x231A JUMP JUMPDEST EXTCODESIZE ISZERO ISZERO SWAP1 JUMP JUMPDEST PUSH1 0x60 PUSH2 0x23A9 DUP5 DUP5 PUSH1 0x0 DUP6 DUP6 PUSH2 0x3226 DUP6 PUSH2 0x320C JUMP JUMPDEST PUSH2 0x3242 JUMPI PUSH1 0x40 MLOAD PUSH3 0x461BCD PUSH1 0xE5 SHL DUP2 MSTORE PUSH1 0x4 ADD PUSH2 0x866 SWAP1 PUSH2 0x4BBB JUMP JUMPDEST PUSH1 0x0 DUP1 DUP7 PUSH1 0x1 PUSH1 0x1 PUSH1 0xA0 SHL SUB AND DUP6 DUP8 PUSH1 0x40 MLOAD PUSH2 0x325E SWAP2 SWAP1 PUSH2 0x3CFE JUMP JUMPDEST PUSH1 0x0 PUSH1 0x40 MLOAD DUP1 DUP4 SUB DUP2 DUP6 DUP8 GAS CALL SWAP3 POP POP POP RETURNDATASIZE DUP1 PUSH1 0x0 DUP2 EQ PUSH2 0x329B JUMPI PUSH1 0x40 MLOAD SWAP2 POP PUSH1 0x1F NOT PUSH1 0x3F RETURNDATASIZE ADD AND DUP3 ADD PUSH1 0x40 MSTORE RETURNDATASIZE DUP3 MSTORE RETURNDATASIZE PUSH1 0x0 PUSH1 0x20 DUP5 ADD RETURNDATACOPY PUSH2 0x32A0 JUMP JUMPDEST PUSH1 0x60 SWAP2 POP JUMPDEST POP SWAP2 POP SWAP2 POP PUSH2 0x32B0 DUP3 DUP3 DUP7 PUSH2 0x32BB JUMP JUMPDEST SWAP8 SWAP7 POP POP POP POP POP POP POP JUMP JUMPDEST PUSH1 0x60 DUP4 ISZERO PUSH2 0x32CA JUMPI POP DUP2 PUSH2 0x231A JUMP JUMPDEST DUP3 MLOAD ISZERO PUSH2 0x32DA JUMPI DUP3 MLOAD DUP1 DUP5 PUSH1 0x20 ADD REVERT JUMPDEST DUP2 PUSH1 0x40 MLOAD PUSH3 0x461BCD PUSH1 0xE5 SHL DUP2 MSTORE PUSH1 0x4 ADD PUSH2 0x866 SWAP2 SWAP1 PUSH2 0x3E29 JUMP JUMPDEST DUP3 DUP1 SLOAD PUSH1 0x1 DUP2 PUSH1 0x1 AND ISZERO PUSH2 0x100 MUL SUB AND PUSH1 0x2 SWAP1 DIV SWAP1 PUSH1 0x0 MSTORE PUSH1 0x20 PUSH1 0x0 KECCAK256 SWAP1 PUSH1 0x1F ADD PUSH1 0x20 SWAP1 DIV DUP2 ADD SWAP3 DUP3 PUSH2 0x332A JUMPI PUSH1 0x0 DUP6 SSTORE PUSH2 0x3370 JUMP JUMPDEST DUP3 PUSH1 0x1F LT PUSH2 0x3343 JUMPI DUP1 MLOAD PUSH1 0xFF NOT AND DUP4 DUP1 ADD OR DUP6 SSTORE PUSH2 0x3370 JUMP JUMPDEST DUP3 DUP1 ADD PUSH1 0x1 ADD DUP6 SSTORE DUP3 ISZERO PUSH2 0x3370 JUMPI SWAP2 DUP3 ADD JUMPDEST DUP3 DUP2 GT ISZERO PUSH2 0x3370 JUMPI DUP3 MLOAD DUP3 SSTORE SWAP2 PUSH1 0x20 ADD SWAP2 SWAP1 PUSH1 0x1 ADD SWAP1 PUSH2 0x3355 JUMP JUMPDEST POP PUSH2 0x337C SWAP3 SWAP2 POP PUSH2 0x33A1 JUMP JUMPDEST POP SWAP1 JUMP JUMPDEST PUSH1 0x40 MLOAD DUP1 PUSH1 0x60 ADD PUSH1 0x40 MSTORE DUP1 PUSH1 0x60 DUP2 MSTORE PUSH1 0x20 ADD PUSH1 0x0 DUP2 MSTORE PUSH1 0x20 ADD PUSH1 0x0 DUP2 MSTORE POP SWAP1 JUMP JUMPDEST JUMPDEST DUP1 DUP3 GT ISZERO PUSH2 0x337C JUMPI PUSH1 0x0 DUP2 SSTORE PUSH1 0x1 ADD PUSH2 0x33A2 JUMP JUMPDEST DUP1 CALLDATALOAD PUSH2 0x794 DUP2 PUSH2 0x50ED JUMP JUMPDEST PUSH1 0x0 DUP1 DUP4 PUSH1 0x1F DUP5 ADD SLT PUSH2 0x33D2 JUMPI DUP2 DUP3 REVERT JUMPDEST POP DUP2 CALLDATALOAD PUSH1 0x1 PUSH1 0x1 PUSH1 0x40 SHL SUB DUP2 GT ISZERO PUSH2 0x33E8 JUMPI DUP2 DUP3 REVERT JUMPDEST PUSH1 0x20 DUP4 ADD SWAP2 POP DUP4 PUSH1 0x20 DUP1 DUP4 MUL DUP6 ADD ADD GT ISZERO PUSH2 0x281E JUMPI PUSH1 0x0 DUP1 REVERT JUMPDEST PUSH1 0x0 DUP3 PUSH1 0x1F DUP4 ADD SLT PUSH2 0x3412 JUMPI DUP1 DUP2 REVERT JUMPDEST DUP2 CALLDATALOAD PUSH1 0x20 PUSH2 0x3427 PUSH2 0x3422 DUP4 PUSH2 0x5077 JUMP JUMPDEST PUSH2 0x5054 JUMP JUMPDEST DUP3 DUP2 MSTORE DUP2 DUP2 ADD SWAP1 DUP6 DUP4 ADD DUP6 JUMPDEST DUP6 DUP2 LT ISZERO PUSH2 0x34E8 JUMPI DUP2 CALLDATALOAD DUP9 ADD PUSH1 0x80 DUP1 PUSH1 0x1F NOT DUP4 DUP14 SUB ADD SLT ISZERO PUSH2 0x3453 JUMPI DUP9 DUP10 REVERT JUMPDEST PUSH1 0x40 DUP1 MLOAD DUP3 DUP2 ADD PUSH1 0x1 PUSH1 0x1 PUSH1 0x40 SHL SUB DUP3 DUP3 LT DUP2 DUP4 GT OR ISZERO PUSH2 0x3470 JUMPI INVALID JUMPDEST SWAP1 DUP4 MSTORE DUP5 DUP11 ADD CALLDATALOAD SWAP1 DUP1 DUP3 GT ISZERO PUSH2 0x3484 JUMPI DUP13 DUP14 REVERT JUMPDEST PUSH2 0x3492 DUP16 DUP13 DUP5 DUP10 ADD ADD PUSH2 0x3505 JUMP JUMPDEST DUP4 MSTORE DUP4 DUP7 ADD CALLDATALOAD DUP12 DUP5 ADD MSTORE PUSH1 0x60 SWAP2 POP PUSH2 0x34AB DUP3 DUP8 ADD PUSH2 0x33B6 JUMP JUMPDEST DUP4 DUP6 ADD MSTORE SWAP4 DUP6 ADD CALLDATALOAD SWAP4 DUP1 DUP6 GT ISZERO PUSH2 0x34C0 JUMPI DUP13 DUP14 REVERT JUMPDEST POP PUSH2 0x34CF DUP15 DUP12 DUP7 DUP9 ADD ADD PUSH2 0x3505 JUMP JUMPDEST SWAP1 DUP3 ADD MSTORE DUP8 MSTORE POP POP POP SWAP3 DUP5 ADD SWAP3 SWAP1 DUP5 ADD SWAP1 PUSH1 0x1 ADD PUSH2 0x3433 JUMP JUMPDEST POP SWAP1 SWAP8 SWAP7 POP POP POP POP POP POP POP JUMP JUMPDEST DUP1 CALLDATALOAD DUP1 ISZERO ISZERO DUP2 EQ PUSH2 0x794 JUMPI PUSH1 0x0 DUP1 REVERT JUMPDEST PUSH1 0x0 DUP3 PUSH1 0x1F DUP4 ADD SLT PUSH2 0x3515 JUMPI DUP1 DUP2 REVERT JUMPDEST DUP2 CALLDATALOAD PUSH2 0x3523 PUSH2 0x3422 DUP3 PUSH2 0x5094 JUMP JUMPDEST DUP2 DUP2 MSTORE DUP5 PUSH1 0x20 DUP4 DUP7 ADD ADD GT ISZERO PUSH2 0x3537 JUMPI DUP3 DUP4 REVERT JUMPDEST DUP2 PUSH1 0x20 DUP6 ADD PUSH1 0x20 DUP4 ADD CALLDATACOPY SWAP1 DUP2 ADD PUSH1 0x20 ADD SWAP2 SWAP1 SWAP2 MSTORE SWAP3 SWAP2 POP POP JUMP JUMPDEST PUSH1 0x0 PUSH1 0x20 DUP3 DUP5 SUB SLT ISZERO PUSH2 0x3562 JUMPI DUP1 DUP2 REVERT JUMPDEST DUP2 CALLDATALOAD PUSH2 0xF68 DUP2 PUSH2 0x50ED JUMP JUMPDEST PUSH1 0x0 DUP1 PUSH1 0x40 DUP4 DUP6 SUB SLT ISZERO PUSH2 0x357F JUMPI DUP1 DUP2 REVERT JUMPDEST DUP3 CALLDATALOAD PUSH2 0x358A DUP2 PUSH2 0x50ED JUMP JUMPDEST SWAP2 POP PUSH1 0x20 DUP4 ADD CALLDATALOAD PUSH2 0x359A DUP2 PUSH2 0x50ED JUMP JUMPDEST DUP1 SWAP2 POP POP SWAP3 POP SWAP3 SWAP1 POP JUMP JUMPDEST PUSH1 0x0 DUP1 PUSH1 0x0 DUP1 PUSH1 0x60 DUP6 DUP8 SUB SLT ISZERO PUSH2 0x35BA JUMPI DUP2 DUP3 REVERT JUMPDEST DUP5 CALLDATALOAD PUSH2 0x35C5 DUP2 PUSH2 0x50ED JUMP JUMPDEST SWAP4 POP PUSH1 0x20 DUP6 ADD CALLDATALOAD PUSH2 0x35D5 DUP2 PUSH2 0x50ED JUMP JUMPDEST SWAP3 POP PUSH1 0x40 DUP6 ADD CALLDATALOAD PUSH1 0x1 PUSH1 0x1 PUSH1 0x40 SHL SUB DUP2 GT ISZERO PUSH2 0x35EF JUMPI DUP3 DUP4 REVERT JUMPDEST PUSH2 0x35FB DUP8 DUP3 DUP9 ADD PUSH2 0x33C1 JUMP JUMPDEST SWAP6 SWAP9 SWAP5 SWAP8 POP SWAP6 POP POP POP POP JUMP JUMPDEST PUSH1 0x0 DUP1 PUSH1 0x0 DUP1 PUSH1 0x80 DUP6 DUP8 SUB SLT ISZERO PUSH2 0x361C JUMPI DUP2 DUP3 REVERT JUMPDEST DUP5 CALLDATALOAD PUSH2 0x3627 DUP2 PUSH2 0x50ED JUMP JUMPDEST SWAP4 POP PUSH1 0x20 DUP6 DUP2 ADD CALLDATALOAD PUSH2 0x3638 DUP2 PUSH2 0x50ED JUMP JUMPDEST SWAP4 POP PUSH1 0x40 DUP7 ADD CALLDATALOAD PUSH1 0x1 PUSH1 0x1 PUSH1 0x40 SHL SUB DUP1 DUP3 GT ISZERO PUSH2 0x3653 JUMPI DUP5 DUP6 REVERT JUMPDEST DUP2 DUP9 ADD SWAP2 POP DUP9 PUSH1 0x1F DUP4 ADD SLT PUSH2 0x3666 JUMPI DUP5 DUP6 REVERT JUMPDEST DUP2 CALLDATALOAD PUSH2 0x3674 PUSH2 0x3422 DUP3 PUSH2 0x5077 JUMP JUMPDEST DUP2 DUP2 MSTORE DUP5 DUP2 ADD SWAP1 DUP5 DUP7 ADD DUP7 DUP5 MUL DUP7 ADD DUP8 ADD DUP14 LT ISZERO PUSH2 0x3690 JUMPI DUP9 DUP10 REVERT JUMPDEST DUP9 SWAP6 POP JUMPDEST DUP4 DUP7 LT ISZERO PUSH2 0x36B2 JUMPI DUP1 CALLDATALOAD DUP4 MSTORE PUSH1 0x1 SWAP6 SWAP1 SWAP6 ADD SWAP5 SWAP2 DUP7 ADD SWAP2 DUP7 ADD PUSH2 0x3694 JUMP JUMPDEST POP SWAP7 POP POP POP PUSH1 0x60 DUP9 ADD CALLDATALOAD SWAP3 POP DUP1 DUP4 GT ISZERO PUSH2 0x36CA JUMPI DUP4 DUP5 REVERT JUMPDEST POP POP PUSH2 0x36D8 DUP8 DUP3 DUP9 ADD PUSH2 0x3505 JUMP JUMPDEST SWAP2 POP POP SWAP3 SWAP6 SWAP2 SWAP5 POP SWAP3 POP JUMP JUMPDEST PUSH1 0x0 DUP1 PUSH1 0x0 PUSH1 0x60 DUP5 DUP7 SUB SLT ISZERO PUSH2 0x36F8 JUMPI DUP1 DUP2 REVERT JUMPDEST DUP4 CALLDATALOAD PUSH2 0x3703 DUP2 PUSH2 0x50ED JUMP JUMPDEST SWAP3 POP PUSH1 0x20 DUP5 ADD CALLDATALOAD PUSH2 0x3713 DUP2 PUSH2 0x50ED JUMP JUMPDEST SWAP3 SWAP6 SWAP3 SWAP5 POP POP POP PUSH1 0x40 SWAP2 SWAP1 SWAP2 ADD CALLDATALOAD SWAP1 JUMP JUMPDEST PUSH1 0x0 DUP1 PUSH1 0x0 DUP1 PUSH1 0x80 DUP6 DUP8 SUB SLT ISZERO PUSH2 0x3739 JUMPI DUP2 DUP3 REVERT JUMPDEST DUP5 CALLDATALOAD PUSH2 0x3744 DUP2 PUSH2 0x50ED JUMP JUMPDEST SWAP4 POP PUSH1 0x20 DUP6 ADD CALLDATALOAD PUSH2 0x3754 DUP2 PUSH2 0x50ED JUMP JUMPDEST SWAP3 POP PUSH1 0x40 DUP6 ADD CALLDATALOAD SWAP2 POP PUSH1 0x60 DUP6 ADD CALLDATALOAD PUSH1 0x1 PUSH1 0x1 PUSH1 0x40 SHL SUB DUP2 GT ISZERO PUSH2 0x3775 JUMPI DUP2 DUP3 REVERT JUMPDEST PUSH2 0x36D8 DUP8 DUP3 DUP9 ADD PUSH2 0x3505 JUMP JUMPDEST PUSH1 0x0 DUP1 PUSH1 0x40 DUP4 DUP6 SUB SLT ISZERO PUSH2 0x3793 JUMPI DUP2 DUP3 REVERT JUMPDEST DUP3 CALLDATALOAD PUSH2 0x379E DUP2 PUSH2 0x50ED JUMP JUMPDEST SWAP2 POP PUSH2 0x37AC PUSH1 0x20 DUP5 ADD PUSH2 0x34F5 JUMP JUMPDEST SWAP1 POP SWAP3 POP SWAP3 SWAP1 POP JUMP JUMPDEST PUSH1 0x0 DUP1 PUSH1 0x40 DUP4 DUP6 SUB SLT ISZERO PUSH2 0x37C7 JUMPI DUP2 DUP3 REVERT JUMPDEST DUP3 CALLDATALOAD PUSH2 0x37D2 DUP2 PUSH2 0x50ED JUMP JUMPDEST SWAP5 PUSH1 0x20 SWAP4 SWAP1 SWAP4 ADD CALLDATALOAD SWAP4 POP POP POP JUMP JUMPDEST PUSH1 0x0 DUP1 PUSH1 0x0 DUP1 PUSH1 0x40 DUP6 DUP8 SUB SLT ISZERO PUSH2 0x37F5 JUMPI DUP2 DUP3 REVERT JUMPDEST DUP5 CALLDATALOAD PUSH1 0x1 PUSH1 0x1 PUSH1 0x40 SHL SUB DUP1 DUP3 GT ISZERO PUSH2 0x380B JUMPI DUP4 DUP5 REVERT JUMPDEST PUSH2 0x3817 DUP9 DUP4 DUP10 ADD PUSH2 0x33C1 JUMP JUMPDEST SWAP1 SWAP7 POP SWAP5 POP PUSH1 0x20 DUP8 ADD CALLDATALOAD SWAP2 POP DUP1 DUP3 GT ISZERO PUSH2 0x382F JUMPI DUP4 DUP5 REVERT JUMPDEST POP PUSH2 0x35FB DUP8 DUP3 DUP9 ADD PUSH2 0x33C1 JUMP JUMPDEST PUSH1 0x0 PUSH1 0x20 DUP3 DUP5 SUB SLT ISZERO PUSH2 0x384D JUMPI DUP1 DUP2 REVERT JUMPDEST DUP2 CALLDATALOAD PUSH1 0x1 PUSH1 0x1 PUSH1 0x40 SHL SUB DUP2 GT ISZERO PUSH2 0x3862 JUMPI DUP2 DUP3 REVERT JUMPDEST PUSH2 0x23A9 DUP5 DUP3 DUP6 ADD PUSH2 0x3402 JUMP JUMPDEST PUSH1 0x0 DUP1 PUSH1 0x0 DUP1 PUSH1 0x0 DUP1 PUSH1 0x60 DUP8 DUP10 SUB SLT ISZERO PUSH2 0x3886 JUMPI DUP4 DUP5 REVERT JUMPDEST DUP7 CALLDATALOAD PUSH1 0x1 PUSH1 0x1 PUSH1 0x40 SHL SUB DUP1 DUP3 GT ISZERO PUSH2 0x389C JUMPI DUP6 DUP7 REVERT JUMPDEST PUSH2 0x38A8 DUP11 DUP4 DUP12 ADD PUSH2 0x33C1 JUMP JUMPDEST SWAP1 SWAP9 POP SWAP7 POP PUSH1 0x20 DUP10 ADD CALLDATALOAD SWAP2 POP DUP1 DUP3 GT ISZERO PUSH2 0x38C0 JUMPI DUP6 DUP7 REVERT JUMPDEST PUSH2 0x38CC DUP11 DUP4 DUP12 ADD PUSH2 0x33C1 JUMP JUMPDEST SWAP1 SWAP7 POP SWAP5 POP PUSH1 0x40 DUP10 ADD CALLDATALOAD SWAP2 POP DUP1 DUP3 GT ISZERO PUSH2 0x38E4 JUMPI DUP4 DUP5 REVERT JUMPDEST POP PUSH2 0x38F1 DUP10 DUP3 DUP11 ADD PUSH2 0x33C1 JUMP JUMPDEST SWAP8 SWAP11 SWAP7 SWAP10 POP SWAP5 SWAP8 POP SWAP3 SWAP6 SWAP4 SWAP5 SWAP3 POP POP POP JUMP JUMPDEST PUSH1 0x0 DUP1 PUSH1 0x0 DUP1 PUSH1 0x0 DUP1 PUSH1 0x0 DUP1 PUSH1 0x80 DUP10 DUP12 SUB SLT ISZERO PUSH2 0x391E JUMPI DUP6 DUP7 REVERT JUMPDEST DUP9 CALLDATALOAD PUSH1 0x1 PUSH1 0x1 PUSH1 0x40 SHL SUB DUP1 DUP3 GT ISZERO PUSH2 0x3934 JUMPI DUP8 DUP9 REVERT JUMPDEST PUSH2 0x3940 DUP13 DUP4 DUP14 ADD PUSH2 0x33C1 JUMP JUMPDEST SWAP1 SWAP11 POP SWAP9 POP PUSH1 0x20 DUP12 ADD CALLDATALOAD SWAP2 POP DUP1 DUP3 GT ISZERO PUSH2 0x3958 JUMPI DUP8 DUP9 REVERT JUMPDEST PUSH2 0x3964 DUP13 DUP4 DUP14 ADD PUSH2 0x33C1 JUMP JUMPDEST SWAP1 SWAP9 POP SWAP7 POP PUSH1 0x40 DUP12 ADD CALLDATALOAD SWAP2 POP DUP1 DUP3 GT ISZERO PUSH2 0x397C JUMPI DUP4 DUP5 REVERT JUMPDEST PUSH2 0x3988 DUP13 DUP4 DUP14 ADD PUSH2 0x33C1 JUMP JUMPDEST SWAP1 SWAP7 POP SWAP5 POP PUSH1 0x60 DUP12 ADD CALLDATALOAD SWAP2 POP DUP1 DUP3 GT ISZERO PUSH2 0x39A0 JUMPI DUP4 DUP5 REVERT JUMPDEST POP PUSH2 0x39AD DUP12 DUP3 DUP13 ADD PUSH2 0x33C1 JUMP JUMPDEST SWAP10 SWAP13 SWAP9 SWAP12 POP SWAP7 SWAP10 POP SWAP5 SWAP8 SWAP4 SWAP7 SWAP3 SWAP6 SWAP5 POP POP POP JUMP JUMPDEST PUSH1 0x0 PUSH1 0x20 DUP3 DUP5 SUB SLT ISZERO PUSH2 0x39D2 JUMPI DUP1 DUP2 REVERT JUMPDEST PUSH2 0xF68 DUP3 PUSH2 0x34F5 JUMP JUMPDEST PUSH1 0x0 PUSH1 0x20 DUP3 DUP5 SUB SLT ISZERO PUSH2 0x39EC JUMPI DUP1 DUP2 REVERT JUMPDEST DUP2 CALLDATALOAD PUSH2 0xF68 DUP2 PUSH2 0x5102 JUMP JUMPDEST PUSH1 0x0 PUSH1 0x20 DUP3 DUP5 SUB SLT ISZERO PUSH2 0x3A08 JUMPI DUP1 DUP2 REVERT JUMPDEST DUP2 MLOAD PUSH2 0xF68 DUP2 PUSH2 0x5102 JUMP JUMPDEST PUSH1 0x0 PUSH1 0x20 DUP3 DUP5 SUB SLT ISZERO PUSH2 0x3A24 JUMPI DUP1 DUP2 REVERT JUMPDEST DUP2 CALLDATALOAD PUSH1 0x1 PUSH1 0x1 PUSH1 0x40 SHL SUB DUP2 GT ISZERO PUSH2 0x3A39 JUMPI DUP2 DUP3 REVERT JUMPDEST PUSH2 0x23A9 DUP5 DUP3 DUP6 ADD PUSH2 0x3505 JUMP JUMPDEST PUSH1 0x0 DUP1 PUSH1 0x0 DUP1 PUSH1 0x0 DUP1 PUSH1 0x0 DUP1 PUSH2 0x100 DUP10 DUP12 SUB SLT ISZERO PUSH2 0x3A61 JUMPI DUP2 DUP3 REVERT JUMPDEST DUP9 CALLDATALOAD PUSH1 0x1 PUSH1 0x1 PUSH1 0x40 SHL SUB DUP1 DUP3 GT ISZERO PUSH2 0x3A77 JUMPI DUP4 DUP5 REVERT JUMPDEST PUSH2 0x3A83 DUP13 DUP4 DUP14 ADD PUSH2 0x3505 JUMP JUMPDEST SWAP10 POP PUSH1 0x20 DUP12 ADD CALLDATALOAD SWAP2 POP DUP1 DUP3 GT ISZERO PUSH2 0x3A98 JUMPI DUP4 DUP5 REVERT JUMPDEST PUSH2 0x3AA4 DUP13 DUP4 DUP14 ADD PUSH2 0x3505 JUMP JUMPDEST SWAP9 POP PUSH1 0x40 DUP12 ADD CALLDATALOAD SWAP2 POP DUP1 DUP3 GT ISZERO PUSH2 0x3AB9 JUMPI DUP4 DUP5 REVERT JUMPDEST PUSH2 0x3AC5 DUP13 DUP4 DUP14 ADD PUSH2 0x3505 JUMP JUMPDEST SWAP8 POP PUSH2 0x3AD3 PUSH1 0x60 DUP13 ADD PUSH2 0x33B6 JUMP JUMPDEST SWAP7 POP PUSH2 0x3AE1 PUSH1 0x80 DUP13 ADD PUSH2 0x34F5 JUMP JUMPDEST SWAP6 POP PUSH2 0x3AEF PUSH1 0xA0 DUP13 ADD PUSH2 0x34F5 JUMP JUMPDEST SWAP5 POP PUSH2 0x3AFD PUSH1 0xC0 DUP13 ADD PUSH2 0x33B6 JUMP JUMPDEST SWAP4 POP PUSH1 0xE0 DUP12 ADD CALLDATALOAD SWAP2 POP DUP1 DUP3 GT ISZERO PUSH2 0x3B12 JUMPI DUP3 DUP4 REVERT JUMPDEST POP PUSH2 0x3B1F DUP12 DUP3 DUP13 ADD PUSH2 0x3402 JUMP JUMPDEST SWAP2 POP POP SWAP3 SWAP6 SWAP9 POP SWAP3 SWAP6 SWAP9 SWAP1 SWAP4 SWAP7 POP JUMP JUMPDEST PUSH1 0x0 PUSH1 0x20 DUP1 DUP4 DUP6 SUB SLT ISZERO PUSH2 0x3B41 JUMPI DUP2 DUP3 REVERT JUMPDEST DUP3 MLOAD PUSH1 0x1 PUSH1 0x1 PUSH1 0x40 SHL SUB DUP1 DUP3 GT ISZERO PUSH2 0x3B57 JUMPI DUP4 DUP5 REVERT JUMPDEST SWAP1 DUP5 ADD SWAP1 PUSH1 0x60 DUP3 DUP8 SUB SLT ISZERO PUSH2 0x3B6A JUMPI DUP4 DUP5 REVERT JUMPDEST PUSH1 0x40 MLOAD PUSH1 0x60 DUP2 ADD DUP2 DUP2 LT DUP4 DUP3 GT OR ISZERO PUSH2 0x3B7F JUMPI INVALID JUMPDEST PUSH1 0x40 MSTORE DUP3 MLOAD DUP3 DUP2 GT ISZERO PUSH2 0x3B90 JUMPI DUP6 DUP7 REVERT JUMPDEST DUP4 ADD SWAP2 POP PUSH1 0x1F DUP3 ADD DUP8 SGT PUSH2 0x3BA2 JUMPI DUP5 DUP6 REVERT JUMPDEST DUP2 MLOAD PUSH2 0x3BB0 PUSH2 0x3422 DUP3 PUSH2 0x5094 JUMP JUMPDEST DUP2 DUP2 MSTORE DUP9 DUP7 DUP4 DUP7 ADD ADD GT ISZERO PUSH2 0x3BC3 JUMPI DUP7 DUP8 REVERT JUMPDEST PUSH2 0x3BD2 DUP3 DUP8 DUP4 ADD DUP9 DUP8 ADD PUSH2 0x50C1 JUMP JUMPDEST DUP3 MSTORE POP DUP3 DUP5 ADD MLOAD SWAP4 DUP2 ADD SWAP4 SWAP1 SWAP4 MSTORE POP PUSH1 0x40 SWAP1 DUP2 ADD MLOAD SWAP1 DUP3 ADD MSTORE SWAP4 SWAP3 POP POP POP JUMP JUMPDEST PUSH1 0x0 PUSH1 0x20 DUP3 DUP5 SUB SLT ISZERO PUSH2 0x3C03 JUMPI DUP1 DUP2 REVERT JUMPDEST POP CALLDATALOAD SWAP2 SWAP1 POP JUMP JUMPDEST PUSH1 0x0 DUP1 PUSH1 0x40 DUP4 DUP6 SUB SLT ISZERO PUSH2 0x3C1C JUMPI DUP2 DUP3 REVERT JUMPDEST DUP3 CALLDATALOAD SWAP2 POP PUSH1 0x20 DUP4 ADD CALLDATALOAD PUSH2 0x359A DUP2 PUSH2 0x50ED JUMP JUMPDEST PUSH1 0x0 DUP1 PUSH1 0x40 DUP4 DUP6 SUB SLT ISZERO PUSH2 0x3C40 JUMPI DUP2 DUP3 REVERT JUMPDEST POP POP DUP1 CALLDATALOAD SWAP3 PUSH1 0x20 SWAP1 SWAP2 ADD CALLDATALOAD SWAP2 POP JUMP JUMPDEST PUSH1 0x0 DUP2 MLOAD DUP1 DUP5 MSTORE PUSH2 0x3C67 DUP2 PUSH1 0x20 DUP7 ADD PUSH1 0x20 DUP7 ADD PUSH2 0x50C1 JUMP JUMPDEST PUSH1 0x1F ADD PUSH1 0x1F NOT AND SWAP3 SWAP1 SWAP3 ADD PUSH1 0x20 ADD SWAP3 SWAP2 POP POP JUMP JUMPDEST PUSH1 0x0 DUP2 SLOAD PUSH1 0x1 DUP1 DUP3 AND PUSH1 0x0 DUP2 EQ PUSH2 0x3C99 JUMPI PUSH1 0x1 DUP2 EQ PUSH2 0x3CB7 JUMPI PUSH2 0x3CF5 JUMP JUMPDEST PUSH1 0x2 DUP4 DIV PUSH1 0x7F AND DUP7 MSTORE PUSH1 0xFF NOT DUP4 AND PUSH1 0x20 DUP8 ADD MSTORE PUSH1 0x40 DUP7 ADD SWAP4 POP PUSH2 0x3CF5 JUMP JUMPDEST PUSH1 0x2 DUP4 DIV DUP1 DUP8 MSTORE PUSH2 0x3CC7 DUP7 PUSH2 0x50B5 JUMP JUMPDEST PUSH1 0x0 JUMPDEST DUP3 DUP2 LT ISZERO PUSH2 0x3CEB JUMPI DUP2 SLOAD PUSH1 0x20 DUP3 DUP12 ADD ADD MSTORE DUP5 DUP3 ADD SWAP2 POP PUSH1 0x20 DUP2 ADD SWAP1 POP PUSH2 0x3CCA JUMP JUMPDEST DUP9 ADD PUSH1 0x20 ADD SWAP6 POP POP POP JUMPDEST POP POP POP SWAP3 SWAP2 POP POP JUMP JUMPDEST PUSH1 0x0 DUP3 MLOAD PUSH2 0x3D10 DUP2 DUP5 PUSH1 0x20 DUP8 ADD PUSH2 0x50C1 JUMP JUMPDEST SWAP2 SWAP1 SWAP2 ADD SWAP3 SWAP2 POP POP JUMP JUMPDEST PUSH1 0x0 DUP7 MLOAD PUSH2 0x3D2C DUP2 DUP5 PUSH1 0x20 DUP12 ADD PUSH2 0x50C1 JUMP JUMPDEST DUP7 MLOAD SWAP1 DUP4 ADD SWAP1 PUSH2 0x3D40 DUP2 DUP4 PUSH1 0x20 DUP12 ADD PUSH2 0x50C1 JUMP JUMPDEST PUSH1 0x2F PUSH1 0xF8 SHL SWAP2 ADD DUP2 DUP2 MSTORE PUSH2 0x60F PUSH1 0xF3 SHL PUSH1 0x1 DUP3 ADD MSTORE DUP7 MLOAD SWAP1 SWAP2 SWAP1 PUSH2 0x3D6B DUP2 PUSH1 0x3 DUP6 ADD PUSH1 0x20 DUP12 ADD PUSH2 0x50C1 JUMP JUMPDEST PUSH1 0x3 SWAP3 ADD SWAP2 DUP3 ADD DUP2 SWAP1 MSTORE DUP6 MLOAD PUSH2 0x3D88 DUP2 PUSH1 0x4 DUP6 ADD PUSH1 0x20 DUP11 ADD PUSH2 0x50C1 JUMP JUMPDEST PUSH1 0x4 SWAP3 ADD SWAP2 DUP3 ADD MSTORE DUP4 MLOAD PUSH2 0x3DA3 DUP2 PUSH1 0x5 DUP5 ADD PUSH1 0x20 DUP9 ADD PUSH2 0x50C1 JUMP JUMPDEST ADD PUSH1 0x5 ADD SWAP8 SWAP7 POP POP POP POP POP POP POP JUMP JUMPDEST PUSH1 0x1 PUSH1 0x1 PUSH1 0xA0 SHL SUB SWAP2 SWAP1 SWAP2 AND DUP2 MSTORE PUSH1 0x20 ADD SWAP1 JUMP JUMPDEST PUSH1 0x1 PUSH1 0x1 PUSH1 0xA0 SHL SUB DUP6 DUP2 AND DUP3 MSTORE DUP5 AND PUSH1 0x20 DUP3 ADD MSTORE PUSH1 0x40 DUP2 ADD DUP4 SWAP1 MSTORE PUSH1 0x80 PUSH1 0x60 DUP3 ADD DUP2 SWAP1 MSTORE PUSH1 0x0 SWAP1 PUSH2 0x3DF9 SWAP1 DUP4 ADD DUP5 PUSH2 0x3C4F JUMP JUMPDEST SWAP7 SWAP6 POP POP POP POP POP POP JUMP JUMPDEST SWAP1 ISZERO ISZERO DUP2 MSTORE PUSH1 0x20 ADD SWAP1 JUMP JUMPDEST SWAP2 ISZERO ISZERO DUP3 MSTORE ISZERO ISZERO PUSH1 0x20 DUP3 ADD MSTORE PUSH1 0x40 ADD SWAP1 JUMP JUMPDEST SWAP1 DUP2 MSTORE PUSH1 0x20 ADD SWAP1 JUMP JUMPDEST PUSH1 0x0 PUSH1 0x20 DUP3 MSTORE PUSH2 0xF68 PUSH1 0x20 DUP4 ADD DUP5 PUSH2 0x3C4F JUMP JUMPDEST PUSH1 0x0 PUSH1 0x40 DUP3 MSTORE PUSH2 0x3E4F PUSH1 0x40 DUP4 ADD DUP6 PUSH2 0x3C4F JUMP JUMPDEST DUP3 DUP2 SUB PUSH1 0x20 DUP5 ADD MSTORE PUSH2 0x3E61 DUP2 DUP6 PUSH2 0x3C4F JUMP JUMPDEST SWAP6 SWAP5 POP POP POP POP POP JUMP JUMPDEST PUSH1 0x0 PUSH1 0x40 DUP3 MSTORE PUSH2 0x3E7D PUSH1 0x40 DUP4 ADD DUP6 PUSH2 0x3C4F JUMP JUMPDEST DUP3 DUP2 SUB PUSH1 0x20 DUP5 ADD MSTORE PUSH2 0x3E61 DUP2 DUP6 PUSH2 0x3C7B JUMP JUMPDEST PUSH1 0x0 PUSH1 0xE0 DUP3 MSTORE PUSH2 0x3EA2 PUSH1 0xE0 DUP4 ADD DUP11 PUSH2 0x3C4F JUMP JUMPDEST PUSH1 0x20 DUP4 ADD DUP10 SWAP1 MSTORE PUSH1 0x40 DUP4 ADD DUP9 SWAP1 MSTORE PUSH1 0x60 DUP4 ADD DUP8 SWAP1 MSTORE PUSH1 0x1 PUSH1 0x1 PUSH1 0xA0 SHL SUB DUP7 AND PUSH1 0x80 DUP5 ADD MSTORE DUP3 DUP2 SUB PUSH1 0xA0 DUP5 ADD MSTORE PUSH2 0x3ED8 DUP2 DUP7 PUSH2 0x3C4F JUMP JUMPDEST SWAP1 POP DUP3 DUP2 SUB PUSH1 0xC0 DUP5 ADD MSTORE PUSH2 0x3EEC DUP2 DUP6 PUSH2 0x3C4F JUMP JUMPDEST SWAP11 SWAP10 POP POP POP POP POP POP POP POP POP POP JUMP JUMPDEST PUSH1 0x0 PUSH1 0x20 DUP3 MSTORE PUSH2 0xF68 PUSH1 0x20 DUP4 ADD DUP5 PUSH2 0x3C7B JUMP JUMPDEST PUSH1 0x20 DUP1 DUP3 MSTORE PUSH1 0x22 SWAP1 DUP3 ADD MSTORE PUSH32 0x456E756D657261626C655365743A20696E646578206F7574206F6620626F756E PUSH1 0x40 DUP3 ADD MSTORE PUSH2 0x6473 PUSH1 0xF0 SHL PUSH1 0x60 DUP3 ADD MSTORE PUSH1 0x80 ADD SWAP1 JUMP JUMPDEST PUSH1 0x20 DUP1 DUP3 MSTORE PUSH1 0x1E SWAP1 DUP3 ADD MSTORE PUSH32 0x656469744974656D73446174613A204C454E4754485F4D49534D415443480000 PUSH1 0x40 DUP3 ADD MSTORE PUSH1 0x60 ADD SWAP1 JUMP JUMPDEST PUSH1 0x20 DUP1 DUP3 MSTORE PUSH1 0x1C SWAP1 DUP3 ADD MSTORE PUSH32 0x7265736375654974656D733A204C454E4754485F4D49534D4154434800000000 PUSH1 0x40 DUP3 ADD MSTORE PUSH1 0x60 ADD SWAP1 JUMP JUMPDEST PUSH1 0x20 DUP1 DUP3 MSTORE PUSH1 0x2C SWAP1 DUP3 ADD MSTORE PUSH32 0x656469744974656D73446174613A20494E56414C49445F50524943455F414E44 PUSH1 0x40 DUP3 ADD MSTORE PUSH12 0x5F42454E4546494349415259 PUSH1 0xA0 SHL PUSH1 0x60 DUP3 ADD MSTORE PUSH1 0x80 ADD SWAP1 JUMP JUMPDEST PUSH1 0x20 DUP1 DUP3 MSTORE PUSH1 0x1E SWAP1 DUP3 ADD MSTORE PUSH32 0x7365744564697461626C653A2056414C55455F49535F5448455F53414D450000 PUSH1 0x40 DUP3 ADD MSTORE PUSH1 0x60 ADD SWAP1 JUMP JUMPDEST PUSH1 0x20 DUP1 DUP3 MSTORE PUSH1 0x32 SWAP1 DUP3 ADD MSTORE PUSH32 0x4552433732313A207472616E7366657220746F206E6F6E204552433732315265 PUSH1 0x40 DUP3 ADD MSTORE PUSH18 0x31B2B4BB32B91034B6B83632B6B2B73A32B9 PUSH1 0x71 SHL PUSH1 0x60 DUP3 ADD MSTORE PUSH1 0x80 ADD SWAP1 JUMP JUMPDEST PUSH1 0x20 DUP1 DUP3 MSTORE PUSH1 0x26 SWAP1 DUP3 ADD MSTORE PUSH32 0x4F776E61626C653A206E6577206F776E657220697320746865207A65726F2061 PUSH1 0x40 DUP3 ADD MSTORE PUSH6 0x646472657373 PUSH1 0xD0 SHL PUSH1 0x60 DUP3 ADD MSTORE PUSH1 0x80 ADD SWAP1 JUMP JUMPDEST PUSH1 0x20 DUP1 DUP3 MSTORE PUSH1 0x1C SWAP1 DUP3 ADD MSTORE PUSH32 0x4552433136353A20696E76616C696420696E7465726661636520696400000000 PUSH1 0x40 DUP3 ADD MSTORE PUSH1 0x60 ADD SWAP1 JUMP JUMPDEST PUSH1 0x20 DUP1 DUP3 MSTORE PUSH1 0x1C SWAP1 DUP3 ADD MSTORE PUSH32 0x4552433732313A20746F6B656E20616C7265616479206D696E74656400000000 PUSH1 0x40 DUP3 ADD MSTORE PUSH1 0x60 ADD SWAP1 JUMP JUMPDEST PUSH1 0x20 DUP1 DUP3 MSTORE DUP2 DUP2 ADD MSTORE PUSH32 0x656E636F6465546F6B656E49643A20494E56414C49445F4953535545445F4944 PUSH1 0x40 DUP3 ADD MSTORE PUSH1 0x60 ADD SWAP1 JUMP JUMPDEST PUSH1 0x20 DUP1 DUP3 MSTORE PUSH1 0x1B SWAP1 DUP3 ADD MSTORE PUSH32 0x536166654D6174683A206164646974696F6E206F766572666C6F770000000000 PUSH1 0x40 DUP3 ADD MSTORE PUSH1 0x60 ADD SWAP1 JUMP JUMPDEST PUSH1 0x20 DUP1 DUP3 MSTORE PUSH1 0x33 SWAP1 DUP3 ADD MSTORE PUSH32 0x7472616E7366657243726561746F72736869703A2043414C4C45525F49535F4E PUSH1 0x40 DUP3 ADD MSTORE PUSH19 0x27AA2FA7ABA722A92FA7A92FA1A922A0AA27A9 PUSH1 0x69 SHL PUSH1 0x60 DUP3 ADD MSTORE PUSH1 0x80 ADD SWAP1 JUMP JUMPDEST PUSH1 0x20 DUP1 DUP3 MSTORE PUSH1 0x24 SWAP1 DUP3 ADD MSTORE PUSH32 0x4552433732313A207472616E7366657220746F20746865207A65726F20616464 PUSH1 0x40 DUP3 ADD MSTORE PUSH4 0x72657373 PUSH1 0xE0 SHL PUSH1 0x60 DUP3 ADD MSTORE PUSH1 0x80 ADD SWAP1 JUMP JUMPDEST PUSH1 0x20 DUP1 DUP3 MSTORE PUSH1 0x19 SWAP1 DUP3 ADD MSTORE PUSH32 0x4552433732313A20617070726F766520746F2063616C6C657200000000000000 PUSH1 0x40 DUP3 ADD MSTORE PUSH1 0x60 ADD SWAP1 JUMP JUMPDEST PUSH1 0x20 DUP1 DUP3 MSTORE PUSH1 0x24 SWAP1 DUP3 ADD MSTORE PUSH32 0x7365744D616E61676572733A20494E56414C49445F4D414E414745525F414444 PUSH1 0x40 DUP3 ADD MSTORE PUSH4 0x52455353 PUSH1 0xE0 SHL PUSH1 0x60 DUP3 ADD MSTORE PUSH1 0x80 ADD SWAP1 JUMP JUMPDEST PUSH1 0x20 DUP1 DUP3 MSTORE PUSH1 0x1D SWAP1 DUP3 ADD MSTORE PUSH32 0x6973737565546F6B656E733A204D494E545F4E4F545F414C4C4F574544000000 PUSH1 0x40 DUP3 ADD MSTORE PUSH1 0x60 ADD SWAP1 JUMP JUMPDEST PUSH1 0x20 DUP1 DUP3 MSTORE PUSH1 0x1B SWAP1 DUP3 ADD MSTORE PUSH32 0x696E697469616C697A653A20494E56414C49445F43524541544F520000000000 PUSH1 0x40 DUP3 ADD MSTORE PUSH1 0x60 ADD SWAP1 JUMP JUMPDEST PUSH1 0x20 DUP1 DUP3 MSTORE PUSH1 0x2C SWAP1 DUP3 ADD MSTORE PUSH32 0x4552433732313A206F70657261746F7220717565727920666F72206E6F6E6578 PUSH1 0x40 DUP3 ADD MSTORE PUSH12 0x34B9BA32B73A103A37B5B2B7 PUSH1 0xA1 SHL PUSH1 0x60 DUP3 ADD MSTORE PUSH1 0x80 ADD SWAP1 JUMP JUMPDEST PUSH1 0x20 DUP1 DUP3 MSTORE PUSH1 0x1E SWAP1 DUP3 ADD MSTORE PUSH32 0x736574417070726F7665643A2056414C55455F49535F5448455F53414D450000 PUSH1 0x40 DUP3 ADD MSTORE PUSH1 0x60 ADD SWAP1 JUMP JUMPDEST PUSH1 0x20 DUP1 DUP3 MSTORE PUSH1 0x22 SWAP1 DUP3 ADD MSTORE PUSH32 0x7365744D696E746572733A20494E56414C49445F4D494E5445525F4144445245 PUSH1 0x40 DUP3 ADD MSTORE PUSH2 0x5353 PUSH1 0xF0 SHL PUSH1 0x60 DUP3 ADD MSTORE PUSH1 0x80 ADD SWAP1 JUMP JUMPDEST PUSH1 0x20 DUP1 DUP3 MSTORE PUSH1 0x27 SWAP1 DUP3 ADD MSTORE PUSH32 0x7365744974656D734D696E746572733A20494E56414C49445F4D494E5445525F PUSH1 0x40 DUP3 ADD MSTORE PUSH7 0x41444452455353 PUSH1 0xC8 SHL PUSH1 0x60 DUP3 ADD MSTORE PUSH1 0x80 ADD SWAP1 JUMP JUMPDEST PUSH1 0x20 DUP1 DUP3 MSTORE DUP2 DUP2 ADD MSTORE PUSH32 0x5F6973737565546F6B656E3A204954454D5F444F45535F4E4F545F4558495354 PUSH1 0x40 DUP3 ADD MSTORE PUSH1 0x60 ADD SWAP1 JUMP JUMPDEST PUSH1 0x20 DUP1 DUP3 MSTORE PUSH1 0x38 SWAP1 DUP3 ADD MSTORE PUSH32 0x4552433732313A20617070726F76652063616C6C6572206973206E6F74206F77 PUSH1 0x40 DUP3 ADD MSTORE PUSH32 0x6E6572206E6F7220617070726F76656420666F7220616C6C0000000000000000 PUSH1 0x60 DUP3 ADD MSTORE PUSH1 0x80 ADD SWAP1 JUMP JUMPDEST PUSH1 0x20 DUP1 DUP3 MSTORE PUSH1 0x24 SWAP1 DUP3 ADD MSTORE PUSH32 0x7365744974656D734D696E746572733A204954454D5F444F45535F4E4F545F45 PUSH1 0x40 DUP3 ADD MSTORE PUSH4 0x161254D5 PUSH1 0xE2 SHL PUSH1 0x60 DUP3 ADD MSTORE PUSH1 0x80 ADD SWAP1 JUMP JUMPDEST PUSH1 0x20 DUP1 DUP3 MSTORE PUSH1 0x2A SWAP1 DUP3 ADD MSTORE PUSH32 0x4552433732313A2062616C616E636520717565727920666F7220746865207A65 PUSH1 0x40 DUP3 ADD MSTORE PUSH10 0x726F2061646472657373 PUSH1 0xB0 SHL PUSH1 0x60 DUP3 ADD MSTORE PUSH1 0x80 ADD SWAP1 JUMP JUMPDEST PUSH1 0x20 DUP1 DUP3 MSTORE PUSH1 0x1B SWAP1 DUP3 ADD MSTORE PUSH32 0x5F6973737565546F6B656E3A204954454D5F4558484155535445440000000000 PUSH1 0x40 DUP3 ADD MSTORE PUSH1 0x60 ADD SWAP1 JUMP JUMPDEST PUSH1 0x20 DUP1 DUP3 MSTORE PUSH1 0x1F SWAP1 DUP3 ADD MSTORE PUSH32 0x696E697469616C697A653A20414C52454144595F494E495449414C495A454400 PUSH1 0x40 DUP3 ADD MSTORE PUSH1 0x60 ADD SWAP1 JUMP JUMPDEST PUSH1 0x20 DUP1 DUP3 MSTORE PUSH1 0x1E SWAP1 DUP3 ADD MSTORE PUSH32 0x5F6164644974656D3A20434F4C4C454354494F4E5F434F4D504C455445440000 PUSH1 0x40 DUP3 ADD MSTORE PUSH1 0x60 ADD SWAP1 JUMP JUMPDEST PUSH1 0x20 DUP1 DUP3 MSTORE PUSH1 0x30 SWAP1 DUP3 ADD MSTORE PUSH32 0x636F6D706C657465436F6C6C656374696F6E3A20434F4C4C454354494F4E5F41 PUSH1 0x40 DUP3 ADD MSTORE PUSH16 0x13149150511657D0D3D3541311551151 PUSH1 0x82 SHL PUSH1 0x60 DUP3 ADD MSTORE PUSH1 0x80 ADD SWAP1 JUMP JUMPDEST PUSH1 0x20 DUP1 DUP3 MSTORE PUSH1 0x22 SWAP1 DUP3 ADD MSTORE PUSH32 0x456E756D657261626C654D61703A20696E646578206F7574206F6620626F756E PUSH1 0x40 DUP3 ADD MSTORE PUSH2 0x6473 PUSH1 0xF0 SHL PUSH1 0x60 DUP3 ADD MSTORE PUSH1 0x80 ADD SWAP1 JUMP JUMPDEST PUSH1 0x20 DUP1 DUP3 MSTORE DUP2 DUP2 ADD MSTORE PUSH32 0x4552433732313A206D696E7420746F20746865207A65726F2061646472657373 PUSH1 0x40 DUP3 ADD MSTORE PUSH1 0x60 ADD SWAP1 JUMP JUMPDEST PUSH1 0x20 DUP1 DUP3 MSTORE PUSH1 0x2C SWAP1 DUP3 ADD MSTORE PUSH32 0x4552433732313A20617070726F76656420717565727920666F72206E6F6E6578 PUSH1 0x40 DUP3 ADD MSTORE PUSH12 0x34B9BA32B73A103A37B5B2B7 PUSH1 0xA1 SHL PUSH1 0x60 DUP3 ADD MSTORE PUSH1 0x80 ADD SWAP1 JUMP JUMPDEST PUSH1 0x20 DUP1 DUP3 MSTORE DUP2 DUP2 ADD MSTORE PUSH32 0x4F776E61626C653A2063616C6C6572206973206E6F7420746865206F776E6572 PUSH1 0x40 DUP3 ADD MSTORE PUSH1 0x60 ADD SWAP1 JUMP JUMPDEST PUSH1 0x20 DUP1 DUP3 MSTORE PUSH1 0x1A SWAP1 DUP3 ADD MSTORE PUSH32 0x746F6B656E5552493A20494E56414C49445F544F4B454E5F4944000000000000 PUSH1 0x40 DUP3 ADD MSTORE PUSH1 0x60 ADD SWAP1 JUMP JUMPDEST PUSH1 0x20 DUP1 DUP3 MSTORE DUP2 DUP2 ADD MSTORE PUSH32 0x7265736375654974656D733A204954454D5F444F45535F4E4F545F4558495354 PUSH1 0x40 DUP3 ADD MSTORE PUSH1 0x60 ADD SWAP1 JUMP JUMPDEST PUSH1 0x20 DUP1 DUP3 MSTORE PUSH1 0x1E SWAP1 DUP3 ADD MSTORE PUSH32 0x7365744D616E61676572733A2056414C55455F49535F5448455F53414D450000 PUSH1 0x40 DUP3 ADD MSTORE PUSH1 0x60 ADD SWAP1 JUMP JUMPDEST PUSH1 0x20 DUP1 DUP3 MSTORE PUSH1 0x1B SWAP1 DUP3 ADD MSTORE PUSH32 0x7365744D696E746572733A204C454E4754485F4D49534D415443480000000000 PUSH1 0x40 DUP3 ADD MSTORE PUSH1 0x60 ADD SWAP1 JUMP JUMPDEST PUSH1 0x20 DUP1 DUP3 MSTORE PUSH1 0x29 SWAP1 DUP3 ADD MSTORE PUSH32 0x4552433732313A207472616E73666572206F6620746F6B656E20746861742069 PUSH1 0x40 DUP3 ADD MSTORE PUSH9 0x39903737BA1037BBB7 PUSH1 0xB9 SHL PUSH1 0x60 DUP3 ADD MSTORE PUSH1 0x80 ADD SWAP1 JUMP JUMPDEST PUSH1 0x20 DUP1 DUP3 MSTORE PUSH1 0x27 SWAP1 DUP3 ADD MSTORE PUSH32 0x5F6164644974656D3A20494E56414C49445F50524943455F414E445F42454E45 PUSH1 0x40 DUP3 ADD MSTORE PUSH7 0x46494349415259 PUSH1 0xC8 SHL PUSH1 0x60 DUP3 ADD MSTORE PUSH1 0x80 ADD SWAP1 JUMP JUMPDEST PUSH1 0x20 DUP1 DUP3 MSTORE PUSH1 0x21 SWAP1 DUP3 ADD MSTORE PUSH32 0x7365744974656D734D616E61676572733A204C454E4754485F4D49534D415443 PUSH1 0x40 DUP3 ADD MSTORE PUSH1 0x9 PUSH1 0xFB SHL PUSH1 0x60 DUP3 ADD MSTORE PUSH1 0x80 ADD SWAP1 JUMP JUMPDEST PUSH1 0x20 DUP1 DUP3 MSTORE DUP2 DUP2 ADD MSTORE PUSH32 0x7365744974656D734D696E746572733A204C454E4754485F4D49534D41544348 PUSH1 0x40 DUP3 ADD MSTORE PUSH1 0x60 ADD SWAP1 JUMP JUMPDEST PUSH1 0x20 DUP1 DUP3 MSTORE PUSH1 0x1C SWAP1 DUP3 ADD MSTORE PUSH32 0x6973737565546F6B656E733A204C454E4754485F4D49534D4154434800000000 PUSH1 0x40 DUP3 ADD MSTORE PUSH1 0x60 ADD SWAP1 JUMP JUMPDEST PUSH1 0x20 DUP1 DUP3 MSTORE PUSH1 0x22 SWAP1 DUP3 ADD MSTORE PUSH32 0x6F6E6C7943726561746F723A2043414C4C45525F49535F4E4F545F4352454154 PUSH1 0x40 DUP3 ADD MSTORE PUSH2 0x27A9 PUSH1 0xF1 SHL PUSH1 0x60 DUP3 ADD MSTORE PUSH1 0x80 ADD SWAP1 JUMP JUMPDEST PUSH1 0x20 DUP1 DUP3 MSTORE PUSH1 0x21 SWAP1 DUP3 ADD MSTORE PUSH32 0x4552433732313A20617070726F76616C20746F2063757272656E74206F776E65 PUSH1 0x40 DUP3 ADD MSTORE PUSH1 0x39 PUSH1 0xF9 SHL PUSH1 0x60 DUP3 ADD MSTORE PUSH1 0x80 ADD SWAP1 JUMP JUMPDEST PUSH1 0x20 DUP1 DUP3 MSTORE PUSH1 0x1C SWAP1 DUP3 ADD MSTORE PUSH32 0x7365744D616E61676572733A204C454E4754485F4D49534D4154434800000000 PUSH1 0x40 DUP3 ADD MSTORE PUSH1 0x60 ADD SWAP1 JUMP JUMPDEST PUSH1 0x20 DUP1 DUP3 MSTORE PUSH1 0x18 SWAP1 DUP3 ADD MSTORE PUSH32 0x5F6164644974656D3A20494E56414C49445F5241524954590000000000000000 PUSH1 0x40 DUP3 ADD MSTORE PUSH1 0x60 ADD SWAP1 JUMP JUMPDEST PUSH1 0x20 DUP1 DUP3 MSTORE PUSH1 0x1C SWAP1 DUP3 ADD MSTORE PUSH32 0x696E697469616C697A653A20494E56414C49445F524152495449455300000000 PUSH1 0x40 DUP3 ADD MSTORE PUSH1 0x60 ADD SWAP1 JUMP JUMPDEST PUSH1 0x20 DUP1 DUP3 MSTORE PUSH1 0x31 SWAP1 DUP3 ADD MSTORE PUSH32 0x4552433732313A207472616E736665722063616C6C6572206973206E6F74206F PUSH1 0x40 DUP3 ADD MSTORE PUSH17 0x1DDB995C881B9BDC88185C1C1C9BDD9959 PUSH1 0x7A SHL PUSH1 0x60 DUP3 ADD MSTORE PUSH1 0x80 ADD SWAP1 JUMP JUMPDEST PUSH1 0x20 DUP1 DUP3 MSTORE PUSH1 0x1D SWAP1 DUP3 ADD MSTORE PUSH32 0x656469744974656D73446174613A20454D5054595F4D45544144415441000000 PUSH1 0x40 DUP3 ADD MSTORE PUSH1 0x60 ADD SWAP1 JUMP JUMPDEST PUSH1 0x20 DUP1 DUP3 MSTORE PUSH1 0x16 SWAP1 DUP3 ADD MSTORE PUSH22 0x5F6164644974656D733A20454D5054595F4954454D53 PUSH1 0x50 SHL PUSH1 0x40 DUP3 ADD MSTORE PUSH1 0x60 ADD SWAP1 JUMP JUMPDEST PUSH1 0x20 DUP1 DUP3 MSTORE PUSH1 0x18 SWAP1 DUP3 ADD MSTORE PUSH32 0x5F6164644974656D3A20454D5054595F4D455441444154410000000000000000 PUSH1 0x40 DUP3 ADD MSTORE PUSH1 0x60 ADD SWAP1 JUMP JUMPDEST PUSH1 0x20 DUP1 DUP3 MSTORE PUSH1 0x22 SWAP1 DUP3 ADD MSTORE PUSH32 0x656469744974656D73446174613A204954454D5F444F45535F4E4F545F455849 PUSH1 0x40 DUP3 ADD MSTORE PUSH2 0x14D5 PUSH1 0xF2 SHL PUSH1 0x60 DUP3 ADD MSTORE PUSH1 0x80 ADD SWAP1 JUMP JUMPDEST PUSH1 0x20 DUP1 DUP3 MSTORE PUSH1 0x1D SWAP1 DUP3 ADD MSTORE PUSH32 0x416464726573733A2063616C6C20746F206E6F6E2D636F6E7472616374000000 PUSH1 0x40 DUP3 ADD MSTORE PUSH1 0x60 ADD SWAP1 JUMP JUMPDEST PUSH1 0x20 DUP1 DUP3 MSTORE PUSH1 0x2C SWAP1 DUP3 ADD MSTORE PUSH32 0x7472616E7366657243726561746F72736869703A20494E56414C49445F435245 PUSH1 0x40 DUP3 ADD MSTORE PUSH12 0x41544F525F41444452455353 PUSH1 0xA0 SHL PUSH1 0x60 DUP3 ADD MSTORE PUSH1 0x80 ADD SWAP1 JUMP JUMPDEST PUSH1 0x20 DUP1 DUP3 MSTORE PUSH1 0x26 SWAP1 DUP3 ADD MSTORE PUSH32 0x656469744974656D73446174613A20434F4C4C454354494F4E5F4E4F545F4544 PUSH1 0x40 DUP3 ADD MSTORE PUSH6 0x495441424C45 PUSH1 0xD0 SHL PUSH1 0x60 DUP3 ADD MSTORE PUSH1 0x80 ADD SWAP1 JUMP JUMPDEST PUSH1 0x20 DUP1 DUP3 MSTORE PUSH1 0x2F SWAP1 DUP3 ADD MSTORE PUSH32 0x656469744974656D73446174613A2043414C4C45525F49535F4E4F545F435245 PUSH1 0x40 DUP3 ADD MSTORE PUSH15 0x20AA27A92FA7A92FA6A0A720A3A2A9 PUSH1 0x89 SHL PUSH1 0x60 DUP3 ADD MSTORE PUSH1 0x80 ADD SWAP1 JUMP JUMPDEST PUSH1 0x20 DUP1 DUP3 MSTORE PUSH1 0x25 SWAP1 DUP3 ADD MSTORE PUSH32 0x7365744974656D734D616E61676572733A204954454D5F444F45535F4E4F545F PUSH1 0x40 DUP3 ADD MSTORE PUSH5 0x11561254D5 PUSH1 0xDA SHL PUSH1 0x60 DUP3 ADD MSTORE PUSH1 0x80 ADD SWAP1 JUMP JUMPDEST PUSH1 0x20 DUP1 DUP3 MSTORE PUSH1 0x29 SWAP1 DUP3 ADD MSTORE PUSH32 0x7365744974656D734D616E61676572733A20494E56414C49445F4D414E414745 PUSH1 0x40 DUP3 ADD MSTORE PUSH9 0x525F41444452455353 PUSH1 0xB8 SHL PUSH1 0x60 DUP3 ADD MSTORE PUSH1 0x80 ADD SWAP1 JUMP JUMPDEST PUSH1 0x20 DUP1 DUP3 MSTORE PUSH1 0x1D SWAP1 DUP3 ADD MSTORE PUSH32 0x5F6164644974656D3A204D41585F4954454D5F49445F52454143484544000000 PUSH1 0x40 DUP3 ADD MSTORE PUSH1 0x60 ADD SWAP1 JUMP JUMPDEST PUSH1 0x20 DUP1 DUP3 MSTORE PUSH1 0x24 SWAP1 DUP3 ADD MSTORE PUSH32 0x656469744974656D73446174613A2043414E5F4E4F545F454449545F4D455441 PUSH1 0x40 DUP3 ADD MSTORE PUSH4 0x44415441 PUSH1 0xE0 SHL PUSH1 0x60 DUP3 ADD MSTORE PUSH1 0x80 ADD SWAP1 JUMP JUMPDEST PUSH1 0x20 DUP1 DUP3 MSTORE PUSH1 0x1E SWAP1 DUP3 ADD MSTORE PUSH32 0x656E636F6465546F6B656E49643A20494E56414C49445F4954454D5F49440000 PUSH1 0x40 DUP3 ADD MSTORE PUSH1 0x60 ADD SWAP1 JUMP JUMPDEST PUSH1 0x20 DUP1 DUP3 MSTORE PUSH1 0x1D SWAP1 DUP3 ADD MSTORE PUSH32 0x7365744D696E746572733A2056414C55455F49535F5448455F53414D45000000 PUSH1 0x40 DUP3 ADD MSTORE PUSH1 0x60 ADD SWAP1 JUMP JUMPDEST PUSH1 0x20 DUP1 DUP3 MSTORE PUSH1 0x22 SWAP1 DUP3 ADD MSTORE PUSH32 0x7365744974656D734D696E746572733A2056414C55455F49535F5448455F5341 PUSH1 0x40 DUP3 ADD MSTORE PUSH2 0x4D45 PUSH1 0xF0 SHL PUSH1 0x60 DUP3 ADD MSTORE PUSH1 0x80 ADD SWAP1 JUMP JUMPDEST PUSH1 0x20 DUP1 DUP3 MSTORE DUP2 DUP2 ADD MSTORE PUSH32 0x5F6973737565546F6B656E3A2043414C4C45525F43414E5F4E4F545F4D494E54 PUSH1 0x40 DUP3 ADD MSTORE PUSH1 0x60 ADD SWAP1 JUMP JUMPDEST PUSH1 0x20 DUP1 DUP3 MSTORE PUSH1 0x23 SWAP1 DUP3 ADD MSTORE PUSH32 0x7365744974656D734D616E61676572733A2056414C55455F49535F5448455F53 PUSH1 0x40 DUP3 ADD MSTORE PUSH3 0x414D45 PUSH1 0xE8 SHL PUSH1 0x60 DUP3 ADD MSTORE PUSH1 0x80 ADD SWAP1 JUMP JUMPDEST PUSH1 0x0 PUSH1 0x20 DUP3 MSTORE DUP3 MLOAD PUSH1 0xE0 PUSH1 0x20 DUP5 ADD MSTORE PUSH2 0x4F21 PUSH2 0x100 DUP5 ADD DUP3 PUSH2 0x3C4F JUMP JUMPDEST SWAP1 POP PUSH1 0x20 DUP5 ADD MLOAD PUSH1 0x40 DUP5 ADD MSTORE PUSH1 0x40 DUP5 ADD MLOAD PUSH1 0x60 DUP5 ADD MSTORE PUSH1 0x60 DUP5 ADD MLOAD PUSH1 0x80 DUP5 ADD MSTORE PUSH1 0x1 DUP1 PUSH1 0xA0 SHL SUB PUSH1 0x80 DUP6 ADD MLOAD AND PUSH1 0xA0 DUP5 ADD MSTORE PUSH1 0xA0 DUP5 ADD MLOAD PUSH1 0x1F NOT DUP1 DUP6 DUP5 SUB ADD PUSH1 0xC0 DUP7 ADD MSTORE PUSH2 0x4F6F DUP4 DUP4 PUSH2 0x3C4F JUMP JUMPDEST SWAP3 POP PUSH1 0xC0 DUP7 ADD MLOAD SWAP2 POP DUP1 DUP6 DUP5 SUB ADD PUSH1 0xE0 DUP7 ADD MSTORE POP PUSH2 0x3E61 DUP3 DUP3 PUSH2 0x3C4F JUMP JUMPDEST PUSH1 0x1 PUSH1 0x1 PUSH1 0xD8 SHL SUB SWAP2 SWAP1 SWAP2 AND DUP2 MSTORE PUSH1 0x20 ADD SWAP1 JUMP JUMPDEST SWAP2 DUP3 MSTORE PUSH1 0x1 PUSH1 0x1 PUSH1 0xA0 SHL SUB AND PUSH1 0x20 DUP3 ADD MSTORE PUSH1 0x40 ADD SWAP1 JUMP JUMPDEST DUP4 DUP2 MSTORE PUSH1 0x1 PUSH1 0x1 PUSH1 0xA0 SHL SUB DUP4 AND PUSH1 0x20 DUP3 ADD MSTORE PUSH1 0x60 PUSH1 0x40 DUP3 ADD DUP2 SWAP1 MSTORE PUSH1 0x0 SWAP1 PUSH2 0x3E61 SWAP1 DUP4 ADD DUP5 PUSH2 0x3C4F JUMP JUMPDEST SWAP2 DUP3 MSTORE PUSH1 0x20 DUP3 ADD MSTORE PUSH1 0x40 ADD SWAP1 JUMP JUMPDEST PUSH5 0xFFFFFFFFFF SWAP2 SWAP1 SWAP2 AND DUP2 MSTORE PUSH1 0x20 ADD SWAP1 JUMP JUMPDEST PUSH1 0xFF SWAP2 SWAP1 SWAP2 AND DUP2 MSTORE PUSH1 0x20 ADD SWAP1 JUMP JUMPDEST PUSH1 0x0 DUP1 DUP4 CALLDATALOAD PUSH1 0x1E NOT DUP5 CALLDATASIZE SUB ADD DUP2 SLT PUSH2 0x5026 JUMPI DUP3 DUP4 REVERT JUMPDEST DUP4 ADD DUP1 CALLDATALOAD SWAP2 POP PUSH1 0x1 PUSH1 0x1 PUSH1 0x40 SHL SUB DUP3 GT ISZERO PUSH2 0x503F JUMPI DUP3 DUP4 REVERT JUMPDEST PUSH1 0x20 ADD SWAP2 POP CALLDATASIZE DUP2 SWAP1 SUB DUP3 SGT ISZERO PUSH2 0x281E JUMPI PUSH1 0x0 DUP1 REVERT JUMPDEST PUSH1 0x40 MLOAD DUP2 DUP2 ADD PUSH1 0x1 PUSH1 0x1 PUSH1 0x40 SHL SUB DUP2 GT DUP3 DUP3 LT OR ISZERO PUSH2 0x506F JUMPI INVALID JUMPDEST PUSH1 0x40 MSTORE SWAP2 SWAP1 POP JUMP JUMPDEST PUSH1 0x0 PUSH1 0x1 PUSH1 0x1 PUSH1 0x40 SHL SUB DUP3 GT ISZERO PUSH2 0x508A JUMPI INVALID JUMPDEST POP PUSH1 0x20 SWAP1 DUP2 MUL ADD SWAP1 JUMP JUMPDEST PUSH1 0x0 PUSH1 0x1 PUSH1 0x1 PUSH1 0x40 SHL SUB DUP3 GT ISZERO PUSH2 0x50A7 JUMPI INVALID JUMPDEST POP PUSH1 0x1F ADD PUSH1 0x1F NOT AND PUSH1 0x20 ADD SWAP1 JUMP JUMPDEST PUSH1 0x0 SWAP1 DUP2 MSTORE PUSH1 0x20 SWAP1 KECCAK256 SWAP1 JUMP JUMPDEST PUSH1 0x0 JUMPDEST DUP4 DUP2 LT ISZERO PUSH2 0x50DC JUMPI DUP2 DUP2 ADD MLOAD DUP4 DUP3 ADD MSTORE PUSH1 0x20 ADD PUSH2 0x50C4 JUMP JUMPDEST DUP4 DUP2 GT ISZERO PUSH2 0x1AA8 JUMPI POP POP PUSH1 0x0 SWAP2 ADD MSTORE JUMP JUMPDEST PUSH1 0x1 PUSH1 0x1 PUSH1 0xA0 SHL SUB DUP2 AND DUP2 EQ PUSH2 0x1470 JUMPI PUSH1 0x0 DUP1 REVERT JUMPDEST PUSH1 0x1 PUSH1 0x1 PUSH1 0xE0 SHL SUB NOT DUP2 AND DUP2 EQ PUSH2 0x1470 JUMPI PUSH1 0x0 DUP1 REVERT INVALID GASLIMIT MSTORE NUMBER CALLDATACOPY ORIGIN BALANCE GASPRICE KECCAK256 PUSH21 0x72616E7366657220746F206E6F6E20455243373231 MSTORE PUSH6 0x636569766572 KECCAK256 PUSH10 0x6D706C656D656E746572 GASLIMIT MSTORE NUMBER CALLDATACOPY ORIGIN BALANCE GASPRICE KECCAK256 PUSH16 0x776E657220717565727920666F72206E PUSH16 0x6E6578697374656E7420746F6B656EA2 PUSH5 0x6970667358 0x22 SLT KECCAK256 BYTE PUSH10 0xF1482100BFC51EB082F0 0xE2 0xCB 0x48 0xC8 COINBASE 0xD6 0xED 0xD5 0xE8 PUSH15 0x55518542CBF7D2A1C7C164736F6C63 NUMBER STOP SMOD MOD STOP CALLER "
		},
		"gasEstimates": {
			"creation": {
				"codeDepositCost": "4181000",
				"executionCost": "25825",
				"totalCost": "4206825"
			},
			"external": {
				"COLLECTION_HASH()": "362",
				"ISSUED_ID_BITS()": "352",
				"ITEM_ID_BITS()": "329",
				"MAX_ISSUED_ID()": "374",
				"MAX_ITEM_ID()": "352",
				"addItems((string,uint256,address,string)[])": "infinite",
				"approve(address,uint256)": "infinite",
				"balanceOf(address)": "infinite",
				"baseURI()": "infinite",
				"batchTransferFrom(address,address,uint256[])": "infinite",
				"completeCollection()": "infinite",
				"createdAt()": "1117",
				"creator()": "1162",
				"decodeTokenId(uint256)": "427",
				"editItemsData(uint256[],uint256[],address[],string[])": "infinite",
				"encodeTokenId(uint256,uint256)": "547",
				"getApproved(uint256)": "infinite",
				"globalManagers(address)": "1352",
				"globalMinters(address)": "1373",
				"initImplementation()": "21863",
				"initialize(string,string,string,address,bool,bool,address,(string,uint256,address,string)[])": "infinite",
				"isApproved()": "1119",
				"isApprovedForAll(address,address)": "infinite",
				"isCompleted()": "1183",
				"isEditable()": "1184",
				"isInitialized()": "1131",
				"isMintingAllowed()": "1990",
				"issueTokens(address[],uint256[])": "infinite",
				"itemManagers(uint256,address)": "1451",
				"itemMinters(uint256,address)": "1440",
				"items(uint256)": "infinite",
				"itemsCount()": "1161",
				"name()": "infinite",
				"owner()": "1160",
				"ownerOf(uint256)": "infinite",
				"rarities()": "1183",
				"renounceOwnership()": "infinite",
				"rescueItems(uint256[],string[],string[])": "infinite",
				"safeBatchTransferFrom(address,address,uint256[],bytes)": "infinite",
				"safeTransferFrom(address,address,uint256)": "infinite",
				"safeTransferFrom(address,address,uint256,bytes)": "infinite",
				"setApprovalForAll(address,bool)": "infinite",
				"setApproved(bool)": "24360",
				"setBaseURI(string)": "infinite",
				"setEditable(bool)": "24382",
				"setItemsManagers(uint256[],address[],bool[])": "infinite",
				"setItemsMinters(uint256[],address[],uint256[])": "infinite",
				"setManagers(address[],bool[])": "infinite",
				"setMinters(address[],bool[])": "infinite",
				"supportsInterface(bytes4)": "1365",
				"symbol()": "infinite",
				"tokenByIndex(uint256)": "3942",
				"tokenOfOwnerByIndex(address,uint256)": "infinite",
				"tokenURI(uint256)": "infinite",
				"totalSupply()": "1238",
				"transferCreatorship(address)": "infinite",
				"transferFrom(address,address,uint256)": "infinite",
				"transferOwnership(address)": "infinite"
			}
		},
		"methodIdentifiers": {
			"COLLECTION_HASH()": "7e12acce",
			"ISSUED_ID_BITS()": "950fa904",
			"ITEM_ID_BITS()": "5ec7c537",
			"MAX_ISSUED_ID()": "f6f07b63",
			"MAX_ITEM_ID()": "48622018",
			"addItems((string,uint256,address,string)[])": "425f60ed",
			"approve(address,uint256)": "095ea7b3",
			"balanceOf(address)": "70a08231",
			"baseURI()": "6c0360eb",
			"batchTransferFrom(address,address,uint256[])": "f3993d11",
			"completeCollection()": "f59d9e3f",
			"createdAt()": "cf09e0d0",
			"creator()": "02d05d3f",
			"decodeTokenId(uint256)": "7efd9112",
			"editItemsData(uint256[],uint256[],address[],string[])": "0ebde06e",
			"encodeTokenId(uint256,uint256)": "ebd46d64",
			"getApproved(uint256)": "081812fc",
			"globalManagers(address)": "7682dfca",
			"globalMinters(address)": "b4c2025e",
			"initImplementation()": "30127574",
			"initialize(string,string,string,address,bool,bool,address,(string,uint256,address,string)[])": "d14fee77",
			"isApproved()": "28f371aa",
			"isApprovedForAll(address,address)": "e985e9c5",
			"isCompleted()": "fa391c64",
			"isEditable()": "b4da4e37",
			"isInitialized()": "392e53cd",
			"isMintingAllowed()": "2b481883",
			"issueTokens(address[],uint256[])": "7c8f76a1",
			"itemManagers(uint256,address)": "be4763b3",
			"itemMinters(uint256,address)": "6d67b1ab",
			"items(uint256)": "bfb231d2",
			"itemsCount()": "e2c03ace",
			"name()": "06fdde03",
			"owner()": "8da5cb5b",
			"ownerOf(uint256)": "6352211e",
			"rarities()": "3992cd0d",
			"renounceOwnership()": "715018a6",
			"rescueItems(uint256[],string[],string[])": "3c963655",
			"safeBatchTransferFrom(address,address,uint256[],bytes)": "28cfbd46",
			"safeTransferFrom(address,address,uint256)": "42842e0e",
			"safeTransferFrom(address,address,uint256,bytes)": "b88d4fde",
			"setApprovalForAll(address,bool)": "a22cb465",
			"setApproved(bool)": "46d5a568",
			"setBaseURI(string)": "55f804b3",
			"setEditable(bool)": "2cb0d48a",
			"setItemsManagers(uint256[],address[],bool[])": "239a603b",
			"setItemsMinters(uint256[],address[],uint256[])": "e6170a53",
			"setManagers(address[],bool[])": "3bdcc923",
			"setMinters(address[],bool[])": "41bceced",
			"supportsInterface(bytes4)": "01ffc9a7",
			"symbol()": "95d89b41",
			"tokenByIndex(uint256)": "4f6ccce7",
			"tokenOfOwnerByIndex(address,uint256)": "2f745c59",
			"tokenURI(uint256)": "c87b56dd",
			"totalSupply()": "18160ddd",
			"transferCreatorship(address)": "6d2e4b1b",
			"transferFrom(address,address,uint256)": "23b872dd",
			"transferOwnership(address)": "f2fde38b"
		}
	},
	"abi": [
		{
			"inputs": [],
			"stateMutability": "nonpayable",
			"type": "constructor"
		},
		{
			"anonymous": false,
			"inputs": [
				{
					"indexed": true,
					"internalType": "uint256",
					"name": "_itemId",
					"type": "uint256"
				},
				{
					"components": [
						{
							"internalType": "string",
							"name": "rarity",
							"type": "string"
						},
						{
							"internalType": "uint256",
							"name": "maxSupply",
							"type": "uint256"
						},
						{
							"internalType": "uint256",
							"name": "totalSupply",
							"type": "uint256"
						},
						{
							"internalType": "uint256",
							"name": "price",
							"type": "uint256"
						},
						{
							"internalType": "address",
							"name": "beneficiary",
							"type": "address"
						},
						{
							"internalType": "string",
							"name": "metadata",
							"type": "string"
						},
						{
							"internalType": "string",
							"name": "contentHash",
							"type": "string"
						}
					],
					"indexed": false,
					"internalType": "struct ERC721BaseCollectionV2.Item",
					"name": "_item",
					"type": "tuple"
				}
			],
			"name": "AddItem",
			"type": "event"
		},
		{
			"anonymous": false,
			"inputs": [
				{
					"indexed": true,
					"internalType": "address",
					"name": "owner",
					"type": "address"
				},
				{
					"indexed": true,
					"internalType": "address",
					"name": "approved",
					"type": "address"
				},
				{
					"indexed": true,
					"internalType": "uint256",
					"name": "tokenId",
					"type": "uint256"
				}
			],
			"name": "Approval",
			"type": "event"
		},
		{
			"anonymous": false,
			"inputs": [
				{
					"indexed": true,
					"internalType": "address",
					"name": "owner",
					"type": "address"
				},
				{
					"indexed": true,
					"internalType": "address",
					"name": "operator",
					"type": "address"
				},
				{
					"indexed": false,
					"internalType": "bool",
					"name": "approved",
					"type": "bool"
				}
			],
			"name": "ApprovalForAll",
			"type": "event"
		},
		{
			"anonymous": false,
			"inputs": [
				{
					"indexed": false,
					"internalType": "string",
					"name": "_oldBaseURI",
					"type": "string"
				},
				{
					"indexed": false,
					"internalType": "string",
					"name": "_newBaseURI",
					"type": "string"
				}
			],
			"name": "BaseURI",
			"type": "event"
		},
		{
			"anonymous": false,
			"inputs": [],
			"name": "Complete",
			"type": "event"
		},
		{
			"anonymous": false,
			"inputs": [
				{
					"indexed": true,
					"internalType": "address",
					"name": "_previousCreator",
					"type": "address"
				},
				{
					"indexed": true,
					"internalType": "address",
					"name": "_newCreator",
					"type": "address"
				}
			],
			"name": "CreatorshipTransferred",
			"type": "event"
		},
		{
			"anonymous": false,
			"inputs": [
				{
					"indexed": true,
					"internalType": "address",
					"name": "_beneficiary",
					"type": "address"
				},
				{
					"indexed": true,
					"internalType": "uint256",
					"name": "_tokenId",
					"type": "uint256"
				},
				{
					"indexed": true,
					"internalType": "uint256",
					"name": "_itemId",
					"type": "uint256"
				},
				{
					"indexed": false,
					"internalType": "uint256",
					"name": "_issuedId",
					"type": "uint256"
				},
				{
					"indexed": false,
					"internalType": "address",
					"name": "_caller",
					"type": "address"
				}
			],
			"name": "Issue",
			"type": "event"
		},
		{
			"anonymous": false,
			"inputs": [
				{
					"indexed": true,
					"internalType": "address",
					"name": "previousOwner",
					"type": "address"
				},
				{
					"indexed": true,
					"internalType": "address",
					"name": "newOwner",
					"type": "address"
				}
			],
			"name": "OwnershipTransferred",
			"type": "event"
		},
		{
			"anonymous": false,
			"inputs": [
				{
					"indexed": true,
					"internalType": "uint256",
					"name": "_itemId",
					"type": "uint256"
				},
				{
					"indexed": false,
					"internalType": "string",
					"name": "_contentHash",
					"type": "string"
				},
				{
					"indexed": false,
					"internalType": "string",
					"name": "_metadata",
					"type": "string"
				}
			],
			"name": "RescueItem",
			"type": "event"
		},
		{
			"anonymous": false,
			"inputs": [
				{
					"indexed": false,
					"internalType": "bool",
					"name": "_previousValue",
					"type": "bool"
				},
				{
					"indexed": false,
					"internalType": "bool",
					"name": "_newValue",
					"type": "bool"
				}
			],
			"name": "SetApproved",
			"type": "event"
		},
		{
			"anonymous": false,
			"inputs": [
				{
					"indexed": false,
					"internalType": "bool",
					"name": "_previousValue",
					"type": "bool"
				},
				{
					"indexed": false,
					"internalType": "bool",
					"name": "_newValue",
					"type": "bool"
				}
			],
			"name": "SetEditable",
			"type": "event"
		},
		{
			"anonymous": false,
			"inputs": [
				{
					"indexed": true,
					"internalType": "address",
					"name": "_manager",
					"type": "address"
				},
				{
					"indexed": false,
					"internalType": "bool",
					"name": "_value",
					"type": "bool"
				}
			],
			"name": "SetGlobalManager",
			"type": "event"
		},
		{
			"anonymous": false,
			"inputs": [
				{
					"indexed": true,
					"internalType": "address",
					"name": "_minter",
					"type": "address"
				},
				{
					"indexed": false,
					"internalType": "bool",
					"name": "_value",
					"type": "bool"
				}
			],
			"name": "SetGlobalMinter",
			"type": "event"
		},
		{
			"anonymous": false,
			"inputs": [
				{
					"indexed": true,
					"internalType": "uint256",
					"name": "_itemId",
					"type": "uint256"
				},
				{
					"indexed": true,
					"internalType": "address",
					"name": "_manager",
					"type": "address"
				},
				{
					"indexed": false,
					"internalType": "bool",
					"name": "_value",
					"type": "bool"
				}
			],
			"name": "SetItemManager",
			"type": "event"
		},
		{
			"anonymous": false,
			"inputs": [
				{
					"indexed": true,
					"internalType": "uint256",
					"name": "_itemId",
					"type": "uint256"
				},
				{
					"indexed": true,
					"internalType": "address",
					"name": "_minter",
					"type": "address"
				},
				{
					"indexed": false,
					"internalType": "uint256",
					"name": "_value",
					"type": "uint256"
				}
			],
			"name": "SetItemMinter",
			"type": "event"
		},
		{
			"anonymous": false,
			"inputs": [
				{
					"indexed": true,
					"internalType": "address",
					"name": "from",
					"type": "address"
				},
				{
					"indexed": true,
					"internalType": "address",
					"name": "to",
					"type": "address"
				},
				{
					"indexed": true,
					"internalType": "uint256",
					"name": "tokenId",
					"type": "uint256"
				}
			],
			"name": "Transfer",
			"type": "event"
		},
		{
			"anonymous": false,
			"inputs": [
				{
					"indexed": true,
					"internalType": "uint256",
					"name": "_itemId",
					"type": "uint256"
				},
				{
					"indexed": false,
					"internalType": "uint256",
					"name": "_price",
					"type": "uint256"
				},
				{
					"indexed": false,
					"internalType": "address",
					"name": "_beneficiary",
					"type": "address"
				},
				{
					"indexed": false,
					"internalType": "string",
					"name": "_metadata",
					"type": "string"
				}
			],
			"name": "UpdateItemData",
			"type": "event"
		},
		{
			"inputs": [],
			"name": "COLLECTION_HASH",
			"outputs": [
				{
					"internalType": "bytes32",
					"name": "",
					"type": "bytes32"
				}
			],
			"stateMutability": "view",
			"type": "function"
		},
		{
			"inputs": [],
			"name": "ISSUED_ID_BITS",
			"outputs": [
				{
					"internalType": "uint8",
					"name": "",
					"type": "uint8"
				}
			],
			"stateMutability": "view",
			"type": "function"
		},
		{
			"inputs": [],
			"name": "ITEM_ID_BITS",
			"outputs": [
				{
					"internalType": "uint8",
					"name": "",
					"type": "uint8"
				}
			],
			"stateMutability": "view",
			"type": "function"
		},
		{
			"inputs": [],
			"name": "MAX_ISSUED_ID",
			"outputs": [
				{
					"internalType": "uint216",
					"name": "",
					"type": "uint216"
				}
			],
			"stateMutability": "view",
			"type": "function"
		},
		{
			"inputs": [],
			"name": "MAX_ITEM_ID",
			"outputs": [
				{
					"internalType": "uint40",
					"name": "",
					"type": "uint40"
				}
			],
			"stateMutability": "view",
			"type": "function"
		},
		{
			"inputs": [
				{
					"components": [
						{
							"internalType": "string",
							"name": "rarity",
							"type": "string"
						},
						{
							"internalType": "uint256",
							"name": "price",
							"type": "uint256"
						},
						{
							"internalType": "address",
							"name": "beneficiary",
							"type": "address"
						},
						{
							"internalType": "string",
							"name": "metadata",
							"type": "string"
						}
					],
					"internalType": "struct ERC721BaseCollectionV2.ItemParam[]",
					"name": "_items",
					"type": "tuple[]"
				}
			],
			"name": "addItems",
			"outputs": [],
			"stateMutability": "nonpayable",
			"type": "function"
		},
		{
			"inputs": [
				{
					"internalType": "address",
					"name": "to",
					"type": "address"
				},
				{
					"internalType": "uint256",
					"name": "tokenId",
					"type": "uint256"
				}
			],
			"name": "approve",
			"outputs": [],
			"stateMutability": "nonpayable",
			"type": "function"
		},
		{
			"inputs": [
				{
					"internalType": "address",
					"name": "owner",
					"type": "address"
				}
			],
			"name": "balanceOf",
			"outputs": [
				{
					"internalType": "uint256",
					"name": "",
					"type": "uint256"
				}
			],
			"stateMutability": "view",
			"type": "function"
		},
		{
			"inputs": [],
			"name": "baseURI",
			"outputs": [
				{
					"internalType": "string",
					"name": "",
					"type": "string"
				}
			],
			"stateMutability": "view",
			"type": "function"
		},
		{
			"inputs": [
				{
					"internalType": "address",
					"name": "_from",
					"type": "address"
				},
				{
					"internalType": "address",
					"name": "_to",
					"type": "address"
				},
				{
					"internalType": "uint256[]",
					"name": "_tokenIds",
					"type": "uint256[]"
				}
			],
			"name": "batchTransferFrom",
			"outputs": [],
			"stateMutability": "nonpayable",
			"type": "function"
		},
		{
			"inputs": [],
			"name": "completeCollection",
			"outputs": [],
			"stateMutability": "nonpayable",
			"type": "function"
		},
		{
			"inputs": [],
			"name": "createdAt",
			"outputs": [
				{
					"internalType": "uint256",
					"name": "",
					"type": "uint256"
				}
			],
			"stateMutability": "view",
			"type": "function"
		},
		{
			"inputs": [],
			"name": "creator",
			"outputs": [
				{
					"internalType": "address",
					"name": "",
					"type": "address"
				}
			],
			"stateMutability": "view",
			"type": "function"
		},
		{
			"inputs": [
				{
					"internalType": "uint256",
					"name": "_id",
					"type": "uint256"
				}
			],
			"name": "decodeTokenId",
			"outputs": [
				{
					"internalType": "uint256",
					"name": "itemId",
					"type": "uint256"
				},
				{
					"internalType": "uint256",
					"name": "issuedId",
					"type": "uint256"
				}
			],
			"stateMutability": "pure",
			"type": "function"
		},
		{
			"inputs": [
				{
					"internalType": "uint256[]",
					"name": "_itemIds",
					"type": "uint256[]"
				},
				{
					"internalType": "uint256[]",
					"name": "_prices",
					"type": "uint256[]"
				},
				{
					"internalType": "address[]",
					"name": "_beneficiaries",
					"type": "address[]"
				},
				{
					"internalType": "string[]",
					"name": "_metadatas",
					"type": "string[]"
				}
			],
			"name": "editItemsData",
			"outputs": [],
			"stateMutability": "nonpayable",
			"type": "function"
		},
		{
			"inputs": [
				{
					"internalType": "uint256",
					"name": "_itemId",
					"type": "uint256"
				},
				{
					"internalType": "uint256",
					"name": "_issuedId",
					"type": "uint256"
				}
			],
			"name": "encodeTokenId",
			"outputs": [
				{
					"internalType": "uint256",
					"name": "id",
					"type": "uint256"
				}
			],
			"stateMutability": "pure",
			"type": "function"
		},
		{
			"inputs": [
				{
					"internalType": "uint256",
					"name": "tokenId",
					"type": "uint256"
				}
			],
			"name": "getApproved",
			"outputs": [
				{
					"internalType": "address",
					"name": "",
					"type": "address"
				}
			],
			"stateMutability": "view",
			"type": "function"
		},
		{
			"inputs": [
				{
					"internalType": "address",
					"name": "",
					"type": "address"
				}
			],
			"name": "globalManagers",
			"outputs": [
				{
					"internalType": "bool",
					"name": "",
					"type": "bool"
				}
			],
			"stateMutability": "view",
			"type": "function"
		},
		{
			"inputs": [
				{
					"internalType": "address",
					"name": "",
					"type": "address"
				}
			],
			"name": "globalMinters",
			"outputs": [
				{
					"internalType": "bool",
					"name": "",
					"type": "bool"
				}
			],
			"stateMutability": "view",
			"type": "function"
		},
		{
			"inputs": [],
			"name": "initImplementation",
			"outputs": [],
			"stateMutability": "nonpayable",
			"type": "function"
		},
		{
			"inputs": [
				{
					"internalType": "string",
					"name": "_name",
					"type": "string"
				},
				{
					"internalType": "string",
					"name": "_symbol",
					"type": "string"
				},
				{
					"internalType": "string",
					"name": "_baseURI",
					"type": "string"
				},
				{
					"internalType": "address",
					"name": "_creator",
					"type": "address"
				},
				{
					"internalType": "bool",
					"name": "_shouldComplete",
					"type": "bool"
				},
				{
					"internalType": "bool",
					"name": "_isApproved",
					"type": "bool"
				},
				{
					"internalType": "contract IRarities",
					"name": "_rarities",
					"type": "address"
				},
				{
					"components": [
						{
							"internalType": "string",
							"name": "rarity",
							"type": "string"
						},
						{
							"internalType": "uint256",
							"name": "price",
							"type": "uint256"
						},
						{
							"internalType": "address",
							"name": "beneficiary",
							"type": "address"
						},
						{
							"internalType": "string",
							"name": "metadata",
							"type": "string"
						}
					],
					"internalType": "struct ERC721BaseCollectionV2.ItemParam[]",
					"name": "_items",
					"type": "tuple[]"
				}
			],
			"name": "initialize",
			"outputs": [],
			"stateMutability": "nonpayable",
			"type": "function"
		},
		{
			"inputs": [],
			"name": "isApproved",
			"outputs": [
				{
					"internalType": "bool",
					"name": "",
					"type": "bool"
				}
			],
			"stateMutability": "view",
			"type": "function"
		},
		{
			"inputs": [
				{
					"internalType": "address",
					"name": "owner",
					"type": "address"
				},
				{
					"internalType": "address",
					"name": "operator",
					"type": "address"
				}
			],
			"name": "isApprovedForAll",
			"outputs": [
				{
					"internalType": "bool",
					"name": "",
					"type": "bool"
				}
			],
			"stateMutability": "view",
			"type": "function"
		},
		{
			"inputs": [],
			"name": "isCompleted",
			"outputs": [
				{
					"internalType": "bool",
					"name": "",
					"type": "bool"
				}
			],
			"stateMutability": "view",
			"type": "function"
		},
		{
			"inputs": [],
			"name": "isEditable",
			"outputs": [
				{
					"internalType": "bool",
					"name": "",
					"type": "bool"
				}
			],
			"stateMutability": "view",
			"type": "function"
		},
		{
			"inputs": [],
			"name": "isInitialized",
			"outputs": [
				{
					"internalType": "bool",
					"name": "",
					"type": "bool"
				}
			],
			"stateMutability": "view",
			"type": "function"
		},
		{
			"inputs": [],
			"name": "isMintingAllowed",
			"outputs": [
				{
					"internalType": "bool",
					"name": "",
					"type": "bool"
				}
			],
			"stateMutability": "view",
			"type": "function"
		},
		{
			"inputs": [
				{
					"internalType": "address[]",
					"name": "_beneficiaries",
					"type": "address[]"
				},
				{
					"internalType": "uint256[]",
					"name": "_itemIds",
					"type": "uint256[]"
				}
			],
			"name": "issueTokens",
			"outputs": [],
			"stateMutability": "nonpayable",
			"type": "function"
		},
		{
			"inputs": [
				{
					"internalType": "uint256",
					"name": "",
					"type": "uint256"
				},
				{
					"internalType": "address",
					"name": "",
					"type": "address"
				}
			],
			"name": "itemManagers",
			"outputs": [
				{
					"internalType": "bool",
					"name": "",
					"type": "bool"
				}
			],
			"stateMutability": "view",
			"type": "function"
		},
		{
			"inputs": [
				{
					"internalType": "uint256",
					"name": "",
					"type": "uint256"
				},
				{
					"internalType": "address",
					"name": "",
					"type": "address"
				}
			],
			"name": "itemMinters",
			"outputs": [
				{
					"internalType": "uint256",
					"name": "",
					"type": "uint256"
				}
			],
			"stateMutability": "view",
			"type": "function"
		},
		{
			"inputs": [
				{
					"internalType": "uint256",
					"name": "",
					"type": "uint256"
				}
			],
			"name": "items",
			"outputs": [
				{
					"internalType": "string",
					"name": "rarity",
					"type": "string"
				},
				{
					"internalType": "uint256",
					"name": "maxSupply",
					"type": "uint256"
				},
				{
					"internalType": "uint256",
					"name": "totalSupply",
					"type": "uint256"
				},
				{
					"internalType": "uint256",
					"name": "price",
					"type": "uint256"
				},
				{
					"internalType": "address",
					"name": "beneficiary",
					"type": "address"
				},
				{
					"internalType": "string",
					"name": "metadata",
					"type": "string"
				},
				{
					"internalType": "string",
					"name": "contentHash",
					"type": "string"
				}
			],
			"stateMutability": "view",
			"type": "function"
		},
		{
			"inputs": [],
			"name": "itemsCount",
			"outputs": [
				{
					"internalType": "uint256",
					"name": "",
					"type": "uint256"
				}
			],
			"stateMutability": "view",
			"type": "function"
		},
		{
			"inputs": [],
			"name": "name",
			"outputs": [
				{
					"internalType": "string",
					"name": "",
					"type": "string"
				}
			],
			"stateMutability": "view",
			"type": "function"
		},
		{
			"inputs": [],
			"name": "owner",
			"outputs": [
				{
					"internalType": "address",
					"name": "",
					"type": "address"
				}
			],
			"stateMutability": "view",
			"type": "function"
		},
		{
			"inputs": [
				{
					"internalType": "uint256",
					"name": "tokenId",
					"type": "uint256"
				}
			],
			"name": "ownerOf",
			"outputs": [
				{
					"internalType": "address",
					"name": "",
					"type": "address"
				}
			],
			"stateMutability": "view",
			"type": "function"
		},
		{
			"inputs": [],
			"name": "rarities",
			"outputs": [
				{
					"internalType": "contract IRarities",
					"name": "",
					"type": "address"
				}
			],
			"stateMutability": "view",
			"type": "function"
		},
		{
			"inputs": [],
			"name": "renounceOwnership",
			"outputs": [],
			"stateMutability": "nonpayable",
			"type": "function"
		},
		{
			"inputs": [
				{
					"internalType": "uint256[]",
					"name": "_itemIds",
					"type": "uint256[]"
				},
				{
					"internalType": "string[]",
					"name": "_contentHashes",
					"type": "string[]"
				},
				{
					"internalType": "string[]",
					"name": "_metadatas",
					"type": "string[]"
				}
			],
			"name": "rescueItems",
			"outputs": [],
			"stateMutability": "nonpayable",
			"type": "function"
		},
		{
			"inputs": [
				{
					"internalType": "address",
					"name": "_from",
					"type": "address"
				},
				{
					"internalType": "address",
					"name": "_to",
					"type": "address"
				},
				{
					"internalType": "uint256[]",
					"name": "_tokenIds",
					"type": "uint256[]"
				},
				{
					"internalType": "bytes",
					"name": "_data",
					"type": "bytes"
				}
			],
			"name": "safeBatchTransferFrom",
			"outputs": [],
			"stateMutability": "nonpayable",
			"type": "function"
		},
		{
			"inputs": [
				{
					"internalType": "address",
					"name": "from",
					"type": "address"
				},
				{
					"internalType": "address",
					"name": "to",
					"type": "address"
				},
				{
					"internalType": "uint256",
					"name": "tokenId",
					"type": "uint256"
				}
			],
			"name": "safeTransferFrom",
			"outputs": [],
			"stateMutability": "nonpayable",
			"type": "function"
		},
		{
			"inputs": [
				{
					"internalType": "address",
					"name": "from",
					"type": "address"
				},
				{
					"internalType": "address",
					"name": "to",
					"type": "address"
				},
				{
					"internalType": "uint256",
					"name": "tokenId",
					"type": "uint256"
				},
				{
					"internalType": "bytes",
					"name": "_data",
					"type": "bytes"
				}
			],
			"name": "safeTransferFrom",
			"outputs": [],
			"stateMutability": "nonpayable",
			"type": "function"
		},
		{
			"inputs": [
				{
					"internalType": "address",
					"name": "operator",
					"type": "address"
				},
				{
					"internalType": "bool",
					"name": "approved",
					"type": "bool"
				}
			],
			"name": "setApprovalForAll",
			"outputs": [],
			"stateMutability": "nonpayable",
			"type": "function"
		},
		{
			"inputs": [
				{
					"internalType": "bool",
					"name": "_value",
					"type": "bool"
				}
			],
			"name": "setApproved",
			"outputs": [],
			"stateMutability": "nonpayable",
			"type": "function"
		},
		{
			"inputs": [
				{
					"internalType": "string",
					"name": "_baseURI",
					"type": "string"
				}
			],
			"name": "setBaseURI",
			"outputs": [],
			"stateMutability": "nonpayable",
			"type": "function"
		},
		{
			"inputs": [
				{
					"internalType": "bool",
					"name": "_value",
					"type": "bool"
				}
			],
			"name": "setEditable",
			"outputs": [],
			"stateMutability": "nonpayable",
			"type": "function"
		},
		{
			"inputs": [
				{
					"internalType": "uint256[]",
					"name": "_itemIds",
					"type": "uint256[]"
				},
				{
					"internalType": "address[]",
					"name": "_managers",
					"type": "address[]"
				},
				{
					"internalType": "bool[]",
					"name": "_values",
					"type": "bool[]"
				}
			],
			"name": "setItemsManagers",
			"outputs": [],
			"stateMutability": "nonpayable",
			"type": "function"
		},
		{
			"inputs": [
				{
					"internalType": "uint256[]",
					"name": "_itemIds",
					"type": "uint256[]"
				},
				{
					"internalType": "address[]",
					"name": "_minters",
					"type": "address[]"
				},
				{
					"internalType": "uint256[]",
					"name": "_values",
					"type": "uint256[]"
				}
			],
			"name": "setItemsMinters",
			"outputs": [],
			"stateMutability": "nonpayable",
			"type": "function"
		},
		{
			"inputs": [
				{
					"internalType": "address[]",
					"name": "_managers",
					"type": "address[]"
				},
				{
					"internalType": "bool[]",
					"name": "_values",
					"type": "bool[]"
				}
			],
			"name": "setManagers",
			"outputs": [],
			"stateMutability": "nonpayable",
			"type": "function"
		},
		{
			"inputs": [
				{
					"internalType": "address[]",
					"name": "_minters",
					"type": "address[]"
				},
				{
					"internalType": "bool[]",
					"name": "_values",
					"type": "bool[]"
				}
			],
			"name": "setMinters",
			"outputs": [],
			"stateMutability": "nonpayable",
			"type": "function"
		},
		{
			"inputs": [
				{
					"internalType": "bytes4",
					"name": "interfaceId",
					"type": "bytes4"
				}
			],
			"name": "supportsInterface",
			"outputs": [
				{
					"internalType": "bool",
					"name": "",
					"type": "bool"
				}
			],
			"stateMutability": "view",
			"type": "function"
		},
		{
			"inputs": [],
			"name": "symbol",
			"outputs": [
				{
					"internalType": "string",
					"name": "",
					"type": "string"
				}
			],
			"stateMutability": "view",
			"type": "function"
		},
		{
			"inputs": [
				{
					"internalType": "uint256",
					"name": "index",
					"type": "uint256"
				}
			],
			"name": "tokenByIndex",
			"outputs": [
				{
					"internalType": "uint256",
					"name": "",
					"type": "uint256"
				}
			],
			"stateMutability": "view",
			"type": "function"
		},
		{
			"inputs": [
				{
					"internalType": "address",
					"name": "owner",
					"type": "address"
				},
				{
					"internalType": "uint256",
					"name": "index",
					"type": "uint256"
				}
			],
			"name": "tokenOfOwnerByIndex",
			"outputs": [
				{
					"internalType": "uint256",
					"name": "",
					"type": "uint256"
				}
			],
			"stateMutability": "view",
			"type": "function"
		},
		{
			"inputs": [
				{
					"internalType": "uint256",
					"name": "_tokenId",
					"type": "uint256"
				}
			],
			"name": "tokenURI",
			"outputs": [
				{
					"internalType": "string",
					"name": "",
					"type": "string"
				}
			],
			"stateMutability": "view",
			"type": "function"
		},
		{
			"inputs": [],
			"name": "totalSupply",
			"outputs": [
				{
					"internalType": "uint256",
					"name": "",
					"type": "uint256"
				}
			],
			"stateMutability": "view",
			"type": "function"
		},
		{
			"inputs": [
				{
					"internalType": "address",
					"name": "_newCreator",
					"type": "address"
				}
			],
			"name": "transferCreatorship",
			"outputs": [],
			"stateMutability": "nonpayable",
			"type": "function"
		},
		{
			"inputs": [
				{
					"internalType": "address",
					"name": "from",
					"type": "address"
				},
				{
					"internalType": "address",
					"name": "to",
					"type": "address"
				},
				{
					"internalType": "uint256",
					"name": "tokenId",
					"type": "uint256"
				}
			],
			"name": "transferFrom",
			"outputs": [],
			"stateMutability": "nonpayable",
			"type": "function"
		},
		{
			"inputs": [
				{
					"internalType": "address",
					"name": "newOwner",
					"type": "address"
				}
			],
			"name": "transferOwnership",
			"outputs": [],
			"stateMutability": "nonpayable",
			"type": "function"
		}
	]
}